{
  "_format": "hh-sol-artifact-1",
  "contractName": "DecryptionOracle",
  "sourceName": "contracts/DecryptionOracle.sol",
  "abi": [
    {
      "inputs": [],
      "stateMutability": "nonpayable",
      "type": "constructor"
    },
    {
      "inputs": [
        {
          "internalType": "address",
          "name": "target",
          "type": "address"
        }
      ],
      "name": "AddressEmptyCode",
      "type": "error"
    },
    {
      "inputs": [
        {
          "internalType": "address",
          "name": "implementation",
          "type": "address"
        }
      ],
      "name": "ERC1967InvalidImplementation",
      "type": "error"
    },
    {
      "inputs": [],
      "name": "ERC1967NonPayable",
      "type": "error"
    },
    {
      "inputs": [],
      "name": "FailedInnerCall",
      "type": "error"
    },
    {
      "inputs": [],
      "name": "InvalidInitialization",
      "type": "error"
    },
    {
      "inputs": [],
      "name": "NotInitializing",
      "type": "error"
    },
    {
      "inputs": [
        {
          "internalType": "address",
          "name": "owner",
          "type": "address"
        }
      ],
      "name": "OwnableInvalidOwner",
      "type": "error"
    },
    {
      "inputs": [
        {
          "internalType": "address",
          "name": "account",
          "type": "address"
        }
      ],
      "name": "OwnableUnauthorizedAccount",
      "type": "error"
    },
    {
      "inputs": [],
      "name": "UUPSUnauthorizedCallContext",
      "type": "error"
    },
    {
      "inputs": [
        {
          "internalType": "bytes32",
          "name": "slot",
          "type": "bytes32"
        }
      ],
      "name": "UUPSUnsupportedProxiableUUID",
      "type": "error"
    },
    {
      "anonymous": false,
      "inputs": [
        {
          "indexed": true,
          "internalType": "uint256",
          "name": "counter",
          "type": "uint256"
        },
        {
          "indexed": false,
          "internalType": "uint256",
          "name": "requestID",
          "type": "uint256"
        },
        {
          "indexed": false,
          "internalType": "bytes32[]",
          "name": "cts",
          "type": "bytes32[]"
        },
        {
          "indexed": false,
          "internalType": "address",
          "name": "contractCaller",
          "type": "address"
        },
        {
          "indexed": false,
          "internalType": "bytes4",
          "name": "callbackSelector",
          "type": "bytes4"
        }
      ],
      "name": "DecryptionRequest",
      "type": "event"
    },
    {
      "anonymous": false,
      "inputs": [
        {
          "indexed": false,
          "internalType": "uint64",
          "name": "version",
          "type": "uint64"
        }
      ],
      "name": "Initialized",
      "type": "event"
    },
    {
      "anonymous": false,
      "inputs": [
        {
          "indexed": true,
          "internalType": "address",
          "name": "previousOwner",
          "type": "address"
        },
        {
          "indexed": true,
          "internalType": "address",
          "name": "newOwner",
          "type": "address"
        }
      ],
      "name": "OwnershipTransferStarted",
      "type": "event"
    },
    {
      "anonymous": false,
      "inputs": [
        {
          "indexed": true,
          "internalType": "address",
          "name": "previousOwner",
          "type": "address"
        },
        {
          "indexed": true,
          "internalType": "address",
          "name": "newOwner",
          "type": "address"
        }
      ],
      "name": "OwnershipTransferred",
      "type": "event"
    },
    {
      "anonymous": false,
      "inputs": [
        {
          "indexed": true,
          "internalType": "address",
          "name": "implementation",
          "type": "address"
        }
      ],
      "name": "Upgraded",
      "type": "event"
    },
    {
      "inputs": [],
      "name": "UPGRADE_INTERFACE_VERSION",
      "outputs": [
        {
          "internalType": "string",
          "name": "",
          "type": "string"
        }
      ],
      "stateMutability": "view",
      "type": "function"
    },
    {
      "inputs": [],
      "name": "acceptOwnership",
      "outputs": [],
      "stateMutability": "nonpayable",
      "type": "function"
    },
    {
      "inputs": [],
      "name": "getCounter",
      "outputs": [
        {
          "internalType": "uint256",
          "name": "",
          "type": "uint256"
        }
      ],
      "stateMutability": "nonpayable",
      "type": "function"
    },
    {
      "inputs": [],
      "name": "getVersion",
      "outputs": [
        {
          "internalType": "string",
          "name": "",
          "type": "string"
        }
      ],
      "stateMutability": "pure",
      "type": "function"
    },
    {
      "inputs": [],
      "name": "owner",
      "outputs": [
        {
          "internalType": "address",
          "name": "",
          "type": "address"
        }
      ],
      "stateMutability": "view",
      "type": "function"
    },
    {
      "inputs": [],
      "name": "pendingOwner",
      "outputs": [
        {
          "internalType": "address",
          "name": "",
          "type": "address"
        }
      ],
      "stateMutability": "view",
      "type": "function"
    },
    {
      "inputs": [],
      "name": "proxiableUUID",
      "outputs": [
        {
          "internalType": "bytes32",
          "name": "",
          "type": "bytes32"
        }
      ],
      "stateMutability": "view",
      "type": "function"
    },
    {
      "inputs": [],
      "name": "reinitialize",
      "outputs": [],
      "stateMutability": "nonpayable",
      "type": "function"
    },
    {
      "inputs": [],
      "name": "renounceOwnership",
      "outputs": [],
      "stateMutability": "nonpayable",
      "type": "function"
    },
    {
      "inputs": [
        {
          "internalType": "uint256",
          "name": "requestID",
          "type": "uint256"
        },
        {
          "internalType": "bytes32[]",
          "name": "ctsHandles",
          "type": "bytes32[]"
        },
        {
          "internalType": "bytes4",
          "name": "callbackSelector",
          "type": "bytes4"
        }
      ],
      "name": "requestDecryption",
      "outputs": [],
      "stateMutability": "nonpayable",
      "type": "function"
    },
    {
      "inputs": [
        {
          "internalType": "address",
          "name": "newOwner",
          "type": "address"
        }
      ],
      "name": "transferOwnership",
      "outputs": [],
      "stateMutability": "nonpayable",
      "type": "function"
    },
    {
      "inputs": [
        {
          "internalType": "address",
          "name": "newImplementation",
          "type": "address"
        },
        {
          "internalType": "bytes",
          "name": "data",
          "type": "bytes"
        }
      ],
      "name": "upgradeToAndCall",
      "outputs": [],
      "stateMutability": "payable",
      "type": "function"
    }
  ],
  "bytecode": "0x60a06040523073ffffffffffffffffffffffffffffffffffffffff1660809073ffffffffffffffffffffffffffffffffffffffff168152503480156200004457600080fd5b50620000556200005b60201b60201c565b620001cf565b60006200006d6200016560201b60201c565b90508060000160089054906101000a900460ff1615620000b9576040517ff92ee8a900000000000000000000000000000000000000000000000000000000815260040160405180910390fd5b67ffffffffffffffff80168160000160009054906101000a900467ffffffffffffffff1667ffffffffffffffff1614620001625767ffffffffffffffff8160000160006101000a81548167ffffffffffffffff021916908367ffffffffffffffff1602179055507fc7f505b2f371ae2175ee4913f4499e1f2633a7b5936321eed1cdaeb6115181d267ffffffffffffffff604051620001599190620001b2565b60405180910390a15b50565b60007ff0c57e16840df040f15088dc2f81fe391c3923bec73e23a9662efc9c229c6a00905090565b600067ffffffffffffffff82169050919050565b620001ac816200018d565b82525050565b6000602082019050620001c96000830184620001a1565b92915050565b608051611ad5620001f9600039600081816107f70152818161084c0152610a070152611ad56000f3fe6080604052600436106100a75760003560e01c806379ba50971161006457806379ba5097146101755780638ada066e1461018c5780638da5cb5b146101b7578063ad3cb1cc146101e2578063e30c39781461020d578063f2fde38b14610238576100a7565b80630d8e6e2c146100ac5780633263b83b146100d75780634f1ef2861461010057806352d1902d1461011c5780636c2eb35014610147578063715018a61461015e575b600080fd5b3480156100b857600080fd5b506100c1610261565b6040516100ce91906112bd565b60405180910390f35b3480156100e357600080fd5b506100fe60048036038101906100f991906113e6565b6102de565b005b61011a600480360381019061011591906115e8565b61034f565b005b34801561012857600080fd5b5061013161036e565b60405161013e919061165d565b60405180910390f35b34801561015357600080fd5b5061015c6103a1565b005b34801561016a57600080fd5b506101736104df565b005b34801561018157600080fd5b5061018a6104f3565b005b34801561019857600080fd5b506101a1610582565b6040516101ae9190611687565b60405180910390f35b3480156101c357600080fd5b506101cc61059a565b6040516101d991906116b1565b60405180910390f35b3480156101ee57600080fd5b506101f76105d2565b60405161020491906112bd565b60405180910390f35b34801561021957600080fd5b5061022261060b565b60405161022f91906116b1565b60405180910390f35b34801561024457600080fd5b5061025f600480360381019061025a91906116cc565b610643565b005b60606040518060400160405280601081526020017f44656372797074696f6e4f7261636c65000000000000000000000000000000008152506102a360006106ff565b6102ad60016106ff565b6102b760006106ff565b6040516020016102ca94939291906117cd565b604051602081830303815290604052905090565b60006102e86107cd565b905080600001547ff9a580b32950f598a0b7fe0edf634b8af409702fb0fedad9ec367ce0e87fcbfd86868633876040516103269594939291906118b6565b60405180910390a280600001600081548092919061034390611933565b91905055505050505050565b6103576107f5565b610360826108db565b61036a82826108e6565b5050565b6000610378610a05565b7f360894a13ba1a3210667c828492db98dca3e2076cc3735a920a3ca505d382bbc60001b905090565b600260006103ad610a8c565b90508060000160089054906101000a900460ff16806103f857508167ffffffffffffffff168160000160009054906101000a900467ffffffffffffffff1667ffffffffffffffff1610155b1561042f576040517ff92ee8a900000000000000000000000000000000000000000000000000000000815260040160405180910390fd5b818160000160006101000a81548167ffffffffffffffff021916908367ffffffffffffffff16021790555060018160000160086101000a81548160ff02191690831515021790555061048761048261059a565b610ab4565b60008160000160086101000a81548160ff0219169083151502179055507fc7f505b2f371ae2175ee4913f4499e1f2633a7b5936321eed1cdaeb6115181d2826040516104d3919061199e565b60405180910390a15050565b6104e7610ac8565b6104f16000610b4f565b565b60006104fd610b8f565b90508073ffffffffffffffffffffffffffffffffffffffff1661051e61060b565b73ffffffffffffffffffffffffffffffffffffffff161461057657806040517f118cdaa700000000000000000000000000000000000000000000000000000000815260040161056d91906116b1565b60405180910390fd5b61057f81610b4f565b50565b60008061058d6107cd565b9050806000015491505090565b6000806105a5610b97565b90508060000160009054906101000a900473ffffffffffffffffffffffffffffffffffffffff1691505090565b6040518060400160405280600581526020017f352e302e3000000000000000000000000000000000000000000000000000000081525081565b600080610616610bbf565b90508060000160009054906101000a900473ffffffffffffffffffffffffffffffffffffffff1691505090565b61064b610ac8565b6000610655610bbf565b9050818160000160006101000a81548173ffffffffffffffffffffffffffffffffffffffff021916908373ffffffffffffffffffffffffffffffffffffffff1602179055508173ffffffffffffffffffffffffffffffffffffffff166106b961059a565b73ffffffffffffffffffffffffffffffffffffffff167f38d16b8cac22d99fc7c124b9cd0de2d3fa1faef420bfe791d8c362d765e2270060405160405180910390a35050565b60606000600161070e84610be7565b01905060008167ffffffffffffffff81111561072d5761072c6114bd565b5b6040519080825280601f01601f19166020018201604052801561075f5781602001600182028036833780820191505090505b509050600082602001820190505b6001156107c2578080600190039150507f3031323334353637383961626364656600000000000000000000000000000000600a86061a8153600a85816107b6576107b56119b9565b5b0494506000850361076d575b819350505050919050565b60007f936e06112e7fc4b8f5465a83d43e3a1585e7666ab7af39c4044235360fa2ea00905090565b7f000000000000000000000000000000000000000000000000000000000000000073ffffffffffffffffffffffffffffffffffffffff163073ffffffffffffffffffffffffffffffffffffffff1614806108a257507f000000000000000000000000000000000000000000000000000000000000000073ffffffffffffffffffffffffffffffffffffffff16610889610d3a565b73ffffffffffffffffffffffffffffffffffffffff1614155b156108d9576040517fe07c8dba00000000000000000000000000000000000000000000000000000000815260040160405180910390fd5b565b6108e3610ac8565b50565b8173ffffffffffffffffffffffffffffffffffffffff166352d1902d6040518163ffffffff1660e01b8152600401602060405180830381865afa92505050801561094e57506040513d601f19601f8201168201806040525081019061094b9190611a14565b60015b61098f57816040517f4c9c8ce300000000000000000000000000000000000000000000000000000000815260040161098691906116b1565b60405180910390fd5b7f360894a13ba1a3210667c828492db98dca3e2076cc3735a920a3ca505d382bbc60001b81146109f657806040517faa1d49a40000000000000000000000000000000000000000000000000000000081526004016109ed919061165d565b60405180910390fd5b610a008383610d91565b505050565b7f000000000000000000000000000000000000000000000000000000000000000073ffffffffffffffffffffffffffffffffffffffff163073ffffffffffffffffffffffffffffffffffffffff1614610a8a576040517fe07c8dba00000000000000000000000000000000000000000000000000000000815260040160405180910390fd5b565b60007ff0c57e16840df040f15088dc2f81fe391c3923bec73e23a9662efc9c229c6a00905090565b610abc610e04565b610ac581610e44565b50565b610ad0610b8f565b73ffffffffffffffffffffffffffffffffffffffff16610aee61059a565b73ffffffffffffffffffffffffffffffffffffffff1614610b4d57610b11610b8f565b6040517f118cdaa7000000000000000000000000000000000000000000000000000000008152600401610b4491906116b1565b60405180910390fd5b565b6000610b59610bbf565b90508060000160006101000a81549073ffffffffffffffffffffffffffffffffffffffff0219169055610b8b82610eca565b5050565b600033905090565b60007f9016d09d72d40fdae2fd8ceac6b6234c7706214fd39c1cd1e609a0528c199300905090565b60007f237e158222e3e6968b72b9db0d8043aacf074ad9f650f0d1606b4d82ee432c00905090565b600080600090507a184f03e93ff9f4daa797ed6e38ed64bf6a1f0100000000000000008310610c45577a184f03e93ff9f4daa797ed6e38ed64bf6a1f0100000000000000008381610c3b57610c3a6119b9565b5b0492506040810190505b6d04ee2d6d415b85acef81000000008310610c82576d04ee2d6d415b85acef81000000008381610c7857610c776119b9565b5b0492506020810190505b662386f26fc100008310610cb157662386f26fc100008381610ca757610ca66119b9565b5b0492506010810190505b6305f5e1008310610cda576305f5e1008381610cd057610ccf6119b9565b5b0492506008810190505b6127108310610cff576127108381610cf557610cf46119b9565b5b0492506004810190505b60648310610d225760648381610d1857610d176119b9565b5b0492506002810190505b600a8310610d31576001810190505b80915050919050565b6000610d687f360894a13ba1a3210667c828492db98dca3e2076cc3735a920a3ca505d382bbc60001b610fa1565b60000160009054906101000a900473ffffffffffffffffffffffffffffffffffffffff16905090565b610d9a82610fab565b8173ffffffffffffffffffffffffffffffffffffffff167fbc7cd75a20ee27fd9adebab32041f755214dbc6bffa90cc0225b39da2e5c2d3b60405160405180910390a2600081511115610df757610df18282611078565b50610e00565b610dff6110fc565b5b5050565b610e0c611139565b610e42576040517fd7e6bcf800000000000000000000000000000000000000000000000000000000815260040160405180910390fd5b565b610e4c610e04565b600073ffffffffffffffffffffffffffffffffffffffff168173ffffffffffffffffffffffffffffffffffffffff1603610ebe5760006040517f1e4fbdf7000000000000000000000000000000000000000000000000000000008152600401610eb591906116b1565b60405180910390fd5b610ec781610b4f565b50565b6000610ed4610b97565b905060008160000160009054906101000a900473ffffffffffffffffffffffffffffffffffffffff169050828260000160006101000a81548173ffffffffffffffffffffffffffffffffffffffff021916908373ffffffffffffffffffffffffffffffffffffffff1602179055508273ffffffffffffffffffffffffffffffffffffffff168173ffffffffffffffffffffffffffffffffffffffff167f8be0079c531659141344cd1fd0a4f28419497f9722a3daafe3b4186f6b6457e060405160405180910390a3505050565b6000819050919050565b60008173ffffffffffffffffffffffffffffffffffffffff163b0361100757806040517f4c9c8ce3000000000000000000000000000000000000000000000000000000008152600401610ffe91906116b1565b60405180910390fd5b806110347f360894a13ba1a3210667c828492db98dca3e2076cc3735a920a3ca505d382bbc60001b610fa1565b60000160006101000a81548173ffffffffffffffffffffffffffffffffffffffff021916908373ffffffffffffffffffffffffffffffffffffffff16021790555050565b60606000808473ffffffffffffffffffffffffffffffffffffffff16846040516110a29190611a88565b600060405180830381855af49150503d80600081146110dd576040519150601f19603f3d011682016040523d82523d6000602084013e6110e2565b606091505b50915091506110f2858383611159565b9250505092915050565b6000341115611137576040517fb398979f00000000000000000000000000000000000000000000000000000000815260040160405180910390fd5b565b6000611143610a8c565b60000160089054906101000a900460ff16905090565b60608261116e57611169826111e8565b6111e0565b60008251148015611196575060008473ffffffffffffffffffffffffffffffffffffffff163b145b156111d857836040517f9996b3150000000000000000000000000000000000000000000000000000000081526004016111cf91906116b1565b60405180910390fd5b8190506111e1565b5b9392505050565b6000815111156111fb5780518082602001fd5b6040517f1425ea4200000000000000000000000000000000000000000000000000000000815260040160405180910390fd5b600081519050919050565b600082825260208201905092915050565b60005b8381101561126757808201518184015260208101905061124c565b60008484015250505050565b6000601f19601f8301169050919050565b600061128f8261122d565b6112998185611238565b93506112a9818560208601611249565b6112b281611273565b840191505092915050565b600060208201905081810360008301526112d78184611284565b905092915050565b6000604051905090565b600080fd5b600080fd5b6000819050919050565b611306816112f3565b811461131157600080fd5b50565b600081359050611323816112fd565b92915050565b600080fd5b600080fd5b600080fd5b60008083601f84011261134e5761134d611329565b5b8235905067ffffffffffffffff81111561136b5761136a61132e565b5b60208301915083602082028301111561138757611386611333565b5b9250929050565b60007fffffffff0000000000000000000000000000000000000000000000000000000082169050919050565b6113c38161138e565b81146113ce57600080fd5b50565b6000813590506113e0816113ba565b92915050565b60008060008060608587031215611400576113ff6112e9565b5b600061140e87828801611314565b945050602085013567ffffffffffffffff81111561142f5761142e6112ee565b5b61143b87828801611338565b9350935050604061144e878288016113d1565b91505092959194509250565b600073ffffffffffffffffffffffffffffffffffffffff82169050919050565b60006114858261145a565b9050919050565b6114958161147a565b81146114a057600080fd5b50565b6000813590506114b28161148c565b92915050565b600080fd5b7f4e487b7100000000000000000000000000000000000000000000000000000000600052604160045260246000fd5b6114f582611273565b810181811067ffffffffffffffff82111715611514576115136114bd565b5b80604052505050565b60006115276112df565b905061153382826114ec565b919050565b600067ffffffffffffffff821115611553576115526114bd565b5b61155c82611273565b9050602081019050919050565b82818337600083830152505050565b600061158b61158684611538565b61151d565b9050828152602081018484840111156115a7576115a66114b8565b5b6115b2848285611569565b509392505050565b600082601f8301126115cf576115ce611329565b5b81356115df848260208601611578565b91505092915050565b600080604083850312156115ff576115fe6112e9565b5b600061160d858286016114a3565b925050602083013567ffffffffffffffff81111561162e5761162d6112ee565b5b61163a858286016115ba565b9150509250929050565b6000819050919050565b61165781611644565b82525050565b6000602082019050611672600083018461164e565b92915050565b611681816112f3565b82525050565b600060208201905061169c6000830184611678565b92915050565b6116ab8161147a565b82525050565b60006020820190506116c660008301846116a2565b92915050565b6000602082840312156116e2576116e16112e9565b5b60006116f0848285016114a3565b91505092915050565b600081905092915050565b600061170f8261122d565b61171981856116f9565b9350611729818560208601611249565b80840191505092915050565b7f2076000000000000000000000000000000000000000000000000000000000000600082015250565b600061176b6002836116f9565b915061177682611735565b600282019050919050565b7f2e00000000000000000000000000000000000000000000000000000000000000600082015250565b60006117b76001836116f9565b91506117c282611781565b600182019050919050565b60006117d98287611704565b91506117e48261175e565b91506117f08286611704565b91506117fb826117aa565b91506118078285611704565b9150611812826117aa565b915061181e8284611704565b915081905095945050505050565b600082825260208201905092915050565b600080fd5b82818337505050565b6000611857838561182c565b93507f07ffffffffffffffffffffffffffffffffffffffffffffffffffffffffffffff83111561188a5761188961183d565b5b60208302925061189b838584611842565b82840190509392505050565b6118b08161138e565b82525050565b60006080820190506118cb6000830188611678565b81810360208301526118de81868861184b565b90506118ed60408301856116a2565b6118fa60608301846118a7565b9695505050505050565b7f4e487b7100000000000000000000000000000000000000000000000000000000600052601160045260246000fd5b600061193e826112f3565b91507fffffffffffffffffffffffffffffffffffffffffffffffffffffffffffffffff82036119705761196f611904565b5b600182019050919050565b600067ffffffffffffffff82169050919050565b6119988161197b565b82525050565b60006020820190506119b3600083018461198f565b92915050565b7f4e487b7100000000000000000000000000000000000000000000000000000000600052601260045260246000fd5b6119f181611644565b81146119fc57600080fd5b50565b600081519050611a0e816119e8565b92915050565b600060208284031215611a2a57611a296112e9565b5b6000611a38848285016119ff565b91505092915050565b600081519050919050565b600081905092915050565b6000611a6282611a41565b611a6c8185611a4c565b9350611a7c818560208601611249565b80840191505092915050565b6000611a948284611a57565b91508190509291505056fea26469706673582212207f876bd1dd5e9466588473e05c902e754f27100a186befc03eed2d8a086e627c64736f6c63430008180033",
  "linkReferences": {},
  "deployedLinkReferences": {}
}