{
  "_format": "hh-sol-artifact-1",
  "contractName": "HTTPZExecutor",
  "sourceName": "contracts/HTTPZExecutor.sol",
  "abi": [
    {
      "inputs": [],
      "stateMutability": "nonpayable",
      "type": "constructor"
    },
    {
      "inputs": [
        {
          "internalType": "bytes32",
          "name": "handle",
          "type": "bytes32"
        },
        {
          "internalType": "address",
          "name": "account",
          "type": "address"
        }
      ],
      "name": "ACLNotAllowed",
      "type": "error"
    },
    {
      "inputs": [
        {
          "internalType": "address",
          "name": "target",
          "type": "address"
        }
      ],
      "name": "AddressEmptyCode",
      "type": "error"
    },
    {
      "inputs": [],
      "name": "DivisionByZero",
      "type": "error"
    },
    {
      "inputs": [
        {
          "internalType": "address",
          "name": "implementation",
          "type": "address"
        }
      ],
      "name": "ERC1967InvalidImplementation",
      "type": "error"
    },
    {
      "inputs": [],
      "name": "ERC1967NonPayable",
      "type": "error"
    },
    {
      "inputs": [],
      "name": "FailedCall",
      "type": "error"
    },
    {
      "inputs": [],
      "name": "IncompatibleTypes",
      "type": "error"
    },
    {
      "inputs": [
        {
          "internalType": "enum FheType",
          "name": "typeOf",
          "type": "uint8"
        },
        {
          "internalType": "uint256",
          "name": "length",
          "type": "uint256"
        }
      ],
      "name": "InvalidByteLength",
      "type": "error"
    },
    {
      "inputs": [],
      "name": "InvalidInitialization",
      "type": "error"
    },
    {
      "inputs": [],
      "name": "InvalidType",
      "type": "error"
    },
    {
      "inputs": [],
      "name": "IsNotScalar",
      "type": "error"
    },
    {
      "inputs": [],
      "name": "IsScalar",
      "type": "error"
    },
    {
      "inputs": [],
      "name": "NotInitializing",
      "type": "error"
    },
    {
      "inputs": [],
      "name": "NotPowerOfTwo",
      "type": "error"
    },
    {
      "inputs": [
        {
          "internalType": "address",
          "name": "owner",
          "type": "address"
        }
      ],
      "name": "OwnableInvalidOwner",
      "type": "error"
    },
    {
      "inputs": [
        {
          "internalType": "address",
          "name": "account",
          "type": "address"
        }
      ],
      "name": "OwnableUnauthorizedAccount",
      "type": "error"
    },
    {
      "inputs": [],
      "name": "SecondOperandIsNotScalar",
      "type": "error"
    },
    {
      "inputs": [],
      "name": "UUPSUnauthorizedCallContext",
      "type": "error"
    },
    {
      "inputs": [
        {
          "internalType": "bytes32",
          "name": "slot",
          "type": "bytes32"
        }
      ],
      "name": "UUPSUnsupportedProxiableUUID",
      "type": "error"
    },
    {
      "inputs": [],
      "name": "UnsupportedType",
      "type": "error"
    },
    {
      "anonymous": false,
      "inputs": [
        {
          "indexed": true,
          "internalType": "address",
          "name": "caller",
          "type": "address"
        },
        {
          "indexed": false,
          "internalType": "bytes32",
          "name": "ct",
          "type": "bytes32"
        },
        {
          "indexed": false,
          "internalType": "enum FheType",
          "name": "toType",
          "type": "uint8"
        },
        {
          "indexed": false,
          "internalType": "bytes32",
          "name": "result",
          "type": "bytes32"
        }
      ],
      "name": "Cast",
      "type": "event"
    },
    {
      "anonymous": false,
      "inputs": [
        {
          "indexed": true,
          "internalType": "address",
          "name": "caller",
          "type": "address"
        },
        {
          "indexed": false,
          "internalType": "bytes32",
          "name": "lhs",
          "type": "bytes32"
        },
        {
          "indexed": false,
          "internalType": "bytes32",
          "name": "rhs",
          "type": "bytes32"
        },
        {
          "indexed": false,
          "internalType": "bytes1",
          "name": "scalarByte",
          "type": "bytes1"
        },
        {
          "indexed": false,
          "internalType": "bytes32",
          "name": "result",
          "type": "bytes32"
        }
      ],
      "name": "FheAdd",
      "type": "event"
    },
    {
      "anonymous": false,
      "inputs": [
        {
          "indexed": true,
          "internalType": "address",
          "name": "caller",
          "type": "address"
        },
        {
          "indexed": false,
          "internalType": "bytes32",
          "name": "lhs",
          "type": "bytes32"
        },
        {
          "indexed": false,
          "internalType": "bytes32",
          "name": "rhs",
          "type": "bytes32"
        },
        {
          "indexed": false,
          "internalType": "bytes1",
          "name": "scalarByte",
          "type": "bytes1"
        },
        {
          "indexed": false,
          "internalType": "bytes32",
          "name": "result",
          "type": "bytes32"
        }
      ],
      "name": "FheBitAnd",
      "type": "event"
    },
    {
      "anonymous": false,
      "inputs": [
        {
          "indexed": true,
          "internalType": "address",
          "name": "caller",
          "type": "address"
        },
        {
          "indexed": false,
          "internalType": "bytes32",
          "name": "lhs",
          "type": "bytes32"
        },
        {
          "indexed": false,
          "internalType": "bytes32",
          "name": "rhs",
          "type": "bytes32"
        },
        {
          "indexed": false,
          "internalType": "bytes1",
          "name": "scalarByte",
          "type": "bytes1"
        },
        {
          "indexed": false,
          "internalType": "bytes32",
          "name": "result",
          "type": "bytes32"
        }
      ],
      "name": "FheBitOr",
      "type": "event"
    },
    {
      "anonymous": false,
      "inputs": [
        {
          "indexed": true,
          "internalType": "address",
          "name": "caller",
          "type": "address"
        },
        {
          "indexed": false,
          "internalType": "bytes32",
          "name": "lhs",
          "type": "bytes32"
        },
        {
          "indexed": false,
          "internalType": "bytes32",
          "name": "rhs",
          "type": "bytes32"
        },
        {
          "indexed": false,
          "internalType": "bytes1",
          "name": "scalarByte",
          "type": "bytes1"
        },
        {
          "indexed": false,
          "internalType": "bytes32",
          "name": "result",
          "type": "bytes32"
        }
      ],
      "name": "FheBitXor",
      "type": "event"
    },
    {
      "anonymous": false,
      "inputs": [
        {
          "indexed": true,
          "internalType": "address",
          "name": "caller",
          "type": "address"
        },
        {
          "indexed": false,
          "internalType": "bytes32",
          "name": "lhs",
          "type": "bytes32"
        },
        {
          "indexed": false,
          "internalType": "bytes32",
          "name": "rhs",
          "type": "bytes32"
        },
        {
          "indexed": false,
          "internalType": "bytes1",
          "name": "scalarByte",
          "type": "bytes1"
        },
        {
          "indexed": false,
          "internalType": "bytes32",
          "name": "result",
          "type": "bytes32"
        }
      ],
      "name": "FheDiv",
      "type": "event"
    },
    {
      "anonymous": false,
      "inputs": [
        {
          "indexed": true,
          "internalType": "address",
          "name": "caller",
          "type": "address"
        },
        {
          "indexed": false,
          "internalType": "bytes32",
          "name": "lhs",
          "type": "bytes32"
        },
        {
          "indexed": false,
          "internalType": "bytes32",
          "name": "rhs",
          "type": "bytes32"
        },
        {
          "indexed": false,
          "internalType": "bytes1",
          "name": "scalarByte",
          "type": "bytes1"
        },
        {
          "indexed": false,
          "internalType": "bytes32",
          "name": "result",
          "type": "bytes32"
        }
      ],
      "name": "FheEq",
      "type": "event"
    },
    {
      "anonymous": false,
      "inputs": [
        {
          "indexed": true,
          "internalType": "address",
          "name": "caller",
          "type": "address"
        },
        {
          "indexed": false,
          "internalType": "bytes32",
          "name": "lhs",
          "type": "bytes32"
        },
        {
          "indexed": false,
          "internalType": "bytes",
          "name": "rhs",
          "type": "bytes"
        },
        {
          "indexed": false,
          "internalType": "bytes1",
          "name": "scalarByte",
          "type": "bytes1"
        },
        {
          "indexed": false,
          "internalType": "bytes32",
          "name": "result",
          "type": "bytes32"
        }
      ],
      "name": "FheEqBytes",
      "type": "event"
    },
    {
      "anonymous": false,
      "inputs": [
        {
          "indexed": true,
          "internalType": "address",
          "name": "caller",
          "type": "address"
        },
        {
          "indexed": false,
          "internalType": "bytes32",
          "name": "lhs",
          "type": "bytes32"
        },
        {
          "indexed": false,
          "internalType": "bytes32",
          "name": "rhs",
          "type": "bytes32"
        },
        {
          "indexed": false,
          "internalType": "bytes1",
          "name": "scalarByte",
          "type": "bytes1"
        },
        {
          "indexed": false,
          "internalType": "bytes32",
          "name": "result",
          "type": "bytes32"
        }
      ],
      "name": "FheGe",
      "type": "event"
    },
    {
      "anonymous": false,
      "inputs": [
        {
          "indexed": true,
          "internalType": "address",
          "name": "caller",
          "type": "address"
        },
        {
          "indexed": false,
          "internalType": "bytes32",
          "name": "lhs",
          "type": "bytes32"
        },
        {
          "indexed": false,
          "internalType": "bytes32",
          "name": "rhs",
          "type": "bytes32"
        },
        {
          "indexed": false,
          "internalType": "bytes1",
          "name": "scalarByte",
          "type": "bytes1"
        },
        {
          "indexed": false,
          "internalType": "bytes32",
          "name": "result",
          "type": "bytes32"
        }
      ],
      "name": "FheGt",
      "type": "event"
    },
    {
      "anonymous": false,
      "inputs": [
        {
          "indexed": true,
          "internalType": "address",
          "name": "caller",
          "type": "address"
        },
        {
          "indexed": false,
          "internalType": "bytes32",
          "name": "control",
          "type": "bytes32"
        },
        {
          "indexed": false,
          "internalType": "bytes32",
          "name": "ifTrue",
          "type": "bytes32"
        },
        {
          "indexed": false,
          "internalType": "bytes32",
          "name": "ifFalse",
          "type": "bytes32"
        },
        {
          "indexed": false,
          "internalType": "bytes32",
          "name": "result",
          "type": "bytes32"
        }
      ],
      "name": "FheIfThenElse",
      "type": "event"
    },
    {
      "anonymous": false,
      "inputs": [
        {
          "indexed": true,
          "internalType": "address",
          "name": "caller",
          "type": "address"
        },
        {
          "indexed": false,
          "internalType": "bytes32",
          "name": "lhs",
          "type": "bytes32"
        },
        {
          "indexed": false,
          "internalType": "bytes32",
          "name": "rhs",
          "type": "bytes32"
        },
        {
          "indexed": false,
          "internalType": "bytes1",
          "name": "scalarByte",
          "type": "bytes1"
        },
        {
          "indexed": false,
          "internalType": "bytes32",
          "name": "result",
          "type": "bytes32"
        }
      ],
      "name": "FheLe",
      "type": "event"
    },
    {
      "anonymous": false,
      "inputs": [
        {
          "indexed": true,
          "internalType": "address",
          "name": "caller",
          "type": "address"
        },
        {
          "indexed": false,
          "internalType": "bytes32",
          "name": "lhs",
          "type": "bytes32"
        },
        {
          "indexed": false,
          "internalType": "bytes32",
          "name": "rhs",
          "type": "bytes32"
        },
        {
          "indexed": false,
          "internalType": "bytes1",
          "name": "scalarByte",
          "type": "bytes1"
        },
        {
          "indexed": false,
          "internalType": "bytes32",
          "name": "result",
          "type": "bytes32"
        }
      ],
      "name": "FheLt",
      "type": "event"
    },
    {
      "anonymous": false,
      "inputs": [
        {
          "indexed": true,
          "internalType": "address",
          "name": "caller",
          "type": "address"
        },
        {
          "indexed": false,
          "internalType": "bytes32",
          "name": "lhs",
          "type": "bytes32"
        },
        {
          "indexed": false,
          "internalType": "bytes32",
          "name": "rhs",
          "type": "bytes32"
        },
        {
          "indexed": false,
          "internalType": "bytes1",
          "name": "scalarByte",
          "type": "bytes1"
        },
        {
          "indexed": false,
          "internalType": "bytes32",
          "name": "result",
          "type": "bytes32"
        }
      ],
      "name": "FheMax",
      "type": "event"
    },
    {
      "anonymous": false,
      "inputs": [
        {
          "indexed": true,
          "internalType": "address",
          "name": "caller",
          "type": "address"
        },
        {
          "indexed": false,
          "internalType": "bytes32",
          "name": "lhs",
          "type": "bytes32"
        },
        {
          "indexed": false,
          "internalType": "bytes32",
          "name": "rhs",
          "type": "bytes32"
        },
        {
          "indexed": false,
          "internalType": "bytes1",
          "name": "scalarByte",
          "type": "bytes1"
        },
        {
          "indexed": false,
          "internalType": "bytes32",
          "name": "result",
          "type": "bytes32"
        }
      ],
      "name": "FheMin",
      "type": "event"
    },
    {
      "anonymous": false,
      "inputs": [
        {
          "indexed": true,
          "internalType": "address",
          "name": "caller",
          "type": "address"
        },
        {
          "indexed": false,
          "internalType": "bytes32",
          "name": "lhs",
          "type": "bytes32"
        },
        {
          "indexed": false,
          "internalType": "bytes32",
          "name": "rhs",
          "type": "bytes32"
        },
        {
          "indexed": false,
          "internalType": "bytes1",
          "name": "scalarByte",
          "type": "bytes1"
        },
        {
          "indexed": false,
          "internalType": "bytes32",
          "name": "result",
          "type": "bytes32"
        }
      ],
      "name": "FheMul",
      "type": "event"
    },
    {
      "anonymous": false,
      "inputs": [
        {
          "indexed": true,
          "internalType": "address",
          "name": "caller",
          "type": "address"
        },
        {
          "indexed": false,
          "internalType": "bytes32",
          "name": "lhs",
          "type": "bytes32"
        },
        {
          "indexed": false,
          "internalType": "bytes32",
          "name": "rhs",
          "type": "bytes32"
        },
        {
          "indexed": false,
          "internalType": "bytes1",
          "name": "scalarByte",
          "type": "bytes1"
        },
        {
          "indexed": false,
          "internalType": "bytes32",
          "name": "result",
          "type": "bytes32"
        }
      ],
      "name": "FheNe",
      "type": "event"
    },
    {
      "anonymous": false,
      "inputs": [
        {
          "indexed": true,
          "internalType": "address",
          "name": "caller",
          "type": "address"
        },
        {
          "indexed": false,
          "internalType": "bytes32",
          "name": "lhs",
          "type": "bytes32"
        },
        {
          "indexed": false,
          "internalType": "bytes",
          "name": "rhs",
          "type": "bytes"
        },
        {
          "indexed": false,
          "internalType": "bytes1",
          "name": "scalarByte",
          "type": "bytes1"
        },
        {
          "indexed": false,
          "internalType": "bytes32",
          "name": "result",
          "type": "bytes32"
        }
      ],
      "name": "FheNeBytes",
      "type": "event"
    },
    {
      "anonymous": false,
      "inputs": [
        {
          "indexed": true,
          "internalType": "address",
          "name": "caller",
          "type": "address"
        },
        {
          "indexed": false,
          "internalType": "bytes32",
          "name": "ct",
          "type": "bytes32"
        },
        {
          "indexed": false,
          "internalType": "bytes32",
          "name": "result",
          "type": "bytes32"
        }
      ],
      "name": "FheNeg",
      "type": "event"
    },
    {
      "anonymous": false,
      "inputs": [
        {
          "indexed": true,
          "internalType": "address",
          "name": "caller",
          "type": "address"
        },
        {
          "indexed": false,
          "internalType": "bytes32",
          "name": "ct",
          "type": "bytes32"
        },
        {
          "indexed": false,
          "internalType": "bytes32",
          "name": "result",
          "type": "bytes32"
        }
      ],
      "name": "FheNot",
      "type": "event"
    },
    {
      "anonymous": false,
      "inputs": [
        {
          "indexed": true,
          "internalType": "address",
          "name": "caller",
          "type": "address"
        },
        {
          "indexed": false,
          "internalType": "enum FheType",
          "name": "randType",
          "type": "uint8"
        },
        {
          "indexed": false,
          "internalType": "bytes16",
          "name": "seed",
          "type": "bytes16"
        },
        {
          "indexed": false,
          "internalType": "bytes32",
          "name": "result",
          "type": "bytes32"
        }
      ],
      "name": "FheRand",
      "type": "event"
    },
    {
      "anonymous": false,
      "inputs": [
        {
          "indexed": true,
          "internalType": "address",
          "name": "caller",
          "type": "address"
        },
        {
          "indexed": false,
          "internalType": "uint256",
          "name": "upperBound",
          "type": "uint256"
        },
        {
          "indexed": false,
          "internalType": "enum FheType",
          "name": "randType",
          "type": "uint8"
        },
        {
          "indexed": false,
          "internalType": "bytes16",
          "name": "seed",
          "type": "bytes16"
        },
        {
          "indexed": false,
          "internalType": "bytes32",
          "name": "result",
          "type": "bytes32"
        }
      ],
      "name": "FheRandBounded",
      "type": "event"
    },
    {
      "anonymous": false,
      "inputs": [
        {
          "indexed": true,
          "internalType": "address",
          "name": "caller",
          "type": "address"
        },
        {
          "indexed": false,
          "internalType": "bytes32",
          "name": "lhs",
          "type": "bytes32"
        },
        {
          "indexed": false,
          "internalType": "bytes32",
          "name": "rhs",
          "type": "bytes32"
        },
        {
          "indexed": false,
          "internalType": "bytes1",
          "name": "scalarByte",
          "type": "bytes1"
        },
        {
          "indexed": false,
          "internalType": "bytes32",
          "name": "result",
          "type": "bytes32"
        }
      ],
      "name": "FheRem",
      "type": "event"
    },
    {
      "anonymous": false,
      "inputs": [
        {
          "indexed": true,
          "internalType": "address",
          "name": "caller",
          "type": "address"
        },
        {
          "indexed": false,
          "internalType": "bytes32",
          "name": "lhs",
          "type": "bytes32"
        },
        {
          "indexed": false,
          "internalType": "bytes32",
          "name": "rhs",
          "type": "bytes32"
        },
        {
          "indexed": false,
          "internalType": "bytes1",
          "name": "scalarByte",
          "type": "bytes1"
        },
        {
          "indexed": false,
          "internalType": "bytes32",
          "name": "result",
          "type": "bytes32"
        }
      ],
      "name": "FheRotl",
      "type": "event"
    },
    {
      "anonymous": false,
      "inputs": [
        {
          "indexed": true,
          "internalType": "address",
          "name": "caller",
          "type": "address"
        },
        {
          "indexed": false,
          "internalType": "bytes32",
          "name": "lhs",
          "type": "bytes32"
        },
        {
          "indexed": false,
          "internalType": "bytes32",
          "name": "rhs",
          "type": "bytes32"
        },
        {
          "indexed": false,
          "internalType": "bytes1",
          "name": "scalarByte",
          "type": "bytes1"
        },
        {
          "indexed": false,
          "internalType": "bytes32",
          "name": "result",
          "type": "bytes32"
        }
      ],
      "name": "FheRotr",
      "type": "event"
    },
    {
      "anonymous": false,
      "inputs": [
        {
          "indexed": true,
          "internalType": "address",
          "name": "caller",
          "type": "address"
        },
        {
          "indexed": false,
          "internalType": "bytes32",
          "name": "lhs",
          "type": "bytes32"
        },
        {
          "indexed": false,
          "internalType": "bytes32",
          "name": "rhs",
          "type": "bytes32"
        },
        {
          "indexed": false,
          "internalType": "bytes1",
          "name": "scalarByte",
          "type": "bytes1"
        },
        {
          "indexed": false,
          "internalType": "bytes32",
          "name": "result",
          "type": "bytes32"
        }
      ],
      "name": "FheShl",
      "type": "event"
    },
    {
      "anonymous": false,
      "inputs": [
        {
          "indexed": true,
          "internalType": "address",
          "name": "caller",
          "type": "address"
        },
        {
          "indexed": false,
          "internalType": "bytes32",
          "name": "lhs",
          "type": "bytes32"
        },
        {
          "indexed": false,
          "internalType": "bytes32",
          "name": "rhs",
          "type": "bytes32"
        },
        {
          "indexed": false,
          "internalType": "bytes1",
          "name": "scalarByte",
          "type": "bytes1"
        },
        {
          "indexed": false,
          "internalType": "bytes32",
          "name": "result",
          "type": "bytes32"
        }
      ],
      "name": "FheShr",
      "type": "event"
    },
    {
      "anonymous": false,
      "inputs": [
        {
          "indexed": true,
          "internalType": "address",
          "name": "caller",
          "type": "address"
        },
        {
          "indexed": false,
          "internalType": "bytes32",
          "name": "lhs",
          "type": "bytes32"
        },
        {
          "indexed": false,
          "internalType": "bytes32",
          "name": "rhs",
          "type": "bytes32"
        },
        {
          "indexed": false,
          "internalType": "bytes1",
          "name": "scalarByte",
          "type": "bytes1"
        },
        {
          "indexed": false,
          "internalType": "bytes32",
          "name": "result",
          "type": "bytes32"
        }
      ],
      "name": "FheSub",
      "type": "event"
    },
    {
      "anonymous": false,
      "inputs": [
        {
          "indexed": false,
          "internalType": "uint64",
          "name": "version",
          "type": "uint64"
        }
      ],
      "name": "Initialized",
      "type": "event"
    },
    {
      "anonymous": false,
      "inputs": [
        {
          "indexed": true,
          "internalType": "address",
          "name": "previousOwner",
          "type": "address"
        },
        {
          "indexed": true,
          "internalType": "address",
          "name": "newOwner",
          "type": "address"
        }
      ],
      "name": "OwnershipTransferStarted",
      "type": "event"
    },
    {
      "anonymous": false,
      "inputs": [
        {
          "indexed": true,
          "internalType": "address",
          "name": "previousOwner",
          "type": "address"
        },
        {
          "indexed": true,
          "internalType": "address",
          "name": "newOwner",
          "type": "address"
        }
      ],
      "name": "OwnershipTransferred",
      "type": "event"
    },
    {
      "anonymous": false,
      "inputs": [
        {
          "indexed": true,
          "internalType": "address",
          "name": "caller",
          "type": "address"
        },
        {
          "indexed": false,
          "internalType": "uint256",
          "name": "pt",
          "type": "uint256"
        },
        {
          "indexed": false,
          "internalType": "enum FheType",
          "name": "toType",
          "type": "uint8"
        },
        {
          "indexed": false,
          "internalType": "bytes32",
          "name": "result",
          "type": "bytes32"
        }
      ],
      "name": "TrivialEncrypt",
      "type": "event"
    },
    {
      "anonymous": false,
      "inputs": [
        {
          "indexed": true,
          "internalType": "address",
          "name": "caller",
          "type": "address"
        },
        {
          "indexed": false,
          "internalType": "bytes",
          "name": "pt",
          "type": "bytes"
        },
        {
          "indexed": false,
          "internalType": "enum FheType",
          "name": "toType",
          "type": "uint8"
        },
        {
          "indexed": false,
          "internalType": "bytes32",
          "name": "result",
          "type": "bytes32"
        }
      ],
      "name": "TrivialEncryptBytes",
      "type": "event"
    },
    {
      "anonymous": false,
      "inputs": [
        {
          "indexed": true,
          "internalType": "address",
          "name": "implementation",
          "type": "address"
        }
      ],
      "name": "Upgraded",
      "type": "event"
    },
    {
      "anonymous": false,
      "inputs": [
        {
          "indexed": true,
          "internalType": "address",
          "name": "caller",
          "type": "address"
        },
        {
          "indexed": false,
          "internalType": "bytes32",
          "name": "inputHandle",
          "type": "bytes32"
        },
        {
          "indexed": false,
          "internalType": "address",
          "name": "userAddress",
          "type": "address"
        },
        {
          "indexed": false,
          "internalType": "bytes",
          "name": "inputProof",
          "type": "bytes"
        },
        {
          "indexed": false,
          "internalType": "enum FheType",
          "name": "inputType",
          "type": "uint8"
        },
        {
          "indexed": false,
          "internalType": "bytes32",
          "name": "result",
          "type": "bytes32"
        }
      ],
      "name": "VerifyCiphertext",
      "type": "event"
    },
    {
      "inputs": [],
      "name": "HANDLE_VERSION",
      "outputs": [
        {
          "internalType": "uint8",
          "name": "",
          "type": "uint8"
        }
      ],
      "stateMutability": "view",
      "type": "function"
    },
    {
      "inputs": [],
      "name": "UPGRADE_INTERFACE_VERSION",
      "outputs": [
        {
          "internalType": "string",
          "name": "",
          "type": "string"
        }
      ],
      "stateMutability": "view",
      "type": "function"
    },
    {
      "inputs": [],
      "name": "acceptOwnership",
      "outputs": [],
      "stateMutability": "nonpayable",
      "type": "function"
    },
    {
      "inputs": [
        {
          "internalType": "bytes32",
          "name": "ct",
          "type": "bytes32"
        },
        {
          "internalType": "enum FheType",
          "name": "toType",
          "type": "uint8"
        }
      ],
      "name": "cast",
      "outputs": [
        {
          "internalType": "bytes32",
          "name": "result",
          "type": "bytes32"
        }
      ],
      "stateMutability": "nonpayable",
      "type": "function"
    },
    {
      "inputs": [
        {
          "internalType": "bytes32",
          "name": "lhs",
          "type": "bytes32"
        },
        {
          "internalType": "bytes32",
          "name": "rhs",
          "type": "bytes32"
        },
        {
          "internalType": "bytes1",
          "name": "scalarByte",
          "type": "bytes1"
        }
      ],
      "name": "fheAdd",
      "outputs": [
        {
          "internalType": "bytes32",
          "name": "result",
          "type": "bytes32"
        }
      ],
      "stateMutability": "nonpayable",
      "type": "function"
    },
    {
      "inputs": [
        {
          "internalType": "bytes32",
          "name": "lhs",
          "type": "bytes32"
        },
        {
          "internalType": "bytes32",
          "name": "rhs",
          "type": "bytes32"
        },
        {
          "internalType": "bytes1",
          "name": "scalarByte",
          "type": "bytes1"
        }
      ],
      "name": "fheBitAnd",
      "outputs": [
        {
          "internalType": "bytes32",
          "name": "result",
          "type": "bytes32"
        }
      ],
      "stateMutability": "nonpayable",
      "type": "function"
    },
    {
      "inputs": [
        {
          "internalType": "bytes32",
          "name": "lhs",
          "type": "bytes32"
        },
        {
          "internalType": "bytes32",
          "name": "rhs",
          "type": "bytes32"
        },
        {
          "internalType": "bytes1",
          "name": "scalarByte",
          "type": "bytes1"
        }
      ],
      "name": "fheBitOr",
      "outputs": [
        {
          "internalType": "bytes32",
          "name": "result",
          "type": "bytes32"
        }
      ],
      "stateMutability": "nonpayable",
      "type": "function"
    },
    {
      "inputs": [
        {
          "internalType": "bytes32",
          "name": "lhs",
          "type": "bytes32"
        },
        {
          "internalType": "bytes32",
          "name": "rhs",
          "type": "bytes32"
        },
        {
          "internalType": "bytes1",
          "name": "scalarByte",
          "type": "bytes1"
        }
      ],
      "name": "fheBitXor",
      "outputs": [
        {
          "internalType": "bytes32",
          "name": "result",
          "type": "bytes32"
        }
      ],
      "stateMutability": "nonpayable",
      "type": "function"
    },
    {
      "inputs": [
        {
          "internalType": "bytes32",
          "name": "lhs",
          "type": "bytes32"
        },
        {
          "internalType": "bytes32",
          "name": "rhs",
          "type": "bytes32"
        },
        {
          "internalType": "bytes1",
          "name": "scalarByte",
          "type": "bytes1"
        }
      ],
      "name": "fheDiv",
      "outputs": [
        {
          "internalType": "bytes32",
          "name": "result",
          "type": "bytes32"
        }
      ],
      "stateMutability": "nonpayable",
      "type": "function"
    },
    {
      "inputs": [
        {
          "internalType": "bytes32",
          "name": "lhs",
          "type": "bytes32"
        },
        {
          "internalType": "bytes",
          "name": "rhs",
          "type": "bytes"
        },
        {
          "internalType": "bytes1",
          "name": "scalarByte",
          "type": "bytes1"
        }
      ],
      "name": "fheEq",
      "outputs": [
        {
          "internalType": "bytes32",
          "name": "result",
          "type": "bytes32"
        }
      ],
      "stateMutability": "nonpayable",
      "type": "function"
    },
    {
      "inputs": [
        {
          "internalType": "bytes32",
          "name": "lhs",
          "type": "bytes32"
        },
        {
          "internalType": "bytes32",
          "name": "rhs",
          "type": "bytes32"
        },
        {
          "internalType": "bytes1",
          "name": "scalarByte",
          "type": "bytes1"
        }
      ],
      "name": "fheEq",
      "outputs": [
        {
          "internalType": "bytes32",
          "name": "result",
          "type": "bytes32"
        }
      ],
      "stateMutability": "nonpayable",
      "type": "function"
    },
    {
      "inputs": [
        {
          "internalType": "bytes32",
          "name": "lhs",
          "type": "bytes32"
        },
        {
          "internalType": "bytes32",
          "name": "rhs",
          "type": "bytes32"
        },
        {
          "internalType": "bytes1",
          "name": "scalarByte",
          "type": "bytes1"
        }
      ],
      "name": "fheGe",
      "outputs": [
        {
          "internalType": "bytes32",
          "name": "result",
          "type": "bytes32"
        }
      ],
      "stateMutability": "nonpayable",
      "type": "function"
    },
    {
      "inputs": [
        {
          "internalType": "bytes32",
          "name": "lhs",
          "type": "bytes32"
        },
        {
          "internalType": "bytes32",
          "name": "rhs",
          "type": "bytes32"
        },
        {
          "internalType": "bytes1",
          "name": "scalarByte",
          "type": "bytes1"
        }
      ],
      "name": "fheGt",
      "outputs": [
        {
          "internalType": "bytes32",
          "name": "result",
          "type": "bytes32"
        }
      ],
      "stateMutability": "nonpayable",
      "type": "function"
    },
    {
      "inputs": [
        {
          "internalType": "bytes32",
          "name": "control",
          "type": "bytes32"
        },
        {
          "internalType": "bytes32",
          "name": "ifTrue",
          "type": "bytes32"
        },
        {
          "internalType": "bytes32",
          "name": "ifFalse",
          "type": "bytes32"
        }
      ],
      "name": "fheIfThenElse",
      "outputs": [
        {
          "internalType": "bytes32",
          "name": "result",
          "type": "bytes32"
        }
      ],
      "stateMutability": "nonpayable",
      "type": "function"
    },
    {
      "inputs": [
        {
          "internalType": "bytes32",
          "name": "lhs",
          "type": "bytes32"
        },
        {
          "internalType": "bytes32",
          "name": "rhs",
          "type": "bytes32"
        },
        {
          "internalType": "bytes1",
          "name": "scalarByte",
          "type": "bytes1"
        }
      ],
      "name": "fheLe",
      "outputs": [
        {
          "internalType": "bytes32",
          "name": "result",
          "type": "bytes32"
        }
      ],
      "stateMutability": "nonpayable",
      "type": "function"
    },
    {
      "inputs": [
        {
          "internalType": "bytes32",
          "name": "lhs",
          "type": "bytes32"
        },
        {
          "internalType": "bytes32",
          "name": "rhs",
          "type": "bytes32"
        },
        {
          "internalType": "bytes1",
          "name": "scalarByte",
          "type": "bytes1"
        }
      ],
      "name": "fheLt",
      "outputs": [
        {
          "internalType": "bytes32",
          "name": "result",
          "type": "bytes32"
        }
      ],
      "stateMutability": "nonpayable",
      "type": "function"
    },
    {
      "inputs": [
        {
          "internalType": "bytes32",
          "name": "lhs",
          "type": "bytes32"
        },
        {
          "internalType": "bytes32",
          "name": "rhs",
          "type": "bytes32"
        },
        {
          "internalType": "bytes1",
          "name": "scalarByte",
          "type": "bytes1"
        }
      ],
      "name": "fheMax",
      "outputs": [
        {
          "internalType": "bytes32",
          "name": "result",
          "type": "bytes32"
        }
      ],
      "stateMutability": "nonpayable",
      "type": "function"
    },
    {
      "inputs": [
        {
          "internalType": "bytes32",
          "name": "lhs",
          "type": "bytes32"
        },
        {
          "internalType": "bytes32",
          "name": "rhs",
          "type": "bytes32"
        },
        {
          "internalType": "bytes1",
          "name": "scalarByte",
          "type": "bytes1"
        }
      ],
      "name": "fheMin",
      "outputs": [
        {
          "internalType": "bytes32",
          "name": "result",
          "type": "bytes32"
        }
      ],
      "stateMutability": "nonpayable",
      "type": "function"
    },
    {
      "inputs": [
        {
          "internalType": "bytes32",
          "name": "lhs",
          "type": "bytes32"
        },
        {
          "internalType": "bytes32",
          "name": "rhs",
          "type": "bytes32"
        },
        {
          "internalType": "bytes1",
          "name": "scalarByte",
          "type": "bytes1"
        }
      ],
      "name": "fheMul",
      "outputs": [
        {
          "internalType": "bytes32",
          "name": "result",
          "type": "bytes32"
        }
      ],
      "stateMutability": "nonpayable",
      "type": "function"
    },
    {
      "inputs": [
        {
          "internalType": "bytes32",
          "name": "lhs",
          "type": "bytes32"
        },
        {
          "internalType": "bytes",
          "name": "rhs",
          "type": "bytes"
        },
        {
          "internalType": "bytes1",
          "name": "scalarByte",
          "type": "bytes1"
        }
      ],
      "name": "fheNe",
      "outputs": [
        {
          "internalType": "bytes32",
          "name": "result",
          "type": "bytes32"
        }
      ],
      "stateMutability": "nonpayable",
      "type": "function"
    },
    {
      "inputs": [
        {
          "internalType": "bytes32",
          "name": "lhs",
          "type": "bytes32"
        },
        {
          "internalType": "bytes32",
          "name": "rhs",
          "type": "bytes32"
        },
        {
          "internalType": "bytes1",
          "name": "scalarByte",
          "type": "bytes1"
        }
      ],
      "name": "fheNe",
      "outputs": [
        {
          "internalType": "bytes32",
          "name": "result",
          "type": "bytes32"
        }
      ],
      "stateMutability": "nonpayable",
      "type": "function"
    },
    {
      "inputs": [
        {
          "internalType": "bytes32",
          "name": "ct",
          "type": "bytes32"
        }
      ],
      "name": "fheNeg",
      "outputs": [
        {
          "internalType": "bytes32",
          "name": "result",
          "type": "bytes32"
        }
      ],
      "stateMutability": "nonpayable",
      "type": "function"
    },
    {
      "inputs": [
        {
          "internalType": "bytes32",
          "name": "ct",
          "type": "bytes32"
        }
      ],
      "name": "fheNot",
      "outputs": [
        {
          "internalType": "bytes32",
          "name": "result",
          "type": "bytes32"
        }
      ],
      "stateMutability": "nonpayable",
      "type": "function"
    },
    {
      "inputs": [
        {
          "internalType": "enum FheType",
          "name": "randType",
          "type": "uint8"
        }
      ],
      "name": "fheRand",
      "outputs": [
        {
          "internalType": "bytes32",
          "name": "result",
          "type": "bytes32"
        }
      ],
      "stateMutability": "nonpayable",
      "type": "function"
    },
    {
      "inputs": [
        {
          "internalType": "uint256",
          "name": "upperBound",
          "type": "uint256"
        },
        {
          "internalType": "enum FheType",
          "name": "randType",
          "type": "uint8"
        }
      ],
      "name": "fheRandBounded",
      "outputs": [
        {
          "internalType": "bytes32",
          "name": "result",
          "type": "bytes32"
        }
      ],
      "stateMutability": "nonpayable",
      "type": "function"
    },
    {
      "inputs": [
        {
          "internalType": "bytes32",
          "name": "lhs",
          "type": "bytes32"
        },
        {
          "internalType": "bytes32",
          "name": "rhs",
          "type": "bytes32"
        },
        {
          "internalType": "bytes1",
          "name": "scalarByte",
          "type": "bytes1"
        }
      ],
      "name": "fheRem",
      "outputs": [
        {
          "internalType": "bytes32",
          "name": "result",
          "type": "bytes32"
        }
      ],
      "stateMutability": "nonpayable",
      "type": "function"
    },
    {
      "inputs": [
        {
          "internalType": "bytes32",
          "name": "lhs",
          "type": "bytes32"
        },
        {
          "internalType": "bytes32",
          "name": "rhs",
          "type": "bytes32"
        },
        {
          "internalType": "bytes1",
          "name": "scalarByte",
          "type": "bytes1"
        }
      ],
      "name": "fheRotl",
      "outputs": [
        {
          "internalType": "bytes32",
          "name": "result",
          "type": "bytes32"
        }
      ],
      "stateMutability": "nonpayable",
      "type": "function"
    },
    {
      "inputs": [
        {
          "internalType": "bytes32",
          "name": "lhs",
          "type": "bytes32"
        },
        {
          "internalType": "bytes32",
          "name": "rhs",
          "type": "bytes32"
        },
        {
          "internalType": "bytes1",
          "name": "scalarByte",
          "type": "bytes1"
        }
      ],
      "name": "fheRotr",
      "outputs": [
        {
          "internalType": "bytes32",
          "name": "result",
          "type": "bytes32"
        }
      ],
      "stateMutability": "nonpayable",
      "type": "function"
    },
    {
      "inputs": [
        {
          "internalType": "bytes32",
          "name": "lhs",
          "type": "bytes32"
        },
        {
          "internalType": "bytes32",
          "name": "rhs",
          "type": "bytes32"
        },
        {
          "internalType": "bytes1",
          "name": "scalarByte",
          "type": "bytes1"
        }
      ],
      "name": "fheShl",
      "outputs": [
        {
          "internalType": "bytes32",
          "name": "result",
          "type": "bytes32"
        }
      ],
      "stateMutability": "nonpayable",
      "type": "function"
    },
    {
      "inputs": [
        {
          "internalType": "bytes32",
          "name": "lhs",
          "type": "bytes32"
        },
        {
          "internalType": "bytes32",
          "name": "rhs",
          "type": "bytes32"
        },
        {
          "internalType": "bytes1",
          "name": "scalarByte",
          "type": "bytes1"
        }
      ],
      "name": "fheShr",
      "outputs": [
        {
          "internalType": "bytes32",
          "name": "result",
          "type": "bytes32"
        }
      ],
      "stateMutability": "nonpayable",
      "type": "function"
    },
    {
      "inputs": [
        {
          "internalType": "bytes32",
          "name": "lhs",
          "type": "bytes32"
        },
        {
          "internalType": "bytes32",
          "name": "rhs",
          "type": "bytes32"
        },
        {
          "internalType": "bytes1",
          "name": "scalarByte",
          "type": "bytes1"
        }
      ],
      "name": "fheSub",
      "outputs": [
        {
          "internalType": "bytes32",
          "name": "result",
          "type": "bytes32"
        }
      ],
      "stateMutability": "nonpayable",
      "type": "function"
    },
    {
      "inputs": [],
      "name": "getACLAddress",
      "outputs": [
        {
          "internalType": "address",
          "name": "",
          "type": "address"
        }
      ],
      "stateMutability": "view",
      "type": "function"
    },
    {
      "inputs": [],
      "name": "getFHEGasLimitAddress",
      "outputs": [
        {
          "internalType": "address",
          "name": "",
          "type": "address"
        }
      ],
      "stateMutability": "view",
      "type": "function"
    },
    {
      "inputs": [],
      "name": "getInputVerifierAddress",
      "outputs": [
        {
          "internalType": "address",
          "name": "",
          "type": "address"
        }
      ],
      "stateMutability": "view",
      "type": "function"
    },
    {
      "inputs": [],
      "name": "getVersion",
      "outputs": [
        {
          "internalType": "string",
          "name": "",
          "type": "string"
        }
      ],
      "stateMutability": "pure",
      "type": "function"
    },
    {
      "inputs": [],
      "name": "owner",
      "outputs": [
        {
          "internalType": "address",
          "name": "",
          "type": "address"
        }
      ],
      "stateMutability": "view",
      "type": "function"
    },
    {
      "inputs": [],
      "name": "pendingOwner",
      "outputs": [
        {
          "internalType": "address",
          "name": "",
          "type": "address"
        }
      ],
      "stateMutability": "view",
      "type": "function"
    },
    {
      "inputs": [],
      "name": "proxiableUUID",
      "outputs": [
        {
          "internalType": "bytes32",
          "name": "",
          "type": "bytes32"
        }
      ],
      "stateMutability": "view",
      "type": "function"
    },
    {
      "inputs": [],
      "name": "reinitialize",
      "outputs": [],
      "stateMutability": "nonpayable",
      "type": "function"
    },
    {
      "inputs": [],
      "name": "renounceOwnership",
      "outputs": [],
      "stateMutability": "nonpayable",
      "type": "function"
    },
    {
      "inputs": [
        {
          "internalType": "address",
          "name": "newOwner",
          "type": "address"
        }
      ],
      "name": "transferOwnership",
      "outputs": [],
      "stateMutability": "nonpayable",
      "type": "function"
    },
    {
      "inputs": [
        {
          "internalType": "bytes",
          "name": "pt",
          "type": "bytes"
        },
        {
          "internalType": "enum FheType",
          "name": "toType",
          "type": "uint8"
        }
      ],
      "name": "trivialEncrypt",
      "outputs": [
        {
          "internalType": "bytes32",
          "name": "result",
          "type": "bytes32"
        }
      ],
      "stateMutability": "nonpayable",
      "type": "function"
    },
    {
      "inputs": [
        {
          "internalType": "uint256",
          "name": "pt",
          "type": "uint256"
        },
        {
          "internalType": "enum FheType",
          "name": "toType",
          "type": "uint8"
        }
      ],
      "name": "trivialEncrypt",
      "outputs": [
        {
          "internalType": "bytes32",
          "name": "result",
          "type": "bytes32"
        }
      ],
      "stateMutability": "nonpayable",
      "type": "function"
    },
    {
      "inputs": [
        {
          "internalType": "address",
          "name": "newImplementation",
          "type": "address"
        },
        {
          "internalType": "bytes",
          "name": "data",
          "type": "bytes"
        }
      ],
      "name": "upgradeToAndCall",
      "outputs": [],
      "stateMutability": "payable",
      "type": "function"
    },
    {
      "inputs": [
        {
          "internalType": "bytes32",
          "name": "inputHandle",
          "type": "bytes32"
        },
        {
          "internalType": "address",
          "name": "userAddress",
          "type": "address"
        },
        {
          "internalType": "bytes",
          "name": "inputProof",
          "type": "bytes"
        },
        {
          "internalType": "enum FheType",
          "name": "inputType",
          "type": "uint8"
        }
      ],
      "name": "verifyCiphertext",
      "outputs": [
        {
          "internalType": "bytes32",
          "name": "result",
          "type": "bytes32"
        }
      ],
      "stateMutability": "nonpayable",
      "type": "function"
    }
  ],
  "bytecode": "0x60a06040523060805234801562000014575f80fd5b506200001f6200002f565b620000296200002f565b620000e3565b7ff0c57e16840df040f15088dc2f81fe391c3923bec73e23a9662efc9c229c6a00805468010000000000000000900460ff1615620000805760405163f92ee8a960e01b815260040160405180910390fd5b80546001600160401b0390811614620000e05780546001600160401b0319166001600160401b0390811782556040519081527fc7f505b2f371ae2175ee4913f4499e1f2633a7b5936321eed1cdaeb6115181d29060200160405180910390a15b50565b60805161506c6200010a5f395f81816123440152818161236d01526124d7015261506c5ff3fe6080604052600436106102e2575f3560e01c80637513a40411610186578063c7d34a6e116100dc578063d99882d511610087578063f51ccfb011610062578063f51ccfb01461080f578063f6859bdc1461082e578063f77f3f1d14610854575f80fd5b8063d99882d5146107bd578063e30c3978146107dc578063f2fde38b146107f0575f80fd5b8063d580c063116100b7578063d580c06314610760578063d75d6e8a1461077f578063d8092cbc1461079e575f80fd5b8063c7d34a6e14610703578063ccc480a114610722578063cf4d18aa14610741575f80fd5b80638da5cb5b1161013c578063a8c7c2c111610117578063a8c7c2c114610676578063ad3cb1cc1461069c578063c021329e146106e4575f80fd5b80638da5cb5b1461062457806391f98ffe146106385780639cd07acb14610657575f80fd5b806379ba50971161016c57806379ba5097146105d257806385362ee7146105e65780638b49ceb414610605575f80fd5b80637513a404146105945780637702dcff146105b3575f80fd5b806352d1902d1161023b57806363a2db29116101f15780636c2eb350116101cc5780636c2eb3501461054d578063715018a6146105615780637210768114610575575f80fd5b806363a2db29146104ea5780636754b360146105095780636a8c8eb414610528575f80fd5b80635a53accb116102215780635a53accb146104795780635c1f9d5a14610498578063601303d1146104b7575f80fd5b806352d1902d1461044657806357f0a5681461045a575f80fd5b8063196d0b9b1161029b57806336318d641161027657806336318d64146103f357806348eef47e146104125780634f1ef28614610431575f80fd5b8063196d0b9b1461039657806319e1c5c4146103b55780631c89ee44146103d4575f80fd5b8063117b2f38116102cb578063117b2f38146103395780631391547f14610358578063182b6d9814610377575f80fd5b806304559f71146102e65780630d8e6e2c14610318575b5f80fd5b3480156102f1575f80fd5b506103056103003660046147ac565b610873565b6040519081526020015b60405180910390f35b348015610323575f80fd5b5061032c6108e0565b60405161030f919061482b565b348015610344575f80fd5b506103056103533660046147ac565b61095b565b348015610363575f80fd5b506103056103723660046147ac565b6109bd565b348015610382575f80fd5b506103056103913660046147ac565b610a1f565b3480156103a1575f80fd5b506103056103b03660046148fe565b610a81565b3480156103c0575f80fd5b506103056103cf366004614962565b610ae1565b3480156103df575f80fd5b506103056103ee3660046149ad565b610b39565b3480156103fe575f80fd5b5061030561040d3660046147ac565b610b83565b34801561041d575f80fd5b5061030561042c3660046149ad565b610be5565b61044461043f3660046149ce565b610c4c565b005b348015610451575f80fd5b50610305610c6b565b348015610465575f80fd5b506103056104743660046147ac565b610c99565b348015610484575f80fd5b506103056104933660046147ac565b610cfb565b3480156104a3575f80fd5b506103056104b2366004614a19565b610d5d565b3480156104c2575f80fd5b505f805160206150408339815191525b6040516001600160a01b03909116815260200161030f565b3480156104f5575f80fd5b506103056105043660046147ac565b610daa565b348015610514575f80fd5b506103056105233660046147ac565b610e0c565b348015610533575f80fd5b5061053b5f81565b60405160ff909116815260200161030f565b348015610558575f80fd5b50610444610e6e565b34801561056c575f80fd5b50610444610f63565b348015610580575f80fd5b5061030561058f3660046147ac565b610f76565b34801561059f575f80fd5b506103056105ae3660046147ac565b610fd8565b3480156105be575f80fd5b506103056105cd366004614a63565b61103a565b3480156105dd575f80fd5b50610444611090565b3480156105f1575f80fd5b506103056106003660046147ac565b6110dd565b348015610610575f80fd5b5061030561061f3660046147ac565b61113f565b34801561062f575f80fd5b506104d26111a1565b348015610643575f80fd5b506103056106523660046147ac565b6111d5565b348015610662575f80fd5b506103056106713660046149ad565b611237565b348015610681575f80fd5b5073901f8942346f7ab3a01f6d7613119bca447bb0306104d2565b3480156106a7575f80fd5b5061032c6040518060400160405280600581526020017f352e302e3000000000000000000000000000000000000000000000000000000081525081565b3480156106ef575f80fd5b506103056106fe3660046147ac565b611281565b34801561070e575f80fd5b5061030561071d366004614a19565b6112e3565b34801561072d575f80fd5b5061030561073c3660046147ac565b611330565b34801561074c575f80fd5b5061030561075b3660046147ac565b611392565b34801561076b575f80fd5b5061030561077a366004614a8c565b6113f4565b34801561078a575f80fd5b50610305610799366004614aa3565b611442565b3480156107a9575f80fd5b506103056107b83660046147ac565b6114a5565b3480156107c8575f80fd5b506103056107d73660046147ac565b611507565b3480156107e7575f80fd5b506104d2611569565b3480156107fb575f80fd5b5061044461080a366004614abc565b611591565b34801561081a575f80fd5b50610305610829366004614a8c565b611616565b348015610839575f80fd5b507350157cffd6bbfa2dece204a89ec419c23ef5755d6104d2565b34801561085f575f80fd5b5061030561086e3660046147ac565b61165b565b5f61087f8484846116bd565b60408051868152602081018690526001600160f81b03198516918101919091526060810182905290915033907fc11d62b13c360a83082487064be1ec0878b2f0be4f012bf59f89e128063d47ff906080015b60405180910390a29392505050565b60606040518060400160405280600d81526020017f485454505a4578656375746f72000000000000000000000000000000000000008152506109215f611788565b61092b6001611788565b6109345f611788565b6040516020016109479493929190614ad5565b604051602081830303815290604052905090565b5f610967848484611825565b60408051868152602081018690526001600160f81b03198516918101919091526060810182905290915033907fdb9050d65240431621d61d6f94b970e63f53a67a5766614ee6e5c5bbd41c8e2e906080016108d1565b5f6109c98484846118e4565b60408051868152602081018690526001600160f81b03198516918101919091526060810182905290915033907f38c3a63c4230de5b741f494ffb54e3087104030279bc7bccee8ad9ad31712b21906080016108d1565b5f610a2b8484846119a4565b60408051868152602081018690526001600160f81b03198516918101919091526060810182905290915033907feb6d37bd271abe1395b21d6d78f3487d6584862872c29ffd3f90736ee99b7393906080016108d1565b5f610a8e85858585611a64565b9050336001600160a01b03167f6755f7cde41daab1460146e746a77619c8a667b2daf9a8a89f2ddbb4ab6c9c5c8686868686604051610ad1959493929190614b7a565b60405180910390a2949350505050565b5f610aec8383611bbe565b9050336001600160a01b03167f73d63045efdd8765c74bf1a2fd222ee44346fdb6ab36cddde6ab76895ab37700848484604051610b2b93929190614bc0565b60405180910390a292915050565b5f610b448383611d3f565b9050336001600160a01b03167f31ccae6a2f8e3ced1692f77c8f668133e4afdaaa35afe844ff4659a6c27e627f848484604051610b2b93929190614bef565b5f610b8f84848461201c565b60408051868152602081018690526001600160f81b03198516918101919091526060810182905290915033907ffd7c9208f956bf0c6ab76a667f04361245ad3e0a2d0eff92eb827acfcca68ea9906080016108d1565b5f80610bef6120dc565b9050610bfc848483612190565b9150336001600160a01b03167f5222d96b836727a1d6fe1ee9aef27f9bb507bd41794defa376ff6c648aaf8ff185858486604051610c3d9493929190614c03565b60405180910390a25092915050565b610c54612339565b610c5d826123f0565b610c6782826123f8565b5050565b5f610c746124cc565b507f360894a13ba1a3210667c828492db98dca3e2076cc3735a920a3ca505d382bbc90565b5f610ca5848484612515565b60408051868152602081018690526001600160f81b03198516918101919091526060810182905290915033907f215346a4f9f975e6d5484e290bd4e53ca14453a9d282ebd3ccedb2a0f171753d906080016108d1565b5f610d078484846125d5565b60408051868152602081018690526001600160f81b03198516918101919091526060810182905290915033907f3bab2ee0e2f90f4690c6a87bf63cf1a6b626086e95f231860b152966e8dabbf7906080016108d1565b5f610d698484846126dc565b9050336001600160a01b03167f47e8e97859ad4b25674962a094a8f83066e2a6bd7dd962887ff29a903edb7ff6858585856040516108d19493929190614c3c565b5f610db6848484612906565b60408051868152602081018690526001600160f81b03198516918101919091526060810182905290915033907f56df279bbfb03d9ed097bbe2f28d520ca0c1161206327926e98664d70d2c24c4906080016108d1565b5f610e188484846129df565b60408051868152602081018690526001600160f81b03198516918101919091526060810182905290915033907feb0e4f8dc74058194d0602425fe602f955c222200f7f10c6fe67992f7b24c7e9906080016108d1565b7ff0c57e16840df040f15088dc2f81fe391c3923bec73e23a9662efc9c229c6a0080546002919068010000000000000000900460ff1680610ebd5750805467ffffffffffffffff808416911610155b15610edb5760405163f92ee8a960e01b815260040160405180910390fd5b805468ffffffffffffffffff191667ffffffffffffffff83161768010000000000000000178155610f12610f0d6111a1565b612aac565b805468ff00000000000000001916815560405167ffffffffffffffff831681527fc7f505b2f371ae2175ee4913f4499e1f2633a7b5936321eed1cdaeb6115181d29060200160405180910390a15050565b610f6b612abd565b610f745f612aef565b565b5f610f82848484612b27565b60408051868152602081018690526001600160f81b03198516918101919091526060810182905290915033907f0d483b100d8c73b208984ec697caa3091521ee5525ce69edcf97d7e395d3d059906080016108d1565b5f610fe4848484612be7565b60408051868152602081018690526001600160f81b03198516918101919091526060810182905290915033907fdef2e704a077284a07f3d0b436db88f5d981b69f58ab7c1ae623252718a6de01906080016108d1565b5f611046848484612ca7565b60408051868152602081018690529081018490526060810182905290915033907f60be9d61aad849facc28c38b048cb5c4be3420b8fa2233e08cfa06be1b6d1c3e906080016108d1565b338061109a611569565b6001600160a01b0316146110d15760405163118cdaa760e01b81526001600160a01b03821660048201526024015b60405180910390fd5b6110da81612aef565b50565b5f6110e9848484612db2565b60408051868152602081018690526001600160f81b03198516918101919091526060810182905290915033907fc9ff8f0d18a3f766ce5de3de216076050140e4fc2652f5e0e745f6fc836cda8b906080016108d1565b5f61114b848484612e72565b60408051868152602081018690526001600160f81b03198516918101919091526060810182905290915033907f4d32284bd3193ecaa44e1ceca32f41c5d6c32803a92e07967dd3ee4229721582906080016108d1565b5f807f9016d09d72d40fdae2fd8ceac6b6234c7706214fd39c1cd1e609a0528c1993005b546001600160a01b031692915050565b5f6111e1848484612f4b565b60408051868152602081018690526001600160f81b03198516918101919091526060810182905290915033907f324220bfc9cb158b492991c03c309cd86e5345cac45aacae2092ddabe31fa3d8906080016108d1565b5f6112428383613018565b9050336001600160a01b03167f063ccd1bba45151d91f6a418065047a3d048d058a922535747bb2b575a01d236848484604051610b2b93929190614bef565b5f61128d848484613136565b60408051868152602081018690526001600160f81b03198516918101919091526060810182905290915033907fc148675905d07ad5496f8ef4d8195c907503f3ec12fd10ed5f21240abc693634906080016108d1565b5f6112ef848484613203565b9050336001600160a01b03167fc52085bd4e8736b3a28c71fd809a34139bfa9f70ebaa5c740d66170c5e9058ce858585856040516108d19493929190614c3c565b5f61133c848484613398565b60408051868152602081018690526001600160f81b03198516918101919091526060810182905290915033907fe84282aaebcca698443e39a2a948a345d0d2ebc654af5cb657a2d7e8053bf6cb906080016108d1565b5f61139e848484613465565b60408051868152602081018690526001600160f81b03198516918101919091526060810182905290915033907f0e691cd0bf8c4e9308e4ced1bb9c964117dc5c5bb9b9ab5bdfebf2c9b13a897c906080016108d1565b5f6113fe8261356c565b604080518481526020810183905291925033917f8c664d3c3ca583fc5803b8a91c49644bbd9550bfa87967c73ad1de83027768c091015b60405180910390a2919050565b5f8061144c6120dc565b90506114588382613634565b9150336001600160a01b03167f0c8aca6017003326051e19913ef02631f24b801125e1fa8a1d812e868319fda684838560405161149793929190614c71565b60405180910390a250919050565b5f6114b1848484613776565b60408051868152602081018690526001600160f81b03198516918101919091526060810182905290915033907f6960c1e88f61c352dba34d1bbf6753e302795264d5d8ae82f7983c7004651e5d906080016108d1565b5f6115138484846138c2565b60408051868152602081018690526001600160f81b03198516918101919091526060810182905290915033907fe42486b0ccdbef81a2075c48c8e515c079aea73c8b82429997c72a2fe1bf4fef906080016108d1565b5f807f237e158222e3e6968b72b9db0d8043aacf074ad9f650f0d1606b4d82ee432c006111c5565b611599612abd565b7f237e158222e3e6968b72b9db0d8043aacf074ad9f650f0d1606b4d82ee432c0080546001600160a01b0319166001600160a01b03831690811782556115dd6111a1565b6001600160a01b03167f38d16b8cac22d99fc7c124b9cd0de2d3fa1faef420bfe791d8c362d765e2270060405160405180910390a35050565b5f6116208261399b565b604080518481526020810183905291925033917f55aff4cc7a3d160c83f1f15b818011ede841a0b4597fb14dcd3603df3a11e5e09101611435565b5f611667848484613a67565b60408051868152602081018690526001600160f81b03198516918101919091526060810182905290915033907fb3d5c664ec86575818e8d75ff25c5f867250df8954088549c41c848cd10e76cb906080016108d1565b5f806040602060106116d160086004614cb7565b6116db9190614cb7565b6116e59190614cb7565b6116ef9190614cb7565b90506116fb8582613bb3565b5f61170586613bf9565b60405163801ec40160e01b8152909150600160f81b8516905f805160206150408339815191529063801ec401906117429085908590600401614cca565b5f604051808303815f87803b158015611759575f80fd5b505af115801561176b573d5f803e3d5ffd5b5050505061177d601288888486613c15565b979650505050505050565b60605f61179483613e84565b60010190505f8167ffffffffffffffff8111156117b3576117b3614853565b6040519080825280601f01601f1916602001820160405280156117dd576020820181803683370190505b5090508181016020015b5f19017f3031323334353637383961626364656600000000000000000000000000000000600a86061a8153600a85049450846117e757509392505050565b5f8060406020601061183960086004614cb7565b6118439190614cb7565b61184d9190614cb7565b6118579190614cb7565b90506118638582613bb3565b5f61186d86613bf9565b604051639ec9108760e01b8152909150600160f81b8516905f8051602061504083398151915290639ec91087906118aa9085908590600401614cca565b5f604051808303815f87803b1580156118c1575f80fd5b505af11580156118d3573d5f803e3d5ffd5b5050505061177d5f88888486613c15565b5f806040602060106118f860086004614cb7565b6119029190614cb7565b61190c9190614cb7565b6119169190614cb7565b90506119228582613bb3565b5f61192c86613bf9565b60405163f1ec4e3d60e01b8152909150600160f81b8516905f805160206150408339815191529063f1ec4e3d906119699085908590600401614cca565b5f604051808303815f87803b158015611980575f80fd5b505af1158015611992573d5f803e3d5ffd5b5050505061177d600e8888845f613c15565b5f806040602060106119b860086004614cb7565b6119c29190614cb7565b6119cc9190614cb7565b6119d69190614cb7565b90506119e28582613bb3565b5f6119ec86613bf9565b604051630144371760e41b8152909150600160f81b8516905f8051602061504083398151915290631443717090611a299085908590600401614cca565b5f604051808303815f87803b158015611a40575f80fd5b505af1158015611a52573d5f803e3d5ffd5b5050505061177d600188888486613c15565b604080518082019091526001600160a01b03841681523360208201525f9081611a8c87613bf9565b9050806053811115611aa057611aa0614b52565b846053811115611ab257611ab2614b52565b14611ad05760405163b968846160e01b815260040160405180910390fd5b604051633a69c8c160e21b815273901f8942346f7ab3a01f6d7613119bca447bb0309063e9a7230490611b0b9085908b908a90600401614ceb565b6020604051808303815f875af1158015611b27573d5f803e3d5ffd5b505050506040513d601f19601f82011682018060405250810190611b4b9190614d21565b604051630f8e573b60e21b8152600481018290523360248201529093507350157cffd6bbfa2dece204a89ec419c23ef5755d90633e395cec906044015f604051808303815f87803b158015611b9e575f80fd5b505af1158015611bb0573d5f803e3d5ffd5b505050505050949350505050565b5f80610800611bd1610400610200614cb7565b611bdb9190614cb7565b905080836053811115611bf057611bf0614b52565b60ff166001901b165f03611c175760405163636f233560e11b815260040160405180910390fd5b6040516328c6831160e21b81525f805160206150408339815191529063a31a0c4490611c47908690600401614d38565b5f604051808303815f87803b158015611c5e575f80fd5b505af1158015611c70573d5f803e3d5ffd5b50505050611c7f845184613f65565b601884847350157cffd6bbfa2dece204a89ec419c23ef5755d46604051602001611cad959493929190614d6d565b604051602081830303815290604052805190602001209150611ccf8284614020565b604051630f8e573b60e21b8152600481018290523360248201529092507350157cffd6bbfa2dece204a89ec419c23ef5755d90633e395cec906044015f604051808303815f87803b158015611d22575f80fd5b505af1158015611d34573d5f803e3d5ffd5b505050505092915050565b6040516382027b6d60e01b8152600481018390523360248201525f907350157cffd6bbfa2dece204a89ec419c23ef5755d906382027b6d90604401602060405180830381865afa158015611d95573d5f803e3d5ffd5b505050506040513d601f19601f82011682018060405250810190611db99190614dc5565b611ddf57604051632778ce4b60e21b8152600481018490523360248201526044016110c8565b5f6101006040602060106008611df760046001614cb7565b611e019190614cb7565b611e0b9190614cb7565b611e159190614cb7565b611e1f9190614cb7565b611e299190614cb7565b9050611e358482613bb3565b5f610100604060206010611e4b60086004614cb7565b611e559190614cb7565b611e5f9190614cb7565b611e699190614cb7565b611e739190614cb7565b905080846053811115611e8857611e88614b52565b60ff166001901b165f03611eaf5760405163636f233560e11b815260040160405180910390fd5b5f611eb986613bf9565b9050846053811115611ecd57611ecd614b52565b816053811115611edf57611edf614b52565b03611efd5760405163b968846160e01b815260040160405180910390fd5b604051630abfbaad60e31b81525f80516020615040833981519152906355fdd56890611f2d908490600401614d38565b5f604051808303815f87803b158015611f44575f80fd5b505af1158015611f56573d5f803e3d5ffd5b50505050601786867350157cffd6bbfa2dece204a89ec419c23ef5755d46604051602001611f88959493929190614de4565b604051602081830303815290604052805190602001209350611faa8486614020565b604051630f8e573b60e21b8152600481018290523360248201529094507350157cffd6bbfa2dece204a89ec419c23ef5755d90633e395cec906044015f604051808303815f87803b158015611ffd575f80fd5b505af115801561200f573d5f803e3d5ffd5b5050505050505092915050565b5f8060406020601061203060086004614cb7565b61203a9190614cb7565b6120449190614cb7565b61204e9190614cb7565b905061205a8582613bb3565b5f61206486613bf9565b60405163fced972760e01b8152909150600160f81b8516905f805160206150408339815191529063fced9727906120a19085908590600401614cca565b5f604051808303815f87803b1580156120b8575f80fd5b505af11580156120ca573d5f803e3d5ffd5b5050505061177d601388888486613c15565b7f3d02b8d0de856b0609b3629cf5f3cd56c0504e3831cd53973d3642211620650080545f91907350157cffd6bbfa2dece204a89ec419c23ef5755d46612123600143614e2a565b60408051602081019590955260609390931b6bffffffffffffffffffffffff191692840192909252605483015240607482015242609482015260b40160408051601f1981840301815291905280516020909101208154909250815f61218783614e3d565b91905055505090565b5f806101006040602060106121a760086004614cb7565b6121b19190614cb7565b6121bb9190614cb7565b6121c59190614cb7565b6121cf9190614cb7565b9050808460538111156121e4576121e4614b52565b60ff166001901b165f0361220b5760405163636f233560e11b815260040160405180910390fd5b6122148561406d565b6122315760405163127473a160e11b815260040160405180910390fd5b604051633d5e922160e11b81525f8051602061504083398151915290637abd244290612261908790600401614d38565b5f604051808303815f87803b158015612278575f80fd5b505af115801561228a573d5f803e3d5ffd5b50505050601b8585856040516020016122a69493929190614e55565b6040516020818303038152906040528051906020012091506122c88285614020565b604051630f8e573b60e21b8152600481018290523360248201529092507350157cffd6bbfa2dece204a89ec419c23ef5755d90633e395cec906044015f604051808303815f87803b15801561231b575f80fd5b505af115801561232d573d5f803e3d5ffd5b50505050509392505050565b306001600160a01b037f00000000000000000000000000000000000000000000000000000000000000001614806123d257507f00000000000000000000000000000000000000000000000000000000000000006001600160a01b03166123c67f360894a13ba1a3210667c828492db98dca3e2076cc3735a920a3ca505d382bbc546001600160a01b031690565b6001600160a01b031614155b15610f745760405163703e46dd60e11b815260040160405180910390fd5b6110da612abd565b816001600160a01b03166352d1902d6040518163ffffffff1660e01b8152600401602060405180830381865afa925050508015612452575060408051601f3d908101601f1916820190925261244f91810190614d21565b60015b61247a57604051634c9c8ce360e01b81526001600160a01b03831660048201526024016110c8565b7f360894a13ba1a3210667c828492db98dca3e2076cc3735a920a3ca505d382bbc81146124bd57604051632a87526960e21b8152600481018290526024016110c8565b6124c7838361408c565b505050565b306001600160a01b037f00000000000000000000000000000000000000000000000000000000000000001614610f745760405163703e46dd60e11b815260040160405180910390fd5b5f8060406020601061252960086004614cb7565b6125339190614cb7565b61253d9190614cb7565b6125479190614cb7565b90506125538582613bb3565b5f61255d86613bf9565b604051630bf4df3b60e11b8152909150600160f81b8516905f80516020615040833981519152906317e9be769061259a9085908590600401614cca565b5f604051808303815f87803b1580156125b1575f80fd5b505af11580156125c3573d5f803e3d5ffd5b5050505061177d600288888486613c15565b5f600160f81b808316146125fc57604051634f224e5360e01b815260040160405180910390fd5b5f83900361261d576040516323d359a360e01b815260040160405180910390fd5b5f60406020601061263060086004614cb7565b61263a9190614cb7565b6126449190614cb7565b61264e9190614cb7565b905061265a8582613bb3565b5f61266486613bf9565b60405163293d01a360e21b8152909150600160f81b8516905f805160206150408339815191529063a4f4068c906126a19085908590600401614cca565b5f604051808303815f87803b1580156126b8575f80fd5b505af11580156126ca573d5f803e3d5ffd5b5050505061177d600388888486613c15565b5f806108006126ef610400610200614cb7565b6126f99190614cb7565b90506127058582613bb3565b5f61270f86613bf9565b9050600160f81b808516908114612739576040516309bbc1b360e31b815260040160405180910390fd5b6040516308194a5360e41b81525f8051602061504083398151915290638194a5309061276b9085908590600401614cca565b5f604051808303815f87803b158015612782575f80fd5b505af1158015612794573d5f803e3d5ffd5b50506040516382027b6d60e01b8152600481018a90523360248201527350157cffd6bbfa2dece204a89ec419c23ef5755d92506382027b6d9150604401602060405180830381865afa1580156127ec573d5f803e3d5ffd5b505050506040513d601f19601f820116820180604052508101906128109190614dc5565b61283657604051632778ce4b60e21b8152600481018890523360248201526044016110c8565b612841865183613f65565b600c8787837350157cffd6bbfa2dece204a89ec419c23ef5755d4660405160200161287196959493929190614e97565b604051602081830303815290604052805190602001209350612893845f614020565b604051630f8e573b60e21b8152600481018290523360248201529094507350157cffd6bbfa2dece204a89ec419c23ef5755d90633e395cec906044015f604051808303815f87803b1580156128e6575f80fd5b505af11580156128f8573d5f803e3d5ffd5b505050505050509392505050565b5f80610100604060206010600861291f60046001614cb7565b6129299190614cb7565b6129339190614cb7565b61293d9190614cb7565b6129479190614cb7565b6129519190614cb7565b905061295d8582613bb3565b5f61296786613bf9565b604051630585a0d560e11b8152909150600160f81b8516905f8051602061504083398151915290630b0b41aa906129a49085908590600401614cca565b5f604051808303815f87803b1580156129bb575f80fd5b505af11580156129cd573d5f803e3d5ffd5b5050505061177d600688888486613c15565b5f806101006040602060106129f660086004614cb7565b612a009190614cb7565b612a0a9190614cb7565b612a149190614cb7565b612a1e9190614cb7565b9050612a2a8582613bb3565b5f612a3486613bf9565b60405163d52059c160e01b8152909150600160f81b8516905f805160206150408339815191529063d52059c190612a719085908590600401614cca565b5f604051808303815f87803b158015612a88575f80fd5b505af1158015612a9a573d5f803e3d5ffd5b5050505061177d600a88888486613c15565b612ab46140e1565b6110da8161412f565b33612ac66111a1565b6001600160a01b031614610f745760405163118cdaa760e01b81523360048201526024016110c8565b7f237e158222e3e6968b72b9db0d8043aacf074ad9f650f0d1606b4d82ee432c0080546001600160a01b0319168155610c6782614160565b5f80604060206010612b3b60086004614cb7565b612b459190614cb7565b612b4f9190614cb7565b612b599190614cb7565b9050612b658582613bb3565b5f612b6f86613bf9565b604051630b20432b60e21b8152909150600160f81b8516905f8051602061504083398151915290632c810cac90612bac9085908590600401614cca565b5f604051808303815f87803b158015612bc3575f80fd5b505af1158015612bd5573d5f803e3d5ffd5b5050505061177d60118888845f613c15565b5f80604060206010612bfb60086004614cb7565b612c059190614cb7565b612c0f9190614cb7565b612c199190614cb7565b9050612c258582613bb3565b5f612c2f86613bf9565b604051630b171ff760e01b8152909150600160f81b8516905f8051602061504083398151915290630b171ff790612c6c9085908590600401614cca565b5f604051808303815f87803b158015612c83575f80fd5b505af1158015612c95573d5f803e3d5ffd5b5050505061177d60108888845f613c15565b5f8061080061040061020061010060806040602060106008612ccb60046001614cb7565b612cd59190614cb7565b612cdf9190614cb7565b612ce99190614cb7565b612cf39190614cb7565b612cfd9190614cb7565b612d079190614cb7565b612d119190614cb7565b612d1b9190614cb7565b612d259190614cb7565b9050612d318482613bb3565b5f612d3b85613bf9565b60405163e7b5afe360e01b81529091505f805160206150408339815191529063e7b5afe390612d6e908490600401614d38565b5f604051808303815f87803b158015612d85575f80fd5b505af1158015612d97573d5f803e3d5ffd5b50505050612da860198787876141d0565b9695505050505050565b5f80604060206010612dc660086004614cb7565b612dd09190614cb7565b612dda9190614cb7565b612de49190614cb7565b9050612df08582613bb3565b5f612dfa86613bf9565b604051633941d74360e21b8152909150600160f81b8516905f805160206150408339815191529063e5075d0c90612e379085908590600401614cca565b5f604051808303815f87803b158015612e4e575f80fd5b505af1158015612e60573d5f803e3d5ffd5b5050505061177d600f8888845f613c15565b5f806101006040602060106008612e8b60046001614cb7565b612e959190614cb7565b612e9f9190614cb7565b612ea99190614cb7565b612eb39190614cb7565b612ebd9190614cb7565b9050612ec98582613bb3565b5f612ed386613bf9565b604051632f891e1b60e01b8152909150600160f81b8516905f8051602061504083398151915290632f891e1b90612f109085908590600401614cca565b5f604051808303815f87803b158015612f27575f80fd5b505af1158015612f39573d5f803e3d5ffd5b5050505061177d600788888486613c15565b5f80610100604060206010612f6260086004614cb7565b612f6c9190614cb7565b612f769190614cb7565b612f809190614cb7565b612f8a9190614cb7565b9050612f968582613bb3565b5f612fa086613bf9565b604051630ae767b360e01b8152909150600160f81b8516905f8051602061504083398151915290630ae767b390612fdd9085908590600401614cca565b5f604051808303815f87803b158015612ff4575f80fd5b505af1158015613006573d5f803e3d5ffd5b5050505061177d600988888486613c15565b5f806101006080604060206010600861303360046001614cb7565b61303d9190614cb7565b6130479190614cb7565b6130519190614cb7565b61305b9190614cb7565b6130659190614cb7565b61306f9190614cb7565b90508083605381111561308457613084614b52565b60ff166001901b165f036130ab5760405163636f233560e11b815260040160405180910390fd5b6040516328c6831160e21b81525f805160206150408339815191529063a31a0c44906130db908690600401614d38565b5f604051808303815f87803b1580156130f2575f80fd5b505af1158015613104573d5f803e3d5ffd5b50505050601884847350157cffd6bbfa2dece204a89ec419c23ef5755d46604051602001611cad959493929190614de4565b5f8061010060406020601061314d60086004614cb7565b6131579190614cb7565b6131619190614cb7565b61316b9190614cb7565b6131759190614cb7565b90506131818582613bb3565b5f61318b86613bf9565b604051636b053d1d60e11b8152909150600160f81b8516905f805160206150408339815191529063d60a7a3a906131c89085908590600401614cca565b5f604051808303815f87803b1580156131df575f80fd5b505af11580156131f1573d5f803e3d5ffd5b5050505061177d600b88888486613c15565b5f80610800613216610400610200614cb7565b6132209190614cb7565b905061322c8582613bb3565b5f61323686613bf9565b9050600160f81b808516908114613260576040516309bbc1b360e31b815260040160405180910390fd5b604051633b470ee160e01b81525f8051602061504083398151915290633b470ee1906132929085908590600401614cca565b5f604051808303815f87803b1580156132a9575f80fd5b505af11580156132bb573d5f803e3d5ffd5b50506040516382027b6d60e01b8152600481018a90523360248201527350157cffd6bbfa2dece204a89ec419c23ef5755d92506382027b6d9150604401602060405180830381865afa158015613313573d5f803e3d5ffd5b505050506040513d601f19601f820116820180604052508101906133379190614dc5565b61335d57604051632778ce4b60e21b8152600481018890523360248201526044016110c8565b613368865183613f65565b600d8787837350157cffd6bbfa2dece204a89ec419c23ef5755d4660405160200161287196959493929190614e97565b5f806101006040602060106133af60086004614cb7565b6133b99190614cb7565b6133c39190614cb7565b6133cd9190614cb7565b6133d79190614cb7565b90506133e38582613bb3565b5f6133ed86613bf9565b60405163061b95e560e21b8152909150600160f81b8516905f805160206150408339815191529063186e57949061342a9085908590600401614cca565b5f604051808303815f87803b158015613441575f80fd5b505af1158015613453573d5f803e3d5ffd5b5050505061177d600888888486613c15565b5f600160f81b8083161461348c57604051634f224e5360e01b815260040160405180910390fd5b5f8390036134ad576040516323d359a360e01b815260040160405180910390fd5b5f6040602060106134c060086004614cb7565b6134ca9190614cb7565b6134d49190614cb7565b6134de9190614cb7565b90506134ea8582613bb3565b5f6134f486613bf9565b604051634bf5249160e11b8152909150600160f81b8516905f80516020615040833981519152906397ea4922906135319085908590600401614cca565b5f604051808303815f87803b158015613548575f80fd5b505af115801561355a573d5f803e3d5ffd5b5050505061177d600488888486613c15565b5f8061010060406020601061358360086004614cb7565b61358d9190614cb7565b6135979190614cb7565b6135a19190614cb7565b6135ab9190614cb7565b90506135b78382613bb3565b5f6135c184613bf9565b6040516333becb3b60e01b81529091505f80516020615040833981519152906333becb3b906135f4908490600401614d38565b5f604051808303815f87803b15801561360b575f80fd5b505af115801561361d573d5f803e3d5ffd5b5050505061362c601485614508565b949350505050565b5f80610800610400610200610100604060206010600861365660046001614cb7565b6136609190614cb7565b61366a9190614cb7565b6136749190614cb7565b61367e9190614cb7565b6136889190614cb7565b6136929190614cb7565b61369c9190614cb7565b6136a69190614cb7565b9050808460538111156136bb576136bb614b52565b60ff166001901b165f036136e25760405163636f233560e11b815260040160405180910390fd5b60405162d435d160e31b81525f80516020615040833981519152906306a1ae8890613711908790600401614d38565b5f604051808303815f87803b158015613728575f80fd5b505af115801561373a573d5f803e3d5ffd5b50505050601a848460405160200161375493929190614eff565b604051602081830303815290604052805190602001209150611ccf8285614020565b5f806108006104006102006101006080604060206010600861379a60046001614cb7565b6137a49190614cb7565b6137ae9190614cb7565b6137b89190614cb7565b6137c29190614cb7565b6137cc9190614cb7565b6137d69190614cb7565b6137e09190614cb7565b6137ea9190614cb7565b6137f49190614cb7565b90506138008582613bb3565b5f61380a86613bf9565b9050600160f81b80851690811480156138375750600882605381111561383257613832614b52565b60ff16115b156138555760405163dac55bcd60e01b815260040160405180910390fd5b604051633b470ee160e01b81525f8051602061504083398151915290633b470ee1906138879085908590600401614cca565b5f604051808303815f87803b15801561389e575f80fd5b505af11580156138b0573d5f803e3d5ffd5b5050505061177d600d8888845f613c15565b5f8061010060406020601060086138db60046001614cb7565b6138e59190614cb7565b6138ef9190614cb7565b6138f99190614cb7565b6139039190614cb7565b61390d9190614cb7565b90506139198582613bb3565b5f61392386613bf9565b6040516330cd786560e11b8152909150600160f81b8516905f805160206150408339815191529063619af0ca906139609085908590600401614cca565b5f604051808303815f87803b158015613977575f80fd5b505af1158015613989573d5f803e3d5ffd5b5050505061177d600588888486613c15565b5f8061010060406020601060086139b460046001614cb7565b6139be9190614cb7565b6139c89190614cb7565b6139d29190614cb7565b6139dc9190614cb7565b6139e69190614cb7565b90506139f28382613bb3565b5f6139fc84613bf9565b6040516322f1ff5160e11b81529091505f80516020615040833981519152906345e3fea290613a2f908490600401614d38565b5f604051808303815f87803b158015613a46575f80fd5b505af1158015613a58573d5f803e3d5ffd5b5050505061362c601585614508565b5f8061080061040061020061010060806040602060106008613a8b60046001614cb7565b613a959190614cb7565b613a9f9190614cb7565b613aa99190614cb7565b613ab39190614cb7565b613abd9190614cb7565b613ac79190614cb7565b613ad19190614cb7565b613adb9190614cb7565b613ae59190614cb7565b9050613af18582613bb3565b5f613afb86613bf9565b9050600160f81b8085169081148015613b2857506008826053811115613b2357613b23614b52565b60ff16115b15613b465760405163dac55bcd60e01b815260040160405180910390fd5b6040516308194a5360e41b81525f8051602061504083398151915290638194a53090613b789085908590600401614cca565b5f604051808303815f87803b158015613b8f575f80fd5b505af1158015613ba1573d5f803e3d5ffd5b5050505061177d600c8888845f613c15565b5f613bbd83613bf9565b905081816053811115613bd257613bd2614b52565b60ff166001901b165f036124c75760405163636f233560e11b815260040160405180910390fd5b5f81601e1a6053811115613c0f57613c0f614b52565b92915050565b6040516382027b6d60e01b8152600481018590523360248201525f907350157cffd6bbfa2dece204a89ec419c23ef5755d906382027b6d90604401602060405180830381865afa158015613c6b573d5f803e3d5ffd5b505050506040513d601f19601f82011682018060405250810190613c8f9190614dc5565b613cb557604051632778ce4b60e21b8152600481018690523360248201526044016110c8565b6001600160f81b031983165f03613dc1576040516382027b6d60e01b8152600481018590523360248201527350157cffd6bbfa2dece204a89ec419c23ef5755d906382027b6d90604401602060405180830381865afa158015613d1a573d5f803e3d5ffd5b505050506040513d601f19601f82011682018060405250810190613d3e9190614dc5565b613d6457604051632778ce4b60e21b8152600481018590523360248201526044016110c8565b5f613d6e85613bf9565b90505f613d7a87613bf9565b9050816053811115613d8e57613d8e614b52565b816053811115613da057613da0614b52565b14613dbe57604051631f3158c760e01b815260040160405180910390fd5b50505b858585857350157cffd6bbfa2dece204a89ec419c23ef5755d46604051602001613df096959493929190614f3a565b604051602081830303815290604052805190602001209050613e128183614020565b604051630f8e573b60e21b8152600481018290523360248201529091507350157cffd6bbfa2dece204a89ec419c23ef5755d90633e395cec906044015f604051808303815f87803b158015613e65575f80fd5b505af1158015613e77573d5f803e3d5ffd5b5050505095945050505050565b5f807a184f03e93ff9f4daa797ed6e38ed64bf6a1f0100000000000000008310613ecc577a184f03e93ff9f4daa797ed6e38ed64bf6a1f010000000000000000830492506040015b6d04ee2d6d415b85acef81000000008310613ef8576d04ee2d6d415b85acef8100000000830492506020015b662386f26fc100008310613f1657662386f26fc10000830492506010015b6305f5e1008310613f2e576305f5e100830492506008015b6127108310613f4257612710830492506004015b60648310613f54576064830492506002015b600a8310613c0f5760010192915050565b6009816053811115613f7957613f79614b52565b03613fa35781604014610c6757808260405163b30c0c5760e01b81526004016110c8929190614f8a565b600a816053811115613fb757613fb7614b52565b03613fe15781608014610c6757808260405163b30c0c5760e01b81526004016110c8929190614f8a565b600b816053811115613ff557613ff5614b52565b03610c67578161010014610c6757808260405163b30c0c5760e01b81526004016110c8929190614f8a565b69ffffffffffffffff00004660101b166affffffffffffffffffffff198316176aff0000000000000000000017600882605381111561406157614061614b52565b60ff16901b1792915050565b5f8082118015613c0f5750614083600183614e2a565b82161592915050565b61409582614601565b6040516001600160a01b038316907fbc7cd75a20ee27fd9adebab32041f755214dbc6bffa90cc0225b39da2e5c2d3b905f90a28051156140d9576124c78282614677565b610c676146e9565b7ff0c57e16840df040f15088dc2f81fe391c3923bec73e23a9662efc9c229c6a005468010000000000000000900460ff16610f7457604051631afcd79f60e31b815260040160405180910390fd5b6141376140e1565b6001600160a01b0381166110d157604051631e4fbdf760e01b81525f60048201526024016110c8565b7f9016d09d72d40fdae2fd8ceac6b6234c7706214fd39c1cd1e609a0528c19930080546001600160a01b031981166001600160a01b03848116918217845560405192169182907f8be0079c531659141344cd1fd0a4f28419497f9722a3daafe3b4186f6b6457e0905f90a3505050565b6040516382027b6d60e01b8152600481018490523360248201525f907350157cffd6bbfa2dece204a89ec419c23ef5755d906382027b6d90604401602060405180830381865afa158015614226573d5f803e3d5ffd5b505050506040513d601f19601f8201168201806040525081019061424a9190614dc5565b61427057604051632778ce4b60e21b8152600481018590523360248201526044016110c8565b6040516382027b6d60e01b8152600481018490523360248201527350157cffd6bbfa2dece204a89ec419c23ef5755d906382027b6d90604401602060405180830381865afa1580156142c4573d5f803e3d5ffd5b505050506040513d601f19601f820116820180604052508101906142e89190614dc5565b61430e57604051632778ce4b60e21b8152600481018490523360248201526044016110c8565b6040516382027b6d60e01b8152600481018390523360248201527350157cffd6bbfa2dece204a89ec419c23ef5755d906382027b6d90604401602060405180830381865afa158015614362573d5f803e3d5ffd5b505050506040513d601f19601f820116820180604052508101906143869190614dc5565b6143ac57604051632778ce4b60e21b8152600481018390523360248201526044016110c8565b5f6143b685613bf9565b90505f6143c285613bf9565b90505f6143ce85613bf9565b90505f8360538111156143e3576143e3614b52565b146144015760405163636f233560e11b815260040160405180910390fd5b80605381111561441357614413614b52565b82605381111561442557614425614b52565b1461444357604051631f3158c760e01b815260040160405180910390fd5b878787877350157cffd6bbfa2dece204a89ec419c23ef5755d4660405160200161447296959493929190614fa5565b6040516020818303038152906040528051906020012093506144948483614020565b604051630f8e573b60e21b8152600481018290523360248201529094507350157cffd6bbfa2dece204a89ec419c23ef5755d90633e395cec906044015f604051808303815f87803b1580156144e7575f80fd5b505af11580156144f9573d5f803e3d5ffd5b50505050505050949350505050565b6040516382027b6d60e01b8152600481018290523360248201525f907350157cffd6bbfa2dece204a89ec419c23ef5755d906382027b6d90604401602060405180830381865afa15801561455e573d5f803e3d5ffd5b505050506040513d601f19601f820116820180604052508101906145829190614dc5565b6145a857604051632778ce4b60e21b8152600481018390523360248201526044016110c8565b82827350157cffd6bbfa2dece204a89ec419c23ef5755d466040516020016145d39493929190614feb565b6040516020818303038152906040528051906020012090505f6145f583613bf9565b9050611ccf8282614020565b806001600160a01b03163b5f0361463657604051634c9c8ce360e01b81526001600160a01b03821660048201526024016110c8565b7f360894a13ba1a3210667c828492db98dca3e2076cc3735a920a3ca505d382bbc80546001600160a01b0319166001600160a01b0392909216919091179055565b60605f80846001600160a01b0316846040516146939190615024565b5f60405180830381855af49150503d805f81146146cb576040519150601f19603f3d011682016040523d82523d5f602084013e6146d0565b606091505b50915091506146e0858383614708565b95945050505050565b3415610f745760405163b398979f60e01b815260040160405180910390fd5b60608261471d5761471882614767565b614760565b815115801561473457506001600160a01b0384163b155b1561475d57604051639996b31560e01b81526001600160a01b03851660048201526024016110c8565b50805b9392505050565b8051156147775780518082602001fd5b60405163d6bda27560e01b815260040160405180910390fd5b80356001600160f81b0319811681146147a7575f80fd5b919050565b5f805f606084860312156147be575f80fd5b83359250602084013591506147d560408501614790565b90509250925092565b5f5b838110156147f85781810151838201526020016147e0565b50505f910152565b5f81518084526148178160208601602086016147de565b601f01601f19169290920160200192915050565b602081525f6147606020830184614800565b80356001600160a01b03811681146147a7575f80fd5b634e487b7160e01b5f52604160045260245ffd5b5f82601f830112614876575f80fd5b813567ffffffffffffffff8082111561489157614891614853565b604051601f8301601f19908116603f011681019082821181831017156148b9576148b9614853565b816040528381528660208588010111156148d1575f80fd5b836020870160208301375f602085830101528094505050505092915050565b8035605481106147a7575f80fd5b5f805f8060808587031215614911575f80fd5b843593506149216020860161483d565b9250604085013567ffffffffffffffff81111561493c575f80fd5b61494887828801614867565b925050614957606086016148f0565b905092959194509250565b5f8060408385031215614973575f80fd5b823567ffffffffffffffff811115614989575f80fd5b61499585828601614867565b9250506149a4602084016148f0565b90509250929050565b5f80604083850312156149be575f80fd5b823591506149a4602084016148f0565b5f80604083850312156149df575f80fd5b6149e88361483d565b9150602083013567ffffffffffffffff811115614a03575f80fd5b614a0f85828601614867565b9150509250929050565b5f805f60608486031215614a2b575f80fd5b83359250602084013567ffffffffffffffff811115614a48575f80fd5b614a5486828701614867565b9250506147d560408501614790565b5f805f60608486031215614a75575f80fd5b505081359360208301359350604090920135919050565b5f60208284031215614a9c575f80fd5b5035919050565b5f60208284031215614ab3575f80fd5b614760826148f0565b5f60208284031215614acc575f80fd5b6147608261483d565b5f8551614ae6818460208a016147de565b61103b60f11b9083019081528551614b05816002840160208a016147de565b808201915050601760f91b8060028301528551614b29816003850160208a016147de565b60039201918201528351614b448160048401602088016147de565b016004019695505050505050565b634e487b7160e01b5f52602160045260245ffd5b60548110614b7657614b76614b52565b9052565b8581526001600160a01b038516602082015260a060408201525f614ba160a0830186614800565b9050614bb06060830185614b66565b8260808301529695505050505050565b606081525f614bd26060830186614800565b9050614be16020830185614b66565b826040830152949350505050565b83815260608101614be16020830185614b66565b84815260808101614c176020830186614b66565b6fffffffffffffffffffffffffffffffff199390931660408201526060015292915050565b848152608060208201525f614c546080830186614800565b6001600160f81b0319949094166040830152506060015292915050565b60608101614c7f8286614b66565b6fffffffffffffffffffffffffffffffff1993909316602082015260400152919050565b634e487b7160e01b5f52601160045260245ffd5b80820180821115613c0f57613c0f614ca3565b60408101614cd88285614b66565b60ff60f81b831660208301529392505050565b5f6001600160a01b0380865116835280602087015116602084015250836040830152608060608301526146e06080830184614800565b5f60208284031215614d31575f80fd5b5051919050565b60208101613c0f8284614b66565b601c8110614d5657614d56614b52565b60f81b9052565b60548110614d5657614d56614b52565b614d778187614d46565b5f8551614d8b816001850160208a016147de565b8201614d9a6001820187614d5d565b60609490941b6bffffffffffffffffffffffff19166002850152505060168201526036019392505050565b5f60208284031215614dd5575f80fd5b81518015158114614760575f80fd5b614dee8187614d46565b846001820152614e016021820185614d5d565b60609290921b6bffffffffffffffffffffffff1916602283015260368201526056019392505050565b81810381811115613c0f57613c0f614ca3565b5f60018201614e4e57614e4e614ca3565b5060010190565b614e5f8186614d46565b836001820152614e726021820184614d5d565b6fffffffffffffffffffffffffffffffff199190911660228201526032019392505050565b614ea18188614d46565b8560018201525f8551614ebb816021850160208a016147de565b6001600160f81b0319959095166021929095019182019490945260609290921b6bffffffffffffffffffffffff191660228301526036820152605601949350505050565b614f098185614d46565b614f166001820184614d5d565b6fffffffffffffffffffffffffffffffff1991909116600282015260120192915050565b614f448188614d46565b600181019590955260218501939093526001600160f81b031991909116604184015260601b6bffffffffffffffffffffffff191660428301526056820152607601919050565b60408101614f988285614b66565b8260208301529392505050565b614faf8188614d46565b60018101959095526021850193909352604184019190915260601b6bffffffffffffffffffffffff191660618301526075820152609501919050565b614ff58186614d46565b600181019390935260609190911b6bffffffffffffffffffffffff191660218301526035820152605501919050565b5f82516150358184602087016147de565b919091019291505056fe00000000000000000000000036772142b74871f255cbd7a3e89b401d3e45825fa164736f6c6343000818000a",
  "linkReferences": {},
  "deployedLinkReferences": {}
}