{
  "_format": "hh-sol-artifact-1",
  "contractName": "TFHEExecutor",
  "sourceName": "contracts/TFHEExecutor.sol",
  "abi": [
    {
      "inputs": [],
      "stateMutability": "nonpayable",
      "type": "constructor"
    },
    {
      "inputs": [
        {
          "internalType": "bytes32",
          "name": "handle",
          "type": "bytes32"
        },
        {
          "internalType": "address",
          "name": "account",
          "type": "address"
        }
      ],
      "name": "ACLNotAllowed",
      "type": "error"
    },
    {
      "inputs": [
        {
          "internalType": "address",
          "name": "target",
          "type": "address"
        }
      ],
      "name": "AddressEmptyCode",
      "type": "error"
    },
    {
      "inputs": [],
      "name": "DivisionByZero",
      "type": "error"
    },
    {
      "inputs": [
        {
          "internalType": "address",
          "name": "implementation",
          "type": "address"
        }
      ],
      "name": "ERC1967InvalidImplementation",
      "type": "error"
    },
    {
      "inputs": [],
      "name": "ERC1967NonPayable",
      "type": "error"
    },
    {
      "inputs": [],
      "name": "FailedCall",
      "type": "error"
    },
    {
      "inputs": [],
      "name": "IncompatibleTypes",
      "type": "error"
    },
    {
      "inputs": [
        {
          "internalType": "enum FheType",
          "name": "typeOf",
          "type": "uint8"
        },
        {
          "internalType": "uint256",
          "name": "length",
          "type": "uint256"
        }
      ],
      "name": "InvalidByteLength",
      "type": "error"
    },
    {
      "inputs": [],
      "name": "InvalidInitialization",
      "type": "error"
    },
    {
      "inputs": [],
      "name": "InvalidType",
      "type": "error"
    },
    {
      "inputs": [],
      "name": "IsNotScalar",
      "type": "error"
    },
    {
      "inputs": [],
      "name": "IsScalar",
      "type": "error"
    },
    {
      "inputs": [],
      "name": "NotInitializing",
      "type": "error"
    },
    {
      "inputs": [],
      "name": "NotPowerOfTwo",
      "type": "error"
    },
    {
      "inputs": [
        {
          "internalType": "address",
          "name": "owner",
          "type": "address"
        }
      ],
      "name": "OwnableInvalidOwner",
      "type": "error"
    },
    {
      "inputs": [
        {
          "internalType": "address",
          "name": "account",
          "type": "address"
        }
      ],
      "name": "OwnableUnauthorizedAccount",
      "type": "error"
    },
    {
      "inputs": [],
      "name": "SecondOperandIsNotScalar",
      "type": "error"
    },
    {
      "inputs": [],
      "name": "UUPSUnauthorizedCallContext",
      "type": "error"
    },
    {
      "inputs": [
        {
          "internalType": "bytes32",
          "name": "slot",
          "type": "bytes32"
        }
      ],
      "name": "UUPSUnsupportedProxiableUUID",
      "type": "error"
    },
    {
      "inputs": [],
      "name": "UnsupportedType",
      "type": "error"
    },
    {
      "anonymous": false,
      "inputs": [
        {
          "indexed": true,
          "internalType": "address",
          "name": "caller",
          "type": "address"
        },
        {
          "indexed": false,
          "internalType": "bytes32",
          "name": "ct",
          "type": "bytes32"
        },
        {
          "indexed": false,
          "internalType": "enum FheType",
          "name": "toType",
          "type": "uint8"
        },
        {
          "indexed": false,
          "internalType": "bytes32",
          "name": "result",
          "type": "bytes32"
        }
      ],
      "name": "Cast",
      "type": "event"
    },
    {
      "anonymous": false,
      "inputs": [
        {
          "indexed": true,
          "internalType": "address",
          "name": "caller",
          "type": "address"
        },
        {
          "indexed": false,
          "internalType": "bytes32",
          "name": "lhs",
          "type": "bytes32"
        },
        {
          "indexed": false,
          "internalType": "bytes32",
          "name": "rhs",
          "type": "bytes32"
        },
        {
          "indexed": false,
          "internalType": "bytes1",
          "name": "scalarByte",
          "type": "bytes1"
        },
        {
          "indexed": false,
          "internalType": "bytes32",
          "name": "result",
          "type": "bytes32"
        }
      ],
      "name": "FheAdd",
      "type": "event"
    },
    {
      "anonymous": false,
      "inputs": [
        {
          "indexed": true,
          "internalType": "address",
          "name": "caller",
          "type": "address"
        },
        {
          "indexed": false,
          "internalType": "bytes32",
          "name": "lhs",
          "type": "bytes32"
        },
        {
          "indexed": false,
          "internalType": "bytes32",
          "name": "rhs",
          "type": "bytes32"
        },
        {
          "indexed": false,
          "internalType": "bytes1",
          "name": "scalarByte",
          "type": "bytes1"
        },
        {
          "indexed": false,
          "internalType": "bytes32",
          "name": "result",
          "type": "bytes32"
        }
      ],
      "name": "FheBitAnd",
      "type": "event"
    },
    {
      "anonymous": false,
      "inputs": [
        {
          "indexed": true,
          "internalType": "address",
          "name": "caller",
          "type": "address"
        },
        {
          "indexed": false,
          "internalType": "bytes32",
          "name": "lhs",
          "type": "bytes32"
        },
        {
          "indexed": false,
          "internalType": "bytes32",
          "name": "rhs",
          "type": "bytes32"
        },
        {
          "indexed": false,
          "internalType": "bytes1",
          "name": "scalarByte",
          "type": "bytes1"
        },
        {
          "indexed": false,
          "internalType": "bytes32",
          "name": "result",
          "type": "bytes32"
        }
      ],
      "name": "FheBitOr",
      "type": "event"
    },
    {
      "anonymous": false,
      "inputs": [
        {
          "indexed": true,
          "internalType": "address",
          "name": "caller",
          "type": "address"
        },
        {
          "indexed": false,
          "internalType": "bytes32",
          "name": "lhs",
          "type": "bytes32"
        },
        {
          "indexed": false,
          "internalType": "bytes32",
          "name": "rhs",
          "type": "bytes32"
        },
        {
          "indexed": false,
          "internalType": "bytes1",
          "name": "scalarByte",
          "type": "bytes1"
        },
        {
          "indexed": false,
          "internalType": "bytes32",
          "name": "result",
          "type": "bytes32"
        }
      ],
      "name": "FheBitXor",
      "type": "event"
    },
    {
      "anonymous": false,
      "inputs": [
        {
          "indexed": true,
          "internalType": "address",
          "name": "caller",
          "type": "address"
        },
        {
          "indexed": false,
          "internalType": "bytes32",
          "name": "lhs",
          "type": "bytes32"
        },
        {
          "indexed": false,
          "internalType": "bytes32",
          "name": "rhs",
          "type": "bytes32"
        },
        {
          "indexed": false,
          "internalType": "bytes1",
          "name": "scalarByte",
          "type": "bytes1"
        },
        {
          "indexed": false,
          "internalType": "bytes32",
          "name": "result",
          "type": "bytes32"
        }
      ],
      "name": "FheDiv",
      "type": "event"
    },
    {
      "anonymous": false,
      "inputs": [
        {
          "indexed": true,
          "internalType": "address",
          "name": "caller",
          "type": "address"
        },
        {
          "indexed": false,
          "internalType": "bytes32",
          "name": "lhs",
          "type": "bytes32"
        },
        {
          "indexed": false,
          "internalType": "bytes32",
          "name": "rhs",
          "type": "bytes32"
        },
        {
          "indexed": false,
          "internalType": "bytes1",
          "name": "scalarByte",
          "type": "bytes1"
        },
        {
          "indexed": false,
          "internalType": "bytes32",
          "name": "result",
          "type": "bytes32"
        }
      ],
      "name": "FheEq",
      "type": "event"
    },
    {
      "anonymous": false,
      "inputs": [
        {
          "indexed": true,
          "internalType": "address",
          "name": "caller",
          "type": "address"
        },
        {
          "indexed": false,
          "internalType": "bytes32",
          "name": "lhs",
          "type": "bytes32"
        },
        {
          "indexed": false,
          "internalType": "bytes",
          "name": "rhs",
          "type": "bytes"
        },
        {
          "indexed": false,
          "internalType": "bytes1",
          "name": "scalarByte",
          "type": "bytes1"
        },
        {
          "indexed": false,
          "internalType": "bytes32",
          "name": "result",
          "type": "bytes32"
        }
      ],
      "name": "FheEqBytes",
      "type": "event"
    },
    {
      "anonymous": false,
      "inputs": [
        {
          "indexed": true,
          "internalType": "address",
          "name": "caller",
          "type": "address"
        },
        {
          "indexed": false,
          "internalType": "bytes32",
          "name": "lhs",
          "type": "bytes32"
        },
        {
          "indexed": false,
          "internalType": "bytes32",
          "name": "rhs",
          "type": "bytes32"
        },
        {
          "indexed": false,
          "internalType": "bytes1",
          "name": "scalarByte",
          "type": "bytes1"
        },
        {
          "indexed": false,
          "internalType": "bytes32",
          "name": "result",
          "type": "bytes32"
        }
      ],
      "name": "FheGe",
      "type": "event"
    },
    {
      "anonymous": false,
      "inputs": [
        {
          "indexed": true,
          "internalType": "address",
          "name": "caller",
          "type": "address"
        },
        {
          "indexed": false,
          "internalType": "bytes32",
          "name": "lhs",
          "type": "bytes32"
        },
        {
          "indexed": false,
          "internalType": "bytes32",
          "name": "rhs",
          "type": "bytes32"
        },
        {
          "indexed": false,
          "internalType": "bytes1",
          "name": "scalarByte",
          "type": "bytes1"
        },
        {
          "indexed": false,
          "internalType": "bytes32",
          "name": "result",
          "type": "bytes32"
        }
      ],
      "name": "FheGt",
      "type": "event"
    },
    {
      "anonymous": false,
      "inputs": [
        {
          "indexed": true,
          "internalType": "address",
          "name": "caller",
          "type": "address"
        },
        {
          "indexed": false,
          "internalType": "bytes32",
          "name": "control",
          "type": "bytes32"
        },
        {
          "indexed": false,
          "internalType": "bytes32",
          "name": "ifTrue",
          "type": "bytes32"
        },
        {
          "indexed": false,
          "internalType": "bytes32",
          "name": "ifFalse",
          "type": "bytes32"
        },
        {
          "indexed": false,
          "internalType": "bytes32",
          "name": "result",
          "type": "bytes32"
        }
      ],
      "name": "FheIfThenElse",
      "type": "event"
    },
    {
      "anonymous": false,
      "inputs": [
        {
          "indexed": true,
          "internalType": "address",
          "name": "caller",
          "type": "address"
        },
        {
          "indexed": false,
          "internalType": "bytes32",
          "name": "lhs",
          "type": "bytes32"
        },
        {
          "indexed": false,
          "internalType": "bytes32",
          "name": "rhs",
          "type": "bytes32"
        },
        {
          "indexed": false,
          "internalType": "bytes1",
          "name": "scalarByte",
          "type": "bytes1"
        },
        {
          "indexed": false,
          "internalType": "bytes32",
          "name": "result",
          "type": "bytes32"
        }
      ],
      "name": "FheLe",
      "type": "event"
    },
    {
      "anonymous": false,
      "inputs": [
        {
          "indexed": true,
          "internalType": "address",
          "name": "caller",
          "type": "address"
        },
        {
          "indexed": false,
          "internalType": "bytes32",
          "name": "lhs",
          "type": "bytes32"
        },
        {
          "indexed": false,
          "internalType": "bytes32",
          "name": "rhs",
          "type": "bytes32"
        },
        {
          "indexed": false,
          "internalType": "bytes1",
          "name": "scalarByte",
          "type": "bytes1"
        },
        {
          "indexed": false,
          "internalType": "bytes32",
          "name": "result",
          "type": "bytes32"
        }
      ],
      "name": "FheLt",
      "type": "event"
    },
    {
      "anonymous": false,
      "inputs": [
        {
          "indexed": true,
          "internalType": "address",
          "name": "caller",
          "type": "address"
        },
        {
          "indexed": false,
          "internalType": "bytes32",
          "name": "lhs",
          "type": "bytes32"
        },
        {
          "indexed": false,
          "internalType": "bytes32",
          "name": "rhs",
          "type": "bytes32"
        },
        {
          "indexed": false,
          "internalType": "bytes1",
          "name": "scalarByte",
          "type": "bytes1"
        },
        {
          "indexed": false,
          "internalType": "bytes32",
          "name": "result",
          "type": "bytes32"
        }
      ],
      "name": "FheMax",
      "type": "event"
    },
    {
      "anonymous": false,
      "inputs": [
        {
          "indexed": true,
          "internalType": "address",
          "name": "caller",
          "type": "address"
        },
        {
          "indexed": false,
          "internalType": "bytes32",
          "name": "lhs",
          "type": "bytes32"
        },
        {
          "indexed": false,
          "internalType": "bytes32",
          "name": "rhs",
          "type": "bytes32"
        },
        {
          "indexed": false,
          "internalType": "bytes1",
          "name": "scalarByte",
          "type": "bytes1"
        },
        {
          "indexed": false,
          "internalType": "bytes32",
          "name": "result",
          "type": "bytes32"
        }
      ],
      "name": "FheMin",
      "type": "event"
    },
    {
      "anonymous": false,
      "inputs": [
        {
          "indexed": true,
          "internalType": "address",
          "name": "caller",
          "type": "address"
        },
        {
          "indexed": false,
          "internalType": "bytes32",
          "name": "lhs",
          "type": "bytes32"
        },
        {
          "indexed": false,
          "internalType": "bytes32",
          "name": "rhs",
          "type": "bytes32"
        },
        {
          "indexed": false,
          "internalType": "bytes1",
          "name": "scalarByte",
          "type": "bytes1"
        },
        {
          "indexed": false,
          "internalType": "bytes32",
          "name": "result",
          "type": "bytes32"
        }
      ],
      "name": "FheMul",
      "type": "event"
    },
    {
      "anonymous": false,
      "inputs": [
        {
          "indexed": true,
          "internalType": "address",
          "name": "caller",
          "type": "address"
        },
        {
          "indexed": false,
          "internalType": "bytes32",
          "name": "lhs",
          "type": "bytes32"
        },
        {
          "indexed": false,
          "internalType": "bytes32",
          "name": "rhs",
          "type": "bytes32"
        },
        {
          "indexed": false,
          "internalType": "bytes1",
          "name": "scalarByte",
          "type": "bytes1"
        },
        {
          "indexed": false,
          "internalType": "bytes32",
          "name": "result",
          "type": "bytes32"
        }
      ],
      "name": "FheNe",
      "type": "event"
    },
    {
      "anonymous": false,
      "inputs": [
        {
          "indexed": true,
          "internalType": "address",
          "name": "caller",
          "type": "address"
        },
        {
          "indexed": false,
          "internalType": "bytes32",
          "name": "lhs",
          "type": "bytes32"
        },
        {
          "indexed": false,
          "internalType": "bytes",
          "name": "rhs",
          "type": "bytes"
        },
        {
          "indexed": false,
          "internalType": "bytes1",
          "name": "scalarByte",
          "type": "bytes1"
        },
        {
          "indexed": false,
          "internalType": "bytes32",
          "name": "result",
          "type": "bytes32"
        }
      ],
      "name": "FheNeBytes",
      "type": "event"
    },
    {
      "anonymous": false,
      "inputs": [
        {
          "indexed": true,
          "internalType": "address",
          "name": "caller",
          "type": "address"
        },
        {
          "indexed": false,
          "internalType": "bytes32",
          "name": "ct",
          "type": "bytes32"
        },
        {
          "indexed": false,
          "internalType": "bytes32",
          "name": "result",
          "type": "bytes32"
        }
      ],
      "name": "FheNeg",
      "type": "event"
    },
    {
      "anonymous": false,
      "inputs": [
        {
          "indexed": true,
          "internalType": "address",
          "name": "caller",
          "type": "address"
        },
        {
          "indexed": false,
          "internalType": "bytes32",
          "name": "ct",
          "type": "bytes32"
        },
        {
          "indexed": false,
          "internalType": "bytes32",
          "name": "result",
          "type": "bytes32"
        }
      ],
      "name": "FheNot",
      "type": "event"
    },
    {
      "anonymous": false,
      "inputs": [
        {
          "indexed": true,
          "internalType": "address",
          "name": "caller",
          "type": "address"
        },
        {
          "indexed": false,
          "internalType": "enum FheType",
          "name": "randType",
          "type": "uint8"
        },
        {
          "indexed": false,
          "internalType": "bytes16",
          "name": "seed",
          "type": "bytes16"
        },
        {
          "indexed": false,
          "internalType": "bytes32",
          "name": "result",
          "type": "bytes32"
        }
      ],
      "name": "FheRand",
      "type": "event"
    },
    {
      "anonymous": false,
      "inputs": [
        {
          "indexed": true,
          "internalType": "address",
          "name": "caller",
          "type": "address"
        },
        {
          "indexed": false,
          "internalType": "uint256",
          "name": "upperBound",
          "type": "uint256"
        },
        {
          "indexed": false,
          "internalType": "enum FheType",
          "name": "randType",
          "type": "uint8"
        },
        {
          "indexed": false,
          "internalType": "bytes16",
          "name": "seed",
          "type": "bytes16"
        },
        {
          "indexed": false,
          "internalType": "bytes32",
          "name": "result",
          "type": "bytes32"
        }
      ],
      "name": "FheRandBounded",
      "type": "event"
    },
    {
      "anonymous": false,
      "inputs": [
        {
          "indexed": true,
          "internalType": "address",
          "name": "caller",
          "type": "address"
        },
        {
          "indexed": false,
          "internalType": "bytes32",
          "name": "lhs",
          "type": "bytes32"
        },
        {
          "indexed": false,
          "internalType": "bytes32",
          "name": "rhs",
          "type": "bytes32"
        },
        {
          "indexed": false,
          "internalType": "bytes1",
          "name": "scalarByte",
          "type": "bytes1"
        },
        {
          "indexed": false,
          "internalType": "bytes32",
          "name": "result",
          "type": "bytes32"
        }
      ],
      "name": "FheRem",
      "type": "event"
    },
    {
      "anonymous": false,
      "inputs": [
        {
          "indexed": true,
          "internalType": "address",
          "name": "caller",
          "type": "address"
        },
        {
          "indexed": false,
          "internalType": "bytes32",
          "name": "lhs",
          "type": "bytes32"
        },
        {
          "indexed": false,
          "internalType": "bytes32",
          "name": "rhs",
          "type": "bytes32"
        },
        {
          "indexed": false,
          "internalType": "bytes1",
          "name": "scalarByte",
          "type": "bytes1"
        },
        {
          "indexed": false,
          "internalType": "bytes32",
          "name": "result",
          "type": "bytes32"
        }
      ],
      "name": "FheRotl",
      "type": "event"
    },
    {
      "anonymous": false,
      "inputs": [
        {
          "indexed": true,
          "internalType": "address",
          "name": "caller",
          "type": "address"
        },
        {
          "indexed": false,
          "internalType": "bytes32",
          "name": "lhs",
          "type": "bytes32"
        },
        {
          "indexed": false,
          "internalType": "bytes32",
          "name": "rhs",
          "type": "bytes32"
        },
        {
          "indexed": false,
          "internalType": "bytes1",
          "name": "scalarByte",
          "type": "bytes1"
        },
        {
          "indexed": false,
          "internalType": "bytes32",
          "name": "result",
          "type": "bytes32"
        }
      ],
      "name": "FheRotr",
      "type": "event"
    },
    {
      "anonymous": false,
      "inputs": [
        {
          "indexed": true,
          "internalType": "address",
          "name": "caller",
          "type": "address"
        },
        {
          "indexed": false,
          "internalType": "bytes32",
          "name": "lhs",
          "type": "bytes32"
        },
        {
          "indexed": false,
          "internalType": "bytes32",
          "name": "rhs",
          "type": "bytes32"
        },
        {
          "indexed": false,
          "internalType": "bytes1",
          "name": "scalarByte",
          "type": "bytes1"
        },
        {
          "indexed": false,
          "internalType": "bytes32",
          "name": "result",
          "type": "bytes32"
        }
      ],
      "name": "FheShl",
      "type": "event"
    },
    {
      "anonymous": false,
      "inputs": [
        {
          "indexed": true,
          "internalType": "address",
          "name": "caller",
          "type": "address"
        },
        {
          "indexed": false,
          "internalType": "bytes32",
          "name": "lhs",
          "type": "bytes32"
        },
        {
          "indexed": false,
          "internalType": "bytes32",
          "name": "rhs",
          "type": "bytes32"
        },
        {
          "indexed": false,
          "internalType": "bytes1",
          "name": "scalarByte",
          "type": "bytes1"
        },
        {
          "indexed": false,
          "internalType": "bytes32",
          "name": "result",
          "type": "bytes32"
        }
      ],
      "name": "FheShr",
      "type": "event"
    },
    {
      "anonymous": false,
      "inputs": [
        {
          "indexed": true,
          "internalType": "address",
          "name": "caller",
          "type": "address"
        },
        {
          "indexed": false,
          "internalType": "bytes32",
          "name": "lhs",
          "type": "bytes32"
        },
        {
          "indexed": false,
          "internalType": "bytes32",
          "name": "rhs",
          "type": "bytes32"
        },
        {
          "indexed": false,
          "internalType": "bytes1",
          "name": "scalarByte",
          "type": "bytes1"
        },
        {
          "indexed": false,
          "internalType": "bytes32",
          "name": "result",
          "type": "bytes32"
        }
      ],
      "name": "FheSub",
      "type": "event"
    },
    {
      "anonymous": false,
      "inputs": [
        {
          "indexed": false,
          "internalType": "uint64",
          "name": "version",
          "type": "uint64"
        }
      ],
      "name": "Initialized",
      "type": "event"
    },
    {
      "anonymous": false,
      "inputs": [
        {
          "indexed": true,
          "internalType": "address",
          "name": "previousOwner",
          "type": "address"
        },
        {
          "indexed": true,
          "internalType": "address",
          "name": "newOwner",
          "type": "address"
        }
      ],
      "name": "OwnershipTransferStarted",
      "type": "event"
    },
    {
      "anonymous": false,
      "inputs": [
        {
          "indexed": true,
          "internalType": "address",
          "name": "previousOwner",
          "type": "address"
        },
        {
          "indexed": true,
          "internalType": "address",
          "name": "newOwner",
          "type": "address"
        }
      ],
      "name": "OwnershipTransferred",
      "type": "event"
    },
    {
      "anonymous": false,
      "inputs": [
        {
          "indexed": true,
          "internalType": "address",
          "name": "caller",
          "type": "address"
        },
        {
          "indexed": false,
          "internalType": "uint256",
          "name": "pt",
          "type": "uint256"
        },
        {
          "indexed": false,
          "internalType": "enum FheType",
          "name": "toType",
          "type": "uint8"
        },
        {
          "indexed": false,
          "internalType": "bytes32",
          "name": "result",
          "type": "bytes32"
        }
      ],
      "name": "TrivialEncrypt",
      "type": "event"
    },
    {
      "anonymous": false,
      "inputs": [
        {
          "indexed": true,
          "internalType": "address",
          "name": "caller",
          "type": "address"
        },
        {
          "indexed": false,
          "internalType": "bytes",
          "name": "pt",
          "type": "bytes"
        },
        {
          "indexed": false,
          "internalType": "enum FheType",
          "name": "toType",
          "type": "uint8"
        },
        {
          "indexed": false,
          "internalType": "bytes32",
          "name": "result",
          "type": "bytes32"
        }
      ],
      "name": "TrivialEncryptBytes",
      "type": "event"
    },
    {
      "anonymous": false,
      "inputs": [
        {
          "indexed": true,
          "internalType": "address",
          "name": "implementation",
          "type": "address"
        }
      ],
      "name": "Upgraded",
      "type": "event"
    },
    {
      "anonymous": false,
      "inputs": [
        {
          "indexed": true,
          "internalType": "address",
          "name": "caller",
          "type": "address"
        },
        {
          "indexed": false,
          "internalType": "bytes32",
          "name": "inputHandle",
          "type": "bytes32"
        },
        {
          "indexed": false,
          "internalType": "address",
          "name": "userAddress",
          "type": "address"
        },
        {
          "indexed": false,
          "internalType": "bytes",
          "name": "inputProof",
          "type": "bytes"
        },
        {
          "indexed": false,
          "internalType": "enum FheType",
          "name": "inputType",
          "type": "uint8"
        },
        {
          "indexed": false,
          "internalType": "bytes32",
          "name": "result",
          "type": "bytes32"
        }
      ],
      "name": "VerifyCiphertext",
      "type": "event"
    },
    {
      "inputs": [],
      "name": "HANDLE_VERSION",
      "outputs": [
        {
          "internalType": "uint8",
          "name": "",
          "type": "uint8"
        }
      ],
      "stateMutability": "view",
      "type": "function"
    },
    {
      "inputs": [],
      "name": "UPGRADE_INTERFACE_VERSION",
      "outputs": [
        {
          "internalType": "string",
          "name": "",
          "type": "string"
        }
      ],
      "stateMutability": "view",
      "type": "function"
    },
    {
      "inputs": [],
      "name": "acceptOwnership",
      "outputs": [],
      "stateMutability": "nonpayable",
      "type": "function"
    },
    {
      "inputs": [
        {
          "internalType": "bytes32",
          "name": "ct",
          "type": "bytes32"
        },
        {
          "internalType": "enum FheType",
          "name": "toType",
          "type": "uint8"
        }
      ],
      "name": "cast",
      "outputs": [
        {
          "internalType": "bytes32",
          "name": "result",
          "type": "bytes32"
        }
      ],
      "stateMutability": "nonpayable",
      "type": "function"
    },
    {
      "inputs": [
        {
          "internalType": "bytes32",
          "name": "lhs",
          "type": "bytes32"
        },
        {
          "internalType": "bytes32",
          "name": "rhs",
          "type": "bytes32"
        },
        {
          "internalType": "bytes1",
          "name": "scalarByte",
          "type": "bytes1"
        }
      ],
      "name": "fheAdd",
      "outputs": [
        {
          "internalType": "bytes32",
          "name": "result",
          "type": "bytes32"
        }
      ],
      "stateMutability": "nonpayable",
      "type": "function"
    },
    {
      "inputs": [
        {
          "internalType": "bytes32",
          "name": "lhs",
          "type": "bytes32"
        },
        {
          "internalType": "bytes32",
          "name": "rhs",
          "type": "bytes32"
        },
        {
          "internalType": "bytes1",
          "name": "scalarByte",
          "type": "bytes1"
        }
      ],
      "name": "fheBitAnd",
      "outputs": [
        {
          "internalType": "bytes32",
          "name": "result",
          "type": "bytes32"
        }
      ],
      "stateMutability": "nonpayable",
      "type": "function"
    },
    {
      "inputs": [
        {
          "internalType": "bytes32",
          "name": "lhs",
          "type": "bytes32"
        },
        {
          "internalType": "bytes32",
          "name": "rhs",
          "type": "bytes32"
        },
        {
          "internalType": "bytes1",
          "name": "scalarByte",
          "type": "bytes1"
        }
      ],
      "name": "fheBitOr",
      "outputs": [
        {
          "internalType": "bytes32",
          "name": "result",
          "type": "bytes32"
        }
      ],
      "stateMutability": "nonpayable",
      "type": "function"
    },
    {
      "inputs": [
        {
          "internalType": "bytes32",
          "name": "lhs",
          "type": "bytes32"
        },
        {
          "internalType": "bytes32",
          "name": "rhs",
          "type": "bytes32"
        },
        {
          "internalType": "bytes1",
          "name": "scalarByte",
          "type": "bytes1"
        }
      ],
      "name": "fheBitXor",
      "outputs": [
        {
          "internalType": "bytes32",
          "name": "result",
          "type": "bytes32"
        }
      ],
      "stateMutability": "nonpayable",
      "type": "function"
    },
    {
      "inputs": [
        {
          "internalType": "bytes32",
          "name": "lhs",
          "type": "bytes32"
        },
        {
          "internalType": "bytes32",
          "name": "rhs",
          "type": "bytes32"
        },
        {
          "internalType": "bytes1",
          "name": "scalarByte",
          "type": "bytes1"
        }
      ],
      "name": "fheDiv",
      "outputs": [
        {
          "internalType": "bytes32",
          "name": "result",
          "type": "bytes32"
        }
      ],
      "stateMutability": "nonpayable",
      "type": "function"
    },
    {
      "inputs": [
        {
          "internalType": "bytes32",
          "name": "lhs",
          "type": "bytes32"
        },
        {
          "internalType": "bytes",
          "name": "rhs",
          "type": "bytes"
        },
        {
          "internalType": "bytes1",
          "name": "scalarByte",
          "type": "bytes1"
        }
      ],
      "name": "fheEq",
      "outputs": [
        {
          "internalType": "bytes32",
          "name": "result",
          "type": "bytes32"
        }
      ],
      "stateMutability": "nonpayable",
      "type": "function"
    },
    {
      "inputs": [
        {
          "internalType": "bytes32",
          "name": "lhs",
          "type": "bytes32"
        },
        {
          "internalType": "bytes32",
          "name": "rhs",
          "type": "bytes32"
        },
        {
          "internalType": "bytes1",
          "name": "scalarByte",
          "type": "bytes1"
        }
      ],
      "name": "fheEq",
      "outputs": [
        {
          "internalType": "bytes32",
          "name": "result",
          "type": "bytes32"
        }
      ],
      "stateMutability": "nonpayable",
      "type": "function"
    },
    {
      "inputs": [
        {
          "internalType": "bytes32",
          "name": "lhs",
          "type": "bytes32"
        },
        {
          "internalType": "bytes32",
          "name": "rhs",
          "type": "bytes32"
        },
        {
          "internalType": "bytes1",
          "name": "scalarByte",
          "type": "bytes1"
        }
      ],
      "name": "fheGe",
      "outputs": [
        {
          "internalType": "bytes32",
          "name": "result",
          "type": "bytes32"
        }
      ],
      "stateMutability": "nonpayable",
      "type": "function"
    },
    {
      "inputs": [
        {
          "internalType": "bytes32",
          "name": "lhs",
          "type": "bytes32"
        },
        {
          "internalType": "bytes32",
          "name": "rhs",
          "type": "bytes32"
        },
        {
          "internalType": "bytes1",
          "name": "scalarByte",
          "type": "bytes1"
        }
      ],
      "name": "fheGt",
      "outputs": [
        {
          "internalType": "bytes32",
          "name": "result",
          "type": "bytes32"
        }
      ],
      "stateMutability": "nonpayable",
      "type": "function"
    },
    {
      "inputs": [
        {
          "internalType": "bytes32",
          "name": "control",
          "type": "bytes32"
        },
        {
          "internalType": "bytes32",
          "name": "ifTrue",
          "type": "bytes32"
        },
        {
          "internalType": "bytes32",
          "name": "ifFalse",
          "type": "bytes32"
        }
      ],
      "name": "fheIfThenElse",
      "outputs": [
        {
          "internalType": "bytes32",
          "name": "result",
          "type": "bytes32"
        }
      ],
      "stateMutability": "nonpayable",
      "type": "function"
    },
    {
      "inputs": [
        {
          "internalType": "bytes32",
          "name": "lhs",
          "type": "bytes32"
        },
        {
          "internalType": "bytes32",
          "name": "rhs",
          "type": "bytes32"
        },
        {
          "internalType": "bytes1",
          "name": "scalarByte",
          "type": "bytes1"
        }
      ],
      "name": "fheLe",
      "outputs": [
        {
          "internalType": "bytes32",
          "name": "result",
          "type": "bytes32"
        }
      ],
      "stateMutability": "nonpayable",
      "type": "function"
    },
    {
      "inputs": [
        {
          "internalType": "bytes32",
          "name": "lhs",
          "type": "bytes32"
        },
        {
          "internalType": "bytes32",
          "name": "rhs",
          "type": "bytes32"
        },
        {
          "internalType": "bytes1",
          "name": "scalarByte",
          "type": "bytes1"
        }
      ],
      "name": "fheLt",
      "outputs": [
        {
          "internalType": "bytes32",
          "name": "result",
          "type": "bytes32"
        }
      ],
      "stateMutability": "nonpayable",
      "type": "function"
    },
    {
      "inputs": [
        {
          "internalType": "bytes32",
          "name": "lhs",
          "type": "bytes32"
        },
        {
          "internalType": "bytes32",
          "name": "rhs",
          "type": "bytes32"
        },
        {
          "internalType": "bytes1",
          "name": "scalarByte",
          "type": "bytes1"
        }
      ],
      "name": "fheMax",
      "outputs": [
        {
          "internalType": "bytes32",
          "name": "result",
          "type": "bytes32"
        }
      ],
      "stateMutability": "nonpayable",
      "type": "function"
    },
    {
      "inputs": [
        {
          "internalType": "bytes32",
          "name": "lhs",
          "type": "bytes32"
        },
        {
          "internalType": "bytes32",
          "name": "rhs",
          "type": "bytes32"
        },
        {
          "internalType": "bytes1",
          "name": "scalarByte",
          "type": "bytes1"
        }
      ],
      "name": "fheMin",
      "outputs": [
        {
          "internalType": "bytes32",
          "name": "result",
          "type": "bytes32"
        }
      ],
      "stateMutability": "nonpayable",
      "type": "function"
    },
    {
      "inputs": [
        {
          "internalType": "bytes32",
          "name": "lhs",
          "type": "bytes32"
        },
        {
          "internalType": "bytes32",
          "name": "rhs",
          "type": "bytes32"
        },
        {
          "internalType": "bytes1",
          "name": "scalarByte",
          "type": "bytes1"
        }
      ],
      "name": "fheMul",
      "outputs": [
        {
          "internalType": "bytes32",
          "name": "result",
          "type": "bytes32"
        }
      ],
      "stateMutability": "nonpayable",
      "type": "function"
    },
    {
      "inputs": [
        {
          "internalType": "bytes32",
          "name": "lhs",
          "type": "bytes32"
        },
        {
          "internalType": "bytes",
          "name": "rhs",
          "type": "bytes"
        },
        {
          "internalType": "bytes1",
          "name": "scalarByte",
          "type": "bytes1"
        }
      ],
      "name": "fheNe",
      "outputs": [
        {
          "internalType": "bytes32",
          "name": "result",
          "type": "bytes32"
        }
      ],
      "stateMutability": "nonpayable",
      "type": "function"
    },
    {
      "inputs": [
        {
          "internalType": "bytes32",
          "name": "lhs",
          "type": "bytes32"
        },
        {
          "internalType": "bytes32",
          "name": "rhs",
          "type": "bytes32"
        },
        {
          "internalType": "bytes1",
          "name": "scalarByte",
          "type": "bytes1"
        }
      ],
      "name": "fheNe",
      "outputs": [
        {
          "internalType": "bytes32",
          "name": "result",
          "type": "bytes32"
        }
      ],
      "stateMutability": "nonpayable",
      "type": "function"
    },
    {
      "inputs": [
        {
          "internalType": "bytes32",
          "name": "ct",
          "type": "bytes32"
        }
      ],
      "name": "fheNeg",
      "outputs": [
        {
          "internalType": "bytes32",
          "name": "result",
          "type": "bytes32"
        }
      ],
      "stateMutability": "nonpayable",
      "type": "function"
    },
    {
      "inputs": [
        {
          "internalType": "bytes32",
          "name": "ct",
          "type": "bytes32"
        }
      ],
      "name": "fheNot",
      "outputs": [
        {
          "internalType": "bytes32",
          "name": "result",
          "type": "bytes32"
        }
      ],
      "stateMutability": "nonpayable",
      "type": "function"
    },
    {
      "inputs": [
        {
          "internalType": "enum FheType",
          "name": "randType",
          "type": "uint8"
        }
      ],
      "name": "fheRand",
      "outputs": [
        {
          "internalType": "bytes32",
          "name": "result",
          "type": "bytes32"
        }
      ],
      "stateMutability": "nonpayable",
      "type": "function"
    },
    {
      "inputs": [
        {
          "internalType": "uint256",
          "name": "upperBound",
          "type": "uint256"
        },
        {
          "internalType": "enum FheType",
          "name": "randType",
          "type": "uint8"
        }
      ],
      "name": "fheRandBounded",
      "outputs": [
        {
          "internalType": "bytes32",
          "name": "result",
          "type": "bytes32"
        }
      ],
      "stateMutability": "nonpayable",
      "type": "function"
    },
    {
      "inputs": [
        {
          "internalType": "bytes32",
          "name": "lhs",
          "type": "bytes32"
        },
        {
          "internalType": "bytes32",
          "name": "rhs",
          "type": "bytes32"
        },
        {
          "internalType": "bytes1",
          "name": "scalarByte",
          "type": "bytes1"
        }
      ],
      "name": "fheRem",
      "outputs": [
        {
          "internalType": "bytes32",
          "name": "result",
          "type": "bytes32"
        }
      ],
      "stateMutability": "nonpayable",
      "type": "function"
    },
    {
      "inputs": [
        {
          "internalType": "bytes32",
          "name": "lhs",
          "type": "bytes32"
        },
        {
          "internalType": "bytes32",
          "name": "rhs",
          "type": "bytes32"
        },
        {
          "internalType": "bytes1",
          "name": "scalarByte",
          "type": "bytes1"
        }
      ],
      "name": "fheRotl",
      "outputs": [
        {
          "internalType": "bytes32",
          "name": "result",
          "type": "bytes32"
        }
      ],
      "stateMutability": "nonpayable",
      "type": "function"
    },
    {
      "inputs": [
        {
          "internalType": "bytes32",
          "name": "lhs",
          "type": "bytes32"
        },
        {
          "internalType": "bytes32",
          "name": "rhs",
          "type": "bytes32"
        },
        {
          "internalType": "bytes1",
          "name": "scalarByte",
          "type": "bytes1"
        }
      ],
      "name": "fheRotr",
      "outputs": [
        {
          "internalType": "bytes32",
          "name": "result",
          "type": "bytes32"
        }
      ],
      "stateMutability": "nonpayable",
      "type": "function"
    },
    {
      "inputs": [
        {
          "internalType": "bytes32",
          "name": "lhs",
          "type": "bytes32"
        },
        {
          "internalType": "bytes32",
          "name": "rhs",
          "type": "bytes32"
        },
        {
          "internalType": "bytes1",
          "name": "scalarByte",
          "type": "bytes1"
        }
      ],
      "name": "fheShl",
      "outputs": [
        {
          "internalType": "bytes32",
          "name": "result",
          "type": "bytes32"
        }
      ],
      "stateMutability": "nonpayable",
      "type": "function"
    },
    {
      "inputs": [
        {
          "internalType": "bytes32",
          "name": "lhs",
          "type": "bytes32"
        },
        {
          "internalType": "bytes32",
          "name": "rhs",
          "type": "bytes32"
        },
        {
          "internalType": "bytes1",
          "name": "scalarByte",
          "type": "bytes1"
        }
      ],
      "name": "fheShr",
      "outputs": [
        {
          "internalType": "bytes32",
          "name": "result",
          "type": "bytes32"
        }
      ],
      "stateMutability": "nonpayable",
      "type": "function"
    },
    {
      "inputs": [
        {
          "internalType": "bytes32",
          "name": "lhs",
          "type": "bytes32"
        },
        {
          "internalType": "bytes32",
          "name": "rhs",
          "type": "bytes32"
        },
        {
          "internalType": "bytes1",
          "name": "scalarByte",
          "type": "bytes1"
        }
      ],
      "name": "fheSub",
      "outputs": [
        {
          "internalType": "bytes32",
          "name": "result",
          "type": "bytes32"
        }
      ],
      "stateMutability": "nonpayable",
      "type": "function"
    },
    {
      "inputs": [],
      "name": "getACLAddress",
      "outputs": [
        {
          "internalType": "address",
          "name": "",
          "type": "address"
        }
      ],
      "stateMutability": "view",
      "type": "function"
    },
    {
      "inputs": [],
      "name": "getFHEGasLimitAddress",
      "outputs": [
        {
          "internalType": "address",
          "name": "",
          "type": "address"
        }
      ],
      "stateMutability": "view",
      "type": "function"
    },
    {
      "inputs": [],
      "name": "getInputVerifierAddress",
      "outputs": [
        {
          "internalType": "address",
          "name": "",
          "type": "address"
        }
      ],
      "stateMutability": "view",
      "type": "function"
    },
    {
      "inputs": [],
      "name": "getVersion",
      "outputs": [
        {
          "internalType": "string",
          "name": "",
          "type": "string"
        }
      ],
      "stateMutability": "pure",
      "type": "function"
    },
    {
      "inputs": [],
      "name": "owner",
      "outputs": [
        {
          "internalType": "address",
          "name": "",
          "type": "address"
        }
      ],
      "stateMutability": "view",
      "type": "function"
    },
    {
      "inputs": [],
      "name": "pendingOwner",
      "outputs": [
        {
          "internalType": "address",
          "name": "",
          "type": "address"
        }
      ],
      "stateMutability": "view",
      "type": "function"
    },
    {
      "inputs": [],
      "name": "proxiableUUID",
      "outputs": [
        {
          "internalType": "bytes32",
          "name": "",
          "type": "bytes32"
        }
      ],
      "stateMutability": "view",
      "type": "function"
    },
    {
      "inputs": [],
      "name": "renounceOwnership",
      "outputs": [],
      "stateMutability": "nonpayable",
      "type": "function"
    },
    {
      "inputs": [
        {
          "internalType": "address",
          "name": "newOwner",
          "type": "address"
        }
      ],
      "name": "transferOwnership",
      "outputs": [],
      "stateMutability": "nonpayable",
      "type": "function"
    },
    {
      "inputs": [
        {
          "internalType": "bytes",
          "name": "pt",
          "type": "bytes"
        },
        {
          "internalType": "enum FheType",
          "name": "toType",
          "type": "uint8"
        }
      ],
      "name": "trivialEncrypt",
      "outputs": [
        {
          "internalType": "bytes32",
          "name": "result",
          "type": "bytes32"
        }
      ],
      "stateMutability": "nonpayable",
      "type": "function"
    },
    {
      "inputs": [
        {
          "internalType": "uint256",
          "name": "pt",
          "type": "uint256"
        },
        {
          "internalType": "enum FheType",
          "name": "toType",
          "type": "uint8"
        }
      ],
      "name": "trivialEncrypt",
      "outputs": [
        {
          "internalType": "bytes32",
          "name": "result",
          "type": "bytes32"
        }
      ],
      "stateMutability": "nonpayable",
      "type": "function"
    },
    {
      "inputs": [
        {
          "internalType": "address",
          "name": "newImplementation",
          "type": "address"
        },
        {
          "internalType": "bytes",
          "name": "data",
          "type": "bytes"
        }
      ],
      "name": "upgradeToAndCall",
      "outputs": [],
      "stateMutability": "payable",
      "type": "function"
    },
    {
      "inputs": [
        {
          "internalType": "bytes32",
          "name": "inputHandle",
          "type": "bytes32"
        },
        {
          "internalType": "address",
          "name": "userAddress",
          "type": "address"
        },
        {
          "internalType": "bytes",
          "name": "inputProof",
          "type": "bytes"
        },
        {
          "internalType": "enum FheType",
          "name": "inputType",
          "type": "uint8"
        }
      ],
      "name": "verifyCiphertext",
      "outputs": [
        {
          "internalType": "bytes32",
          "name": "result",
          "type": "bytes32"
        }
      ],
      "stateMutability": "nonpayable",
      "type": "function"
    }
  ],
  "bytecode": "0x60a06040523060805234801562000014575f80fd5b506200001f6200002f565b620000296200002f565b620000e3565b7ff0c57e16840df040f15088dc2f81fe391c3923bec73e23a9662efc9c229c6a00805468010000000000000000900460ff1615620000805760405163f92ee8a960e01b815260040160405180910390fd5b80546001600160401b0390811614620000e05780546001600160401b0319166001600160401b0390811782556040519081527fc7f505b2f371ae2175ee4913f4499e1f2633a7b5936321eed1cdaeb6115181d29060200160405180910390a15b50565b608051614ea16200010a5f395f81816122300152818161225901526123c30152614ea15ff3fe6080604052600436106102d7575f3560e01c80637702dcff1161017b578063ccc480a1116100d1578063d99882d511610087578063f51ccfb011610062578063f51ccfb0146107f0578063f6859bdc1461080f578063f77f3f1d14610835575f80fd5b8063d99882d51461079e578063e30c3978146107bd578063f2fde38b146107d1575f80fd5b8063d580c063116100b7578063d580c06314610741578063d75d6e8a14610760578063d8092cbc1461077f575f80fd5b8063ccc480a114610703578063cf4d18aa14610722575f80fd5b806391f98ffe11610131578063ad3cb1cc1161010c578063ad3cb1cc1461067d578063c021329e146106c5578063c7d34a6e146106e4575f80fd5b806391f98ffe146106195780639cd07acb14610638578063a8c7c2c114610657575f80fd5b806385362ee71161016157806385362ee7146105c75780638b49ceb4146105e65780638da5cb5b14610605575f80fd5b80637702dcff1461059457806379ba5097146105b3575f80fd5b806352d1902d1161023057806363a2db29116101e6578063715018a6116101c1578063715018a61461054257806372107681146105565780637513a40414610575575f80fd5b806363a2db29146104df5780636754b360146104fe5780636a8c8eb41461051d575f80fd5b80635a53accb116102165780635a53accb1461046e5780635c1f9d5a1461048d578063601303d1146104ac575f80fd5b806352d1902d1461043b57806357f0a5681461044f575f80fd5b8063196d0b9b1161029057806336318d641161026b57806336318d64146103e857806348eef47e146104075780634f1ef28614610426575f80fd5b8063196d0b9b1461038b57806319e1c5c4146103aa5780631c89ee44146103c9575f80fd5b8063117b2f38116102c0578063117b2f381461032e5780631391547f1461034d578063182b6d981461036c575f80fd5b806304559f71146102db5780630d8e6e2c1461030d575b5f80fd5b3480156102e6575f80fd5b506102fa6102f53660046145e1565b610854565b6040519081526020015b60405180910390f35b348015610318575f80fd5b506103216108c1565b6040516103049190614660565b348015610339575f80fd5b506102fa6103483660046145e1565b61093c565b348015610358575f80fd5b506102fa6103673660046145e1565b61099e565b348015610377575f80fd5b506102fa6103863660046145e1565b610a00565b348015610396575f80fd5b506102fa6103a5366004614733565b610a62565b3480156103b5575f80fd5b506102fa6103c4366004614797565b610ac2565b3480156103d4575f80fd5b506102fa6103e33660046147e2565b610b1a565b3480156103f3575f80fd5b506102fa6104023660046145e1565b610b64565b348015610412575f80fd5b506102fa6104213660046147e2565b610bc6565b610439610434366004614803565b610c2d565b005b348015610446575f80fd5b506102fa610c4c565b34801561045a575f80fd5b506102fa6104693660046145e1565b610c7a565b348015610479575f80fd5b506102fa6104883660046145e1565b610cdc565b348015610498575f80fd5b506102fa6104a736600461484e565b610d3e565b3480156104b7575f80fd5b505f80516020614e758339815191525b6040516001600160a01b039091168152602001610304565b3480156104ea575f80fd5b506102fa6104f93660046145e1565b610d8b565b348015610509575f80fd5b506102fa6105183660046145e1565b610ded565b348015610528575f80fd5b506105305f81565b60405160ff9091168152602001610304565b34801561054d575f80fd5b50610439610e4f565b348015610561575f80fd5b506102fa6105703660046145e1565b610e62565b348015610580575f80fd5b506102fa61058f3660046145e1565b610ec4565b34801561059f575f80fd5b506102fa6105ae366004614898565b610f26565b3480156105be575f80fd5b50610439610f7c565b3480156105d2575f80fd5b506102fa6105e13660046145e1565b610fc9565b3480156105f1575f80fd5b506102fa6106003660046145e1565b61102b565b348015610610575f80fd5b506104c761108d565b348015610624575f80fd5b506102fa6106333660046145e1565b6110c1565b348015610643575f80fd5b506102fa6106523660046147e2565b611123565b348015610662575f80fd5b50734862ca9360e9131afd04cd1217b94df15cc1aeec6104c7565b348015610688575f80fd5b506103216040518060400160405280600581526020017f352e302e3000000000000000000000000000000000000000000000000000000081525081565b3480156106d0575f80fd5b506102fa6106df3660046145e1565b61116d565b3480156106ef575f80fd5b506102fa6106fe36600461484e565b6111cf565b34801561070e575f80fd5b506102fa61071d3660046145e1565b61121c565b34801561072d575f80fd5b506102fa61073c3660046145e1565b61127e565b34801561074c575f80fd5b506102fa61075b3660046148c1565b6112e0565b34801561076b575f80fd5b506102fa61077a3660046148d8565b61132e565b34801561078a575f80fd5b506102fa6107993660046145e1565b611391565b3480156107a9575f80fd5b506102fa6107b83660046145e1565b6113f3565b3480156107c8575f80fd5b506104c7611455565b3480156107dc575f80fd5b506104396107eb3660046148f1565b61147d565b3480156107fb575f80fd5b506102fa61080a3660046148c1565b611502565b34801561081a575f80fd5b5073339ece85b9e11a3a3aa557582784a15d7f82aaf26104c7565b348015610840575f80fd5b506102fa61084f3660046145e1565b611547565b5f6108608484846115a9565b60408051868152602081018690526001600160f81b03198516918101919091526060810182905290915033907fc11d62b13c360a83082487064be1ec0878b2f0be4f012bf59f89e128063d47ff906080015b60405180910390a29392505050565b60606040518060400160405280600c81526020017f544648454578656375746f7200000000000000000000000000000000000000008152506109025f611674565b61090c6001611674565b6109155f611674565b604051602001610928949392919061490a565b604051602081830303815290604052905090565b5f610948848484611711565b60408051868152602081018690526001600160f81b03198516918101919091526060810182905290915033907fdb9050d65240431621d61d6f94b970e63f53a67a5766614ee6e5c5bbd41c8e2e906080016108b2565b5f6109aa8484846117d0565b60408051868152602081018690526001600160f81b03198516918101919091526060810182905290915033907f38c3a63c4230de5b741f494ffb54e3087104030279bc7bccee8ad9ad31712b21906080016108b2565b5f610a0c848484611890565b60408051868152602081018690526001600160f81b03198516918101919091526060810182905290915033907feb6d37bd271abe1395b21d6d78f3487d6584862872c29ffd3f90736ee99b7393906080016108b2565b5f610a6f85858585611950565b9050336001600160a01b03167f6755f7cde41daab1460146e746a77619c8a667b2daf9a8a89f2ddbb4ab6c9c5c8686868686604051610ab29594939291906149af565b60405180910390a2949350505050565b5f610acd8383611aaa565b9050336001600160a01b03167f73d63045efdd8765c74bf1a2fd222ee44346fdb6ab36cddde6ab76895ab37700848484604051610b0c939291906149f5565b60405180910390a292915050565b5f610b258383611c2b565b9050336001600160a01b03167f31ccae6a2f8e3ced1692f77c8f668133e4afdaaa35afe844ff4659a6c27e627f848484604051610b0c93929190614a24565b5f610b70848484611f08565b60408051868152602081018690526001600160f81b03198516918101919091526060810182905290915033907ffd7c9208f956bf0c6ab76a667f04361245ad3e0a2d0eff92eb827acfcca68ea9906080016108b2565b5f80610bd0611fc8565b9050610bdd84848361207c565b9150336001600160a01b03167f5222d96b836727a1d6fe1ee9aef27f9bb507bd41794defa376ff6c648aaf8ff185858486604051610c1e9493929190614a38565b60405180910390a25092915050565b610c35612225565b610c3e826122dc565b610c4882826122e4565b5050565b5f610c556123b8565b507f360894a13ba1a3210667c828492db98dca3e2076cc3735a920a3ca505d382bbc90565b5f610c86848484612401565b60408051868152602081018690526001600160f81b03198516918101919091526060810182905290915033907f215346a4f9f975e6d5484e290bd4e53ca14453a9d282ebd3ccedb2a0f171753d906080016108b2565b5f610ce88484846124c1565b60408051868152602081018690526001600160f81b03198516918101919091526060810182905290915033907f3bab2ee0e2f90f4690c6a87bf63cf1a6b626086e95f231860b152966e8dabbf7906080016108b2565b5f610d4a8484846125c8565b9050336001600160a01b03167f47e8e97859ad4b25674962a094a8f83066e2a6bd7dd962887ff29a903edb7ff6858585856040516108b29493929190614a71565b5f610d978484846127f2565b60408051868152602081018690526001600160f81b03198516918101919091526060810182905290915033907f56df279bbfb03d9ed097bbe2f28d520ca0c1161206327926e98664d70d2c24c4906080016108b2565b5f610df98484846128cb565b60408051868152602081018690526001600160f81b03198516918101919091526060810182905290915033907feb0e4f8dc74058194d0602425fe602f955c222200f7f10c6fe67992f7b24c7e9906080016108b2565b610e57612998565b610e605f6129ca565b565b5f610e6e848484612a02565b60408051868152602081018690526001600160f81b03198516918101919091526060810182905290915033907f0d483b100d8c73b208984ec697caa3091521ee5525ce69edcf97d7e395d3d059906080016108b2565b5f610ed0848484612ac2565b60408051868152602081018690526001600160f81b03198516918101919091526060810182905290915033907fdef2e704a077284a07f3d0b436db88f5d981b69f58ab7c1ae623252718a6de01906080016108b2565b5f610f32848484612b82565b60408051868152602081018690529081018490526060810182905290915033907f60be9d61aad849facc28c38b048cb5c4be3420b8fa2233e08cfa06be1b6d1c3e906080016108b2565b3380610f86611455565b6001600160a01b031614610fbd5760405163118cdaa760e01b81526001600160a01b03821660048201526024015b60405180910390fd5b610fc6816129ca565b50565b5f610fd5848484612c8d565b60408051868152602081018690526001600160f81b03198516918101919091526060810182905290915033907fc9ff8f0d18a3f766ce5de3de216076050140e4fc2652f5e0e745f6fc836cda8b906080016108b2565b5f611037848484612d4d565b60408051868152602081018690526001600160f81b03198516918101919091526060810182905290915033907f4d32284bd3193ecaa44e1ceca32f41c5d6c32803a92e07967dd3ee4229721582906080016108b2565b5f807f9016d09d72d40fdae2fd8ceac6b6234c7706214fd39c1cd1e609a0528c1993005b546001600160a01b031692915050565b5f6110cd848484612e26565b60408051868152602081018690526001600160f81b03198516918101919091526060810182905290915033907f324220bfc9cb158b492991c03c309cd86e5345cac45aacae2092ddabe31fa3d8906080016108b2565b5f61112e8383612ef3565b9050336001600160a01b03167f063ccd1bba45151d91f6a418065047a3d048d058a922535747bb2b575a01d236848484604051610b0c93929190614a24565b5f611179848484613011565b60408051868152602081018690526001600160f81b03198516918101919091526060810182905290915033907fc148675905d07ad5496f8ef4d8195c907503f3ec12fd10ed5f21240abc693634906080016108b2565b5f6111db8484846130de565b9050336001600160a01b03167fc52085bd4e8736b3a28c71fd809a34139bfa9f70ebaa5c740d66170c5e9058ce858585856040516108b29493929190614a71565b5f611228848484613273565b60408051868152602081018690526001600160f81b03198516918101919091526060810182905290915033907fe84282aaebcca698443e39a2a948a345d0d2ebc654af5cb657a2d7e8053bf6cb906080016108b2565b5f61128a848484613340565b60408051868152602081018690526001600160f81b03198516918101919091526060810182905290915033907f0e691cd0bf8c4e9308e4ced1bb9c964117dc5c5bb9b9ab5bdfebf2c9b13a897c906080016108b2565b5f6112ea82613447565b604080518481526020810183905291925033917f8c664d3c3ca583fc5803b8a91c49644bbd9550bfa87967c73ad1de83027768c091015b60405180910390a2919050565b5f80611338611fc8565b9050611344838261350f565b9150336001600160a01b03167f0c8aca6017003326051e19913ef02631f24b801125e1fa8a1d812e868319fda684838560405161138393929190614aa6565b60405180910390a250919050565b5f61139d848484613651565b60408051868152602081018690526001600160f81b03198516918101919091526060810182905290915033907f6960c1e88f61c352dba34d1bbf6753e302795264d5d8ae82f7983c7004651e5d906080016108b2565b5f6113ff84848461379d565b60408051868152602081018690526001600160f81b03198516918101919091526060810182905290915033907fe42486b0ccdbef81a2075c48c8e515c079aea73c8b82429997c72a2fe1bf4fef906080016108b2565b5f807f237e158222e3e6968b72b9db0d8043aacf074ad9f650f0d1606b4d82ee432c006110b1565b611485612998565b7f237e158222e3e6968b72b9db0d8043aacf074ad9f650f0d1606b4d82ee432c0080546001600160a01b0319166001600160a01b03831690811782556114c961108d565b6001600160a01b03167f38d16b8cac22d99fc7c124b9cd0de2d3fa1faef420bfe791d8c362d765e2270060405160405180910390a35050565b5f61150c82613876565b604080518481526020810183905291925033917f55aff4cc7a3d160c83f1f15b818011ede841a0b4597fb14dcd3603df3a11e5e09101611321565b5f611553848484613942565b60408051868152602081018690526001600160f81b03198516918101919091526060810182905290915033907fb3d5c664ec86575818e8d75ff25c5f867250df8954088549c41c848cd10e76cb906080016108b2565b5f806040602060106115bd60086004614aec565b6115c79190614aec565b6115d19190614aec565b6115db9190614aec565b90506115e78582613a8e565b5f6115f186613ad4565b60405163801ec40160e01b8152909150600160f81b8516905f80516020614e758339815191529063801ec4019061162e9085908590600401614aff565b5f604051808303815f87803b158015611645575f80fd5b505af1158015611657573d5f803e3d5ffd5b50505050611669601288888486613af0565b979650505050505050565b60605f61168083613d5f565b60010190505f8167ffffffffffffffff81111561169f5761169f614688565b6040519080825280601f01601f1916602001820160405280156116c9576020820181803683370190505b5090508181016020015b5f19017f3031323334353637383961626364656600000000000000000000000000000000600a86061a8153600a85049450846116d357509392505050565b5f8060406020601061172560086004614aec565b61172f9190614aec565b6117399190614aec565b6117439190614aec565b905061174f8582613a8e565b5f61175986613ad4565b604051639ec9108760e01b8152909150600160f81b8516905f80516020614e7583398151915290639ec91087906117969085908590600401614aff565b5f604051808303815f87803b1580156117ad575f80fd5b505af11580156117bf573d5f803e3d5ffd5b505050506116695f88888486613af0565b5f806040602060106117e460086004614aec565b6117ee9190614aec565b6117f89190614aec565b6118029190614aec565b905061180e8582613a8e565b5f61181886613ad4565b60405163f1ec4e3d60e01b8152909150600160f81b8516905f80516020614e758339815191529063f1ec4e3d906118559085908590600401614aff565b5f604051808303815f87803b15801561186c575f80fd5b505af115801561187e573d5f803e3d5ffd5b50505050611669600e8888845f613af0565b5f806040602060106118a460086004614aec565b6118ae9190614aec565b6118b89190614aec565b6118c29190614aec565b90506118ce8582613a8e565b5f6118d886613ad4565b604051630144371760e41b8152909150600160f81b8516905f80516020614e75833981519152906314437170906119159085908590600401614aff565b5f604051808303815f87803b15801561192c575f80fd5b505af115801561193e573d5f803e3d5ffd5b50505050611669600188888486613af0565b604080518082019091526001600160a01b03841681523360208201525f908161197887613ad4565b905080605381111561198c5761198c614987565b84605381111561199e5761199e614987565b146119bc5760405163b968846160e01b815260040160405180910390fd5b604051633a69c8c160e21b8152734862ca9360e9131afd04cd1217b94df15cc1aeec9063e9a72304906119f79085908b908a90600401614b20565b6020604051808303815f875af1158015611a13573d5f803e3d5ffd5b505050506040513d601f19601f82011682018060405250810190611a379190614b56565b604051630f8e573b60e21b81526004810182905233602482015290935073339ece85b9e11a3a3aa557582784a15d7f82aaf290633e395cec906044015f604051808303815f87803b158015611a8a575f80fd5b505af1158015611a9c573d5f803e3d5ffd5b505050505050949350505050565b5f80610800611abd610400610200614aec565b611ac79190614aec565b905080836053811115611adc57611adc614987565b60ff166001901b165f03611b035760405163636f233560e11b815260040160405180910390fd5b6040516328c6831160e21b81525f80516020614e758339815191529063a31a0c4490611b33908690600401614b6d565b5f604051808303815f87803b158015611b4a575f80fd5b505af1158015611b5c573d5f803e3d5ffd5b50505050611b6b845184613e40565b6018848473339ece85b9e11a3a3aa557582784a15d7f82aaf246604051602001611b99959493929190614ba2565b604051602081830303815290604052805190602001209150611bbb8284613efb565b604051630f8e573b60e21b81526004810182905233602482015290925073339ece85b9e11a3a3aa557582784a15d7f82aaf290633e395cec906044015f604051808303815f87803b158015611c0e575f80fd5b505af1158015611c20573d5f803e3d5ffd5b505050505092915050565b6040516382027b6d60e01b8152600481018390523360248201525f9073339ece85b9e11a3a3aa557582784a15d7f82aaf2906382027b6d90604401602060405180830381865afa158015611c81573d5f803e3d5ffd5b505050506040513d601f19601f82011682018060405250810190611ca59190614bfa565b611ccb57604051632778ce4b60e21b815260048101849052336024820152604401610fb4565b5f6101006040602060106008611ce360046001614aec565b611ced9190614aec565b611cf79190614aec565b611d019190614aec565b611d0b9190614aec565b611d159190614aec565b9050611d218482613a8e565b5f610100604060206010611d3760086004614aec565b611d419190614aec565b611d4b9190614aec565b611d559190614aec565b611d5f9190614aec565b905080846053811115611d7457611d74614987565b60ff166001901b165f03611d9b5760405163636f233560e11b815260040160405180910390fd5b5f611da586613ad4565b9050846053811115611db957611db9614987565b816053811115611dcb57611dcb614987565b03611de95760405163b968846160e01b815260040160405180910390fd5b604051630abfbaad60e31b81525f80516020614e75833981519152906355fdd56890611e19908490600401614b6d565b5f604051808303815f87803b158015611e30575f80fd5b505af1158015611e42573d5f803e3d5ffd5b505050506017868673339ece85b9e11a3a3aa557582784a15d7f82aaf246604051602001611e74959493929190614c19565b604051602081830303815290604052805190602001209350611e968486613efb565b604051630f8e573b60e21b81526004810182905233602482015290945073339ece85b9e11a3a3aa557582784a15d7f82aaf290633e395cec906044015f604051808303815f87803b158015611ee9575f80fd5b505af1158015611efb573d5f803e3d5ffd5b5050505050505092915050565b5f80604060206010611f1c60086004614aec565b611f269190614aec565b611f309190614aec565b611f3a9190614aec565b9050611f468582613a8e565b5f611f5086613ad4565b60405163fced972760e01b8152909150600160f81b8516905f80516020614e758339815191529063fced972790611f8d9085908590600401614aff565b5f604051808303815f87803b158015611fa4575f80fd5b505af1158015611fb6573d5f803e3d5ffd5b50505050611669601388888486613af0565b7fa436a06f0efce5ea38c956a21e24202a59b3b746d48a23fb52b4a5bc33fe3e0080545f919073339ece85b9e11a3a3aa557582784a15d7f82aaf24661200f600143614c5f565b60408051602081019590955260609390931b6bffffffffffffffffffffffff191692840192909252605483015240607482015242609482015260b40160408051601f1981840301815291905280516020909101208154909250815f61207383614c72565b91905055505090565b5f8061010060406020601061209360086004614aec565b61209d9190614aec565b6120a79190614aec565b6120b19190614aec565b6120bb9190614aec565b9050808460538111156120d0576120d0614987565b60ff166001901b165f036120f75760405163636f233560e11b815260040160405180910390fd5b61210085613f21565b61211d5760405163127473a160e11b815260040160405180910390fd5b604051633d5e922160e11b81525f80516020614e7583398151915290637abd24429061214d908790600401614b6d565b5f604051808303815f87803b158015612164575f80fd5b505af1158015612176573d5f803e3d5ffd5b50505050601b8585856040516020016121929493929190614c8a565b6040516020818303038152906040528051906020012091506121b48285613efb565b604051630f8e573b60e21b81526004810182905233602482015290925073339ece85b9e11a3a3aa557582784a15d7f82aaf290633e395cec906044015f604051808303815f87803b158015612207575f80fd5b505af1158015612219573d5f803e3d5ffd5b50505050509392505050565b306001600160a01b037f00000000000000000000000000000000000000000000000000000000000000001614806122be57507f00000000000000000000000000000000000000000000000000000000000000006001600160a01b03166122b27f360894a13ba1a3210667c828492db98dca3e2076cc3735a920a3ca505d382bbc546001600160a01b031690565b6001600160a01b031614155b15610e605760405163703e46dd60e11b815260040160405180910390fd5b610fc6612998565b816001600160a01b03166352d1902d6040518163ffffffff1660e01b8152600401602060405180830381865afa92505050801561233e575060408051601f3d908101601f1916820190925261233b91810190614b56565b60015b61236657604051634c9c8ce360e01b81526001600160a01b0383166004820152602401610fb4565b7f360894a13ba1a3210667c828492db98dca3e2076cc3735a920a3ca505d382bbc81146123a957604051632a87526960e21b815260048101829052602401610fb4565b6123b38383613f40565b505050565b306001600160a01b037f00000000000000000000000000000000000000000000000000000000000000001614610e605760405163703e46dd60e11b815260040160405180910390fd5b5f8060406020601061241560086004614aec565b61241f9190614aec565b6124299190614aec565b6124339190614aec565b905061243f8582613a8e565b5f61244986613ad4565b604051630bf4df3b60e11b8152909150600160f81b8516905f80516020614e75833981519152906317e9be76906124869085908590600401614aff565b5f604051808303815f87803b15801561249d575f80fd5b505af11580156124af573d5f803e3d5ffd5b50505050611669600288888486613af0565b5f600160f81b808316146124e857604051634f224e5360e01b815260040160405180910390fd5b5f839003612509576040516323d359a360e01b815260040160405180910390fd5b5f60406020601061251c60086004614aec565b6125269190614aec565b6125309190614aec565b61253a9190614aec565b90506125468582613a8e565b5f61255086613ad4565b60405163293d01a360e21b8152909150600160f81b8516905f80516020614e758339815191529063a4f4068c9061258d9085908590600401614aff565b5f604051808303815f87803b1580156125a4575f80fd5b505af11580156125b6573d5f803e3d5ffd5b50505050611669600388888486613af0565b5f806108006125db610400610200614aec565b6125e59190614aec565b90506125f18582613a8e565b5f6125fb86613ad4565b9050600160f81b808516908114612625576040516309bbc1b360e31b815260040160405180910390fd5b6040516308194a5360e41b81525f80516020614e7583398151915290638194a530906126579085908590600401614aff565b5f604051808303815f87803b15801561266e575f80fd5b505af1158015612680573d5f803e3d5ffd5b50506040516382027b6d60e01b8152600481018a905233602482015273339ece85b9e11a3a3aa557582784a15d7f82aaf292506382027b6d9150604401602060405180830381865afa1580156126d8573d5f803e3d5ffd5b505050506040513d601f19601f820116820180604052508101906126fc9190614bfa565b61272257604051632778ce4b60e21b815260048101889052336024820152604401610fb4565b61272d865183613e40565b600c87878373339ece85b9e11a3a3aa557582784a15d7f82aaf24660405160200161275d96959493929190614ccc565b60405160208183030381529060405280519060200120935061277f845f613efb565b604051630f8e573b60e21b81526004810182905233602482015290945073339ece85b9e11a3a3aa557582784a15d7f82aaf290633e395cec906044015f604051808303815f87803b1580156127d2575f80fd5b505af11580156127e4573d5f803e3d5ffd5b505050505050509392505050565b5f80610100604060206010600861280b60046001614aec565b6128159190614aec565b61281f9190614aec565b6128299190614aec565b6128339190614aec565b61283d9190614aec565b90506128498582613a8e565b5f61285386613ad4565b604051630585a0d560e11b8152909150600160f81b8516905f80516020614e7583398151915290630b0b41aa906128909085908590600401614aff565b5f604051808303815f87803b1580156128a7575f80fd5b505af11580156128b9573d5f803e3d5ffd5b50505050611669600688888486613af0565b5f806101006040602060106128e260086004614aec565b6128ec9190614aec565b6128f69190614aec565b6129009190614aec565b61290a9190614aec565b90506129168582613a8e565b5f61292086613ad4565b60405163d52059c160e01b8152909150600160f81b8516905f80516020614e758339815191529063d52059c19061295d9085908590600401614aff565b5f604051808303815f87803b158015612974575f80fd5b505af1158015612986573d5f803e3d5ffd5b50505050611669600a88888486613af0565b336129a161108d565b6001600160a01b031614610e605760405163118cdaa760e01b8152336004820152602401610fb4565b7f237e158222e3e6968b72b9db0d8043aacf074ad9f650f0d1606b4d82ee432c0080546001600160a01b0319168155610c4882613f95565b5f80604060206010612a1660086004614aec565b612a209190614aec565b612a2a9190614aec565b612a349190614aec565b9050612a408582613a8e565b5f612a4a86613ad4565b604051630b20432b60e21b8152909150600160f81b8516905f80516020614e7583398151915290632c810cac90612a879085908590600401614aff565b5f604051808303815f87803b158015612a9e575f80fd5b505af1158015612ab0573d5f803e3d5ffd5b5050505061166960118888845f613af0565b5f80604060206010612ad660086004614aec565b612ae09190614aec565b612aea9190614aec565b612af49190614aec565b9050612b008582613a8e565b5f612b0a86613ad4565b604051630b171ff760e01b8152909150600160f81b8516905f80516020614e7583398151915290630b171ff790612b479085908590600401614aff565b5f604051808303815f87803b158015612b5e575f80fd5b505af1158015612b70573d5f803e3d5ffd5b5050505061166960108888845f613af0565b5f8061080061040061020061010060806040602060106008612ba660046001614aec565b612bb09190614aec565b612bba9190614aec565b612bc49190614aec565b612bce9190614aec565b612bd89190614aec565b612be29190614aec565b612bec9190614aec565b612bf69190614aec565b612c009190614aec565b9050612c0c8482613a8e565b5f612c1685613ad4565b60405163e7b5afe360e01b81529091505f80516020614e758339815191529063e7b5afe390612c49908490600401614b6d565b5f604051808303815f87803b158015612c60575f80fd5b505af1158015612c72573d5f803e3d5ffd5b50505050612c836019878787614005565b9695505050505050565b5f80604060206010612ca160086004614aec565b612cab9190614aec565b612cb59190614aec565b612cbf9190614aec565b9050612ccb8582613a8e565b5f612cd586613ad4565b604051633941d74360e21b8152909150600160f81b8516905f80516020614e758339815191529063e5075d0c90612d129085908590600401614aff565b5f604051808303815f87803b158015612d29575f80fd5b505af1158015612d3b573d5f803e3d5ffd5b50505050611669600f8888845f613af0565b5f806101006040602060106008612d6660046001614aec565b612d709190614aec565b612d7a9190614aec565b612d849190614aec565b612d8e9190614aec565b612d989190614aec565b9050612da48582613a8e565b5f612dae86613ad4565b604051632f891e1b60e01b8152909150600160f81b8516905f80516020614e7583398151915290632f891e1b90612deb9085908590600401614aff565b5f604051808303815f87803b158015612e02575f80fd5b505af1158015612e14573d5f803e3d5ffd5b50505050611669600788888486613af0565b5f80610100604060206010612e3d60086004614aec565b612e479190614aec565b612e519190614aec565b612e5b9190614aec565b612e659190614aec565b9050612e718582613a8e565b5f612e7b86613ad4565b604051630ae767b360e01b8152909150600160f81b8516905f80516020614e7583398151915290630ae767b390612eb89085908590600401614aff565b5f604051808303815f87803b158015612ecf575f80fd5b505af1158015612ee1573d5f803e3d5ffd5b50505050611669600988888486613af0565b5f8061010060806040602060106008612f0e60046001614aec565b612f189190614aec565b612f229190614aec565b612f2c9190614aec565b612f369190614aec565b612f409190614aec565b612f4a9190614aec565b905080836053811115612f5f57612f5f614987565b60ff166001901b165f03612f865760405163636f233560e11b815260040160405180910390fd5b6040516328c6831160e21b81525f80516020614e758339815191529063a31a0c4490612fb6908690600401614b6d565b5f604051808303815f87803b158015612fcd575f80fd5b505af1158015612fdf573d5f803e3d5ffd5b505050506018848473339ece85b9e11a3a3aa557582784a15d7f82aaf246604051602001611b99959493929190614c19565b5f8061010060406020601061302860086004614aec565b6130329190614aec565b61303c9190614aec565b6130469190614aec565b6130509190614aec565b905061305c8582613a8e565b5f61306686613ad4565b604051636b053d1d60e11b8152909150600160f81b8516905f80516020614e758339815191529063d60a7a3a906130a39085908590600401614aff565b5f604051808303815f87803b1580156130ba575f80fd5b505af11580156130cc573d5f803e3d5ffd5b50505050611669600b88888486613af0565b5f806108006130f1610400610200614aec565b6130fb9190614aec565b90506131078582613a8e565b5f61311186613ad4565b9050600160f81b80851690811461313b576040516309bbc1b360e31b815260040160405180910390fd5b604051633b470ee160e01b81525f80516020614e7583398151915290633b470ee19061316d9085908590600401614aff565b5f604051808303815f87803b158015613184575f80fd5b505af1158015613196573d5f803e3d5ffd5b50506040516382027b6d60e01b8152600481018a905233602482015273339ece85b9e11a3a3aa557582784a15d7f82aaf292506382027b6d9150604401602060405180830381865afa1580156131ee573d5f803e3d5ffd5b505050506040513d601f19601f820116820180604052508101906132129190614bfa565b61323857604051632778ce4b60e21b815260048101889052336024820152604401610fb4565b613243865183613e40565b600d87878373339ece85b9e11a3a3aa557582784a15d7f82aaf24660405160200161275d96959493929190614ccc565b5f8061010060406020601061328a60086004614aec565b6132949190614aec565b61329e9190614aec565b6132a89190614aec565b6132b29190614aec565b90506132be8582613a8e565b5f6132c886613ad4565b60405163061b95e560e21b8152909150600160f81b8516905f80516020614e758339815191529063186e5794906133059085908590600401614aff565b5f604051808303815f87803b15801561331c575f80fd5b505af115801561332e573d5f803e3d5ffd5b50505050611669600888888486613af0565b5f600160f81b8083161461336757604051634f224e5360e01b815260040160405180910390fd5b5f839003613388576040516323d359a360e01b815260040160405180910390fd5b5f60406020601061339b60086004614aec565b6133a59190614aec565b6133af9190614aec565b6133b99190614aec565b90506133c58582613a8e565b5f6133cf86613ad4565b604051634bf5249160e11b8152909150600160f81b8516905f80516020614e75833981519152906397ea49229061340c9085908590600401614aff565b5f604051808303815f87803b158015613423575f80fd5b505af1158015613435573d5f803e3d5ffd5b50505050611669600488888486613af0565b5f8061010060406020601061345e60086004614aec565b6134689190614aec565b6134729190614aec565b61347c9190614aec565b6134869190614aec565b90506134928382613a8e565b5f61349c84613ad4565b6040516333becb3b60e01b81529091505f80516020614e75833981519152906333becb3b906134cf908490600401614b6d565b5f604051808303815f87803b1580156134e6575f80fd5b505af11580156134f8573d5f803e3d5ffd5b5050505061350760148561433d565b949350505050565b5f80610800610400610200610100604060206010600861353160046001614aec565b61353b9190614aec565b6135459190614aec565b61354f9190614aec565b6135599190614aec565b6135639190614aec565b61356d9190614aec565b6135779190614aec565b6135819190614aec565b90508084605381111561359657613596614987565b60ff166001901b165f036135bd5760405163636f233560e11b815260040160405180910390fd5b60405162d435d160e31b81525f80516020614e75833981519152906306a1ae88906135ec908790600401614b6d565b5f604051808303815f87803b158015613603575f80fd5b505af1158015613615573d5f803e3d5ffd5b50505050601a848460405160200161362f93929190614d34565b604051602081830303815290604052805190602001209150611bbb8285613efb565b5f806108006104006102006101006080604060206010600861367560046001614aec565b61367f9190614aec565b6136899190614aec565b6136939190614aec565b61369d9190614aec565b6136a79190614aec565b6136b19190614aec565b6136bb9190614aec565b6136c59190614aec565b6136cf9190614aec565b90506136db8582613a8e565b5f6136e586613ad4565b9050600160f81b80851690811480156137125750600882605381111561370d5761370d614987565b60ff16115b156137305760405163dac55bcd60e01b815260040160405180910390fd5b604051633b470ee160e01b81525f80516020614e7583398151915290633b470ee1906137629085908590600401614aff565b5f604051808303815f87803b158015613779575f80fd5b505af115801561378b573d5f803e3d5ffd5b50505050611669600d8888845f613af0565b5f8061010060406020601060086137b660046001614aec565b6137c09190614aec565b6137ca9190614aec565b6137d49190614aec565b6137de9190614aec565b6137e89190614aec565b90506137f48582613a8e565b5f6137fe86613ad4565b6040516330cd786560e11b8152909150600160f81b8516905f80516020614e758339815191529063619af0ca9061383b9085908590600401614aff565b5f604051808303815f87803b158015613852575f80fd5b505af1158015613864573d5f803e3d5ffd5b50505050611669600588888486613af0565b5f80610100604060206010600861388f60046001614aec565b6138999190614aec565b6138a39190614aec565b6138ad9190614aec565b6138b79190614aec565b6138c19190614aec565b90506138cd8382613a8e565b5f6138d784613ad4565b6040516322f1ff5160e11b81529091505f80516020614e75833981519152906345e3fea29061390a908490600401614b6d565b5f604051808303815f87803b158015613921575f80fd5b505af1158015613933573d5f803e3d5ffd5b5050505061350760158561433d565b5f806108006104006102006101006080604060206010600861396660046001614aec565b6139709190614aec565b61397a9190614aec565b6139849190614aec565b61398e9190614aec565b6139989190614aec565b6139a29190614aec565b6139ac9190614aec565b6139b69190614aec565b6139c09190614aec565b90506139cc8582613a8e565b5f6139d686613ad4565b9050600160f81b8085169081148015613a03575060088260538111156139fe576139fe614987565b60ff16115b15613a215760405163dac55bcd60e01b815260040160405180910390fd5b6040516308194a5360e41b81525f80516020614e7583398151915290638194a53090613a539085908590600401614aff565b5f604051808303815f87803b158015613a6a575f80fd5b505af1158015613a7c573d5f803e3d5ffd5b50505050611669600c8888845f613af0565b5f613a9883613ad4565b905081816053811115613aad57613aad614987565b60ff166001901b165f036123b35760405163636f233560e11b815260040160405180910390fd5b5f81601e1a6053811115613aea57613aea614987565b92915050565b6040516382027b6d60e01b8152600481018590523360248201525f9073339ece85b9e11a3a3aa557582784a15d7f82aaf2906382027b6d90604401602060405180830381865afa158015613b46573d5f803e3d5ffd5b505050506040513d601f19601f82011682018060405250810190613b6a9190614bfa565b613b9057604051632778ce4b60e21b815260048101869052336024820152604401610fb4565b6001600160f81b031983165f03613c9c576040516382027b6d60e01b81526004810185905233602482015273339ece85b9e11a3a3aa557582784a15d7f82aaf2906382027b6d90604401602060405180830381865afa158015613bf5573d5f803e3d5ffd5b505050506040513d601f19601f82011682018060405250810190613c199190614bfa565b613c3f57604051632778ce4b60e21b815260048101859052336024820152604401610fb4565b5f613c4985613ad4565b90505f613c5587613ad4565b9050816053811115613c6957613c69614987565b816053811115613c7b57613c7b614987565b14613c9957604051631f3158c760e01b815260040160405180910390fd5b50505b8585858573339ece85b9e11a3a3aa557582784a15d7f82aaf246604051602001613ccb96959493929190614d6f565b604051602081830303815290604052805190602001209050613ced8183613efb565b604051630f8e573b60e21b81526004810182905233602482015290915073339ece85b9e11a3a3aa557582784a15d7f82aaf290633e395cec906044015f604051808303815f87803b158015613d40575f80fd5b505af1158015613d52573d5f803e3d5ffd5b5050505095945050505050565b5f807a184f03e93ff9f4daa797ed6e38ed64bf6a1f0100000000000000008310613da7577a184f03e93ff9f4daa797ed6e38ed64bf6a1f010000000000000000830492506040015b6d04ee2d6d415b85acef81000000008310613dd3576d04ee2d6d415b85acef8100000000830492506020015b662386f26fc100008310613df157662386f26fc10000830492506010015b6305f5e1008310613e09576305f5e100830492506008015b6127108310613e1d57612710830492506004015b60648310613e2f576064830492506002015b600a8310613aea5760010192915050565b6009816053811115613e5457613e54614987565b03613e7e5781604014610c4857808260405163b30c0c5760e01b8152600401610fb4929190614dbf565b600a816053811115613e9257613e92614987565b03613ebc5781608014610c4857808260405163b30c0c5760e01b8152600401610fb4929190614dbf565b600b816053811115613ed057613ed0614987565b03610c48578161010014610c4857808260405163b30c0c5760e01b8152600401610fb4929190614dbf565b61ffff1982166008826053811115613f1557613f15614987565b60ff16901b1792915050565b5f8082118015613aea5750613f37600183614c5f565b82161592915050565b613f4982614436565b6040516001600160a01b038316907fbc7cd75a20ee27fd9adebab32041f755214dbc6bffa90cc0225b39da2e5c2d3b905f90a2805115613f8d576123b382826144ac565b610c4861451e565b7f9016d09d72d40fdae2fd8ceac6b6234c7706214fd39c1cd1e609a0528c19930080546001600160a01b031981166001600160a01b03848116918217845560405192169182907f8be0079c531659141344cd1fd0a4f28419497f9722a3daafe3b4186f6b6457e0905f90a3505050565b6040516382027b6d60e01b8152600481018490523360248201525f9073339ece85b9e11a3a3aa557582784a15d7f82aaf2906382027b6d90604401602060405180830381865afa15801561405b573d5f803e3d5ffd5b505050506040513d601f19601f8201168201806040525081019061407f9190614bfa565b6140a557604051632778ce4b60e21b815260048101859052336024820152604401610fb4565b6040516382027b6d60e01b81526004810184905233602482015273339ece85b9e11a3a3aa557582784a15d7f82aaf2906382027b6d90604401602060405180830381865afa1580156140f9573d5f803e3d5ffd5b505050506040513d601f19601f8201168201806040525081019061411d9190614bfa565b61414357604051632778ce4b60e21b815260048101849052336024820152604401610fb4565b6040516382027b6d60e01b81526004810183905233602482015273339ece85b9e11a3a3aa557582784a15d7f82aaf2906382027b6d90604401602060405180830381865afa158015614197573d5f803e3d5ffd5b505050506040513d601f19601f820116820180604052508101906141bb9190614bfa565b6141e157604051632778ce4b60e21b815260048101839052336024820152604401610fb4565b5f6141eb85613ad4565b90505f6141f785613ad4565b90505f61420385613ad4565b90505f83605381111561421857614218614987565b146142365760405163636f233560e11b815260040160405180910390fd5b80605381111561424857614248614987565b82605381111561425a5761425a614987565b1461427857604051631f3158c760e01b815260040160405180910390fd5b8787878773339ece85b9e11a3a3aa557582784a15d7f82aaf2466040516020016142a796959493929190614dda565b6040516020818303038152906040528051906020012093506142c98483613efb565b604051630f8e573b60e21b81526004810182905233602482015290945073339ece85b9e11a3a3aa557582784a15d7f82aaf290633e395cec906044015f604051808303815f87803b15801561431c575f80fd5b505af115801561432e573d5f803e3d5ffd5b50505050505050949350505050565b6040516382027b6d60e01b8152600481018290523360248201525f9073339ece85b9e11a3a3aa557582784a15d7f82aaf2906382027b6d90604401602060405180830381865afa158015614393573d5f803e3d5ffd5b505050506040513d601f19601f820116820180604052508101906143b79190614bfa565b6143dd57604051632778ce4b60e21b815260048101839052336024820152604401610fb4565b828273339ece85b9e11a3a3aa557582784a15d7f82aaf2466040516020016144089493929190614e20565b6040516020818303038152906040528051906020012090505f61442a83613ad4565b9050611bbb8282613efb565b806001600160a01b03163b5f0361446b57604051634c9c8ce360e01b81526001600160a01b0382166004820152602401610fb4565b7f360894a13ba1a3210667c828492db98dca3e2076cc3735a920a3ca505d382bbc80546001600160a01b0319166001600160a01b0392909216919091179055565b60605f80846001600160a01b0316846040516144c89190614e59565b5f60405180830381855af49150503d805f8114614500576040519150601f19603f3d011682016040523d82523d5f602084013e614505565b606091505b509150915061451585838361453d565b95945050505050565b3415610e605760405163b398979f60e01b815260040160405180910390fd5b6060826145525761454d8261459c565b614595565b815115801561456957506001600160a01b0384163b155b1561459257604051639996b31560e01b81526001600160a01b0385166004820152602401610fb4565b50805b9392505050565b8051156145ac5780518082602001fd5b60405163d6bda27560e01b815260040160405180910390fd5b80356001600160f81b0319811681146145dc575f80fd5b919050565b5f805f606084860312156145f3575f80fd5b833592506020840135915061460a604085016145c5565b90509250925092565b5f5b8381101561462d578181015183820152602001614615565b50505f910152565b5f815180845261464c816020860160208601614613565b601f01601f19169290920160200192915050565b602081525f6145956020830184614635565b80356001600160a01b03811681146145dc575f80fd5b634e487b7160e01b5f52604160045260245ffd5b5f82601f8301126146ab575f80fd5b813567ffffffffffffffff808211156146c6576146c6614688565b604051601f8301601f19908116603f011681019082821181831017156146ee576146ee614688565b81604052838152866020858801011115614706575f80fd5b836020870160208301375f602085830101528094505050505092915050565b8035605481106145dc575f80fd5b5f805f8060808587031215614746575f80fd5b8435935061475660208601614672565b9250604085013567ffffffffffffffff811115614771575f80fd5b61477d8782880161469c565b92505061478c60608601614725565b905092959194509250565b5f80604083850312156147a8575f80fd5b823567ffffffffffffffff8111156147be575f80fd5b6147ca8582860161469c565b9250506147d960208401614725565b90509250929050565b5f80604083850312156147f3575f80fd5b823591506147d960208401614725565b5f8060408385031215614814575f80fd5b61481d83614672565b9150602083013567ffffffffffffffff811115614838575f80fd5b6148448582860161469c565b9150509250929050565b5f805f60608486031215614860575f80fd5b83359250602084013567ffffffffffffffff81111561487d575f80fd5b6148898682870161469c565b92505061460a604085016145c5565b5f805f606084860312156148aa575f80fd5b505081359360208301359350604090920135919050565b5f602082840312156148d1575f80fd5b5035919050565b5f602082840312156148e8575f80fd5b61459582614725565b5f60208284031215614901575f80fd5b61459582614672565b5f855161491b818460208a01614613565b61103b60f11b908301908152855161493a816002840160208a01614613565b808201915050601760f91b806002830152855161495e816003850160208a01614613565b60039201918201528351614979816004840160208801614613565b016004019695505050505050565b634e487b7160e01b5f52602160045260245ffd5b605481106149ab576149ab614987565b9052565b8581526001600160a01b038516602082015260a060408201525f6149d660a0830186614635565b90506149e5606083018561499b565b8260808301529695505050505050565b606081525f614a076060830186614635565b9050614a16602083018561499b565b826040830152949350505050565b83815260608101614a16602083018561499b565b84815260808101614a4c602083018661499b565b6fffffffffffffffffffffffffffffffff199390931660408201526060015292915050565b848152608060208201525f614a896080830186614635565b6001600160f81b0319949094166040830152506060015292915050565b60608101614ab4828661499b565b6fffffffffffffffffffffffffffffffff1993909316602082015260400152919050565b634e487b7160e01b5f52601160045260245ffd5b80820180821115613aea57613aea614ad8565b60408101614b0d828561499b565b60ff60f81b831660208301529392505050565b5f6001600160a01b0380865116835280602087015116602084015250836040830152608060608301526145156080830184614635565b5f60208284031215614b66575f80fd5b5051919050565b60208101613aea828461499b565b601c8110614b8b57614b8b614987565b60f81b9052565b60548110614b8b57614b8b614987565b614bac8187614b7b565b5f8551614bc0816001850160208a01614613565b8201614bcf6001820187614b92565b60609490941b6bffffffffffffffffffffffff19166002850152505060168201526036019392505050565b5f60208284031215614c0a575f80fd5b81518015158114614595575f80fd5b614c238187614b7b565b846001820152614c366021820185614b92565b60609290921b6bffffffffffffffffffffffff1916602283015260368201526056019392505050565b81810381811115613aea57613aea614ad8565b5f60018201614c8357614c83614ad8565b5060010190565b614c948186614b7b565b836001820152614ca76021820184614b92565b6fffffffffffffffffffffffffffffffff199190911660228201526032019392505050565b614cd68188614b7b565b8560018201525f8551614cf0816021850160208a01614613565b6001600160f81b0319959095166021929095019182019490945260609290921b6bffffffffffffffffffffffff191660228301526036820152605601949350505050565b614d3e8185614b7b565b614d4b6001820184614b92565b6fffffffffffffffffffffffffffffffff1991909116600282015260120192915050565b614d798188614b7b565b600181019590955260218501939093526001600160f81b031991909116604184015260601b6bffffffffffffffffffffffff191660428301526056820152607601919050565b60408101614dcd828561499b565b8260208301529392505050565b614de48188614b7b565b60018101959095526021850193909352604184019190915260601b6bffffffffffffffffffffffff191660618301526075820152609501919050565b614e2a8186614b7b565b600181019390935260609190911b6bffffffffffffffffffffffff191660218301526035820152605501919050565b5f8251614e6a818460208701614613565b919091019291505056fe000000000000000000000000208de73316e44722e16f6ddff40881a3e4f86104a164736f6c6343000818000a",
  "linkReferences": {},
  "deployedLinkReferences": {}
}