{
  "_format": "hh-sol-artifact-1",
  "contractName": "ACL",
  "sourceName": "contracts/ACL.sol",
  "abi": [
    {
      "inputs": [],
      "stateMutability": "nonpayable",
      "type": "constructor"
    },
    {
      "inputs": [
        {
          "internalType": "address",
          "name": "target",
          "type": "address"
        }
      ],
      "name": "AddressEmptyCode",
      "type": "error"
    },
    {
      "inputs": [
        {
          "internalType": "address",
          "name": "delegatee",
          "type": "address"
        },
        {
          "internalType": "address",
          "name": "contractAddress",
          "type": "address"
        }
      ],
      "name": "AlreadyDelegated",
      "type": "error"
    },
    {
      "inputs": [],
      "name": "ContractAddressesIsEmpty",
      "type": "error"
    },
    {
      "inputs": [],
      "name": "ContractAddressesMaxLengthExceeded",
      "type": "error"
    },
    {
      "inputs": [
        {
          "internalType": "address",
          "name": "implementation",
          "type": "address"
        }
      ],
      "name": "ERC1967InvalidImplementation",
      "type": "error"
    },
    {
      "inputs": [],
      "name": "ERC1967NonPayable",
      "type": "error"
    },
    {
      "inputs": [],
      "name": "FailedCall",
      "type": "error"
    },
    {
      "inputs": [],
      "name": "HandlesListIsEmpty",
      "type": "error"
    },
    {
      "inputs": [],
      "name": "InvalidInitialization",
      "type": "error"
    },
    {
      "inputs": [
        {
          "internalType": "address",
          "name": "delegatee",
          "type": "address"
        },
        {
          "internalType": "address",
          "name": "contractAddress",
          "type": "address"
        }
      ],
      "name": "NotDelegatedYet",
      "type": "error"
    },
    {
      "inputs": [],
      "name": "NotInitializing",
      "type": "error"
    },
    {
      "inputs": [
        {
          "internalType": "address",
          "name": "owner",
          "type": "address"
        }
      ],
      "name": "OwnableInvalidOwner",
      "type": "error"
    },
    {
      "inputs": [
        {
          "internalType": "address",
          "name": "account",
          "type": "address"
        }
      ],
      "name": "OwnableUnauthorizedAccount",
      "type": "error"
    },
    {
      "inputs": [
        {
          "internalType": "address",
          "name": "contractAddress",
          "type": "address"
        }
      ],
      "name": "SenderCannotBeContractAddress",
      "type": "error"
    },
    {
      "inputs": [
        {
          "internalType": "address",
          "name": "sender",
          "type": "address"
        }
      ],
      "name": "SenderNotAllowed",
      "type": "error"
    },
    {
      "inputs": [],
      "name": "UUPSUnauthorizedCallContext",
      "type": "error"
    },
    {
      "inputs": [
        {
          "internalType": "bytes32",
          "name": "slot",
          "type": "bytes32"
        }
      ],
      "name": "UUPSUnsupportedProxiableUUID",
      "type": "error"
    },
    {
      "anonymous": false,
      "inputs": [
        {
          "indexed": true,
          "internalType": "address",
          "name": "caller",
          "type": "address"
        },
        {
          "indexed": true,
          "internalType": "address",
          "name": "account",
          "type": "address"
        },
        {
          "indexed": false,
          "internalType": "bytes32",
          "name": "handle",
          "type": "bytes32"
        }
      ],
      "name": "Allowed",
      "type": "event"
    },
    {
      "anonymous": false,
      "inputs": [
        {
          "indexed": true,
          "internalType": "address",
          "name": "caller",
          "type": "address"
        },
        {
          "indexed": false,
          "internalType": "bytes32[]",
          "name": "handlesList",
          "type": "bytes32[]"
        }
      ],
      "name": "AllowedForDecryption",
      "type": "event"
    },
    {
      "anonymous": false,
      "inputs": [
        {
          "indexed": false,
          "internalType": "uint64",
          "name": "version",
          "type": "uint64"
        }
      ],
      "name": "Initialized",
      "type": "event"
    },
    {
      "anonymous": false,
      "inputs": [
        {
          "indexed": true,
          "internalType": "address",
          "name": "caller",
          "type": "address"
        },
        {
          "indexed": true,
          "internalType": "address",
          "name": "delegatee",
          "type": "address"
        },
        {
          "indexed": false,
          "internalType": "address[]",
          "name": "contractAddresses",
          "type": "address[]"
        }
      ],
      "name": "NewDelegation",
      "type": "event"
    },
    {
      "anonymous": false,
      "inputs": [
        {
          "indexed": true,
          "internalType": "address",
          "name": "previousOwner",
          "type": "address"
        },
        {
          "indexed": true,
          "internalType": "address",
          "name": "newOwner",
          "type": "address"
        }
      ],
      "name": "OwnershipTransferStarted",
      "type": "event"
    },
    {
      "anonymous": false,
      "inputs": [
        {
          "indexed": true,
          "internalType": "address",
          "name": "previousOwner",
          "type": "address"
        },
        {
          "indexed": true,
          "internalType": "address",
          "name": "newOwner",
          "type": "address"
        }
      ],
      "name": "OwnershipTransferred",
      "type": "event"
    },
    {
      "anonymous": false,
      "inputs": [
        {
          "indexed": true,
          "internalType": "address",
          "name": "caller",
          "type": "address"
        },
        {
          "indexed": true,
          "internalType": "address",
          "name": "delegatee",
          "type": "address"
        },
        {
          "indexed": false,
          "internalType": "address[]",
          "name": "contractAddresses",
          "type": "address[]"
        }
      ],
      "name": "RevokedDelegation",
      "type": "event"
    },
    {
      "anonymous": false,
      "inputs": [
        {
          "indexed": true,
          "internalType": "address",
          "name": "implementation",
          "type": "address"
        }
      ],
      "name": "Upgraded",
      "type": "event"
    },
    {
      "inputs": [],
      "name": "UPGRADE_INTERFACE_VERSION",
      "outputs": [
        {
          "internalType": "string",
          "name": "",
          "type": "string"
        }
      ],
      "stateMutability": "view",
      "type": "function"
    },
    {
      "inputs": [],
      "name": "acceptOwnership",
      "outputs": [],
      "stateMutability": "nonpayable",
      "type": "function"
    },
    {
      "inputs": [
        {
          "internalType": "bytes32",
          "name": "handle",
          "type": "bytes32"
        },
        {
          "internalType": "address",
          "name": "account",
          "type": "address"
        }
      ],
      "name": "allow",
      "outputs": [],
      "stateMutability": "nonpayable",
      "type": "function"
    },
    {
      "inputs": [
        {
          "internalType": "bytes32[]",
          "name": "handlesList",
          "type": "bytes32[]"
        }
      ],
      "name": "allowForDecryption",
      "outputs": [],
      "stateMutability": "nonpayable",
      "type": "function"
    },
    {
      "inputs": [
        {
          "internalType": "bytes32",
          "name": "handle",
          "type": "bytes32"
        },
        {
          "internalType": "address",
          "name": "account",
          "type": "address"
        }
      ],
      "name": "allowTransient",
      "outputs": [],
      "stateMutability": "nonpayable",
      "type": "function"
    },
    {
      "inputs": [
        {
          "internalType": "address",
          "name": "delegatee",
          "type": "address"
        },
        {
          "internalType": "bytes32",
          "name": "handle",
          "type": "bytes32"
        },
        {
          "internalType": "address",
          "name": "contractAddress",
          "type": "address"
        },
        {
          "internalType": "address",
          "name": "account",
          "type": "address"
        }
      ],
      "name": "allowedOnBehalf",
      "outputs": [
        {
          "internalType": "bool",
          "name": "",
          "type": "bool"
        }
      ],
      "stateMutability": "view",
      "type": "function"
    },
    {
      "inputs": [
        {
          "internalType": "bytes32",
          "name": "handle",
          "type": "bytes32"
        },
        {
          "internalType": "address",
          "name": "account",
          "type": "address"
        }
      ],
      "name": "allowedTransient",
      "outputs": [
        {
          "internalType": "bool",
          "name": "",
          "type": "bool"
        }
      ],
      "stateMutability": "view",
      "type": "function"
    },
    {
      "inputs": [],
      "name": "cleanTransientStorage",
      "outputs": [],
      "stateMutability": "nonpayable",
      "type": "function"
    },
    {
      "inputs": [
        {
          "internalType": "address",
          "name": "delegatee",
          "type": "address"
        },
        {
          "internalType": "address[]",
          "name": "contractAddresses",
          "type": "address[]"
        }
      ],
      "name": "delegateAccount",
      "outputs": [],
      "stateMutability": "nonpayable",
      "type": "function"
    },
    {
      "inputs": [],
      "name": "getHTTPZExecutorAddress",
      "outputs": [
        {
          "internalType": "address",
          "name": "",
          "type": "address"
        }
      ],
      "stateMutability": "view",
      "type": "function"
    },
    {
      "inputs": [],
      "name": "getVersion",
      "outputs": [
        {
          "internalType": "string",
          "name": "",
          "type": "string"
        }
      ],
      "stateMutability": "pure",
      "type": "function"
    },
    {
      "inputs": [
        {
          "internalType": "bytes32",
          "name": "handle",
          "type": "bytes32"
        },
        {
          "internalType": "address",
          "name": "account",
          "type": "address"
        }
      ],
      "name": "isAllowed",
      "outputs": [
        {
          "internalType": "bool",
          "name": "",
          "type": "bool"
        }
      ],
      "stateMutability": "view",
      "type": "function"
    },
    {
      "inputs": [
        {
          "internalType": "bytes32",
          "name": "handle",
          "type": "bytes32"
        }
      ],
      "name": "isAllowedForDecryption",
      "outputs": [
        {
          "internalType": "bool",
          "name": "",
          "type": "bool"
        }
      ],
      "stateMutability": "view",
      "type": "function"
    },
    {
      "inputs": [],
      "name": "owner",
      "outputs": [
        {
          "internalType": "address",
          "name": "",
          "type": "address"
        }
      ],
      "stateMutability": "view",
      "type": "function"
    },
    {
      "inputs": [],
      "name": "pendingOwner",
      "outputs": [
        {
          "internalType": "address",
          "name": "",
          "type": "address"
        }
      ],
      "stateMutability": "view",
      "type": "function"
    },
    {
      "inputs": [
        {
          "internalType": "bytes32",
          "name": "handle",
          "type": "bytes32"
        },
        {
          "internalType": "address",
          "name": "account",
          "type": "address"
        }
      ],
      "name": "persistAllowed",
      "outputs": [
        {
          "internalType": "bool",
          "name": "",
          "type": "bool"
        }
      ],
      "stateMutability": "view",
      "type": "function"
    },
    {
      "inputs": [],
      "name": "proxiableUUID",
      "outputs": [
        {
          "internalType": "bytes32",
          "name": "",
          "type": "bytes32"
        }
      ],
      "stateMutability": "view",
      "type": "function"
    },
    {
      "inputs": [],
      "name": "renounceOwnership",
      "outputs": [],
      "stateMutability": "nonpayable",
      "type": "function"
    },
    {
      "inputs": [
        {
          "internalType": "address",
          "name": "delegatee",
          "type": "address"
        },
        {
          "internalType": "address[]",
          "name": "contractAddresses",
          "type": "address[]"
        }
      ],
      "name": "revokeDelegation",
      "outputs": [],
      "stateMutability": "nonpayable",
      "type": "function"
    },
    {
      "inputs": [
        {
          "internalType": "address",
          "name": "newOwner",
          "type": "address"
        }
      ],
      "name": "transferOwnership",
      "outputs": [],
      "stateMutability": "nonpayable",
      "type": "function"
    },
    {
      "inputs": [
        {
          "internalType": "address",
          "name": "newImplementation",
          "type": "address"
        },
        {
          "internalType": "bytes",
          "name": "data",
          "type": "bytes"
        }
      ],
      "name": "upgradeToAndCall",
      "outputs": [],
      "stateMutability": "payable",
      "type": "function"
    }
  ],
  "bytecode": "0x60a060405230608052348015610013575f80fd5b5061001c610021565b6100d3565b7ff0c57e16840df040f15088dc2f81fe391c3923bec73e23a9662efc9c229c6a00805468010000000000000000900460ff16156100715760405163f92ee8a960e01b815260040160405180910390fd5b80546001600160401b03908116146100d05780546001600160401b0319166001600160401b0390811782556040519081527fc7f505b2f371ae2175ee4913f4499e1f2633a7b5936321eed1cdaeb6115181d29060200160405180910390a15b50565b60805161191c6100f95f395f8181610f0e01528181610f37015261109c015261191c5ff3fe608060405260043610610162575f3560e01c806379ba5097116100c6578063b9819d911161007c578063f2fde38b11610057578063f2fde38b1461042b578063f72164de1461044a578063fadd224614610469575f80fd5b8063b9819d91146103a4578063c0d02943146103ca578063e30c397814610417575f80fd5b80638da5cb5b116100ac5780638da5cb5b14610311578063ad3cb1cc1461033d578063b9496b6214610385575f80fd5b806379ba5097146102de57806382027b6d146102f2575f80fd5b80634f1ef2861161011b578063531efc9211610101578063531efc921461028c578063715018a6146102ab57806374b79a5a146102bf575f80fd5b80634f1ef2861461025757806352d1902d1461026a575f80fd5b80631e2f86ba1161014b5780631e2f86ba146101b157806335334c23146102245780633e395cec14610238575f80fd5b8063088563e8146101665780630d8e6e2c14610187575b5f80fd5b348015610171575f80fd5b506101856101803660046114fa565b610488565b005b348015610192575f80fd5b5061019b610655565b6040516101a891906115c7565b60405180910390f35b3480156101bc575f80fd5b506102146101cb3660046115f9565b5f9182527fcaeeb749b0b652d94927794ec4f309146afb8975e723911d557314d9d3b87200602090815260408084206001600160a01b0393909316845291905290205460ff1690565b60405190151581526020016101a8565b34801561022f575f80fd5b506101856106b6565b348015610243575f80fd5b506101856102523660046115f9565b6106e0565b610185610265366004611623565b610780565b348015610275575f80fd5b5061027e61079f565b6040519081526020016101a8565b348015610297575f80fd5b506101856102a63660046114fa565b6107cd565b3480156102b6575f80fd5b50610185610a1c565b3480156102ca575f80fd5b506102146102d93660046115f9565b610a2f565b3480156102e9575f80fd5b50610185610a82565b3480156102fd575f80fd5b5061021461030c3660046115f9565b610aca565b34801561031c575f80fd5b50610325610b27565b6040516001600160a01b0390911681526020016101a8565b348015610348575f80fd5b5061019b6040518060400160405280600581526020017f352e302e3000000000000000000000000000000000000000000000000000000081525081565b348015610390575f80fd5b5061018561039f3660046115f9565b610b5b565b3480156103af575f80fd5b5073cd3ab3bd6bcc0c0bf3e27912a92043e817b1cf69610325565b3480156103d5575f80fd5b506102146103e43660046116c3565b5f9081527fcaeeb749b0b652d94927794ec4f309146afb8975e723911d557314d9d3b87201602052604090205460ff1690565b348015610422575f80fd5b50610325610c08565b348015610436575f80fd5b506101856104453660046116da565b610c30565b348015610455575f80fd5b506102146104643660046116f3565b610cb5565b348015610474575f80fd5b5061018561048336600461173d565b610d6a565b80515f8190036104ab576040516317d7ad0760e21b815260040160405180910390fd5b7fcaeeb749b0b652d94927794ec4f309146afb8975e723911d557314d9d3b872005f5b8281101561060357335f90815260028301602090815260408083206001600160a01b038916845290915281208551909190869084908110610511576105116117c9565b6020908102919091018101516001600160a01b031682528101919091526040015f205460ff1615610590578484828151811061054f5761054f6117c9565b6020026020010151604051632210106160e01b81526004016105879291906001600160a01b0392831681529116602082015260400190565b60405180910390fd5b335f90815260028301602090815260408083206001600160a01b03891684529091528120855182908790859081106105ca576105ca6117c9565b6020908102919091018101516001600160a01b031682528101919091526040015f20805460ff19169115159190911790556001016104ce565b50836001600160a01b0316336001600160a01b03167f7c0a18a6132447b7c9f34ae509fec1dba0cb0ff0bdd1704b99779a1c744a138e8560405161064791906117dd565b60405180910390a350505050565b6060604051806040016040528060038152602001621050d360ea1b81525061067c5f610e66565b6106866001610e66565b61068f5f610e66565b6040516020016106a29493929190611829565b604051602081830303815290604052905090565b5f5c5f805d600190810190805b828110156106db57805c5f825d5f815d5081016106c3565b505050565b3373cd3ab3bd6bcc0c0bf3e27912a92043e817b1cf6914610724576107058233610aca565b610724576040516368692cbb60e11b8152336004820152602401610587565b5f828260405160200161075392919091825260601b6bffffffffffffffffffffffff1916602082015260340190565b6040516020818303038152906040528051906020012090506001815d60015f5c0181815d805f5d50505050565b610788610f03565b61079182610fba565b61079b8282610fc2565b5050565b5f6107a8611091565b507f360894a13ba1a3210667c828492db98dca3e2076cc3735a920a3ca505d382bbc90565b80515f8190036107f0576040516317d7ad0760e21b815260040160405180910390fd5b600a811115610812576040516365ac366b60e11b815260040160405180910390fd5b7fcaeeb749b0b652d94927794ec4f309146afb8975e723911d557314d9d3b872005f5b828110156109d857336001600160a01b0316848281518110610859576108596117c9565b60200260200101516001600160a01b0316036108b257838181518110610881576108816117c9565b6020026020010151604051630c24836b60e31b815260040161058791906001600160a01b0391909116815260200190565b335f90815260028301602090815260408083206001600160a01b0389168452909152812085519091908690849081106108ed576108ed6117c9565b6020908102919091018101516001600160a01b031682528101919091526040015f205460ff1615610963578484828151811061092b5761092b6117c9565b6020026020010151604051633e39e40f60e21b81526004016105879291906001600160a01b0392831681529116602082015260400190565b335f90815260028301602090815260408083206001600160a01b0389168452909152812085516001929087908590811061099f5761099f6117c9565b6020908102919091018101516001600160a01b031682528101919091526040015f20805460ff1916911515919091179055600101610835565b50836001600160a01b0316336001600160a01b03167f6ac533ce8df9b9d2a4842715e991ef317c4a8148d2dbc0a5109ce6979de353e58560405161064791906117dd565b610a246110da565b610a2d5f61110c565b565b5f805f8484604051602001610a6092919091825260601b6bffffffffffffffffffffffff1916602082015260340190565b60408051808303601f1901815291905280516020909101205c95945050505050565b3380610a8c610c08565b6001600160a01b031614610abe5760405163118cdaa760e01b81526001600160a01b0382166004820152602401610587565b610ac78161110c565b50565b5f610ad58383610a2f565b80610b2057505f8381527fcaeeb749b0b652d94927794ec4f309146afb8975e723911d557314d9d3b87200602090815260408083206001600160a01b038616845290915290205460ff165b9392505050565b5f807f9016d09d72d40fdae2fd8ceac6b6234c7706214fd39c1cd1e609a0528c1993005b546001600160a01b031692915050565b7fcaeeb749b0b652d94927794ec4f309146afb8975e723911d557314d9d3b87200610b868333610aca565b610ba5576040516368692cbb60e11b8152336004820152602401610587565b5f838152602082815260408083206001600160a01b03861680855290835292819020805460ff191660011790555185815233917fe2e1decee6e05ee246cd7c7f1337d25cdfd41dcbdcf8c57b61630be56cc7366a910160405180910390a3505050565b5f807f237e158222e3e6968b72b9db0d8043aacf074ad9f650f0d1606b4d82ee432c00610b4b565b610c386110da565b7f237e158222e3e6968b72b9db0d8043aacf074ad9f650f0d1606b4d82ee432c0080546001600160a01b0319166001600160a01b0383169081178255610c7c610b27565b6001600160a01b03167f38d16b8cac22d99fc7c124b9cd0de2d3fa1faef420bfe791d8c362d765e2270060405160405180910390a35050565b5f8381527fcaeeb749b0b652d94927794ec4f309146afb8975e723911d557314d9d3b87200602081815260408084206001600160a01b038616855290915282205460ff168015610d2457505f858152602082815260408083206001600160a01b038816845290915290205460ff165b8015610d6057506001600160a01b038084165f90815260028301602090815260408083208a8516845282528083209388168352929052205460ff165b9695505050505050565b80515f819003610d8d5760405163385e8ccb60e11b815260040160405180910390fd5b7fcaeeb749b0b652d94927794ec4f309146afb8975e723911d557314d9d3b872005f5b82811015610e1f575f848281518110610dcb57610dcb6117c9565b60200260200101519050610ddf8133610aca565b610dfe576040516368692cbb60e11b8152336004820152602401610587565b5f90815260018381016020526040909120805460ff19168217905501610db0565b50336001600160a01b03167fd913ac93a959116526793ef772233273d5249597d33cddfdc34f29920541fd0a84604051610e5991906118a6565b60405180910390a2505050565b60605f610e7283611144565b60010190505f8167ffffffffffffffff811115610e9157610e91611492565b6040519080825280601f01601f191660200182016040528015610ebb576020820181803683370190505b5090508181016020015b5f19017f3031323334353637383961626364656600000000000000000000000000000000600a86061a8153600a8504945084610ec557509392505050565b306001600160a01b037f0000000000000000000000000000000000000000000000000000000000000000161480610f9c57507f00000000000000000000000000000000000000000000000000000000000000006001600160a01b0316610f907f360894a13ba1a3210667c828492db98dca3e2076cc3735a920a3ca505d382bbc546001600160a01b031690565b6001600160a01b031614155b15610a2d5760405163703e46dd60e11b815260040160405180910390fd5b610ac76110da565b816001600160a01b03166352d1902d6040518163ffffffff1660e01b8152600401602060405180830381865afa92505050801561101c575060408051601f3d908101601f19168201909252611019918101906118dd565b60015b61104457604051634c9c8ce360e01b81526001600160a01b0383166004820152602401610587565b7f360894a13ba1a3210667c828492db98dca3e2076cc3735a920a3ca505d382bbc811461108757604051632a87526960e21b815260048101829052602401610587565b6106db8383611226565b306001600160a01b037f00000000000000000000000000000000000000000000000000000000000000001614610a2d5760405163703e46dd60e11b815260040160405180910390fd5b336110e3610b27565b6001600160a01b031614610a2d5760405163118cdaa760e01b8152336004820152602401610587565b7f237e158222e3e6968b72b9db0d8043aacf074ad9f650f0d1606b4d82ee432c0080546001600160a01b031916815561079b8261127b565b5f807a184f03e93ff9f4daa797ed6e38ed64bf6a1f010000000000000000831061118c577a184f03e93ff9f4daa797ed6e38ed64bf6a1f010000000000000000830492506040015b6d04ee2d6d415b85acef810000000083106111b8576d04ee2d6d415b85acef8100000000830492506020015b662386f26fc1000083106111d657662386f26fc10000830492506010015b6305f5e10083106111ee576305f5e100830492506008015b612710831061120257612710830492506004015b60648310611214576064830492506002015b600a8310611220576001015b92915050565b61122f826112eb565b6040516001600160a01b038316907fbc7cd75a20ee27fd9adebab32041f755214dbc6bffa90cc0225b39da2e5c2d3b905f90a2805115611273576106db8282611361565b61079b6113d3565b7f9016d09d72d40fdae2fd8ceac6b6234c7706214fd39c1cd1e609a0528c19930080546001600160a01b031981166001600160a01b03848116918217845560405192169182907f8be0079c531659141344cd1fd0a4f28419497f9722a3daafe3b4186f6b6457e0905f90a3505050565b806001600160a01b03163b5f0361132057604051634c9c8ce360e01b81526001600160a01b0382166004820152602401610587565b7f360894a13ba1a3210667c828492db98dca3e2076cc3735a920a3ca505d382bbc80546001600160a01b0319166001600160a01b0392909216919091179055565b60605f80846001600160a01b03168460405161137d91906118f4565b5f60405180830381855af49150503d805f81146113b5576040519150601f19603f3d011682016040523d82523d5f602084013e6113ba565b606091505b50915091506113ca8583836113f2565b95945050505050565b3415610a2d5760405163b398979f60e01b815260040160405180910390fd5b606082611407576114028261144e565b610b20565b815115801561141e57506001600160a01b0384163b155b1561144757604051639996b31560e01b81526001600160a01b0385166004820152602401610587565b5092915050565b80511561145e5780518082602001fd5b60405163d6bda27560e01b815260040160405180910390fd5b80356001600160a01b038116811461148d575f80fd5b919050565b634e487b7160e01b5f52604160045260245ffd5b604051601f8201601f1916810167ffffffffffffffff811182821017156114cf576114cf611492565b604052919050565b5f67ffffffffffffffff8211156114f0576114f0611492565b5060051b60200190565b5f806040838503121561150b575f80fd5b61151483611477565b915060208084013567ffffffffffffffff811115611530575f80fd5b8401601f81018613611540575f80fd5b803561155361154e826114d7565b6114a6565b81815260059190911b82018301908381019088831115611571575f80fd5b928401925b828410156115965761158784611477565b82529284019290840190611576565b80955050505050509250929050565b5f5b838110156115bf5781810151838201526020016115a7565b50505f910152565b602081525f82518060208401526115e58160408501602087016115a5565b601f01601f19169190910160400192915050565b5f806040838503121561160a575f80fd5b8235915061161a60208401611477565b90509250929050565b5f8060408385031215611634575f80fd5b61163d83611477565b915060208084013567ffffffffffffffff8082111561165a575f80fd5b818601915086601f83011261166d575f80fd5b81358181111561167f5761167f611492565b611691601f8201601f191685016114a6565b915080825287848285010111156116a6575f80fd5b80848401858401375f848284010152508093505050509250929050565b5f602082840312156116d3575f80fd5b5035919050565b5f602082840312156116ea575f80fd5b610b2082611477565b5f805f8060808587031215611706575f80fd5b61170f85611477565b93506020850135925061172460408601611477565b915061173260608601611477565b905092959194509250565b5f602080838503121561174e575f80fd5b823567ffffffffffffffff811115611764575f80fd5b8301601f81018513611774575f80fd5b803561178261154e826114d7565b81815260059190911b820183019083810190878311156117a0575f80fd5b928401925b828410156117be578335825292840192908401906117a5565b979650505050505050565b634e487b7160e01b5f52603260045260245ffd5b602080825282518282018190525f9190848201906040850190845b8181101561181d5783516001600160a01b0316835292840192918401916001016117f8565b50909695505050505050565b5f855161183a818460208a016115a5565b61103b60f11b9083019081528551611859816002840160208a016115a5565b808201915050601760f91b806002830152855161187d816003850160208a016115a5565b600392019182015283516118988160048401602088016115a5565b016004019695505050505050565b602080825282518282018190525f9190848201906040850190845b8181101561181d578351835292840192918401916001016118c1565b5f602082840312156118ed575f80fd5b5051919050565b5f82516119058184602087016115a5565b919091019291505056fea164736f6c6343000818000a",
  "linkReferences": {},
  "deployedLinkReferences": {}
}