{
  "_format": "hh-sol-artifact-1",
  "contractName": "ACL",
  "sourceName": "contracts/ACL.sol",
  "abi": [
    {
      "inputs": [],
      "stateMutability": "nonpayable",
      "type": "constructor"
    },
    {
      "inputs": [
        {
          "internalType": "address",
          "name": "target",
          "type": "address"
        }
      ],
      "name": "AddressEmptyCode",
      "type": "error"
    },
    {
      "inputs": [
        {
          "internalType": "address",
          "name": "delegatee",
          "type": "address"
        },
        {
          "internalType": "address",
          "name": "contractAddress",
          "type": "address"
        }
      ],
      "name": "AlreadyDelegated",
      "type": "error"
    },
    {
      "inputs": [],
      "name": "ContractAddressesIsEmpty",
      "type": "error"
    },
    {
      "inputs": [],
      "name": "ContractAddressesMaxLengthExceeded",
      "type": "error"
    },
    {
      "inputs": [
        {
          "internalType": "address",
          "name": "implementation",
          "type": "address"
        }
      ],
      "name": "ERC1967InvalidImplementation",
      "type": "error"
    },
    {
      "inputs": [],
      "name": "ERC1967NonPayable",
      "type": "error"
    },
    {
      "inputs": [],
      "name": "FailedCall",
      "type": "error"
    },
    {
      "inputs": [],
      "name": "HandlesListIsEmpty",
      "type": "error"
    },
    {
      "inputs": [],
      "name": "InvalidInitialization",
      "type": "error"
    },
    {
      "inputs": [
        {
          "internalType": "address",
          "name": "delegatee",
          "type": "address"
        },
        {
          "internalType": "address",
          "name": "contractAddress",
          "type": "address"
        }
      ],
      "name": "NotDelegatedYet",
      "type": "error"
    },
    {
      "inputs": [],
      "name": "NotInitializing",
      "type": "error"
    },
    {
      "inputs": [
        {
          "internalType": "address",
          "name": "owner",
          "type": "address"
        }
      ],
      "name": "OwnableInvalidOwner",
      "type": "error"
    },
    {
      "inputs": [
        {
          "internalType": "address",
          "name": "account",
          "type": "address"
        }
      ],
      "name": "OwnableUnauthorizedAccount",
      "type": "error"
    },
    {
      "inputs": [
        {
          "internalType": "address",
          "name": "contractAddress",
          "type": "address"
        }
      ],
      "name": "SenderCannotBeContractAddress",
      "type": "error"
    },
    {
      "inputs": [
        {
          "internalType": "address",
          "name": "sender",
          "type": "address"
        }
      ],
      "name": "SenderNotAllowed",
      "type": "error"
    },
    {
      "inputs": [],
      "name": "UUPSUnauthorizedCallContext",
      "type": "error"
    },
    {
      "inputs": [
        {
          "internalType": "bytes32",
          "name": "slot",
          "type": "bytes32"
        }
      ],
      "name": "UUPSUnsupportedProxiableUUID",
      "type": "error"
    },
    {
      "anonymous": false,
      "inputs": [
        {
          "indexed": true,
          "internalType": "address",
          "name": "caller",
          "type": "address"
        },
        {
          "indexed": true,
          "internalType": "address",
          "name": "account",
          "type": "address"
        },
        {
          "indexed": false,
          "internalType": "bytes32",
          "name": "handle",
          "type": "bytes32"
        }
      ],
      "name": "Allowed",
      "type": "event"
    },
    {
      "anonymous": false,
      "inputs": [
        {
          "indexed": true,
          "internalType": "address",
          "name": "caller",
          "type": "address"
        },
        {
          "indexed": false,
          "internalType": "bytes32[]",
          "name": "handlesList",
          "type": "bytes32[]"
        }
      ],
      "name": "AllowedForDecryption",
      "type": "event"
    },
    {
      "anonymous": false,
      "inputs": [
        {
          "indexed": false,
          "internalType": "uint64",
          "name": "version",
          "type": "uint64"
        }
      ],
      "name": "Initialized",
      "type": "event"
    },
    {
      "anonymous": false,
      "inputs": [
        {
          "indexed": true,
          "internalType": "address",
          "name": "caller",
          "type": "address"
        },
        {
          "indexed": true,
          "internalType": "address",
          "name": "delegatee",
          "type": "address"
        },
        {
          "indexed": false,
          "internalType": "address[]",
          "name": "contractAddresses",
          "type": "address[]"
        }
      ],
      "name": "NewDelegation",
      "type": "event"
    },
    {
      "anonymous": false,
      "inputs": [
        {
          "indexed": true,
          "internalType": "address",
          "name": "previousOwner",
          "type": "address"
        },
        {
          "indexed": true,
          "internalType": "address",
          "name": "newOwner",
          "type": "address"
        }
      ],
      "name": "OwnershipTransferStarted",
      "type": "event"
    },
    {
      "anonymous": false,
      "inputs": [
        {
          "indexed": true,
          "internalType": "address",
          "name": "previousOwner",
          "type": "address"
        },
        {
          "indexed": true,
          "internalType": "address",
          "name": "newOwner",
          "type": "address"
        }
      ],
      "name": "OwnershipTransferred",
      "type": "event"
    },
    {
      "anonymous": false,
      "inputs": [
        {
          "indexed": true,
          "internalType": "address",
          "name": "caller",
          "type": "address"
        },
        {
          "indexed": true,
          "internalType": "address",
          "name": "delegatee",
          "type": "address"
        },
        {
          "indexed": false,
          "internalType": "address[]",
          "name": "contractAddresses",
          "type": "address[]"
        }
      ],
      "name": "RevokedDelegation",
      "type": "event"
    },
    {
      "anonymous": false,
      "inputs": [
        {
          "indexed": true,
          "internalType": "address",
          "name": "implementation",
          "type": "address"
        }
      ],
      "name": "Upgraded",
      "type": "event"
    },
    {
      "inputs": [],
      "name": "UPGRADE_INTERFACE_VERSION",
      "outputs": [
        {
          "internalType": "string",
          "name": "",
          "type": "string"
        }
      ],
      "stateMutability": "view",
      "type": "function"
    },
    {
      "inputs": [],
      "name": "acceptOwnership",
      "outputs": [],
      "stateMutability": "nonpayable",
      "type": "function"
    },
    {
      "inputs": [
        {
          "internalType": "bytes32",
          "name": "handle",
          "type": "bytes32"
        },
        {
          "internalType": "address",
          "name": "account",
          "type": "address"
        }
      ],
      "name": "allow",
      "outputs": [],
      "stateMutability": "nonpayable",
      "type": "function"
    },
    {
      "inputs": [
        {
          "internalType": "bytes32[]",
          "name": "handlesList",
          "type": "bytes32[]"
        }
      ],
      "name": "allowForDecryption",
      "outputs": [],
      "stateMutability": "nonpayable",
      "type": "function"
    },
    {
      "inputs": [
        {
          "internalType": "bytes32",
          "name": "handle",
          "type": "bytes32"
        },
        {
          "internalType": "address",
          "name": "account",
          "type": "address"
        }
      ],
      "name": "allowTransient",
      "outputs": [],
      "stateMutability": "nonpayable",
      "type": "function"
    },
    {
      "inputs": [
        {
          "internalType": "address",
          "name": "delegatee",
          "type": "address"
        },
        {
          "internalType": "bytes32",
          "name": "handle",
          "type": "bytes32"
        },
        {
          "internalType": "address",
          "name": "contractAddress",
          "type": "address"
        },
        {
          "internalType": "address",
          "name": "account",
          "type": "address"
        }
      ],
      "name": "allowedOnBehalf",
      "outputs": [
        {
          "internalType": "bool",
          "name": "",
          "type": "bool"
        }
      ],
      "stateMutability": "view",
      "type": "function"
    },
    {
      "inputs": [
        {
          "internalType": "bytes32",
          "name": "handle",
          "type": "bytes32"
        },
        {
          "internalType": "address",
          "name": "account",
          "type": "address"
        }
      ],
      "name": "allowedTransient",
      "outputs": [
        {
          "internalType": "bool",
          "name": "",
          "type": "bool"
        }
      ],
      "stateMutability": "view",
      "type": "function"
    },
    {
      "inputs": [],
      "name": "cleanTransientStorage",
      "outputs": [],
      "stateMutability": "nonpayable",
      "type": "function"
    },
    {
      "inputs": [
        {
          "internalType": "address",
          "name": "delegatee",
          "type": "address"
        },
        {
          "internalType": "address[]",
          "name": "contractAddresses",
          "type": "address[]"
        }
      ],
      "name": "delegateAccount",
      "outputs": [],
      "stateMutability": "nonpayable",
      "type": "function"
    },
    {
      "inputs": [],
      "name": "getHTTPZExecutorAddress",
      "outputs": [
        {
          "internalType": "address",
          "name": "",
          "type": "address"
        }
      ],
      "stateMutability": "view",
      "type": "function"
    },
    {
      "inputs": [],
      "name": "getVersion",
      "outputs": [
        {
          "internalType": "string",
          "name": "",
          "type": "string"
        }
      ],
      "stateMutability": "pure",
      "type": "function"
    },
    {
      "inputs": [
        {
          "internalType": "bytes32",
          "name": "handle",
          "type": "bytes32"
        },
        {
          "internalType": "address",
          "name": "account",
          "type": "address"
        }
      ],
      "name": "isAllowed",
      "outputs": [
        {
          "internalType": "bool",
          "name": "",
          "type": "bool"
        }
      ],
      "stateMutability": "view",
      "type": "function"
    },
    {
      "inputs": [
        {
          "internalType": "bytes32",
          "name": "handle",
          "type": "bytes32"
        }
      ],
      "name": "isAllowedForDecryption",
      "outputs": [
        {
          "internalType": "bool",
          "name": "",
          "type": "bool"
        }
      ],
      "stateMutability": "view",
      "type": "function"
    },
    {
      "inputs": [],
      "name": "owner",
      "outputs": [
        {
          "internalType": "address",
          "name": "",
          "type": "address"
        }
      ],
      "stateMutability": "view",
      "type": "function"
    },
    {
      "inputs": [],
      "name": "pendingOwner",
      "outputs": [
        {
          "internalType": "address",
          "name": "",
          "type": "address"
        }
      ],
      "stateMutability": "view",
      "type": "function"
    },
    {
      "inputs": [
        {
          "internalType": "bytes32",
          "name": "handle",
          "type": "bytes32"
        },
        {
          "internalType": "address",
          "name": "account",
          "type": "address"
        }
      ],
      "name": "persistAllowed",
      "outputs": [
        {
          "internalType": "bool",
          "name": "",
          "type": "bool"
        }
      ],
      "stateMutability": "view",
      "type": "function"
    },
    {
      "inputs": [],
      "name": "proxiableUUID",
      "outputs": [
        {
          "internalType": "bytes32",
          "name": "",
          "type": "bytes32"
        }
      ],
      "stateMutability": "view",
      "type": "function"
    },
    {
      "inputs": [],
      "name": "reinitialize",
      "outputs": [],
      "stateMutability": "nonpayable",
      "type": "function"
    },
    {
      "inputs": [],
      "name": "renounceOwnership",
      "outputs": [],
      "stateMutability": "nonpayable",
      "type": "function"
    },
    {
      "inputs": [
        {
          "internalType": "address",
          "name": "delegatee",
          "type": "address"
        },
        {
          "internalType": "address[]",
          "name": "contractAddresses",
          "type": "address[]"
        }
      ],
      "name": "revokeDelegation",
      "outputs": [],
      "stateMutability": "nonpayable",
      "type": "function"
    },
    {
      "inputs": [
        {
          "internalType": "address",
          "name": "newOwner",
          "type": "address"
        }
      ],
      "name": "transferOwnership",
      "outputs": [],
      "stateMutability": "nonpayable",
      "type": "function"
    },
    {
      "inputs": [
        {
          "internalType": "address",
          "name": "newImplementation",
          "type": "address"
        },
        {
          "internalType": "bytes",
          "name": "data",
          "type": "bytes"
        }
      ],
      "name": "upgradeToAndCall",
      "outputs": [],
      "stateMutability": "payable",
      "type": "function"
    }
  ],
  "bytecode": "0x60a060405230608052348015610013575f80fd5b5061001c610021565b6100d3565b7ff0c57e16840df040f15088dc2f81fe391c3923bec73e23a9662efc9c229c6a00805468010000000000000000900460ff16156100715760405163f92ee8a960e01b815260040160405180910390fd5b80546001600160401b03908116146100d05780546001600160401b0319166001600160401b0390811782556040519081527fc7f505b2f371ae2175ee4913f4499e1f2633a7b5936321eed1cdaeb6115181d29060200160405180910390a15b50565b608051611ac06100f95f395f81816110220152818161104b01526111b00152611ac05ff3fe60806040526004361061016d575f3560e01c806379ba5097116100c6578063b9819d911161007c578063f2fde38b11610057578063f2fde38b1461044a578063f72164de14610469578063fadd224614610488575f80fd5b8063b9819d91146103c3578063c0d02943146103e9578063e30c397814610436575f80fd5b80638da5cb5b116100ac5780638da5cb5b14610330578063ad3cb1cc1461035c578063b9496b62146103a4575f80fd5b806379ba5097146102fd57806382027b6d14610311575f80fd5b80634f1ef286116101265780636c2eb350116101015780636c2eb350146102b6578063715018a6146102ca57806374b79a5a146102de575f80fd5b80634f1ef2861461026257806352d1902d14610275578063531efc9214610297575f80fd5b80631e2f86ba116101565780631e2f86ba146101bc57806335334c231461022f5780633e395cec14610243575f80fd5b8063088563e8146101715780630d8e6e2c14610192575b5f80fd5b34801561017c575f80fd5b5061019061018b36600461169e565b6104a7565b005b34801561019d575f80fd5b506101a6610674565b6040516101b3919061176b565b60405180910390f35b3480156101c7575f80fd5b5061021f6101d636600461179d565b5f9182527fcaeeb749b0b652d94927794ec4f309146afb8975e723911d557314d9d3b87200602090815260408084206001600160a01b0393909316845291905290205460ff1690565b60405190151581526020016101b3565b34801561023a575f80fd5b506101906106d5565b34801561024e575f80fd5b5061019061025d36600461179d565b6106ff565b6101906102703660046117c7565b61079f565b348015610280575f80fd5b506102896107be565b6040519081526020016101b3565b3480156102a2575f80fd5b506101906102b136600461169e565b6107ec565b3480156102c1575f80fd5b50610190610a3b565b3480156102d5575f80fd5b50610190610b30565b3480156102e9575f80fd5b5061021f6102f836600461179d565b610b43565b348015610308575f80fd5b50610190610b96565b34801561031c575f80fd5b5061021f61032b36600461179d565b610bde565b34801561033b575f80fd5b50610344610c3b565b6040516001600160a01b0390911681526020016101b3565b348015610367575f80fd5b506101a66040518060400160405280600581526020017f352e302e3000000000000000000000000000000000000000000000000000000081525081565b3480156103af575f80fd5b506101906103be36600461179d565b610c6f565b3480156103ce575f80fd5b5073cd3ab3bd6bcc0c0bf3e27912a92043e817b1cf69610344565b3480156103f4575f80fd5b5061021f610403366004611867565b5f9081527fcaeeb749b0b652d94927794ec4f309146afb8975e723911d557314d9d3b87201602052604090205460ff1690565b348015610441575f80fd5b50610344610d1c565b348015610455575f80fd5b5061019061046436600461187e565b610d44565b348015610474575f80fd5b5061021f610483366004611897565b610dc9565b348015610493575f80fd5b506101906104a23660046118e1565b610e7e565b80515f8190036104ca576040516317d7ad0760e21b815260040160405180910390fd5b7fcaeeb749b0b652d94927794ec4f309146afb8975e723911d557314d9d3b872005f5b8281101561062257335f90815260028301602090815260408083206001600160a01b0389168452909152812085519091908690849081106105305761053061196d565b6020908102919091018101516001600160a01b031682528101919091526040015f205460ff16156105af578484828151811061056e5761056e61196d565b6020026020010151604051632210106160e01b81526004016105a69291906001600160a01b0392831681529116602082015260400190565b60405180910390fd5b335f90815260028301602090815260408083206001600160a01b03891684529091528120855182908790859081106105e9576105e961196d565b6020908102919091018101516001600160a01b031682528101919091526040015f20805460ff19169115159190911790556001016104ed565b50836001600160a01b0316336001600160a01b03167f7c0a18a6132447b7c9f34ae509fec1dba0cb0ff0bdd1704b99779a1c744a138e856040516106669190611981565b60405180910390a350505050565b6060604051806040016040528060038152602001621050d360ea1b81525061069b5f610f7a565b6106a56001610f7a565b6106ae5f610f7a565b6040516020016106c194939291906119cd565b604051602081830303815290604052905090565b5f5c5f805d600190810190805b828110156106fa57805c5f825d5f815d5081016106e2565b505050565b3373cd3ab3bd6bcc0c0bf3e27912a92043e817b1cf6914610743576107248233610bde565b610743576040516368692cbb60e11b81523360048201526024016105a6565b5f828260405160200161077292919091825260601b6bffffffffffffffffffffffff1916602082015260340190565b6040516020818303038152906040528051906020012090506001815d60015f5c0181815d805f5d50505050565b6107a7611017565b6107b0826110ce565b6107ba82826110d6565b5050565b5f6107c76111a5565b507f360894a13ba1a3210667c828492db98dca3e2076cc3735a920a3ca505d382bbc90565b80515f81900361080f576040516317d7ad0760e21b815260040160405180910390fd5b600a811115610831576040516365ac366b60e11b815260040160405180910390fd5b7fcaeeb749b0b652d94927794ec4f309146afb8975e723911d557314d9d3b872005f5b828110156109f757336001600160a01b03168482815181106108785761087861196d565b60200260200101516001600160a01b0316036108d1578381815181106108a0576108a061196d565b6020026020010151604051630c24836b60e31b81526004016105a691906001600160a01b0391909116815260200190565b335f90815260028301602090815260408083206001600160a01b03891684529091528120855190919086908490811061090c5761090c61196d565b6020908102919091018101516001600160a01b031682528101919091526040015f205460ff1615610982578484828151811061094a5761094a61196d565b6020026020010151604051633e39e40f60e21b81526004016105a69291906001600160a01b0392831681529116602082015260400190565b335f90815260028301602090815260408083206001600160a01b038916845290915281208551600192908790859081106109be576109be61196d565b6020908102919091018101516001600160a01b031682528101919091526040015f20805460ff1916911515919091179055600101610854565b50836001600160a01b0316336001600160a01b03167f6ac533ce8df9b9d2a4842715e991ef317c4a8148d2dbc0a5109ce6979de353e5856040516106669190611981565b7ff0c57e16840df040f15088dc2f81fe391c3923bec73e23a9662efc9c229c6a0080546002919068010000000000000000900460ff1680610a8a5750805467ffffffffffffffff808416911610155b15610aa85760405163f92ee8a960e01b815260040160405180910390fd5b805468ffffffffffffffffff191667ffffffffffffffff83161768010000000000000000178155610adf610ada610c3b565b6111ee565b805468ff00000000000000001916815560405167ffffffffffffffff831681527fc7f505b2f371ae2175ee4913f4499e1f2633a7b5936321eed1cdaeb6115181d29060200160405180910390a15050565b610b386111ff565b610b415f611231565b565b5f805f8484604051602001610b7492919091825260601b6bffffffffffffffffffffffff1916602082015260340190565b60408051808303601f1901815291905280516020909101205c95945050505050565b3380610ba0610d1c565b6001600160a01b031614610bd25760405163118cdaa760e01b81526001600160a01b03821660048201526024016105a6565b610bdb81611231565b50565b5f610be98383610b43565b80610c3457505f8381527fcaeeb749b0b652d94927794ec4f309146afb8975e723911d557314d9d3b87200602090815260408083206001600160a01b038616845290915290205460ff165b9392505050565b5f807f9016d09d72d40fdae2fd8ceac6b6234c7706214fd39c1cd1e609a0528c1993005b546001600160a01b031692915050565b7fcaeeb749b0b652d94927794ec4f309146afb8975e723911d557314d9d3b87200610c9a8333610bde565b610cb9576040516368692cbb60e11b81523360048201526024016105a6565b5f838152602082815260408083206001600160a01b03861680855290835292819020805460ff191660011790555185815233917fe2e1decee6e05ee246cd7c7f1337d25cdfd41dcbdcf8c57b61630be56cc7366a910160405180910390a3505050565b5f807f237e158222e3e6968b72b9db0d8043aacf074ad9f650f0d1606b4d82ee432c00610c5f565b610d4c6111ff565b7f237e158222e3e6968b72b9db0d8043aacf074ad9f650f0d1606b4d82ee432c0080546001600160a01b0319166001600160a01b0383169081178255610d90610c3b565b6001600160a01b03167f38d16b8cac22d99fc7c124b9cd0de2d3fa1faef420bfe791d8c362d765e2270060405160405180910390a35050565b5f8381527fcaeeb749b0b652d94927794ec4f309146afb8975e723911d557314d9d3b87200602081815260408084206001600160a01b038616855290915282205460ff168015610e3857505f858152602082815260408083206001600160a01b038816845290915290205460ff165b8015610e7457506001600160a01b038084165f90815260028301602090815260408083208a8516845282528083209388168352929052205460ff165b9695505050505050565b80515f819003610ea15760405163385e8ccb60e11b815260040160405180910390fd5b7fcaeeb749b0b652d94927794ec4f309146afb8975e723911d557314d9d3b872005f5b82811015610f33575f848281518110610edf57610edf61196d565b60200260200101519050610ef38133610bde565b610f12576040516368692cbb60e11b81523360048201526024016105a6565b5f90815260018381016020526040909120805460ff19168217905501610ec4565b50336001600160a01b03167fd913ac93a959116526793ef772233273d5249597d33cddfdc34f29920541fd0a84604051610f6d9190611a4a565b60405180910390a2505050565b60605f610f8683611269565b60010190505f8167ffffffffffffffff811115610fa557610fa5611636565b6040519080825280601f01601f191660200182016040528015610fcf576020820181803683370190505b5090508181016020015b5f19017f3031323334353637383961626364656600000000000000000000000000000000600a86061a8153600a8504945084610fd957509392505050565b306001600160a01b037f00000000000000000000000000000000000000000000000000000000000000001614806110b057507f00000000000000000000000000000000000000000000000000000000000000006001600160a01b03166110a47f360894a13ba1a3210667c828492db98dca3e2076cc3735a920a3ca505d382bbc546001600160a01b031690565b6001600160a01b031614155b15610b415760405163703e46dd60e11b815260040160405180910390fd5b610bdb6111ff565b816001600160a01b03166352d1902d6040518163ffffffff1660e01b8152600401602060405180830381865afa925050508015611130575060408051601f3d908101601f1916820190925261112d91810190611a81565b60015b61115857604051634c9c8ce360e01b81526001600160a01b03831660048201526024016105a6565b7f360894a13ba1a3210667c828492db98dca3e2076cc3735a920a3ca505d382bbc811461119b57604051632a87526960e21b8152600481018290526024016105a6565b6106fa838361134b565b306001600160a01b037f00000000000000000000000000000000000000000000000000000000000000001614610b415760405163703e46dd60e11b815260040160405180910390fd5b6111f66113a0565b610bdb816113ee565b33611208610c3b565b6001600160a01b031614610b415760405163118cdaa760e01b81523360048201526024016105a6565b7f237e158222e3e6968b72b9db0d8043aacf074ad9f650f0d1606b4d82ee432c0080546001600160a01b03191681556107ba8261141f565b5f807a184f03e93ff9f4daa797ed6e38ed64bf6a1f01000000000000000083106112b1577a184f03e93ff9f4daa797ed6e38ed64bf6a1f010000000000000000830492506040015b6d04ee2d6d415b85acef810000000083106112dd576d04ee2d6d415b85acef8100000000830492506020015b662386f26fc1000083106112fb57662386f26fc10000830492506010015b6305f5e1008310611313576305f5e100830492506008015b612710831061132757612710830492506004015b60648310611339576064830492506002015b600a8310611345576001015b92915050565b6113548261148f565b6040516001600160a01b038316907fbc7cd75a20ee27fd9adebab32041f755214dbc6bffa90cc0225b39da2e5c2d3b905f90a2805115611398576106fa8282611505565b6107ba611577565b7ff0c57e16840df040f15088dc2f81fe391c3923bec73e23a9662efc9c229c6a005468010000000000000000900460ff16610b4157604051631afcd79f60e31b815260040160405180910390fd5b6113f66113a0565b6001600160a01b038116610bd257604051631e4fbdf760e01b81525f60048201526024016105a6565b7f9016d09d72d40fdae2fd8ceac6b6234c7706214fd39c1cd1e609a0528c19930080546001600160a01b031981166001600160a01b03848116918217845560405192169182907f8be0079c531659141344cd1fd0a4f28419497f9722a3daafe3b4186f6b6457e0905f90a3505050565b806001600160a01b03163b5f036114c457604051634c9c8ce360e01b81526001600160a01b03821660048201526024016105a6565b7f360894a13ba1a3210667c828492db98dca3e2076cc3735a920a3ca505d382bbc80546001600160a01b0319166001600160a01b0392909216919091179055565b60605f80846001600160a01b0316846040516115219190611a98565b5f60405180830381855af49150503d805f8114611559576040519150601f19603f3d011682016040523d82523d5f602084013e61155e565b606091505b509150915061156e858383611596565b95945050505050565b3415610b415760405163b398979f60e01b815260040160405180910390fd5b6060826115ab576115a6826115f2565b610c34565b81511580156115c257506001600160a01b0384163b155b156115eb57604051639996b31560e01b81526001600160a01b03851660048201526024016105a6565b5092915050565b8051156116025780518082602001fd5b60405163d6bda27560e01b815260040160405180910390fd5b80356001600160a01b0381168114611631575f80fd5b919050565b634e487b7160e01b5f52604160045260245ffd5b604051601f8201601f1916810167ffffffffffffffff8111828210171561167357611673611636565b604052919050565b5f67ffffffffffffffff82111561169457611694611636565b5060051b60200190565b5f80604083850312156116af575f80fd5b6116b88361161b565b915060208084013567ffffffffffffffff8111156116d4575f80fd5b8401601f810186136116e4575f80fd5b80356116f76116f28261167b565b61164a565b81815260059190911b82018301908381019088831115611715575f80fd5b928401925b8284101561173a5761172b8461161b565b8252928401929084019061171a565b80955050505050509250929050565b5f5b8381101561176357818101518382015260200161174b565b50505f910152565b602081525f8251806020840152611789816040850160208701611749565b601f01601f19169190910160400192915050565b5f80604083850312156117ae575f80fd5b823591506117be6020840161161b565b90509250929050565b5f80604083850312156117d8575f80fd5b6117e18361161b565b915060208084013567ffffffffffffffff808211156117fe575f80fd5b818601915086601f830112611811575f80fd5b81358181111561182357611823611636565b611835601f8201601f1916850161164a565b9150808252878482850101111561184a575f80fd5b80848401858401375f848284010152508093505050509250929050565b5f60208284031215611877575f80fd5b5035919050565b5f6020828403121561188e575f80fd5b610c348261161b565b5f805f80608085870312156118aa575f80fd5b6118b38561161b565b9350602085013592506118c86040860161161b565b91506118d66060860161161b565b905092959194509250565b5f60208083850312156118f2575f80fd5b823567ffffffffffffffff811115611908575f80fd5b8301601f81018513611918575f80fd5b80356119266116f28261167b565b81815260059190911b82018301908381019087831115611944575f80fd5b928401925b8284101561196257833582529284019290840190611949565b979650505050505050565b634e487b7160e01b5f52603260045260245ffd5b602080825282518282018190525f9190848201906040850190845b818110156119c15783516001600160a01b03168352928401929184019160010161199c565b50909695505050505050565b5f85516119de818460208a01611749565b61103b60f11b90830190815285516119fd816002840160208a01611749565b808201915050601760f91b8060028301528551611a21816003850160208a01611749565b60039201918201528351611a3c816004840160208801611749565b016004019695505050505050565b602080825282518282018190525f9190848201906040850190845b818110156119c157835183529284019291840191600101611a65565b5f60208284031215611a91575f80fd5b5051919050565b5f8251611aa9818460208701611749565b919091019291505056fea164736f6c6343000818000a",
  "linkReferences": {},
  "deployedLinkReferences": {}
}