{
  "_format": "hh-sol-artifact-1",
  "contractName": "HTTPPublicDecrypt",
  "sourceName": "contracts/HTTPPublicDecrypt.sol",
  "abi": [
    {
      "inputs": [],
      "stateMutability": "nonpayable",
      "type": "constructor"
    },
    {
      "inputs": [],
      "name": "xAddress",
      "outputs": [
        {
          "internalType": "eaddress",
          "name": "",
          "type": "bytes32"
        }
      ],
      "stateMutability": "view",
      "type": "function"
    },
    {
      "inputs": [],
      "name": "xBool",
      "outputs": [
        {
          "internalType": "ebool",
          "name": "",
          "type": "bytes32"
        }
      ],
      "stateMutability": "view",
      "type": "function"
    },
    {
      "inputs": [],
      "name": "xUint32",
      "outputs": [
        {
          "internalType": "euint32",
          "name": "",
          "type": "bytes32"
        }
      ],
      "stateMutability": "view",
      "type": "function"
    }
  ],
  "bytecode": "0x608060405234801561001057600080fd5b5061002d6100226100bd60201b60201c565b61016360201b60201c565b61003d600161017560201b60201c565b6000819055506100546000546101a060201b60201c565b5061006560f26101df60201b60201c565b60018190555061007c6001546101ff60201b60201c565b506100a073fc4382c084fca3f4fb07c3bcda906c01797595a861023e60201b60201c565b6002819055506100b760025461026e60201b60201c565b50610885565b6100c56105c3565b60405180606001604052807350157cffd6bbfa2dece204a89ec419c23ef5755d73ffffffffffffffffffffffffffffffffffffffff16815260200173e3a9105a3a932253a70f126eb1e3b589c643dd2473ffffffffffffffffffffffffffffffffffffffff16815260200173901f8942346f7ab3a01f6d7613119bca447bb03073ffffffffffffffffffffffffffffffffffffffff16815250905090565b610172816102ad60201b60201c565b50565b600061019982610186576000610189565b60015b60ff16600061039860201b60201c565b9050919050565b60006101b18261045660201b60201c565b6101c8576101c5600061017560201b60201c565b91505b6101d78261046660201b60201c565b819050919050565b60006101f88263ffffffff16600461039860201b60201c565b9050919050565b60006102108261057b60201b60201c565b6102275761022460006101df60201b60201c565b91505b6102368261046660201b60201c565b819050919050565b60006102678273ffffffffffffffffffffffffffffffffffffffff16600761039860201b60201c565b9050919050565b600061027f8261058b60201b60201c565b61029657610293600061023e60201b60201c565b91505b6102a58261046660201b60201c565b819050919050565b60006102bd61059b60201b60201c565b905081600001518160000160006101000a81548173ffffffffffffffffffffffffffffffffffffffff021916908373ffffffffffffffffffffffffffffffffffffffff16021790555081602001518160010160006101000a81548173ffffffffffffffffffffffffffffffffffffffff021916908373ffffffffffffffffffffffffffffffffffffffff16021790555081604001518160020160006101000a81548173ffffffffffffffffffffffffffffffffffffffff021916908373ffffffffffffffffffffffffffffffffffffffff1602179055505050565b6000806103a961059b60201b60201c565b90508060010160009054906101000a900473ffffffffffffffffffffffffffffffffffffffff1673ffffffffffffffffffffffffffffffffffffffff16639cd07acb85856040518363ffffffff1660e01b815260040161040a9291906106b6565b6020604051808303816000875af1158015610429573d6000803e3d6000fd5b505050506040513d601f19601f8201168201806040525081019061044d919061071a565b91505092915050565b60008060001b8214159050919050565b600061047661059b60201b60201c565b90506000600167ffffffffffffffff81111561049557610494610747565b5b6040519080825280602002602001820160405280156104c35781602001602082028036833780820191505090505b50905082816000815181106104db576104da610776565b5b6020026020010181815250508160000160009054906101000a900473ffffffffffffffffffffffffffffffffffffffff1673ffffffffffffffffffffffffffffffffffffffff1663fadd2246826040518263ffffffff1660e01b81526004016105449190610863565b600060405180830381600087803b15801561055e57600080fd5b505af1158015610572573d6000803e3d6000fd5b50505050505050565b60008060001b8214159050919050565b60008060001b8214159050919050565b60007f9e7b61f58c47dc699ac88507c4f5bb9f121c03808c5676a8078fe583e4649700905090565b6040518060600160405280600073ffffffffffffffffffffffffffffffffffffffff168152602001600073ffffffffffffffffffffffffffffffffffffffff168152602001600073ffffffffffffffffffffffffffffffffffffffff1681525090565b6000819050919050565b61063981610626565b82525050565b7f4e487b7100000000000000000000000000000000000000000000000000000000600052602160045260246000fd5b6054811061067f5761067e61063f565b5b50565b60008190506106908261066e565b919050565b60006106a082610682565b9050919050565b6106b081610695565b82525050565b60006040820190506106cb6000830185610630565b6106d860208301846106a7565b9392505050565b600080fd5b6000819050919050565b6106f7816106e4565b811461070257600080fd5b50565b600081519050610714816106ee565b92915050565b6000602082840312156107305761072f6106df565b5b600061073e84828501610705565b91505092915050565b7f4e487b7100000000000000000000000000000000000000000000000000000000600052604160045260246000fd5b7f4e487b7100000000000000000000000000000000000000000000000000000000600052603260045260246000fd5b600081519050919050565b600082825260208201905092915050565b6000819050602082019050919050565b6107da816106e4565b82525050565b60006107ec83836107d1565b60208301905092915050565b6000602082019050919050565b6000610810826107a5565b61081a81856107b0565b9350610825836107c1565b8060005b8381101561085657815161083d88826107e0565b9750610848836107f8565b925050600181019050610829565b5085935050505092915050565b6000602082019050818103600083015261087d8184610805565b905092915050565b610182806108946000396000f3fe608060405234801561001057600080fd5b50600436106100415760003560e01c80636319a601146100465780638e5bbd9614610064578063b7e7eb7714610082575b600080fd5b61004e6100a0565b60405161005b91906100dd565b60405180910390f35b61006c6100a6565b6040516100799190610107565b60405180910390f35b61008a6100ac565b6040516100979190610131565b60405180910390f35b60015481565b60005481565b60025481565b6000819050919050565b60006100c7826100b2565b9050919050565b6100d7816100bc565b82525050565b60006020820190506100f260008301846100ce565b92915050565b610101816100bc565b82525050565b600060208201905061011c60008301846100f8565b92915050565b61012b816100bc565b82525050565b60006020820190506101466000830184610122565b9291505056fea2646970667358221220d634102b5ea36715b948bc77b1b236895aa8a6ef25c1c01bb61eb092b57887d164736f6c63430008180033",
  "linkReferences": {},
  "deployedLinkReferences": {}
}