{
    "_format": "hh-sol-artifact-1",
    "contractName": "InputVerifier",
    "sourceName": "contracts/InputVerifier.sol",
    "abi": [
        {
            "inputs": [],
            "stateMutability": "nonpayable",
            "type": "constructor"
        },
        {
            "inputs": [
                {
                    "internalType": "address",
                    "name": "target",
                    "type": "address"
                }
            ],
            "name": "AddressEmptyCode",
            "type": "error"
        },
        {
            "inputs": [],
            "name": "CoprocessorAlreadySigner",
            "type": "error"
        },
        {
            "inputs": [],
            "name": "CoprocessorSignerNull",
            "type": "error"
        },
        {
            "inputs": [],
            "name": "DeserializingInputProofFail",
            "type": "error"
        },
        {
            "inputs": [],
            "name": "ECDSAInvalidSignature",
            "type": "error"
        },
        {
            "inputs": [
                {
                    "internalType": "uint256",
                    "name": "length",
                    "type": "uint256"
                }
            ],
            "name": "ECDSAInvalidSignatureLength",
            "type": "error"
        },
        {
            "inputs": [
                {
                    "internalType": "bytes32",
                    "name": "s",
                    "type": "bytes32"
                }
            ],
            "name": "ECDSAInvalidSignatureS",
            "type": "error"
        },
        {
            "inputs": [
                {
                    "internalType": "address",
                    "name": "implementation",
                    "type": "address"
                }
            ],
            "name": "ERC1967InvalidImplementation",
            "type": "error"
        },
        {
            "inputs": [],
            "name": "ERC1967NonPayable",
            "type": "error"
        },
        {
            "inputs": [],
            "name": "EmptyInputProof",
            "type": "error"
        },
        {
            "inputs": [],
            "name": "FailedCall",
            "type": "error"
        },
        {
            "inputs": [],
            "name": "InvalidChainId",
            "type": "error"
        },
        {
            "inputs": [],
            "name": "InvalidHandleVersion",
            "type": "error"
        },
        {
            "inputs": [],
            "name": "InvalidIndex",
            "type": "error"
        },
        {
            "inputs": [],
            "name": "InvalidInitialization",
            "type": "error"
        },
        {
            "inputs": [],
            "name": "InvalidInputHandle",
            "type": "error"
        },
        {
            "inputs": [
                {
                    "internalType": "address",
                    "name": "signerRecovered",
                    "type": "address"
                }
            ],
            "name": "InvalidSigner",
            "type": "error"
        },
        {
            "inputs": [],
            "name": "NotASigner",
            "type": "error"
        },
        {
            "inputs": [
                {
                    "internalType": "address",
                    "name": "sender",
                    "type": "address"
                }
            ],
            "name": "NotHostOwner",
            "type": "error"
        },
        {
            "inputs": [],
            "name": "NotInitializing",
            "type": "error"
        },
        {
            "inputs": [],
            "name": "NotInitializingFromEmptyProxy",
            "type": "error"
        },
        {
            "inputs": [
                {
                    "internalType": "uint256",
                    "name": "numSignatures",
                    "type": "uint256"
                }
            ],
            "name": "SignatureThresholdNotReached",
            "type": "error"
        },
        {
            "inputs": [],
            "name": "SignaturesVerificationFailed",
            "type": "error"
        },
        {
            "inputs": [],
            "name": "SignersSetIsEmpty",
            "type": "error"
        },
        {
            "inputs": [],
            "name": "ThresholdIsAboveNumberOfSigners",
            "type": "error"
        },
        {
            "inputs": [],
            "name": "ThresholdIsNull",
            "type": "error"
        },
        {
            "inputs": [],
            "name": "UUPSUnauthorizedCallContext",
            "type": "error"
        },
        {
            "inputs": [
                {
                    "internalType": "bytes32",
                    "name": "slot",
                    "type": "bytes32"
                }
            ],
            "name": "UUPSUnsupportedProxiableUUID",
            "type": "error"
        },
        {
            "inputs": [],
            "name": "ZeroSignature",
            "type": "error"
        },
        {
            "anonymous": false,
            "inputs": [],
            "name": "EIP712DomainChanged",
            "type": "event"
        },
        {
            "anonymous": false,
            "inputs": [
                {
                    "indexed": false,
                    "internalType": "uint64",
                    "name": "version",
                    "type": "uint64"
                }
            ],
            "name": "Initialized",
            "type": "event"
        },
        {
            "anonymous": false,
            "inputs": [
                {
                    "indexed": false,
                    "internalType": "address[]",
                    "name": "newSignersSet",
                    "type": "address[]"
                },
                {
                    "indexed": false,
                    "internalType": "uint256",
                    "name": "newThreshold",
                    "type": "uint256"
                }
            ],
            "name": "NewContextSet",
            "type": "event"
        },
        {
            "anonymous": false,
            "inputs": [
                {
                    "indexed": true,
                    "internalType": "address",
                    "name": "implementation",
                    "type": "address"
                }
            ],
            "name": "Upgraded",
            "type": "event"
        },
        {
            "inputs": [],
            "name": "EIP712_INPUT_VERIFICATION_TYPE",
            "outputs": [
                {
                    "internalType": "string",
                    "name": "",
                    "type": "string"
                }
            ],
            "stateMutability": "view",
            "type": "function"
        },
        {
            "inputs": [],
            "name": "EIP712_INPUT_VERIFICATION_TYPEHASH",
            "outputs": [
                {
                    "internalType": "bytes32",
                    "name": "",
                    "type": "bytes32"
                }
            ],
            "stateMutability": "view",
            "type": "function"
        },
        {
            "inputs": [],
            "name": "UPGRADE_INTERFACE_VERSION",
            "outputs": [
                {
                    "internalType": "string",
                    "name": "",
                    "type": "string"
                }
            ],
            "stateMutability": "view",
            "type": "function"
        },
        {
            "inputs": [],
            "name": "cleanTransientStorage",
            "outputs": [],
            "stateMutability": "nonpayable",
            "type": "function"
        },
        {
            "inputs": [
                {
                    "internalType": "address[]",
                    "name": "newSignersSet",
                    "type": "address[]"
                },
                {
                    "internalType": "uint256",
                    "name": "newThreshold",
                    "type": "uint256"
                }
            ],
            "name": "defineNewContext",
            "outputs": [],
            "stateMutability": "nonpayable",
            "type": "function"
        },
        {
            "inputs": [],
            "name": "eip712Domain",
            "outputs": [
                {
                    "internalType": "bytes1",
                    "name": "fields",
                    "type": "bytes1"
                },
                {
                    "internalType": "string",
                    "name": "name",
                    "type": "string"
                },
                {
                    "internalType": "string",
                    "name": "version",
                    "type": "string"
                },
                {
                    "internalType": "uint256",
                    "name": "chainId",
                    "type": "uint256"
                },
                {
                    "internalType": "address",
                    "name": "verifyingContract",
                    "type": "address"
                },
                {
                    "internalType": "bytes32",
                    "name": "salt",
                    "type": "bytes32"
                },
                {
                    "internalType": "uint256[]",
                    "name": "extensions",
                    "type": "uint256[]"
                }
            ],
            "stateMutability": "view",
            "type": "function"
        },
        {
            "inputs": [],
            "name": "getCoprocessorSigners",
            "outputs": [
                {
                    "internalType": "address[]",
                    "name": "",
                    "type": "address[]"
                }
            ],
            "stateMutability": "view",
            "type": "function"
        },
        {
            "inputs": [],
            "name": "getHandleVersion",
            "outputs": [
                {
                    "internalType": "uint8",
                    "name": "",
                    "type": "uint8"
                }
            ],
            "stateMutability": "pure",
            "type": "function"
        },
        {
            "inputs": [],
            "name": "getThreshold",
            "outputs": [
                {
                    "internalType": "uint256",
                    "name": "",
                    "type": "uint256"
                }
            ],
            "stateMutability": "view",
            "type": "function"
        },
        {
            "inputs": [],
            "name": "getVersion",
            "outputs": [
                {
                    "internalType": "string",
                    "name": "",
                    "type": "string"
                }
            ],
            "stateMutability": "pure",
            "type": "function"
        },
        {
            "inputs": [
                {
                    "internalType": "address",
                    "name": "verifyingContractSource",
                    "type": "address"
                },
                {
                    "internalType": "uint64",
                    "name": "chainIDSource",
                    "type": "uint64"
                },
                {
                    "internalType": "address[]",
                    "name": "initialSigners",
                    "type": "address[]"
                },
                {
                    "internalType": "uint256",
                    "name": "initialThreshold",
                    "type": "uint256"
                }
            ],
            "name": "initializeFromEmptyProxy",
            "outputs": [],
            "stateMutability": "nonpayable",
            "type": "function"
        },
        {
            "inputs": [
                {
                    "internalType": "address",
                    "name": "account",
                    "type": "address"
                }
            ],
            "name": "isSigner",
            "outputs": [
                {
                    "internalType": "bool",
                    "name": "",
                    "type": "bool"
                }
            ],
            "stateMutability": "view",
            "type": "function"
        },
        {
            "inputs": [],
            "name": "proxiableUUID",
            "outputs": [
                {
                    "internalType": "bytes32",
                    "name": "",
                    "type": "bytes32"
                }
            ],
            "stateMutability": "view",
            "type": "function"
        },
        {
            "inputs": [
                {
                    "internalType": "address[]",
                    "name": "newSignersSet",
                    "type": "address[]"
                },
                {
                    "internalType": "uint256",
                    "name": "threshold",
                    "type": "uint256"
                }
            ],
            "name": "reinitializeV2",
            "outputs": [],
            "stateMutability": "nonpayable",
            "type": "function"
        },
        {
            "inputs": [
                {
                    "internalType": "uint256",
                    "name": "threshold",
                    "type": "uint256"
                }
            ],
            "name": "setThreshold",
            "outputs": [],
            "stateMutability": "nonpayable",
            "type": "function"
        },
        {
            "inputs": [
                {
                    "internalType": "address",
                    "name": "newImplementation",
                    "type": "address"
                },
                {
                    "internalType": "bytes",
                    "name": "data",
                    "type": "bytes"
                }
            ],
            "name": "upgradeToAndCall",
            "outputs": [],
            "stateMutability": "payable",
            "type": "function"
        },
        {
            "inputs": [
                {
                    "components": [
                        {
                            "internalType": "address",
                            "name": "userAddress",
                            "type": "address"
                        },
                        {
                            "internalType": "address",
                            "name": "contractAddress",
                            "type": "address"
                        }
                    ],
                    "internalType": "struct FHEVMExecutor.ContextUserInputs",
                    "name": "context",
                    "type": "tuple"
                },
                {
                    "internalType": "bytes32",
                    "name": "inputHandle",
                    "type": "bytes32"
                },
                {
                    "internalType": "bytes",
                    "name": "inputProof",
                    "type": "bytes"
                }
            ],
            "name": "verifyInput",
            "outputs": [
                {
                    "internalType": "bytes32",
                    "name": "",
                    "type": "bytes32"
                }
            ],
            "stateMutability": "nonpayable",
            "type": "function"
        }
    ],
    "bytecode": "0x60a06040523060805234801562000014575f80fd5b506200001f62000025565b620000d9565b7ff0c57e16840df040f15088dc2f81fe391c3923bec73e23a9662efc9c229c6a00805468010000000000000000900460ff1615620000765760405163f92ee8a960e01b815260040160405180910390fd5b80546001600160401b0390811614620000d65780546001600160401b0319166001600160401b0390811782556040519081527fc7f505b2f371ae2175ee4913f4499e1f2633a7b5936321eed1cdaeb6115181d29060200160405180910390a15b50565b608051612bea620001005f395f81816113df0152818161140801526116110152612bea5ff3fe608060405260043610610109575f3560e01c806384b0196e116100a1578063ad3cb1cc11610071578063e6317df511610057578063e6317df514610317578063e75235b814610336578063e7d9e40714610369575f80fd5b8063ad3cb1cc146102b0578063da53c47d146102f8575f80fd5b806384b0196e146102355780638b2181231461025c5780639164d0ae14610270578063960bfe0414610291575f80fd5b806354130ccd116100dc57806354130ccd146101825780635eed7675146101965780637a297f4b146101b55780637df73e27146101cf575f80fd5b80630d8e6e2c1461010d57806335334c23146101375780634f1ef2861461014d57806352d1902d14610160575b5f80fd5b348015610118575f80fd5b50610121610388565b60405161012e9190612383565b60405180910390f35b348015610142575f80fd5b5061014b610403565b005b61014b61015b36600461245a565b61042d565b34801561016b575f80fd5b5061017461044c565b60405190815260200161012e565b34801561018d575f80fd5b5061012161047a565b3480156101a1575f80fd5b5061014b6101b03660046124a7565b610496565b3480156101c0575f80fd5b506040515f815260200161012e565b3480156101da575f80fd5b506102256101e9366004612542565b6001600160a01b03165f9081527f3f7d7a96c8c7024e92d37afccfc9b87773a33b9bc22e23134b683e74a50ace00602052604090205460ff1690565b604051901515815260200161012e565b348015610240575f80fd5b50610249610660565b60405161012e979695949392919061255d565b348015610267575f80fd5b5061017461074a565b34801561027b575f80fd5b5061028461076d565b60405161012e9190612637565b34801561029c575f80fd5b5061014b6102ab366004612649565b6107ef565b3480156102bb575f80fd5b506101216040518060400160405280600581526020017f352e302e3000000000000000000000000000000000000000000000000000000081525081565b348015610303575f80fd5b5061014b610312366004612660565b61091f565b348015610322575f80fd5b50610174610331366004612713565b610c69565b348015610341575f80fd5b507f3f7d7a96c8c7024e92d37afccfc9b87773a33b9bc22e23134b683e74a50ace0254610174565b348015610374575f80fd5b5061014b610383366004612660565b611250565b60606040518060400160405280600d81526020017f496e7075745665726966696572000000000000000000000000000000000000008152506103c95f611337565b6103d36002611337565b6103dc5f611337565b6040516020016103ef94939291906127b6565b604051602081830303815290604052905090565b5f5c5f805d600190810190805b8281101561042857805c5f825d5f815d508101610410565b505050565b6104356113d4565b61043e8261148d565b6104488282611537565b5050565b5f610455611606565b507f360894a13ba1a3210667c828492db98dca3e2076cc3735a920a3ca505d382bbc90565b6040518060a00160405280607f8152602001612b5f607f913981565b7ff0c57e16840df040f15088dc2f81fe391c3923bec73e23a9662efc9c229c6a005467ffffffffffffffff1667ffffffffffffffff166001146104ec57604051636f4f731f60e01b815260040160405180910390fd5b7ff0c57e16840df040f15088dc2f81fe391c3923bec73e23a9662efc9c229c6a00805460039190600160401b900460ff16806105365750805467ffffffffffffffff808416911610155b156105545760405163f92ee8a960e01b815260040160405180910390fd5b805468ffffffffffffffffff191667ffffffffffffffff831617600160401b178155604080518082018252601181527f496e707574566572696669636174696f6e000000000000000000000000000000602080830191909152825180840190935260018352603160f81b908301526105cd91898961164f565b61060a8585808060200260200160405190810160405280939291908181526020018383602002808284375f9201919091525087925061091f915050565b805468ff00000000000000001916815560405167ffffffffffffffff831681527fc7f505b2f371ae2175ee4913f4499e1f2633a7b5936321eed1cdaeb6115181d29060200160405180910390a150505050505050565b5f60608082808083817fe910845fd818f61127c84f3586776436a37dead33625056c65162537e3373600805490915015801561069e57506001810154155b6106ef5760405162461bcd60e51b815260206004820152601560248201527f4549503731323a20556e696e697469616c697a6564000000000000000000000060448201526064015b60405180910390fd5b6106f7611669565b6106ff611733565b60049290920154604080515f80825260208201909252600f60f81b9c939b5093995067ffffffffffffffff600160a01b83041698506001600160a01b03909116965094509092509050565b6040518060a00160405280607f8152602001612b5f607f91398051906020012081565b60605f7f3f7d7a96c8c7024e92d37afccfc9b87773a33b9bc22e23134b683e74a50ace00600181018054604080516020808402820181019092528281529394508301828280156107e457602002820191905f5260205f20905b81546001600160a01b031681526001909101906020018083116107c6575b505050505091505090565b7350157cffd6bbfa2dece204a89ec419c23ef5755d6001600160a01b0316638da5cb5b6040518163ffffffff1660e01b8152600401602060405180830381865afa15801561083f573d5f803e3d5ffd5b505050506040513d601f19601f820116820180604052508101906108639190612833565b6001600160a01b0316336001600160a01b0316146108965760405163021bfda160e41b81523360048201526024016106e6565b61089f81611784565b6040517f3f7d7a96c8c7024e92d37afccfc9b87773a33b9bc22e23134b683e74a50ace00907f1dcd7e1de916ad3be0c1097968029899e2e7d0195cfa6967e16520c0e8d07cea90610913907f3f7d7a96c8c7024e92d37afccfc9b87773a33b9bc22e23134b683e74a50ace0190859061284e565b60405180910390a15050565b7350157cffd6bbfa2dece204a89ec419c23ef5755d6001600160a01b0316638da5cb5b6040518163ffffffff1660e01b8152600401602060405180830381865afa15801561096f573d5f803e3d5ffd5b505050506040513d601f19601f820116820180604052508101906109939190612833565b6001600160a01b0316336001600160a01b0316146109c65760405163021bfda160e41b81523360048201526024016106e6565b81515f8190036109e957604051631286e95160e01b815260040160405180910390fd5b7f3f7d7a96c8c7024e92d37afccfc9b87773a33b9bc22e23134b683e74a50ace018054604080516020808402820181019092528281527f3f7d7a96c8c7024e92d37afccfc9b87773a33b9bc22e23134b683e74a50ace00935f939192909190830182828015610a7f57602002820191905f5260205f20905b81546001600160a01b03168152600190910190602001808311610a61575b505083519394505f925050505b81811015610b30575f845f015f858481518110610aab57610aab6128a9565b60200260200101516001600160a01b03166001600160a01b031681526020019081526020015f205f6101000a81548160ff02191690831515021790555083600101805480610afb57610afb6128bd565b5f8281526020902081015f19908101805473ffffffffffffffffffffffffffffffffffffffff19169055019055600101610a8c565b505f5b84811015610c1e575f878281518110610b4e57610b4e6128a9565b602002602001015190505f6001600160a01b0316816001600160a01b031603610b8a576040516304069ca760e21b815260040160405180910390fd5b6001600160a01b0381165f9081526020869052604090205460ff1615610bc35760405163572de7c960e11b815260040160405180910390fd5b6001600160a01b03165f818152602086815260408220805460ff19166001908117909155878101805480830182559084529190922001805473ffffffffffffffffffffffffffffffffffffffff191690921790915501610b33565b50610c2885611784565b7f1dcd7e1de916ad3be0c1097968029899e2e7d0195cfa6967e16520c0e8d07cea8686604051610c599291906128d1565b60405180910390a1505050505050565b5f805f610c7e84875f0151886020015161180e565b909250905067ffffffffffffffff601086901c16468114610cb257604051633d23e4d160e11b815260040160405180910390fd5b8560ff605082901c168461116a5786515f819003610ce3576040516359240e8b60e11b815260040160405180910390fd5b5f885f81518110610cf657610cf66128a9565b602001015160f81c60f81b60f81c60ff1690505f89600181518110610d1d57610d1d6128a9565b016020015160f81c90508382111580610d36575060fe84115b15610d54576040516363df817160e01b815260040160405180910390fd5b5f610d60826041612906565b610d6b846020612906565b610d7690600261291d565b610d80919061291d565b905080841015610da357604051631817ecd760e01b815260040160405180910390fd5b5f8367ffffffffffffffff811115610dbd57610dbd6123a9565b604051908082528060200260200182016040528015610de6578160200160208202803683370190505b5090505f5b84811015610e4657602081028d016022015160ff811615610e1f576040516317df86d560e21b815260040160405180910390fd5b80838381518110610e3257610e326128a9565b602090810291909101015250600101610deb565b505f8367ffffffffffffffff811115610e6157610e616123a9565b604051908082528060200260200182016040528015610e9457816020015b6060815260200190600190039081610e7f5790505b5090505f5b84811015610fa357604080516041808252608082019092529060208201818036833701905050828281518110610ed157610ed16128a9565b60200260200101819052505f5b6041811015610f9a578e81610ef4846041612906565b610eff8a6020612906565b610f0a90600261291d565b610f14919061291d565b610f1e919061291d565b81518110610f2e57610f2e6128a9565b602001015160f81c60f81b838381518110610f4b57610f4b6128a9565b60200260200101518281518110610f6457610f646128a9565b60200101907effffffffffffffffffffffffffffffffffffffffffffffffffffffffffffff191690815f1a905350600101610ede565b50600101610e99565b50610fe56040518060a00160405280606081526020015f6001600160a01b031681526020015f6001600160a01b031681526020015f8152602001606081525090565b82815f01819052508f5f015181602001906001600160a01b031690816001600160a01b0316815250508f6020015181604001906001600160a01b031690816001600160a01b031681525050468160600181815250505f848f516110489190612930565b90508067ffffffffffffffff811115611063576110636123a9565b6040519080825280601f01601f19166020018201604052801561108d576020820181803683370190505b5060808301525f5b8181101561110f578f6110a8828861291d565b815181106110b8576110b86128a9565b602001015160f81c60f81b836080015182815181106110d9576110d96128a9565b60200101907effffffffffffffffffffffffffffffffffffffffffffffffffffffffffffff191690815f1a905350600101611095565b5061111a828461184e565b6111238c611881565b838981518110611135576111356128a9565b60200260200101515f1c8a1461115d57604051624b1bf160e31b815260040160405180910390fd5b5050505050505050611242565b5f875f8151811061117d5761117d6128a9565b016020015160f81c90508181111580611196575060fe82115b156111b4576040516363df817160e01b815260040160405180910390fd5b5f805b602081101561121f576111cb81601f612930565b6111d6906008612906565b8a826111e3876020612906565b6111ee90600261291d565b6111f8919061291d565b81518110611208576112086128a9565b016020015160f81c901b91909117906001016111b7565b5083811461123f57604051624b1bf160e31b815260040160405180910390fd5b50505b5093505050505b9392505050565b7ff0c57e16840df040f15088dc2f81fe391c3923bec73e23a9662efc9c229c6a00805460039190600160401b900460ff168061129a5750805467ffffffffffffffff808416911610155b156112b85760405163f92ee8a960e01b815260040160405180910390fd5b805468ffffffffffffffffff191667ffffffffffffffff831617600160401b1781556112e4848461091f565b805468ff00000000000000001916815560405167ffffffffffffffff831681527fc7f505b2f371ae2175ee4913f4499e1f2633a7b5936321eed1cdaeb6115181d29060200160405180910390a150505050565b60605f61134383611894565b60010190505f8167ffffffffffffffff811115611362576113626123a9565b6040519080825280601f01601f19166020018201604052801561138c576020820181803683370190505b5090508181016020015b5f19017f3031323334353637383961626364656600000000000000000000000000000000600a86061a8153600a850494508461139657509392505050565b306001600160a01b037f000000000000000000000000000000000000000000000000000000000000000016148061146d57507f00000000000000000000000000000000000000000000000000000000000000006001600160a01b03166114617f360894a13ba1a3210667c828492db98dca3e2076cc3735a920a3ca505d382bbc546001600160a01b031690565b6001600160a01b031614155b1561148b5760405163703e46dd60e11b815260040160405180910390fd5b565b7350157cffd6bbfa2dece204a89ec419c23ef5755d6001600160a01b0316638da5cb5b6040518163ffffffff1660e01b8152600401602060405180830381865afa1580156114dd573d5f803e3d5ffd5b505050506040513d601f19601f820116820180604052508101906115019190612833565b6001600160a01b0316336001600160a01b0316146115345760405163021bfda160e41b81523360048201526024016106e6565b50565b816001600160a01b03166352d1902d6040518163ffffffff1660e01b8152600401602060405180830381865afa925050508015611591575060408051601f3d908101601f1916820190925261158e91810190612943565b60015b6115b957604051634c9c8ce360e01b81526001600160a01b03831660048201526024016106e6565b7f360894a13ba1a3210667c828492db98dca3e2076cc3735a920a3ca505d382bbc81146115fc57604051632a87526960e21b8152600481018290526024016106e6565b6104288383611976565b306001600160a01b037f0000000000000000000000000000000000000000000000000000000000000000161461148b5760405163703e46dd60e11b815260040160405180910390fd5b6116576119cb565b61166384848484611a14565b50505050565b7fe910845fd818f61127c84f3586776436a37dead33625056c65162537e337360280546060917fe910845fd818f61127c84f3586776436a37dead33625056c65162537e3373600916116ba9061295a565b80601f01602080910402602001604051908101604052809291908181526020018280546116e69061295a565b80156107e45780601f10611708576101008083540402835291602001916107e4565b820191905f5260205f20905b8154815290600101906020018083116117145750939695505050505050565b7fe910845fd818f61127c84f3586776436a37dead33625056c65162537e337360380546060917fe910845fd818f61127c84f3586776436a37dead33625056c65162537e3373600916116ba9061295a565b805f036117a457604051630151f13160e71b815260040160405180910390fd5b7f3f7d7a96c8c7024e92d37afccfc9b87773a33b9bc22e23134b683e74a50ace01547f3f7d7a96c8c7024e92d37afccfc9b87773a33b9bc22e23134b683e74a50ace0090821115611808576040516335194e6360e01b815260040160405180910390fd5b60020155565b5f805f8084868860405160200161182793929190612992565b60408051808303601f190181529190528051602090910120805c9890975095505050505050565b5f61185883611aee565b90506118648183611bc5565b61042857604051634b506ccd60e01b815260040160405180910390fd5b6001815d60015f5c0181815d805f5d5050565b5f807a184f03e93ff9f4daa797ed6e38ed64bf6a1f01000000000000000083106118dc577a184f03e93ff9f4daa797ed6e38ed64bf6a1f010000000000000000830492506040015b6d04ee2d6d415b85acef81000000008310611908576d04ee2d6d415b85acef8100000000830492506020015b662386f26fc10000831061192657662386f26fc10000830492506010015b6305f5e100831061193e576305f5e100830492506008015b612710831061195257612710830492506004015b60648310611964576064830492506002015b600a8310611970576001015b92915050565b61197f82611da0565b6040516001600160a01b038316907fbc7cd75a20ee27fd9adebab32041f755214dbc6bffa90cc0225b39da2e5c2d3b905f90a28051156119c3576104288282611e23565b610448611e95565b7ff0c57e16840df040f15088dc2f81fe391c3923bec73e23a9662efc9c229c6a0054600160401b900460ff1661148b57604051631afcd79f60e31b815260040160405180910390fd5b611a1c6119cb565b7fe910845fd818f61127c84f3586776436a37dead33625056c65162537e337360480546001600160a01b0384167fffffffff0000000000000000000000000000000000000000000000000000000090911617600160a01b67ffffffffffffffff8416021790557fe910845fd818f61127c84f3586776436a37dead33625056c65162537e33736007fe910845fd818f61127c84f3586776436a37dead33625056c65162537e3373602611ace8682612a22565b5060038101611add8582612a22565b505f80825560019091015550505050565b5f6119706040518060a00160405280607f8152602001612b5f607f9139805160209182012084516040519192611b249201612ae2565b604051602081830303815290604052805190602001208460200151856040015186606001518760800151604051602001611b5e9190612b17565b60408051601f198184030181528282528051602091820120908301979097528101949094526001600160a01b0392831660608501529116608083015260a082015260c081019190915260e00160405160208183030381529060405280519060200120611eb4565b80515f90808203611be957604051635985192160e11b815260040160405180910390fd5b5f611c127f3f7d7a96c8c7024e92d37afccfc9b87773a33b9bc22e23134b683e74a50ace025490565b905080821015611c3857604051632e57ff8360e21b8152600481018390526024016106e6565b5f8267ffffffffffffffff811115611c5257611c526123a9565b604051908082528060200260200182016040528015611c7b578160200160208202803683370190505b5090505f805b84811015611d89575f611cad89898481518110611ca057611ca06128a9565b6020026020010151611ee0565b9050611cef816001600160a01b03165f9081527f3f7d7a96c8c7024e92d37afccfc9b87773a33b9bc22e23134b683e74a50ace00602052604090205460ff1690565b611d175760405163bf18af4360e01b81526001600160a01b03821660048201526024016106e6565b805c611d605780848481518110611d3057611d306128a9565b6001600160a01b039092166020928302919091019091015282611d5281612b32565b935050611d60816001611ef4565b848310611d8057611d718484611efb565b60019650505050505050611970565b50600101611c81565b50611d948282611efb565b505f9695505050505050565b806001600160a01b03163b5f03611dd557604051634c9c8ce360e01b81526001600160a01b03821660048201526024016106e6565b7f360894a13ba1a3210667c828492db98dca3e2076cc3735a920a3ca505d382bbc805473ffffffffffffffffffffffffffffffffffffffff19166001600160a01b0392909216919091179055565b60605f80846001600160a01b031684604051611e3f9190612b17565b5f60405180830381855af49150503d805f8114611e77576040519150601f19603f3d011682016040523d82523d5f602084013e611e7c565b606091505b5091509150611e8c858383611f30565b95945050505050565b341561148b5760405163b398979f60e01b815260040160405180910390fd5b5f611970611ec0611f8c565b8360405161190160f01b8152600281019290925260228201526042902090565b5f80611eec8484611f9a565b949350505050565b80825d5050565b5f5b8181101561042857611f28838281518110611f1a57611f1a6128a9565b60200260200101515f611ef4565b600101611efd565b606082611f4557611f4082611fc2565b611249565b8151158015611f5c57506001600160a01b0384163b155b15611f8557604051639996b31560e01b81526001600160a01b03851660048201526024016106e6565b5080611249565b5f611f95611feb565b905090565b5f805f80611fa8868661209d565b925092509250611fb882826120e6565b5090949350505050565b805115611fd25780518082602001fd5b60405163d6bda27560e01b815260040160405180910390fd5b5f7fe910845fd818f61127c84f3586776436a37dead33625056c65162537e33736007f8b73c3c69bb8fe3d512ecc4cf759cc79239f7b179b0ffacaa9a75d522b39400f61203661219e565b61203e612219565b60048401546040805160208101959095528401929092526060830152600160a01b810467ffffffffffffffff1660808301526001600160a01b031660a082015260c0016040516020818303038152906040528051906020012091505090565b5f805f83516041036120d4576020840151604085015160608601515f1a6120c68882858561226e565b9550955095505050506120df565b505081515f91506002905b9250925092565b5f8260038111156120f9576120f9612b4a565b03612102575050565b600182600381111561211657612116612b4a565b036121345760405163f645eedf60e01b815260040160405180910390fd5b600282600381111561214857612148612b4a565b036121695760405163fce698f760e01b8152600481018290526024016106e6565b600382600381111561217d5761217d612b4a565b03610448576040516335e2f38360e21b8152600481018290526024016106e6565b5f7fe910845fd818f61127c84f3586776436a37dead33625056c65162537e3373600816121c9611669565b8051909150156121e157805160209091012092915050565b815480156121f0579392505050565b7fc5d2460186f7233c927e7db2dcc703c0e500b653ca82273b7bfad8045d85a470935050505090565b5f7fe910845fd818f61127c84f3586776436a37dead33625056c65162537e337360081612244611733565b80519091501561225c57805160209091012092915050565b600182015480156121f0579392505050565b5f80807f7fffffffffffffffffffffffffffffff5d576e7357a4501ddfe92f46681b20a08411156122a757505f9150600390508261232c565b604080515f808252602082018084528a905260ff891692820192909252606081018790526080810186905260019060a0016020604051602081039080840390855afa1580156122f8573d5f803e3d5ffd5b5050604051601f1901519150506001600160a01b03811661232357505f92506001915082905061232c565b92505f91508190505b9450945094915050565b5f5b83811015612350578181015183820152602001612338565b50505f910152565b5f815180845261236f816020860160208601612336565b601f01601f19169290920160200192915050565b602081525f6112496020830184612358565b6001600160a01b0381168114611534575f80fd5b634e487b7160e01b5f52604160045260245ffd5b604051601f8201601f1916810167ffffffffffffffff811182821017156123e6576123e66123a9565b604052919050565b5f82601f8301126123fd575f80fd5b813567ffffffffffffffff811115612417576124176123a9565b61242a601f8201601f19166020016123bd565b81815284602083860101111561243e575f80fd5b816020850160208301375f918101602001919091529392505050565b5f806040838503121561246b575f80fd5b823561247681612395565b9150602083013567ffffffffffffffff811115612491575f80fd5b61249d858286016123ee565b9150509250929050565b5f805f805f608086880312156124bb575f80fd5b85356124c681612395565b9450602086013567ffffffffffffffff80821682146124e3575f80fd5b909450604087013590808211156124f8575f80fd5b818801915088601f83011261250b575f80fd5b813581811115612519575f80fd5b8960208260051b850101111561252d575f80fd5b96999598505060200195606001359392505050565b5f60208284031215612552575f80fd5b813561124981612395565b60ff60f81b881681525f602060e0602084015261257d60e084018a612358565b838103604085015261258f818a612358565b606085018990526001600160a01b038816608086015260a0850187905284810360c0860152855180825260208088019350909101905f5b818110156125e2578351835292840192918401916001016125c6565b50909c9b505050505050505050505050565b5f815180845260208085019450602084015f5b8381101561262c5781516001600160a01b031687529582019590820190600101612607565b509495945050505050565b602081525f61124960208301846125f4565b5f60208284031215612659575f80fd5b5035919050565b5f8060408385031215612671575f80fd5b823567ffffffffffffffff80821115612688575f80fd5b818501915085601f83011261269b575f80fd5b81356020828211156126af576126af6123a9565b8160051b92506126c08184016123bd565b82815292840181019281810190898511156126d9575f80fd5b948201945b8486101561270357853593506126f384612395565b83825294820194908201906126de565b9997909101359750505050505050565b5f805f8385036080811215612726575f80fd5b6040811215612733575f80fd5b506040516040810167ffffffffffffffff8282108183111715612758576127586123a9565b816040528635915061276982612395565b90825260208601359061277b82612395565b81602084015282955060408701359450606087013592508083111561279e575f80fd5b50506127ac868287016123ee565b9150509250925092565b5f85516127c7818460208a01612336565b61103b60f11b90830190815285516127e6816002840160208a01612336565b808201915050601760f91b806002830152855161280a816003850160208a01612336565b60039201918201528351612825816004840160208801612336565b016004019695505050505050565b5f60208284031215612843575f80fd5b815161124981612395565b5f6040820160408352808554808352606085019150865f526020925060205f205f5b828110156128955781546001600160a01b031684529284019260019182019101612870565b505050602093909301939093525092915050565b634e487b7160e01b5f52603260045260245ffd5b634e487b7160e01b5f52603160045260245ffd5b604081525f6128e360408301856125f4565b90508260208301529392505050565b634e487b7160e01b5f52601160045260245ffd5b8082028115828204841417611970576119706128f2565b80820180821115611970576119706128f2565b81810381811115611970576119706128f2565b5f60208284031215612953575f80fd5b5051919050565b600181811c9082168061296e57607f821691505b60208210810361298c57634e487b7160e01b5f52602260045260245ffd5b50919050565b5f6bffffffffffffffffffffffff19808660601b168352808560601b1660148401525082516129c8816028850160208701612336565b91909101602801949350505050565b601f82111561042857805f5260205f20601f840160051c810160208510156129fc5750805b601f840160051c820191505b81811015612a1b575f8155600101612a08565b5050505050565b815167ffffffffffffffff811115612a3c57612a3c6123a9565b612a5081612a4a845461295a565b846129d7565b602080601f831160018114612a83575f8415612a6c5750858301515b5f19600386901b1c1916600185901b178555612ada565b5f85815260208120601f198616915b82811015612ab157888601518255948401946001909101908401612a92565b5085821015612ace57878501515f19600388901b60f8161c191681555b505060018460011b0185555b505050505050565b81515f9082906020808601845b83811015612b0b57815185529382019390820190600101612aef565b50929695505050505050565b5f8251612b28818460208701612336565b9190910192915050565b5f60018201612b4357612b436128f2565b5060010190565b634e487b7160e01b5f52602160045260245ffdfe43697068657274657874566572696669636174696f6e28627974657333325b5d20637448616e646c65732c616464726573732075736572416464726573732c6164647265737320636f6e7472616374416464726573732c75696e7432353620636f6e7472616374436861696e49642c62797465732065787472614461746129a164736f6c6343000818000a",
    "linkReferences": {},
    "deployedLinkReferences": {}
}