{
    "_format": "hh-sol-artifact-1",
    "contractName": "RelayerSDKTest",
    "sourceName": "contracts/RelayerSdkTest.sol",
    "abi": [
        {
            "inputs": [],
            "name": "ZamaProtocolUnsupported",
            "type": "error"
        },
        {
            "inputs": [
                {
                    "internalType": "externalEaddress",
                    "name": "encryptedAddress",
                    "type": "bytes32"
                },
                {
                    "internalType": "bytes",
                    "name": "inputProof",
                    "type": "bytes"
                }
            ],
            "name": "allowSenderExternalEaddress",
            "outputs": [
                {
                    "internalType": "eaddress",
                    "name": "xAddress",
                    "type": "bytes32"
                }
            ],
            "stateMutability": "nonpayable",
            "type": "function"
        },
        {
            "inputs": [
                {
                    "internalType": "externalEbool",
                    "name": "encryptedBool",
                    "type": "bytes32"
                },
                {
                    "internalType": "bytes",
                    "name": "inputProof",
                    "type": "bytes"
                }
            ],
            "name": "allowSenderExternalEbool",
            "outputs": [
                {
                    "internalType": "ebool",
                    "name": "xBool",
                    "type": "bytes32"
                }
            ],
            "stateMutability": "nonpayable",
            "type": "function"
        },
        {
            "inputs": [
                {
                    "internalType": "externalEuint128",
                    "name": "encryptedUint128",
                    "type": "bytes32"
                },
                {
                    "internalType": "bytes",
                    "name": "inputProof",
                    "type": "bytes"
                }
            ],
            "name": "allowSenderExternalEuint128",
            "outputs": [
                {
                    "internalType": "euint128",
                    "name": "xUint128",
                    "type": "bytes32"
                }
            ],
            "stateMutability": "nonpayable",
            "type": "function"
        },
        {
            "inputs": [
                {
                    "internalType": "externalEuint16",
                    "name": "encryptedUint16",
                    "type": "bytes32"
                },
                {
                    "internalType": "bytes",
                    "name": "inputProof",
                    "type": "bytes"
                }
            ],
            "name": "allowSenderExternalEuint16",
            "outputs": [
                {
                    "internalType": "euint16",
                    "name": "xUint16",
                    "type": "bytes32"
                }
            ],
            "stateMutability": "nonpayable",
            "type": "function"
        },
        {
            "inputs": [
                {
                    "internalType": "externalEuint8",
                    "name": "encryptedUint8",
                    "type": "bytes32"
                },
                {
                    "internalType": "bytes",
                    "name": "inputProof",
                    "type": "bytes"
                }
            ],
            "name": "allowSenderExternalEuint8",
            "outputs": [
                {
                    "internalType": "euint8",
                    "name": "xUint8",
                    "type": "bytes32"
                }
            ],
            "stateMutability": "nonpayable",
            "type": "function"
        },
        {
            "inputs": [
                {
                    "internalType": "externalEbool",
                    "name": "encryptedBool",
                    "type": "bytes32"
                },
                {
                    "internalType": "externalEuint8",
                    "name": "encryptedUint8",
                    "type": "bytes32"
                },
                {
                    "internalType": "externalEuint128",
                    "name": "encryptedUint128",
                    "type": "bytes32"
                },
                {
                    "internalType": "externalEaddress",
                    "name": "encryptedAddress",
                    "type": "bytes32"
                },
                {
                    "internalType": "bytes",
                    "name": "inputProof",
                    "type": "bytes"
                }
            ],
            "name": "allowSenderExternalMixed",
            "outputs": [
                {
                    "internalType": "ebool",
                    "name": "xBool",
                    "type": "bytes32"
                },
                {
                    "internalType": "euint8",
                    "name": "xUint8",
                    "type": "bytes32"
                },
                {
                    "internalType": "euint128",
                    "name": "xUint128",
                    "type": "bytes32"
                },
                {
                    "internalType": "eaddress",
                    "name": "xAddress",
                    "type": "bytes32"
                }
            ],
            "stateMutability": "nonpayable",
            "type": "function"
        },
        {
            "inputs": [],
            "name": "confidentialProtocolId",
            "outputs": [
                {
                    "internalType": "uint256",
                    "name": "",
                    "type": "uint256"
                }
            ],
            "stateMutability": "view",
            "type": "function"
        },
        {
            "inputs": [
                {
                    "internalType": "externalEaddress",
                    "name": "encryptedAddress",
                    "type": "bytes32"
                },
                {
                    "internalType": "bytes",
                    "name": "inputProof",
                    "type": "bytes"
                }
            ],
            "name": "makePubliclyDecryptableExternalEaddress",
            "outputs": [
                {
                    "internalType": "eaddress",
                    "name": "xAddress",
                    "type": "bytes32"
                }
            ],
            "stateMutability": "nonpayable",
            "type": "function"
        },
        {
            "inputs": [
                {
                    "internalType": "externalEbool",
                    "name": "encryptedBool",
                    "type": "bytes32"
                },
                {
                    "internalType": "bytes",
                    "name": "inputProof",
                    "type": "bytes"
                }
            ],
            "name": "makePubliclyDecryptableExternalEbool",
            "outputs": [
                {
                    "internalType": "ebool",
                    "name": "xBool",
                    "type": "bytes32"
                }
            ],
            "stateMutability": "nonpayable",
            "type": "function"
        },
        {
            "inputs": [
                {
                    "internalType": "externalEuint128",
                    "name": "encryptedUint128",
                    "type": "bytes32"
                },
                {
                    "internalType": "bytes",
                    "name": "inputProof",
                    "type": "bytes"
                }
            ],
            "name": "makePubliclyDecryptableExternalEuint128",
            "outputs": [
                {
                    "internalType": "euint128",
                    "name": "xUint128",
                    "type": "bytes32"
                }
            ],
            "stateMutability": "nonpayable",
            "type": "function"
        },
        {
            "inputs": [
                {
                    "internalType": "externalEuint16",
                    "name": "encryptedUint16",
                    "type": "bytes32"
                },
                {
                    "internalType": "bytes",
                    "name": "inputProof",
                    "type": "bytes"
                }
            ],
            "name": "makePubliclyDecryptableExternalEuint16",
            "outputs": [
                {
                    "internalType": "euint16",
                    "name": "xUint16",
                    "type": "bytes32"
                }
            ],
            "stateMutability": "nonpayable",
            "type": "function"
        },
        {
            "inputs": [
                {
                    "internalType": "externalEuint8",
                    "name": "encryptedUint8",
                    "type": "bytes32"
                },
                {
                    "internalType": "bytes",
                    "name": "inputProof",
                    "type": "bytes"
                }
            ],
            "name": "makePubliclyDecryptableExternalEuint8",
            "outputs": [
                {
                    "internalType": "euint8",
                    "name": "xUint8",
                    "type": "bytes32"
                }
            ],
            "stateMutability": "nonpayable",
            "type": "function"
        },
        {
            "inputs": [
                {
                    "internalType": "externalEbool",
                    "name": "encryptedBool",
                    "type": "bytes32"
                },
                {
                    "internalType": "externalEuint8",
                    "name": "encryptedUint8",
                    "type": "bytes32"
                },
                {
                    "internalType": "externalEuint128",
                    "name": "encryptedUint128",
                    "type": "bytes32"
                },
                {
                    "internalType": "externalEaddress",
                    "name": "encryptedAddress",
                    "type": "bytes32"
                },
                {
                    "internalType": "bytes",
                    "name": "inputProof",
                    "type": "bytes"
                }
            ],
            "name": "makePubliclyDecryptableExternalMixed",
            "outputs": [
                {
                    "internalType": "ebool",
                    "name": "xBool",
                    "type": "bytes32"
                },
                {
                    "internalType": "euint8",
                    "name": "xUint8",
                    "type": "bytes32"
                },
                {
                    "internalType": "euint128",
                    "name": "xUint128",
                    "type": "bytes32"
                },
                {
                    "internalType": "eaddress",
                    "name": "xAddress",
                    "type": "bytes32"
                }
            ],
            "stateMutability": "nonpayable",
            "type": "function"
        }
    ],
    "bytecode": "0x60806040523480156200001157600080fd5b5062000032620000266200003860201b60201c565b620000df60201b60201c565b6200042a565b62000042620003c7565b6001460362000063576200005b620000f360201b60201c565b9050620000dc565b62aa36a7460362000086576200007e6200016260201b60201c565b9050620000db565b617a694603620000a857620000a06200020a60201b60201c565b9050620000da565b6040517f73cac13b00000000000000000000000000000000000000000000000000000000815260040160405180910390fd5b5b5b90565b620000f081620002b260201b60201c565b50565b620000fd620003c7565b6040518060600160405280600073ffffffffffffffffffffffffffffffffffffffff168152602001600073ffffffffffffffffffffffffffffffffffffffff168152602001600073ffffffffffffffffffffffffffffffffffffffff16815250905090565b6200016c620003c7565b604051806060016040528073f0ffdc93b7e186bc2f8cb3daa75d86d1930a433d73ffffffffffffffffffffffffffffffffffffffff1681526020017392c920834ec8941d2c77d188936e1f7a6f49c12773ffffffffffffffffffffffffffffffffffffffff16815260200173be0e383937d564d7ff0bc3b46c51f0bf8d5c311a73ffffffffffffffffffffffffffffffffffffffff16815250905090565b62000214620003c7565b60405180606001604052807350157cffd6bbfa2dece204a89ec419c23ef5755d73ffffffffffffffffffffffffffffffffffffffff16815260200173e3a9105a3a932253a70f126eb1e3b589c643dd2473ffffffffffffffffffffffffffffffffffffffff16815260200173901f8942346f7ab3a01f6d7613119bca447bb03073ffffffffffffffffffffffffffffffffffffffff16815250905090565b6000620002c46200039f60201b60201c565b905081600001518160000160006101000a81548173ffffffffffffffffffffffffffffffffffffffff021916908373ffffffffffffffffffffffffffffffffffffffff16021790555081602001518160010160006101000a81548173ffffffffffffffffffffffffffffffffffffffff021916908373ffffffffffffffffffffffffffffffffffffffff16021790555081604001518160020160006101000a81548173ffffffffffffffffffffffffffffffffffffffff021916908373ffffffffffffffffffffffffffffffffffffffff1602179055505050565b60007f9e7b61f58c47dc699ac88507c4f5bb9f121c03808c5676a8078fe583e4649700905090565b6040518060600160405280600073ffffffffffffffffffffffffffffffffffffffff168152602001600073ffffffffffffffffffffffffffffffffffffffff168152602001600073ffffffffffffffffffffffffffffffffffffffff1681525090565b611891806200043a6000396000f3fe608060405234801561001057600080fd5b50600436106100cf5760003560e01c8063ac2e35f01161008c578063cdcc030b11610066578063cdcc030b14610272578063d1c6e077146102a2578063d2eca096146102d2578063e045788314610305576100cf565b8063ac2e35f0146101e2578063bf3c754314610212578063cb41cbb914610242576100cf565b8063163b6e21146100d4578063226eaed3146101045780634d2f2541146101345780635ab80b0514610164578063852ec63b146101945780638927b030146101c4575b600080fd5b6100ee60048036038101906100e99190611071565b610338565b6040516100fb91906110f2565b60405180910390f35b61011e60048036038101906101199190611071565b6103a6565b60405161012b91906110f2565b60405180910390f35b61014e60048036038101906101499190611139565b610409565b60405161015b91906111a8565b60405180910390f35b61017e60048036038101906101799190611139565b61046c565b60405161018b91906111a8565b60405180910390f35b6101ae60048036038101906101a991906111ef565b6104da565b6040516101bb919061125e565b60405180910390f35b6101cc61053d565b6040516101d99190611292565b60405180910390f35b6101fc60048036038101906101f791906112d9565b61054c565b6040516102099190611348565b60405180910390f35b61022c600480360381019061022791906111ef565b6105ba565b604051610239919061125e565b60405180910390f35b61025c600480360381019061025791906112d9565b610628565b6040516102699190611348565b60405180910390f35b61028c6004803603810190610287919061138f565b61068b565b60405161029991906113fe565b60405180910390f35b6102bc60048036038101906102b7919061138f565b6106f9565b6040516102c991906113fe565b60405180910390f35b6102ec60048036038101906102e79190611419565b61075c565b6040516102fc94939291906114b3565b60405180910390f35b61031f600480360381019061031a9190611419565b610903565b60405161032f94939291906114b3565b60405180910390f35b60006103888484848080601f016020809104026020016040519081016040528093929190818152602001838380828437600081840152601f19601f82011690508083019250505050505050610a7e565b905061039381610a94565b5061039e8133610aa8565b509392505050565b60006103f68484848080601f016020809104026020016040519081016040528093929190818152602001838380828437600081840152601f19601f82011690508083019250505050505050610a7e565b905061040181610abd565b509392505050565b60006104598484848080601f016020809104026020016040519081016040528093929190818152602001838380828437600081840152601f19601f82011690508083019250505050505050610ad0565b905061046481610ae6565b509392505050565b60006104bc8484848080601f016020809104026020016040519081016040528093929190818152602001838380828437600081840152601f19601f82011690508083019250505050505050610ad0565b90506104c781610af9565b506104d28133610b0d565b509392505050565b600061052a8484848080601f016020809104026020016040519081016040528093929190818152602001838380828437600081840152601f19601f82011690508083019250505050505050610b22565b905061053581610b38565b509392505050565b6000610547610b4b565b905090565b600061059c8484848080601f016020809104026020016040519081016040528093929190818152602001838380828437600081840152601f19601f82011690508083019250505050505050610b9d565b90506105a781610bb3565b506105b28133610bc7565b509392505050565b600061060a8484848080601f016020809104026020016040519081016040528093929190818152602001838380828437600081840152601f19601f82011690508083019250505050505050610b22565b905061061581610bdc565b506106208133610bf0565b509392505050565b60006106788484848080601f016020809104026020016040519081016040528093929190818152602001838380828437600081840152601f19601f82011690508083019250505050505050610b9d565b905061068381610c05565b509392505050565b60006106db8484848080601f016020809104026020016040519081016040528093929190818152602001838380828437600081840152601f19601f82011690508083019250505050505050610c18565b90506106e681610c2e565b506106f18133610c42565b509392505050565b60006107498484848080601f016020809104026020016040519081016040528093929190818152602001838380828437600081840152601f19601f82011690508083019250505050505050610c18565b905061075481610c57565b509392505050565b6000806000806107b08a87878080601f016020809104026020016040519081016040528093929190818152602001838380828437600081840152601f19601f82011690508083019250505050505050610a7e565b93506108008987878080601f016020809104026020016040519081016040528093929190818152602001838380828437600081840152601f19601f82011690508083019250505050505050610b22565b92506108508887878080601f016020809104026020016040519081016040528093929190818152602001838380828437600081840152601f19601f82011690508083019250505050505050610b9d565b91506108a08787878080601f016020809104026020016040519081016040528093929190818152602001838380828437600081840152601f19601f82011690508083019250505050505050610c18565b90506108ab84610a94565b506108b583610bdc565b506108bf82610bb3565b506108c981610c2e565b506108d48433610aa8565b506108df8333610bf0565b506108ea8233610bc7565b506108f58133610c42565b509650965096509692505050565b6000806000806109578a87878080601f016020809104026020016040519081016040528093929190818152602001838380828437600081840152601f19601f82011690508083019250505050505050610a7e565b93506109a78987878080601f016020809104026020016040519081016040528093929190818152602001838380828437600081840152601f19601f82011690508083019250505050505050610b22565b92506109f78887878080601f016020809104026020016040519081016040528093929190818152602001838380828437600081840152601f19601f82011690508083019250505050505050610b9d565b9150610a478787878080601f016020809104026020016040519081016040528093929190818152602001838380828437600081840152601f19601f82011690508083019250505050505050610c18565b9050610a5284610abd565b50610a5c83610b38565b50610a6682610c05565b50610a7081610c57565b509650965096509692505050565b6000610a8c83836000610c6a565b905092915050565b6000610aa08230610db8565b819050919050565b6000610ab48383610db8565b82905092915050565b6000610ac882610e5a565b819050919050565b6000610ade83836003610c6a565b905092915050565b6000610af182610e5a565b819050919050565b6000610b058230610db8565b819050919050565b6000610b198383610db8565b82905092915050565b6000610b3083836002610c6a565b905092915050565b6000610b4382610e5a565b819050919050565b600060014603610b6457610b5d610f69565b9050610b9a565b62aa36a74603610b7d57610b76610f72565b9050610b9a565b617a694603610b9557610b8e610f7c565b9050610b9a565b600090505b90565b6000610bab83836006610c6a565b905092915050565b6000610bbf8230610db8565b819050919050565b6000610bd38383610db8565b82905092915050565b6000610be88230610db8565b819050919050565b6000610bfc8383610db8565b82905092915050565b6000610c1082610e5a565b819050919050565b6000610c2683836007610c6a565b905092915050565b6000610c3a8230610db8565b819050919050565b6000610c4e8383610db8565b82905092915050565b6000610c6282610e5a565b819050919050565b600080610c75610fa4565b90508060010160009054906101000a900473ffffffffffffffffffffffffffffffffffffffff1673ffffffffffffffffffffffffffffffffffffffff166308bf832a863387876040518563ffffffff1660e01b8152600401610cda949392919061164f565b6020604051808303816000875af1158015610cf9573d6000803e3d6000fd5b505050506040513d601f19601f82011682018060405250810190610d1d91906116c7565b91508060000160009054906101000a900473ffffffffffffffffffffffffffffffffffffffff1673ffffffffffffffffffffffffffffffffffffffff16633e395cec83336040518363ffffffff1660e01b8152600401610d7e9291906116f4565b600060405180830381600087803b158015610d9857600080fd5b505af1158015610dac573d6000803e3d6000fd5b50505050509392505050565b6000610dc2610fa4565b90508060000160009054906101000a900473ffffffffffffffffffffffffffffffffffffffff1673ffffffffffffffffffffffffffffffffffffffff1663b9496b6284846040518363ffffffff1660e01b8152600401610e239291906116f4565b600060405180830381600087803b158015610e3d57600080fd5b505af1158015610e51573d6000803e3d6000fd5b50505050505050565b6000610e64610fa4565b90506000600167ffffffffffffffff811115610e8357610e8261171d565b5b604051908082528060200260200182016040528015610eb15781602001602082028036833780820191505090505b5090508281600081518110610ec957610ec861174c565b5b6020026020010181815250508160000160009054906101000a900473ffffffffffffffffffffffffffffffffffffffff1673ffffffffffffffffffffffffffffffffffffffff1663fadd2246826040518263ffffffff1660e01b8152600401610f329190611839565b600060405180830381600087803b158015610f4c57600080fd5b505af1158015610f60573d6000803e3d6000fd5b50505050505050565b60006001905090565b6000612711905090565b60007fffffffffffffffffffffffffffffffffffffffffffffffffffffffffffffffff905090565b60007f9e7b61f58c47dc699ac88507c4f5bb9f121c03808c5676a8078fe583e4649700905090565b600080fd5b600080fd5b6000819050919050565b610fe981610fd6565b8114610ff457600080fd5b50565b60008135905061100681610fe0565b92915050565b600080fd5b600080fd5b600080fd5b60008083601f8401126110315761103061100c565b5b8235905067ffffffffffffffff81111561104e5761104d611011565b5b60208301915083600182028301111561106a57611069611016565b5b9250929050565b60008060006040848603121561108a57611089610fcc565b5b600061109886828701610ff7565b935050602084013567ffffffffffffffff8111156110b9576110b8610fd1565b5b6110c58682870161101b565b92509250509250925092565b60006110dc82610fd6565b9050919050565b6110ec816110d1565b82525050565b600060208201905061110760008301846110e3565b92915050565b61111681610fd6565b811461112157600080fd5b50565b6000813590506111338161110d565b92915050565b60008060006040848603121561115257611151610fcc565b5b600061116086828701611124565b935050602084013567ffffffffffffffff81111561118157611180610fd1565b5b61118d8682870161101b565b92509250509250925092565b6111a2816110d1565b82525050565b60006020820190506111bd6000830184611199565b92915050565b6111cc81610fd6565b81146111d757600080fd5b50565b6000813590506111e9816111c3565b92915050565b60008060006040848603121561120857611207610fcc565b5b6000611216868287016111da565b935050602084013567ffffffffffffffff81111561123757611236610fd1565b5b6112438682870161101b565b92509250509250925092565b611258816110d1565b82525050565b6000602082019050611273600083018461124f565b92915050565b6000819050919050565b61128c81611279565b82525050565b60006020820190506112a76000830184611283565b92915050565b6112b681610fd6565b81146112c157600080fd5b50565b6000813590506112d3816112ad565b92915050565b6000806000604084860312156112f2576112f1610fcc565b5b6000611300868287016112c4565b935050602084013567ffffffffffffffff81111561132157611320610fd1565b5b61132d8682870161101b565b92509250509250925092565b611342816110d1565b82525050565b600060208201905061135d6000830184611339565b92915050565b61136c81610fd6565b811461137757600080fd5b50565b60008135905061138981611363565b92915050565b6000806000604084860312156113a8576113a7610fcc565b5b60006113b68682870161137a565b935050602084013567ffffffffffffffff8111156113d7576113d6610fd1565b5b6113e38682870161101b565b92509250509250925092565b6113f8816110d1565b82525050565b600060208201905061141360008301846113ef565b92915050565b60008060008060008060a0878903121561143657611435610fcc565b5b600061144489828a01610ff7565b965050602061145589828a016111da565b955050604061146689828a016112c4565b945050606061147789828a0161137a565b935050608087013567ffffffffffffffff81111561149857611497610fd1565b5b6114a489828a0161101b565b92509250509295509295509295565b60006080820190506114c860008301876110e3565b6114d5602083018661124f565b6114e26040830185611339565b6114ef60608301846113ef565b95945050505050565b61150181610fd6565b82525050565b600073ffffffffffffffffffffffffffffffffffffffff82169050919050565b600061153282611507565b9050919050565b61154281611527565b82525050565b600081519050919050565b600082825260208201905092915050565b60005b83811015611582578082015181840152602081019050611567565b60008484015250505050565b6000601f19601f8301169050919050565b60006115aa82611548565b6115b48185611553565b93506115c4818560208601611564565b6115cd8161158e565b840191505092915050565b7f4e487b7100000000000000000000000000000000000000000000000000000000600052602160045260246000fd5b60548110611618576116176115d8565b5b50565b600081905061162982611607565b919050565b60006116398261161b565b9050919050565b6116498161162e565b82525050565b600060808201905061166460008301876114f8565b6116716020830186611539565b8181036040830152611683818561159f565b90506116926060830184611640565b95945050505050565b6116a481610fd6565b81146116af57600080fd5b50565b6000815190506116c18161169b565b92915050565b6000602082840312156116dd576116dc610fcc565b5b60006116eb848285016116b2565b91505092915050565b600060408201905061170960008301856114f8565b6117166020830184611539565b9392505050565b7f4e487b7100000000000000000000000000000000000000000000000000000000600052604160045260246000fd5b7f4e487b7100000000000000000000000000000000000000000000000000000000600052603260045260246000fd5b600081519050919050565b600082825260208201905092915050565b6000819050602082019050919050565b6117b081610fd6565b82525050565b60006117c283836117a7565b60208301905092915050565b6000602082019050919050565b60006117e68261177b565b6117f08185611786565b93506117fb83611797565b8060005b8381101561182c57815161181388826117b6565b975061181e836117ce565b9250506001810190506117ff565b5085935050505092915050565b6000602082019050818103600083015261185381846117db565b90509291505056fea264697066735822122062629103016ae263881d8535f43c05cad4874e4f3b1c06dc1765e79ff997cc9764736f6c63430008180033",
    "linkReferences": {},
    "deployedLinkReferences": {}
}