{
  "_format": "hh-sol-artifact-1",
  "contractName": "FHEVMTestSuite4",
  "sourceName": "contracts/operations/FHEVMTestSuite4.sol",
  "abi": [
    {
      "inputs": [
        {
          "internalType": "bytes32",
          "name": "handle",
          "type": "bytes32"
        },
        {
          "internalType": "address",
          "name": "sender",
          "type": "address"
        }
      ],
      "name": "SenderNotAllowedToUseHandle",
      "type": "error"
    },
    {
      "inputs": [
        {
          "internalType": "externalEuint64",
          "name": "a",
          "type": "bytes32"
        },
        {
          "internalType": "externalEuint32",
          "name": "b",
          "type": "bytes32"
        },
        {
          "internalType": "bytes",
          "name": "inputProof",
          "type": "bytes"
        }
      ],
      "name": "add_euint64_euint32",
      "outputs": [],
      "stateMutability": "nonpayable",
      "type": "function"
    },
    {
      "inputs": [
        {
          "internalType": "externalEuint8",
          "name": "a",
          "type": "bytes32"
        },
        {
          "internalType": "externalEuint16",
          "name": "b",
          "type": "bytes32"
        },
        {
          "internalType": "bytes",
          "name": "inputProof",
          "type": "bytes"
        }
      ],
      "name": "add_euint8_euint16",
      "outputs": [],
      "stateMutability": "nonpayable",
      "type": "function"
    },
    {
      "inputs": [
        {
          "internalType": "externalEuint128",
          "name": "a",
          "type": "bytes32"
        },
        {
          "internalType": "externalEuint16",
          "name": "b",
          "type": "bytes32"
        },
        {
          "internalType": "bytes",
          "name": "inputProof",
          "type": "bytes"
        }
      ],
      "name": "and_euint128_euint16",
      "outputs": [],
      "stateMutability": "nonpayable",
      "type": "function"
    },
    {
      "inputs": [
        {
          "internalType": "externalEuint256",
          "name": "a",
          "type": "bytes32"
        },
        {
          "internalType": "externalEuint128",
          "name": "b",
          "type": "bytes32"
        },
        {
          "internalType": "bytes",
          "name": "inputProof",
          "type": "bytes"
        }
      ],
      "name": "and_euint256_euint128",
      "outputs": [],
      "stateMutability": "nonpayable",
      "type": "function"
    },
    {
      "inputs": [
        {
          "internalType": "externalEuint256",
          "name": "a",
          "type": "bytes32"
        },
        {
          "internalType": "externalEuint32",
          "name": "b",
          "type": "bytes32"
        },
        {
          "internalType": "bytes",
          "name": "inputProof",
          "type": "bytes"
        }
      ],
      "name": "and_euint256_euint32",
      "outputs": [],
      "stateMutability": "nonpayable",
      "type": "function"
    },
    {
      "inputs": [
        {
          "internalType": "externalEuint256",
          "name": "a",
          "type": "bytes32"
        },
        {
          "internalType": "externalEuint8",
          "name": "b",
          "type": "bytes32"
        },
        {
          "internalType": "bytes",
          "name": "inputProof",
          "type": "bytes"
        }
      ],
      "name": "and_euint256_euint8",
      "outputs": [],
      "stateMutability": "nonpayable",
      "type": "function"
    },
    {
      "inputs": [
        {
          "internalType": "externalEuint32",
          "name": "a",
          "type": "bytes32"
        },
        {
          "internalType": "externalEuint256",
          "name": "b",
          "type": "bytes32"
        },
        {
          "internalType": "bytes",
          "name": "inputProof",
          "type": "bytes"
        }
      ],
      "name": "and_euint32_euint256",
      "outputs": [],
      "stateMutability": "nonpayable",
      "type": "function"
    },
    {
      "inputs": [
        {
          "internalType": "externalEuint32",
          "name": "a",
          "type": "bytes32"
        },
        {
          "internalType": "externalEuint32",
          "name": "b",
          "type": "bytes32"
        },
        {
          "internalType": "bytes",
          "name": "inputProof",
          "type": "bytes"
        }
      ],
      "name": "and_euint32_euint32",
      "outputs": [],
      "stateMutability": "nonpayable",
      "type": "function"
    },
    {
      "inputs": [
        {
          "internalType": "externalEuint32",
          "name": "a",
          "type": "bytes32"
        },
        {
          "internalType": "externalEuint8",
          "name": "b",
          "type": "bytes32"
        },
        {
          "internalType": "bytes",
          "name": "inputProof",
          "type": "bytes"
        }
      ],
      "name": "and_euint32_euint8",
      "outputs": [],
      "stateMutability": "nonpayable",
      "type": "function"
    },
    {
      "inputs": [
        {
          "internalType": "externalEuint64",
          "name": "a",
          "type": "bytes32"
        },
        {
          "internalType": "externalEuint128",
          "name": "b",
          "type": "bytes32"
        },
        {
          "internalType": "bytes",
          "name": "inputProof",
          "type": "bytes"
        }
      ],
      "name": "and_euint64_euint128",
      "outputs": [],
      "stateMutability": "nonpayable",
      "type": "function"
    },
    {
      "inputs": [
        {
          "internalType": "externalEuint64",
          "name": "a",
          "type": "bytes32"
        },
        {
          "internalType": "externalEuint16",
          "name": "b",
          "type": "bytes32"
        },
        {
          "internalType": "bytes",
          "name": "inputProof",
          "type": "bytes"
        }
      ],
      "name": "and_euint64_euint16",
      "outputs": [],
      "stateMutability": "nonpayable",
      "type": "function"
    },
    {
      "inputs": [
        {
          "internalType": "externalEuint64",
          "name": "a",
          "type": "bytes32"
        },
        {
          "internalType": "externalEuint32",
          "name": "b",
          "type": "bytes32"
        },
        {
          "internalType": "bytes",
          "name": "inputProof",
          "type": "bytes"
        }
      ],
      "name": "and_euint64_euint32",
      "outputs": [],
      "stateMutability": "nonpayable",
      "type": "function"
    },
    {
      "inputs": [
        {
          "internalType": "uint8",
          "name": "a",
          "type": "uint8"
        },
        {
          "internalType": "externalEuint8",
          "name": "b",
          "type": "bytes32"
        },
        {
          "internalType": "bytes",
          "name": "inputProof",
          "type": "bytes"
        }
      ],
      "name": "and_uint8_euint8",
      "outputs": [],
      "stateMutability": "nonpayable",
      "type": "function"
    },
    {
      "inputs": [
        {
          "internalType": "externalEuint128",
          "name": "a",
          "type": "bytes32"
        },
        {
          "internalType": "uint128",
          "name": "b",
          "type": "uint128"
        },
        {
          "internalType": "bytes",
          "name": "inputProof",
          "type": "bytes"
        }
      ],
      "name": "div_euint128_uint128",
      "outputs": [],
      "stateMutability": "nonpayable",
      "type": "function"
    },
    {
      "inputs": [
        {
          "internalType": "externalEuint16",
          "name": "a",
          "type": "bytes32"
        },
        {
          "internalType": "externalEuint16",
          "name": "b",
          "type": "bytes32"
        },
        {
          "internalType": "bytes",
          "name": "inputProof",
          "type": "bytes"
        }
      ],
      "name": "eq_euint16_euint16",
      "outputs": [],
      "stateMutability": "nonpayable",
      "type": "function"
    },
    {
      "inputs": [
        {
          "internalType": "externalEuint32",
          "name": "a",
          "type": "bytes32"
        },
        {
          "internalType": "externalEuint32",
          "name": "b",
          "type": "bytes32"
        },
        {
          "internalType": "bytes",
          "name": "inputProof",
          "type": "bytes"
        }
      ],
      "name": "eq_euint32_euint32",
      "outputs": [],
      "stateMutability": "nonpayable",
      "type": "function"
    },
    {
      "inputs": [
        {
          "internalType": "externalEuint64",
          "name": "a",
          "type": "bytes32"
        },
        {
          "internalType": "externalEuint128",
          "name": "b",
          "type": "bytes32"
        },
        {
          "internalType": "bytes",
          "name": "inputProof",
          "type": "bytes"
        }
      ],
      "name": "eq_euint64_euint128",
      "outputs": [],
      "stateMutability": "nonpayable",
      "type": "function"
    },
    {
      "inputs": [
        {
          "internalType": "externalEuint64",
          "name": "a",
          "type": "bytes32"
        },
        {
          "internalType": "externalEuint256",
          "name": "b",
          "type": "bytes32"
        },
        {
          "internalType": "bytes",
          "name": "inputProof",
          "type": "bytes"
        }
      ],
      "name": "eq_euint64_euint256",
      "outputs": [],
      "stateMutability": "nonpayable",
      "type": "function"
    },
    {
      "inputs": [
        {
          "internalType": "externalEuint64",
          "name": "a",
          "type": "bytes32"
        },
        {
          "internalType": "externalEuint8",
          "name": "b",
          "type": "bytes32"
        },
        {
          "internalType": "bytes",
          "name": "inputProof",
          "type": "bytes"
        }
      ],
      "name": "eq_euint64_euint8",
      "outputs": [],
      "stateMutability": "nonpayable",
      "type": "function"
    },
    {
      "inputs": [
        {
          "internalType": "externalEuint8",
          "name": "a",
          "type": "bytes32"
        },
        {
          "internalType": "externalEuint256",
          "name": "b",
          "type": "bytes32"
        },
        {
          "internalType": "bytes",
          "name": "inputProof",
          "type": "bytes"
        }
      ],
      "name": "eq_euint8_euint256",
      "outputs": [],
      "stateMutability": "nonpayable",
      "type": "function"
    },
    {
      "inputs": [
        {
          "internalType": "uint32",
          "name": "a",
          "type": "uint32"
        },
        {
          "internalType": "externalEuint32",
          "name": "b",
          "type": "bytes32"
        },
        {
          "internalType": "bytes",
          "name": "inputProof",
          "type": "bytes"
        }
      ],
      "name": "eq_uint32_euint32",
      "outputs": [],
      "stateMutability": "nonpayable",
      "type": "function"
    },
    {
      "inputs": [
        {
          "internalType": "externalEuint128",
          "name": "a",
          "type": "bytes32"
        },
        {
          "internalType": "externalEuint16",
          "name": "b",
          "type": "bytes32"
        },
        {
          "internalType": "bytes",
          "name": "inputProof",
          "type": "bytes"
        }
      ],
      "name": "ge_euint128_euint16",
      "outputs": [],
      "stateMutability": "nonpayable",
      "type": "function"
    },
    {
      "inputs": [
        {
          "internalType": "externalEuint16",
          "name": "a",
          "type": "bytes32"
        },
        {
          "internalType": "uint16",
          "name": "b",
          "type": "uint16"
        },
        {
          "internalType": "bytes",
          "name": "inputProof",
          "type": "bytes"
        }
      ],
      "name": "ge_euint16_uint16",
      "outputs": [],
      "stateMutability": "nonpayable",
      "type": "function"
    },
    {
      "inputs": [
        {
          "internalType": "externalEuint32",
          "name": "a",
          "type": "bytes32"
        },
        {
          "internalType": "externalEuint8",
          "name": "b",
          "type": "bytes32"
        },
        {
          "internalType": "bytes",
          "name": "inputProof",
          "type": "bytes"
        }
      ],
      "name": "ge_euint32_euint8",
      "outputs": [],
      "stateMutability": "nonpayable",
      "type": "function"
    },
    {
      "inputs": [
        {
          "internalType": "externalEuint64",
          "name": "a",
          "type": "bytes32"
        },
        {
          "internalType": "uint64",
          "name": "b",
          "type": "uint64"
        },
        {
          "internalType": "bytes",
          "name": "inputProof",
          "type": "bytes"
        }
      ],
      "name": "ge_euint64_uint64",
      "outputs": [],
      "stateMutability": "nonpayable",
      "type": "function"
    },
    {
      "inputs": [
        {
          "internalType": "externalEuint16",
          "name": "a",
          "type": "bytes32"
        },
        {
          "internalType": "externalEuint128",
          "name": "b",
          "type": "bytes32"
        },
        {
          "internalType": "bytes",
          "name": "inputProof",
          "type": "bytes"
        }
      ],
      "name": "gt_euint16_euint128",
      "outputs": [],
      "stateMutability": "nonpayable",
      "type": "function"
    },
    {
      "inputs": [
        {
          "internalType": "externalEuint32",
          "name": "a",
          "type": "bytes32"
        },
        {
          "internalType": "externalEuint128",
          "name": "b",
          "type": "bytes32"
        },
        {
          "internalType": "bytes",
          "name": "inputProof",
          "type": "bytes"
        }
      ],
      "name": "gt_euint32_euint128",
      "outputs": [],
      "stateMutability": "nonpayable",
      "type": "function"
    },
    {
      "inputs": [
        {
          "internalType": "externalEuint32",
          "name": "a",
          "type": "bytes32"
        },
        {
          "internalType": "externalEuint64",
          "name": "b",
          "type": "bytes32"
        },
        {
          "internalType": "bytes",
          "name": "inputProof",
          "type": "bytes"
        }
      ],
      "name": "gt_euint32_euint64",
      "outputs": [],
      "stateMutability": "nonpayable",
      "type": "function"
    },
    {
      "inputs": [
        {
          "internalType": "externalEuint32",
          "name": "a",
          "type": "bytes32"
        },
        {
          "internalType": "externalEuint8",
          "name": "b",
          "type": "bytes32"
        },
        {
          "internalType": "bytes",
          "name": "inputProof",
          "type": "bytes"
        }
      ],
      "name": "gt_euint32_euint8",
      "outputs": [],
      "stateMutability": "nonpayable",
      "type": "function"
    },
    {
      "inputs": [
        {
          "internalType": "externalEuint64",
          "name": "a",
          "type": "bytes32"
        },
        {
          "internalType": "externalEuint32",
          "name": "b",
          "type": "bytes32"
        },
        {
          "internalType": "bytes",
          "name": "inputProof",
          "type": "bytes"
        }
      ],
      "name": "gt_euint64_euint32",
      "outputs": [],
      "stateMutability": "nonpayable",
      "type": "function"
    },
    {
      "inputs": [
        {
          "internalType": "externalEuint8",
          "name": "a",
          "type": "bytes32"
        },
        {
          "internalType": "externalEuint16",
          "name": "b",
          "type": "bytes32"
        },
        {
          "internalType": "bytes",
          "name": "inputProof",
          "type": "bytes"
        }
      ],
      "name": "gt_euint8_euint16",
      "outputs": [],
      "stateMutability": "nonpayable",
      "type": "function"
    },
    {
      "inputs": [
        {
          "internalType": "externalEuint8",
          "name": "a",
          "type": "bytes32"
        },
        {
          "internalType": "externalEuint32",
          "name": "b",
          "type": "bytes32"
        },
        {
          "internalType": "bytes",
          "name": "inputProof",
          "type": "bytes"
        }
      ],
      "name": "gt_euint8_euint32",
      "outputs": [],
      "stateMutability": "nonpayable",
      "type": "function"
    },
    {
      "inputs": [
        {
          "internalType": "externalEuint8",
          "name": "a",
          "type": "bytes32"
        },
        {
          "internalType": "externalEuint8",
          "name": "b",
          "type": "bytes32"
        },
        {
          "internalType": "bytes",
          "name": "inputProof",
          "type": "bytes"
        }
      ],
      "name": "gt_euint8_euint8",
      "outputs": [],
      "stateMutability": "nonpayable",
      "type": "function"
    },
    {
      "inputs": [
        {
          "internalType": "externalEuint128",
          "name": "a",
          "type": "bytes32"
        },
        {
          "internalType": "externalEuint32",
          "name": "b",
          "type": "bytes32"
        },
        {
          "internalType": "bytes",
          "name": "inputProof",
          "type": "bytes"
        }
      ],
      "name": "le_euint128_euint32",
      "outputs": [],
      "stateMutability": "nonpayable",
      "type": "function"
    },
    {
      "inputs": [
        {
          "internalType": "externalEuint32",
          "name": "a",
          "type": "bytes32"
        },
        {
          "internalType": "externalEuint16",
          "name": "b",
          "type": "bytes32"
        },
        {
          "internalType": "bytes",
          "name": "inputProof",
          "type": "bytes"
        }
      ],
      "name": "lt_euint32_euint16",
      "outputs": [],
      "stateMutability": "nonpayable",
      "type": "function"
    },
    {
      "inputs": [
        {
          "internalType": "externalEuint64",
          "name": "a",
          "type": "bytes32"
        },
        {
          "internalType": "externalEuint16",
          "name": "b",
          "type": "bytes32"
        },
        {
          "internalType": "bytes",
          "name": "inputProof",
          "type": "bytes"
        }
      ],
      "name": "lt_euint64_euint16",
      "outputs": [],
      "stateMutability": "nonpayable",
      "type": "function"
    },
    {
      "inputs": [
        {
          "internalType": "externalEuint64",
          "name": "a",
          "type": "bytes32"
        },
        {
          "internalType": "externalEuint64",
          "name": "b",
          "type": "bytes32"
        },
        {
          "internalType": "bytes",
          "name": "inputProof",
          "type": "bytes"
        }
      ],
      "name": "lt_euint64_euint64",
      "outputs": [],
      "stateMutability": "nonpayable",
      "type": "function"
    },
    {
      "inputs": [
        {
          "internalType": "externalEuint8",
          "name": "a",
          "type": "bytes32"
        },
        {
          "internalType": "externalEuint16",
          "name": "b",
          "type": "bytes32"
        },
        {
          "internalType": "bytes",
          "name": "inputProof",
          "type": "bytes"
        }
      ],
      "name": "lt_euint8_euint16",
      "outputs": [],
      "stateMutability": "nonpayable",
      "type": "function"
    },
    {
      "inputs": [
        {
          "internalType": "externalEuint8",
          "name": "a",
          "type": "bytes32"
        },
        {
          "internalType": "externalEuint32",
          "name": "b",
          "type": "bytes32"
        },
        {
          "internalType": "bytes",
          "name": "inputProof",
          "type": "bytes"
        }
      ],
      "name": "lt_euint8_euint32",
      "outputs": [],
      "stateMutability": "nonpayable",
      "type": "function"
    },
    {
      "inputs": [
        {
          "internalType": "uint16",
          "name": "a",
          "type": "uint16"
        },
        {
          "internalType": "externalEuint16",
          "name": "b",
          "type": "bytes32"
        },
        {
          "internalType": "bytes",
          "name": "inputProof",
          "type": "bytes"
        }
      ],
      "name": "lt_uint16_euint16",
      "outputs": [],
      "stateMutability": "nonpayable",
      "type": "function"
    },
    {
      "inputs": [
        {
          "internalType": "externalEuint128",
          "name": "a",
          "type": "bytes32"
        },
        {
          "internalType": "externalEuint16",
          "name": "b",
          "type": "bytes32"
        },
        {
          "internalType": "bytes",
          "name": "inputProof",
          "type": "bytes"
        }
      ],
      "name": "max_euint128_euint16",
      "outputs": [],
      "stateMutability": "nonpayable",
      "type": "function"
    },
    {
      "inputs": [
        {
          "internalType": "externalEuint64",
          "name": "a",
          "type": "bytes32"
        },
        {
          "internalType": "externalEuint16",
          "name": "b",
          "type": "bytes32"
        },
        {
          "internalType": "bytes",
          "name": "inputProof",
          "type": "bytes"
        }
      ],
      "name": "max_euint64_euint16",
      "outputs": [],
      "stateMutability": "nonpayable",
      "type": "function"
    },
    {
      "inputs": [
        {
          "internalType": "externalEuint8",
          "name": "a",
          "type": "bytes32"
        },
        {
          "internalType": "externalEuint128",
          "name": "b",
          "type": "bytes32"
        },
        {
          "internalType": "bytes",
          "name": "inputProof",
          "type": "bytes"
        }
      ],
      "name": "max_euint8_euint128",
      "outputs": [],
      "stateMutability": "nonpayable",
      "type": "function"
    },
    {
      "inputs": [
        {
          "internalType": "uint16",
          "name": "a",
          "type": "uint16"
        },
        {
          "internalType": "externalEuint16",
          "name": "b",
          "type": "bytes32"
        },
        {
          "internalType": "bytes",
          "name": "inputProof",
          "type": "bytes"
        }
      ],
      "name": "max_uint16_euint16",
      "outputs": [],
      "stateMutability": "nonpayable",
      "type": "function"
    },
    {
      "inputs": [
        {
          "internalType": "uint64",
          "name": "a",
          "type": "uint64"
        },
        {
          "internalType": "externalEuint64",
          "name": "b",
          "type": "bytes32"
        },
        {
          "internalType": "bytes",
          "name": "inputProof",
          "type": "bytes"
        }
      ],
      "name": "max_uint64_euint64",
      "outputs": [],
      "stateMutability": "nonpayable",
      "type": "function"
    },
    {
      "inputs": [
        {
          "internalType": "externalEuint128",
          "name": "a",
          "type": "bytes32"
        },
        {
          "internalType": "externalEuint32",
          "name": "b",
          "type": "bytes32"
        },
        {
          "internalType": "bytes",
          "name": "inputProof",
          "type": "bytes"
        }
      ],
      "name": "min_euint128_euint32",
      "outputs": [],
      "stateMutability": "nonpayable",
      "type": "function"
    },
    {
      "inputs": [
        {
          "internalType": "externalEuint32",
          "name": "a",
          "type": "bytes32"
        },
        {
          "internalType": "externalEuint128",
          "name": "b",
          "type": "bytes32"
        },
        {
          "internalType": "bytes",
          "name": "inputProof",
          "type": "bytes"
        }
      ],
      "name": "min_euint32_euint128",
      "outputs": [],
      "stateMutability": "nonpayable",
      "type": "function"
    },
    {
      "inputs": [
        {
          "internalType": "externalEuint128",
          "name": "a",
          "type": "bytes32"
        },
        {
          "internalType": "externalEuint64",
          "name": "b",
          "type": "bytes32"
        },
        {
          "internalType": "bytes",
          "name": "inputProof",
          "type": "bytes"
        }
      ],
      "name": "mul_euint128_euint64",
      "outputs": [],
      "stateMutability": "nonpayable",
      "type": "function"
    },
    {
      "inputs": [
        {
          "internalType": "externalEuint16",
          "name": "a",
          "type": "bytes32"
        },
        {
          "internalType": "externalEuint16",
          "name": "b",
          "type": "bytes32"
        },
        {
          "internalType": "bytes",
          "name": "inputProof",
          "type": "bytes"
        }
      ],
      "name": "mul_euint16_euint16",
      "outputs": [],
      "stateMutability": "nonpayable",
      "type": "function"
    },
    {
      "inputs": [
        {
          "internalType": "externalEuint16",
          "name": "a",
          "type": "bytes32"
        },
        {
          "internalType": "externalEuint8",
          "name": "b",
          "type": "bytes32"
        },
        {
          "internalType": "bytes",
          "name": "inputProof",
          "type": "bytes"
        }
      ],
      "name": "mul_euint16_euint8",
      "outputs": [],
      "stateMutability": "nonpayable",
      "type": "function"
    },
    {
      "inputs": [
        {
          "internalType": "externalEuint32",
          "name": "a",
          "type": "bytes32"
        },
        {
          "internalType": "externalEuint8",
          "name": "b",
          "type": "bytes32"
        },
        {
          "internalType": "bytes",
          "name": "inputProof",
          "type": "bytes"
        }
      ],
      "name": "mul_euint32_euint8",
      "outputs": [],
      "stateMutability": "nonpayable",
      "type": "function"
    },
    {
      "inputs": [
        {
          "internalType": "externalEuint32",
          "name": "a",
          "type": "bytes32"
        },
        {
          "internalType": "uint32",
          "name": "b",
          "type": "uint32"
        },
        {
          "internalType": "bytes",
          "name": "inputProof",
          "type": "bytes"
        }
      ],
      "name": "mul_euint32_uint32",
      "outputs": [],
      "stateMutability": "nonpayable",
      "type": "function"
    },
    {
      "inputs": [
        {
          "internalType": "externalEuint64",
          "name": "a",
          "type": "bytes32"
        },
        {
          "internalType": "externalEuint128",
          "name": "b",
          "type": "bytes32"
        },
        {
          "internalType": "bytes",
          "name": "inputProof",
          "type": "bytes"
        }
      ],
      "name": "mul_euint64_euint128",
      "outputs": [],
      "stateMutability": "nonpayable",
      "type": "function"
    },
    {
      "inputs": [
        {
          "internalType": "externalEuint64",
          "name": "a",
          "type": "bytes32"
        },
        {
          "internalType": "externalEuint32",
          "name": "b",
          "type": "bytes32"
        },
        {
          "internalType": "bytes",
          "name": "inputProof",
          "type": "bytes"
        }
      ],
      "name": "mul_euint64_euint32",
      "outputs": [],
      "stateMutability": "nonpayable",
      "type": "function"
    },
    {
      "inputs": [
        {
          "internalType": "externalEuint8",
          "name": "a",
          "type": "bytes32"
        },
        {
          "internalType": "uint8",
          "name": "b",
          "type": "uint8"
        },
        {
          "internalType": "bytes",
          "name": "inputProof",
          "type": "bytes"
        }
      ],
      "name": "mul_euint8_uint8",
      "outputs": [],
      "stateMutability": "nonpayable",
      "type": "function"
    },
    {
      "inputs": [
        {
          "internalType": "uint32",
          "name": "a",
          "type": "uint32"
        },
        {
          "internalType": "externalEuint32",
          "name": "b",
          "type": "bytes32"
        },
        {
          "internalType": "bytes",
          "name": "inputProof",
          "type": "bytes"
        }
      ],
      "name": "mul_uint32_euint32",
      "outputs": [],
      "stateMutability": "nonpayable",
      "type": "function"
    },
    {
      "inputs": [
        {
          "internalType": "externalEuint128",
          "name": "a",
          "type": "bytes32"
        },
        {
          "internalType": "uint128",
          "name": "b",
          "type": "uint128"
        },
        {
          "internalType": "bytes",
          "name": "inputProof",
          "type": "bytes"
        }
      ],
      "name": "ne_euint128_uint128",
      "outputs": [],
      "stateMutability": "nonpayable",
      "type": "function"
    },
    {
      "inputs": [
        {
          "internalType": "externalEuint32",
          "name": "a",
          "type": "bytes32"
        },
        {
          "internalType": "externalEuint64",
          "name": "b",
          "type": "bytes32"
        },
        {
          "internalType": "bytes",
          "name": "inputProof",
          "type": "bytes"
        }
      ],
      "name": "ne_euint32_euint64",
      "outputs": [],
      "stateMutability": "nonpayable",
      "type": "function"
    },
    {
      "inputs": [
        {
          "internalType": "externalEuint64",
          "name": "a",
          "type": "bytes32"
        },
        {
          "internalType": "externalEuint128",
          "name": "b",
          "type": "bytes32"
        },
        {
          "internalType": "bytes",
          "name": "inputProof",
          "type": "bytes"
        }
      ],
      "name": "ne_euint64_euint128",
      "outputs": [],
      "stateMutability": "nonpayable",
      "type": "function"
    },
    {
      "inputs": [
        {
          "internalType": "externalEuint8",
          "name": "a",
          "type": "bytes32"
        },
        {
          "internalType": "externalEuint128",
          "name": "b",
          "type": "bytes32"
        },
        {
          "internalType": "bytes",
          "name": "inputProof",
          "type": "bytes"
        }
      ],
      "name": "ne_euint8_euint128",
      "outputs": [],
      "stateMutability": "nonpayable",
      "type": "function"
    },
    {
      "inputs": [
        {
          "internalType": "uint128",
          "name": "a",
          "type": "uint128"
        },
        {
          "internalType": "externalEuint128",
          "name": "b",
          "type": "bytes32"
        },
        {
          "internalType": "bytes",
          "name": "inputProof",
          "type": "bytes"
        }
      ],
      "name": "ne_uint128_euint128",
      "outputs": [],
      "stateMutability": "nonpayable",
      "type": "function"
    },
    {
      "inputs": [
        {
          "internalType": "uint16",
          "name": "a",
          "type": "uint16"
        },
        {
          "internalType": "externalEuint16",
          "name": "b",
          "type": "bytes32"
        },
        {
          "internalType": "bytes",
          "name": "inputProof",
          "type": "bytes"
        }
      ],
      "name": "ne_uint16_euint16",
      "outputs": [],
      "stateMutability": "nonpayable",
      "type": "function"
    },
    {
      "inputs": [
        {
          "internalType": "externalEuint128",
          "name": "a",
          "type": "bytes32"
        },
        {
          "internalType": "bytes",
          "name": "inputProof",
          "type": "bytes"
        }
      ],
      "name": "neg_euint128",
      "outputs": [],
      "stateMutability": "nonpayable",
      "type": "function"
    },
    {
      "inputs": [
        {
          "internalType": "externalEuint128",
          "name": "a",
          "type": "bytes32"
        },
        {
          "internalType": "externalEuint64",
          "name": "b",
          "type": "bytes32"
        },
        {
          "internalType": "bytes",
          "name": "inputProof",
          "type": "bytes"
        }
      ],
      "name": "or_euint128_euint64",
      "outputs": [],
      "stateMutability": "nonpayable",
      "type": "function"
    },
    {
      "inputs": [
        {
          "internalType": "externalEuint256",
          "name": "a",
          "type": "bytes32"
        },
        {
          "internalType": "externalEuint8",
          "name": "b",
          "type": "bytes32"
        },
        {
          "internalType": "bytes",
          "name": "inputProof",
          "type": "bytes"
        }
      ],
      "name": "or_euint256_euint8",
      "outputs": [],
      "stateMutability": "nonpayable",
      "type": "function"
    },
    {
      "inputs": [
        {
          "internalType": "externalEuint8",
          "name": "a",
          "type": "bytes32"
        },
        {
          "internalType": "externalEuint64",
          "name": "b",
          "type": "bytes32"
        },
        {
          "internalType": "bytes",
          "name": "inputProof",
          "type": "bytes"
        }
      ],
      "name": "or_euint8_euint64",
      "outputs": [],
      "stateMutability": "nonpayable",
      "type": "function"
    },
    {
      "inputs": [
        {
          "internalType": "externalEuint8",
          "name": "a",
          "type": "bytes32"
        },
        {
          "internalType": "externalEuint8",
          "name": "b",
          "type": "bytes32"
        },
        {
          "internalType": "bytes",
          "name": "inputProof",
          "type": "bytes"
        }
      ],
      "name": "or_euint8_euint8",
      "outputs": [],
      "stateMutability": "nonpayable",
      "type": "function"
    },
    {
      "inputs": [
        {
          "internalType": "externalEuint8",
          "name": "a",
          "type": "bytes32"
        },
        {
          "internalType": "uint8",
          "name": "b",
          "type": "uint8"
        },
        {
          "internalType": "bytes",
          "name": "inputProof",
          "type": "bytes"
        }
      ],
      "name": "or_euint8_uint8",
      "outputs": [],
      "stateMutability": "nonpayable",
      "type": "function"
    },
    {
      "inputs": [
        {
          "internalType": "uint8",
          "name": "a",
          "type": "uint8"
        },
        {
          "internalType": "externalEuint8",
          "name": "b",
          "type": "bytes32"
        },
        {
          "internalType": "bytes",
          "name": "inputProof",
          "type": "bytes"
        }
      ],
      "name": "or_uint8_euint8",
      "outputs": [],
      "stateMutability": "nonpayable",
      "type": "function"
    },
    {
      "inputs": [
        {
          "internalType": "externalEuint32",
          "name": "a",
          "type": "bytes32"
        },
        {
          "internalType": "uint32",
          "name": "b",
          "type": "uint32"
        },
        {
          "internalType": "bytes",
          "name": "inputProof",
          "type": "bytes"
        }
      ],
      "name": "rem_euint32_uint32",
      "outputs": [],
      "stateMutability": "nonpayable",
      "type": "function"
    },
    {
      "inputs": [],
      "name": "resEbool",
      "outputs": [
        {
          "internalType": "ebool",
          "name": "",
          "type": "bytes32"
        }
      ],
      "stateMutability": "view",
      "type": "function"
    },
    {
      "inputs": [],
      "name": "resEuint128",
      "outputs": [
        {
          "internalType": "euint128",
          "name": "",
          "type": "bytes32"
        }
      ],
      "stateMutability": "view",
      "type": "function"
    },
    {
      "inputs": [],
      "name": "resEuint16",
      "outputs": [
        {
          "internalType": "euint16",
          "name": "",
          "type": "bytes32"
        }
      ],
      "stateMutability": "view",
      "type": "function"
    },
    {
      "inputs": [],
      "name": "resEuint256",
      "outputs": [
        {
          "internalType": "euint256",
          "name": "",
          "type": "bytes32"
        }
      ],
      "stateMutability": "view",
      "type": "function"
    },
    {
      "inputs": [],
      "name": "resEuint32",
      "outputs": [
        {
          "internalType": "euint32",
          "name": "",
          "type": "bytes32"
        }
      ],
      "stateMutability": "view",
      "type": "function"
    },
    {
      "inputs": [],
      "name": "resEuint64",
      "outputs": [
        {
          "internalType": "euint64",
          "name": "",
          "type": "bytes32"
        }
      ],
      "stateMutability": "view",
      "type": "function"
    },
    {
      "inputs": [],
      "name": "resEuint8",
      "outputs": [
        {
          "internalType": "euint8",
          "name": "",
          "type": "bytes32"
        }
      ],
      "stateMutability": "view",
      "type": "function"
    },
    {
      "inputs": [
        {
          "internalType": "externalEuint128",
          "name": "a",
          "type": "bytes32"
        },
        {
          "internalType": "uint8",
          "name": "b",
          "type": "uint8"
        },
        {
          "internalType": "bytes",
          "name": "inputProof",
          "type": "bytes"
        }
      ],
      "name": "rotl_euint128_uint8",
      "outputs": [],
      "stateMutability": "nonpayable",
      "type": "function"
    },
    {
      "inputs": [
        {
          "internalType": "externalEuint16",
          "name": "a",
          "type": "bytes32"
        },
        {
          "internalType": "externalEuint8",
          "name": "b",
          "type": "bytes32"
        },
        {
          "internalType": "bytes",
          "name": "inputProof",
          "type": "bytes"
        }
      ],
      "name": "rotr_euint16_euint8",
      "outputs": [],
      "stateMutability": "nonpayable",
      "type": "function"
    },
    {
      "inputs": [
        {
          "internalType": "externalEuint256",
          "name": "a",
          "type": "bytes32"
        },
        {
          "internalType": "uint8",
          "name": "b",
          "type": "uint8"
        },
        {
          "internalType": "bytes",
          "name": "inputProof",
          "type": "bytes"
        }
      ],
      "name": "rotr_euint256_uint8",
      "outputs": [],
      "stateMutability": "nonpayable",
      "type": "function"
    },
    {
      "inputs": [
        {
          "internalType": "externalEuint32",
          "name": "a",
          "type": "bytes32"
        },
        {
          "internalType": "externalEuint8",
          "name": "b",
          "type": "bytes32"
        },
        {
          "internalType": "bytes",
          "name": "inputProof",
          "type": "bytes"
        }
      ],
      "name": "shl_euint32_euint8",
      "outputs": [],
      "stateMutability": "nonpayable",
      "type": "function"
    },
    {
      "inputs": [
        {
          "internalType": "externalEuint16",
          "name": "a",
          "type": "bytes32"
        },
        {
          "internalType": "externalEuint8",
          "name": "b",
          "type": "bytes32"
        },
        {
          "internalType": "bytes",
          "name": "inputProof",
          "type": "bytes"
        }
      ],
      "name": "shr_euint16_euint8",
      "outputs": [],
      "stateMutability": "nonpayable",
      "type": "function"
    },
    {
      "inputs": [
        {
          "internalType": "externalEuint16",
          "name": "a",
          "type": "bytes32"
        },
        {
          "internalType": "uint8",
          "name": "b",
          "type": "uint8"
        },
        {
          "internalType": "bytes",
          "name": "inputProof",
          "type": "bytes"
        }
      ],
      "name": "shr_euint16_uint8",
      "outputs": [],
      "stateMutability": "nonpayable",
      "type": "function"
    },
    {
      "inputs": [
        {
          "internalType": "externalEuint64",
          "name": "a",
          "type": "bytes32"
        },
        {
          "internalType": "uint8",
          "name": "b",
          "type": "uint8"
        },
        {
          "internalType": "bytes",
          "name": "inputProof",
          "type": "bytes"
        }
      ],
      "name": "shr_euint64_uint8",
      "outputs": [],
      "stateMutability": "nonpayable",
      "type": "function"
    },
    {
      "inputs": [
        {
          "internalType": "externalEuint8",
          "name": "a",
          "type": "bytes32"
        },
        {
          "internalType": "externalEuint8",
          "name": "b",
          "type": "bytes32"
        },
        {
          "internalType": "bytes",
          "name": "inputProof",
          "type": "bytes"
        }
      ],
      "name": "shr_euint8_euint8",
      "outputs": [],
      "stateMutability": "nonpayable",
      "type": "function"
    },
    {
      "inputs": [
        {
          "internalType": "externalEuint128",
          "name": "a",
          "type": "bytes32"
        },
        {
          "internalType": "externalEuint64",
          "name": "b",
          "type": "bytes32"
        },
        {
          "internalType": "bytes",
          "name": "inputProof",
          "type": "bytes"
        }
      ],
      "name": "sub_euint128_euint64",
      "outputs": [],
      "stateMutability": "nonpayable",
      "type": "function"
    },
    {
      "inputs": [
        {
          "internalType": "externalEuint16",
          "name": "a",
          "type": "bytes32"
        },
        {
          "internalType": "externalEuint64",
          "name": "b",
          "type": "bytes32"
        },
        {
          "internalType": "bytes",
          "name": "inputProof",
          "type": "bytes"
        }
      ],
      "name": "sub_euint16_euint64",
      "outputs": [],
      "stateMutability": "nonpayable",
      "type": "function"
    },
    {
      "inputs": [
        {
          "internalType": "externalEuint64",
          "name": "a",
          "type": "bytes32"
        },
        {
          "internalType": "externalEuint16",
          "name": "b",
          "type": "bytes32"
        },
        {
          "internalType": "bytes",
          "name": "inputProof",
          "type": "bytes"
        }
      ],
      "name": "sub_euint64_euint16",
      "outputs": [],
      "stateMutability": "nonpayable",
      "type": "function"
    },
    {
      "inputs": [
        {
          "internalType": "uint16",
          "name": "a",
          "type": "uint16"
        },
        {
          "internalType": "externalEuint16",
          "name": "b",
          "type": "bytes32"
        },
        {
          "internalType": "bytes",
          "name": "inputProof",
          "type": "bytes"
        }
      ],
      "name": "sub_uint16_euint16",
      "outputs": [],
      "stateMutability": "nonpayable",
      "type": "function"
    },
    {
      "inputs": [
        {
          "internalType": "uint8",
          "name": "a",
          "type": "uint8"
        },
        {
          "internalType": "externalEuint8",
          "name": "b",
          "type": "bytes32"
        },
        {
          "internalType": "bytes",
          "name": "inputProof",
          "type": "bytes"
        }
      ],
      "name": "sub_uint8_euint8",
      "outputs": [],
      "stateMutability": "nonpayable",
      "type": "function"
    },
    {
      "inputs": [
        {
          "internalType": "externalEuint128",
          "name": "a",
          "type": "bytes32"
        },
        {
          "internalType": "externalEuint16",
          "name": "b",
          "type": "bytes32"
        },
        {
          "internalType": "bytes",
          "name": "inputProof",
          "type": "bytes"
        }
      ],
      "name": "xor_euint128_euint16",
      "outputs": [],
      "stateMutability": "nonpayable",
      "type": "function"
    },
    {
      "inputs": [
        {
          "internalType": "externalEuint128",
          "name": "a",
          "type": "bytes32"
        },
        {
          "internalType": "externalEuint8",
          "name": "b",
          "type": "bytes32"
        },
        {
          "internalType": "bytes",
          "name": "inputProof",
          "type": "bytes"
        }
      ],
      "name": "xor_euint128_euint8",
      "outputs": [],
      "stateMutability": "nonpayable",
      "type": "function"
    },
    {
      "inputs": [
        {
          "internalType": "externalEuint16",
          "name": "a",
          "type": "bytes32"
        },
        {
          "internalType": "externalEuint256",
          "name": "b",
          "type": "bytes32"
        },
        {
          "internalType": "bytes",
          "name": "inputProof",
          "type": "bytes"
        }
      ],
      "name": "xor_euint16_euint256",
      "outputs": [],
      "stateMutability": "nonpayable",
      "type": "function"
    },
    {
      "inputs": [
        {
          "internalType": "externalEuint32",
          "name": "a",
          "type": "bytes32"
        },
        {
          "internalType": "externalEuint16",
          "name": "b",
          "type": "bytes32"
        },
        {
          "internalType": "bytes",
          "name": "inputProof",
          "type": "bytes"
        }
      ],
      "name": "xor_euint32_euint16",
      "outputs": [],
      "stateMutability": "nonpayable",
      "type": "function"
    },
    {
      "inputs": [
        {
          "internalType": "externalEuint32",
          "name": "a",
          "type": "bytes32"
        },
        {
          "internalType": "externalEuint256",
          "name": "b",
          "type": "bytes32"
        },
        {
          "internalType": "bytes",
          "name": "inputProof",
          "type": "bytes"
        }
      ],
      "name": "xor_euint32_euint256",
      "outputs": [],
      "stateMutability": "nonpayable",
      "type": "function"
    },
    {
      "inputs": [
        {
          "internalType": "externalEuint32",
          "name": "a",
          "type": "bytes32"
        },
        {
          "internalType": "externalEuint8",
          "name": "b",
          "type": "bytes32"
        },
        {
          "internalType": "bytes",
          "name": "inputProof",
          "type": "bytes"
        }
      ],
      "name": "xor_euint32_euint8",
      "outputs": [],
      "stateMutability": "nonpayable",
      "type": "function"
    },
    {
      "inputs": [
        {
          "internalType": "externalEuint64",
          "name": "a",
          "type": "bytes32"
        },
        {
          "internalType": "externalEuint16",
          "name": "b",
          "type": "bytes32"
        },
        {
          "internalType": "bytes",
          "name": "inputProof",
          "type": "bytes"
        }
      ],
      "name": "xor_euint64_euint16",
      "outputs": [],
      "stateMutability": "nonpayable",
      "type": "function"
    }
  ],
  "bytecode": "0x60806040523480156200001157600080fd5b5062000032620000266200003860201b60201c565b620000e060201b60201c565b6200026c565b6200004262000209565b60405180606001604052807350157cffd6bbfa2dece204a89ec419c23ef5755d73ffffffffffffffffffffffffffffffffffffffff16815260200173e3a9105a3a932253a70f126eb1e3b589c643dd2473ffffffffffffffffffffffffffffffffffffffff16815260200173901f8942346f7ab3a01f6d7613119bca447bb03073ffffffffffffffffffffffffffffffffffffffff16815250905090565b620000f181620000f460201b60201c565b50565b600062000106620001e160201b60201c565b905081600001518160000160006101000a81548173ffffffffffffffffffffffffffffffffffffffff021916908373ffffffffffffffffffffffffffffffffffffffff16021790555081602001518160010160006101000a81548173ffffffffffffffffffffffffffffffffffffffff021916908373ffffffffffffffffffffffffffffffffffffffff16021790555081604001518160020160006101000a81548173ffffffffffffffffffffffffffffffffffffffff021916908373ffffffffffffffffffffffffffffffffffffffff1602179055505050565b60007f9e7b61f58c47dc699ac88507c4f5bb9f121c03808c5676a8078fe583e4649700905090565b6040518060600160405280600073ffffffffffffffffffffffffffffffffffffffff168152602001600073ffffffffffffffffffffffffffffffffffffffff168152602001600073ffffffffffffffffffffffffffffffffffffffff1681525090565b61a6ce806200027c6000396000f3fe608060405234801561001057600080fd5b50600436106105495760003560e01c80638b88bcd3116102ca578063c75ab52a1161018d578063e45db778116100f4578063f5d85e0f116100ad578063f6d7cd0411610087578063f6d7cd0414610f88578063f7ea105614610fa4578063f80ef16f14610fc0578063fe31c7d914610fdc57610549565b8063f5d85e0f14610f34578063f5f5e09614610f50578063f6bf5a7214610f6c57610549565b8063e45db77814610e8a578063eb04c2da14610ea6578063ec154c3814610ec4578063f01f46ea14610ee0578063f5312a8b14610efc578063f59c553e14610f1857610549565b8063d6bd5cfb11610146578063d6bd5cfb14610de2578063da9f9a6d14610dfe578063dd52e2d914610e1a578063df5b8a6614610e36578063df8104eb14610e52578063e25ac56414610e6e57610549565b8063c75ab52a14610d3a578063c93b307814610d56578063cd28fa7e14610d72578063cd55020414610d8e578063ce8c875414610daa578063d3056aa514610dc657610549565b8063aac9a7fe11610231578063b7440fdb116101ea578063b7440fdb14610c8c578063bbc307da14610caa578063c08d508114610cc8578063c2ea382014610ce4578063c53e64d014610d00578063c662834214610d1c57610549565b8063aac9a7fe14610be4578063aafefc3514610c00578063ab4a262314610c1c578063affb113014610c38578063b025657014610c54578063b42eb51d14610c7057610549565b80639683fc11116102835780639683fc1114610b3a578063981a902614610b5657806398a6a0f514610b725780639d66377f14610b8e578063a71a71eb14610baa578063a7287cac14610bc857610549565b80638b88bcd314610a925780638bf4c53814610aae5780638c88335514610aca5780638f77138114610ae65780639443a8e514610b025780639546db0114610b1e57610549565b8063392e6253116104125780635e328837116103795780637369269b116103325780637369269b146109e8578063776598de14610a0457806377d9117814610a205780637b37a03b14610a3e5780637e305b7e14610a5a5780637ea9462614610a7657610549565b80635e328837146109405780635f0b659a1461095c57806366a84ba61461097857806366e73a441461099457806367293e2c146109b0578063709d064c146109cc57610549565b8063469f5015116103cb578063469f50151461089857806346ac8e0c146108b457806348660828146108d05780634d4f99c9146108ec57806355b6f9d7146109085780635bf8a53a1461092457610549565b8063392e6253146107f05780633b9317e21461080c5780633c846506146108285780633cd11e3e14610844578063412c0dfe14610860578063455f73d41461087c57610549565b806314e2fe58116104b65780632aab6ab21161046f5780632aab6ab2146107465780632cd442c7146107625780632cfb9aa41461077e5780632d37c2ff1461079a5780632e77579c146107b857806337fcef70146107d457610549565b806314e2fe581461069e57806316f6b145146106ba5780631a61ad19146106d65780631c996ff5146106f2578063230531b31461070e5780632681a5701461072a57610549565b806307d3bafa1161050857806307d3bafa146105f657806309dd1686146106125780630a5a51ac1461062e57806310787a851461064a578063112b693914610666578063141fdbc61461068257610549565b80625935eb1461054e5780627b4fd11461056a57806301e00cd91461058657806302059d15146105a257806306350349146105be5780630682f217146105da575b600080fd5b61056860048036038101906105639190618a69565b610ff8565b005b610584600480360381019061057f9190618b09565b6110c4565b005b6105a0600480360381019061059b9190618ba9565b611190565b005b6105bc60048036038101906105b79190618c1d565b61125c565b005b6105d860048036038101906105d39190618a69565b611328565b005b6105f460048036038101906105ef9190618ccd565b6113f4565b005b610610600480360381019061060b9190618d6d565b611473565b005b61062c60048036038101906106279190618de1565b61153f565b005b61064860048036038101906106439190618e8f565b61160b565b005b610664600480360381019061065f9190618ba9565b61168a565b005b610680600480360381019061067b9190618f3c565b611756565b005b61069c60048036038101906106979190618fb0565b6117d5565b005b6106b860048036038101906106b39190619024565b6118a1565b005b6106d460048036038101906106cf9190618f3c565b61196d565b005b6106f060048036038101906106eb9190619098565b6119ec565b005b61070c60048036038101906107079190618e8f565b611a6b565b005b61072860048036038101906107239190619138565b611aea565b005b610744600480360381019061073f9190619138565b611bb6565b005b610760600480360381019061075b9190619024565b611c82565b005b61077c600480360381019061077791906191ac565b611d4e565b005b61079860048036038101906107939190619220565b611e1a565b005b6107a2611ee6565b6040516107af91906192b5565b60405180910390f35b6107d260048036038101906107cd9190618de1565b611eec565b005b6107ee60048036038101906107e991906192d0565b611fb8565b005b61080a60048036038101906108059190618d6d565b612084565b005b61082660048036038101906108219190619344565b612150565b005b610842600480360381019061083d9190619220565b6121cf565b005b61085e600480360381019061085991906193b8565b61229b565b005b61087a6004803603810190610875919061942c565b61231a565b005b61089660048036038101906108919190618f3c565b6123e6565b005b6108b260048036038101906108ad91906194e8565b612465565b005b6108ce60048036038101906108c9919061955c565b6124e4565b005b6108ea60048036038101906108e5919061942c565b61255b565b005b610906600480360381019061090191906195bc565b612627565b005b610922600480360381019061091d9190618a69565b6126a6565b005b61093e60048036038101906109399190618de1565b612772565b005b61095a60048036038101906109559190618e8f565b61283e565b005b61097660048036038101906109719190619630565b6128bd565b005b610992600480360381019061098d91906194e8565b612989565b005b6109ae60048036038101906109a991906196e4565b612a08565b005b6109ca60048036038101906109c59190618de1565b612a87565b005b6109e660048036038101906109e19190619024565b612b53565b005b610a0260048036038101906109fd9190619758565b612c1f565b005b610a1e6004803603810190610a1991906197cc565b612ceb565b005b610a28612db7565b604051610a35919061984f565b60405180910390f35b610a586004803603810190610a53919061986a565b612dbd565b005b610a746004803603810190610a6f919061942c565b612e89565b005b610a906004803603810190610a8b91906198de565b612f55565b005b610aac6004803603810190610aa7919061986a565b613021565b005b610ac86004803603810190610ac39190618c1d565b6130ed565b005b610ae46004803603810190610adf9190619952565b6131b9565b005b610b006004803603810190610afb91906199c6565b613285565b005b610b1c6004803603810190610b179190619a3a565b613351565b005b610b386004803603810190610b3391906192d0565b61341d565b005b610b546004803603810190610b4f9190619aae565b6134e9565b005b610b706004803603810190610b6b9190618e8f565b613568565b005b610b8c6004803603810190610b879190618de1565b6135e7565b005b610ba86004803603810190610ba39190618c1d565b6136b3565b005b610bb261377f565b604051610bbf9190619b31565b60405180910390f35b610be26004803603810190610bdd9190619b4c565b613785565b005b610bfe6004803603810190610bf991906198de565b613851565b005b610c1a6004803603810190610c159190619bc0565b61391d565b005b610c366004803603810190610c319190619c34565b6139e9565b005b610c526004803603810190610c4d9190619ca8565b613ab5565b005b610c6e6004803603810190610c6991906192d0565b613b81565b005b610c8a6004803603810190610c859190619758565b613c4d565b005b610c94613d19565b604051610ca19190619d2b565b60405180910390f35b610cb2613d1f565b604051610cbf9190619d55565b60405180910390f35b610ce26004803603810190610cdd9190619d70565b613d25565b005b610cfe6004803603810190610cf99190619de4565b613da4565b005b610d1a6004803603810190610d1591906199c6565b613e70565b005b610d24613f3c565b604051610d319190619e67565b60405180910390f35b610d546004803603810190610d4f9190619e82565b613f42565b005b610d706004803603810190610d6b9190619ef6565b613fc1565b005b610d8c6004803603810190610d879190619098565b61408d565b005b610da86004803603810190610da39190619f6a565b61410c565b005b610dc46004803603810190610dbf9190619630565b61418b565b005b610de06004803603810190610ddb9190619fde565b614257565b005b610dfc6004803603810190610df791906191ac565b614323565b005b610e186004803603810190610e139190618ccd565b6143ef565b005b610e346004803603810190610e2f91906191ac565b61446e565b005b610e506004803603810190610e4b91906195bc565b61453a565b005b610e6c6004803603810190610e679190618c1d565b6145b9565b005b610e886004803603810190610e839190618d6d565b614685565b005b610ea46004803603810190610e9f9190618c1d565b614751565b005b610eae61481d565b604051610ebb919061a061565b60405180910390f35b610ede6004803603810190610ed99190619952565b614823565b005b610efa6004803603810190610ef5919061a07c565b6148ef565b005b610f166004803603810190610f11919061a0f0565b61496e565b005b610f326004803603810190610f2d9190619b4c565b614a3a565b005b610f4e6004803603810190610f4991906191ac565b614b06565b005b610f6a6004803603810190610f65919061a164565b614bd2565b005b610f866004803603810190610f819190618fb0565b614c9e565b005b610fa26004803603810190610f9d9190619758565b614d6a565b005b610fbe6004803603810190610fb99190618c1d565b614e36565b005b610fda6004803603810190610fd59190618d6d565b614f02565b005b610ff66004803603810190610ff19190619024565b614fce565b005b60006110488584848080601f016020809104026020016040519081016040528093929190818152602001838380828437600081840152601f19601f8201169050808301925050505050505061509a565b9050600061109a8585858080601f016020809104026020016040519081016040528093929190818152602001838380828437600081840152601f19601f82011690508083019250505050505050615130565b905060006110a883836151c6565b90506110b381615218565b508060028190555050505050505050565b60006111148584848080601f016020809104026020016040519081016040528093929190818152602001838380828437600081840152601f19601f82011690508083019250505050505050615245565b905060006111668585858080601f016020809104026020016040519081016040528093929190818152602001838380828437600081840152601f19601f82011690508083019250505050505050615130565b9050600061117483836152db565b905061117f8161532d565b508060008190555050505050505050565b60006111e08584848080601f016020809104026020016040519081016040528093929190818152602001838380828437600081840152601f19601f8201169050808301925050505050505061535a565b905060006112328585858080601f016020809104026020016040519081016040528093929190818152602001838380828437600081840152601f19601f8201169050808301925050505050505061509a565b9050600061124083836153f0565b905061124b8161532d565b508060008190555050505050505050565b60006112ac8584848080601f016020809104026020016040519081016040528093929190818152602001838380828437600081840152601f19601f8201169050808301925050505050505061535a565b905060006112fe8585858080601f016020809104026020016040519081016040528093929190818152602001838380828437600081840152601f19601f82011690508083019250505050505050615130565b9050600061130c8383615442565b90506113178161532d565b508060008190555050505050505050565b60006113788584848080601f016020809104026020016040519081016040528093929190818152602001838380828437600081840152601f19601f8201169050808301925050505050505061509a565b905060006113ca8585858080601f016020809104026020016040519081016040528093929190818152602001838380828437600081840152601f19601f82011690508083019250505050505050615130565b905060006113d88383615494565b90506113e381615218565b508060028190555050505050505050565b600084905060006114498585858080601f016020809104026020016040519081016040528093929190818152602001838380828437600081840152601f19601f8201169050808301925050505050505061535a565b9050600061145783836154e6565b90506114628161532d565b508060008190555050505050505050565b60006114c38584848080601f016020809104026020016040519081016040528093929190818152602001838380828437600081840152601f19601f8201169050808301925050505050505061551f565b905060006115158585858080601f016020809104026020016040519081016040528093929190818152602001838380828437600081840152601f19601f8201169050808301925050505050505061509a565b9050600061152383836155b5565b905061152e81615607565b508060058190555050505050505050565b600061158f8584848080601f016020809104026020016040519081016040528093929190818152602001838380828437600081840152601f19601f82011690508083019250505050505050615245565b905060006115e18585858080601f016020809104026020016040519081016040528093929190818152602001838380828437600081840152601f19601f8201169050808301925050505050505061509a565b905060006115ef8383615634565b90506115fa81615686565b508060048190555050505050505050565b600084905060006116608585858080601f016020809104026020016040519081016040528093929190818152602001838380828437600081840152601f19601f8201169050808301925050505050505061509a565b9050600061166e83836156b3565b905061167981615218565b508060028190555050505050505050565b60006116da8584848080601f016020809104026020016040519081016040528093929190818152602001838380828437600081840152601f19601f8201169050808301925050505050505061535a565b9050600061172c8585858080601f016020809104026020016040519081016040528093929190818152602001838380828437600081840152601f19601f8201169050808301925050505050505061509a565b9050600061173a83836156f0565b905061174581615742565b508060038190555050505050505050565b600084905060006117ab8585858080601f016020809104026020016040519081016040528093929190818152602001838380828437600081840152601f19601f82011690508083019250505050505050615130565b905060006117b9838361576f565b90506117c4816157a5565b508060018190555050505050505050565b60006118258584848080601f016020809104026020016040519081016040528093929190818152602001838380828437600081840152601f19601f8201169050808301925050505050505061535a565b905060006118778585858080601f016020809104026020016040519081016040528093929190818152602001838380828437600081840152601f19601f8201169050808301925050505050505061551f565b9050600061188583836157d2565b905061189081615607565b508060058190555050505050505050565b60006118f18584848080601f016020809104026020016040519081016040528093929190818152602001838380828437600081840152601f19601f82011690508083019250505050505050615245565b905060006119438585858080601f016020809104026020016040519081016040528093929190818152602001838380828437600081840152601f19601f8201169050808301925050505050505061535a565b905060006119518383615824565b905061195c81615686565b508060048190555050505050505050565b600084905060006119c28585858080601f016020809104026020016040519081016040528093929190818152602001838380828437600081840152601f19601f82011690508083019250505050505050615130565b905060006119d08383615876565b90506119db816157a5565b508060018190555050505050505050565b6000611a3c8584848080601f016020809104026020016040519081016040528093929190818152602001838380828437600081840152601f19601f82011690508083019250505050505050615130565b905060008490506000611a4f83836158ac565b9050611a5a816157a5565b508060018190555050505050505050565b60008490506000611ac08585858080601f016020809104026020016040519081016040528093929190818152602001838380828437600081840152601f19601f8201169050808301925050505050505061509a565b90506000611ace83836158e2565b9050611ad981615218565b508060028190555050505050505050565b6000611b3a8584848080601f016020809104026020016040519081016040528093929190818152602001838380828437600081840152601f19601f82011690508083019250505050505050615919565b90506000611b8c8585858080601f016020809104026020016040519081016040528093929190818152602001838380828437600081840152601f19601f82011690508083019250505050505050615130565b90506000611b9a83836159af565b9050611ba581615a01565b508060068190555050505050505050565b6000611c068584848080601f016020809104026020016040519081016040528093929190818152602001838380828437600081840152601f19601f82011690508083019250505050505050615919565b90506000611c588585858080601f016020809104026020016040519081016040528093929190818152602001838380828437600081840152601f19601f82011690508083019250505050505050615130565b90506000611c668383615a2e565b9050611c7181615a01565b508060068190555050505050505050565b6000611cd28584848080601f016020809104026020016040519081016040528093929190818152602001838380828437600081840152601f19601f82011690508083019250505050505050615245565b90506000611d248585858080601f016020809104026020016040519081016040528093929190818152602001838380828437600081840152601f19601f8201169050808301925050505050505061535a565b90506000611d328383615a80565b9050611d3d81615686565b508060048190555050505050505050565b6000611d9e8584848080601f016020809104026020016040519081016040528093929190818152602001838380828437600081840152601f19601f82011690508083019250505050505050615245565b90506000611df08585858080601f016020809104026020016040519081016040528093929190818152602001838380828437600081840152601f19601f8201169050808301925050505050505061551f565b90506000611dfe8383615ad2565b9050611e0981615607565b508060058190555050505050505050565b6000611e6a8584848080601f016020809104026020016040519081016040528093929190818152602001838380828437600081840152601f19601f82011690508083019250505050505050615130565b90506000611ebc8585858080601f016020809104026020016040519081016040528093929190818152602001838380828437600081840152601f19601f8201169050808301925050505050505061535a565b90506000611eca8383615b24565b9050611ed58161532d565b508060008190555050505050505050565b60005481565b6000611f3c8584848080601f016020809104026020016040519081016040528093929190818152602001838380828437600081840152601f19601f82011690508083019250505050505050615245565b90506000611f8e8585858080601f016020809104026020016040519081016040528093929190818152602001838380828437600081840152601f19601f8201169050808301925050505050505061509a565b90506000611f9c8383615b76565b9050611fa781615686565b508060048190555050505050505050565b60006120088584848080601f016020809104026020016040519081016040528093929190818152602001838380828437600081840152601f19601f82011690508083019250505050505050615130565b9050600061205a8585858080601f016020809104026020016040519081016040528093929190818152602001838380828437600081840152601f19601f8201169050808301925050505050505061509a565b905060006120688383615bc8565b905061207381615218565b508060028190555050505050505050565b60006120d48584848080601f016020809104026020016040519081016040528093929190818152602001838380828437600081840152601f19601f8201169050808301925050505050505061551f565b905060006121268585858080601f016020809104026020016040519081016040528093929190818152602001838380828437600081840152601f19601f8201169050808301925050505050505061509a565b905060006121348383615c1a565b905061213f81615607565b508060058190555050505050505050565b60006121a08584848080601f016020809104026020016040519081016040528093929190818152602001838380828437600081840152601f19601f8201169050808301925050505050505061509a565b9050600084905060006121b38383615c6c565b90506121be81615218565b508060028190555050505050505050565b600061221f8584848080601f016020809104026020016040519081016040528093929190818152602001838380828437600081840152601f19601f82011690508083019250505050505050615130565b905060006122718585858080601f016020809104026020016040519081016040528093929190818152602001838380828437600081840152601f19601f8201169050808301925050505050505061535a565b9050600061227f8383615ca2565b905061228a8161532d565b508060008190555050505050505050565b60006122eb8584848080601f016020809104026020016040519081016040528093929190818152602001838380828437600081840152601f19601f82011690508083019250505050505050615919565b9050600084905060006122fe8383615cf4565b905061230981615a01565b508060068190555050505050505050565b600061236a8584848080601f016020809104026020016040519081016040528093929190818152602001838380828437600081840152601f19601f82011690508083019250505050505050615130565b905060006123bc8585858080601f016020809104026020016040519081016040528093929190818152602001838380828437600081840152601f19601f82011690508083019250505050505050615130565b905060006123ca8383615d2a565b90506123d58161532d565b508060008190555050505050505050565b6000849050600061243b8585858080601f016020809104026020016040519081016040528093929190818152602001838380828437600081840152601f19601f82011690508083019250505050505050615130565b905060006124498383615d74565b9050612454816157a5565b508060018190555050505050505050565b60006124b58584848080601f016020809104026020016040519081016040528093929190818152602001838380828437600081840152601f19601f8201169050808301925050505050505061551f565b9050600084905060006124c88383615db1565b90506124d381615607565b508060058190555050505050505050565b60006125348484848080601f016020809104026020016040519081016040528093929190818152602001838380828437600081840152601f19601f8201169050808301925050505050505061551f565b9050600061254182615df4565b905061254c81615607565b50806005819055505050505050565b60006125ab8584848080601f016020809104026020016040519081016040528093929190818152602001838380828437600081840152601f19601f82011690508083019250505050505050615130565b905060006125fd8585858080601f016020809104026020016040519081016040528093929190818152602001838380828437600081840152601f19601f82011690508083019250505050505050615130565b9050600061260b8383615e20565b9050612616816157a5565b508060018190555050505050505050565b60006126778584848080601f016020809104026020016040519081016040528093929190818152602001838380828437600081840152601f19601f8201169050808301925050505050505061535a565b90506000849050600061268a8383615e6a565b905061269581615742565b508060038190555050505050505050565b60006126f68584848080601f016020809104026020016040519081016040528093929190818152602001838380828437600081840152601f19601f8201169050808301925050505050505061509a565b905060006127488585858080601f016020809104026020016040519081016040528093929190818152602001838380828437600081840152601f19601f82011690508083019250505050505050615130565b905060006127568383615ea1565b905061276181615218565b508060028190555050505050505050565b60006127c28584848080601f016020809104026020016040519081016040528093929190818152602001838380828437600081840152601f19601f82011690508083019250505050505050615245565b905060006128148585858080601f016020809104026020016040519081016040528093929190818152602001838380828437600081840152601f19601f8201169050808301925050505050505061509a565b905060006128228383615ef3565b905061282d81615686565b508060048190555050505050505050565b600084905060006128938585858080601f016020809104026020016040519081016040528093929190818152602001838380828437600081840152601f19601f8201169050808301925050505050505061509a565b905060006128a18383615f45565b90506128ac8161532d565b508060008190555050505050505050565b600061290d8584848080601f016020809104026020016040519081016040528093929190818152602001838380828437600081840152601f19601f8201169050808301925050505050505061535a565b9050600061295f8585858080601f016020809104026020016040519081016040528093929190818152602001838380828437600081840152601f19601f82011690508083019250505050505050615245565b9050600061296d8383615f7c565b90506129788161532d565b508060008190555050505050505050565b60006129d98584848080601f016020809104026020016040519081016040528093929190818152602001838380828437600081840152601f19601f8201169050808301925050505050505061551f565b9050600084905060006129ec8383615fce565b90506129f78161532d565b508060008190555050505050505050565b6000612a588584848080601f016020809104026020016040519081016040528093929190818152602001838380828437600081840152601f19601f82011690508083019250505050505050615245565b905060008490506000612a6b8383616013565b9050612a768161532d565b508060008190555050505050505050565b6000612ad78584848080601f016020809104026020016040519081016040528093929190818152602001838380828437600081840152601f19601f82011690508083019250505050505050615245565b90506000612b298585858080601f016020809104026020016040519081016040528093929190818152602001838380828437600081840152601f19601f8201169050808301925050505050505061509a565b90506000612b378383616050565b9050612b4281615686565b508060048190555050505050505050565b6000612ba38584848080601f016020809104026020016040519081016040528093929190818152602001838380828437600081840152601f19601f82011690508083019250505050505050615245565b90506000612bf58585858080601f016020809104026020016040519081016040528093929190818152602001838380828437600081840152601f19601f8201169050808301925050505050505061535a565b90506000612c0383836160a2565b9050612c0e81615686565b508060048190555050505050505050565b6000612c6f8584848080601f016020809104026020016040519081016040528093929190818152602001838380828437600081840152601f19601f8201169050808301925050505050505061551f565b90506000612cc18585858080601f016020809104026020016040519081016040528093929190818152602001838380828437600081840152601f19601f82011690508083019250505050505050615245565b90506000612ccf83836160f4565b9050612cda81615607565b508060058190555050505050505050565b6000612d3b8584848080601f016020809104026020016040519081016040528093929190818152602001838380828437600081840152601f19601f8201169050808301925050505050505061551f565b90506000612d8d8585858080601f016020809104026020016040519081016040528093929190818152602001838380828437600081840152601f19601f82011690508083019250505050505050615130565b90506000612d9b8383616146565b9050612da681615607565b508060058190555050505050505050565b60065481565b6000612e0d8584848080601f016020809104026020016040519081016040528093929190818152602001838380828437600081840152601f19601f8201169050808301925050505050505061535a565b90506000612e5f8585858080601f016020809104026020016040519081016040528093929190818152602001838380828437600081840152601f19601f82011690508083019250505050505050615919565b90506000612e6d8383616198565b9050612e7881615a01565b508060068190555050505050505050565b6000612ed98584848080601f016020809104026020016040519081016040528093929190818152602001838380828437600081840152601f19601f82011690508083019250505050505050615130565b90506000612f2b8585858080601f016020809104026020016040519081016040528093929190818152602001838380828437600081840152601f19601f82011690508083019250505050505050615130565b90506000612f3983836161ea565b9050612f44816157a5565b508060018190555050505050505050565b6000612fa58584848080601f016020809104026020016040519081016040528093929190818152602001838380828437600081840152601f19601f82011690508083019250505050505050615130565b90506000612ff78585858080601f016020809104026020016040519081016040528093929190818152602001838380828437600081840152601f19601f8201169050808301925050505050505061551f565b905060006130058383616234565b90506130108161532d565b508060008190555050505050505050565b60006130718584848080601f016020809104026020016040519081016040528093929190818152602001838380828437600081840152601f19601f8201169050808301925050505050505061535a565b905060006130c38585858080601f016020809104026020016040519081016040528093929190818152602001838380828437600081840152601f19601f82011690508083019250505050505050615919565b905060006130d18383616286565b90506130dc81615a01565b508060068190555050505050505050565b600061313d8584848080601f016020809104026020016040519081016040528093929190818152602001838380828437600081840152601f19601f8201169050808301925050505050505061535a565b9050600061318f8585858080601f016020809104026020016040519081016040528093929190818152602001838380828437600081840152601f19601f82011690508083019250505050505050615130565b9050600061319d83836162d8565b90506131a881615742565b508060038190555050505050505050565b60006132098584848080601f016020809104026020016040519081016040528093929190818152602001838380828437600081840152601f19601f8201169050808301925050505050505061551f565b9050600061325b8585858080601f016020809104026020016040519081016040528093929190818152602001838380828437600081840152601f19601f8201169050808301925050505050505061535a565b90506000613269838361632a565b90506132748161532d565b508060008190555050505050505050565b60006132d58584848080601f016020809104026020016040519081016040528093929190818152602001838380828437600081840152601f19601f8201169050808301925050505050505061509a565b905060006133278585858080601f016020809104026020016040519081016040528093929190818152602001838380828437600081840152601f19601f8201169050808301925050505050505061509a565b90506000613335838361637c565b905061334081615218565b508060028190555050505050505050565b60006133a18584848080601f016020809104026020016040519081016040528093929190818152602001838380828437600081840152601f19601f82011690508083019250505050505050615919565b905060006133f38585858080601f016020809104026020016040519081016040528093929190818152602001838380828437600081840152601f19601f8201169050808301925050505050505061551f565b9050600061340183836163c6565b905061340c81615a01565b508060068190555050505050505050565b600061346d8584848080601f016020809104026020016040519081016040528093929190818152602001838380828437600081840152601f19601f82011690508083019250505050505050615130565b905060006134bf8585858080601f016020809104026020016040519081016040528093929190818152602001838380828437600081840152601f19601f8201169050808301925050505050505061509a565b905060006134cd8383616418565b90506134d88161532d565b508060008190555050505050505050565b60006135398584848080601f016020809104026020016040519081016040528093929190818152602001838380828437600081840152601f19601f82011690508083019250505050505050615245565b90506000849050600061354c838361646a565b905061355781615686565b508060048190555050505050505050565b600084905060006135bd8585858080601f016020809104026020016040519081016040528093929190818152602001838380828437600081840152601f19601f8201169050808301925050505050505061509a565b905060006135cb83836164a0565b90506135d68161532d565b508060008190555050505050505050565b60006136378584848080601f016020809104026020016040519081016040528093929190818152602001838380828437600081840152601f19601f82011690508083019250505050505050615245565b905060006136898585858080601f016020809104026020016040519081016040528093929190818152602001838380828437600081840152601f19601f8201169050808301925050505050505061509a565b9050600061369783836164d7565b90506136a28161532d565b508060008190555050505050505050565b60006137038584848080601f016020809104026020016040519081016040528093929190818152602001838380828437600081840152601f19601f8201169050808301925050505050505061535a565b905060006137558585858080601f016020809104026020016040519081016040528093929190818152602001838380828437600081840152601f19601f82011690508083019250505050505050615130565b905060006137638383616529565b905061376e81615742565b508060038190555050505050505050565b60035481565b60006137d58584848080601f016020809104026020016040519081016040528093929190818152602001838380828437600081840152601f19601f8201169050808301925050505050505061535a565b905060006138278585858080601f016020809104026020016040519081016040528093929190818152602001838380828437600081840152601f19601f8201169050808301925050505050505061535a565b90506000613835838361657b565b90506138408161532d565b508060008190555050505050505050565b60006138a18584848080601f016020809104026020016040519081016040528093929190818152602001838380828437600081840152601f19601f82011690508083019250505050505050615130565b905060006138f38585858080601f016020809104026020016040519081016040528093929190818152602001838380828437600081840152601f19601f8201169050808301925050505050505061551f565b9050600061390183836165c5565b905061390c81615607565b508060058190555050505050505050565b600061396d8584848080601f016020809104026020016040519081016040528093929190818152602001838380828437600081840152601f19601f8201169050808301925050505050505061509a565b905060006139bf8585858080601f016020809104026020016040519081016040528093929190818152602001838380828437600081840152601f19601f8201169050808301925050505050505061551f565b905060006139cd8383616617565b90506139d88161532d565b508060008190555050505050505050565b6000613a398584848080601f016020809104026020016040519081016040528093929190818152602001838380828437600081840152601f19601f82011690508083019250505050505050615245565b90506000613a8b8585858080601f016020809104026020016040519081016040528093929190818152602001838380828437600081840152601f19601f82011690508083019250505050505050615919565b90506000613a998383616669565b9050613aa48161532d565b508060008190555050505050505050565b6000613b058584848080601f016020809104026020016040519081016040528093929190818152602001838380828437600081840152601f19601f82011690508083019250505050505050615245565b90506000613b578585858080601f016020809104026020016040519081016040528093929190818152602001838380828437600081840152601f19601f82011690508083019250505050505050615245565b90506000613b6583836166bb565b9050613b708161532d565b508060008190555050505050505050565b6000613bd18584848080601f016020809104026020016040519081016040528093929190818152602001838380828437600081840152601f19601f82011690508083019250505050505050615130565b90506000613c238585858080601f016020809104026020016040519081016040528093929190818152602001838380828437600081840152601f19601f8201169050808301925050505050505061509a565b90506000613c318383616705565b9050613c3c8161532d565b508060008190555050505050505050565b6000613c9d8584848080601f016020809104026020016040519081016040528093929190818152602001838380828437600081840152601f19601f8201169050808301925050505050505061551f565b90506000613cef8585858080601f016020809104026020016040519081016040528093929190818152602001838380828437600081840152601f19601f82011690508083019250505050505050615245565b90506000613cfd8383616757565b9050613d0881615607565b508060058190555050505050505050565b60015481565b60025481565b6000613d758584848080601f016020809104026020016040519081016040528093929190818152602001838380828437600081840152601f19601f8201169050808301925050505050505061509a565b905060008490506000613d8883836167a9565b9050613d938161532d565b508060008190555050505050505050565b6000613df48584848080601f016020809104026020016040519081016040528093929190818152602001838380828437600081840152601f19601f82011690508083019250505050505050615130565b90506000613e468585858080601f016020809104026020016040519081016040528093929190818152602001838380828437600081840152601f19601f82011690508083019250505050505050615919565b90506000613e5483836167e0565b9050613e5f8161532d565b508060008190555050505050505050565b6000613ec08584848080601f016020809104026020016040519081016040528093929190818152602001838380828437600081840152601f19601f8201169050808301925050505050505061509a565b90506000613f128585858080601f016020809104026020016040519081016040528093929190818152602001838380828437600081840152601f19601f8201169050808301925050505050505061509a565b90506000613f208383616832565b9050613f2b8161532d565b508060008190555050505050505050565b60055481565b60008490506000613f978585858080601f016020809104026020016040519081016040528093929190818152602001838380828437600081840152601f19601f82011690508083019250505050505050615245565b90506000613fa5838361687c565b9050613fb081615686565b508060048190555050505050505050565b60006140118584848080601f016020809104026020016040519081016040528093929190818152602001838380828437600081840152601f19601f8201169050808301925050505050505061509a565b905060006140638585858080601f016020809104026020016040519081016040528093929190818152602001838380828437600081840152601f19601f82011690508083019250505050505050615245565b9050600061407183836168b9565b905061407c81615686565b508060048190555050505050505050565b60006140dd8584848080601f016020809104026020016040519081016040528093929190818152602001838380828437600081840152601f19601f82011690508083019250505050505050615130565b9050600084905060006140f0838361690b565b90506140fb816157a5565b508060018190555050505050505050565b600084905060006141618585858080601f016020809104026020016040519081016040528093929190818152602001838380828437600081840152601f19601f8201169050808301925050505050505061551f565b9050600061416f8383616941565b905061417a8161532d565b508060008190555050505050505050565b60006141db8584848080601f016020809104026020016040519081016040528093929190818152602001838380828437600081840152601f19601f8201169050808301925050505050505061535a565b9050600061422d8585858080601f016020809104026020016040519081016040528093929190818152602001838380828437600081840152601f19601f82011690508083019250505050505050615245565b9050600061423b8383616986565b90506142468161532d565b508060008190555050505050505050565b60006142a78584848080601f016020809104026020016040519081016040528093929190818152602001838380828437600081840152601f19601f82011690508083019250505050505050615130565b905060006142f98585858080601f016020809104026020016040519081016040528093929190818152602001838380828437600081840152601f19601f82011690508083019250505050505050615245565b9050600061430783836169d8565b905061431281615686565b508060048190555050505050505050565b60006143738584848080601f016020809104026020016040519081016040528093929190818152602001838380828437600081840152601f19601f82011690508083019250505050505050615245565b905060006143c58585858080601f016020809104026020016040519081016040528093929190818152602001838380828437600081840152601f19601f8201169050808301925050505050505061551f565b905060006143d38383616a2a565b90506143de8161532d565b508060008190555050505050505050565b600084905060006144448585858080601f016020809104026020016040519081016040528093929190818152602001838380828437600081840152601f19601f8201169050808301925050505050505061535a565b905060006144528383616a7c565b905061445d81615742565b508060038190555050505050505050565b60006144be8584848080601f016020809104026020016040519081016040528093929190818152602001838380828437600081840152601f19601f82011690508083019250505050505050615245565b905060006145108585858080601f016020809104026020016040519081016040528093929190818152602001838380828437600081840152601f19601f8201169050808301925050505050505061551f565b9050600061451e8383616ab5565b905061452981615607565b508060058190555050505050505050565b600061458a8584848080601f016020809104026020016040519081016040528093929190818152602001838380828437600081840152601f19601f8201169050808301925050505050505061535a565b90506000849050600061459d8383616b07565b90506145a881615742565b508060038190555050505050505050565b60006146098584848080601f016020809104026020016040519081016040528093929190818152602001838380828437600081840152601f19601f8201169050808301925050505050505061535a565b9050600061465b8585858080601f016020809104026020016040519081016040528093929190818152602001838380828437600081840152601f19601f82011690508083019250505050505050615130565b905060006146698383616b40565b905061467481615742565b508060038190555050505050505050565b60006146d58584848080601f016020809104026020016040519081016040528093929190818152602001838380828437600081840152601f19601f8201169050808301925050505050505061551f565b905060006147278585858080601f016020809104026020016040519081016040528093929190818152602001838380828437600081840152601f19601f8201169050808301925050505050505061509a565b905060006147358383616b92565b905061474081615607565b508060058190555050505050505050565b60006147a18584848080601f016020809104026020016040519081016040528093929190818152602001838380828437600081840152601f19601f8201169050808301925050505050505061535a565b905060006147f38585858080601f016020809104026020016040519081016040528093929190818152602001838380828437600081840152601f19601f82011690508083019250505050505050615130565b905060006148018383616be4565b905061480c8161532d565b508060008190555050505050505050565b60045481565b60006148738584848080601f016020809104026020016040519081016040528093929190818152602001838380828437600081840152601f19601f8201169050808301925050505050505061551f565b905060006148c58585858080601f016020809104026020016040519081016040528093929190818152602001838380828437600081840152601f19601f8201169050808301925050505050505061535a565b905060006148d38383616c36565b90506148de81615607565b508060058190555050505050505050565b600061493f8584848080601f016020809104026020016040519081016040528093929190818152602001838380828437600081840152601f19601f8201169050808301925050505050505061551f565b9050600084905060006149528383616c88565b905061495d81615607565b508060058190555050505050505050565b60006149be8584848080601f016020809104026020016040519081016040528093929190818152602001838380828437600081840152601f19601f82011690508083019250505050505050615919565b90506000614a108585858080601f016020809104026020016040519081016040528093929190818152602001838380828437600081840152601f19601f8201169050808301925050505050505061535a565b90506000614a1e8383616cbe565b9050614a2981615a01565b508060068190555050505050505050565b6000614a8a8584848080601f016020809104026020016040519081016040528093929190818152602001838380828437600081840152601f19601f8201169050808301925050505050505061535a565b90506000614adc8585858080601f016020809104026020016040519081016040528093929190818152602001838380828437600081840152601f19601f8201169050808301925050505050505061535a565b90506000614aea8383616d10565b9050614af581615742565b508060038190555050505050505050565b6000614b568584848080601f016020809104026020016040519081016040528093929190818152602001838380828437600081840152601f19601f82011690508083019250505050505050615245565b90506000614ba88585858080601f016020809104026020016040519081016040528093929190818152602001838380828437600081840152601f19601f8201169050808301925050505050505061551f565b90506000614bb68383616d5a565b9050614bc18161532d565b508060008190555050505050505050565b6000614c228584848080601f016020809104026020016040519081016040528093929190818152602001838380828437600081840152601f19601f8201169050808301925050505050505061509a565b90506000614c748585858080601f016020809104026020016040519081016040528093929190818152602001838380828437600081840152601f19601f82011690508083019250505050505050615919565b90506000614c828383616dac565b9050614c8d81615a01565b508060068190555050505050505050565b6000614cee8584848080601f016020809104026020016040519081016040528093929190818152602001838380828437600081840152601f19601f8201169050808301925050505050505061535a565b90506000614d408585858080601f016020809104026020016040519081016040528093929190818152602001838380828437600081840152601f19601f8201169050808301925050505050505061551f565b90506000614d4e8383616dfe565b9050614d598161532d565b508060008190555050505050505050565b6000614dba8584848080601f016020809104026020016040519081016040528093929190818152602001838380828437600081840152601f19601f8201169050808301925050505050505061551f565b90506000614e0c8585858080601f016020809104026020016040519081016040528093929190818152602001838380828437600081840152601f19601f82011690508083019250505050505050615245565b90506000614e1a8383616e50565b9050614e2581615607565b508060058190555050505050505050565b6000614e868584848080601f016020809104026020016040519081016040528093929190818152602001838380828437600081840152601f19601f8201169050808301925050505050505061535a565b90506000614ed88585858080601f016020809104026020016040519081016040528093929190818152602001838380828437600081840152601f19601f82011690508083019250505050505050615130565b90506000614ee68383616ea2565b9050614ef181615742565b508060038190555050505050505050565b6000614f528584848080601f016020809104026020016040519081016040528093929190818152602001838380828437600081840152601f19601f8201169050808301925050505050505061551f565b90506000614fa48585858080601f016020809104026020016040519081016040528093929190818152602001838380828437600081840152601f19601f8201169050808301925050505050505061509a565b90506000614fb28383616ef4565b9050614fbd8161532d565b508060008190555050505050505050565b600061501e8584848080601f016020809104026020016040519081016040528093929190818152602001838380828437600081840152601f19601f82011690508083019250505050505050615245565b905060006150708585858080601f016020809104026020016040519081016040528093929190818152602001838380828437600081840152601f19601f8201169050808301925050505050505061535a565b9050600061507e8383616f46565b90506150898161532d565b508060008190555050505050505050565b6000808251146150b7576150b083836003616f98565b905061512a565b60008390506000801b81036150d8576150d060006170e6565b91505061512a565b6150e281336170fe565b6151255780336040517f0276b5d900000000000000000000000000000000000000000000000000000000815260040161511c92919061a228565b60405180910390fd5b809150505b92915050565b60008082511461514d5761514683836002616f98565b90506151c0565b60008390506000801b810361516e5761516660006171b4565b9150506151c0565b61517881336170fe565b6151bb5780336040517f0276b5d90000000000000000000000000000000000000000000000000000000081526004016151b292919061a228565b60405180910390fd5b809150505b92915050565b60006151d1836171cb565b6151e2576151df60006170e6565b92505b6151eb826171db565b6151fc576151f960006171b4565b91505b61521083615209846171eb565b6000617219565b905092915050565b6000615223826171cb565b6152345761523160006170e6565b91505b61523d826172f1565b819050919050565b6000808251146152625761525b83836005616f98565b90506152d5565b60008390506000801b81036152835761527b6000617400565b9150506152d5565b61528d81336170fe565b6152d05780336040517f0276b5d90000000000000000000000000000000000000000000000000000000081526004016152c792919061a228565b60405180910390fd5b809150505b92915050565b60006152e68361741e565b6152f7576152f46000617400565b92505b615300826171db565b6153115761530e60006171b4565b91505b6153258361531e8461742e565b600061745c565b905092915050565b600061533882617534565b615349576153466000617544565b91505b615352826172f1565b819050919050565b6000808251146153775761537083836004616f98565b90506153ea565b60008390506000801b8103615398576153906000617569565b9150506153ea565b6153a281336170fe565b6153e55780336040517f0276b5d90000000000000000000000000000000000000000000000000000000081526004016153dc92919061a228565b60405180910390fd5b809150505b92915050565b60006153fb83617583565b61540c576154096000617569565b92505b615415826171cb565b6154265761542360006170e6565b91505b61543a8361543384617593565b60006175c1565b905092915050565b600061544d83617583565b61545e5761545b6000617569565b92505b615467826171db565b6154785761547560006171b4565b91505b61548c8361548584617699565b60006176c7565b905092915050565b600061549f836171cb565b6154b0576154ad60006170e6565b92505b6154b9826171db565b6154ca576154c760006171b4565b91505b6154de836154d7846171eb565b600061779f565b905092915050565b60006154f182617583565b615502576154ff6000617569565b91505b615517828463ffffffff1660001b600161745c565b905092915050565b60008082511461553c5761553583836006616f98565b90506155af565b60008390506000801b810361555d576155556000617877565b9150506155af565b61556781336170fe565b6155aa5780336040517f0276b5d90000000000000000000000000000000000000000000000000000000081526004016155a192919061a228565b60405180910390fd5b809150505b92915050565b60006155c08361789d565b6155d1576155ce6000617877565b92505b6155da826171cb565b6155eb576155e860006170e6565b91505b6155ff836155f8846178ad565b60006178db565b905092915050565b60006156128261789d565b615623576156206000617877565b91505b61562c826172f1565b819050919050565b600061563f8361741e565b6156505761564d6000617400565b92505b615659826171cb565b61566a5761566760006170e6565b91505b61567e83615677846179b3565b60006179e1565b905092915050565b60006156918261741e565b6156a25761569f6000617400565b91505b6156ab826172f1565b819050919050565b6000806156bf846170e6565b90506156ca836171cb565b6156db576156d860006170e6565b92505b6156e781846000617ab9565b91505092915050565b60006156fb83617583565b61570c576157096000617569565b92505b615715826171cb565b6157265761572360006170e6565b91505b61573a8361573384617593565b60006179e1565b905092915050565b600061574d82617583565b61575e5761575b6000617569565b91505b615767826172f1565b819050919050565b600061577a826171db565b61578b5761578860006171b4565b91505b61579d828460ff1660001b6001617b91565b905092915050565b60006157b0826171db565b6157c1576157be60006171b4565b91505b6157ca826172f1565b819050919050565b60006157dd83617583565b6157ee576157eb6000617569565b92505b6157f78261789d565b615808576158056000617877565b91505b61581c61581484617c69565b836000617c97565b905092915050565b600061582f8361741e565b6158405761583d6000617400565b92505b61584982617583565b61585a576158576000617569565b91505b61586e8361586784617d6f565b6000617b91565b905092915050565b6000615881826171db565b6158925761588f60006171b4565b91505b6158a4828460ff1660001b6001617d9d565b905092915050565b60006158b7836171db565b6158c8576158c560006171b4565b92505b6158da838360ff1660001b6001617e75565b905092915050565b60006158ed826171cb565b6158fe576158fb60006170e6565b91505b615911828461ffff1660001b60016178db565b905092915050565b6000808251146159365761592f83836008616f98565b90506159a9565b60008390506000801b81036159575761594f6000617f4d565b9150506159a9565b61596181336170fe565b6159a45780336040517f0276b5d900000000000000000000000000000000000000000000000000000000815260040161599b92919061a228565b60405180910390fd5b809150505b92915050565b60006159ba83617f61565b6159cb576159c86000617f4d565b92505b6159d4826171db565b6159e5576159e260006171b4565b91505b6159f9836159f284617f71565b6000617b91565b905092915050565b6000615a0c82617f61565b615a1d57615a1a6000617f4d565b91505b615a26826172f1565b819050919050565b6000615a3983617f61565b615a4a57615a476000617f4d565b92505b615a53826171db565b615a6457615a6160006171b4565b91505b615a7883615a7184617f71565b6000617d9d565b905092915050565b6000615a8b8361741e565b615a9c57615a996000617400565b92505b615aa582617583565b615ab657615ab36000617569565b91505b615aca83615ac384617d6f565b6000617f9f565b905092915050565b6000615add8361741e565b615aee57615aeb6000617400565b92505b615af78261789d565b615b0857615b056000617877565b91505b615b1c615b1484618077565b836000617b91565b905092915050565b6000615b2f836171db565b615b4057615b3d60006171b4565b92505b615b4982617583565b615b5a57615b576000617569565b91505b615b6e615b6684617699565b8360006176c7565b905092915050565b6000615b818361741e565b615b9257615b8f6000617400565b92505b615b9b826171cb565b615bac57615ba960006170e6565b91505b615bc083615bb9846179b3565b6000617ab9565b905092915050565b6000615bd3836171db565b615be457615be160006171b4565b92505b615bed826171cb565b615bfe57615bfb60006170e6565b91505b615c12615c0a846171eb565b836000617f9f565b905092915050565b6000615c258361789d565b615c3657615c336000617877565b92505b615c3f826171cb565b615c5057615c4d60006170e6565b91505b615c6483615c5d846178ad565b6000617b91565b905092915050565b6000615c77836171cb565b615c8857615c8560006170e6565b92505b615c9a838360ff1660001b6001617219565b905092915050565b6000615cad836171db565b615cbe57615cbb60006171b4565b92505b615cc782617583565b615cd857615cd56000617569565b91505b615cec615ce484617699565b8360006175c1565b905092915050565b6000615cff83617f61565b615d1057615d0d6000617f4d565b92505b615d22838360ff1660001b600161779f565b905092915050565b6000615d35836171db565b615d4657615d4360006171b4565b92505b615d4f826171db565b615d6057615d5d60006171b4565b91505b615d6c838360006176c7565b905092915050565b600080615d80846171b4565b9050615d8b836171db565b615d9c57615d9960006171b4565b92505b615da881846000617ab9565b91505092915050565b6000615dbc8361789d565b615dcd57615dca6000617877565b92505b615dec83836fffffffffffffffffffffffffffffffff1660001b6180a5565b905092915050565b6000615dff8261789d565b615e1057615e0d6000617877565b91505b615e1982618169565b9050919050565b6000615e2b836171db565b615e3c57615e3960006171b4565b92505b615e45826171db565b615e5657615e5360006171b4565b91505b615e6283836000617219565b905092915050565b6000615e7583617583565b615e8657615e836000617569565b92505b615e99838363ffffffff1660001b61821e565b905092915050565b6000615eac836171cb565b615ebd57615eba60006170e6565b92505b615ec6826171db565b615ed757615ed460006171b4565b91505b615eeb83615ee4846171eb565b6000617e75565b905092915050565b6000615efe8361741e565b615f0f57615f0c6000617400565b92505b615f18826171cb565b615f2957615f2660006170e6565b91505b615f3d83615f36846179b3565b6000617b91565b905092915050565b6000615f50826171cb565b615f6157615f5e60006170e6565b91505b615f74828461ffff1660001b60016176c7565b905092915050565b6000615f8783617583565b615f9857615f956000617569565b92505b615fa18261741e565b615fb257615faf6000617400565b91505b615fc6615fbe84617d6f565b8360006176c7565b905092915050565b6000615fd98361789d565b615fea57615fe76000617877565b92505b61600b83836fffffffffffffffffffffffffffffffff1660001b60016182e2565b905092915050565b600061601e8361741e565b61602f5761602c6000617400565b92505b616048838367ffffffffffffffff1660001b60016183ba565b905092915050565b600061605b8361741e565b61606c576160696000617400565b92505b616075826171cb565b6160865761608360006170e6565b91505b61609a83616093846179b3565b60006178db565b905092915050565b60006160ad8361741e565b6160be576160bb6000617400565b92505b6160c782617583565b6160d8576160d56000617569565b91505b6160ec836160e584617d6f565b6000617e75565b905092915050565b60006160ff8361789d565b6161105761610d6000617877565b92505b6161198261741e565b61612a576161276000617400565b91505b61613e8361613784618077565b6000617d9d565b905092915050565b60006161518361789d565b6161625761615f6000617877565b92505b61616b826171db565b61617c5761617960006171b4565b91505b6161908361618984618492565b60006179e1565b905092915050565b60006161a383617583565b6161b4576161b16000617569565b92505b6161bd82617f61565b6161ce576161cb6000617f4d565b91505b6161e26161da846184c0565b8360006179e1565b905092915050565b60006161f5836171db565b6162065761620360006171b4565b92505b61620f826171db565b6162205761621d60006171b4565b91505b61622c83836000617d9d565b905092915050565b600061623f836171db565b6162505761624d60006171b4565b92505b6162598261789d565b61626a576162676000617877565b91505b61627e61627684618492565b8360006182e2565b905092915050565b600061629183617583565b6162a25761629f6000617569565b92505b6162ab82617f61565b6162bc576162b96000617f4d565b91505b6162d06162c8846184c0565b836000617b91565b905092915050565b60006162e383617583565b6162f4576162f16000617569565b92505b6162fd826171db565b61630e5761630b60006171b4565b91505b6163228361631b84617699565b6000617e75565b905092915050565b60006163358361789d565b616346576163436000617877565b92505b61634f82617583565b6163605761635d6000617569565b91505b6163748361636d84617c69565b60006184ee565b905092915050565b6000616387836171cb565b6163985761639560006170e6565b92505b6163a1826171cb565b6163b2576163af60006170e6565b91505b6163be83836000617e75565b905092915050565b60006163d183617f61565b6163e2576163df6000617f4d565b92505b6163eb8261789d565b6163fc576163f96000617877565b91505b61641083616409846185c6565b6000617b91565b905092915050565b6000616423836171db565b6164345761643160006171b4565b92505b61643d826171cb565b61644e5761644b60006170e6565b91505b61646261645a846171eb565b8360006175c1565b905092915050565b60006164758361741e565b616486576164836000617400565b92505b616498838360ff1660001b6001617219565b905092915050565b60006164ab826171cb565b6164bc576164b960006170e6565b91505b6164cf828461ffff1660001b60016182e2565b905092915050565b60006164e28361741e565b6164f3576164f06000617400565b92505b6164fc826171cb565b61650d5761650a60006170e6565b91505b6165218361651a846179b3565b60006175c1565b905092915050565b600061653483617583565b616545576165426000617569565b92505b61654e826171db565b61655f5761655c60006171b4565b91505b6165738361656c84617699565b60006185f4565b905092915050565b600061658683617583565b616597576165946000617569565b92505b6165a082617583565b6165b1576165ae6000617569565b91505b6165bd8383600061745c565b905092915050565b60006165d0836171db565b6165e1576165de60006171b4565b92505b6165ea8261789d565b6165fb576165f86000617877565b91505b61660f61660784618492565b8360006178db565b905092915050565b6000616622836171cb565b6166335761663060006170e6565b92505b61663c8261789d565b61664d5761664a6000617877565b91505b616661616659846178ad565b8360006176c7565b905092915050565b60006166748361741e565b616685576166826000617400565b92505b61668e82617f61565b61669f5761669c6000617f4d565b91505b6166b36166ab846186cc565b83600061745c565b905092915050565b60006166c68361741e565b6166d7576166d46000617400565b92505b6166e08261741e565b6166f1576166ee6000617400565b91505b6166fd838360006175c1565b905092915050565b6000616710836171db565b6167215761671e60006171b4565b92505b61672a826171cb565b61673b5761673860006170e6565b91505b61674f616747846171eb565b8360006176c7565b905092915050565b60006167628361789d565b616773576167706000617877565b92505b61677c8261741e565b61678d5761678a6000617400565b91505b6167a18361679a84618077565b6000617e75565b905092915050565b60006167b4836171cb565b6167c5576167c260006170e6565b92505b6167d8838361ffff1660001b60016183ba565b905092915050565b60006167eb836171db565b6167fc576167f960006171b4565b92505b61680582617f61565b616816576168136000617f4d565b91505b61682a61682284617f71565b83600061745c565b905092915050565b600061683d836171cb565b61684e5761684b60006170e6565b92505b616857826171cb565b6168685761686560006170e6565b91505b6168748383600061745c565b905092915050565b60006168878261741e565b616898576168956000617400565b91505b6168b1828467ffffffffffffffff1660001b60016178db565b905092915050565b60006168c4836171cb565b6168d5576168d260006170e6565b92505b6168de8261741e565b6168ef576168ec6000617400565b91505b6169036168fb846179b3565b836000617ab9565b905092915050565b6000616916836171db565b6169275761692460006171b4565b92505b616939838360ff1660001b6001617d9d565b905092915050565b600061694c8261789d565b61695d5761695a6000617877565b91505b61697e82846fffffffffffffffffffffffffffffffff1660001b60016182e2565b905092915050565b600061699183617583565b6169a25761699f6000617569565b92505b6169ab8261741e565b6169bc576169b96000617400565b91505b6169d06169c884617d6f565b8360006182e2565b905092915050565b60006169e3836171db565b6169f4576169f160006171b4565b92505b6169fd8261741e565b616a0e57616a0b6000617400565b91505b616a22616a1a8461742e565b836000617d9d565b905092915050565b6000616a358361741e565b616a4657616a436000617400565b92505b616a4f8261789d565b616a6057616a5d6000617877565b91505b616a74616a6c84618077565b83600061745c565b905092915050565b6000616a8782617583565b616a9857616a956000617569565b91505b616aad828463ffffffff1660001b6001617e75565b905092915050565b6000616ac08361741e565b616ad157616ace6000617400565b92505b616ada8261789d565b616aeb57616ae86000617877565b91505b616aff616af784618077565b836000617e75565b905092915050565b6000616b1283617583565b616b2357616b206000617569565b92505b616b38838363ffffffff1660001b6001617e75565b905092915050565b6000616b4b83617583565b616b5c57616b596000617569565b92505b616b65826171db565b616b7657616b7360006171b4565b91505b616b8a83616b8384617699565b6000617b91565b905092915050565b6000616b9d8361789d565b616bae57616bab6000617877565b92505b616bb7826171cb565b616bc857616bc560006170e6565b91505b616bdc83616bd5846178ad565b60006179e1565b905092915050565b6000616bef83617583565b616c0057616bfd6000617569565b92505b616c09826171db565b616c1a57616c1760006171b4565b91505b616c2e83616c2784617699565b60006183ba565b905092915050565b6000616c418361789d565b616c5257616c4f6000617877565b92505b616c5b82617583565b616c6c57616c696000617569565b91505b616c8083616c7984617c69565b6000617c97565b905092915050565b6000616c938361789d565b616ca457616ca16000617877565b92505b616cb6838360ff1660001b60016186fa565b905092915050565b6000616cc983617f61565b616cda57616cd76000617f4d565b92505b616ce382617583565b616cf457616cf16000617569565b91505b616d0883616d01846184c0565b6000617b91565b905092915050565b6000616d1b83617583565b616d2c57616d296000617569565b92505b616d3582617583565b616d4657616d436000617569565b91505b616d5283836000617b91565b905092915050565b6000616d658361741e565b616d7657616d736000617400565b92505b616d7f8261789d565b616d9057616d8d6000617877565b91505b616da4616d9c84618077565b8360006182e2565b905092915050565b6000616db7836171cb565b616dc857616dc560006170e6565b92505b616dd182617f61565b616de257616ddf6000617f4d565b91505b616df6616dee846187d2565b8360006179e1565b905092915050565b6000616e0983617583565b616e1a57616e176000617569565b92505b616e238261789d565b616e3457616e316000617877565b91505b616e48616e4084617c69565b8360006176c7565b905092915050565b6000616e5b8361789d565b616e6c57616e696000617877565b92505b616e758261741e565b616e8657616e836000617400565b91505b616e9a83616e9384618077565b6000617ab9565b905092915050565b6000616ead83617583565b616ebe57616ebb6000617569565b92505b616ec7826171db565b616ed857616ed560006171b4565b91505b616eec83616ee584617699565b60006179e1565b905092915050565b6000616eff8361789d565b616f1057616f0d6000617877565b92505b616f19826171cb565b616f2a57616f2760006170e6565b91505b616f3e83616f37846178ad565b60006183ba565b905092915050565b6000616f518361741e565b616f6257616f5f6000617400565b92505b616f6b82617583565b616f7c57616f796000617569565b91505b616f9083616f8984617d6f565b60006176c7565b905092915050565b600080616fa3618800565b90508060010160009054906101000a900473ffffffffffffffffffffffffffffffffffffffff1673ffffffffffffffffffffffffffffffffffffffff166308bf832a863387876040518563ffffffff1660e01b8152600401617008949392919061a358565b6020604051808303816000875af1158015617027573d6000803e3d6000fd5b505050506040513d601f19601f8201168201806040525081019061704b919061a3d0565b91508060000160009054906101000a900473ffffffffffffffffffffffffffffffffffffffff1673ffffffffffffffffffffffffffffffffffffffff16633e395cec83336040518363ffffffff1660e01b81526004016170ac92919061a228565b600060405180830381600087803b1580156170c657600080fd5b505af11580156170da573d6000803e3d6000fd5b50505050509392505050565b60006170f78261ffff166003618828565b9050919050565b600080617109618800565b90508060000160009054906101000a900473ffffffffffffffffffffffffffffffffffffffff1673ffffffffffffffffffffffffffffffffffffffff166382027b6d85856040518363ffffffff1660e01b815260040161716a92919061a228565b602060405180830381865afa158015617187573d6000803e3d6000fd5b505050506040513d601f19601f820116820180604052508101906171ab919061a435565b91505092915050565b60006171c48260ff166002618828565b9050919050565b60008060001b8214159050919050565b60008060001b8214159050919050565b60006171f6826171db565b6172075761720460006171b4565b91505b6172128260036188e0565b9050919050565b600080821561722e57600160f81b9050617236565b600060f81b90505b6000617240618800565b90508060010160009054906101000a900473ffffffffffffffffffffffffffffffffffffffff1673ffffffffffffffffffffffffffffffffffffffff166391f98ffe8787856040518463ffffffff1660e01b81526004016172a39392919061a49d565b6020604051808303816000875af11580156172c2573d6000803e3d6000fd5b505050506040513d601f19601f820116820180604052508101906172e6919061a3d0565b925050509392505050565b60006172fb618800565b90506000600167ffffffffffffffff81111561731a5761731961a4d4565b5b6040519080825280602002602001820160405280156173485781602001602082028036833780820191505090505b50905082816000815181106173605761735f61a503565b5b6020026020010181815250508160000160009054906101000a900473ffffffffffffffffffffffffffffffffffffffff1673ffffffffffffffffffffffffffffffffffffffff1663fadd2246826040518263ffffffff1660e01b81526004016173c9919061a5f0565b600060405180830381600087803b1580156173e357600080fd5b505af11580156173f7573d6000803e3d6000fd5b50505050505050565b60006174178267ffffffffffffffff166005618828565b9050919050565b60008060001b8214159050919050565b6000617439826171db565b61744a5761744760006171b4565b91505b6174558260056188e0565b9050919050565b600080821561747157600160f81b9050617479565b600060f81b90505b6000617483618800565b90508060010160009054906101000a900473ffffffffffffffffffffffffffffffffffffffff1673ffffffffffffffffffffffffffffffffffffffff1663f77f3f1d8787856040518463ffffffff1660e01b81526004016174e69392919061a49d565b6020604051808303816000875af1158015617505573d6000803e3d6000fd5b505050506040513d601f19601f82011682018060405250810190617529919061a3d0565b925050509392505050565b60008060001b8214159050919050565b600061756282617555576000617558565b60015b60ff166000618828565b9050919050565b600061757c8263ffffffff166004618828565b9050919050565b60008060001b8214159050919050565b600061759e826171cb565b6175af576175ac60006170e6565b91505b6175ba8260046188e0565b9050919050565b60008082156175d657600160f81b90506175de565b600060f81b90505b60006175e8618800565b90508060010160009054906101000a900473ffffffffffffffffffffffffffffffffffffffff1673ffffffffffffffffffffffffffffffffffffffff1663721076818787856040518463ffffffff1660e01b815260040161764b9392919061a49d565b6020604051808303816000875af115801561766a573d6000803e3d6000fd5b505050506040513d601f19601f8201168201806040525081019061768e919061a3d0565b925050509392505050565b60006176a4826171db565b6176b5576176b260006171b4565b91505b6176c08260046188e0565b9050919050565b60008082156176dc57600160f81b90506176e4565b600060f81b90505b60006176ee618800565b90508060010160009054906101000a900473ffffffffffffffffffffffffffffffffffffffff1673ffffffffffffffffffffffffffffffffffffffff166385362ee78787856040518463ffffffff1660e01b81526004016177519392919061a49d565b6020604051808303816000875af1158015617770573d6000803e3d6000fd5b505050506040513d601f19601f82011682018060405250810190617794919061a3d0565b925050509392505050565b60008082156177b457600160f81b90506177bc565b600060f81b90505b60006177c6618800565b90508060010160009054906101000a900473ffffffffffffffffffffffffffffffffffffffff1673ffffffffffffffffffffffffffffffffffffffff1663c021329e8787856040518463ffffffff1660e01b81526004016178299392919061a49d565b6020604051808303816000875af1158015617848573d6000803e3d6000fd5b505050506040513d601f19601f8201168201806040525081019061786c919061a3d0565b925050509392505050565b6000617896826fffffffffffffffffffffffffffffffff166006618828565b9050919050565b60008060001b8214159050919050565b60006178b8826171cb565b6178c9576178c660006170e6565b91505b6178d48260066188e0565b9050919050565b60008082156178f057600160f81b90506178f8565b600060f81b90505b6000617902618800565b90508060010160009054906101000a900473ffffffffffffffffffffffffffffffffffffffff1673ffffffffffffffffffffffffffffffffffffffff166336318d648787856040518463ffffffff1660e01b81526004016179659392919061a49d565b6020604051808303816000875af1158015617984573d6000803e3d6000fd5b505050506040513d601f19601f820116820180604052508101906179a8919061a3d0565b925050509392505050565b60006179be826171cb565b6179cf576179cc60006170e6565b91505b6179da8260056188e0565b9050919050565b60008082156179f657600160f81b90506179fe565b600060f81b90505b6000617a08618800565b90508060010160009054906101000a900473ffffffffffffffffffffffffffffffffffffffff1673ffffffffffffffffffffffffffffffffffffffff16638b49ceb48787856040518463ffffffff1660e01b8152600401617a6b9392919061a49d565b6020604051808303816000875af1158015617a8a573d6000803e3d6000fd5b505050506040513d601f19601f82011682018060405250810190617aae919061a3d0565b925050509392505050565b6000808215617ace57600160f81b9050617ad6565b600060f81b90505b6000617ae0618800565b90508060010160009054906101000a900473ffffffffffffffffffffffffffffffffffffffff1673ffffffffffffffffffffffffffffffffffffffff1663182b6d988787856040518463ffffffff1660e01b8152600401617b439392919061a49d565b6020604051808303816000875af1158015617b62573d6000803e3d6000fd5b505050506040513d601f19601f82011682018060405250810190617b86919061a3d0565b925050509392505050565b6000808215617ba657600160f81b9050617bae565b600060f81b90505b6000617bb8618800565b90508060010160009054906101000a900473ffffffffffffffffffffffffffffffffffffffff1673ffffffffffffffffffffffffffffffffffffffff1663d99882d58787856040518463ffffffff1660e01b8152600401617c1b9392919061a49d565b6020604051808303816000875af1158015617c3a573d6000803e3d6000fd5b505050506040513d601f19601f82011682018060405250810190617c5e919061a3d0565b925050509392505050565b6000617c7482617583565b617c8557617c826000617569565b91505b617c908260066188e0565b9050919050565b6000808215617cac57600160f81b9050617cb4565b600060f81b90505b6000617cbe618800565b90508060010160009054906101000a900473ffffffffffffffffffffffffffffffffffffffff1673ffffffffffffffffffffffffffffffffffffffff166304559f718787856040518463ffffffff1660e01b8152600401617d219392919061a49d565b6020604051808303816000875af1158015617d40573d6000803e3d6000fd5b505050506040513d601f19601f82011682018060405250810190617d64919061a3d0565b925050509392505050565b6000617d7a82617583565b617d8b57617d886000617569565b91505b617d968260056188e0565b9050919050565b6000808215617db257600160f81b9050617dba565b600060f81b90505b6000617dc4618800565b90508060010160009054906101000a900473ffffffffffffffffffffffffffffffffffffffff1673ffffffffffffffffffffffffffffffffffffffff166363a2db298787856040518463ffffffff1660e01b8152600401617e279392919061a49d565b6020604051808303816000875af1158015617e46573d6000803e3d6000fd5b505050506040513d601f19601f82011682018060405250810190617e6a919061a3d0565b925050509392505050565b6000808215617e8a57600160f81b9050617e92565b600060f81b90505b6000617e9c618800565b90508060010160009054906101000a900473ffffffffffffffffffffffffffffffffffffffff1673ffffffffffffffffffffffffffffffffffffffff166357f0a5688787856040518463ffffffff1660e01b8152600401617eff9392919061a49d565b6020604051808303816000875af1158015617f1e573d6000803e3d6000fd5b505050506040513d601f19601f82011682018060405250810190617f42919061a3d0565b925050509392505050565b6000617f5a826008618828565b9050919050565b60008060001b8214159050919050565b6000617f7c826171db565b617f8d57617f8a60006171b4565b91505b617f988260086188e0565b9050919050565b6000808215617fb457600160f81b9050617fbc565b600060f81b90505b6000617fc6618800565b90508060010160009054906101000a900473ffffffffffffffffffffffffffffffffffffffff1673ffffffffffffffffffffffffffffffffffffffff1663117b2f388787856040518463ffffffff1660e01b81526004016180299392919061a49d565b6020604051808303816000875af1158015618048573d6000803e3d6000fd5b505050506040513d601f19601f8201168201806040525081019061806c919061a3d0565b925050509392505050565b60006180828261741e565b618093576180906000617400565b91505b61809e8260066188e0565b9050919050565b600080600160f81b905060006180b9618800565b90508060010160009054906101000a900473ffffffffffffffffffffffffffffffffffffffff1673ffffffffffffffffffffffffffffffffffffffff16635a53accb8686856040518463ffffffff1660e01b815260040161811c9392919061a49d565b6020604051808303816000875af115801561813b573d6000803e3d6000fd5b505050506040513d601f19601f8201168201806040525081019061815f919061a3d0565b9250505092915050565b600080618174618800565b90508060010160009054906101000a900473ffffffffffffffffffffffffffffffffffffffff1673ffffffffffffffffffffffffffffffffffffffff1663d580c063846040518263ffffffff1660e01b81526004016181d3919061a612565b6020604051808303816000875af11580156181f2573d6000803e3d6000fd5b505050506040513d601f19601f82011682018060405250810190618216919061a3d0565b915050919050565b600080600160f81b90506000618232618800565b90508060010160009054906101000a900473ffffffffffffffffffffffffffffffffffffffff1673ffffffffffffffffffffffffffffffffffffffff1663cf4d18aa8686856040518463ffffffff1660e01b81526004016182959392919061a49d565b6020604051808303816000875af11580156182b4573d6000803e3d6000fd5b505050506040513d601f19601f820116820180604052508101906182d8919061a3d0565b9250505092915050565b60008082156182f757600160f81b90506182ff565b600060f81b90505b6000618309618800565b90508060010160009054906101000a900473ffffffffffffffffffffffffffffffffffffffff1673ffffffffffffffffffffffffffffffffffffffff1663d8092cbc8787856040518463ffffffff1660e01b815260040161836c9392919061a49d565b6020604051808303816000875af115801561838b573d6000803e3d6000fd5b505050506040513d601f19601f820116820180604052508101906183af919061a3d0565b925050509392505050565b60008082156183cf57600160f81b90506183d7565b600060f81b90505b60006183e1618800565b90508060010160009054906101000a900473ffffffffffffffffffffffffffffffffffffffff1673ffffffffffffffffffffffffffffffffffffffff16631391547f8787856040518463ffffffff1660e01b81526004016184449392919061a49d565b6020604051808303816000875af1158015618463573d6000803e3d6000fd5b505050506040513d601f19601f82011682018060405250810190618487919061a3d0565b925050509392505050565b600061849d826171db565b6184ae576184ab60006171b4565b91505b6184b98260066188e0565b9050919050565b60006184cb82617583565b6184dc576184d96000617569565b91505b6184e78260086188e0565b9050919050565b600080821561850357600160f81b905061850b565b600060f81b90505b6000618515618800565b90508060010160009054906101000a900473ffffffffffffffffffffffffffffffffffffffff1673ffffffffffffffffffffffffffffffffffffffff16637513a4048787856040518463ffffffff1660e01b81526004016185789392919061a49d565b6020604051808303816000875af1158015618597573d6000803e3d6000fd5b505050506040513d601f19601f820116820180604052508101906185bb919061a3d0565b925050509392505050565b60006185d18261789d565b6185e2576185df6000617877565b91505b6185ed8260086188e0565b9050919050565b600080821561860957600160f81b9050618611565b600060f81b90505b600061861b618800565b90508060010160009054906101000a900473ffffffffffffffffffffffffffffffffffffffff1673ffffffffffffffffffffffffffffffffffffffff1663ccc480a18787856040518463ffffffff1660e01b815260040161867e9392919061a49d565b6020604051808303816000875af115801561869d573d6000803e3d6000fd5b505050506040513d601f19601f820116820180604052508101906186c1919061a3d0565b925050509392505050565b60006186d78261741e565b6186e8576186e56000617400565b91505b6186f38260086188e0565b9050919050565b600080821561870f57600160f81b9050618717565b600060f81b90505b6000618721618800565b90508060010160009054906101000a900473ffffffffffffffffffffffffffffffffffffffff1673ffffffffffffffffffffffffffffffffffffffff16636754b3608787856040518463ffffffff1660e01b81526004016187849392919061a49d565b6020604051808303816000875af11580156187a3573d6000803e3d6000fd5b505050506040513d601f19601f820116820180604052508101906187c7919061a3d0565b925050509392505050565b60006187dd826171cb565b6187ee576187eb60006170e6565b91505b6187f98260086188e0565b9050919050565b60007f9e7b61f58c47dc699ac88507c4f5bb9f121c03808c5676a8078fe583e4649700905090565b600080618833618800565b90508060010160009054906101000a900473ffffffffffffffffffffffffffffffffffffffff1673ffffffffffffffffffffffffffffffffffffffff16639cd07acb85856040518363ffffffff1660e01b815260040161889492919061a646565b6020604051808303816000875af11580156188b3573d6000803e3d6000fd5b505050506040513d601f19601f820116820180604052508101906188d7919061a3d0565b91505092915050565b6000806188eb618800565b90508060010160009054906101000a900473ffffffffffffffffffffffffffffffffffffffff1673ffffffffffffffffffffffffffffffffffffffff16631c89ee4485856040518363ffffffff1660e01b815260040161894c92919061a66f565b6020604051808303816000875af115801561896b573d6000803e3d6000fd5b505050506040513d601f19601f8201168201806040525081019061898f919061a3d0565b91505092915050565b600080fd5b600080fd5b6000819050919050565b6189b5816189a2565b81146189c057600080fd5b50565b6000813590506189d2816189ac565b92915050565b6189e1816189a2565b81146189ec57600080fd5b50565b6000813590506189fe816189d8565b92915050565b600080fd5b600080fd5b600080fd5b60008083601f840112618a2957618a28618a04565b5b8235905067ffffffffffffffff811115618a4657618a45618a09565b5b602083019150836001820283011115618a6257618a61618a0e565b5b9250929050565b60008060008060608587031215618a8357618a82618998565b5b6000618a91878288016189c3565b9450506020618aa2878288016189ef565b935050604085013567ffffffffffffffff811115618ac357618ac261899d565b5b618acf87828801618a13565b925092505092959194509250565b618ae6816189a2565b8114618af157600080fd5b50565b600081359050618b0381618add565b92915050565b60008060008060608587031215618b2357618b22618998565b5b6000618b3187828801618af4565b9450506020618b42878288016189ef565b935050604085013567ffffffffffffffff811115618b6357618b6261899d565b5b618b6f87828801618a13565b925092505092959194509250565b618b86816189a2565b8114618b9157600080fd5b50565b600081359050618ba381618b7d565b92915050565b60008060008060608587031215618bc357618bc2618998565b5b6000618bd187828801618b94565b9450506020618be2878288016189c3565b935050604085013567ffffffffffffffff811115618c0357618c0261899d565b5b618c0f87828801618a13565b925092505092959194509250565b60008060008060608587031215618c3757618c36618998565b5b6000618c4587828801618b94565b9450506020618c56878288016189ef565b935050604085013567ffffffffffffffff811115618c7757618c7661899d565b5b618c8387828801618a13565b925092505092959194509250565b600063ffffffff82169050919050565b618caa81618c91565b8114618cb557600080fd5b50565b600081359050618cc781618ca1565b92915050565b60008060008060608587031215618ce757618ce6618998565b5b6000618cf587828801618cb8565b9450506020618d0687828801618b94565b935050604085013567ffffffffffffffff811115618d2757618d2661899d565b5b618d3387828801618a13565b925092505092959194509250565b618d4a816189a2565b8114618d5557600080fd5b50565b600081359050618d6781618d41565b92915050565b60008060008060608587031215618d8757618d86618998565b5b6000618d9587828801618d58565b9450506020618da6878288016189c3565b935050604085013567ffffffffffffffff811115618dc757618dc661899d565b5b618dd387828801618a13565b925092505092959194509250565b60008060008060608587031215618dfb57618dfa618998565b5b6000618e0987828801618af4565b9450506020618e1a878288016189c3565b935050604085013567ffffffffffffffff811115618e3b57618e3a61899d565b5b618e4787828801618a13565b925092505092959194509250565b600061ffff82169050919050565b618e6c81618e55565b8114618e7757600080fd5b50565b600081359050618e8981618e63565b92915050565b60008060008060608587031215618ea957618ea8618998565b5b6000618eb787828801618e7a565b9450506020618ec8878288016189c3565b935050604085013567ffffffffffffffff811115618ee957618ee861899d565b5b618ef587828801618a13565b925092505092959194509250565b600060ff82169050919050565b618f1981618f03565b8114618f2457600080fd5b50565b600081359050618f3681618f10565b92915050565b60008060008060608587031215618f5657618f55618998565b5b6000618f6487828801618f27565b9450506020618f75878288016189ef565b935050604085013567ffffffffffffffff811115618f9657618f9561899d565b5b618fa287828801618a13565b925092505092959194509250565b60008060008060608587031215618fca57618fc9618998565b5b6000618fd887828801618b94565b9450506020618fe987828801618d58565b935050604085013567ffffffffffffffff81111561900a5761900961899d565b5b61901687828801618a13565b925092505092959194509250565b6000806000806060858703121561903e5761903d618998565b5b600061904c87828801618af4565b945050602061905d87828801618b94565b935050604085013567ffffffffffffffff81111561907e5761907d61899d565b5b61908a87828801618a13565b925092505092959194509250565b600080600080606085870312156190b2576190b1618998565b5b60006190c0878288016189ef565b94505060206190d187828801618f27565b935050604085013567ffffffffffffffff8111156190f2576190f161899d565b5b6190fe87828801618a13565b925092505092959194509250565b619115816189a2565b811461912057600080fd5b50565b6000813590506191328161910c565b92915050565b6000806000806060858703121561915257619151618998565b5b600061916087828801619123565b9450506020619171878288016189ef565b935050604085013567ffffffffffffffff8111156191925761919161899d565b5b61919e87828801618a13565b925092505092959194509250565b600080600080606085870312156191c6576191c5618998565b5b60006191d487828801618af4565b94505060206191e587828801618d58565b935050604085013567ffffffffffffffff8111156192065761920561899d565b5b61921287828801618a13565b925092505092959194509250565b6000806000806060858703121561923a57619239618998565b5b6000619248878288016189ef565b945050602061925987828801618b94565b935050604085013567ffffffffffffffff81111561927a5761927961899d565b5b61928687828801618a13565b925092505092959194509250565b600061929f826189a2565b9050919050565b6192af81619294565b82525050565b60006020820190506192ca60008301846192a6565b92915050565b600080600080606085870312156192ea576192e9618998565b5b60006192f8878288016189ef565b9450506020619309878288016189c3565b935050604085013567ffffffffffffffff81111561932a5761932961899d565b5b61933687828801618a13565b925092505092959194509250565b6000806000806060858703121561935e5761935d618998565b5b600061936c878288016189c3565b945050602061937d87828801618f27565b935050604085013567ffffffffffffffff81111561939e5761939d61899d565b5b6193aa87828801618a13565b925092505092959194509250565b600080600080606085870312156193d2576193d1618998565b5b60006193e087828801619123565b94505060206193f187828801618f27565b935050604085013567ffffffffffffffff8111156194125761941161899d565b5b61941e87828801618a13565b925092505092959194509250565b6000806000806060858703121561944657619445618998565b5b6000619454878288016189ef565b9450506020619465878288016189ef565b935050604085013567ffffffffffffffff8111156194865761948561899d565b5b61949287828801618a13565b925092505092959194509250565b60006fffffffffffffffffffffffffffffffff82169050919050565b6194c5816194a0565b81146194d057600080fd5b50565b6000813590506194e2816194bc565b92915050565b6000806000806060858703121561950257619501618998565b5b600061951087828801618d58565b9450506020619521878288016194d3565b935050604085013567ffffffffffffffff8111156195425761954161899d565b5b61954e87828801618a13565b925092505092959194509250565b60008060006040848603121561957557619574618998565b5b600061958386828701618d58565b935050602084013567ffffffffffffffff8111156195a4576195a361899d565b5b6195b086828701618a13565b92509250509250925092565b600080600080606085870312156195d6576195d5618998565b5b60006195e487828801618b94565b94505060206195f587828801618cb8565b935050604085013567ffffffffffffffff8111156196165761961561899d565b5b61962287828801618a13565b925092505092959194509250565b6000806000806060858703121561964a57619649618998565b5b600061965887828801618b94565b945050602061966987828801618af4565b935050604085013567ffffffffffffffff81111561968a5761968961899d565b5b61969687828801618a13565b925092505092959194509250565b600067ffffffffffffffff82169050919050565b6196c1816196a4565b81146196cc57600080fd5b50565b6000813590506196de816196b8565b92915050565b600080600080606085870312156196fe576196fd618998565b5b600061970c87828801618af4565b945050602061971d878288016196cf565b935050604085013567ffffffffffffffff81111561973e5761973d61899d565b5b61974a87828801618a13565b925092505092959194509250565b6000806000806060858703121561977257619771618998565b5b600061978087828801618d58565b945050602061979187828801618af4565b935050604085013567ffffffffffffffff8111156197b2576197b161899d565b5b6197be87828801618a13565b925092505092959194509250565b600080600080606085870312156197e6576197e5618998565b5b60006197f487828801618d58565b9450506020619805878288016189ef565b935050604085013567ffffffffffffffff8111156198265761982561899d565b5b61983287828801618a13565b925092505092959194509250565b61984981619294565b82525050565b60006020820190506198646000830184619840565b92915050565b6000806000806060858703121561988457619883618998565b5b600061989287828801618b94565b94505060206198a387828801619123565b935050604085013567ffffffffffffffff8111156198c4576198c361899d565b5b6198d087828801618a13565b925092505092959194509250565b600080600080606085870312156198f8576198f7618998565b5b6000619906878288016189ef565b945050602061991787828801618d58565b935050604085013567ffffffffffffffff8111156199385761993761899d565b5b61994487828801618a13565b925092505092959194509250565b6000806000806060858703121561996c5761996b618998565b5b600061997a87828801618d58565b945050602061998b87828801618b94565b935050604085013567ffffffffffffffff8111156199ac576199ab61899d565b5b6199b887828801618a13565b925092505092959194509250565b600080600080606085870312156199e0576199df618998565b5b60006199ee878288016189c3565b94505060206199ff878288016189c3565b935050604085013567ffffffffffffffff811115619a2057619a1f61899d565b5b619a2c87828801618a13565b925092505092959194509250565b60008060008060608587031215619a5457619a53618998565b5b6000619a6287828801619123565b9450506020619a7387828801618d58565b935050604085013567ffffffffffffffff811115619a9457619a9361899d565b5b619aa087828801618a13565b925092505092959194509250565b60008060008060608587031215619ac857619ac7618998565b5b6000619ad687828801618af4565b9450506020619ae787828801618f27565b935050604085013567ffffffffffffffff811115619b0857619b0761899d565b5b619b1487828801618a13565b925092505092959194509250565b619b2b81619294565b82525050565b6000602082019050619b466000830184619b22565b92915050565b60008060008060608587031215619b6657619b65618998565b5b6000619b7487828801618b94565b9450506020619b8587828801618b94565b935050604085013567ffffffffffffffff811115619ba657619ba561899d565b5b619bb287828801618a13565b925092505092959194509250565b60008060008060608587031215619bda57619bd9618998565b5b6000619be8878288016189c3565b9450506020619bf987828801618d58565b935050604085013567ffffffffffffffff811115619c1a57619c1961899d565b5b619c2687828801618a13565b925092505092959194509250565b60008060008060608587031215619c4e57619c4d618998565b5b6000619c5c87828801618af4565b9450506020619c6d87828801619123565b935050604085013567ffffffffffffffff811115619c8e57619c8d61899d565b5b619c9a87828801618a13565b925092505092959194509250565b60008060008060608587031215619cc257619cc1618998565b5b6000619cd087828801618af4565b9450506020619ce187828801618af4565b935050604085013567ffffffffffffffff811115619d0257619d0161899d565b5b619d0e87828801618a13565b925092505092959194509250565b619d2581619294565b82525050565b6000602082019050619d406000830184619d1c565b92915050565b619d4f81619294565b82525050565b6000602082019050619d6a6000830184619d46565b92915050565b60008060008060608587031215619d8a57619d89618998565b5b6000619d98878288016189c3565b9450506020619da987828801618e7a565b935050604085013567ffffffffffffffff811115619dca57619dc961899d565b5b619dd687828801618a13565b925092505092959194509250565b60008060008060608587031215619dfe57619dfd618998565b5b6000619e0c878288016189ef565b9450506020619e1d87828801619123565b935050604085013567ffffffffffffffff811115619e3e57619e3d61899d565b5b619e4a87828801618a13565b925092505092959194509250565b619e6181619294565b82525050565b6000602082019050619e7c6000830184619e58565b92915050565b60008060008060608587031215619e9c57619e9b618998565b5b6000619eaa878288016196cf565b9450506020619ebb87828801618af4565b935050604085013567ffffffffffffffff811115619edc57619edb61899d565b5b619ee887828801618a13565b925092505092959194509250565b60008060008060608587031215619f1057619f0f618998565b5b6000619f1e878288016189c3565b9450506020619f2f87828801618af4565b935050604085013567ffffffffffffffff811115619f5057619f4f61899d565b5b619f5c87828801618a13565b925092505092959194509250565b60008060008060608587031215619f8457619f83618998565b5b6000619f92878288016194d3565b9450506020619fa387828801618d58565b935050604085013567ffffffffffffffff811115619fc457619fc361899d565b5b619fd087828801618a13565b925092505092959194509250565b60008060008060608587031215619ff857619ff7618998565b5b600061a006878288016189ef565b945050602061a01787828801618af4565b935050604085013567ffffffffffffffff81111561a0385761a03761899d565b5b61a04487828801618a13565b925092505092959194509250565b61a05b81619294565b82525050565b600060208201905061a076600083018461a052565b92915050565b6000806000806060858703121561a0965761a095618998565b5b600061a0a487828801618d58565b945050602061a0b587828801618f27565b935050604085013567ffffffffffffffff81111561a0d65761a0d561899d565b5b61a0e287828801618a13565b925092505092959194509250565b6000806000806060858703121561a10a5761a109618998565b5b600061a11887828801619123565b945050602061a12987828801618b94565b935050604085013567ffffffffffffffff81111561a14a5761a14961899d565b5b61a15687828801618a13565b925092505092959194509250565b6000806000806060858703121561a17e5761a17d618998565b5b600061a18c878288016189c3565b945050602061a19d87828801619123565b935050604085013567ffffffffffffffff81111561a1be5761a1bd61899d565b5b61a1ca87828801618a13565b925092505092959194509250565b61a1e1816189a2565b82525050565b600073ffffffffffffffffffffffffffffffffffffffff82169050919050565b600061a2128261a1e7565b9050919050565b61a2228161a207565b82525050565b600060408201905061a23d600083018561a1d8565b61a24a602083018461a219565b9392505050565b600081519050919050565b600082825260208201905092915050565b60005b8381101561a28b57808201518184015260208101905061a270565b60008484015250505050565b6000601f19601f8301169050919050565b600061a2b38261a251565b61a2bd818561a25c565b935061a2cd81856020860161a26d565b61a2d68161a297565b840191505092915050565b7f4e487b7100000000000000000000000000000000000000000000000000000000600052602160045260246000fd5b6054811061a3215761a32061a2e1565b5b50565b600081905061a3328261a310565b919050565b600061a3428261a324565b9050919050565b61a3528161a337565b82525050565b600060808201905061a36d600083018761a1d8565b61a37a602083018661a219565b818103604083015261a38c818561a2a8565b905061a39b606083018461a349565b95945050505050565b61a3ad816189a2565b811461a3b857600080fd5b50565b60008151905061a3ca8161a3a4565b92915050565b60006020828403121561a3e65761a3e5618998565b5b600061a3f48482850161a3bb565b91505092915050565b60008115159050919050565b61a4128161a3fd565b811461a41d57600080fd5b50565b60008151905061a42f8161a409565b92915050565b60006020828403121561a44b5761a44a618998565b5b600061a4598482850161a420565b91505092915050565b60007fff0000000000000000000000000000000000000000000000000000000000000082169050919050565b61a4978161a462565b82525050565b600060608201905061a4b2600083018661a1d8565b61a4bf602083018561a1d8565b61a4cc604083018461a48e565b949350505050565b7f4e487b7100000000000000000000000000000000000000000000000000000000600052604160045260246000fd5b7f4e487b7100000000000000000000000000000000000000000000000000000000600052603260045260246000fd5b600081519050919050565b600082825260208201905092915050565b6000819050602082019050919050565b61a567816189a2565b82525050565b600061a579838361a55e565b60208301905092915050565b6000602082019050919050565b600061a59d8261a532565b61a5a7818561a53d565b935061a5b28361a54e565b8060005b8381101561a5e357815161a5ca888261a56d565b975061a5d58361a585565b92505060018101905061a5b6565b5085935050505092915050565b6000602082019050818103600083015261a60a818461a592565b905092915050565b600060208201905061a627600083018461a1d8565b92915050565b6000819050919050565b61a6408161a62d565b82525050565b600060408201905061a65b600083018561a637565b61a668602083018461a349565b9392505050565b600060408201905061a684600083018561a1d8565b61a691602083018461a349565b939250505056fea2646970667358221220094b9bcbbebfebcf3f83ef2275d3481292d682ccfcc70ace61707771b50309db64736f6c63430008180033",
  "linkReferences": {},
  "deployedLinkReferences": {}
}