{
  "_format": "hh-sol-artifact-1",
  "contractName": "InputVerification",
  "sourceName": "contracts/InputVerification.sol",
  "abi": [
    {
      "inputs": [],
      "stateMutability": "nonpayable",
      "type": "constructor"
    },
    {
      "inputs": [
        {
          "internalType": "address",
          "name": "target",
          "type": "address"
        }
      ],
      "name": "AddressEmptyCode",
      "type": "error"
    },
    {
      "inputs": [
        {
          "internalType": "uint256",
          "name": "zkProofId",
          "type": "uint256"
        },
        {
          "internalType": "address",
          "name": "txSender",
          "type": "address"
        },
        {
          "internalType": "address",
          "name": "signer",
          "type": "address"
        }
      ],
      "name": "CoprocessorAlreadyRejected",
      "type": "error"
    },
    {
      "inputs": [
        {
          "internalType": "uint256",
          "name": "zkProofId",
          "type": "uint256"
        },
        {
          "internalType": "address",
          "name": "txSender",
          "type": "address"
        },
        {
          "internalType": "address",
          "name": "signer",
          "type": "address"
        }
      ],
      "name": "CoprocessorAlreadyVerified",
      "type": "error"
    },
    {
      "inputs": [],
      "name": "ECDSAInvalidSignature",
      "type": "error"
    },
    {
      "inputs": [
        {
          "internalType": "uint256",
          "name": "length",
          "type": "uint256"
        }
      ],
      "name": "ECDSAInvalidSignatureLength",
      "type": "error"
    },
    {
      "inputs": [
        {
          "internalType": "bytes32",
          "name": "s",
          "type": "bytes32"
        }
      ],
      "name": "ECDSAInvalidSignatureS",
      "type": "error"
    },
    {
      "inputs": [
        {
          "internalType": "address",
          "name": "implementation",
          "type": "address"
        }
      ],
      "name": "ERC1967InvalidImplementation",
      "type": "error"
    },
    {
      "inputs": [],
      "name": "ERC1967NonPayable",
      "type": "error"
    },
    {
      "inputs": [],
      "name": "EnforcedPause",
      "type": "error"
    },
    {
      "inputs": [],
      "name": "ExpectedPause",
      "type": "error"
    },
    {
      "inputs": [],
      "name": "FailedCall",
      "type": "error"
    },
    {
      "inputs": [],
      "name": "InvalidInitialization",
      "type": "error"
    },
    {
      "inputs": [],
      "name": "NotInitializing",
      "type": "error"
    },
    {
      "inputs": [],
      "name": "NotInitializingFromEmptyProxy",
      "type": "error"
    },
    {
      "inputs": [
        {
          "internalType": "address",
          "name": "notOwnerOrGatewayConfig",
          "type": "address"
        }
      ],
      "name": "NotOwnerOrGatewayConfig",
      "type": "error"
    },
    {
      "inputs": [
        {
          "internalType": "address",
          "name": "notPauser",
          "type": "address"
        }
      ],
      "name": "NotPauser",
      "type": "error"
    },
    {
      "inputs": [
        {
          "internalType": "address",
          "name": "notPauserOrGatewayConfig",
          "type": "address"
        }
      ],
      "name": "NotPauserOrGatewayConfig",
      "type": "error"
    },
    {
      "inputs": [
        {
          "internalType": "address",
          "name": "owner",
          "type": "address"
        }
      ],
      "name": "OwnableInvalidOwner",
      "type": "error"
    },
    {
      "inputs": [
        {
          "internalType": "address",
          "name": "account",
          "type": "address"
        }
      ],
      "name": "OwnableUnauthorizedAccount",
      "type": "error"
    },
    {
      "inputs": [
        {
          "internalType": "uint256",
          "name": "zkProofId",
          "type": "uint256"
        }
      ],
      "name": "ProofNotRejected",
      "type": "error"
    },
    {
      "inputs": [
        {
          "internalType": "uint256",
          "name": "zkProofId",
          "type": "uint256"
        }
      ],
      "name": "ProofNotVerified",
      "type": "error"
    },
    {
      "inputs": [],
      "name": "UUPSUnauthorizedCallContext",
      "type": "error"
    },
    {
      "inputs": [
        {
          "internalType": "bytes32",
          "name": "slot",
          "type": "bytes32"
        }
      ],
      "name": "UUPSUnsupportedProxiableUUID",
      "type": "error"
    },
    {
      "inputs": [
        {
          "internalType": "uint256",
          "name": "zkProofId",
          "type": "uint256"
        }
      ],
      "name": "VerifyProofNotRequested",
      "type": "error"
    },
    {
      "anonymous": false,
      "inputs": [],
      "name": "EIP712DomainChanged",
      "type": "event"
    },
    {
      "anonymous": false,
      "inputs": [
        {
          "indexed": false,
          "internalType": "uint64",
          "name": "version",
          "type": "uint64"
        }
      ],
      "name": "Initialized",
      "type": "event"
    },
    {
      "anonymous": false,
      "inputs": [
        {
          "indexed": true,
          "internalType": "address",
          "name": "previousOwner",
          "type": "address"
        },
        {
          "indexed": true,
          "internalType": "address",
          "name": "newOwner",
          "type": "address"
        }
      ],
      "name": "OwnershipTransferStarted",
      "type": "event"
    },
    {
      "anonymous": false,
      "inputs": [
        {
          "indexed": true,
          "internalType": "address",
          "name": "previousOwner",
          "type": "address"
        },
        {
          "indexed": true,
          "internalType": "address",
          "name": "newOwner",
          "type": "address"
        }
      ],
      "name": "OwnershipTransferred",
      "type": "event"
    },
    {
      "anonymous": false,
      "inputs": [
        {
          "indexed": false,
          "internalType": "address",
          "name": "account",
          "type": "address"
        }
      ],
      "name": "Paused",
      "type": "event"
    },
    {
      "anonymous": false,
      "inputs": [
        {
          "indexed": true,
          "internalType": "uint256",
          "name": "zkProofId",
          "type": "uint256"
        }
      ],
      "name": "RejectProofResponse",
      "type": "event"
    },
    {
      "anonymous": false,
      "inputs": [
        {
          "indexed": false,
          "internalType": "address",
          "name": "account",
          "type": "address"
        }
      ],
      "name": "Unpaused",
      "type": "event"
    },
    {
      "anonymous": false,
      "inputs": [
        {
          "indexed": true,
          "internalType": "address",
          "name": "implementation",
          "type": "address"
        }
      ],
      "name": "Upgraded",
      "type": "event"
    },
    {
      "anonymous": false,
      "inputs": [
        {
          "indexed": true,
          "internalType": "uint256",
          "name": "zkProofId",
          "type": "uint256"
        },
        {
          "indexed": true,
          "internalType": "uint256",
          "name": "contractChainId",
          "type": "uint256"
        },
        {
          "indexed": false,
          "internalType": "address",
          "name": "contractAddress",
          "type": "address"
        },
        {
          "indexed": false,
          "internalType": "address",
          "name": "userAddress",
          "type": "address"
        },
        {
          "indexed": false,
          "internalType": "bytes",
          "name": "ciphertextWithZKProof",
          "type": "bytes"
        },
        {
          "indexed": false,
          "internalType": "bytes",
          "name": "extraData",
          "type": "bytes"
        }
      ],
      "name": "VerifyProofRequest",
      "type": "event"
    },
    {
      "anonymous": false,
      "inputs": [
        {
          "indexed": true,
          "internalType": "uint256",
          "name": "zkProofId",
          "type": "uint256"
        },
        {
          "indexed": false,
          "internalType": "bytes32[]",
          "name": "ctHandles",
          "type": "bytes32[]"
        },
        {
          "indexed": false,
          "internalType": "bytes[]",
          "name": "signatures",
          "type": "bytes[]"
        }
      ],
      "name": "VerifyProofResponse",
      "type": "event"
    },
    {
      "inputs": [],
      "name": "UPGRADE_INTERFACE_VERSION",
      "outputs": [
        {
          "internalType": "string",
          "name": "",
          "type": "string"
        }
      ],
      "stateMutability": "view",
      "type": "function"
    },
    {
      "inputs": [],
      "name": "acceptOwnership",
      "outputs": [],
      "stateMutability": "nonpayable",
      "type": "function"
    },
    {
      "inputs": [
        {
          "internalType": "uint256",
          "name": "zkProofId",
          "type": "uint256"
        }
      ],
      "name": "checkProofRejected",
      "outputs": [],
      "stateMutability": "view",
      "type": "function"
    },
    {
      "inputs": [
        {
          "internalType": "uint256",
          "name": "zkProofId",
          "type": "uint256"
        }
      ],
      "name": "checkProofVerified",
      "outputs": [],
      "stateMutability": "view",
      "type": "function"
    },
    {
      "inputs": [],
      "name": "eip712Domain",
      "outputs": [
        {
          "internalType": "bytes1",
          "name": "fields",
          "type": "bytes1"
        },
        {
          "internalType": "string",
          "name": "name",
          "type": "string"
        },
        {
          "internalType": "string",
          "name": "version",
          "type": "string"
        },
        {
          "internalType": "uint256",
          "name": "chainId",
          "type": "uint256"
        },
        {
          "internalType": "address",
          "name": "verifyingContract",
          "type": "address"
        },
        {
          "internalType": "bytes32",
          "name": "salt",
          "type": "bytes32"
        },
        {
          "internalType": "uint256[]",
          "name": "extensions",
          "type": "uint256[]"
        }
      ],
      "stateMutability": "view",
      "type": "function"
    },
    {
      "inputs": [
        {
          "internalType": "uint256",
          "name": "zkProofId",
          "type": "uint256"
        }
      ],
      "name": "getRejectProofConsensusTxSenders",
      "outputs": [
        {
          "internalType": "address[]",
          "name": "",
          "type": "address[]"
        }
      ],
      "stateMutability": "view",
      "type": "function"
    },
    {
      "inputs": [
        {
          "internalType": "uint256",
          "name": "zkProofId",
          "type": "uint256"
        }
      ],
      "name": "getVerifyProofConsensusTxSenders",
      "outputs": [
        {
          "internalType": "address[]",
          "name": "",
          "type": "address[]"
        }
      ],
      "stateMutability": "view",
      "type": "function"
    },
    {
      "inputs": [],
      "name": "getVersion",
      "outputs": [
        {
          "internalType": "string",
          "name": "",
          "type": "string"
        }
      ],
      "stateMutability": "pure",
      "type": "function"
    },
    {
      "inputs": [],
      "name": "initializeFromEmptyProxy",
      "outputs": [],
      "stateMutability": "nonpayable",
      "type": "function"
    },
    {
      "inputs": [],
      "name": "owner",
      "outputs": [
        {
          "internalType": "address",
          "name": "",
          "type": "address"
        }
      ],
      "stateMutability": "view",
      "type": "function"
    },
    {
      "inputs": [],
      "name": "pause",
      "outputs": [],
      "stateMutability": "nonpayable",
      "type": "function"
    },
    {
      "inputs": [],
      "name": "paused",
      "outputs": [
        {
          "internalType": "bool",
          "name": "",
          "type": "bool"
        }
      ],
      "stateMutability": "view",
      "type": "function"
    },
    {
      "inputs": [],
      "name": "pendingOwner",
      "outputs": [
        {
          "internalType": "address",
          "name": "",
          "type": "address"
        }
      ],
      "stateMutability": "view",
      "type": "function"
    },
    {
      "inputs": [],
      "name": "proxiableUUID",
      "outputs": [
        {
          "internalType": "bytes32",
          "name": "",
          "type": "bytes32"
        }
      ],
      "stateMutability": "view",
      "type": "function"
    },
    {
      "inputs": [],
      "name": "reinitializeV2",
      "outputs": [],
      "stateMutability": "nonpayable",
      "type": "function"
    },
    {
      "inputs": [
        {
          "internalType": "uint256",
          "name": "zkProofId",
          "type": "uint256"
        },
        {
          "internalType": "bytes",
          "name": "",
          "type": "bytes"
        }
      ],
      "name": "rejectProofResponse",
      "outputs": [],
      "stateMutability": "nonpayable",
      "type": "function"
    },
    {
      "inputs": [],
      "name": "renounceOwnership",
      "outputs": [],
      "stateMutability": "nonpayable",
      "type": "function"
    },
    {
      "inputs": [
        {
          "internalType": "address",
          "name": "newOwner",
          "type": "address"
        }
      ],
      "name": "transferOwnership",
      "outputs": [],
      "stateMutability": "nonpayable",
      "type": "function"
    },
    {
      "inputs": [],
      "name": "unpause",
      "outputs": [],
      "stateMutability": "nonpayable",
      "type": "function"
    },
    {
      "inputs": [
        {
          "internalType": "address",
          "name": "newImplementation",
          "type": "address"
        },
        {
          "internalType": "bytes",
          "name": "data",
          "type": "bytes"
        }
      ],
      "name": "upgradeToAndCall",
      "outputs": [],
      "stateMutability": "payable",
      "type": "function"
    },
    {
      "inputs": [
        {
          "internalType": "uint256",
          "name": "contractChainId",
          "type": "uint256"
        },
        {
          "internalType": "address",
          "name": "contractAddress",
          "type": "address"
        },
        {
          "internalType": "address",
          "name": "userAddress",
          "type": "address"
        },
        {
          "internalType": "bytes",
          "name": "ciphertextWithZKProof",
          "type": "bytes"
        },
        {
          "internalType": "bytes",
          "name": "extraData",
          "type": "bytes"
        }
      ],
      "name": "verifyProofRequest",
      "outputs": [],
      "stateMutability": "nonpayable",
      "type": "function"
    },
    {
      "inputs": [
        {
          "internalType": "uint256",
          "name": "zkProofId",
          "type": "uint256"
        },
        {
          "internalType": "bytes32[]",
          "name": "ctHandles",
          "type": "bytes32[]"
        },
        {
          "internalType": "bytes",
          "name": "signature",
          "type": "bytes"
        },
        {
          "internalType": "bytes",
          "name": "extraData",
          "type": "bytes"
        }
      ],
      "name": "verifyProofResponse",
      "outputs": [],
      "stateMutability": "nonpayable",
      "type": "function"
    }
  ],
  "bytecode": "0x60a06040523060805234801562000014575f80fd5b506200001f62000025565b620000d9565b7ff0c57e16840df040f15088dc2f81fe391c3923bec73e23a9662efc9c229c6a00805468010000000000000000900460ff1615620000765760405163f92ee8a960e01b815260040160405180910390fd5b80546001600160401b0390811614620000d65780546001600160401b0319166001600160401b0390811782556040519081527fc7f505b2f371ae2175ee4913f4499e1f2633a7b5936321eed1cdaeb6115181d29060200160405180910390a15b50565b608051612e20620001005f395f81816117bb015281816117e4015261194e0152612e205ff3fe60806040526004361061016d575f3560e01c8063715018a6116100c6578063a70049961161007c578063ce7e425711610057578063ce7e4257146103ed578063e30c39781461040c578063f2fde38b14610420575f80fd5b8063a700499614610372578063ad3cb1cc14610391578063c4115874146103d9575f80fd5b80638456cb59116100ac5780638456cb591461030b57806384b0196e1461031f5780638da5cb5b14610346575f80fd5b8063715018a6146102e357806379ba5097146102f7575f80fd5b806339f738101161012657806352d1902d1161010157806352d1902d146102615780635a5174eb146102835780635c975abb146102a2575f80fd5b806339f73810146102265780633f4ba83a1461023a5780634f1ef2861461024e575f80fd5b80631bbe9fae116101565780631bbe9fae146101bc57806331bedea3146101e8578063338007fc14610207575f80fd5b80630d8e6e2c146101715780631814ae891461019b575b5f80fd5b34801561017c575f80fd5b5061018561043f565b60405161019291906123e1565b60405180910390f35b3480156101a6575f80fd5b506101ba6101b53660046123f3565b6104ba565b005b3480156101c7575f80fd5b506101db6101d63660046123f3565b610535565b604051610192919061240a565b3480156101f3575f80fd5b506101ba61020236600461249b565b6105e3565b348015610212575f80fd5b506101ba610221366004612565565b6109ab565b348015610231575f80fd5b506101ba610bbc565b348015610245575f80fd5b506101ba610d5b565b6101ba61025c366004612656565b610dad565b34801561026c575f80fd5b50610275610dc8565b604051908152602001610192565b34801561028e575f80fd5b506101ba61029d3660046123f3565b610df6565b3480156102ad575f80fd5b507fcd5ed15c6e187e77e9aee88184c21f4f2182ab5827cb3b7e07fbedcd63f033005460ff166040519015158152602001610192565b3480156102ee575f80fd5b506101ba610e68565b348015610302575f80fd5b506101ba610e79565b348015610316575f80fd5b506101ba610ec1565b34801561032a575f80fd5b50610333610f69565b60405161019297969594939291906126e3565b348015610351575f80fd5b5061035a61102d565b6040516001600160a01b039091168152602001610192565b34801561037d575f80fd5b506101ba61038c36600461277a565b611061565b34801561039c575f80fd5b506101856040518060400160405280600581526020017f352e302e3000000000000000000000000000000000000000000000000000000081525081565b3480156103e4575f80fd5b506101ba6111a6565b3480156103f8575f80fd5b506101db6104073660046123f3565b61126e565b348015610417575f80fd5b5061035a61134d565b34801561042b575f80fd5b506101ba61043a3660046127f2565b611375565b60606040518060400160405280601181526020017f496e707574566572696669636174696f6e0000000000000000000000000000008152506104805f6113fa565b61048a60016113fa565b6104935f6113fa565b6040516020016104a6949392919061280d565b604051602081830303815290604052905090565b5f8181527f4544165ce1653264fdcb09b029891e3d4c8d8583486821172f882e19a149a80260205260409020547f4544165ce1653264fdcb09b029891e3d4c8d8583486821172f882e19a149a8009060ff1661053157604051633acd425360e01b8152600481018390526024015b60405180910390fd5b5050565b5f8181527f4544165ce1653264fdcb09b029891e3d4c8d8583486821172f882e19a149a80a602090815260409182902080548351818402810184019094528084526060937f4544165ce1653264fdcb09b029891e3d4c8d8583486821172f882e19a149a80093909291908301828280156105d657602002820191905f5260205f20905b81546001600160a01b031681526001909101906020018083116105b8575b5050505050915050919050565b60405163cb66175560e01b81523360048201525f9063cb661755906024015f6040518083038186803b158015610617575f80fd5b505afa158015610629573d5f803e3d5ffd5b505050505f6106557f4544165ce1653264fdcb09b029891e3d4c8d8583486821172f882e19a149a80090565b8054909150881180610665575087155b1561068657604051634711083f60e01b815260048101899052602401610528565b5f888152600782016020908152604080832081516060810183528154815260018201546001600160a01b0390811682860152600290920154909116818301528151928a0280840160c090810190935260a084018b8152919493928392918d918d9182918601908490808284375f920191909152505050908252506040808501516001600160a01b039081166020808501919091528681015190911682840152855160608401528151601f890182900482028101820190925287825260809092019188908890819084018382808284375f92018290525093909452509293509150610771905082611497565b90505f6107b3828a8a8080601f0160208091040260200160405190810160405280939291908181526020018383808284375f9201919091525061157492505050565b60405163cdb4c2b960e01b81526001600160a01b03821660048201529091505f9063cdb4c2b9906024015f6040518083038186803b1580156107f3575f80fd5b505afa158015610805573d5f803e3d5ffd5b505050506108148c338361159c565b5f8c8152600386016020908152604080832085845282528220805460018101825581845291909220016108488a8c8361290d565b506001866005015f8f81526020019081526020015f205f846001600160a01b03166001600160a01b031681526020019081526020015f205f6101000a81548160ff021916908315150217905550856008015f8e81526020019081526020015f205f8481526020019081526020015f2033908060018154018082558091505060019003905f5260205f20015f9091909190916101000a8154816001600160a01b0302191690836001600160a01b03160217905550856001015f8e81526020019081526020015f205f9054906101000a900460ff1615801561092e5750805461092e9061169f565b1561099c575f8d8152600187810160209081526040808420805460ff191690931790925560098901905290819020849055518d907ffe2c43585786a5a658d2ec5df5dea3fb3385b77c94f60f724ff810896f41983590610993908f908f9086906129c7565b60405180910390a25b50505050505050505050505050565b60405163cb66175560e01b81523360048201525f9063cb661755906024015f6040518083038186803b1580156109df575f80fd5b505afa1580156109f1573d5f803e3d5ffd5b505050505f610a1d7f4544165ce1653264fdcb09b029891e3d4c8d8583486821172f882e19a149a80090565b8054909150841180610a2d575083155b15610a4e57604051634711083f60e01b815260048101859052602401610528565b60405163ef6997f960e01b81523360048201525f90819063ef6997f9906024015f60405180830381865afa158015610a88573d5f803e3d5ffd5b505050506040513d5f823e601f3d908101601f19168201604052610aaf9190810190612ae3565b6020810151909150610ac286338361159c565b5f8681526004840160205260408120805491610add83612baa565b90915550505f86815260068401602090815260408083206001600160a01b03851684528252808320805460ff19166001908117909155898452600a870183528184208054918201815584528284200180546001600160a01b031916331790558883526002860190915290205460ff16158015610b6d57505f868152600484016020526040902054610b6d9061169f565b15610bb4575f868152600284016020526040808220805460ff191660011790555187917fe465e141fa8abd95ab7e0855543307f8506ab0170ef664420fb71ab7de0183de91a25b505050505050565b7ff0c57e16840df040f15088dc2f81fe391c3923bec73e23a9662efc9c229c6a005467ffffffffffffffff1667ffffffffffffffff16600114610c1257604051636f4f731f60e01b815260040160405180910390fd5b7ff0c57e16840df040f15088dc2f81fe391c3923bec73e23a9662efc9c229c6a00805460039190600160401b900460ff1680610c5c5750805467ffffffffffffffff808416911610155b15610c7a5760405163f92ee8a960e01b815260040160405180910390fd5b805468ffffffffffffffffff191667ffffffffffffffff831617600160401b178155604080518082018252601181527f496e707574566572696669636174696f6e000000000000000000000000000000602080830191909152825180840190935260018352603160f81b90830152610cf19161170b565b610d01610cfc61102d565b61171d565b610d0961172e565b805468ff00000000000000001916815560405167ffffffffffffffff831681527fc7f505b2f371ae2175ee4913f4499e1f2633a7b5936321eed1cdaeb6115181d2906020015b60405180910390a15050565b610d6361102d565b6001600160a01b0316336001600160a01b031614158015610d8357503315155b15610da3576040516370c8b37760e11b8152336004820152602401610528565b610dab61173e565b565b610db56117b0565b610dbe82611867565b610531828261186f565b5f610dd1611943565b507f360894a13ba1a3210667c828492db98dca3e2076cc3735a920a3ca505d382bbc90565b5f8181527f4544165ce1653264fdcb09b029891e3d4c8d8583486821172f882e19a149a80160205260409020547f4544165ce1653264fdcb09b029891e3d4c8d8583486821172f882e19a149a8009060ff166105315760405163c579a79160e01b815260048101839052602401610528565b610e7061198c565b610dab5f6119be565b3380610e8361134d565b6001600160a01b031614610eb55760405163118cdaa760e01b81526001600160a01b0382166004820152602401610528565b610ebe816119be565b50565b5f6001600160a01b0316637008b5486040518163ffffffff1660e01b8152600401602060405180830381865afa158015610efd573d5f803e3d5ffd5b505050506040513d601f19601f82011682018060405250810190610f219190612bce565b6001600160a01b0316336001600160a01b031614158015610f4157503315155b15610f615760405163388916bb60e01b8152336004820152602401610528565b610dab6119f6565b5f60608082808083817fa16a46d94261c7517cc8ff89f61c0ce93598e3c849801011dee649a6a557d1008054909150158015610fa757506001810154155b610ff35760405162461bcd60e51b815260206004820152601560248201527f4549503731323a20556e696e697469616c697a656400000000000000000000006044820152606401610528565b610ffb611a51565b611003611b24565b604080515f80825260208201909252600f60f81b9c939b5091995046985030975095509350915050565b5f807f9016d09d72d40fdae2fd8ceac6b6234c7706214fd39c1cd1e609a0528c1993005b546001600160a01b031692915050565b6040516386fa213960e01b81526004810188905287905f906386fa2139906024015f6040518083038186803b158015611098575f80fd5b505afa1580156110aa573d5f803e3d5ffd5b505050506110b6611b75565b7f4544165ce1653264fdcb09b029891e3d4c8d8583486821172f882e19a149a8008054815f6110e483612baa565b90915550508054604080516060810182528b81526001600160a01b03808c1660208084019182528c83168486019081525f87815260078901909252908590209351845590516001840180549184166001600160a01b0319928316179055905160029093018054939092169216919091179055518a9082907f4ae54f6a6e900d806ffa5bb46ed91459523d2f6ac9b5d62404feab887686d00590611192908d908d908d908d908d908d90612c11565b60405180910390a350505050505050505050565b7ff0c57e16840df040f15088dc2f81fe391c3923bec73e23a9662efc9c229c6a00805460039190600160401b900460ff16806111f05750805467ffffffffffffffff808416911610155b1561120e5760405163f92ee8a960e01b815260040160405180910390fd5b805468ffffffffffffffffff191667ffffffffffffffff8316908117600160401b1768ff0000000000000000191682556040519081527fc7f505b2f371ae2175ee4913f4499e1f2633a7b5936321eed1cdaeb6115181d290602001610d4f565b5f8181527f4544165ce1653264fdcb09b029891e3d4c8d8583486821172f882e19a149a80960209081526040808320547f4544165ce1653264fdcb09b029891e3d4c8d8583486821172f882e19a149a808835281842081855283529281902080548251818502810185019093528083526060947f4544165ce1653264fdcb09b029891e3d4c8d8583486821172f882e19a149a80094909392919083018282801561133f57602002820191905f5260205f20905b81546001600160a01b03168152600190910190602001808311611321575b505050505092505050919050565b5f807f237e158222e3e6968b72b9db0d8043aacf074ad9f650f0d1606b4d82ee432c00611051565b61137d61198c565b7f237e158222e3e6968b72b9db0d8043aacf074ad9f650f0d1606b4d82ee432c0080546001600160a01b0319166001600160a01b03831690811782556113c161102d565b6001600160a01b03167f38d16b8cac22d99fc7c124b9cd0de2d3fa1faef420bfe791d8c362d765e2270060405160405180910390a35050565b60605f61140683611bb8565b60010190505f8167ffffffffffffffff811115611425576114256125c1565b6040519080825280601f01601f19166020018201604052801561144f576020820181803683370190505b5090508181016020015b5f19017f3031323334353637383961626364656600000000000000000000000000000000600a86061a8153600a850494508461145957509392505050565b5f61156e6040518060a00160405280607f8152602001612d95607f91398051602091820120845160405191926114cd9201612c5d565b6040516020818303038152906040528051906020012084602001518560400151866060015187608001516040516020016115079190612c92565b60408051601f198184030181528282528051602091820120908301979097528101949094526001600160a01b0392831660608501529116608083015260a082015260c081019190915260e00160405160208183030381529060405280519060200120611c99565b92915050565b5f805f806115828686611cc5565b9250925092506115928282611d0e565b5090949350505050565b5f8381527f4544165ce1653264fdcb09b029891e3d4c8d8583486821172f882e19a149a805602090815260408083206001600160a01b03851684529091529020547f4544165ce1653264fdcb09b029891e3d4c8d8583486821172f882e19a149a8009060ff161561163a5760405163f9ed431f60e01b8152600481018590526001600160a01b03808516602483015283166044820152606401610528565b5f84815260068201602090815260408083206001600160a01b038616845290915290205460ff161561169957604051630be9cc5d60e21b8152600481018590526001600160a01b03808516602483015283166044820152606401610528565b50505050565b5f805f6001600160a01b0316636799ef526040518163ffffffff1660e01b8152600401602060405180830381865afa1580156116dd573d5f803e3d5ffd5b505050506040513d601f19601f820116820180604052508101906117019190612cad565b9092101592915050565b611713611dc6565b6105318282611e0f565b611725611dc6565b610ebe81611e81565b611736611dc6565b610dab611eb2565b611746611ee5565b7fcd5ed15c6e187e77e9aee88184c21f4f2182ab5827cb3b7e07fbedcd63f03300805460ff191681557f5db9ee0a495bf2e6ff9c91a7834c1ba4fdd244a5e8aa4e537bd38aeae4b073aa335b6040516001600160a01b03909116815260200160405180910390a150565b306001600160a01b037f000000000000000000000000000000000000000000000000000000000000000016148061184957507f00000000000000000000000000000000000000000000000000000000000000006001600160a01b031661183d7f360894a13ba1a3210667c828492db98dca3e2076cc3735a920a3ca505d382bbc546001600160a01b031690565b6001600160a01b031614155b15610dab5760405163703e46dd60e11b815260040160405180910390fd5b610ebe61198c565b816001600160a01b03166352d1902d6040518163ffffffff1660e01b8152600401602060405180830381865afa9250505080156118c9575060408051601f3d908101601f191682019092526118c691810190612cad565b60015b6118f157604051634c9c8ce360e01b81526001600160a01b0383166004820152602401610528565b7f360894a13ba1a3210667c828492db98dca3e2076cc3735a920a3ca505d382bbc811461193457604051632a87526960e21b815260048101829052602401610528565b61193e8383611f27565b505050565b306001600160a01b037f00000000000000000000000000000000000000000000000000000000000000001614610dab5760405163703e46dd60e11b815260040160405180910390fd5b3361199561102d565b6001600160a01b031614610dab5760405163118cdaa760e01b8152336004820152602401610528565b7f237e158222e3e6968b72b9db0d8043aacf074ad9f650f0d1606b4d82ee432c0080546001600160a01b031916815561053182611f7c565b6119fe611b75565b7fcd5ed15c6e187e77e9aee88184c21f4f2182ab5827cb3b7e07fbedcd63f03300805460ff191660011781557f62e78cea01bee320cd4e420270b5ea74000d11b0c9f74754ebdbfc544b05a25833611792565b7fa16a46d94261c7517cc8ff89f61c0ce93598e3c849801011dee649a6a557d10280546060917fa16a46d94261c7517cc8ff89f61c0ce93598e3c849801011dee649a6a557d10091611aa29061288a565b80601f0160208091040260200160405190810160405280929190818152602001828054611ace9061288a565b8015611b195780601f10611af057610100808354040283529160200191611b19565b820191905f5260205f20905b815481529060010190602001808311611afc57829003601f168201915b505050505091505090565b7fa16a46d94261c7517cc8ff89f61c0ce93598e3c849801011dee649a6a557d10380546060917fa16a46d94261c7517cc8ff89f61c0ce93598e3c849801011dee649a6a557d10091611aa29061288a565b7fcd5ed15c6e187e77e9aee88184c21f4f2182ab5827cb3b7e07fbedcd63f033005460ff1615610dab5760405163d93c066560e01b815260040160405180910390fd5b5f807a184f03e93ff9f4daa797ed6e38ed64bf6a1f0100000000000000008310611c00577a184f03e93ff9f4daa797ed6e38ed64bf6a1f010000000000000000830492506040015b6d04ee2d6d415b85acef81000000008310611c2c576d04ee2d6d415b85acef8100000000830492506020015b662386f26fc100008310611c4a57662386f26fc10000830492506010015b6305f5e1008310611c62576305f5e100830492506008015b6127108310611c7657612710830492506004015b60648310611c88576064830492506002015b600a831061156e5760010192915050565b5f61156e611ca5611fec565b8360405161190160f01b8152600281019290925260228201526042902090565b5f805f8351604103611cfc576020840151604085015160608601515f1a611cee88828585611ffa565b955095509550505050611d07565b505081515f91506002905b9250925092565b5f826003811115611d2157611d21612cc4565b03611d2a575050565b6001826003811115611d3e57611d3e612cc4565b03611d5c5760405163f645eedf60e01b815260040160405180910390fd5b6002826003811115611d7057611d70612cc4565b03611d915760405163fce698f760e01b815260048101829052602401610528565b6003826003811115611da557611da5612cc4565b03610531576040516335e2f38360e21b815260048101829052602401610528565b7ff0c57e16840df040f15088dc2f81fe391c3923bec73e23a9662efc9c229c6a0054600160401b900460ff16610dab57604051631afcd79f60e31b815260040160405180910390fd5b611e17611dc6565b7fa16a46d94261c7517cc8ff89f61c0ce93598e3c849801011dee649a6a557d1007fa16a46d94261c7517cc8ff89f61c0ce93598e3c849801011dee649a6a557d102611e638482612cd8565b5060038101611e728382612cd8565b505f8082556001909101555050565b611e89611dc6565b6001600160a01b038116610eb557604051631e4fbdf760e01b81525f6004820152602401610528565b611eba611dc6565b7fcd5ed15c6e187e77e9aee88184c21f4f2182ab5827cb3b7e07fbedcd63f03300805460ff19169055565b7fcd5ed15c6e187e77e9aee88184c21f4f2182ab5827cb3b7e07fbedcd63f033005460ff16610dab57604051638dfc202b60e01b815260040160405180910390fd5b611f30826120c2565b6040516001600160a01b038316907fbc7cd75a20ee27fd9adebab32041f755214dbc6bffa90cc0225b39da2e5c2d3b905f90a2805115611f745761193e8282612138565b6105316121aa565b7f9016d09d72d40fdae2fd8ceac6b6234c7706214fd39c1cd1e609a0528c19930080546001600160a01b031981166001600160a01b03848116918217845560405192169182907f8be0079c531659141344cd1fd0a4f28419497f9722a3daafe3b4186f6b6457e0905f90a3505050565b5f611ff56121c9565b905090565b5f80807f7fffffffffffffffffffffffffffffff5d576e7357a4501ddfe92f46681b20a084111561203357505f915060039050826120b8565b604080515f808252602082018084528a905260ff891692820192909252606081018790526080810186905260019060a0016020604051602081039080840390855afa158015612084573d5f803e3d5ffd5b5050604051601f1901519150506001600160a01b0381166120af57505f9250600191508290506120b8565b92505f91508190505b9450945094915050565b806001600160a01b03163b5f036120f757604051634c9c8ce360e01b81526001600160a01b0382166004820152602401610528565b7f360894a13ba1a3210667c828492db98dca3e2076cc3735a920a3ca505d382bbc80546001600160a01b0319166001600160a01b0392909216919091179055565b60605f80846001600160a01b0316846040516121549190612c92565b5f60405180830381855af49150503d805f811461218c576040519150601f19603f3d011682016040523d82523d5f602084013e612191565b606091505b50915091506121a185838361223c565b95945050505050565b3415610dab5760405163b398979f60e01b815260040160405180910390fd5b5f7f8b73c3c69bb8fe3d512ecc4cf759cc79239f7b179b0ffacaa9a75d522b39400f6121f361229b565b6121fb612316565b60408051602081019490945283019190915260608201524660808201523060a082015260c00160405160208183030381529060405280519060200120905090565b6060826122515761224c8261236b565b612294565b815115801561226857506001600160a01b0384163b155b1561229157604051639996b31560e01b81526001600160a01b0385166004820152602401610528565b50805b9392505050565b5f7fa16a46d94261c7517cc8ff89f61c0ce93598e3c849801011dee649a6a557d100816122c6611a51565b8051909150156122de57805160209091012092915050565b815480156122ed579392505050565b7fc5d2460186f7233c927e7db2dcc703c0e500b653ca82273b7bfad8045d85a470935050505090565b5f7fa16a46d94261c7517cc8ff89f61c0ce93598e3c849801011dee649a6a557d10081612341611b24565b80519091501561235957805160209091012092915050565b600182015480156122ed579392505050565b80511561237b5780518082602001fd5b60405163d6bda27560e01b815260040160405180910390fd5b5f5b838110156123ae578181015183820152602001612396565b50505f910152565b5f81518084526123cd816020860160208601612394565b601f01601f19169290920160200192915050565b602081525f61229460208301846123b6565b5f60208284031215612403575f80fd5b5035919050565b602080825282518282018190525f9190848201906040850190845b8181101561244a5783516001600160a01b031683529284019291840191600101612425565b50909695505050505050565b5f8083601f840112612466575f80fd5b50813567ffffffffffffffff81111561247d575f80fd5b602083019150836020828501011115612494575f80fd5b9250929050565b5f805f805f805f6080888a0312156124b1575f80fd5b87359650602088013567ffffffffffffffff808211156124cf575f80fd5b818a0191508a601f8301126124e2575f80fd5b8135818111156124f0575f80fd5b8b60208260051b8501011115612504575f80fd5b6020830198508097505060408a0135915080821115612521575f80fd5b61252d8b838c01612456565b909650945060608a0135915080821115612545575f80fd5b506125528a828b01612456565b989b979a50959850939692959293505050565b5f805f60408486031215612577575f80fd5b83359250602084013567ffffffffffffffff811115612594575f80fd5b6125a086828701612456565b9497909650939450505050565b6001600160a01b0381168114610ebe575f80fd5b634e487b7160e01b5f52604160045260245ffd5b6040516060810167ffffffffffffffff811182821017156125f8576125f86125c1565b60405290565b604051601f8201601f1916810167ffffffffffffffff81118282101715612627576126276125c1565b604052919050565b5f67ffffffffffffffff821115612648576126486125c1565b50601f01601f191660200190565b5f8060408385031215612667575f80fd5b8235612672816125ad565b9150602083013567ffffffffffffffff81111561268d575f80fd5b8301601f8101851361269d575f80fd5b80356126b06126ab8261262f565b6125fe565b8181528660208385010111156126c4575f80fd5b816020840160208301375f602083830101528093505050509250929050565b60ff60f81b881681525f602060e0602084015261270360e084018a6123b6565b8381036040850152612715818a6123b6565b606085018990526001600160a01b038816608086015260a0850187905284810360c0860152855180825260208088019350909101905f5b818110156127685783518352928401929184019160010161274c565b50909c9b505050505050505050505050565b5f805f805f805f60a0888a031215612790575f80fd5b8735965060208801356127a2816125ad565b955060408801356127b2816125ad565b9450606088013567ffffffffffffffff808211156127ce575f80fd5b6127da8b838c01612456565b909650945060808a0135915080821115612545575f80fd5b5f60208284031215612802575f80fd5b8135612294816125ad565b5f855161281e818460208a01612394565b61103b60f11b908301908152855161283d816002840160208a01612394565b808201915050601760f91b8060028301528551612861816003850160208a01612394565b6003920191820152835161287c816004840160208801612394565b016004019695505050505050565b600181811c9082168061289e57607f821691505b6020821081036128bc57634e487b7160e01b5f52602260045260245ffd5b50919050565b601f82111561193e57805f5260205f20601f840160051c810160208510156128e75750805b601f840160051c820191505b81811015612906575f81556001016128f3565b5050505050565b67ffffffffffffffff831115612925576129256125c1565b61293983612933835461288a565b836128c2565b5f601f84116001811461296a575f85156129535750838201355b5f19600387901b1c1916600186901b178355612906565b5f83815260208120601f198716915b828110156129995786850135825560209485019460019092019101612979565b50868210156129b5575f1960f88860031b161c19848701351681555b505060018560011b0183555050505050565b604081528260408201525f7f07ffffffffffffffffffffffffffffffffffffffffffffffffffffffffffffff8411156129fe575f80fd5b60058460051b8087606086013780840190506060810160206060868403018187015281875480845260808501915060808160051b8601019350885f52825f205f5b82811015612ad257607f198787030184525f8254612a5c8161288a565b80895260018281168015612a775760018114612a9057612abb565b60ff1984168b8b01528215158d1b8b018a019450612abb565b865f52895f205f5b84811015612ab35781548d82018d0152908301908b01612a98565b8c018b019550505b509298505050938501939190910190600101612a3f565b50939b9a5050505050505050505050565b5f6020808385031215612af4575f80fd5b825167ffffffffffffffff80821115612b0b575f80fd5b9084019060608287031215612b1e575f80fd5b612b266125d5565b8251612b31816125ad565b815282840151612b40816125ad565b81850152604083015182811115612b55575f80fd5b80840193505086601f840112612b69575f80fd5b82519150612b796126ab8361262f565b8281528785848601011115612b8c575f80fd5b612b9b83868301878701612394565b60408201529695505050505050565b5f60018201612bc757634e487b7160e01b5f52601160045260245ffd5b5060010190565b5f60208284031215612bde575f80fd5b8151612294816125ad565b81835281816020850137505f828201602090810191909152601f909101601f19169091010190565b5f6001600160a01b03808916835280881660208401525060806040830152612c3d608083018688612be9565b8281036060840152612c50818587612be9565b9998505050505050505050565b81515f9082906020808601845b83811015612c8657815185529382019390820190600101612c6a565b50929695505050505050565b5f8251612ca3818460208701612394565b9190910192915050565b5f60208284031215612cbd575f80fd5b5051919050565b634e487b7160e01b5f52602160045260245ffd5b815167ffffffffffffffff811115612cf257612cf26125c1565b612d0681612d00845461288a565b846128c2565b602080601f831160018114612d39575f8415612d225750858301515b5f19600386901b1c1916600185901b178555610bb4565b5f85815260208120601f198616915b82811015612d6757888601518255948401946001909101908401612d48565b5085821015612d8457878501515f19600388901b60f8161c191681555b5050505050600190811b0190555056fe43697068657274657874566572696669636174696f6e28627974657333325b5d20637448616e646c65732c616464726573732075736572416464726573732c6164647265737320636f6e7472616374416464726573732c75696e7432353620636f6e7472616374436861696e49642c62797465732065787472614461746129a164736f6c6343000818000a",
  "linkReferences": {},
  "deployedLinkReferences": {}
}