{
  "_format": "hh-sol-artifact-1",
  "contractName": "UserDecrypt",
  "sourceName": "contracts/UserDecrypt.sol",
  "abi": [
    {
      "inputs": [],
      "stateMutability": "nonpayable",
      "type": "constructor"
    },
    {
      "inputs": [],
      "name": "xAddress",
      "outputs": [
        {
          "internalType": "eaddress",
          "name": "",
          "type": "bytes32"
        }
      ],
      "stateMutability": "view",
      "type": "function"
    },
    {
      "inputs": [],
      "name": "xBool",
      "outputs": [
        {
          "internalType": "ebool",
          "name": "",
          "type": "bytes32"
        }
      ],
      "stateMutability": "view",
      "type": "function"
    },
    {
      "inputs": [],
      "name": "xUint128",
      "outputs": [
        {
          "internalType": "euint128",
          "name": "",
          "type": "bytes32"
        }
      ],
      "stateMutability": "view",
      "type": "function"
    },
    {
      "inputs": [],
      "name": "xUint16",
      "outputs": [
        {
          "internalType": "euint16",
          "name": "",
          "type": "bytes32"
        }
      ],
      "stateMutability": "view",
      "type": "function"
    },
    {
      "inputs": [],
      "name": "xUint256",
      "outputs": [
        {
          "internalType": "euint256",
          "name": "",
          "type": "bytes32"
        }
      ],
      "stateMutability": "view",
      "type": "function"
    },
    {
      "inputs": [],
      "name": "xUint32",
      "outputs": [
        {
          "internalType": "euint32",
          "name": "",
          "type": "bytes32"
        }
      ],
      "stateMutability": "view",
      "type": "function"
    },
    {
      "inputs": [],
      "name": "xUint64",
      "outputs": [
        {
          "internalType": "euint64",
          "name": "",
          "type": "bytes32"
        }
      ],
      "stateMutability": "view",
      "type": "function"
    },
    {
      "inputs": [],
      "name": "xUint8",
      "outputs": [
        {
          "internalType": "euint8",
          "name": "",
          "type": "bytes32"
        }
      ],
      "stateMutability": "view",
      "type": "function"
    }
  ],
  "bytecode": "0x60806040523480156200001157600080fd5b5062000032620000266200028860201b60201c565b6200033060201b60201c565b6200004460016200034460201b60201c565b6000819055506200005d6000546200037360201b60201c565b506200007260005433620003ba60201b60201c565b5062000085602a6200040260201b60201c565b6001819055506200009e6001546200042160201b60201c565b50620000b3600154336200046860201b60201c565b50620000c66010620004b060201b60201c565b600281905550620000df600254620004d060201b60201c565b50620000f4600254336200051760201b60201c565b506200010760206200055f60201b60201c565b600381905550620001206003546200058160201b60201c565b506200013560035433620005c860201b60201c565b506200014f67fffffffffffffff06200061060201b60201c565b600481905550620001686004546200063660201b60201c565b506200017d600454336200067d60201b60201c565b506200019f6f6d4b2086ba8e3d2104fbf4a8dfe9679d620006c560201b60201c565b600581905550620001b8600554620006f360201b60201c565b50620001cd600554336200073a60201b60201c565b50620001f3738ba1f109551bd432803012645ac136ddd64dba726200078260201b60201c565b6006819055506200020c600654620007b460201b60201c565b506200022160065433620007fb60201b60201c565b50620002537fa43c19c9c19fe2135e77133e55174fcb100521116fcad4e3a2e977a66c41ff116200084360201b60201c565b6007819055506200026c6007546200085f60201b60201c565b506200028160075433620008a660201b60201c565b5062000e16565b6200029262000bf6565b60405180606001604052807350157cffd6bbfa2dece204a89ec419c23ef5755d73ffffffffffffffffffffffffffffffffffffffff16815260200173e3a9105a3a932253a70f126eb1e3b589c643dd2473ffffffffffffffffffffffffffffffffffffffff16815260200173901f8942346f7ab3a01f6d7613119bca447bb03073ffffffffffffffffffffffffffffffffffffffff16815250905090565b6200034181620008ee60201b60201c565b50565b60006200036c82620003585760006200035b565b60015b60ff166000620009db60201b60201c565b9050919050565b6000620003868262000aa060201b60201c565b620003a0576200039d60006200034460201b60201c565b91505b620003b2823062000ab060201b60201c565b819050919050565b6000620003cd8362000aa060201b60201c565b620003e757620003e460006200034460201b60201c565b92505b620003f9838362000ab060201b60201c565b82905092915050565b60006200041a8260ff166002620009db60201b60201c565b9050919050565b6000620004348262000b5e60201b60201c565b6200044e576200044b60006200040260201b60201c565b91505b62000460823062000ab060201b60201c565b819050919050565b60006200047b8362000b5e60201b60201c565b62000495576200049260006200040260201b60201c565b92505b620004a7838362000ab060201b60201c565b82905092915050565b6000620004c98261ffff166003620009db60201b60201c565b9050919050565b6000620004e38262000b6e60201b60201c565b620004fd57620004fa6000620004b060201b60201c565b91505b6200050f823062000ab060201b60201c565b819050919050565b60006200052a8362000b6e60201b60201c565b6200054457620005416000620004b060201b60201c565b92505b62000556838362000ab060201b60201c565b82905092915050565b60006200057a8263ffffffff166004620009db60201b60201c565b9050919050565b6000620005948262000b7e60201b60201c565b620005ae57620005ab60006200055f60201b60201c565b91505b620005c0823062000ab060201b60201c565b819050919050565b6000620005db8362000b7e60201b60201c565b620005f557620005f260006200055f60201b60201c565b92505b62000607838362000ab060201b60201c565b82905092915050565b60006200062f8267ffffffffffffffff166005620009db60201b60201c565b9050919050565b6000620006498262000b8e60201b60201c565b62000663576200066060006200061060201b60201c565b91505b62000675823062000ab060201b60201c565b819050919050565b6000620006908362000b8e60201b60201c565b620006aa57620006a760006200061060201b60201c565b92505b620006bc838362000ab060201b60201c565b82905092915050565b6000620006ec826fffffffffffffffffffffffffffffffff166006620009db60201b60201c565b9050919050565b6000620007068262000b9e60201b60201c565b62000720576200071d6000620006c560201b60201c565b91505b62000732823062000ab060201b60201c565b819050919050565b60006200074d8362000b9e60201b60201c565b6200076757620007646000620006c560201b60201c565b92505b62000779838362000ab060201b60201c565b82905092915050565b6000620007ad8273ffffffffffffffffffffffffffffffffffffffff166007620009db60201b60201c565b9050919050565b6000620007c78262000bae60201b60201c565b620007e157620007de60006200078260201b60201c565b91505b620007f3823062000ab060201b60201c565b819050919050565b60006200080e8362000bae60201b60201c565b62000828576200082560006200078260201b60201c565b92505b6200083a838362000ab060201b60201c565b82905092915050565b600062000858826008620009db60201b60201c565b9050919050565b6000620008728262000bbe60201b60201c565b6200088c576200088960006200084360201b60201c565b91505b6200089e823062000ab060201b60201c565b819050919050565b6000620008b98362000bbe60201b60201c565b620008d357620008d060006200084360201b60201c565b92505b620008e5838362000ab060201b60201c565b82905092915050565b60006200090062000bce60201b60201c565b905081600001518160000160006101000a81548173ffffffffffffffffffffffffffffffffffffffff021916908373ffffffffffffffffffffffffffffffffffffffff16021790555081602001518160010160006101000a81548173ffffffffffffffffffffffffffffffffffffffff021916908373ffffffffffffffffffffffffffffffffffffffff16021790555081604001518160020160006101000a81548173ffffffffffffffffffffffffffffffffffffffff021916908373ffffffffffffffffffffffffffffffffffffffff1602179055505050565b600080620009ee62000bce60201b60201c565b90508060010160009054906101000a900473ffffffffffffffffffffffffffffffffffffffff1673ffffffffffffffffffffffffffffffffffffffff16639cd07acb85856040518363ffffffff1660e01b815260040162000a5192919062000cf4565b6020604051808303816000875af115801562000a71573d6000803e3d6000fd5b505050506040513d601f19601f8201168201806040525081019062000a97919062000d61565b91505092915050565b60008060001b8214159050919050565b600062000ac262000bce60201b60201c565b90508060000160009054906101000a900473ffffffffffffffffffffffffffffffffffffffff1673ffffffffffffffffffffffffffffffffffffffff1663b9496b6284846040518363ffffffff1660e01b815260040162000b2592919062000de9565b600060405180830381600087803b15801562000b4057600080fd5b505af115801562000b55573d6000803e3d6000fd5b50505050505050565b60008060001b8214159050919050565b60008060001b8214159050919050565b60008060001b8214159050919050565b60008060001b8214159050919050565b60008060001b8214159050919050565b60008060001b8214159050919050565b60008060001b8214159050919050565b60007f9e7b61f58c47dc699ac88507c4f5bb9f121c03808c5676a8078fe583e4649700905090565b6040518060600160405280600073ffffffffffffffffffffffffffffffffffffffff168152602001600073ffffffffffffffffffffffffffffffffffffffff168152602001600073ffffffffffffffffffffffffffffffffffffffff1681525090565b6000819050919050565b62000c6e8162000c59565b82525050565b7f4e487b7100000000000000000000000000000000000000000000000000000000600052602160045260246000fd5b6054811062000cb75762000cb662000c74565b5b50565b600081905062000cca8262000ca3565b919050565b600062000cdc8262000cba565b9050919050565b62000cee8162000ccf565b82525050565b600060408201905062000d0b600083018562000c63565b62000d1a602083018462000ce3565b9392505050565b600080fd5b6000819050919050565b62000d3b8162000d26565b811462000d4757600080fd5b50565b60008151905062000d5b8162000d30565b92915050565b60006020828403121562000d7a5762000d7962000d21565b5b600062000d8a8482850162000d4a565b91505092915050565b62000d9e8162000d26565b82525050565b600073ffffffffffffffffffffffffffffffffffffffff82169050919050565b600062000dd18262000da4565b9050919050565b62000de38162000dc4565b82525050565b600060408201905062000e00600083018562000d93565b62000e0f602083018462000dd8565b9392505050565b61034f8062000e266000396000f3fe608060405234801561001057600080fd5b50600436106100885760003560e01c80638e5bbd961161005b5780638e5bbd9614610105578063939836cd14610123578063b7e7eb7714610141578063ce12cc831461015f57610088565b806326c3e4871461008d578063378ccfd0146100ab5780636319a601146100c95780637b30c9e5146100e7575b600080fd5b61009561017d565b6040516100a291906101d8565b60405180910390f35b6100b3610183565b6040516100c09190610202565b60405180910390f35b6100d1610189565b6040516100de919061022c565b60405180910390f35b6100ef61018f565b6040516100fc9190610256565b60405180910390f35b61010d610195565b60405161011a9190610280565b60405180910390f35b61012b61019b565b60405161013891906102aa565b60405180910390f35b6101496101a1565b60405161015691906102d4565b60405180910390f35b6101676101a7565b60405161017491906102fe565b60405180910390f35b60075481565b60045481565b60035481565b60055481565b60005481565b60015481565b60065481565b60025481565b6000819050919050565b60006101c2826101ad565b9050919050565b6101d2816101b7565b82525050565b60006020820190506101ed60008301846101c9565b92915050565b6101fc816101b7565b82525050565b600060208201905061021760008301846101f3565b92915050565b610226816101b7565b82525050565b6000602082019050610241600083018461021d565b92915050565b610250816101b7565b82525050565b600060208201905061026b6000830184610247565b92915050565b61027a816101b7565b82525050565b60006020820190506102956000830184610271565b92915050565b6102a4816101b7565b82525050565b60006020820190506102bf600083018461029b565b92915050565b6102ce816101b7565b82525050565b60006020820190506102e960008301846102c5565b92915050565b6102f8816101b7565b82525050565b600060208201905061031360008301846102ef565b9291505056fea2646970667358221220327cfde20ffe248caf55ec1b31584a3e58b354f31cfb52b5797ff364e5e6508c64736f6c63430008180033",
  "linkReferences": {},
  "deployedLinkReferences": {}
}