{
  "address": "0x94b220F837dBe8c99E51C6283141050911Cb4e97",
  "abi": [
    {
      "inputs": [
        {
          "internalType": "string",
          "name": "name",
          "type": "string"
        },
        {
          "internalType": "string",
          "name": "symbol",
          "type": "string"
        },
        {
          "internalType": "address",
          "name": "initialSupplyReceiver",
          "type": "address"
        },
        {
          "internalType": "address",
          "name": "initialAdmin",
          "type": "address"
        }
      ],
      "stateMutability": "nonpayable",
      "type": "constructor"
    },
    {
      "inputs": [],
      "name": "AccessControlBadConfirmation",
      "type": "error"
    },
    {
      "inputs": [
        {
          "internalType": "address",
          "name": "account",
          "type": "address"
        },
        {
          "internalType": "bytes32",
          "name": "neededRole",
          "type": "bytes32"
        }
      ],
      "name": "AccessControlUnauthorizedAccount",
      "type": "error"
    },
    {
      "inputs": [],
      "name": "ECDSAInvalidSignature",
      "type": "error"
    },
    {
      "inputs": [
        {
          "internalType": "uint256",
          "name": "length",
          "type": "uint256"
        }
      ],
      "name": "ECDSAInvalidSignatureLength",
      "type": "error"
    },
    {
      "inputs": [
        {
          "internalType": "bytes32",
          "name": "s",
          "type": "bytes32"
        }
      ],
      "name": "ECDSAInvalidSignatureS",
      "type": "error"
    },
    {
      "inputs": [
        {
          "internalType": "address",
          "name": "spender",
          "type": "address"
        },
        {
          "internalType": "uint256",
          "name": "value",
          "type": "uint256"
        }
      ],
      "name": "ERC1363ApproveFailed",
      "type": "error"
    },
    {
      "inputs": [
        {
          "internalType": "address",
          "name": "receiver",
          "type": "address"
        }
      ],
      "name": "ERC1363InvalidReceiver",
      "type": "error"
    },
    {
      "inputs": [
        {
          "internalType": "address",
          "name": "spender",
          "type": "address"
        }
      ],
      "name": "ERC1363InvalidSpender",
      "type": "error"
    },
    {
      "inputs": [
        {
          "internalType": "address",
          "name": "receiver",
          "type": "address"
        },
        {
          "internalType": "uint256",
          "name": "value",
          "type": "uint256"
        }
      ],
      "name": "ERC1363TransferFailed",
      "type": "error"
    },
    {
      "inputs": [
        {
          "internalType": "address",
          "name": "sender",
          "type": "address"
        },
        {
          "internalType": "address",
          "name": "receiver",
          "type": "address"
        },
        {
          "internalType": "uint256",
          "name": "value",
          "type": "uint256"
        }
      ],
      "name": "ERC1363TransferFromFailed",
      "type": "error"
    },
    {
      "inputs": [
        {
          "internalType": "address",
          "name": "spender",
          "type": "address"
        },
        {
          "internalType": "uint256",
          "name": "allowance",
          "type": "uint256"
        },
        {
          "internalType": "uint256",
          "name": "needed",
          "type": "uint256"
        }
      ],
      "name": "ERC20InsufficientAllowance",
      "type": "error"
    },
    {
      "inputs": [
        {
          "internalType": "address",
          "name": "sender",
          "type": "address"
        },
        {
          "internalType": "uint256",
          "name": "balance",
          "type": "uint256"
        },
        {
          "internalType": "uint256",
          "name": "needed",
          "type": "uint256"
        }
      ],
      "name": "ERC20InsufficientBalance",
      "type": "error"
    },
    {
      "inputs": [
        {
          "internalType": "address",
          "name": "approver",
          "type": "address"
        }
      ],
      "name": "ERC20InvalidApprover",
      "type": "error"
    },
    {
      "inputs": [
        {
          "internalType": "address",
          "name": "receiver",
          "type": "address"
        }
      ],
      "name": "ERC20InvalidReceiver",
      "type": "error"
    },
    {
      "inputs": [
        {
          "internalType": "address",
          "name": "sender",
          "type": "address"
        }
      ],
      "name": "ERC20InvalidSender",
      "type": "error"
    },
    {
      "inputs": [
        {
          "internalType": "address",
          "name": "spender",
          "type": "address"
        }
      ],
      "name": "ERC20InvalidSpender",
      "type": "error"
    },
    {
      "inputs": [
        {
          "internalType": "uint256",
          "name": "deadline",
          "type": "uint256"
        }
      ],
      "name": "ERC2612ExpiredSignature",
      "type": "error"
    },
    {
      "inputs": [
        {
          "internalType": "address",
          "name": "signer",
          "type": "address"
        },
        {
          "internalType": "address",
          "name": "owner",
          "type": "address"
        }
      ],
      "name": "ERC2612InvalidSigner",
      "type": "error"
    },
    {
      "inputs": [],
      "name": "EnforcedPause",
      "type": "error"
    },
    {
      "inputs": [],
      "name": "ExpectedPause",
      "type": "error"
    },
    {
      "inputs": [],
      "name": "FailedToSendEther",
      "type": "error"
    },
    {
      "inputs": [
        {
          "internalType": "address",
          "name": "account",
          "type": "address"
        },
        {
          "internalType": "uint256",
          "name": "currentNonce",
          "type": "uint256"
        }
      ],
      "name": "InvalidAccountNonce",
      "type": "error"
    },
    {
      "inputs": [],
      "name": "InvalidShortString",
      "type": "error"
    },
    {
      "inputs": [
        {
          "internalType": "address",
          "name": "token",
          "type": "address"
        }
      ],
      "name": "SafeERC20FailedOperation",
      "type": "error"
    },
    {
      "inputs": [
        {
          "internalType": "string",
          "name": "str",
          "type": "string"
        }
      ],
      "name": "StringTooLong",
      "type": "error"
    },
    {
      "anonymous": false,
      "inputs": [
        {
          "indexed": true,
          "internalType": "address",
          "name": "owner",
          "type": "address"
        },
        {
          "indexed": true,
          "internalType": "address",
          "name": "spender",
          "type": "address"
        },
        {
          "indexed": false,
          "internalType": "uint256",
          "name": "value",
          "type": "uint256"
        }
      ],
      "name": "Approval",
      "type": "event"
    },
    {
      "anonymous": false,
      "inputs": [],
      "name": "EIP712DomainChanged",
      "type": "event"
    },
    {
      "anonymous": false,
      "inputs": [
        {
          "indexed": true,
          "internalType": "address",
          "name": "token",
          "type": "address"
        },
        {
          "indexed": false,
          "internalType": "uint256",
          "name": "tokenId",
          "type": "uint256"
        },
        {
          "indexed": true,
          "internalType": "address",
          "name": "recipient",
          "type": "address"
        },
        {
          "indexed": false,
          "internalType": "uint256",
          "name": "amount",
          "type": "uint256"
        }
      ],
      "name": "ERC1155Recovered",
      "type": "event"
    },
    {
      "anonymous": false,
      "inputs": [
        {
          "indexed": true,
          "internalType": "address",
          "name": "token",
          "type": "address"
        },
        {
          "indexed": true,
          "internalType": "address",
          "name": "recipient",
          "type": "address"
        },
        {
          "indexed": false,
          "internalType": "uint256",
          "name": "amount",
          "type": "uint256"
        }
      ],
      "name": "ERC20Recovered",
      "type": "event"
    },
    {
      "anonymous": false,
      "inputs": [
        {
          "indexed": true,
          "internalType": "address",
          "name": "token",
          "type": "address"
        },
        {
          "indexed": false,
          "internalType": "uint256",
          "name": "tokenId",
          "type": "uint256"
        },
        {
          "indexed": true,
          "internalType": "address",
          "name": "recipient",
          "type": "address"
        }
      ],
      "name": "ERC721Recovered",
      "type": "event"
    },
    {
      "anonymous": false,
      "inputs": [
        {
          "indexed": true,
          "internalType": "address",
          "name": "recipient",
          "type": "address"
        },
        {
          "indexed": false,
          "internalType": "uint256",
          "name": "amount",
          "type": "uint256"
        }
      ],
      "name": "EtherRecovered",
      "type": "event"
    },
    {
      "anonymous": false,
      "inputs": [
        {
          "indexed": false,
          "internalType": "address",
          "name": "account",
          "type": "address"
        }
      ],
      "name": "Paused",
      "type": "event"
    },
    {
      "anonymous": false,
      "inputs": [
        {
          "indexed": true,
          "internalType": "bytes32",
          "name": "role",
          "type": "bytes32"
        },
        {
          "indexed": true,
          "internalType": "bytes32",
          "name": "previousAdminRole",
          "type": "bytes32"
        },
        {
          "indexed": true,
          "internalType": "bytes32",
          "name": "newAdminRole",
          "type": "bytes32"
        }
      ],
      "name": "RoleAdminChanged",
      "type": "event"
    },
    {
      "anonymous": false,
      "inputs": [
        {
          "indexed": true,
          "internalType": "bytes32",
          "name": "role",
          "type": "bytes32"
        },
        {
          "indexed": true,
          "internalType": "address",
          "name": "account",
          "type": "address"
        },
        {
          "indexed": true,
          "internalType": "address",
          "name": "sender",
          "type": "address"
        }
      ],
      "name": "RoleGranted",
      "type": "event"
    },
    {
      "anonymous": false,
      "inputs": [
        {
          "indexed": true,
          "internalType": "bytes32",
          "name": "role",
          "type": "bytes32"
        },
        {
          "indexed": true,
          "internalType": "address",
          "name": "account",
          "type": "address"
        },
        {
          "indexed": true,
          "internalType": "address",
          "name": "sender",
          "type": "address"
        }
      ],
      "name": "RoleRevoked",
      "type": "event"
    },
    {
      "anonymous": false,
      "inputs": [
        {
          "indexed": true,
          "internalType": "address",
          "name": "from",
          "type": "address"
        },
        {
          "indexed": true,
          "internalType": "address",
          "name": "to",
          "type": "address"
        },
        {
          "indexed": false,
          "internalType": "uint256",
          "name": "value",
          "type": "uint256"
        }
      ],
      "name": "Transfer",
      "type": "event"
    },
    {
      "anonymous": false,
      "inputs": [
        {
          "indexed": false,
          "internalType": "address",
          "name": "account",
          "type": "address"
        }
      ],
      "name": "Unpaused",
      "type": "event"
    },
    {
      "inputs": [],
      "name": "DEFAULT_ADMIN_ROLE",
      "outputs": [
        {
          "internalType": "bytes32",
          "name": "",
          "type": "bytes32"
        }
      ],
      "stateMutability": "view",
      "type": "function"
    },
    {
      "inputs": [],
      "name": "DOMAIN_SEPARATOR",
      "outputs": [
        {
          "internalType": "bytes32",
          "name": "",
          "type": "bytes32"
        }
      ],
      "stateMutability": "view",
      "type": "function"
    },
    {
      "inputs": [],
      "name": "MINTER_ROLE",
      "outputs": [
        {
          "internalType": "bytes32",
          "name": "",
          "type": "bytes32"
        }
      ],
      "stateMutability": "view",
      "type": "function"
    },
    {
      "inputs": [],
      "name": "MINTING_PAUSER_ROLE",
      "outputs": [
        {
          "internalType": "bytes32",
          "name": "",
          "type": "bytes32"
        }
      ],
      "stateMutability": "view",
      "type": "function"
    },
    {
      "inputs": [
        {
          "internalType": "address",
          "name": "owner",
          "type": "address"
        },
        {
          "internalType": "address",
          "name": "spender",
          "type": "address"
        }
      ],
      "name": "allowance",
      "outputs": [
        {
          "internalType": "uint256",
          "name": "",
          "type": "uint256"
        }
      ],
      "stateMutability": "view",
      "type": "function"
    },
    {
      "inputs": [
        {
          "internalType": "address",
          "name": "spender",
          "type": "address"
        },
        {
          "internalType": "uint256",
          "name": "value",
          "type": "uint256"
        }
      ],
      "name": "approve",
      "outputs": [
        {
          "internalType": "bool",
          "name": "",
          "type": "bool"
        }
      ],
      "stateMutability": "nonpayable",
      "type": "function"
    },
    {
      "inputs": [
        {
          "internalType": "address",
          "name": "spender",
          "type": "address"
        },
        {
          "internalType": "uint256",
          "name": "value",
          "type": "uint256"
        }
      ],
      "name": "approveAndCall",
      "outputs": [
        {
          "internalType": "bool",
          "name": "",
          "type": "bool"
        }
      ],
      "stateMutability": "nonpayable",
      "type": "function"
    },
    {
      "inputs": [
        {
          "internalType": "address",
          "name": "spender",
          "type": "address"
        },
        {
          "internalType": "uint256",
          "name": "value",
          "type": "uint256"
        },
        {
          "internalType": "bytes",
          "name": "data",
          "type": "bytes"
        }
      ],
      "name": "approveAndCall",
      "outputs": [
        {
          "internalType": "bool",
          "name": "",
          "type": "bool"
        }
      ],
      "stateMutability": "nonpayable",
      "type": "function"
    },
    {
      "inputs": [
        {
          "internalType": "address",
          "name": "account",
          "type": "address"
        }
      ],
      "name": "balanceOf",
      "outputs": [
        {
          "internalType": "uint256",
          "name": "",
          "type": "uint256"
        }
      ],
      "stateMutability": "view",
      "type": "function"
    },
    {
      "inputs": [
        {
          "internalType": "uint256",
          "name": "value",
          "type": "uint256"
        }
      ],
      "name": "burn",
      "outputs": [],
      "stateMutability": "nonpayable",
      "type": "function"
    },
    {
      "inputs": [
        {
          "internalType": "address",
          "name": "account",
          "type": "address"
        },
        {
          "internalType": "uint256",
          "name": "value",
          "type": "uint256"
        }
      ],
      "name": "burnFrom",
      "outputs": [],
      "stateMutability": "nonpayable",
      "type": "function"
    },
    {
      "inputs": [],
      "name": "decimals",
      "outputs": [
        {
          "internalType": "uint8",
          "name": "",
          "type": "uint8"
        }
      ],
      "stateMutability": "view",
      "type": "function"
    },
    {
      "inputs": [],
      "name": "eip712Domain",
      "outputs": [
        {
          "internalType": "bytes1",
          "name": "fields",
          "type": "bytes1"
        },
        {
          "internalType": "string",
          "name": "name",
          "type": "string"
        },
        {
          "internalType": "string",
          "name": "version",
          "type": "string"
        },
        {
          "internalType": "uint256",
          "name": "chainId",
          "type": "uint256"
        },
        {
          "internalType": "address",
          "name": "verifyingContract",
          "type": "address"
        },
        {
          "internalType": "bytes32",
          "name": "salt",
          "type": "bytes32"
        },
        {
          "internalType": "uint256[]",
          "name": "extensions",
          "type": "uint256[]"
        }
      ],
      "stateMutability": "view",
      "type": "function"
    },
    {
      "inputs": [
        {
          "internalType": "bytes32",
          "name": "role",
          "type": "bytes32"
        }
      ],
      "name": "getRoleAdmin",
      "outputs": [
        {
          "internalType": "bytes32",
          "name": "",
          "type": "bytes32"
        }
      ],
      "stateMutability": "view",
      "type": "function"
    },
    {
      "inputs": [
        {
          "internalType": "bytes32",
          "name": "role",
          "type": "bytes32"
        },
        {
          "internalType": "address",
          "name": "account",
          "type": "address"
        }
      ],
      "name": "grantRole",
      "outputs": [],
      "stateMutability": "nonpayable",
      "type": "function"
    },
    {
      "inputs": [
        {
          "internalType": "bytes32",
          "name": "role",
          "type": "bytes32"
        },
        {
          "internalType": "address",
          "name": "account",
          "type": "address"
        }
      ],
      "name": "hasRole",
      "outputs": [
        {
          "internalType": "bool",
          "name": "",
          "type": "bool"
        }
      ],
      "stateMutability": "view",
      "type": "function"
    },
    {
      "inputs": [
        {
          "internalType": "address",
          "name": "to",
          "type": "address"
        },
        {
          "internalType": "uint256",
          "name": "amount",
          "type": "uint256"
        }
      ],
      "name": "mint",
      "outputs": [],
      "stateMutability": "nonpayable",
      "type": "function"
    },
    {
      "inputs": [],
      "name": "name",
      "outputs": [
        {
          "internalType": "string",
          "name": "",
          "type": "string"
        }
      ],
      "stateMutability": "view",
      "type": "function"
    },
    {
      "inputs": [
        {
          "internalType": "address",
          "name": "owner",
          "type": "address"
        }
      ],
      "name": "nonces",
      "outputs": [
        {
          "internalType": "uint256",
          "name": "",
          "type": "uint256"
        }
      ],
      "stateMutability": "view",
      "type": "function"
    },
    {
      "inputs": [],
      "name": "pauseMinting",
      "outputs": [],
      "stateMutability": "nonpayable",
      "type": "function"
    },
    {
      "inputs": [],
      "name": "paused",
      "outputs": [
        {
          "internalType": "bool",
          "name": "",
          "type": "bool"
        }
      ],
      "stateMutability": "view",
      "type": "function"
    },
    {
      "inputs": [
        {
          "internalType": "address",
          "name": "owner",
          "type": "address"
        },
        {
          "internalType": "address",
          "name": "spender",
          "type": "address"
        },
        {
          "internalType": "uint256",
          "name": "value",
          "type": "uint256"
        },
        {
          "internalType": "uint256",
          "name": "deadline",
          "type": "uint256"
        },
        {
          "internalType": "uint8",
          "name": "v",
          "type": "uint8"
        },
        {
          "internalType": "bytes32",
          "name": "r",
          "type": "bytes32"
        },
        {
          "internalType": "bytes32",
          "name": "s",
          "type": "bytes32"
        }
      ],
      "name": "permit",
      "outputs": [],
      "stateMutability": "nonpayable",
      "type": "function"
    },
    {
      "inputs": [
        {
          "internalType": "address",
          "name": "token",
          "type": "address"
        },
        {
          "internalType": "uint256",
          "name": "tokenId",
          "type": "uint256"
        },
        {
          "internalType": "address",
          "name": "recepient",
          "type": "address"
        }
      ],
      "name": "recoverERC1155",
      "outputs": [],
      "stateMutability": "nonpayable",
      "type": "function"
    },
    {
      "inputs": [
        {
          "internalType": "address",
          "name": "token",
          "type": "address"
        },
        {
          "internalType": "uint256",
          "name": "amount",
          "type": "uint256"
        },
        {
          "internalType": "address",
          "name": "recepient",
          "type": "address"
        }
      ],
      "name": "recoverERC20",
      "outputs": [],
      "stateMutability": "nonpayable",
      "type": "function"
    },
    {
      "inputs": [
        {
          "internalType": "address",
          "name": "token",
          "type": "address"
        },
        {
          "internalType": "uint256",
          "name": "tokenId",
          "type": "uint256"
        },
        {
          "internalType": "address",
          "name": "recepient",
          "type": "address"
        }
      ],
      "name": "recoverERC721",
      "outputs": [],
      "stateMutability": "nonpayable",
      "type": "function"
    },
    {
      "inputs": [
        {
          "internalType": "uint256",
          "name": "amount",
          "type": "uint256"
        },
        {
          "internalType": "address",
          "name": "recepient",
          "type": "address"
        }
      ],
      "name": "recoverEther",
      "outputs": [],
      "stateMutability": "nonpayable",
      "type": "function"
    },
    {
      "inputs": [
        {
          "internalType": "bytes32",
          "name": "role",
          "type": "bytes32"
        },
        {
          "internalType": "address",
          "name": "callerConfirmation",
          "type": "address"
        }
      ],
      "name": "renounceRole",
      "outputs": [],
      "stateMutability": "nonpayable",
      "type": "function"
    },
    {
      "inputs": [
        {
          "internalType": "bytes32",
          "name": "role",
          "type": "bytes32"
        },
        {
          "internalType": "address",
          "name": "account",
          "type": "address"
        }
      ],
      "name": "revokeRole",
      "outputs": [],
      "stateMutability": "nonpayable",
      "type": "function"
    },
    {
      "inputs": [
        {
          "internalType": "bytes4",
          "name": "interfaceId",
          "type": "bytes4"
        }
      ],
      "name": "supportsInterface",
      "outputs": [
        {
          "internalType": "bool",
          "name": "",
          "type": "bool"
        }
      ],
      "stateMutability": "view",
      "type": "function"
    },
    {
      "inputs": [],
      "name": "symbol",
      "outputs": [
        {
          "internalType": "string",
          "name": "",
          "type": "string"
        }
      ],
      "stateMutability": "view",
      "type": "function"
    },
    {
      "inputs": [],
      "name": "totalSupply",
      "outputs": [
        {
          "internalType": "uint256",
          "name": "",
          "type": "uint256"
        }
      ],
      "stateMutability": "view",
      "type": "function"
    },
    {
      "inputs": [
        {
          "internalType": "address",
          "name": "to",
          "type": "address"
        },
        {
          "internalType": "uint256",
          "name": "value",
          "type": "uint256"
        }
      ],
      "name": "transfer",
      "outputs": [
        {
          "internalType": "bool",
          "name": "",
          "type": "bool"
        }
      ],
      "stateMutability": "nonpayable",
      "type": "function"
    },
    {
      "inputs": [
        {
          "internalType": "address",
          "name": "to",
          "type": "address"
        },
        {
          "internalType": "uint256",
          "name": "value",
          "type": "uint256"
        }
      ],
      "name": "transferAndCall",
      "outputs": [
        {
          "internalType": "bool",
          "name": "",
          "type": "bool"
        }
      ],
      "stateMutability": "nonpayable",
      "type": "function"
    },
    {
      "inputs": [
        {
          "internalType": "address",
          "name": "to",
          "type": "address"
        },
        {
          "internalType": "uint256",
          "name": "value",
          "type": "uint256"
        },
        {
          "internalType": "bytes",
          "name": "data",
          "type": "bytes"
        }
      ],
      "name": "transferAndCall",
      "outputs": [
        {
          "internalType": "bool",
          "name": "",
          "type": "bool"
        }
      ],
      "stateMutability": "nonpayable",
      "type": "function"
    },
    {
      "inputs": [
        {
          "internalType": "address",
          "name": "from",
          "type": "address"
        },
        {
          "internalType": "address",
          "name": "to",
          "type": "address"
        },
        {
          "internalType": "uint256",
          "name": "value",
          "type": "uint256"
        }
      ],
      "name": "transferFrom",
      "outputs": [
        {
          "internalType": "bool",
          "name": "",
          "type": "bool"
        }
      ],
      "stateMutability": "nonpayable",
      "type": "function"
    },
    {
      "inputs": [
        {
          "internalType": "address",
          "name": "from",
          "type": "address"
        },
        {
          "internalType": "address",
          "name": "to",
          "type": "address"
        },
        {
          "internalType": "uint256",
          "name": "value",
          "type": "uint256"
        },
        {
          "internalType": "bytes",
          "name": "data",
          "type": "bytes"
        }
      ],
      "name": "transferFromAndCall",
      "outputs": [
        {
          "internalType": "bool",
          "name": "",
          "type": "bool"
        }
      ],
      "stateMutability": "nonpayable",
      "type": "function"
    },
    {
      "inputs": [
        {
          "internalType": "address",
          "name": "from",
          "type": "address"
        },
        {
          "internalType": "address",
          "name": "to",
          "type": "address"
        },
        {
          "internalType": "uint256",
          "name": "value",
          "type": "uint256"
        }
      ],
      "name": "transferFromAndCall",
      "outputs": [
        {
          "internalType": "bool",
          "name": "",
          "type": "bool"
        }
      ],
      "stateMutability": "nonpayable",
      "type": "function"
    },
    {
      "inputs": [],
      "name": "unpauseMinting",
      "outputs": [],
      "stateMutability": "nonpayable",
      "type": "function"
    }
  ],
  "transactionHash": "0x4bb924d4e6178505b5bc26f8068030759f5eda6f3e50556b50bc1261ed942d95",
  "args": [
    "ZAMAERC20",
    "ZAMA",
    "0x777f7DF2290cf1Eabe1a3bb78C24D1CCF50d556e",
    "0x777f7DF2290cf1Eabe1a3bb78C24D1CCF50d556e"
  ],
  "numDeployments": 1,
  "solcInputHash": "f6fa12cb3bdf872a5764154cfeb89d68",
  "bytecode": "0x6101606040523480156200001257600080fd5b506040516200289e3803806200289e8339810160408190526200003591620004e8565b6040805180820190915260018152603160f81b6020820152849081908186600362000061838262000608565b50600462000070828262000608565b5062000082915083905060056200015b565b61012052620000938160066200015b565b61014052815160208084019190912060e052815190820120610100524660a0526200012160e05161010051604080517f8b73c3c69bb8fe3d512ecc4cf759cc79239f7b179b0ffacaa9a75d522b39400f60208201529081019290925260608201524660808201523060a082015260009060c00160405160208183030381529060405280519060200120905090565b60805250503060c0525062000143826b238afc9addf5829df800000062000194565b62000150600082620001d6565b505050505062000750565b60006020835110156200017b57620001738362000288565b90506200018e565b8162000188848262000608565b5060ff90505b92915050565b6001600160a01b038216620001c45760405163ec442f0560e01b8152600060048201526024015b60405180910390fd5b620001d260008383620002cb565b5050565b60008281526008602090815260408083206001600160a01b038516845290915281205460ff166200027f5760008381526008602090815260408083206001600160a01b03861684529091529020805460ff19166001179055620002363390565b6001600160a01b0316826001600160a01b0316847f2f8788117e7eff1d82e926ec794901d17c78024a50270940304540a733656f0d60405160405180910390a45060016200018e565b5060006200018e565b600080829050601f81511115620002b6578260405163305a27a960e01b8152600401620001bb9190620006d4565b8051620002c38262000709565b179392505050565b6001600160a01b038316620002fa578060026000828254620002ee91906200072e565b909155506200036e9050565b6001600160a01b038316600090815260208190526040902054818110156200034f5760405163391434e360e21b81526001600160a01b03851660048201526024810182905260448101839052606401620001bb565b6001600160a01b03841660009081526020819052604090209082900390555b6001600160a01b0382166200038c57600280548290039055620003ab565b6001600160a01b03821660009081526020819052604090208054820190555b816001600160a01b0316836001600160a01b03167fddf252ad1be2c89b69c2b068fc378daa952ba7f163c4a11628f55a4df523b3ef83604051620003f191815260200190565b60405180910390a3505050565b634e487b7160e01b600052604160045260246000fd5b60005b838110156200043157818101518382015260200162000417565b50506000910152565b600082601f8301126200044c57600080fd5b81516001600160401b0380821115620004695762000469620003fe565b604051601f8301601f19908116603f01168101908282118183101715620004945762000494620003fe565b81604052838152866020858801011115620004ae57600080fd5b620004c184602083016020890162000414565b9695505050505050565b80516001600160a01b0381168114620004e357600080fd5b919050565b60008060008060808587031215620004ff57600080fd5b84516001600160401b03808211156200051757600080fd5b62000525888389016200043a565b955060208701519150808211156200053c57600080fd5b506200054b878288016200043a565b9350506200055c60408601620004cb565b91506200056c60608601620004cb565b905092959194509250565b600181811c908216806200058c57607f821691505b602082108103620005ad57634e487b7160e01b600052602260045260246000fd5b50919050565b601f82111562000603576000816000526020600020601f850160051c81016020861015620005de5750805b601f850160051c820191505b81811015620005ff57828155600101620005ea565b5050505b505050565b81516001600160401b03811115620006245762000624620003fe565b6200063c8162000635845462000577565b84620005b3565b602080601f8311600181146200067457600084156200065b5750858301515b600019600386901b1c1916600185901b178555620005ff565b600085815260208120601f198616915b82811015620006a55788860151825594840194600190910190840162000684565b5085821015620006c45787850151600019600388901b60f8161c191681555b5050505050600190811b01905550565b6020815260008251806020840152620006f581604085016020870162000414565b601f01601f19169190910160400192915050565b80516020808301519190811015620005ad5760001960209190910360031b1b16919050565b808201808211156200018e57634e487b7160e01b600052601160045260246000fd5b60805160a05160c05160e0516101005161012051610140516120f3620007ab600039600061133a0152600061130d015260006110650152600061103d01526000610f9801526000610fc201526000610fec01526120f36000f3fe608060405234801561001057600080fd5b50600436106102325760003560e01c806379cc679011610130578063c1d34b89116100b8578063d547741f1161007c578063d547741f146104e0578063d8fbe994146104f3578063da8fbf2a14610506578063dd62ed3e1461050e578063f0e9fcd11461054757600080fd5b8063c1d34b8914610459578063cae773a91461046c578063cae9ca5114610493578063d505accf146104a6578063d5391393146104b957600080fd5b806395d89b41116100ff57806395d89b411461041b578063a217fddf14610423578063a9059cbb1461042b578063ae2003221461043e578063b51609b41461044657600080fd5b806379cc6790146103c75780637ecebe00146103da57806384b0196e146103ed57806391d148541461040857600080fd5b80633177029f116101be57806340c10f191161018257806340c10f191461035a57806342966c681461036d5780634f4c8102146103805780635c975abb1461039357806370a082311461039e57600080fd5b80633177029f14610306578063349fd851146103195780633644e5151461032c57806336568abe146103345780634000aea01461034757600080fd5b806318160ddd1161020557806318160ddd1461029a57806323b872dd146102ac578063248a9ca3146102bf5780632f2ff15d146102e2578063313ce567146102f757600080fd5b806301ffc9a71461023757806306fdde031461025f578063095ea7b3146102745780631296ee6214610287575b600080fd5b61024a610245366004611b7d565b61055a565b60405190151581526020015b60405180910390f35b61026761056b565b6040516102569190611be0565b61024a610282366004611c0f565b6105fd565b61024a610295366004611c0f565b610615565b6002545b604051908152602001610256565b61024a6102ba366004611c39565b610638565b61029e6102cd366004611c75565b60009081526008602052604090206001015490565b6102f56102f0366004611c8e565b61065c565b005b60405160128152602001610256565b61024a610314366004611c0f565b610687565b6102f5610327366004611cba565b6106a3565b61029e6107ee565b6102f5610342366004611c8e565b6107fd565b61024a610355366004611d99565b610835565b6102f5610368366004611c0f565b610882565b6102f561037b366004611c75565b6108be565b6102f561038e366004611c8e565b6108cb565b60095460ff1661024a565b61029e6103ac366004611df0565b6001600160a01b031660009081526020819052604090205490565b6102f56103d5366004611c0f565b610993565b61029e6103e8366004611df0565b6109ac565b6103f56109ca565b6040516102569796959493929190611e0b565b61024a610416366004611c8e565b610a10565b610267610a3b565b61029e600081565b61024a610439366004611c0f565b610a4a565b6102f5610a58565b6102f5610454366004611cba565b610a6b565b61024a610467366004611ea4565b610add565b61029e7f6f5928c5ee5c0d18cdee3560abfaad8f85faa046f8a021044025a910273f833f81565b61024a6104a1366004611d99565b610b2e565b6102f56104b4366004611f0c565b610b75565b61029e7f9f2df0fed2c77648de5860a4cc508cd0818c85b8b8a1ab4ceeef8d981c8956a681565b6102f56104ee366004611c8e565b610caf565b61024a610501366004611c39565b610cd4565b6102f5610cf9565b61029e61051c366004611f7f565b6001600160a01b03918216600090815260016020908152604080832093909416825291909152205490565b6102f5610555366004611cba565b610d2b565b600061056582610de3565b92915050565b60606003805461057a90611fa9565b80601f01602080910402602001604051908101604052809291908181526020018280546105a690611fa9565b80156105f35780601f106105c8576101008083540402835291602001916105f3565b820191906000526020600020905b8154815290600101906020018083116105d657829003601f168201915b5050505050905090565b60003361060b818585610e08565b5060019392505050565b6000610631838360405180602001604052806000815250610835565b9392505050565b600033610646858285610e15565b610651858585610e8e565b506001949350505050565b60008281526008602052604090206001015461067781610eed565b6106818383610ef7565b50505050565b6000610631838360405180602001604052806000815250610b2e565b60006106ae81610eed565b604051627eeac760e11b8152306004820152602481018490526000906001600160a01b0386169062fdd58e90604401602060405180830381865afa1580156106fa573d6000803e3d6000fd5b505050506040513d601f19601f8201168201806040525081019061071e9190611fe3565b604051637921219560e11b81523060048201526001600160a01b038581166024830152604482018790526064820183905260a06084830152600060a48301529192509086169063f242432a9060c401600060405180830381600087803b15801561078757600080fd5b505af115801561079b573d6000803e3d6000fd5b505060408051878152602081018590526001600160a01b038088169450891692507f5cf02e753b3eb0f4bee4460a72817d8e5e3c75cd4d65c1d0b06dca88b8032936910160405180910390a35050505050565b60006107f8610f8b565b905090565b6001600160a01b03811633146108265760405163334bd91960e11b815260040160405180910390fd5b61083082826110b6565b505050565b60006108418484610a4a565b6108755760405163118d81d760e11b81526001600160a01b0385166004820152602481018490526044015b60405180910390fd5b61060b3333868686611123565b7f9f2df0fed2c77648de5860a4cc508cd0818c85b8b8a1ab4ceeef8d981c8956a66108ac81610eed565b6108b4611274565b610830838361129a565b6108c833826112d0565b50565b60006108d681610eed565b6000826001600160a01b03168460405160006040518083038185875af1925050503d8060008114610923576040519150601f19603f3d011682016040523d82523d6000602084013e610928565b606091505b505090508061094a57604051630dcf35db60e41b815260040160405180910390fd5b826001600160a01b03167f8e274e42262a7f013b700b35c2b4629ccce1702f8fe83f8dfb7eacbb26a4382c8560405161098591815260200190565b60405180910390a250505050565b61099e823383610e15565b6109a882826112d0565b5050565b6001600160a01b038116600090815260076020526040812054610565565b6000606080600080600060606109de611306565b6109e6611333565b60408051600080825260208201909252600f60f81b9b939a50919850469750309650945092509050565b60009182526008602090815260408084206001600160a01b0393909316845291905290205460ff1690565b60606004805461057a90611fa9565b60003361060b818585610e8e565b6000610a6381610eed565b6108c8611360565b6000610a7681610eed565b610a8a6001600160a01b03851683856113b2565b816001600160a01b0316846001600160a01b03167faca8fb252cde442184e5f10e0f2e6e4029e8cd7717cae63559079610702436aa85604051610acf91815260200190565b60405180910390a350505050565b6000610aea858585610638565b610b2157604051635ab42af360e11b81526001600160a01b038087166004830152851660248201526044810184905260640161086c565b6106513386868686611123565b6000610b3a84846105fd565b610b6957604051631439557160e21b81526001600160a01b03851660048201526024810184905260440161086c565b61060b33858585611404565b83421115610b995760405163313c898160e11b81526004810185905260240161086c565b60007f6e71edae12b1b97f4d1f60370fef10105fa2faae0126114a169c64845d6126c9888888610be68c6001600160a01b0316600090815260076020526040902080546001810190915590565b6040805160208101969096526001600160a01b0394851690860152929091166060840152608083015260a082015260c0810186905260e0016040516020818303038152906040528051906020012090506000610c4182611542565b90506000610c518287878761156f565b9050896001600160a01b0316816001600160a01b031614610c98576040516325c0072360e11b81526001600160a01b0380831660048301528b16602482015260440161086c565b610ca38a8a8a610e08565b50505050505050505050565b600082815260086020526040902060010154610cca81610eed565b61068183836110b6565b6000610cf184848460405180602001604052806000815250610add565b949350505050565b7f6f5928c5ee5c0d18cdee3560abfaad8f85faa046f8a021044025a910273f833f610d2381610eed565b6108c861159d565b6000610d3681610eed565b604051632142170760e11b81523060048201526001600160a01b038381166024830152604482018590528516906342842e0e90606401600060405180830381600087803b158015610d8657600080fd5b505af1158015610d9a573d6000803e3d6000fd5b50505050816001600160a01b0316846001600160a01b03167f8166bf75d2ff2fa3c8f3c44410540bf42e9a5359b48409e8d660291dc9f788c885604051610acf91815260200190565b60006001600160e01b03198216637965db0b60e01b14806105655750610565826115da565b610830838383600161160f565b6001600160a01b038381166000908152600160209081526040808320938616835292905220546000198110156106815781811015610e7f57604051637dc7a0d960e11b81526001600160a01b0384166004820152602481018290526044810183905260640161086c565b6106818484848403600061160f565b6001600160a01b038316610eb857604051634b637e8f60e11b81526000600482015260240161086c565b6001600160a01b038216610ee25760405163ec442f0560e01b81526000600482015260240161086c565b6108308383836116d6565b6108c88133611800565b6000610f038383610a10565b610f835760008381526008602090815260408083206001600160a01b03861684529091529020805460ff19166001179055610f3b3390565b6001600160a01b0316826001600160a01b0316847f2f8788117e7eff1d82e926ec794901d17c78024a50270940304540a733656f0d60405160405180910390a4506001610565565b506000610565565b6000306001600160a01b037f000000000000000000000000000000000000000000000000000000000000000016148015610fe457507f000000000000000000000000000000000000000000000000000000000000000046145b1561100e57507f000000000000000000000000000000000000000000000000000000000000000090565b6107f8604080517f8b73c3c69bb8fe3d512ecc4cf759cc79239f7b179b0ffacaa9a75d522b39400f60208201527f0000000000000000000000000000000000000000000000000000000000000000918101919091527f000000000000000000000000000000000000000000000000000000000000000060608201524660808201523060a082015260009060c00160405160208183030381529060405280519060200120905090565b60006110c28383610a10565b15610f835760008381526008602090815260408083206001600160a01b0386168085529252808320805460ff1916905551339286917ff6391f5c32d9c69d2a47ea670b442974b53935d1edc7fd64eb21e047a839171b9190a4506001610565565b826001600160a01b03163b600003611159576040516322a5b36760e21b81526001600160a01b038416600482015260240161086c565b604051632229f29760e21b81526001600160a01b038416906388a7ca5c9061118b908890889087908790600401611ffc565b6020604051808303816000875af19250505080156111c6575060408051601f3d908101601f191682019092526111c391810190612039565b60015b61122f573d8080156111f4576040519150601f19603f3d011682016040523d82523d6000602084013e6111f9565b606091505b508051600003611227576040516322a5b36760e21b81526001600160a01b038516600482015260240161086c565b805160208201fd5b6001600160e01b03198116632229f29760e21b1461126b576040516322a5b36760e21b81526001600160a01b038516600482015260240161086c565b505b5050505050565b60095460ff16156112985760405163d93c066560e01b815260040160405180910390fd5b565b6001600160a01b0382166112c45760405163ec442f0560e01b81526000600482015260240161086c565b6109a8600083836116d6565b6001600160a01b0382166112fa57604051634b637e8f60e11b81526000600482015260240161086c565b6109a8826000836116d6565b60606107f87f00000000000000000000000000000000000000000000000000000000000000006005611839565b60606107f87f00000000000000000000000000000000000000000000000000000000000000006006611839565b6113686118e4565b6009805460ff191690557f5db9ee0a495bf2e6ff9c91a7834c1ba4fdd244a5e8aa4e537bd38aeae4b073aa335b6040516001600160a01b03909116815260200160405180910390a1565b604080516001600160a01b038416602482015260448082018490528251808303909101815260649091019091526020810180516001600160e01b031663a9059cbb60e01b179052610830908490611907565b826001600160a01b03163b60000361143a5760405163deb6d3ed60e01b81526001600160a01b038416600482015260240161086c565b6040516307b04a2d60e41b81526001600160a01b03841690637b04a2d09061146a90879086908690600401612056565b6020604051808303816000875af19250505080156114a5575060408051601f3d908101601f191682019092526114a291810190612039565b60015b611506573d8080156114d3576040519150601f19603f3d011682016040523d82523d6000602084013e6114d8565b606091505b5080516000036112275760405163deb6d3ed60e01b81526001600160a01b038516600482015260240161086c565b6001600160e01b031981166307b04a2d60e41b1461126d5760405163deb6d3ed60e01b81526001600160a01b038516600482015260240161086c565b600061056561154f610f8b565b8360405161190160f01b8152600281019290925260228201526042902090565b60008060008061158188888888611978565b9250925092506115918282611a47565b50909695505050505050565b6115a5611274565b6009805460ff191660011790557f62e78cea01bee320cd4e420270b5ea74000d11b0c9f74754ebdbfc544b05a2586113953390565b60006001600160e01b0319821663b0202a1160e01b148061056557506301ffc9a760e01b6001600160e01b0319831614610565565b6001600160a01b0384166116395760405163e602df0560e01b81526000600482015260240161086c565b6001600160a01b03831661166357604051634a1406b160e11b81526000600482015260240161086c565b6001600160a01b038085166000908152600160209081526040808320938716835292905220829055801561068157826001600160a01b0316846001600160a01b03167f8c5be1e5ebec7d5bd14f71427d1e84f3dd0314c0f7b2291e5b200ac8c7c3b92584604051610acf91815260200190565b6001600160a01b0383166117015780600260008282546116f69190612086565b909155506117739050565b6001600160a01b038316600090815260208190526040902054818110156117545760405163391434e360e21b81526001600160a01b0385166004820152602481018290526044810183905260640161086c565b6001600160a01b03841660009081526020819052604090209082900390555b6001600160a01b03821661178f576002805482900390556117ae565b6001600160a01b03821660009081526020819052604090208054820190555b816001600160a01b0316836001600160a01b03167fddf252ad1be2c89b69c2b068fc378daa952ba7f163c4a11628f55a4df523b3ef836040516117f391815260200190565b60405180910390a3505050565b61180a8282610a10565b6109a85760405163e2517d3f60e01b81526001600160a01b03821660048201526024810183905260440161086c565b606060ff83146118535761184c83611b00565b9050610565565b81805461185f90611fa9565b80601f016020809104026020016040519081016040528092919081815260200182805461188b90611fa9565b80156118d85780601f106118ad576101008083540402835291602001916118d8565b820191906000526020600020905b8154815290600101906020018083116118bb57829003601f168201915b50505050509050610565565b60095460ff1661129857604051638dfc202b60e01b815260040160405180910390fd5b600080602060008451602086016000885af18061192a576040513d6000823e3d81fd5b50506000513d9150811561194257806001141561194f565b6001600160a01b0384163b155b1561068157604051635274afe760e01b81526001600160a01b038516600482015260240161086c565b600080807f7fffffffffffffffffffffffffffffff5d576e7357a4501ddfe92f46681b20a08411156119b35750600091506003905082611a3d565b604080516000808252602082018084528a905260ff891692820192909252606081018790526080810186905260019060a0016020604051602081039080840390855afa158015611a07573d6000803e3d6000fd5b5050604051601f1901519150506001600160a01b038116611a3357506000925060019150829050611a3d565b9250600091508190505b9450945094915050565b6000826003811115611a5b57611a5b6120a7565b03611a64575050565b6001826003811115611a7857611a786120a7565b03611a965760405163f645eedf60e01b815260040160405180910390fd5b6002826003811115611aaa57611aaa6120a7565b03611acb5760405163fce698f760e01b81526004810182905260240161086c565b6003826003811115611adf57611adf6120a7565b036109a8576040516335e2f38360e21b81526004810182905260240161086c565b60606000611b0d83611b3f565b604080516020808252818301909252919250600091906020820181803683375050509182525060208101929092525090565b600060ff8216601f81111561056557604051632cd44ac360e21b815260040160405180910390fd5b6001600160e01b0319811681146108c857600080fd5b600060208284031215611b8f57600080fd5b813561063181611b67565b6000815180845260005b81811015611bc057602081850181015186830182015201611ba4565b506000602082860101526020601f19601f83011685010191505092915050565b6020815260006106316020830184611b9a565b80356001600160a01b0381168114611c0a57600080fd5b919050565b60008060408385031215611c2257600080fd5b611c2b83611bf3565b946020939093013593505050565b600080600060608486031215611c4e57600080fd5b611c5784611bf3565b9250611c6560208501611bf3565b9150604084013590509250925092565b600060208284031215611c8757600080fd5b5035919050565b60008060408385031215611ca157600080fd5b82359150611cb160208401611bf3565b90509250929050565b600080600060608486031215611ccf57600080fd5b611cd884611bf3565b925060208401359150611ced60408501611bf3565b90509250925092565b634e487b7160e01b600052604160045260246000fd5b600082601f830112611d1d57600080fd5b813567ffffffffffffffff80821115611d3857611d38611cf6565b604051601f8301601f19908116603f01168101908282118183101715611d6057611d60611cf6565b81604052838152866020858801011115611d7957600080fd5b836020870160208301376000602085830101528094505050505092915050565b600080600060608486031215611dae57600080fd5b611db784611bf3565b925060208401359150604084013567ffffffffffffffff811115611dda57600080fd5b611de686828701611d0c565b9150509250925092565b600060208284031215611e0257600080fd5b61063182611bf3565b60ff60f81b881681526000602060e06020840152611e2c60e084018a611b9a565b8381036040850152611e3e818a611b9a565b606085018990526001600160a01b038816608086015260a0850187905284810360c08601528551808252602080880193509091019060005b81811015611e9257835183529284019291840191600101611e76565b50909c9b505050505050505050505050565b60008060008060808587031215611eba57600080fd5b611ec385611bf3565b9350611ed160208601611bf3565b925060408501359150606085013567ffffffffffffffff811115611ef457600080fd5b611f0087828801611d0c565b91505092959194509250565b600080600080600080600060e0888a031215611f2757600080fd5b611f3088611bf3565b9650611f3e60208901611bf3565b95506040880135945060608801359350608088013560ff81168114611f6257600080fd5b9699959850939692959460a0840135945060c09093013592915050565b60008060408385031215611f9257600080fd5b611f9b83611bf3565b9150611cb160208401611bf3565b600181811c90821680611fbd57607f821691505b602082108103611fdd57634e487b7160e01b600052602260045260246000fd5b50919050565b600060208284031215611ff557600080fd5b5051919050565b6001600160a01b038581168252841660208201526040810183905260806060820181905260009061202f90830184611b9a565b9695505050505050565b60006020828403121561204b57600080fd5b815161063181611b67565b60018060a01b038416815282602082015260606040820152600061207d6060830184611b9a565b95945050505050565b8082018082111561056557634e487b7160e01b600052601160045260246000fd5b634e487b7160e01b600052602160045260246000fdfea2646970667358221220d947431f5733e90e3f19ff67399bb6217da47b4cbd4108792e12ec1e232e3e2c64736f6c63430008160033",
  "devdoc": {
    "errors": {
      "AccessControlBadConfirmation()": [
        {
          "details": "The caller of a function is not the expected one. NOTE: Don't confuse with {AccessControlUnauthorizedAccount}."
        }
      ],
      "AccessControlUnauthorizedAccount(address,bytes32)": [
        {
          "details": "The `account` is missing a role."
        }
      ],
      "ECDSAInvalidSignature()": [
        {
          "details": "The signature derives the `address(0)`."
        }
      ],
      "ECDSAInvalidSignatureLength(uint256)": [
        {
          "details": "The signature has an invalid length."
        }
      ],
      "ECDSAInvalidSignatureS(bytes32)": [
        {
          "details": "The signature has an S value that is in the upper half order."
        }
      ],
      "ERC1363ApproveFailed(address,uint256)": [
        {
          "details": "Indicates a failure within the {approve} part of a approveAndCall operation.",
          "params": {
            "spender": "Address which will spend the funds.",
            "value": "Amount of tokens to be spent."
          }
        }
      ],
      "ERC1363InvalidReceiver(address)": [
        {
          "details": "Indicates a failure with the token `receiver`. Used in transfers.",
          "params": {
            "receiver": "Address to which tokens are being transferred."
          }
        }
      ],
      "ERC1363InvalidSpender(address)": [
        {
          "details": "Indicates a failure with the token `spender`. Used in approvals.",
          "params": {
            "spender": "Address that may be allowed to operate on tokens without being their owner."
          }
        }
      ],
      "ERC1363TransferFailed(address,uint256)": [
        {
          "details": "Indicates a failure within the {transfer} part of a transferAndCall operation.",
          "params": {
            "receiver": "Address to which tokens are being transferred.",
            "value": "Amount of tokens to be transferred."
          }
        }
      ],
      "ERC1363TransferFromFailed(address,address,uint256)": [
        {
          "details": "Indicates a failure within the {transferFrom} part of a transferFromAndCall operation.",
          "params": {
            "receiver": "Address to which tokens are being transferred.",
            "sender": "Address from which to send tokens.",
            "value": "Amount of tokens to be transferred."
          }
        }
      ],
      "ERC20InsufficientAllowance(address,uint256,uint256)": [
        {
          "details": "Indicates a failure with the `spender`s `allowance`. Used in transfers.",
          "params": {
            "allowance": "Amount of tokens a `spender` is allowed to operate with.",
            "needed": "Minimum amount required to perform a transfer.",
            "spender": "Address that may be allowed to operate on tokens without being their owner."
          }
        }
      ],
      "ERC20InsufficientBalance(address,uint256,uint256)": [
        {
          "details": "Indicates an error related to the current `balance` of a `sender`. Used in transfers.",
          "params": {
            "balance": "Current balance for the interacting account.",
            "needed": "Minimum amount required to perform a transfer.",
            "sender": "Address whose tokens are being transferred."
          }
        }
      ],
      "ERC20InvalidApprover(address)": [
        {
          "details": "Indicates a failure with the `approver` of a token to be approved. Used in approvals.",
          "params": {
            "approver": "Address initiating an approval operation."
          }
        }
      ],
      "ERC20InvalidReceiver(address)": [
        {
          "details": "Indicates a failure with the token `receiver`. Used in transfers.",
          "params": {
            "receiver": "Address to which tokens are being transferred."
          }
        }
      ],
      "ERC20InvalidSender(address)": [
        {
          "details": "Indicates a failure with the token `sender`. Used in transfers.",
          "params": {
            "sender": "Address whose tokens are being transferred."
          }
        }
      ],
      "ERC20InvalidSpender(address)": [
        {
          "details": "Indicates a failure with the `spender` to be approved. Used in approvals.",
          "params": {
            "spender": "Address that may be allowed to operate on tokens without being their owner."
          }
        }
      ],
      "ERC2612ExpiredSignature(uint256)": [
        {
          "details": "Permit deadline has expired."
        }
      ],
      "ERC2612InvalidSigner(address,address)": [
        {
          "details": "Mismatched signature."
        }
      ],
      "EnforcedPause()": [
        {
          "details": "The operation failed because the contract is paused."
        }
      ],
      "ExpectedPause()": [
        {
          "details": "The operation failed because the contract is not paused."
        }
      ],
      "InvalidAccountNonce(address,uint256)": [
        {
          "details": "The nonce used for an `account` is not the expected current nonce."
        }
      ],
      "SafeERC20FailedOperation(address)": [
        {
          "details": "An operation with an ERC-20 token failed."
        }
      ]
    },
    "events": {
      "Approval(address,address,uint256)": {
        "details": "Emitted when the allowance of a `spender` for an `owner` is set by a call to {approve}. `value` is the new allowance."
      },
      "EIP712DomainChanged()": {
        "details": "MAY be emitted to signal that the domain could have changed."
      },
      "Paused(address)": {
        "details": "Emitted when the pause is triggered by `account`."
      },
      "RoleAdminChanged(bytes32,bytes32,bytes32)": {
        "details": "Emitted when `newAdminRole` is set as ``role``'s admin role, replacing `previousAdminRole` `DEFAULT_ADMIN_ROLE` is the starting admin for all roles, despite {RoleAdminChanged} not being emitted to signal this."
      },
      "RoleGranted(bytes32,address,address)": {
        "details": "Emitted when `account` is granted `role`. `sender` is the account that originated the contract call. This account bears the admin role (for the granted role). Expected in cases where the role was granted using the internal {AccessControl-_grantRole}."
      },
      "RoleRevoked(bytes32,address,address)": {
        "details": "Emitted when `account` is revoked `role`. `sender` is the account that originated the contract call:   - if using `revokeRole`, it is the admin role bearer   - if using `renounceRole`, it is the role bearer (i.e. `account`)"
      },
      "Transfer(address,address,uint256)": {
        "details": "Emitted when `value` tokens are moved from one account (`from`) to another (`to`). Note that `value` may be zero."
      },
      "Unpaused(address)": {
        "details": "Emitted when the pause is lifted by `account`."
      }
    },
    "kind": "dev",
    "methods": {
      "DOMAIN_SEPARATOR()": {
        "details": "Returns the domain separator used in the encoding of the signature for {permit}, as defined by {EIP712}."
      },
      "allowance(address,address)": {
        "details": "Returns the remaining number of tokens that `spender` will be allowed to spend on behalf of `owner` through {transferFrom}. This is zero by default. This value changes when {approve} or {transferFrom} are called."
      },
      "approve(address,uint256)": {
        "details": "See {IERC20-approve}. NOTE: If `value` is the maximum `uint256`, the allowance is not updated on `transferFrom`. This is semantically equivalent to an infinite approval. Requirements: - `spender` cannot be the zero address."
      },
      "approveAndCall(address,uint256)": {
        "details": "Sets a `value` amount of tokens as the allowance of `spender` over the caller's tokens and then calls {IERC1363Spender-onApprovalReceived} on `spender`. Returns a flag that indicates if the call succeeded. Requirements: - The target has code (i.e. is a contract). - The target `spender` must implement the {IERC1363Spender} interface. - The target must return the {IERC1363Spender-onApprovalReceived} selector to accept the approval. - The internal {approve} must succeed (returned `true`)."
      },
      "approveAndCall(address,uint256,bytes)": {
        "details": "Variant of {approveAndCall} that accepts an additional `data` parameter with no specified format."
      },
      "balanceOf(address)": {
        "details": "Returns the value of tokens owned by `account`."
      },
      "burn(uint256)": {
        "details": "Destroys a `value` amount of tokens from the caller. See {ERC20-_burn}."
      },
      "burnFrom(address,uint256)": {
        "details": "Destroys a `value` amount of tokens from `account`, deducting from the caller's allowance. See {ERC20-_burn} and {ERC20-allowance}. Requirements: - the caller must have allowance for ``accounts``'s tokens of at least `value`."
      },
      "decimals()": {
        "details": "Returns the number of decimals used to get its user representation. For example, if `decimals` equals `2`, a balance of `505` tokens should be displayed to a user as `5.05` (`505 / 10 ** 2`). Tokens usually opt for a value of 18, imitating the relationship between Ether and Wei. This is the default value returned by this function, unless it's overridden. NOTE: This information is only used for _display_ purposes: it in no way affects any of the arithmetic of the contract, including {IERC20-balanceOf} and {IERC20-transfer}."
      },
      "eip712Domain()": {
        "details": "returns the fields and values that describe the domain separator used by this contract for EIP-712 signature."
      },
      "getRoleAdmin(bytes32)": {
        "details": "Returns the admin role that controls `role`. See {grantRole} and {revokeRole}. To change a role's admin, use {_setRoleAdmin}."
      },
      "grantRole(bytes32,address)": {
        "details": "Grants `role` to `account`. If `account` had not been already granted `role`, emits a {RoleGranted} event. Requirements: - the caller must have ``role``'s admin role. May emit a {RoleGranted} event."
      },
      "hasRole(bytes32,address)": {
        "details": "Returns `true` if `account` has been granted `role`."
      },
      "mint(address,uint256)": {
        "params": {
          "amount": "Number of tokens to mint.",
          "to": "Receiver of the newly minted tokens."
        }
      },
      "name()": {
        "details": "Returns the name of the token."
      },
      "nonces(address)": {
        "details": "Returns the current nonce for `owner`. This value must be included whenever a signature is generated for {permit}. Every successful call to {permit} increases ``owner``'s nonce by one. This prevents a signature from being used multiple times."
      },
      "pauseMinting()": {
        "details": "Triggers minting paused state. Only a MINTING_PAUSER address can pause minting. The contract must not be paused for minting."
      },
      "paused()": {
        "details": "Returns true if the contract is paused, and false otherwise."
      },
      "permit(address,address,uint256,uint256,uint8,bytes32,bytes32)": {
        "details": "Sets `value` as the allowance of `spender` over ``owner``'s tokens, given ``owner``'s signed approval. IMPORTANT: The same issues {IERC20-approve} has related to transaction ordering also apply here. Emits an {Approval} event. Requirements: - `spender` cannot be the zero address. - `deadline` must be a timestamp in the future. - `v`, `r` and `s` must be a valid `secp256k1` signature from `owner` over the EIP712-formatted function arguments. - the signature must use ``owner``'s current nonce (see {nonces}). For more information on the signature format, see the https://eips.ethereum.org/EIPS/eip-2612#specification[relevant EIP section]. CAUTION: See Security Considerations above."
      },
      "recoverERC1155(address,uint256,address)": {
        "details": "Allows the sender to recover ERC1155 tokens held by the contract.",
        "params": {
          "recepient": "Receiver of the recovered ERC1155 token. Emits an ERC1155Recovered event upon success.",
          "token": "The address of the ERC1155 token to recover.",
          "tokenId": "The token ID of the ERC1155 token to recover."
        }
      },
      "recoverERC20(address,uint256,address)": {
        "details": "Allows the sender to recover ERC20 tokens held by the contract.",
        "params": {
          "amount": "The amount of the ERC20 token to recover.",
          "recepient": "Receiver of the recovered tokens. Emits an ERC20Recovered event upon success.",
          "token": "The address of the ERC20 token to recover."
        }
      },
      "recoverERC721(address,uint256,address)": {
        "details": "Allows the sender to recover ERC721 tokens held by the contract.",
        "params": {
          "recepient": "Receiver of the recovered ERC721 token. Emits an ERC721Recovered event upon success.",
          "token": "The address of the ERC721 token to recover.",
          "tokenId": "The token ID of the ERC721 token to recover."
        }
      },
      "recoverEther(uint256,address)": {
        "details": "Allows the sender to recover Ether held by the contract.",
        "params": {
          "amount": "Amount of recovered ETH.",
          "recepient": "Receiver of the recovered ETH. Emits an EtherRecovered event upon success."
        }
      },
      "renounceRole(bytes32,address)": {
        "details": "Revokes `role` from the calling account. Roles are often managed via {grantRole} and {revokeRole}: this function's purpose is to provide a mechanism for accounts to lose their privileges if they are compromised (such as when a trusted device is misplaced). If the calling account had been revoked `role`, emits a {RoleRevoked} event. Requirements: - the caller must be `callerConfirmation`. May emit a {RoleRevoked} event."
      },
      "revokeRole(bytes32,address)": {
        "details": "Revokes `role` from `account`. If `account` had been granted `role`, emits a {RoleRevoked} event. Requirements: - the caller must have ``role``'s admin role. May emit a {RoleRevoked} event."
      },
      "supportsInterface(bytes4)": {
        "details": "See {IERC165-supportsInterface}."
      },
      "symbol()": {
        "details": "Returns the symbol of the token, usually a shorter version of the name."
      },
      "totalSupply()": {
        "details": "Returns the value of tokens in existence."
      },
      "transfer(address,uint256)": {
        "details": "See {IERC20-transfer}. Requirements: - `to` cannot be the zero address. - the caller must have a balance of at least `value`."
      },
      "transferAndCall(address,uint256)": {
        "details": "Moves a `value` amount of tokens from the caller's account to `to` and then calls {IERC1363Receiver-onTransferReceived} on `to`. Returns a flag that indicates if the call succeeded. Requirements: - The target has code (i.e. is a contract). - The target `to` must implement the {IERC1363Receiver} interface. - The target must return the {IERC1363Receiver-onTransferReceived} selector to accept the transfer. - The internal {transfer} must succeed (returned `true`)."
      },
      "transferAndCall(address,uint256,bytes)": {
        "details": "Variant of {transferAndCall} that accepts an additional `data` parameter with no specified format."
      },
      "transferFrom(address,address,uint256)": {
        "details": "See {IERC20-transferFrom}. Skips emitting an {Approval} event indicating an allowance update. This is not required by the ERC. See {xref-ERC20-_approve-address-address-uint256-bool-}[_approve]. NOTE: Does not update the allowance if the current allowance is the maximum `uint256`. Requirements: - `from` and `to` cannot be the zero address. - `from` must have a balance of at least `value`. - the caller must have allowance for ``from``'s tokens of at least `value`."
      },
      "transferFromAndCall(address,address,uint256)": {
        "details": "Moves a `value` amount of tokens from `from` to `to` using the allowance mechanism and then calls {IERC1363Receiver-onTransferReceived} on `to`. Returns a flag that indicates if the call succeeded. Requirements: - The target has code (i.e. is a contract). - The target `to` must implement the {IERC1363Receiver} interface. - The target must return the {IERC1363Receiver-onTransferReceived} selector to accept the transfer. - The internal {transferFrom} must succeed (returned `true`)."
      },
      "transferFromAndCall(address,address,uint256,bytes)": {
        "details": "Variant of {transferFromAndCall} that accepts an additional `data` parameter with no specified format."
      },
      "unpauseMinting()": {
        "details": "Returns to normal state. Only DEFAULT_ADMIN_ROLE can unpause minting. The contract must be paused for minting."
      }
    },
    "version": 1
  },
  "userdoc": {
    "kind": "user",
    "methods": {
      "mint(address,uint256)": {
        "notice": "Only a minter could mint new tokens."
      }
    },
    "version": 1
  },
  "storageLayout": {
    "storage": [
      {
        "astId": 4942,
        "contract": "contracts/ZamaERC20.sol:ZamaERC20",
        "label": "_balances",
        "offset": 0,
        "slot": "0",
        "type": "t_mapping(t_address,t_uint256)"
      },
      {
        "astId": 4948,
        "contract": "contracts/ZamaERC20.sol:ZamaERC20",
        "label": "_allowances",
        "offset": 0,
        "slot": "1",
        "type": "t_mapping(t_address,t_mapping(t_address,t_uint256))"
      },
      {
        "astId": 4950,
        "contract": "contracts/ZamaERC20.sol:ZamaERC20",
        "label": "_totalSupply",
        "offset": 0,
        "slot": "2",
        "type": "t_uint256"
      },
      {
        "astId": 4952,
        "contract": "contracts/ZamaERC20.sol:ZamaERC20",
        "label": "_name",
        "offset": 0,
        "slot": "3",
        "type": "t_string_storage"
      },
      {
        "astId": 4954,
        "contract": "contracts/ZamaERC20.sol:ZamaERC20",
        "label": "_symbol",
        "offset": 0,
        "slot": "4",
        "type": "t_string_storage"
      },
      {
        "astId": 9132,
        "contract": "contracts/ZamaERC20.sol:ZamaERC20",
        "label": "_nameFallback",
        "offset": 0,
        "slot": "5",
        "type": "t_string_storage"
      },
      {
        "astId": 9134,
        "contract": "contracts/ZamaERC20.sol:ZamaERC20",
        "label": "_versionFallback",
        "offset": 0,
        "slot": "6",
        "type": "t_string_storage"
      },
      {
        "astId": 6790,
        "contract": "contracts/ZamaERC20.sol:ZamaERC20",
        "label": "_nonces",
        "offset": 0,
        "slot": "7",
        "type": "t_mapping(t_address,t_uint256)"
      },
      {
        "astId": 4010,
        "contract": "contracts/ZamaERC20.sol:ZamaERC20",
        "label": "_roles",
        "offset": 0,
        "slot": "8",
        "type": "t_mapping(t_bytes32,t_struct(RoleData)4005_storage)"
      },
      {
        "astId": 6905,
        "contract": "contracts/ZamaERC20.sol:ZamaERC20",
        "label": "_paused",
        "offset": 0,
        "slot": "9",
        "type": "t_bool"
      }
    ],
    "types": {
      "t_address": {
        "encoding": "inplace",
        "label": "address",
        "numberOfBytes": "20"
      },
      "t_bool": {
        "encoding": "inplace",
        "label": "bool",
        "numberOfBytes": "1"
      },
      "t_bytes32": {
        "encoding": "inplace",
        "label": "bytes32",
        "numberOfBytes": "32"
      },
      "t_mapping(t_address,t_bool)": {
        "encoding": "mapping",
        "key": "t_address",
        "label": "mapping(address => bool)",
        "numberOfBytes": "32",
        "value": "t_bool"
      },
      "t_mapping(t_address,t_mapping(t_address,t_uint256))": {
        "encoding": "mapping",
        "key": "t_address",
        "label": "mapping(address => mapping(address => uint256))",
        "numberOfBytes": "32",
        "value": "t_mapping(t_address,t_uint256)"
      },
      "t_mapping(t_address,t_uint256)": {
        "encoding": "mapping",
        "key": "t_address",
        "label": "mapping(address => uint256)",
        "numberOfBytes": "32",
        "value": "t_uint256"
      },
      "t_mapping(t_bytes32,t_struct(RoleData)4005_storage)": {
        "encoding": "mapping",
        "key": "t_bytes32",
        "label": "mapping(bytes32 => struct AccessControl.RoleData)",
        "numberOfBytes": "32",
        "value": "t_struct(RoleData)4005_storage"
      },
      "t_string_storage": {
        "encoding": "bytes",
        "label": "string",
        "numberOfBytes": "32"
      },
      "t_struct(RoleData)4005_storage": {
        "encoding": "inplace",
        "label": "struct AccessControl.RoleData",
        "members": [
          {
            "astId": 4002,
            "contract": "contracts/ZamaERC20.sol:ZamaERC20",
            "label": "hasRole",
            "offset": 0,
            "slot": "0",
            "type": "t_mapping(t_address,t_bool)"
          },
          {
            "astId": 4004,
            "contract": "contracts/ZamaERC20.sol:ZamaERC20",
            "label": "adminRole",
            "offset": 0,
            "slot": "1",
            "type": "t_bytes32"
          }
        ],
        "numberOfBytes": "64"
      },
      "t_uint256": {
        "encoding": "inplace",
        "label": "uint256",
        "numberOfBytes": "32"
      }
    }
  }
}