{
  "_format": "hh-sol-artifact-1",
  "contractName": "FHEVMManualTestSuite",
  "sourceName": "contracts/operations/FHEVMManualTestSuite.sol",
  "abi": [
    {
      "inputs": [
        {
          "internalType": "bytes32",
          "name": "handle",
          "type": "bytes32"
        },
        {
          "internalType": "address",
          "name": "sender",
          "type": "address"
        }
      ],
      "name": "SenderNotAllowedToUseHandle",
      "type": "error"
    },
    {
      "inputs": [
        {
          "internalType": "bool",
          "name": "a",
          "type": "bool"
        },
        {
          "internalType": "bool",
          "name": "b",
          "type": "bool"
        }
      ],
      "name": "eqEbool",
      "outputs": [],
      "stateMutability": "nonpayable",
      "type": "function"
    },
    {
      "inputs": [
        {
          "internalType": "bool",
          "name": "a",
          "type": "bool"
        },
        {
          "internalType": "bool",
          "name": "b",
          "type": "bool"
        }
      ],
      "name": "eqEboolScalarL",
      "outputs": [],
      "stateMutability": "nonpayable",
      "type": "function"
    },
    {
      "inputs": [
        {
          "internalType": "bool",
          "name": "a",
          "type": "bool"
        },
        {
          "internalType": "bool",
          "name": "b",
          "type": "bool"
        }
      ],
      "name": "eqEboolScalarR",
      "outputs": [],
      "stateMutability": "nonpayable",
      "type": "function"
    },
    {
      "inputs": [
        {
          "internalType": "bool",
          "name": "a",
          "type": "bool"
        },
        {
          "internalType": "bool",
          "name": "b",
          "type": "bool"
        }
      ],
      "name": "neEbool",
      "outputs": [],
      "stateMutability": "nonpayable",
      "type": "function"
    },
    {
      "inputs": [
        {
          "internalType": "bool",
          "name": "a",
          "type": "bool"
        },
        {
          "internalType": "bool",
          "name": "b",
          "type": "bool"
        }
      ],
      "name": "neEboolScalarL",
      "outputs": [],
      "stateMutability": "nonpayable",
      "type": "function"
    },
    {
      "inputs": [
        {
          "internalType": "bool",
          "name": "a",
          "type": "bool"
        },
        {
          "internalType": "bool",
          "name": "b",
          "type": "bool"
        }
      ],
      "name": "neEboolScalarR",
      "outputs": [],
      "stateMutability": "nonpayable",
      "type": "function"
    },
    {
      "inputs": [],
      "name": "resAdd",
      "outputs": [
        {
          "internalType": "eaddress",
          "name": "",
          "type": "bytes32"
        }
      ],
      "stateMutability": "view",
      "type": "function"
    },
    {
      "inputs": [],
      "name": "resEbool",
      "outputs": [
        {
          "internalType": "ebool",
          "name": "",
          "type": "bytes32"
        }
      ],
      "stateMutability": "view",
      "type": "function"
    },
    {
      "inputs": [],
      "name": "resEuint128",
      "outputs": [
        {
          "internalType": "euint128",
          "name": "",
          "type": "bytes32"
        }
      ],
      "stateMutability": "view",
      "type": "function"
    },
    {
      "inputs": [],
      "name": "resEuint16",
      "outputs": [
        {
          "internalType": "euint16",
          "name": "",
          "type": "bytes32"
        }
      ],
      "stateMutability": "view",
      "type": "function"
    },
    {
      "inputs": [],
      "name": "resEuint256",
      "outputs": [
        {
          "internalType": "euint256",
          "name": "",
          "type": "bytes32"
        }
      ],
      "stateMutability": "view",
      "type": "function"
    },
    {
      "inputs": [],
      "name": "resEuint32",
      "outputs": [
        {
          "internalType": "euint32",
          "name": "",
          "type": "bytes32"
        }
      ],
      "stateMutability": "view",
      "type": "function"
    },
    {
      "inputs": [],
      "name": "resEuint64",
      "outputs": [
        {
          "internalType": "euint64",
          "name": "",
          "type": "bytes32"
        }
      ],
      "stateMutability": "view",
      "type": "function"
    },
    {
      "inputs": [],
      "name": "resEuint8",
      "outputs": [
        {
          "internalType": "euint8",
          "name": "",
          "type": "bytes32"
        }
      ],
      "stateMutability": "view",
      "type": "function"
    },
    {
      "inputs": [
        {
          "internalType": "bool",
          "name": "a",
          "type": "bool"
        },
        {
          "internalType": "bool",
          "name": "b",
          "type": "bool"
        }
      ],
      "name": "test_ebool_and",
      "outputs": [],
      "stateMutability": "nonpayable",
      "type": "function"
    },
    {
      "inputs": [
        {
          "internalType": "bool",
          "name": "a",
          "type": "bool"
        },
        {
          "internalType": "bool",
          "name": "b",
          "type": "bool"
        }
      ],
      "name": "test_ebool_and_scalarL",
      "outputs": [],
      "stateMutability": "nonpayable",
      "type": "function"
    },
    {
      "inputs": [
        {
          "internalType": "bool",
          "name": "a",
          "type": "bool"
        },
        {
          "internalType": "bool",
          "name": "b",
          "type": "bool"
        }
      ],
      "name": "test_ebool_and_scalarR",
      "outputs": [],
      "stateMutability": "nonpayable",
      "type": "function"
    },
    {
      "inputs": [
        {
          "internalType": "bool",
          "name": "input",
          "type": "bool"
        }
      ],
      "name": "test_ebool_not",
      "outputs": [],
      "stateMutability": "nonpayable",
      "type": "function"
    },
    {
      "inputs": [
        {
          "internalType": "bool",
          "name": "a",
          "type": "bool"
        },
        {
          "internalType": "bool",
          "name": "b",
          "type": "bool"
        }
      ],
      "name": "test_ebool_or",
      "outputs": [],
      "stateMutability": "nonpayable",
      "type": "function"
    },
    {
      "inputs": [
        {
          "internalType": "bool",
          "name": "a",
          "type": "bool"
        },
        {
          "internalType": "bool",
          "name": "b",
          "type": "bool"
        }
      ],
      "name": "test_ebool_or_scalarL",
      "outputs": [],
      "stateMutability": "nonpayable",
      "type": "function"
    },
    {
      "inputs": [
        {
          "internalType": "bool",
          "name": "a",
          "type": "bool"
        },
        {
          "internalType": "bool",
          "name": "b",
          "type": "bool"
        }
      ],
      "name": "test_ebool_or_scalarR",
      "outputs": [],
      "stateMutability": "nonpayable",
      "type": "function"
    },
    {
      "inputs": [
        {
          "internalType": "bool",
          "name": "input",
          "type": "bool"
        }
      ],
      "name": "test_ebool_to_euint128_cast",
      "outputs": [],
      "stateMutability": "nonpayable",
      "type": "function"
    },
    {
      "inputs": [
        {
          "internalType": "bool",
          "name": "input",
          "type": "bool"
        }
      ],
      "name": "test_ebool_to_euint16_cast",
      "outputs": [],
      "stateMutability": "nonpayable",
      "type": "function"
    },
    {
      "inputs": [
        {
          "internalType": "bool",
          "name": "input",
          "type": "bool"
        }
      ],
      "name": "test_ebool_to_euint256_cast",
      "outputs": [],
      "stateMutability": "nonpayable",
      "type": "function"
    },
    {
      "inputs": [
        {
          "internalType": "bool",
          "name": "input",
          "type": "bool"
        }
      ],
      "name": "test_ebool_to_euint32_cast",
      "outputs": [],
      "stateMutability": "nonpayable",
      "type": "function"
    },
    {
      "inputs": [
        {
          "internalType": "bool",
          "name": "input",
          "type": "bool"
        }
      ],
      "name": "test_ebool_to_euint64_cast",
      "outputs": [],
      "stateMutability": "nonpayable",
      "type": "function"
    },
    {
      "inputs": [
        {
          "internalType": "bool",
          "name": "input",
          "type": "bool"
        }
      ],
      "name": "test_ebool_to_euint8_cast",
      "outputs": [],
      "stateMutability": "nonpayable",
      "type": "function"
    },
    {
      "inputs": [
        {
          "internalType": "bool",
          "name": "a",
          "type": "bool"
        },
        {
          "internalType": "bool",
          "name": "b",
          "type": "bool"
        }
      ],
      "name": "test_ebool_xor",
      "outputs": [],
      "stateMutability": "nonpayable",
      "type": "function"
    },
    {
      "inputs": [
        {
          "internalType": "bool",
          "name": "a",
          "type": "bool"
        },
        {
          "internalType": "bool",
          "name": "b",
          "type": "bool"
        }
      ],
      "name": "test_ebool_xor_scalarL",
      "outputs": [],
      "stateMutability": "nonpayable",
      "type": "function"
    },
    {
      "inputs": [
        {
          "internalType": "bool",
          "name": "a",
          "type": "bool"
        },
        {
          "internalType": "bool",
          "name": "b",
          "type": "bool"
        }
      ],
      "name": "test_ebool_xor_scalarR",
      "outputs": [],
      "stateMutability": "nonpayable",
      "type": "function"
    },
    {
      "inputs": [
        {
          "internalType": "externalEaddress",
          "name": "a",
          "type": "bytes32"
        },
        {
          "internalType": "address",
          "name": "b",
          "type": "address"
        },
        {
          "internalType": "bytes",
          "name": "inputProof",
          "type": "bytes"
        }
      ],
      "name": "test_eq_address_eaddress",
      "outputs": [],
      "stateMutability": "nonpayable",
      "type": "function"
    },
    {
      "inputs": [
        {
          "internalType": "externalEaddress",
          "name": "a",
          "type": "bytes32"
        },
        {
          "internalType": "address",
          "name": "b",
          "type": "address"
        },
        {
          "internalType": "bytes",
          "name": "inputProof",
          "type": "bytes"
        }
      ],
      "name": "test_eq_eaddress_address",
      "outputs": [],
      "stateMutability": "nonpayable",
      "type": "function"
    },
    {
      "inputs": [
        {
          "internalType": "externalEaddress",
          "name": "a",
          "type": "bytes32"
        },
        {
          "internalType": "externalEaddress",
          "name": "b",
          "type": "bytes32"
        },
        {
          "internalType": "bytes",
          "name": "inputProof",
          "type": "bytes"
        }
      ],
      "name": "test_eq_eaddress_eaddress",
      "outputs": [],
      "stateMutability": "nonpayable",
      "type": "function"
    },
    {
      "inputs": [
        {
          "internalType": "uint128",
          "name": "input",
          "type": "uint128"
        }
      ],
      "name": "test_euint128_to_euint8_cast",
      "outputs": [],
      "stateMutability": "nonpayable",
      "type": "function"
    },
    {
      "inputs": [
        {
          "internalType": "externalEaddress",
          "name": "a",
          "type": "bytes32"
        },
        {
          "internalType": "address",
          "name": "b",
          "type": "address"
        },
        {
          "internalType": "bytes",
          "name": "inputProof",
          "type": "bytes"
        }
      ],
      "name": "test_ne_address_eaddress",
      "outputs": [],
      "stateMutability": "nonpayable",
      "type": "function"
    },
    {
      "inputs": [
        {
          "internalType": "externalEaddress",
          "name": "a",
          "type": "bytes32"
        },
        {
          "internalType": "address",
          "name": "b",
          "type": "address"
        },
        {
          "internalType": "bytes",
          "name": "inputProof",
          "type": "bytes"
        }
      ],
      "name": "test_ne_eaddress_address",
      "outputs": [],
      "stateMutability": "nonpayable",
      "type": "function"
    },
    {
      "inputs": [
        {
          "internalType": "externalEaddress",
          "name": "a",
          "type": "bytes32"
        },
        {
          "internalType": "externalEaddress",
          "name": "b",
          "type": "bytes32"
        },
        {
          "internalType": "bytes",
          "name": "inputProof",
          "type": "bytes"
        }
      ],
      "name": "test_ne_eaddress_eaddress",
      "outputs": [],
      "stateMutability": "nonpayable",
      "type": "function"
    },
    {
      "inputs": [
        {
          "internalType": "externalEuint64",
          "name": "a",
          "type": "bytes32"
        },
        {
          "internalType": "externalEuint8",
          "name": "b",
          "type": "bytes32"
        },
        {
          "internalType": "bytes",
          "name": "inputProof",
          "type": "bytes"
        }
      ],
      "name": "test_rotl_euint64_euint8",
      "outputs": [],
      "stateMutability": "nonpayable",
      "type": "function"
    },
    {
      "inputs": [
        {
          "internalType": "externalEuint64",
          "name": "a",
          "type": "bytes32"
        },
        {
          "internalType": "uint8",
          "name": "b",
          "type": "uint8"
        },
        {
          "internalType": "bytes",
          "name": "inputProof",
          "type": "bytes"
        }
      ],
      "name": "test_rotl_euint64_uint8",
      "outputs": [],
      "stateMutability": "nonpayable",
      "type": "function"
    },
    {
      "inputs": [
        {
          "internalType": "externalEuint64",
          "name": "a",
          "type": "bytes32"
        },
        {
          "internalType": "externalEuint8",
          "name": "b",
          "type": "bytes32"
        },
        {
          "internalType": "bytes",
          "name": "inputProof",
          "type": "bytes"
        }
      ],
      "name": "test_rotr_euint64_euint8",
      "outputs": [],
      "stateMutability": "nonpayable",
      "type": "function"
    },
    {
      "inputs": [
        {
          "internalType": "externalEuint64",
          "name": "a",
          "type": "bytes32"
        },
        {
          "internalType": "uint8",
          "name": "b",
          "type": "uint8"
        },
        {
          "internalType": "bytes",
          "name": "inputProof",
          "type": "bytes"
        }
      ],
      "name": "test_rotr_euint64_uint8",
      "outputs": [],
      "stateMutability": "nonpayable",
      "type": "function"
    },
    {
      "inputs": [
        {
          "internalType": "externalEbool",
          "name": "control",
          "type": "bytes32"
        },
        {
          "internalType": "externalEuint32",
          "name": "ifTrue",
          "type": "bytes32"
        },
        {
          "internalType": "externalEuint32",
          "name": "ifFalse",
          "type": "bytes32"
        },
        {
          "internalType": "bytes",
          "name": "inputProof",
          "type": "bytes"
        }
      ],
      "name": "test_select",
      "outputs": [],
      "stateMutability": "nonpayable",
      "type": "function"
    },
    {
      "inputs": [
        {
          "internalType": "externalEbool",
          "name": "control",
          "type": "bytes32"
        },
        {
          "internalType": "externalEaddress",
          "name": "ifTrue",
          "type": "bytes32"
        },
        {
          "internalType": "externalEaddress",
          "name": "ifFalse",
          "type": "bytes32"
        },
        {
          "internalType": "bytes",
          "name": "inputProof",
          "type": "bytes"
        }
      ],
      "name": "test_select_eaddress",
      "outputs": [],
      "stateMutability": "nonpayable",
      "type": "function"
    },
    {
      "inputs": [
        {
          "internalType": "bool",
          "name": "control",
          "type": "bool"
        },
        {
          "internalType": "bool",
          "name": "ifTrue",
          "type": "bool"
        },
        {
          "internalType": "bool",
          "name": "ifFalse",
          "type": "bool"
        }
      ],
      "name": "test_select_ebool",
      "outputs": [],
      "stateMutability": "nonpayable",
      "type": "function"
    },
    {
      "inputs": [
        {
          "internalType": "externalEuint64",
          "name": "a",
          "type": "bytes32"
        },
        {
          "internalType": "externalEuint8",
          "name": "b",
          "type": "bytes32"
        },
        {
          "internalType": "bytes",
          "name": "inputProof",
          "type": "bytes"
        }
      ],
      "name": "test_shl_euint64_euint8",
      "outputs": [],
      "stateMutability": "nonpayable",
      "type": "function"
    },
    {
      "inputs": [
        {
          "internalType": "externalEuint64",
          "name": "a",
          "type": "bytes32"
        },
        {
          "internalType": "uint8",
          "name": "b",
          "type": "uint8"
        },
        {
          "internalType": "bytes",
          "name": "inputProof",
          "type": "bytes"
        }
      ],
      "name": "test_shl_euint64_uint8",
      "outputs": [],
      "stateMutability": "nonpayable",
      "type": "function"
    },
    {
      "inputs": [
        {
          "internalType": "externalEuint64",
          "name": "a",
          "type": "bytes32"
        },
        {
          "internalType": "externalEuint8",
          "name": "b",
          "type": "bytes32"
        },
        {
          "internalType": "bytes",
          "name": "inputProof",
          "type": "bytes"
        }
      ],
      "name": "test_shr_euint64_euint8",
      "outputs": [],
      "stateMutability": "nonpayable",
      "type": "function"
    },
    {
      "inputs": [
        {
          "internalType": "externalEuint64",
          "name": "a",
          "type": "bytes32"
        },
        {
          "internalType": "uint8",
          "name": "b",
          "type": "uint8"
        },
        {
          "internalType": "bytes",
          "name": "inputProof",
          "type": "bytes"
        }
      ],
      "name": "test_shr_euint64_uint8",
      "outputs": [],
      "stateMutability": "nonpayable",
      "type": "function"
    }
  ],
  "bytecode": "0x60806040523480156200001157600080fd5b5062000032620000266200003860201b60201c565b620000e060201b60201c565b6200026c565b6200004262000209565b60405180606001604052807350157cffd6bbfa2dece204a89ec419c23ef5755d73ffffffffffffffffffffffffffffffffffffffff16815260200173e3a9105a3a932253a70f126eb1e3b589c643dd2473ffffffffffffffffffffffffffffffffffffffff16815260200173901f8942346f7ab3a01f6d7613119bca447bb03073ffffffffffffffffffffffffffffffffffffffff16815250905090565b620000f181620000f460201b60201c565b50565b600062000106620001e160201b60201c565b905081600001518160000160006101000a81548173ffffffffffffffffffffffffffffffffffffffff021916908373ffffffffffffffffffffffffffffffffffffffff16021790555081602001518160010160006101000a81548173ffffffffffffffffffffffffffffffffffffffff021916908373ffffffffffffffffffffffffffffffffffffffff16021790555081604001518160020160006101000a81548173ffffffffffffffffffffffffffffffffffffffff021916908373ffffffffffffffffffffffffffffffffffffffff1602179055505050565b60007f9e7b61f58c47dc699ac88507c4f5bb9f121c03808c5676a8078fe583e4649700905090565b6040518060600160405280600073ffffffffffffffffffffffffffffffffffffffff168152602001600073ffffffffffffffffffffffffffffffffffffffff168152602001600073ffffffffffffffffffffffffffffffffffffffff1681525090565b61417d806200027c6000396000f3fe608060405234801561001057600080fd5b50600436106102a05760003560e01c806366661fd711610167578063b7440fdb116100ce578063e9444a6f11610087578063e9444a6f1461074b578063eb04c2da14610767578063ec69947b14610785578063ec8e0bee146107a1578063f0d277bf146107bd578063f90b41ce146107d9576102a0565b8063b7440fdb1461069b578063b8da668c146106b9578063bbc307da146106d5578063c6628342146106f3578063ca52660714610711578063d1f57dce1461072f576102a0565b806381b41d841161012057806381b41d84146105f157806387cf83121461060d5780639ef639d814610629578063a71a71eb14610645578063b1d0ccea14610663578063b25264e61461067f576102a0565b806366661fd7146105475780636e5cab4114610563578063740c01f01461057f57806377d911781461059b5780637bf23e80146105b95780637fbb0e67146105d5576102a0565b8063347d67df1161020b5780634770109d116101c45780634770109d1461049f57806350ab9806146104bb578063522d9ba5146104d75780635b3f1a52146104f35780635c329edd1461050f57806362c5e4611461052b576102a0565b8063347d67df146103f7578063373c3e7d14610413578063400c465a1461042f5780634136c5211461044b57806341ff6dc3146104675780634539f49414610483576102a0565b80632020ae201161025d5780632020ae201461034d5780632478677e1461036957806327ef68e4146103855780632c57d1a6146103a15780632d37c2ff146103bd578063311d8665146103db576102a0565b806302a43b53146102a5578063036ae41f146102c157806308c373aa146102dd57806313d2d399146102f957806319147b7c146103155780631ea762ed14610331575b600080fd5b6102bf60048036038101906102ba91906135db565b6107f5565b005b6102db60048036038101906102d69190613687565b6108b1565b005b6102f760048036038101906102f29190613751565b6108d9565b005b610313600480360381019061030e9190613687565b610952565b005b61032f600480360381019061032a9190613687565b61097a565b005b61034b60048036038101906103469190613687565b6109ac565b005b610367600480360381019061036291906135db565b6109ec565b005b610383600480360381019061037e91906137c5565b610aa8565b005b61039f600480360381019061039a919061381e565b610ace565b005b6103bb60048036038101906103b691906138a6565b610bef565b005b6103c5610c3f565b6040516103d2919061391a565b60405180910390f35b6103f560048036038101906103f091906137c5565b610c45565b005b610411600480360381019061040c9190613687565b610c6b565b005b61042d600480360381019061042891906135db565b610c9b565b005b61044960048036038101906104449190613751565b610d57565b005b61046560048036038101906104609190613751565b610dd0565b005b610481600480360381019061047c9190613687565b610e49565b005b61049d6004803603810190610498919061396e565b610e79565b005b6104b960048036038101906104b4919061396e565b610ee8565b005b6104d560048036038101906104d091906139e2565b610f57565b005b6104f160048036038101906104ec91906137c5565b611023565b005b61050d600480360381019061050891906137c5565b611049565b005b610529600480360381019061052491906137c5565b61106f565b005b61054560048036038101906105409190613a82565b611095565b005b610561600480360381019061055c9190613751565b6111b6565b005b61057d60048036038101906105789190613687565b61122f565b005b6105996004803603810190610594919061396e565b611257565b005b6105a36112c6565b6040516105b09190613b19565b60405180910390f35b6105d360048036038101906105ce91906137c5565b6112cc565b005b6105ef60048036038101906105ea9190613687565b6112f2565b005b61060b60048036038101906106069190613687565b61131a565b005b6106276004803603810190610622919061396e565b611342565b005b610643600480360381019061063e9190613687565b6113b1565b005b61064d6113e3565b60405161065a9190613b43565b60405180910390f35b61067d60048036038101906106789190613687565b6113e9565b005b610699600480360381019061069491906137c5565b611411565b005b6106a3611437565b6040516106b09190613b6d565b60405180910390f35b6106d360048036038101906106ce9190613bd0565b61143d565b005b6106dd611463565b6040516106ea9190613c0c565b60405180910390f35b6106fb611469565b6040516107089190613c36565b60405180910390f35b61071961146f565b6040516107269190613c60565b60405180910390f35b61074960048036038101906107449190613687565b611475565b005b610765600480360381019061076091906139e2565b6114a7565b005b61076f611573565b60405161077c9190613c8a565b60405180910390f35b61079f600480360381019061079a9190613687565b611579565b005b6107bb60048036038101906107b69190613687565b6115b9565b005b6107d760048036038101906107d29190613687565b6115e9565b005b6107f360048036038101906107ee91906135db565b61161b565b005b6108996108468584848080601f016020809104026020016040519081016040528093929190818152602001838380828437600081840152601f19601f820116905080830192505050505050506116d7565b6108948585858080601f016020809104026020016040519081016040528093929190818152602001838380828437600081840152601f19601f8201169050808301925050505050505061176d565b611803565b6004819055506108aa600454611855565b5050505050565b6108c36108bd83611882565b826118a7565b6000819055506108d46000546118eb565b505050565b60006109298584848080601f016020809104026020016040519081016040528093929190818152602001838380828437600081840152601f19601f82011690508083019250505050505050611918565b9050600061093782866119ae565b9050610942816118eb565b5080600081905550505050505050565b6109648261095f83611882565b6119f7565b6000819055506109756000546118eb565b505050565b600061098582611882565b905060006109938483611a3b565b905061099e816118eb565b508060008190555050505050565b60006109b783611882565b905060006109c483611882565b905060006109d28383611a7f565b90506109dd816118eb565b50806000819055505050505050565b610a90610a3d8584848080601f016020809104026020016040519081016040528093929190818152602001838380828437600081840152601f19601f820116905080830192505050505050506116d7565b610a8b8585858080601f016020809104026020016040519081016040528093929190818152602001838380828437600081840152601f19601f8201169050808301925050505050505061176d565b611ac9565b600481905550610aa1600454611855565b5050505050565b610ab9610ab482611882565b611b1b565b600381905550610aca600354611b49565b5050565b6000610b1e8684848080601f016020809104026020016040519081016040528093929190818152602001838380828437600081840152601f19601f82011690508083019250505050505050611b76565b90506000610b708685858080601f016020809104026020016040519081016040528093929190818152602001838380828437600081840152601f19601f82011690508083019250505050505050611918565b90506000610bc28686868080601f016020809104026020016040519081016040528093929190818152602001838380828437600081840152601f19601f82011690508083019250505050505050611918565b90506000610bd1848484611c0c565b9050610bdc81611c70565b5080600781905550505050505050505050565b6000610bfa84611882565b90506000610c0784611882565b90506000610c1484611882565b90506000610c23848484611c9d565b9050610c2e816118eb565b508060008190555050505050505050565b60005481565b610c56610c5182611882565b611d01565b600681905550610c67600654611d2f565b5050565b610c85610c7783611882565b610c8083611882565b611d5c565b600081905550610c966000546118eb565b505050565b610d3f610cec8584848080601f016020809104026020016040519081016040528093929190818152602001838380828437600081840152601f19601f820116905080830192505050505050506116d7565b610d3a8585858080601f016020809104026020016040519081016040528093929190818152602001838380828437600081840152601f19601f8201169050808301925050505050505061176d565b611da6565b600481905550610d50600454611855565b5050505050565b6000610da78584848080601f016020809104026020016040519081016040528093929190818152602001838380828437600081840152601f19601f82011690508083019250505050505050611918565b90506000610db58583611df8565b9050610dc0816118eb565b5080600081905550505050505050565b6000610e208584848080601f016020809104026020016040519081016040528093929190818152602001838380828437600081840152601f19601f82011690508083019250505050505050611918565b90506000610e2e8286611e41565b9050610e39816118eb565b5080600081905550505050505050565b610e63610e5583611882565b610e5e83611882565b611e8a565b600081905550610e746000546118eb565b505050565b610ed0610eca8584848080601f016020809104026020016040519081016040528093929190818152602001838380828437600081840152601f19601f820116905080830192505050505050506116d7565b84611ed4565b600481905550610ee1600454611855565b5050505050565b610f3f610f398584848080601f016020809104026020016040519081016040528093929190818152602001838380828437600081840152601f19601f820116905080830192505050505050506116d7565b84611f0a565b600481905550610f50600454611855565b5050505050565b6000610fa78584848080601f016020809104026020016040519081016040528093929190818152602001838380828437600081840152601f19601f82011690508083019250505050505050611918565b90506000610ff98585858080601f016020809104026020016040519081016040528093929190818152602001838380828437600081840152601f19601f82011690508083019250505050505050611918565b905060006110078383611f40565b9050611012816118eb565b508060008190555050505050505050565b61103461102f82611882565b611f8a565b600281905550611045600254611fb8565b5050565b61105a61105582611882565b611fe5565b60048190555061106b600454611855565b5050565b61108061107b82611882565b612013565b600181905550611091600154612041565b5050565b60006110e58684848080601f016020809104026020016040519081016040528093929190818152602001838380828437600081840152601f19601f82011690508083019250505050505050611b76565b905060006111378685858080601f016020809104026020016040519081016040528093929190818152602001838380828437600081840152601f19601f8201169050808301925050505050505061206e565b905060006111898686868080601f016020809104026020016040519081016040528093929190818152602001838380828437600081840152601f19601f8201169050808301925050505050505061206e565b90506000611198848484612104565b90506111a381611b49565b5080600381905550505050505050505050565b60006112068584848080601f016020809104026020016040519081016040528093929190818152602001838380828437600081840152601f19601f82011690508083019250505050505050611918565b905060006112148583612168565b905061121f816118eb565b5080600081905550505050505050565b6112418261123c83611882565b6121b1565b6000819055506112526000546118eb565b505050565b6112ae6112a88584848080601f016020809104026020016040519081016040528093929190818152602001838380828437600081840152601f19601f820116905080830192505050505050506116d7565b846121f5565b6004819055506112bf600454611855565b5050505050565b60065481565b6112dd6112d882611882565b61222b565b6000819055506112ee6000546118eb565b5050565b6113046112fe83611882565b82612257565b6000819055506113156000546118eb565b505050565b61132c8261132783611882565b61229b565b60008190555061133d6000546118eb565b505050565b6113996113938584848080601f016020809104026020016040519081016040528093929190818152602001838380828437600081840152601f19601f820116905080830192505050505050506116d7565b846122df565b6004819055506113aa600454611855565b5050505050565b60006113bc83611882565b905060006113ca8284612315565b90506113d5816118eb565b508060008190555050505050565b60035481565b6113fb6113f583611882565b82612359565b60008190555061140c6000546118eb565b505050565b61142261141d82611882565b61239d565b6005819055506114336005546123cb565b5050565b60015481565b61144e611449826123f8565b61241e565b60018190555061145f600154612041565b5050565b60025481565b60055481565b60075481565b600061148082611882565b9050600061148e848361244c565b9050611499816118eb565b508060008190555050505050565b60006114f78584848080601f016020809104026020016040519081016040528093929190818152602001838380828437600081840152601f19601f82011690508083019250505050505050611918565b905060006115498585858080601f016020809104026020016040519081016040528093929190818152602001838380828437600081840152601f19601f82011690508083019250505050505050611918565b905060006115578383612490565b9050611562816118eb565b508060008190555050505050505050565b60045481565b600061158483611882565b9050600061159183611882565b9050600061159f83836124da565b90506115aa816118eb565b50806000819055505050505050565b6115d36115c583611882565b6115ce83611882565b612524565b6000819055506115e46000546118eb565b505050565b60006115f483611882565b90506000611602828461256e565b905061160d816118eb565b508060008190555050505050565b6116bf61166c8584848080601f016020809104026020016040519081016040528093929190818152602001838380828437600081840152601f19601f820116905080830192505050505050506116d7565b6116ba8585858080601f016020809104026020016040519081016040528093929190818152602001838380828437600081840152601f19601f8201169050808301925050505050505061176d565b6125b2565b6004819055506116d0600454611855565b5050505050565b6000808251146116f4576116ed83836005612604565b9050611767565b60008390506000801b81036117155761170d6000612752565b915050611767565b61171f8133612770565b6117625780336040517f0276b5d9000000000000000000000000000000000000000000000000000000008152600401611759929190613cc3565b60405180910390fd5b809150505b92915050565b60008082511461178a5761178383836002612604565b90506117fd565b60008390506000801b81036117ab576117a36000612826565b9150506117fd565b6117b58133612770565b6117f85780336040517f0276b5d90000000000000000000000000000000000000000000000000000000081526004016117ef929190613cc3565b60405180910390fd5b809150505b92915050565b600061180e8361283d565b61181f5761181c6000612752565b92505b6118288261284d565b611839576118366000612826565b91505b61184d836118468461285d565b600061288b565b905092915050565b60006118608261283d565b6118715761186e6000612752565b91505b61187a82612963565b819050919050565b60006118a082611893576000611896565b60015b60ff166000612a72565b9050919050565b60006118b283612b2a565b6118c3576118c06000611882565b92505b6118e383836118d35760006118d6565b60015b60ff1660001b6001612b3a565b905092915050565b60006118f682612b2a565b611907576119046000611882565b91505b61191082612963565b819050919050565b6000808251146119355761192e83836007612604565b90506119a8565b60008390506000801b81036119565761194e6000612c12565b9150506119a8565b6119608133612770565b6119a35780336040517f0276b5d900000000000000000000000000000000000000000000000000000000815260040161199a929190613cc3565b60405180910390fd5b809150505b92915050565b60006119b983612c3c565b6119ca576119c76000612c12565b92505b6119ef838373ffffffffffffffffffffffffffffffffffffffff1660001b6001612c4c565b905092915050565b6000611a0282612b2a565b611a1357611a106000611882565b91505b611a338284611a23576000611a26565b60015b60ff1660001b6001612b3a565b905092915050565b6000611a4682612b2a565b611a5757611a546000611882565b91505b611a778284611a67576000611a6a565b60015b60ff1660001b6001612c4c565b905092915050565b6000611a8a83612b2a565b611a9b57611a986000611882565b92505b611aa482612b2a565b611ab557611ab26000611882565b91505b611ac183836000612c4c565b905092915050565b6000611ad48361283d565b611ae557611ae26000612752565b92505b611aee8261284d565b611aff57611afc6000612826565b91505b611b1383611b0c8461285d565b6000612d24565b905092915050565b6000611b2682612b2a565b611b3757611b346000611882565b91505b611b42826004612dfc565b9050919050565b6000611b5482612eb4565b611b6557611b626000612ec4565b91505b611b6e82612963565b819050919050565b600080825114611b9357611b8c83836000612604565b9050611c06565b60008390506000801b8103611bb457611bac6000611882565b915050611c06565b611bbe8133612770565b611c015780336040517f0276b5d9000000000000000000000000000000000000000000000000000000008152600401611bf8929190613cc3565b60405180910390fd5b809150505b92915050565b6000611c1784612b2a565b611c2857611c256000611882565b93505b611c3183612c3c565b611c4257611c3f6000612c12565b92505b611c4b82612c3c565b611c5c57611c596000612c12565b91505b611c67848484612ede565b90509392505050565b6000611c7b82612c3c565b611c8c57611c896000612c12565b91505b611c9582612963565b819050919050565b6000611ca884612b2a565b611cb957611cb66000611882565b93505b611cc283612b2a565b611cd357611cd06000611882565b92505b611cdc82612b2a565b611ced57611cea6000611882565b91505b611cf8848484612ede565b90509392505050565b6000611d0c82612b2a565b611d1d57611d1a6000611882565b91505b611d28826008612dfc565b9050919050565b6000611d3a82612f99565b611d4b57611d486000612fa9565b91505b611d5482612963565b819050919050565b6000611d6783612b2a565b611d7857611d756000611882565b92505b611d8182612b2a565b611d9257611d8f6000611882565b91505b611d9e83836000612b3a565b905092915050565b6000611db18361283d565b611dc257611dbf6000612752565b92505b611dcb8261284d565b611ddc57611dd96000612826565b91505b611df083611de98461285d565b6000612fbd565b905092915050565b6000611e0382612c3c565b611e1457611e116000612c12565b91505b611e39828473ffffffffffffffffffffffffffffffffffffffff1660001b6001613095565b905092915050565b6000611e4c83612c3c565b611e5d57611e5a6000612c12565b92505b611e82838373ffffffffffffffffffffffffffffffffffffffff1660001b6001613095565b905092915050565b6000611e9583612b2a565b611ea657611ea36000611882565b92505b611eaf82612b2a565b611ec057611ebd6000611882565b91505b611ecc8383600061316d565b905092915050565b6000611edf8361283d565b611ef057611eed6000612752565b92505b611f02838360ff1660001b6001613245565b905092915050565b6000611f158361283d565b611f2657611f236000612752565b92505b611f38838360ff1660001b600161288b565b905092915050565b6000611f4b83612c3c565b611f5c57611f596000612c12565b92505b611f6582612c3c565b611f7657611f736000612c12565b91505b611f8283836000613095565b905092915050565b6000611f9582612b2a565b611fa657611fa36000611882565b91505b611fb1826003612dfc565b9050919050565b6000611fc38261331d565b611fd457611fd1600061332d565b91505b611fdd82612963565b819050919050565b6000611ff082612b2a565b61200157611ffe6000611882565b91505b61200c826005612dfc565b9050919050565b600061201e82612b2a565b61202f5761202c6000611882565b91505b61203a826002612dfc565b9050919050565b600061204c8261284d565b61205d5761205a6000612826565b91505b61206682612963565b819050919050565b60008082511461208b5761208483836004612604565b90506120fe565b60008390506000801b81036120ac576120a46000612ec4565b9150506120fe565b6120b68133612770565b6120f95780336040517f0276b5d90000000000000000000000000000000000000000000000000000000081526004016120f0929190613cc3565b60405180910390fd5b809150505b92915050565b600061210f84612b2a565b6121205761211d6000611882565b93505b61212983612eb4565b61213a576121376000612ec4565b92505b61214382612eb4565b612154576121516000612ec4565b91505b61215f848484612ede565b90509392505050565b600061217382612c3c565b612184576121816000612c12565b91505b6121a9828473ffffffffffffffffffffffffffffffffffffffff1660001b6001612c4c565b905092915050565b60006121bc82612b2a565b6121cd576121ca6000611882565b91505b6121ed82846121dd5760006121e0565b60015b60ff1660001b600161316d565b905092915050565b60006122008361283d565b6122115761220e6000612752565b92505b612223838360ff1660001b6001612d24565b905092915050565b600061223682612b2a565b612247576122446000611882565b91505b61225082613345565b9050919050565b600061226283612b2a565b612273576122706000611882565b92505b6122938383612283576000612286565b60015b60ff1660001b60016133fa565b905092915050565b60006122a682612b2a565b6122b7576122b46000611882565b91505b6122d782846122c75760006122ca565b60015b60ff1660001b60016133fa565b905092915050565b60006122ea8361283d565b6122fb576122f86000612752565b92505b61230d838360ff1660001b6001612fbd565b905092915050565b600061232083612b2a565b6123315761232e6000611882565b92505b6123518383612341576000612344565b60015b60ff1660001b6001613095565b905092915050565b600061236483612b2a565b612375576123726000611882565b92505b6123958383612385576000612388565b60015b60ff1660001b600161316d565b905092915050565b60006123a882612b2a565b6123b9576123b66000611882565b91505b6123c4826006612dfc565b9050919050565b60006123d6826134d2565b6123e7576123e460006123f8565b91505b6123f082612963565b819050919050565b6000612417826fffffffffffffffffffffffffffffffff166006612a72565b9050919050565b6000612429826134d2565b61243a5761243760006123f8565b91505b612445826002612dfc565b9050919050565b600061245782612b2a565b612468576124656000611882565b91505b612488828461247857600061247b565b60015b60ff1660001b6001613095565b905092915050565b600061249b83612c3c565b6124ac576124a96000612c12565b92505b6124b582612c3c565b6124c6576124c36000612c12565b91505b6124d283836000612c4c565b905092915050565b60006124e583612b2a565b6124f6576124f36000611882565b92505b6124ff82612b2a565b6125105761250d6000611882565b91505b61251c83836000613095565b905092915050565b600061252f83612b2a565b6125405761253d6000611882565b92505b61254982612b2a565b61255a576125576000611882565b91505b612566838360006133fa565b905092915050565b600061257983612b2a565b61258a576125876000611882565b92505b6125aa838361259a57600061259d565b60015b60ff1660001b6001612c4c565b905092915050565b60006125bd8361283d565b6125ce576125cb6000612752565b92505b6125d78261284d565b6125e8576125e56000612826565b91505b6125fc836125f58461285d565b6000613245565b905092915050565b60008061260f6134e2565b90508060010160009054906101000a900473ffffffffffffffffffffffffffffffffffffffff1673ffffffffffffffffffffffffffffffffffffffff166308bf832a863387876040518563ffffffff1660e01b81526004016126749493929190613df3565b6020604051808303816000875af1158015612693573d6000803e3d6000fd5b505050506040513d601f19601f820116820180604052508101906126b79190613e6b565b91508060000160009054906101000a900473ffffffffffffffffffffffffffffffffffffffff1673ffffffffffffffffffffffffffffffffffffffff16633e395cec83336040518363ffffffff1660e01b8152600401612718929190613cc3565b600060405180830381600087803b15801561273257600080fd5b505af1158015612746573d6000803e3d6000fd5b50505050509392505050565b60006127698267ffffffffffffffff166005612a72565b9050919050565b60008061277b6134e2565b90508060000160009054906101000a900473ffffffffffffffffffffffffffffffffffffffff1673ffffffffffffffffffffffffffffffffffffffff166382027b6d85856040518363ffffffff1660e01b81526004016127dc929190613cc3565b602060405180830381865afa1580156127f9573d6000803e3d6000fd5b505050506040513d601f19601f8201168201806040525081019061281d9190613ead565b91505092915050565b60006128368260ff166002612a72565b9050919050565b60008060001b8214159050919050565b60008060001b8214159050919050565b60006128688261284d565b612879576128766000612826565b91505b612884826005612dfc565b9050919050565b60008082156128a057600160f81b90506128a8565b600060f81b90505b60006128b26134e2565b90508060010160009054906101000a900473ffffffffffffffffffffffffffffffffffffffff1673ffffffffffffffffffffffffffffffffffffffff1663c021329e8787856040518463ffffffff1660e01b815260040161291593929190613f15565b6020604051808303816000875af1158015612934573d6000803e3d6000fd5b505050506040513d601f19601f820116820180604052508101906129589190613e6b565b925050509392505050565b600061296d6134e2565b90506000600167ffffffffffffffff81111561298c5761298b613f4c565b5b6040519080825280602002602001820160405280156129ba5781602001602082028036833780820191505090505b50905082816000815181106129d2576129d1613f7b565b5b6020026020010181815250508160000160009054906101000a900473ffffffffffffffffffffffffffffffffffffffff1673ffffffffffffffffffffffffffffffffffffffff1663fadd2246826040518263ffffffff1660e01b8152600401612a3b9190614068565b600060405180830381600087803b158015612a5557600080fd5b505af1158015612a69573d6000803e3d6000fd5b50505050505050565b600080612a7d6134e2565b90508060010160009054906101000a900473ffffffffffffffffffffffffffffffffffffffff1673ffffffffffffffffffffffffffffffffffffffff16639cd07acb85856040518363ffffffff1660e01b8152600401612ade9291906140a3565b6020604051808303816000875af1158015612afd573d6000803e3d6000fd5b505050506040513d601f19601f82011682018060405250810190612b219190613e6b565b91505092915050565b60008060001b8214159050919050565b6000808215612b4f57600160f81b9050612b57565b600060f81b90505b6000612b616134e2565b90508060010160009054906101000a900473ffffffffffffffffffffffffffffffffffffffff1673ffffffffffffffffffffffffffffffffffffffff16638b49ceb48787856040518463ffffffff1660e01b8152600401612bc493929190613f15565b6020604051808303816000875af1158015612be3573d6000803e3d6000fd5b505050506040513d601f19601f82011682018060405250810190612c079190613e6b565b925050509392505050565b6000612c358273ffffffffffffffffffffffffffffffffffffffff166007612a72565b9050919050565b60008060001b8214159050919050565b6000808215612c6157600160f81b9050612c69565b600060f81b90505b6000612c736134e2565b90508060010160009054906101000a900473ffffffffffffffffffffffffffffffffffffffff1673ffffffffffffffffffffffffffffffffffffffff1663f77f3f1d8787856040518463ffffffff1660e01b8152600401612cd693929190613f15565b6020604051808303816000875af1158015612cf5573d6000803e3d6000fd5b505050506040513d601f19601f82011682018060405250810190612d199190613e6b565b925050509392505050565b6000808215612d3957600160f81b9050612d41565b600060f81b90505b6000612d4b6134e2565b90508060010160009054906101000a900473ffffffffffffffffffffffffffffffffffffffff1673ffffffffffffffffffffffffffffffffffffffff166391f98ffe8787856040518463ffffffff1660e01b8152600401612dae93929190613f15565b6020604051808303816000875af1158015612dcd573d6000803e3d6000fd5b505050506040513d601f19601f82011682018060405250810190612df19190613e6b565b925050509392505050565b600080612e076134e2565b90508060010160009054906101000a900473ffffffffffffffffffffffffffffffffffffffff1673ffffffffffffffffffffffffffffffffffffffff16631c89ee4485856040518363ffffffff1660e01b8152600401612e689291906140cc565b6020604051808303816000875af1158015612e87573d6000803e3d6000fd5b505050506040513d601f19601f82011682018060405250810190612eab9190613e6b565b91505092915050565b60008060001b8214159050919050565b6000612ed78263ffffffff166004612a72565b9050919050565b600080612ee96134e2565b90508060010160009054906101000a900473ffffffffffffffffffffffffffffffffffffffff1673ffffffffffffffffffffffffffffffffffffffff16637702dcff8686866040518463ffffffff1660e01b8152600401612f4c939291906140f5565b6020604051808303816000875af1158015612f6b573d6000803e3d6000fd5b505050506040513d601f19601f82011682018060405250810190612f8f9190613e6b565b9150509392505050565b60008060001b8214159050919050565b6000612fb6826008612a72565b9050919050565b6000808215612fd257600160f81b9050612fda565b600060f81b90505b6000612fe46134e2565b90508060010160009054906101000a900473ffffffffffffffffffffffffffffffffffffffff1673ffffffffffffffffffffffffffffffffffffffff16636754b3608787856040518463ffffffff1660e01b815260040161304793929190613f15565b6020604051808303816000875af1158015613066573d6000803e3d6000fd5b505050506040513d601f19601f8201168201806040525081019061308a9190613e6b565b925050509392505050565b60008082156130aa57600160f81b90506130b2565b600060f81b90505b60006130bc6134e2565b90508060010160009054906101000a900473ffffffffffffffffffffffffffffffffffffffff1673ffffffffffffffffffffffffffffffffffffffff1663d8092cbc8787856040518463ffffffff1660e01b815260040161311f93929190613f15565b6020604051808303816000875af115801561313e573d6000803e3d6000fd5b505050506040513d601f19601f820116820180604052508101906131629190613e6b565b925050509392505050565b600080821561318257600160f81b905061318a565b600060f81b90505b60006131946134e2565b90508060010160009054906101000a900473ffffffffffffffffffffffffffffffffffffffff1673ffffffffffffffffffffffffffffffffffffffff1663d99882d58787856040518463ffffffff1660e01b81526004016131f793929190613f15565b6020604051808303816000875af1158015613216573d6000803e3d6000fd5b505050506040513d601f19601f8201168201806040525081019061323a9190613e6b565b925050509392505050565b600080821561325a57600160f81b9050613262565b600060f81b90505b600061326c6134e2565b90508060010160009054906101000a900473ffffffffffffffffffffffffffffffffffffffff1673ffffffffffffffffffffffffffffffffffffffff1663ccc480a18787856040518463ffffffff1660e01b81526004016132cf93929190613f15565b6020604051808303816000875af11580156132ee573d6000803e3d6000fd5b505050506040513d601f19601f820116820180604052508101906133129190613e6b565b925050509392505050565b60008060001b8214159050919050565b600061333e8261ffff166003612a72565b9050919050565b6000806133506134e2565b90508060010160009054906101000a900473ffffffffffffffffffffffffffffffffffffffff1673ffffffffffffffffffffffffffffffffffffffff1663f51ccfb0846040518263ffffffff1660e01b81526004016133af919061412c565b6020604051808303816000875af11580156133ce573d6000803e3d6000fd5b505050506040513d601f19601f820116820180604052508101906133f29190613e6b565b915050919050565b600080821561340f57600160f81b9050613417565b600060f81b90505b60006134216134e2565b90508060010160009054906101000a900473ffffffffffffffffffffffffffffffffffffffff1673ffffffffffffffffffffffffffffffffffffffff166363a2db298787856040518463ffffffff1660e01b815260040161348493929190613f15565b6020604051808303816000875af11580156134a3573d6000803e3d6000fd5b505050506040513d601f19601f820116820180604052508101906134c79190613e6b565b925050509392505050565b60008060001b8214159050919050565b60007f9e7b61f58c47dc699ac88507c4f5bb9f121c03808c5676a8078fe583e4649700905090565b600080fd5b600080fd5b6000819050919050565b61352781613514565b811461353257600080fd5b50565b6000813590506135448161351e565b92915050565b61355381613514565b811461355e57600080fd5b50565b6000813590506135708161354a565b92915050565b600080fd5b600080fd5b600080fd5b60008083601f84011261359b5761359a613576565b5b8235905067ffffffffffffffff8111156135b8576135b761357b565b5b6020830191508360018202830111156135d4576135d3613580565b5b9250929050565b600080600080606085870312156135f5576135f461350a565b5b600061360387828801613535565b945050602061361487828801613561565b935050604085013567ffffffffffffffff8111156136355761363461350f565b5b61364187828801613585565b925092505092959194509250565b60008115159050919050565b6136648161364f565b811461366f57600080fd5b50565b6000813590506136818161365b565b92915050565b6000806040838503121561369e5761369d61350a565b5b60006136ac85828601613672565b92505060206136bd85828601613672565b9150509250929050565b6136d081613514565b81146136db57600080fd5b50565b6000813590506136ed816136c7565b92915050565b600073ffffffffffffffffffffffffffffffffffffffff82169050919050565b600061371e826136f3565b9050919050565b61372e81613713565b811461373957600080fd5b50565b60008135905061374b81613725565b92915050565b6000806000806060858703121561376b5761376a61350a565b5b6000613779878288016136de565b945050602061378a8782880161373c565b935050604085013567ffffffffffffffff8111156137ab576137aa61350f565b5b6137b787828801613585565b925092505092959194509250565b6000602082840312156137db576137da61350a565b5b60006137e984828501613672565b91505092915050565b6137fb81613514565b811461380657600080fd5b50565b600081359050613818816137f2565b92915050565b60008060008060006080868803121561383a5761383961350a565b5b600061384888828901613809565b9550506020613859888289016136de565b945050604061386a888289016136de565b935050606086013567ffffffffffffffff81111561388b5761388a61350f565b5b61389788828901613585565b92509250509295509295909350565b6000806000606084860312156138bf576138be61350a565b5b60006138cd86828701613672565b93505060206138de86828701613672565b92505060406138ef86828701613672565b9150509250925092565b600061390482613514565b9050919050565b613914816138f9565b82525050565b600060208201905061392f600083018461390b565b92915050565b600060ff82169050919050565b61394b81613935565b811461395657600080fd5b50565b60008135905061396881613942565b92915050565b600080600080606085870312156139885761398761350a565b5b600061399687828801613535565b94505060206139a787828801613959565b935050604085013567ffffffffffffffff8111156139c8576139c761350f565b5b6139d487828801613585565b925092505092959194509250565b600080600080606085870312156139fc576139fb61350a565b5b6000613a0a878288016136de565b9450506020613a1b878288016136de565b935050604085013567ffffffffffffffff811115613a3c57613a3b61350f565b5b613a4887828801613585565b925092505092959194509250565b613a5f81613514565b8114613a6a57600080fd5b50565b600081359050613a7c81613a56565b92915050565b600080600080600060808688031215613a9e57613a9d61350a565b5b6000613aac88828901613809565b9550506020613abd88828901613a6d565b9450506040613ace88828901613a6d565b935050606086013567ffffffffffffffff811115613aef57613aee61350f565b5b613afb88828901613585565b92509250509295509295909350565b613b13816138f9565b82525050565b6000602082019050613b2e6000830184613b0a565b92915050565b613b3d816138f9565b82525050565b6000602082019050613b586000830184613b34565b92915050565b613b67816138f9565b82525050565b6000602082019050613b826000830184613b5e565b92915050565b60006fffffffffffffffffffffffffffffffff82169050919050565b613bad81613b88565b8114613bb857600080fd5b50565b600081359050613bca81613ba4565b92915050565b600060208284031215613be657613be561350a565b5b6000613bf484828501613bbb565b91505092915050565b613c06816138f9565b82525050565b6000602082019050613c216000830184613bfd565b92915050565b613c30816138f9565b82525050565b6000602082019050613c4b6000830184613c27565b92915050565b613c5a816138f9565b82525050565b6000602082019050613c756000830184613c51565b92915050565b613c84816138f9565b82525050565b6000602082019050613c9f6000830184613c7b565b92915050565b613cae81613514565b82525050565b613cbd81613713565b82525050565b6000604082019050613cd86000830185613ca5565b613ce56020830184613cb4565b9392505050565b600081519050919050565b600082825260208201905092915050565b60005b83811015613d26578082015181840152602081019050613d0b565b60008484015250505050565b6000601f19601f8301169050919050565b6000613d4e82613cec565b613d588185613cf7565b9350613d68818560208601613d08565b613d7181613d32565b840191505092915050565b7f4e487b7100000000000000000000000000000000000000000000000000000000600052602160045260246000fd5b60548110613dbc57613dbb613d7c565b5b50565b6000819050613dcd82613dab565b919050565b6000613ddd82613dbf565b9050919050565b613ded81613dd2565b82525050565b6000608082019050613e086000830187613ca5565b613e156020830186613cb4565b8181036040830152613e278185613d43565b9050613e366060830184613de4565b95945050505050565b613e4881613514565b8114613e5357600080fd5b50565b600081519050613e6581613e3f565b92915050565b600060208284031215613e8157613e8061350a565b5b6000613e8f84828501613e56565b91505092915050565b600081519050613ea78161365b565b92915050565b600060208284031215613ec357613ec261350a565b5b6000613ed184828501613e98565b91505092915050565b60007fff0000000000000000000000000000000000000000000000000000000000000082169050919050565b613f0f81613eda565b82525050565b6000606082019050613f2a6000830186613ca5565b613f376020830185613ca5565b613f446040830184613f06565b949350505050565b7f4e487b7100000000000000000000000000000000000000000000000000000000600052604160045260246000fd5b7f4e487b7100000000000000000000000000000000000000000000000000000000600052603260045260246000fd5b600081519050919050565b600082825260208201905092915050565b6000819050602082019050919050565b613fdf81613514565b82525050565b6000613ff18383613fd6565b60208301905092915050565b6000602082019050919050565b600061401582613faa565b61401f8185613fb5565b935061402a83613fc6565b8060005b8381101561405b5781516140428882613fe5565b975061404d83613ffd565b92505060018101905061402e565b5085935050505092915050565b60006020820190508181036000830152614082818461400a565b905092915050565b6000819050919050565b61409d8161408a565b82525050565b60006040820190506140b86000830185614094565b6140c56020830184613de4565b9392505050565b60006040820190506140e16000830185613ca5565b6140ee6020830184613de4565b9392505050565b600060608201905061410a6000830186613ca5565b6141176020830185613ca5565b6141246040830184613ca5565b949350505050565b60006020820190506141416000830184613ca5565b9291505056fea2646970667358221220087a901bce6bc57390cb6d5c92e9c6d9b58656115fe509231935ec2f43a6e38f64736f6c63430008180033",
  "linkReferences": {},
  "deployedLinkReferences": {}
}