{
  "_format": "hh-sol-artifact-1",
  "contractName": "Rand",
  "sourceName": "contracts/Rand.sol",
  "abi": [
    {
      "inputs": [],
      "name": "failingCall",
      "outputs": [],
      "stateMutability": "nonpayable",
      "type": "function"
    },
    {
      "inputs": [],
      "name": "generate128",
      "outputs": [],
      "stateMutability": "nonpayable",
      "type": "function"
    },
    {
      "inputs": [
        {
          "internalType": "uint128",
          "name": "upperBound",
          "type": "uint128"
        }
      ],
      "name": "generate128UpperBound",
      "outputs": [],
      "stateMutability": "nonpayable",
      "type": "function"
    },
    {
      "inputs": [],
      "name": "generate16",
      "outputs": [],
      "stateMutability": "nonpayable",
      "type": "function"
    },
    {
      "inputs": [
        {
          "internalType": "uint16",
          "name": "upperBound",
          "type": "uint16"
        }
      ],
      "name": "generate16UpperBound",
      "outputs": [],
      "stateMutability": "nonpayable",
      "type": "function"
    },
    {
      "inputs": [],
      "name": "generate256",
      "outputs": [],
      "stateMutability": "nonpayable",
      "type": "function"
    },
    {
      "inputs": [
        {
          "internalType": "uint256",
          "name": "upperBound",
          "type": "uint256"
        }
      ],
      "name": "generate256UpperBound",
      "outputs": [],
      "stateMutability": "nonpayable",
      "type": "function"
    },
    {
      "inputs": [],
      "name": "generate32",
      "outputs": [],
      "stateMutability": "nonpayable",
      "type": "function"
    },
    {
      "inputs": [
        {
          "internalType": "uint32",
          "name": "upperBound",
          "type": "uint32"
        }
      ],
      "name": "generate32UpperBound",
      "outputs": [],
      "stateMutability": "nonpayable",
      "type": "function"
    },
    {
      "inputs": [],
      "name": "generate64",
      "outputs": [],
      "stateMutability": "nonpayable",
      "type": "function"
    },
    {
      "inputs": [],
      "name": "generate64Reverting",
      "outputs": [],
      "stateMutability": "nonpayable",
      "type": "function"
    },
    {
      "inputs": [
        {
          "internalType": "uint64",
          "name": "upperBound",
          "type": "uint64"
        }
      ],
      "name": "generate64UpperBound",
      "outputs": [],
      "stateMutability": "nonpayable",
      "type": "function"
    },
    {
      "inputs": [],
      "name": "generate8",
      "outputs": [],
      "stateMutability": "nonpayable",
      "type": "function"
    },
    {
      "inputs": [
        {
          "internalType": "uint8",
          "name": "upperBound",
          "type": "uint8"
        }
      ],
      "name": "generate8UpperBound",
      "outputs": [],
      "stateMutability": "nonpayable",
      "type": "function"
    },
    {
      "inputs": [],
      "name": "generateBool",
      "outputs": [],
      "stateMutability": "nonpayable",
      "type": "function"
    },
    {
      "inputs": [],
      "name": "value128",
      "outputs": [
        {
          "internalType": "euint128",
          "name": "",
          "type": "bytes32"
        }
      ],
      "stateMutability": "view",
      "type": "function"
    },
    {
      "inputs": [],
      "name": "value16",
      "outputs": [
        {
          "internalType": "euint16",
          "name": "",
          "type": "bytes32"
        }
      ],
      "stateMutability": "view",
      "type": "function"
    },
    {
      "inputs": [],
      "name": "value256",
      "outputs": [
        {
          "internalType": "euint256",
          "name": "",
          "type": "bytes32"
        }
      ],
      "stateMutability": "view",
      "type": "function"
    },
    {
      "inputs": [],
      "name": "value32",
      "outputs": [
        {
          "internalType": "euint32",
          "name": "",
          "type": "bytes32"
        }
      ],
      "stateMutability": "view",
      "type": "function"
    },
    {
      "inputs": [],
      "name": "value64",
      "outputs": [
        {
          "internalType": "euint64",
          "name": "",
          "type": "bytes32"
        }
      ],
      "stateMutability": "view",
      "type": "function"
    },
    {
      "inputs": [],
      "name": "value64Bounded",
      "outputs": [
        {
          "internalType": "euint64",
          "name": "",
          "type": "bytes32"
        }
      ],
      "stateMutability": "view",
      "type": "function"
    },
    {
      "inputs": [],
      "name": "value8",
      "outputs": [
        {
          "internalType": "euint8",
          "name": "",
          "type": "bytes32"
        }
      ],
      "stateMutability": "view",
      "type": "function"
    },
    {
      "inputs": [],
      "name": "valueb",
      "outputs": [
        {
          "internalType": "ebool",
          "name": "",
          "type": "bytes32"
        }
      ],
      "stateMutability": "view",
      "type": "function"
    }
  ],
  "bytecode": "0x608060405234801561001057600080fd5b5061002d61002261003260201b60201c565b6100d860201b60201c565b610260565b61003a6101fd565b60405180606001604052807350157cffd6bbfa2dece204a89ec419c23ef5755d73ffffffffffffffffffffffffffffffffffffffff16815260200173e3a9105a3a932253a70f126eb1e3b589c643dd2473ffffffffffffffffffffffffffffffffffffffff16815260200173901f8942346f7ab3a01f6d7613119bca447bb03073ffffffffffffffffffffffffffffffffffffffff16815250905090565b6100e7816100ea60201b60201c565b50565b60006100fa6101d560201b60201c565b905081600001518160000160006101000a81548173ffffffffffffffffffffffffffffffffffffffff021916908373ffffffffffffffffffffffffffffffffffffffff16021790555081602001518160010160006101000a81548173ffffffffffffffffffffffffffffffffffffffff021916908373ffffffffffffffffffffffffffffffffffffffff16021790555081604001518160020160006101000a81548173ffffffffffffffffffffffffffffffffffffffff021916908373ffffffffffffffffffffffffffffffffffffffff1602179055505050565b60007f9e7b61f58c47dc699ac88507c4f5bb9f121c03808c5676a8078fe583e4649700905090565b6040518060600160405280600073ffffffffffffffffffffffffffffffffffffffff168152602001600073ffffffffffffffffffffffffffffffffffffffff168152602001600073ffffffffffffffffffffffffffffffffffffffff1681525090565b6112c180620002706000396000f3fe608060405234801561001057600080fd5b506004361061014d5760003560e01c80637d1b6aad116100c3578063c36b470c1161007c578063c36b470c146102d2578063c9056ffb146102ee578063d868846d1461030a578063e354c23014610326578063f7b0217514610330578063ffc789bc1461033a5761014d565b80637d1b6aad146102705780638a7e993f1461027a5780639395773c1461029857806398de4cee146102a2578063bc6ab4e6146102ac578063bd26d5b5146102c85761014d565b806341430b271161011557806341430b27146101e657806344e63c1a146101f05780634622a6451461020e5780635e5e128b1461022c578063783842c91461023657806378c9f534146102545761014d565b80630e6433d114610152578063135870d5146101705780631b695ea01461018e5780632d61bb42146101aa57806337562a1a146101c8575b600080fd5b61015a610344565b6040516101679190610c93565b60405180910390f35b61017861034a565b6040516101859190610cbd565b60405180910390f35b6101a860048036038101906101a39190610d1d565b610350565b005b6101b261036e565b6040516101bf9190610d59565b60405180910390f35b6101d0610374565b6040516101dd9190610d83565b60405180910390f35b6101ee61037a565b005b6101f8610396565b6040516102059190610dad565b60405180910390f35b61021661039c565b6040516102239190610dd7565b60405180910390f35b6102346103a2565b005b61023e6103be565b60405161024b9190610e01565b60405180910390f35b61026e60048036038101906102699190610e58565b6103c4565b005b6102786103e2565b005b6102826103fe565b60405161028f9190610d83565b60405180910390f35b6102a0610404565b005b6102aa610420565b005b6102c660048036038101906102c19190610ebf565b61043e565b005b6102d061045c565b005b6102ec60048036038101906102e79190610f34565b610478565b005b61030860048036038101906103039190610f9a565b610496565b005b610324600480360381019061031f9190610ffd565b6104b4565b005b61032e6104d2565b005b6103386104ee565b005b61034261050a565b005b60015481565b60025481565b61035981610583565b60048190555061036a6004546105a1565b5050565b60075481565b60055481565b6103826105ce565b6002819055506103936002546105df565b50565b60065481565b60035481565b6103aa61060c565b6006819055506103bb60065461061d565b50565b60005481565b6103cd8161064a565b6003819055506103de600354610664565b5050565b6103ea610691565b6003819055506103fb600354610664565b50565b60045481565b61040c6106a2565b60078190555061041d6007546106b3565b50565b6104286106e0565b6004819055506104396004546105a1565b600080fd5b610447816106f1565b6002819055506104586002546105df565b5050565b6104646106e0565b6004819055506104756004546105a1565b50565b61048181610709565b60068190555061049260065461061d565b5050565b61049f8161072f565b6001819055506104b0600154610746565b5050565b6104bd81610773565b6007819055506104ce6007546106b3565b5050565b6104da610787565b6000819055506104eb600054610798565b50565b6104f66107c5565b600181905550610507600154610746565b50565b3073ffffffffffffffffffffffffffffffffffffffff166398de4cee6040518163ffffffff1660e01b8152600401600060405180830381600087803b15801561055257600080fd5b505af1925050508015610563575060015b5061056f610400610583565b6005819055506105806005546105a1565b50565b600061059a8267ffffffffffffffff1660056107d6565b9050919050565b60006105ac8261088e565b6105bd576105ba600061089e565b91505b6105c6826108bc565b819050919050565b60006105da60036109cb565b905090565b60006105ea82610a80565b6105fb576105f86000610a90565b91505b610604826108bc565b819050919050565b600061061860066109cb565b905090565b600061062882610aa8565b610639576106366000610ab8565b91505b610642826108bc565b819050919050565b600061065d8263ffffffff1660046107d6565b9050919050565b600061066f82610ade565b6106805761067d6000610aee565b91505b610689826108bc565b819050919050565b600061069d60046109cb565b905090565b60006106ae60086109cb565b905090565b60006106be82610b08565b6106cf576106cc6000610b18565b91505b6106d8826108bc565b819050919050565b60006106ec60056109cb565b905090565b60006107028261ffff1660036107d6565b9050919050565b6000610728826fffffffffffffffffffffffffffffffff1660066107d6565b9050919050565b600061073f8260ff1660026107d6565b9050919050565b600061075182610b2c565b6107625761075f6000610b3c565b91505b61076b826108bc565b819050919050565b60006107808260086107d6565b9050919050565b600061079360006109cb565b905090565b60006107a382610b53565b6107b4576107b16000610b63565b91505b6107bd826108bc565b819050919050565b60006107d160026109cb565b905090565b6000806107e1610b88565b90508060010160009054906101000a900473ffffffffffffffffffffffffffffffffffffffff1673ffffffffffffffffffffffffffffffffffffffff166348eef47e85856040518363ffffffff1660e01b81526004016108429291906110b0565b6020604051808303816000875af1158015610861573d6000803e3d6000fd5b505050506040513d601f19601f820116820180604052508101906108859190611105565b91505092915050565b60008060001b8214159050919050565b60006108b58267ffffffffffffffff166005610bb0565b9050919050565b60006108c6610b88565b90506000600167ffffffffffffffff8111156108e5576108e4611132565b5b6040519080825280602002602001820160405280156109135781602001602082028036833780820191505090505b509050828160008151811061092b5761092a611161565b5b6020026020010181815250508160000160009054906101000a900473ffffffffffffffffffffffffffffffffffffffff1673ffffffffffffffffffffffffffffffffffffffff1663fadd2246826040518263ffffffff1660e01b8152600401610994919061124e565b600060405180830381600087803b1580156109ae57600080fd5b505af11580156109c2573d6000803e3d6000fd5b50505050505050565b6000806109d6610b88565b90508060010160009054906101000a900473ffffffffffffffffffffffffffffffffffffffff1673ffffffffffffffffffffffffffffffffffffffff1663d75d6e8a846040518263ffffffff1660e01b8152600401610a359190611270565b6020604051808303816000875af1158015610a54573d6000803e3d6000fd5b505050506040513d601f19601f82011682018060405250810190610a789190611105565b915050919050565b60008060001b8214159050919050565b6000610aa18261ffff166003610bb0565b9050919050565b60008060001b8214159050919050565b6000610ad7826fffffffffffffffffffffffffffffffff166006610bb0565b9050919050565b60008060001b8214159050919050565b6000610b018263ffffffff166004610bb0565b9050919050565b60008060001b8214159050919050565b6000610b25826008610bb0565b9050919050565b60008060001b8214159050919050565b6000610b4c8260ff166002610bb0565b9050919050565b60008060001b8214159050919050565b6000610b8182610b74576000610b77565b60015b60ff166000610bb0565b9050919050565b60007f9e7b61f58c47dc699ac88507c4f5bb9f121c03808c5676a8078fe583e4649700905090565b600080610bbb610b88565b90508060010160009054906101000a900473ffffffffffffffffffffffffffffffffffffffff1673ffffffffffffffffffffffffffffffffffffffff16639cd07acb85856040518363ffffffff1660e01b8152600401610c1c9291906110b0565b6020604051808303816000875af1158015610c3b573d6000803e3d6000fd5b505050506040513d601f19601f82011682018060405250810190610c5f9190611105565b91505092915050565b6000819050919050565b6000610c7d82610c68565b9050919050565b610c8d81610c72565b82525050565b6000602082019050610ca86000830184610c84565b92915050565b610cb781610c72565b82525050565b6000602082019050610cd26000830184610cae565b92915050565b600080fd5b600067ffffffffffffffff82169050919050565b610cfa81610cdd565b8114610d0557600080fd5b50565b600081359050610d1781610cf1565b92915050565b600060208284031215610d3357610d32610cd8565b5b6000610d4184828501610d08565b91505092915050565b610d5381610c72565b82525050565b6000602082019050610d6e6000830184610d4a565b92915050565b610d7d81610c72565b82525050565b6000602082019050610d986000830184610d74565b92915050565b610da781610c72565b82525050565b6000602082019050610dc26000830184610d9e565b92915050565b610dd181610c72565b82525050565b6000602082019050610dec6000830184610dc8565b92915050565b610dfb81610c72565b82525050565b6000602082019050610e166000830184610df2565b92915050565b600063ffffffff82169050919050565b610e3581610e1c565b8114610e4057600080fd5b50565b600081359050610e5281610e2c565b92915050565b600060208284031215610e6e57610e6d610cd8565b5b6000610e7c84828501610e43565b91505092915050565b600061ffff82169050919050565b610e9c81610e85565b8114610ea757600080fd5b50565b600081359050610eb981610e93565b92915050565b600060208284031215610ed557610ed4610cd8565b5b6000610ee384828501610eaa565b91505092915050565b60006fffffffffffffffffffffffffffffffff82169050919050565b610f1181610eec565b8114610f1c57600080fd5b50565b600081359050610f2e81610f08565b92915050565b600060208284031215610f4a57610f49610cd8565b5b6000610f5884828501610f1f565b91505092915050565b600060ff82169050919050565b610f7781610f61565b8114610f8257600080fd5b50565b600081359050610f9481610f6e565b92915050565b600060208284031215610fb057610faf610cd8565b5b6000610fbe84828501610f85565b91505092915050565b6000819050919050565b610fda81610fc7565b8114610fe557600080fd5b50565b600081359050610ff781610fd1565b92915050565b60006020828403121561101357611012610cd8565b5b600061102184828501610fe8565b91505092915050565b61103381610fc7565b82525050565b7f4e487b7100000000000000000000000000000000000000000000000000000000600052602160045260246000fd5b6054811061107957611078611039565b5b50565b600081905061108a82611068565b919050565b600061109a8261107c565b9050919050565b6110aa8161108f565b82525050565b60006040820190506110c5600083018561102a565b6110d260208301846110a1565b9392505050565b6110e281610c68565b81146110ed57600080fd5b50565b6000815190506110ff816110d9565b92915050565b60006020828403121561111b5761111a610cd8565b5b6000611129848285016110f0565b91505092915050565b7f4e487b7100000000000000000000000000000000000000000000000000000000600052604160045260246000fd5b7f4e487b7100000000000000000000000000000000000000000000000000000000600052603260045260246000fd5b600081519050919050565b600082825260208201905092915050565b6000819050602082019050919050565b6111c581610c68565b82525050565b60006111d783836111bc565b60208301905092915050565b6000602082019050919050565b60006111fb82611190565b611205818561119b565b9350611210836111ac565b8060005b8381101561124157815161122888826111cb565b9750611233836111e3565b925050600181019050611214565b5085935050505092915050565b6000602082019050818103600083015261126881846111f0565b905092915050565b600060208201905061128560008301846110a1565b9291505056fea26469706673582212202cdf978e13936ab0732953d5938853fe23d1dc8812ca4346bc42b8d2c2b6fa9a64736f6c63430008180033",
  "linkReferences": {},
  "deployedLinkReferences": {}
}