{
  "_format": "hh-sol-artifact-1",
  "contractName": "TestInput",
  "sourceName": "contracts/smoke/TestInput.sol",
  "abi": [
    {
      "inputs": [
        {
          "internalType": "bytes32",
          "name": "handle",
          "type": "bytes32"
        },
        {
          "internalType": "address",
          "name": "sender",
          "type": "address"
        }
      ],
      "name": "SenderNotAllowedToUseHandle",
      "type": "error"
    },
    {
      "inputs": [
        {
          "internalType": "externalEuint64",
          "name": "inputHandle",
          "type": "bytes32"
        },
        {
          "internalType": "bytes",
          "name": "inputProof",
          "type": "bytes"
        }
      ],
      "name": "add42ToInput64",
      "outputs": [],
      "stateMutability": "nonpayable",
      "type": "function"
    },
    {
      "inputs": [
        {
          "internalType": "externalEuint64",
          "name": "inputHandle",
          "type": "bytes32"
        },
        {
          "internalType": "bytes",
          "name": "inputProof",
          "type": "bytes"
        }
      ],
      "name": "requestUint64NonTrivial",
      "outputs": [],
      "stateMutability": "nonpayable",
      "type": "function"
    },
    {
      "inputs": [],
      "name": "resUint64",
      "outputs": [
        {
          "internalType": "euint64",
          "name": "",
          "type": "bytes32"
        }
      ],
      "stateMutability": "view",
      "type": "function"
    }
  ],
  "bytecode": "0x608060405234801561001057600080fd5b5061002d61002261003260201b60201c565b6100d860201b60201c565b610260565b61003a6101fd565b60405180606001604052807350157cffd6bbfa2dece204a89ec419c23ef5755d73ffffffffffffffffffffffffffffffffffffffff16815260200173e3a9105a3a932253a70f126eb1e3b589c643dd2473ffffffffffffffffffffffffffffffffffffffff16815260200173901f8942346f7ab3a01f6d7613119bca447bb03073ffffffffffffffffffffffffffffffffffffffff16815250905090565b6100e7816100ea60201b60201c565b50565b60006100fa6101d560201b60201c565b905081600001518160000160006101000a81548173ffffffffffffffffffffffffffffffffffffffff021916908373ffffffffffffffffffffffffffffffffffffffff16021790555081602001518160010160006101000a81548173ffffffffffffffffffffffffffffffffffffffff021916908373ffffffffffffffffffffffffffffffffffffffff16021790555081604001518160020160006101000a81548173ffffffffffffffffffffffffffffffffffffffff021916908373ffffffffffffffffffffffffffffffffffffffff1602179055505050565b60007f9e7b61f58c47dc699ac88507c4f5bb9f121c03808c5676a8078fe583e4649700905090565b6040518060600160405280600073ffffffffffffffffffffffffffffffffffffffff168152602001600073ffffffffffffffffffffffffffffffffffffffff168152602001600073ffffffffffffffffffffffffffffffffffffffff1681525090565b610e9b8061026f6000396000f3fe608060405234801561001057600080fd5b50600436106100415760003560e01c806354cef950146100465780637311bf9614610062578063d258d88714610080575b600080fd5b610060600480360381019061005b919061094d565b61009c565b005b61006a610138565b60405161007791906109ce565b60405180910390f35b61009a6004803603810190610095919061094d565b61013e565b005b60006100ec8484848080601f016020809104026020016040519081016040528093929190818152602001838380828437600081840152601f19601f820116905080830192505050505050506101a3565b905060006100fa602a610239565b90506101068282610257565b6000819055506101176000546102a1565b50610124600054336102cf565b506101306000546102fe565b505050505050565b60005481565b61018c8383838080601f016020809104026020016040519081016040528093929190818152602001838380828437600081840152601f19601f820116905080830192505050505050506101a3565b60008190555061019d6000546102a1565b50505050565b6000808251146101c0576101b98383600561032b565b9050610233565b60008390506000801b81036101e1576101d96000610239565b915050610233565b6101eb8133610479565b61022e5780336040517f0276b5d9000000000000000000000000000000000000000000000000000000008152600401610225929190610a39565b60405180910390fd5b809150505b92915050565b60006102508267ffffffffffffffff16600561052f565b9050919050565b6000610262836105e7565b610273576102706000610239565b92505b61027c826105e7565b61028d5761028a6000610239565b91505b610299838360006105f7565b905092915050565b60006102ac826105e7565b6102bd576102ba6000610239565b91505b6102c782306106cf565b819050919050565b60006102da836105e7565b6102eb576102e86000610239565b92505b6102f583836106cf565b82905092915050565b6000610309826105e7565b61031a576103176000610239565b91505b61032382610771565b819050919050565b600080610336610880565b90508060010160009054906101000a900473ffffffffffffffffffffffffffffffffffffffff1673ffffffffffffffffffffffffffffffffffffffff166308bf832a863387876040518563ffffffff1660e01b815260040161039b9493929190610b69565b6020604051808303816000875af11580156103ba573d6000803e3d6000fd5b505050506040513d601f19601f820116820180604052508101906103de9190610be1565b91508060000160009054906101000a900473ffffffffffffffffffffffffffffffffffffffff1673ffffffffffffffffffffffffffffffffffffffff16633e395cec83336040518363ffffffff1660e01b815260040161043f929190610a39565b600060405180830381600087803b15801561045957600080fd5b505af115801561046d573d6000803e3d6000fd5b50505050509392505050565b600080610484610880565b90508060000160009054906101000a900473ffffffffffffffffffffffffffffffffffffffff1673ffffffffffffffffffffffffffffffffffffffff166382027b6d85856040518363ffffffff1660e01b81526004016104e5929190610a39565b602060405180830381865afa158015610502573d6000803e3d6000fd5b505050506040513d601f19601f820116820180604052508101906105269190610c46565b91505092915050565b60008061053a610880565b90508060010160009054906101000a900473ffffffffffffffffffffffffffffffffffffffff1673ffffffffffffffffffffffffffffffffffffffff16639cd07acb85856040518363ffffffff1660e01b815260040161059b929190610c8c565b6020604051808303816000875af11580156105ba573d6000803e3d6000fd5b505050506040513d601f19601f820116820180604052508101906105de9190610be1565b91505092915050565b60008060001b8214159050919050565b600080821561060c57600160f81b9050610614565b600060f81b90505b600061061e610880565b90508060010160009054906101000a900473ffffffffffffffffffffffffffffffffffffffff1673ffffffffffffffffffffffffffffffffffffffff1663117b2f388787856040518463ffffffff1660e01b815260040161068193929190610cf0565b6020604051808303816000875af11580156106a0573d6000803e3d6000fd5b505050506040513d601f19601f820116820180604052508101906106c49190610be1565b925050509392505050565b60006106d9610880565b90508060000160009054906101000a900473ffffffffffffffffffffffffffffffffffffffff1673ffffffffffffffffffffffffffffffffffffffff1663b9496b6284846040518363ffffffff1660e01b815260040161073a929190610a39565b600060405180830381600087803b15801561075457600080fd5b505af1158015610768573d6000803e3d6000fd5b50505050505050565b600061077b610880565b90506000600167ffffffffffffffff81111561079a57610799610d27565b5b6040519080825280602002602001820160405280156107c85781602001602082028036833780820191505090505b50905082816000815181106107e0576107df610d56565b5b6020026020010181815250508160000160009054906101000a900473ffffffffffffffffffffffffffffffffffffffff1673ffffffffffffffffffffffffffffffffffffffff1663fadd2246826040518263ffffffff1660e01b81526004016108499190610e43565b600060405180830381600087803b15801561086357600080fd5b505af1158015610877573d6000803e3d6000fd5b50505050505050565b60007f9e7b61f58c47dc699ac88507c4f5bb9f121c03808c5676a8078fe583e4649700905090565b600080fd5b600080fd5b6000819050919050565b6108c5816108b2565b81146108d057600080fd5b50565b6000813590506108e2816108bc565b92915050565b600080fd5b600080fd5b600080fd5b60008083601f84011261090d5761090c6108e8565b5b8235905067ffffffffffffffff81111561092a576109296108ed565b5b602083019150836001820283011115610946576109456108f2565b5b9250929050565b600080600060408486031215610966576109656108a8565b5b6000610974868287016108d3565b935050602084013567ffffffffffffffff811115610995576109946108ad565b5b6109a1868287016108f7565b92509250509250925092565b60006109b8826108b2565b9050919050565b6109c8816109ad565b82525050565b60006020820190506109e360008301846109bf565b92915050565b6109f2816108b2565b82525050565b600073ffffffffffffffffffffffffffffffffffffffff82169050919050565b6000610a23826109f8565b9050919050565b610a3381610a18565b82525050565b6000604082019050610a4e60008301856109e9565b610a5b6020830184610a2a565b9392505050565b600081519050919050565b600082825260208201905092915050565b60005b83811015610a9c578082015181840152602081019050610a81565b60008484015250505050565b6000601f19601f8301169050919050565b6000610ac482610a62565b610ace8185610a6d565b9350610ade818560208601610a7e565b610ae781610aa8565b840191505092915050565b7f4e487b7100000000000000000000000000000000000000000000000000000000600052602160045260246000fd5b60548110610b3257610b31610af2565b5b50565b6000819050610b4382610b21565b919050565b6000610b5382610b35565b9050919050565b610b6381610b48565b82525050565b6000608082019050610b7e60008301876109e9565b610b8b6020830186610a2a565b8181036040830152610b9d8185610ab9565b9050610bac6060830184610b5a565b95945050505050565b610bbe816108b2565b8114610bc957600080fd5b50565b600081519050610bdb81610bb5565b92915050565b600060208284031215610bf757610bf66108a8565b5b6000610c0584828501610bcc565b91505092915050565b60008115159050919050565b610c2381610c0e565b8114610c2e57600080fd5b50565b600081519050610c4081610c1a565b92915050565b600060208284031215610c5c57610c5b6108a8565b5b6000610c6a84828501610c31565b91505092915050565b6000819050919050565b610c8681610c73565b82525050565b6000604082019050610ca16000830185610c7d565b610cae6020830184610b5a565b9392505050565b60007fff0000000000000000000000000000000000000000000000000000000000000082169050919050565b610cea81610cb5565b82525050565b6000606082019050610d0560008301866109e9565b610d1260208301856109e9565b610d1f6040830184610ce1565b949350505050565b7f4e487b7100000000000000000000000000000000000000000000000000000000600052604160045260246000fd5b7f4e487b7100000000000000000000000000000000000000000000000000000000600052603260045260246000fd5b600081519050919050565b600082825260208201905092915050565b6000819050602082019050919050565b610dba816108b2565b82525050565b6000610dcc8383610db1565b60208301905092915050565b6000602082019050919050565b6000610df082610d85565b610dfa8185610d90565b9350610e0583610da1565b8060005b83811015610e36578151610e1d8882610dc0565b9750610e2883610dd8565b925050600181019050610e09565b5085935050505092915050565b60006020820190508181036000830152610e5d8184610de5565b90509291505056fea2646970667358221220a8f5333620ab1e0c5d24ed252bbecb45324970fd384adc8c516bec138c9559b164736f6c63430008180033",
  "linkReferences": {},
  "deployedLinkReferences": {}
}