{
  "_format": "hh-sol-artifact-1",
  "contractName": "SmartWalletWithDelegation",
  "sourceName": "contracts/SmartWalletWithDelegation.sol",
  "abi": [
    {
      "inputs": [
        {
          "internalType": "address",
          "name": "_owner",
          "type": "address"
        }
      ],
      "stateMutability": "nonpayable",
      "type": "constructor"
    },
    {
      "anonymous": false,
      "inputs": [
        {
          "indexed": true,
          "internalType": "uint256",
          "name": "txId",
          "type": "uint256"
        },
        {
          "indexed": false,
          "internalType": "address",
          "name": "target",
          "type": "address"
        },
        {
          "indexed": false,
          "internalType": "bytes",
          "name": "data",
          "type": "bytes"
        }
      ],
      "name": "ProposedTx",
      "type": "event"
    },
    {
      "inputs": [
        {
          "internalType": "address",
          "name": "delegate",
          "type": "address"
        },
        {
          "internalType": "address",
          "name": "delegateContractAddress",
          "type": "address"
        },
        {
          "internalType": "uint64",
          "name": "expirationTimestamp",
          "type": "uint64"
        }
      ],
      "name": "delegateUserDecryption",
      "outputs": [],
      "stateMutability": "nonpayable",
      "type": "function"
    },
    {
      "inputs": [
        {
          "internalType": "uint256",
          "name": "txId",
          "type": "uint256"
        }
      ],
      "name": "executeTx",
      "outputs": [],
      "stateMutability": "nonpayable",
      "type": "function"
    },
    {
      "inputs": [
        {
          "internalType": "uint256",
          "name": "",
          "type": "uint256"
        }
      ],
      "name": "executed",
      "outputs": [
        {
          "internalType": "bool",
          "name": "",
          "type": "bool"
        }
      ],
      "stateMutability": "view",
      "type": "function"
    },
    {
      "inputs": [
        {
          "internalType": "address",
          "name": "delegate",
          "type": "address"
        },
        {
          "internalType": "address",
          "name": "delegateContractAddress",
          "type": "address"
        }
      ],
      "name": "getDelegatedUserDecryptionExpirationDate",
      "outputs": [
        {
          "internalType": "uint64",
          "name": "",
          "type": "uint64"
        }
      ],
      "stateMutability": "view",
      "type": "function"
    },
    {
      "inputs": [],
      "name": "owner",
      "outputs": [
        {
          "internalType": "address",
          "name": "",
          "type": "address"
        }
      ],
      "stateMutability": "view",
      "type": "function"
    },
    {
      "inputs": [
        {
          "internalType": "address",
          "name": "target",
          "type": "address"
        },
        {
          "internalType": "bytes",
          "name": "data",
          "type": "bytes"
        }
      ],
      "name": "proposeTx",
      "outputs": [
        {
          "internalType": "uint256",
          "name": "",
          "type": "uint256"
        }
      ],
      "stateMutability": "nonpayable",
      "type": "function"
    },
    {
      "inputs": [
        {
          "internalType": "address",
          "name": "delegate",
          "type": "address"
        },
        {
          "internalType": "address",
          "name": "delegateContractAddress",
          "type": "address"
        }
      ],
      "name": "revokeUserDecryptionDelegation",
      "outputs": [],
      "stateMutability": "nonpayable",
      "type": "function"
    },
    {
      "inputs": [
        {
          "internalType": "uint256",
          "name": "",
          "type": "uint256"
        }
      ],
      "name": "transactions",
      "outputs": [
        {
          "internalType": "address",
          "name": "target",
          "type": "address"
        },
        {
          "internalType": "bytes",
          "name": "data",
          "type": "bytes"
        }
      ],
      "stateMutability": "view",
      "type": "function"
    },
    {
      "inputs": [],
      "name": "txCounter",
      "outputs": [
        {
          "internalType": "uint256",
          "name": "",
          "type": "uint256"
        }
      ],
      "stateMutability": "view",
      "type": "function"
    }
  ],
  "bytecode": "0x60806040523480156200001157600080fd5b5060405162001b1c38038062001b1c8339818101604052810190620000379190620003af565b620000576200004b6200011160201b60201c565b620001b960201b60201c565b600073ffffffffffffffffffffffffffffffffffffffff168173ffffffffffffffffffffffffffffffffffffffff1603620000c9576040517f08c379a0000000000000000000000000000000000000000000000000000000008152600401620000c09062000442565b60405180910390fd5b80600160006101000a81548173ffffffffffffffffffffffffffffffffffffffff021916908373ffffffffffffffffffffffffffffffffffffffff1602179055505062000464565b6200011b620002e2565b60405180606001604052807350157cffd6bbfa2dece204a89ec419c23ef5755d73ffffffffffffffffffffffffffffffffffffffff16815260200173e3a9105a3a932253a70f126eb1e3b589c643dd2473ffffffffffffffffffffffffffffffffffffffff16815260200173901f8942346f7ab3a01f6d7613119bca447bb03073ffffffffffffffffffffffffffffffffffffffff16815250905090565b620001ca81620001cd60201b60201c565b50565b6000620001df620002ba60201b60201c565b905081600001518160000160006101000a81548173ffffffffffffffffffffffffffffffffffffffff021916908373ffffffffffffffffffffffffffffffffffffffff16021790555081602001518160010160006101000a81548173ffffffffffffffffffffffffffffffffffffffff021916908373ffffffffffffffffffffffffffffffffffffffff16021790555081604001518160020160006101000a81548173ffffffffffffffffffffffffffffffffffffffff021916908373ffffffffffffffffffffffffffffffffffffffff1602179055505050565b60007f9e7b61f58c47dc699ac88507c4f5bb9f121c03808c5676a8078fe583e4649700905090565b6040518060600160405280600073ffffffffffffffffffffffffffffffffffffffff168152602001600073ffffffffffffffffffffffffffffffffffffffff168152602001600073ffffffffffffffffffffffffffffffffffffffff1681525090565b600080fd5b600073ffffffffffffffffffffffffffffffffffffffff82169050919050565b600062000377826200034a565b9050919050565b62000389816200036a565b81146200039557600080fd5b50565b600081519050620003a9816200037e565b92915050565b600060208284031215620003c857620003c762000345565b5b6000620003d88482850162000398565b91505092915050565b600082825260208201905092915050565b7f4f776e65722063616e6e6f74206265207a65726f206164647265737300000000600082015250565b60006200042a601c83620003e1565b91506200043782620003f2565b602082019050919050565b600060208201905081810360008301526200045d816200041b565b9050919050565b6116a880620004746000396000f3fe608060405234801561001057600080fd5b50600436106100935760003560e01c80638da5cb5b116100665780638da5cb5b14610132578063950c4af7146101505780639ace38c21461016c578063af594a881461019d578063d3ecebd7146101b957610093565b80631eaa70521461009857806337154813146100c857806354b5fe80146100f857806374f079b814610114575b600080fd5b6100b260048036038101906100ad9190610c24565b6101e9565b6040516100bf9190610c87565b60405180910390f35b6100e260048036038101906100dd9190610d07565b6101fe565b6040516100ef9190610d80565b60405180910390f35b610112600480360381019061010d9190610dc7565b6103d7565b005b61011c61070a565b6040516101299190610d80565b60405180910390f35b61013a610710565b6040516101479190610e03565b60405180910390f35b61016a60048036038101906101659190610e4a565b610736565b005b61018660048036038101906101819190610dc7565b6107d6565b604051610194929190610f2d565b60405180910390f35b6101b760048036038101906101b29190610c24565b6108a2565b005b6101d360048036038101906101ce9190610dc7565b610940565b6040516101e09190610f78565b60405180910390f35b60006101f6308484610960565b905092915050565b6000600160009054906101000a900473ffffffffffffffffffffffffffffffffffffffff1673ffffffffffffffffffffffffffffffffffffffff163373ffffffffffffffffffffffffffffffffffffffff1614610290576040517f08c379a000000000000000000000000000000000000000000000000000000000815260040161028790610ff0565b60405180910390fd5b6000808154809291906102a29061103f565b919050555060008054905060405180604001604052808673ffffffffffffffffffffffffffffffffffffffff16815260200185858080601f016020809104026020016040519081016040528093929190818152602001838380828437600081840152601f19601f82011690508083019250505050505050815250600260008054815260200190815260200160002060008201518160000160006101000a81548173ffffffffffffffffffffffffffffffffffffffff021916908373ffffffffffffffffffffffffffffffffffffffff160217905550602082015181600101908161038c91906112c2565b50905050807fb3e0c602261177ab2e27b7352c513dd741a08f672aac576ea6b9f46c4cabcc1c8686866040516103c4939291906113d0565b60405180910390a2809150509392505050565b600160009054906101000a900473ffffffffffffffffffffffffffffffffffffffff1673ffffffffffffffffffffffffffffffffffffffff163373ffffffffffffffffffffffffffffffffffffffff1614610467576040517f08c379a000000000000000000000000000000000000000000000000000000000815260040161045e90610ff0565b60405180910390fd5b6000811415801561047a57506000548111155b6104b9576040517f08c379a00000000000000000000000000000000000000000000000000000000081526004016104b09061144e565b60405180910390fd5b6003600082815260200190815260200160002060009054906101000a900460ff161561051a576040517f08c379a0000000000000000000000000000000000000000000000000000000008152600401610511906114ba565b60405180910390fd5b6000600260008381526020019081526020016000206040518060400160405290816000820160009054906101000a900473ffffffffffffffffffffffffffffffffffffffff1673ffffffffffffffffffffffffffffffffffffffff1673ffffffffffffffffffffffffffffffffffffffff1681526020016001820180546105a0906110e5565b80601f01602080910402602001604051908101604052809291908181526020018280546105cc906110e5565b80156106195780601f106105ee57610100808354040283529160200191610619565b820191906000526020600020905b8154815290600101906020018083116105fc57829003601f168201915b50505050508152505090506000816000015173ffffffffffffffffffffffffffffffffffffffff1682602001516040516106539190611516565b6000604051808303816000865af19150503d8060008114610690576040519150601f19603f3d011682016040523d82523d6000602084013e610695565b606091505b50509050806106d9576040517f08c379a00000000000000000000000000000000000000000000000000000000081526004016106d090611579565b60405180910390fd5b60016003600085815260200190815260200160002060006101000a81548160ff021916908315150217905550505050565b60005481565b600160009054906101000a900473ffffffffffffffffffffffffffffffffffffffff1681565b600160009054906101000a900473ffffffffffffffffffffffffffffffffffffffff1673ffffffffffffffffffffffffffffffffffffffff163373ffffffffffffffffffffffffffffffffffffffff16146107c6576040517f08c379a00000000000000000000000000000000000000000000000000000000081526004016107bd90610ff0565b60405180910390fd5b6107d1838383610976565b505050565b60026020528060005260406000206000915090508060000160009054906101000a900473ffffffffffffffffffffffffffffffffffffffff169080600101805461081f906110e5565b80601f016020809104026020016040519081016040528092919081815260200182805461084b906110e5565b80156108985780601f1061086d57610100808354040283529160200191610898565b820191906000526020600020905b81548152906001019060200180831161087b57829003601f168201915b5050505050905082565b600160009054906101000a900473ffffffffffffffffffffffffffffffffffffffff1673ffffffffffffffffffffffffffffffffffffffff163373ffffffffffffffffffffffffffffffffffffffff1614610932576040517f08c379a000000000000000000000000000000000000000000000000000000000815260040161092990610ff0565b60405180910390fd5b61093c8282610986565b5050565b60036020528060005260406000206000915054906101000a900460ff1681565b600061096d848484610994565b90509392505050565b610981838383610a4d565b505050565b6109908282610af2565b5050565b60008061099f610b94565b90508060000160009054906101000a900473ffffffffffffffffffffffffffffffffffffffff1673ffffffffffffffffffffffffffffffffffffffff16633f462dbe8686866040518463ffffffff1660e01b8152600401610a0293929190611599565b602060405180830381865afa158015610a1f573d6000803e3d6000fd5b505050506040513d601f19601f82011682018060405250810190610a4391906115e5565b9150509392505050565b6000610a57610b94565b90508060000160009054906101000a900473ffffffffffffffffffffffffffffffffffffffff1673ffffffffffffffffffffffffffffffffffffffff166304f61a958585856040518463ffffffff1660e01b8152600401610aba93929190611612565b600060405180830381600087803b158015610ad457600080fd5b505af1158015610ae8573d6000803e3d6000fd5b5050505050505050565b6000610afc610b94565b90508060000160009054906101000a900473ffffffffffffffffffffffffffffffffffffffff1673ffffffffffffffffffffffffffffffffffffffff1663669e631684846040518363ffffffff1660e01b8152600401610b5d929190611649565b600060405180830381600087803b158015610b7757600080fd5b505af1158015610b8b573d6000803e3d6000fd5b50505050505050565b60007f9e7b61f58c47dc699ac88507c4f5bb9f121c03808c5676a8078fe583e4649700905090565b600080fd5b600080fd5b600073ffffffffffffffffffffffffffffffffffffffff82169050919050565b6000610bf182610bc6565b9050919050565b610c0181610be6565b8114610c0c57600080fd5b50565b600081359050610c1e81610bf8565b92915050565b60008060408385031215610c3b57610c3a610bbc565b5b6000610c4985828601610c0f565b9250506020610c5a85828601610c0f565b9150509250929050565b600067ffffffffffffffff82169050919050565b610c8181610c64565b82525050565b6000602082019050610c9c6000830184610c78565b92915050565b600080fd5b600080fd5b600080fd5b60008083601f840112610cc757610cc6610ca2565b5b8235905067ffffffffffffffff811115610ce457610ce3610ca7565b5b602083019150836001820283011115610d0057610cff610cac565b5b9250929050565b600080600060408486031215610d2057610d1f610bbc565b5b6000610d2e86828701610c0f565b935050602084013567ffffffffffffffff811115610d4f57610d4e610bc1565b5b610d5b86828701610cb1565b92509250509250925092565b6000819050919050565b610d7a81610d67565b82525050565b6000602082019050610d956000830184610d71565b92915050565b610da481610d67565b8114610daf57600080fd5b50565b600081359050610dc181610d9b565b92915050565b600060208284031215610ddd57610ddc610bbc565b5b6000610deb84828501610db2565b91505092915050565b610dfd81610be6565b82525050565b6000602082019050610e186000830184610df4565b92915050565b610e2781610c64565b8114610e3257600080fd5b50565b600081359050610e4481610e1e565b92915050565b600080600060608486031215610e6357610e62610bbc565b5b6000610e7186828701610c0f565b9350506020610e8286828701610c0f565b9250506040610e9386828701610e35565b9150509250925092565b600081519050919050565b600082825260208201905092915050565b60005b83811015610ed7578082015181840152602081019050610ebc565b60008484015250505050565b6000601f19601f8301169050919050565b6000610eff82610e9d565b610f098185610ea8565b9350610f19818560208601610eb9565b610f2281610ee3565b840191505092915050565b6000604082019050610f426000830185610df4565b8181036020830152610f548184610ef4565b90509392505050565b60008115159050919050565b610f7281610f5d565b82525050565b6000602082019050610f8d6000830184610f69565b92915050565b600082825260208201905092915050565b7f53656e646572206973206e6f7420746865206f776e6572000000000000000000600082015250565b6000610fda601783610f93565b9150610fe582610fa4565b602082019050919050565b6000602082019050818103600083015261100981610fcd565b9050919050565b7f4e487b7100000000000000000000000000000000000000000000000000000000600052601160045260246000fd5b600061104a82610d67565b91507fffffffffffffffffffffffffffffffffffffffffffffffffffffffffffffffff820361107c5761107b611010565b5b600182019050919050565b7f4e487b7100000000000000000000000000000000000000000000000000000000600052604160045260246000fd5b7f4e487b7100000000000000000000000000000000000000000000000000000000600052602260045260246000fd5b600060028204905060018216806110fd57607f821691505b6020821081036111105761110f6110b6565b5b50919050565b60008190508160005260206000209050919050565b60006020601f8301049050919050565b600082821b905092915050565b6000600883026111787fffffffffffffffffffffffffffffffffffffffffffffffffffffffffffffffff8261113b565b611182868361113b565b95508019841693508086168417925050509392505050565b6000819050919050565b60006111bf6111ba6111b584610d67565b61119a565b610d67565b9050919050565b6000819050919050565b6111d9836111a4565b6111ed6111e5826111c6565b848454611148565b825550505050565b600090565b6112026111f5565b61120d8184846111d0565b505050565b5b81811015611231576112266000826111fa565b600181019050611213565b5050565b601f8211156112765761124781611116565b6112508461112b565b8101602085101561125f578190505b61127361126b8561112b565b830182611212565b50505b505050565b600082821c905092915050565b60006112996000198460080261127b565b1980831691505092915050565b60006112b28383611288565b9150826002028217905092915050565b6112cb82610e9d565b67ffffffffffffffff8111156112e4576112e3611087565b5b6112ee82546110e5565b6112f9828285611235565b600060209050601f83116001811461132c576000841561131a578287015190505b61132485826112a6565b86555061138c565b601f19841661133a86611116565b60005b828110156113625784890151825560018201915060208501945060208101905061133d565b8683101561137f578489015161137b601f891682611288565b8355505b6001600288020188555050505b505050505050565b82818337600083830152505050565b60006113af8385610ea8565b93506113bc838584611394565b6113c583610ee3565b840190509392505050565b60006040820190506113e56000830186610df4565b81810360208301526113f88184866113a3565b9050949350505050565b7f496e76616c696420747849640000000000000000000000000000000000000000600082015250565b6000611438600c83610f93565b915061144382611402565b602082019050919050565b600060208201905081810360008301526114678161142b565b9050919050565b7f74782068617320616c7265616479206265656e20657865637574656400000000600082015250565b60006114a4601c83610f93565b91506114af8261146e565b602082019050919050565b600060208201905081810360008301526114d381611497565b9050919050565b600081905092915050565b60006114f082610e9d565b6114fa81856114da565b935061150a818560208601610eb9565b80840191505092915050565b600061152282846114e5565b915081905092915050565b7f7478207265766572746564000000000000000000000000000000000000000000600082015250565b6000611563600b83610f93565b915061156e8261152d565b602082019050919050565b6000602082019050818103600083015261159281611556565b9050919050565b60006060820190506115ae6000830186610df4565b6115bb6020830185610df4565b6115c86040830184610df4565b949350505050565b6000815190506115df81610e1e565b92915050565b6000602082840312156115fb576115fa610bbc565b5b6000611609848285016115d0565b91505092915050565b60006060820190506116276000830186610df4565b6116346020830185610df4565b6116416040830184610c78565b949350505050565b600060408201905061165e6000830185610df4565b61166b6020830184610df4565b939250505056fea2646970667358221220dad15daa9fcf93b18338861da8614f36eda53dd522b8ae83e3d4b0cf98f0b18564736f6c63430008180033",
  "linkReferences": {},
  "deployedLinkReferences": {}
}