{
  "_format": "hh-sol-artifact-1",
  "contractName": "MakePubliclyDecryptable",
  "sourceName": "contracts/MakePubliclyDecryptable.sol",
  "abi": [
    {
      "inputs": [],
      "name": "isPubliclyDecryptableBool",
      "outputs": [
        {
          "internalType": "bool",
          "name": "",
          "type": "bool"
        }
      ],
      "stateMutability": "view",
      "type": "function"
    },
    {
      "inputs": [],
      "name": "isPubliclyDecryptableUint8",
      "outputs": [
        {
          "internalType": "bool",
          "name": "",
          "type": "bool"
        }
      ],
      "stateMutability": "view",
      "type": "function"
    },
    {
      "inputs": [],
      "name": "makePubliclyDecryptableBool",
      "outputs": [],
      "stateMutability": "nonpayable",
      "type": "function"
    },
    {
      "inputs": [],
      "name": "makePubliclyDecryptableUint8",
      "outputs": [],
      "stateMutability": "nonpayable",
      "type": "function"
    },
    {
      "inputs": [],
      "name": "value8",
      "outputs": [
        {
          "internalType": "euint8",
          "name": "",
          "type": "bytes32"
        }
      ],
      "stateMutability": "view",
      "type": "function"
    },
    {
      "inputs": [],
      "name": "valueb",
      "outputs": [
        {
          "internalType": "ebool",
          "name": "",
          "type": "bytes32"
        }
      ],
      "stateMutability": "view",
      "type": "function"
    }
  ],
  "bytecode": "0x608060405234801561001057600080fd5b5061002d61002261003260201b60201c565b6100d860201b60201c565b610260565b61003a6101fd565b60405180606001604052807350157cffd6bbfa2dece204a89ec419c23ef5755d73ffffffffffffffffffffffffffffffffffffffff16815260200173e3a9105a3a932253a70f126eb1e3b589c643dd2473ffffffffffffffffffffffffffffffffffffffff16815260200173901f8942346f7ab3a01f6d7613119bca447bb03073ffffffffffffffffffffffffffffffffffffffff16815250905090565b6100e7816100ea60201b60201c565b50565b60006100fa6101d560201b60201c565b905081600001518160000160006101000a81548173ffffffffffffffffffffffffffffffffffffffff021916908373ffffffffffffffffffffffffffffffffffffffff16021790555081602001518160010160006101000a81548173ffffffffffffffffffffffffffffffffffffffff021916908373ffffffffffffffffffffffffffffffffffffffff16021790555081604001518160020160006101000a81548173ffffffffffffffffffffffffffffffffffffffff021916908373ffffffffffffffffffffffffffffffffffffffff1602179055505050565b60007f9e7b61f58c47dc699ac88507c4f5bb9f121c03808c5676a8078fe583e4649700905090565b6040518060600160405280600073ffffffffffffffffffffffffffffffffffffffff168152602001600073ffffffffffffffffffffffffffffffffffffffff168152602001600073ffffffffffffffffffffffffffffffffffffffff1681525090565b61088f8061026f6000396000f3fe608060405234801561001057600080fd5b50600436106100625760003560e01c80630e6433d1146100675780633833b2af1461008557806345ea23df146100a3578063783842c9146100c1578063880f2bdd146100df578063fc190de5146100e9575b600080fd5b61006f6100f3565b60405161007c9190610506565b60405180910390f35b61008d6100f9565b60405161009a919061053c565b60405180910390f35b6100ab61010b565b6040516100b8919061053c565b60405180910390f35b6100c961011d565b6040516100d69190610566565b60405180910390f35b6100e7610123565b005b6100f1610141565b005b60015481565b600061010660005461015f565b905090565b6000610118600154610171565b905090565b60005481565b61012d6001610183565b60008190555061013e6000546101a8565b50565b61014b60256101d5565b60018190555061015c6001546101ec565b50565b600061016a82610219565b9050919050565b600061017c82610219565b9050919050565b60006101a182610194576000610197565b60015b60ff1660006102cc565b9050919050565b60006101b382610384565b6101c4576101c16000610183565b91505b6101cd82610394565b819050919050565b60006101e58260ff1660026102cc565b9050919050565b60006101f7826104a3565b6102085761020560006101d5565b91505b61021182610394565b819050919050565b6000806102246104b3565b90508060000160009054906101000a900473ffffffffffffffffffffffffffffffffffffffff1673ffffffffffffffffffffffffffffffffffffffff1663c0d02943846040518263ffffffff1660e01b81526004016102839190610590565b602060405180830381865afa1580156102a0573d6000803e3d6000fd5b505050506040513d601f19601f820116820180604052508101906102c491906105dc565b915050919050565b6000806102d76104b3565b90508060010160009054906101000a900473ffffffffffffffffffffffffffffffffffffffff1673ffffffffffffffffffffffffffffffffffffffff16639cd07acb85856040518363ffffffff1660e01b8152600401610338929190610699565b6020604051808303816000875af1158015610357573d6000803e3d6000fd5b505050506040513d601f19601f8201168201806040525081019061037b91906106ee565b91505092915050565b60008060001b8214159050919050565b600061039e6104b3565b90506000600167ffffffffffffffff8111156103bd576103bc61071b565b5b6040519080825280602002602001820160405280156103eb5781602001602082028036833780820191505090505b50905082816000815181106104035761040261074a565b5b6020026020010181815250508160000160009054906101000a900473ffffffffffffffffffffffffffffffffffffffff1673ffffffffffffffffffffffffffffffffffffffff1663fadd2246826040518263ffffffff1660e01b815260040161046c9190610837565b600060405180830381600087803b15801561048657600080fd5b505af115801561049a573d6000803e3d6000fd5b50505050505050565b60008060001b8214159050919050565b60007f9e7b61f58c47dc699ac88507c4f5bb9f121c03808c5676a8078fe583e4649700905090565b6000819050919050565b60006104f0826104db565b9050919050565b610500816104e5565b82525050565b600060208201905061051b60008301846104f7565b92915050565b60008115159050919050565b61053681610521565b82525050565b6000602082019050610551600083018461052d565b92915050565b610560816104e5565b82525050565b600060208201905061057b6000830184610557565b92915050565b61058a816104db565b82525050565b60006020820190506105a56000830184610581565b92915050565b600080fd5b6105b981610521565b81146105c457600080fd5b50565b6000815190506105d6816105b0565b92915050565b6000602082840312156105f2576105f16105ab565b5b6000610600848285016105c7565b91505092915050565b6000819050919050565b61061c81610609565b82525050565b7f4e487b7100000000000000000000000000000000000000000000000000000000600052602160045260246000fd5b6054811061066257610661610622565b5b50565b600081905061067382610651565b919050565b600061068382610665565b9050919050565b61069381610678565b82525050565b60006040820190506106ae6000830185610613565b6106bb602083018461068a565b9392505050565b6106cb816104db565b81146106d657600080fd5b50565b6000815190506106e8816106c2565b92915050565b600060208284031215610704576107036105ab565b5b6000610712848285016106d9565b91505092915050565b7f4e487b7100000000000000000000000000000000000000000000000000000000600052604160045260246000fd5b7f4e487b7100000000000000000000000000000000000000000000000000000000600052603260045260246000fd5b600081519050919050565b600082825260208201905092915050565b6000819050602082019050919050565b6107ae816104db565b82525050565b60006107c083836107a5565b60208301905092915050565b6000602082019050919050565b60006107e482610779565b6107ee8185610784565b93506107f983610795565b8060005b8381101561082a57815161081188826107b4565b975061081c836107cc565b9250506001810190506107fd565b5085935050505092915050565b6000602082019050818103600083015261085181846107d9565b90509291505056fea26469706673582212209f9397e133ebb31d50a91d155be45f2a84facb450d6908e067db220246b67fcc64736f6c63430008180033",
  "linkReferences": {},
  "deployedLinkReferences": {}
}