{
  "_format": "hh-sol-artifact-1",
  "contractName": "CiphertextManager",
  "sourceName": "contracts/CiphertextManager.sol",
  "abi": [
    {
      "inputs": [],
      "stateMutability": "nonpayable",
      "type": "constructor"
    },
    {
      "inputs": [
        {
          "internalType": "address",
          "name": "target",
          "type": "address"
        }
      ],
      "name": "AddressEmptyCode",
      "type": "error"
    },
    {
      "inputs": [
        {
          "internalType": "uint256",
          "name": "ctHandle",
          "type": "uint256"
        }
      ],
      "name": "CiphertextMaterialNotFound",
      "type": "error"
    },
    {
      "inputs": [
        {
          "internalType": "uint256",
          "name": "ctHandle",
          "type": "uint256"
        },
        {
          "internalType": "uint256",
          "name": "chainId",
          "type": "uint256"
        }
      ],
      "name": "CiphertextMaterialNotOnNetwork",
      "type": "error"
    },
    {
      "inputs": [
        {
          "internalType": "address",
          "name": "coprocessorTxSenderAddress",
          "type": "address"
        }
      ],
      "name": "CoprocessorTxSenderAlreadyAdded",
      "type": "error"
    },
    {
      "inputs": [
        {
          "internalType": "address",
          "name": "implementation",
          "type": "address"
        }
      ],
      "name": "ERC1967InvalidImplementation",
      "type": "error"
    },
    {
      "inputs": [],
      "name": "ERC1967NonPayable",
      "type": "error"
    },
    {
      "inputs": [],
      "name": "FailedCall",
      "type": "error"
    },
    {
      "inputs": [
        {
          "internalType": "uint256",
          "name": "keyId",
          "type": "uint256"
        }
      ],
      "name": "InvalidCurrentKeyId",
      "type": "error"
    },
    {
      "inputs": [],
      "name": "InvalidInitialization",
      "type": "error"
    },
    {
      "inputs": [],
      "name": "NotInitializing",
      "type": "error"
    },
    {
      "inputs": [
        {
          "internalType": "address",
          "name": "owner",
          "type": "address"
        }
      ],
      "name": "OwnableInvalidOwner",
      "type": "error"
    },
    {
      "inputs": [
        {
          "internalType": "address",
          "name": "account",
          "type": "address"
        }
      ],
      "name": "OwnableUnauthorizedAccount",
      "type": "error"
    },
    {
      "inputs": [],
      "name": "UUPSUnauthorizedCallContext",
      "type": "error"
    },
    {
      "inputs": [
        {
          "internalType": "bytes32",
          "name": "slot",
          "type": "bytes32"
        }
      ],
      "name": "UUPSUnsupportedProxiableUUID",
      "type": "error"
    },
    {
      "anonymous": false,
      "inputs": [
        {
          "indexed": true,
          "internalType": "uint256",
          "name": "ctHandle",
          "type": "uint256"
        },
        {
          "indexed": false,
          "internalType": "bytes32",
          "name": "ciphertextDigest",
          "type": "bytes32"
        },
        {
          "indexed": false,
          "internalType": "bytes32",
          "name": "snsCiphertextDigest",
          "type": "bytes32"
        },
        {
          "indexed": false,
          "internalType": "address[]",
          "name": "coprocessorTxSenderAddresses",
          "type": "address[]"
        }
      ],
      "name": "AddCiphertextMaterial",
      "type": "event"
    },
    {
      "anonymous": false,
      "inputs": [
        {
          "indexed": false,
          "internalType": "uint64",
          "name": "version",
          "type": "uint64"
        }
      ],
      "name": "Initialized",
      "type": "event"
    },
    {
      "anonymous": false,
      "inputs": [
        {
          "indexed": true,
          "internalType": "address",
          "name": "previousOwner",
          "type": "address"
        },
        {
          "indexed": true,
          "internalType": "address",
          "name": "newOwner",
          "type": "address"
        }
      ],
      "name": "OwnershipTransferStarted",
      "type": "event"
    },
    {
      "anonymous": false,
      "inputs": [
        {
          "indexed": true,
          "internalType": "address",
          "name": "previousOwner",
          "type": "address"
        },
        {
          "indexed": true,
          "internalType": "address",
          "name": "newOwner",
          "type": "address"
        }
      ],
      "name": "OwnershipTransferred",
      "type": "event"
    },
    {
      "anonymous": false,
      "inputs": [
        {
          "indexed": true,
          "internalType": "address",
          "name": "implementation",
          "type": "address"
        }
      ],
      "name": "Upgraded",
      "type": "event"
    },
    {
      "inputs": [],
      "name": "UPGRADE_INTERFACE_VERSION",
      "outputs": [
        {
          "internalType": "string",
          "name": "",
          "type": "string"
        }
      ],
      "stateMutability": "view",
      "type": "function"
    },
    {
      "inputs": [],
      "name": "acceptOwnership",
      "outputs": [],
      "stateMutability": "nonpayable",
      "type": "function"
    },
    {
      "inputs": [
        {
          "internalType": "uint256",
          "name": "ctHandle",
          "type": "uint256"
        },
        {
          "internalType": "uint256",
          "name": "keyId",
          "type": "uint256"
        },
        {
          "internalType": "uint256",
          "name": "chainId",
          "type": "uint256"
        },
        {
          "internalType": "bytes32",
          "name": "ciphertextDigest",
          "type": "bytes32"
        },
        {
          "internalType": "bytes32",
          "name": "snsCiphertextDigest",
          "type": "bytes32"
        }
      ],
      "name": "addCiphertextMaterial",
      "outputs": [],
      "stateMutability": "nonpayable",
      "type": "function"
    },
    {
      "inputs": [
        {
          "internalType": "uint256",
          "name": "ctHandle",
          "type": "uint256"
        }
      ],
      "name": "checkCiphertextMaterial",
      "outputs": [],
      "stateMutability": "view",
      "type": "function"
    },
    {
      "inputs": [
        {
          "internalType": "uint256[]",
          "name": "ctHandles",
          "type": "uint256[]"
        }
      ],
      "name": "getCiphertextMaterials",
      "outputs": [
        {
          "components": [
            {
              "internalType": "uint256",
              "name": "ctHandle",
              "type": "uint256"
            },
            {
              "internalType": "uint256",
              "name": "keyId",
              "type": "uint256"
            },
            {
              "internalType": "bytes32",
              "name": "ciphertextDigest",
              "type": "bytes32"
            },
            {
              "internalType": "address[]",
              "name": "coprocessorTxSenderAddresses",
              "type": "address[]"
            }
          ],
          "internalType": "struct CiphertextMaterial[]",
          "name": "ctMaterials",
          "type": "tuple[]"
        }
      ],
      "stateMutability": "view",
      "type": "function"
    },
    {
      "inputs": [
        {
          "internalType": "uint256[]",
          "name": "ctHandles",
          "type": "uint256[]"
        }
      ],
      "name": "getSnsCiphertextMaterials",
      "outputs": [
        {
          "components": [
            {
              "internalType": "uint256",
              "name": "ctHandle",
              "type": "uint256"
            },
            {
              "internalType": "uint256",
              "name": "keyId",
              "type": "uint256"
            },
            {
              "internalType": "bytes32",
              "name": "snsCiphertextDigest",
              "type": "bytes32"
            },
            {
              "internalType": "address[]",
              "name": "coprocessorTxSenderAddresses",
              "type": "address[]"
            }
          ],
          "internalType": "struct SnsCiphertextMaterial[]",
          "name": "snsCtMaterials",
          "type": "tuple[]"
        }
      ],
      "stateMutability": "view",
      "type": "function"
    },
    {
      "inputs": [],
      "name": "getVersion",
      "outputs": [
        {
          "internalType": "string",
          "name": "",
          "type": "string"
        }
      ],
      "stateMutability": "pure",
      "type": "function"
    },
    {
      "inputs": [],
      "name": "initialize",
      "outputs": [],
      "stateMutability": "nonpayable",
      "type": "function"
    },
    {
      "inputs": [],
      "name": "owner",
      "outputs": [
        {
          "internalType": "address",
          "name": "",
          "type": "address"
        }
      ],
      "stateMutability": "view",
      "type": "function"
    },
    {
      "inputs": [],
      "name": "pendingOwner",
      "outputs": [
        {
          "internalType": "address",
          "name": "",
          "type": "address"
        }
      ],
      "stateMutability": "view",
      "type": "function"
    },
    {
      "inputs": [],
      "name": "proxiableUUID",
      "outputs": [
        {
          "internalType": "bytes32",
          "name": "",
          "type": "bytes32"
        }
      ],
      "stateMutability": "view",
      "type": "function"
    },
    {
      "inputs": [],
      "name": "renounceOwnership",
      "outputs": [],
      "stateMutability": "nonpayable",
      "type": "function"
    },
    {
      "inputs": [
        {
          "internalType": "address",
          "name": "newOwner",
          "type": "address"
        }
      ],
      "name": "transferOwnership",
      "outputs": [],
      "stateMutability": "nonpayable",
      "type": "function"
    },
    {
      "inputs": [
        {
          "internalType": "address",
          "name": "newImplementation",
          "type": "address"
        },
        {
          "internalType": "bytes",
          "name": "data",
          "type": "bytes"
        }
      ],
      "name": "upgradeToAndCall",
      "outputs": [],
      "stateMutability": "payable",
      "type": "function"
    }
  ],
  "bytecode": "0x60a060405230608052348015610013575f80fd5b5061001c610021565b6100d3565b7ff0c57e16840df040f15088dc2f81fe391c3923bec73e23a9662efc9c229c6a00805468010000000000000000900460ff16156100715760405163f92ee8a960e01b815260040160405180910390fd5b80546001600160401b03908116146100d05780546001600160401b0319166001600160401b0390811782556040519081527fc7f505b2f371ae2175ee4913f4499e1f2633a7b5936321eed1cdaeb6115181d29060200160405180910390a15b50565b6080516118896100f95f395f8181610d6d01528181610d960152610f0001526118895ff3fe6080604052600436106100d9575f3560e01c806379ba50971161007c578063ad3cb1cc11610057578063ad3cb1cc1461021d578063c51cb8ad14610265578063e30c397814610284578063f2fde38b14610298575f80fd5b806379ba5097146101c95780638129fc1c146101dd5780638da5cb5b146101f1575f80fd5b80634fd790cf116100b75780634fd790cf1461014857806352d1902d14610174578063715018a61461019657806376ed6f8c146101aa575f80fd5b806304e67cfd146100dd5780630d8e6e2c146101125780634f1ef28614610133575b5f80fd5b3480156100e8575f80fd5b506100fc6100f73660046113ee565b6102b7565b60405161010991906114d1565b60405180910390f35b34801561011d575f80fd5b506101266104ac565b6040516101099190611555565b6101466101413660046115b6565b610527565b005b348015610153575f80fd5b506101676101623660046113ee565b610546565b6040516101099190611672565b34801561017f575f80fd5b50610188610728565b604051908152602001610109565b3480156101a1575f80fd5b50610146610756565b3480156101b5575f80fd5b506101466101c43660046116c7565b610769565b3480156101d4575f80fd5b50610146610a35565b3480156101e8575f80fd5b50610146610a7d565b3480156101fc575f80fd5b50610205610b72565b6040516001600160a01b039091168152602001610109565b348015610228575f80fd5b506101266040518060400160405280600581526020017f352e302e3000000000000000000000000000000000000000000000000000000081525081565b348015610270575f80fd5b5061014661027f3660046116fe565b610ba6565b34801561028f575f80fd5b50610205610c18565b3480156102a3575f80fd5b506101466102b2366004611715565b610c40565b60607f481e71c2610c87311f2235c0e382133ada84bf381e3abe761ad2ab5c432d3c008267ffffffffffffffff8111156102f3576102f36115a2565b60405190808252806020026020018201604052801561034257816020015b604080516080810182525f80825260208083018290529282015260608082015282525f199092019101816103115790505b5091505f5b838110156104a4576103708585838181106103645761036461172e565b90506020020135610ba6565b604051806080016040528086868481811061038d5761038d61172e565b905060200201358152602001836002015f8888868181106103b0576103b061172e565b9050602002013581526020019081526020015f20548152602001835f015f8888868181106103e0576103e061172e565b9050602002013581526020019081526020015f20548152602001836007015f8888868181106104115761041161172e565b9050602002013581526020019081526020015f2080548060200260200160405190810160405280929190818152602001828054801561047757602002820191905f5260205f20905b81546001600160a01b03168152600190910190602001808311610459575b50505050508152508382815181106104915761049161172e565b6020908102919091010152600101610347565b505092915050565b60606040518060400160405280601181526020017f436970686572746578744d616e616765720000000000000000000000000000008152506104ed5f610cc5565b6104f76001610cc5565b6105005f610cc5565b6040516020016105139493929190611742565b604051602081830303815290604052905090565b61052f610d62565b61053882610e19565b6105428282610e21565b5050565b60607f481e71c2610c87311f2235c0e382133ada84bf381e3abe761ad2ab5c432d3c008267ffffffffffffffff811115610582576105826115a2565b6040519080825280602002602001820160405280156105d157816020015b604080516080810182525f80825260208083018290529282015260608082015282525f199092019101816105a05790505b5091505f5b838110156104a4576105f38585838181106103645761036461172e565b60405180608001604052808686848181106106105761061061172e565b905060200201358152602001836002015f8888868181106106335761063361172e565b9050602002013581526020019081526020015f20548152602001836001015f8888868181106106645761066461172e565b9050602002013581526020019081526020015f20548152602001836007015f8888868181106106955761069561172e565b9050602002013581526020019081526020015f208054806020026020016040519081016040528092919081815260200182805480156106fb57602002820191905f5260205f20905b81546001600160a01b031681526001909101906020018083116106dd575b50505050508152508382815181106107155761071561172e565b60209081029190910101526001016105d6565b5f610731610ef5565b507f360894a13ba1a3210667c828492db98dca3e2076cc3735a920a3ca505d382bbc90565b61075e610f3e565b6107675f610f70565b565b60405163cb66175560e01b8152336004820152730f886fd6e24d9fab00bddd0ae3c59c22724fb1e39063cb661755906024015f6040518083038186803b1580156107b1575f80fd5b505afa1580156107c3573d5f803e3d5ffd5b505060405163c6b3024d60e01b815260048101869052730f886fd6e24d9fab00bddd0ae3c59c22724fb1e3925063c6b3024d91506024015f6040518083038186803b158015610810575f80fd5b505afa158015610822573d5f803e3d5ffd5b505050505f61084e7f481e71c2610c87311f2235c0e382133ada84bf381e3abe761ad2ab5c432d3c0090565b5f878152600682016020908152604080832033845290915290205490915060ff16156108945760405163701c7e7160e01b81523360048201526024015b60405180910390fd5b604080516020808201899052818301879052606082018890526080820186905260a08083018690528351808403909101815260c090920183528151918101919091205f81815260058501909252918120805460ff16916108f3836117bf565b82546101009290920a60ff8181021990931691831602179091555f898152600685016020908152604080832033808552908352818420805460ff191660019081179091558d85526007890184528285208054918201815585528385200180546001600160a01b03191690911790558b83526004870190915290205416159050801561099557505f8181526005830160205260409020546109959060ff16610fa8565b15610a2c575f87815260208381526040808320879055600180860183528184208790556002860183528184208a9055600386018352818420899055600486018352818420805460ff191690911790556007850190915290819020905188917f35a7a73f466c33897766f21f8311a61fb4e5b2a8031dd63b430f8ebefe3693ed91610a239188918891906117e9565b60405180910390a25b50505050505050565b3380610a3f610c18565b6001600160a01b031614610a715760405163118cdaa760e01b81526001600160a01b038216600482015260240161088b565b610a7a81610f70565b50565b7ff0c57e16840df040f15088dc2f81fe391c3923bec73e23a9662efc9c229c6a0080546002919068010000000000000000900460ff1680610acc5750805467ffffffffffffffff808416911610155b15610aea5760405163f92ee8a960e01b815260040160405180910390fd5b805468ffffffffffffffffff191667ffffffffffffffff83161768010000000000000000178155610b21610b1c610b72565b611028565b805468ff00000000000000001916815560405167ffffffffffffffff831681527fc7f505b2f371ae2175ee4913f4499e1f2633a7b5936321eed1cdaeb6115181d29060200160405180910390a15050565b5f807f9016d09d72d40fdae2fd8ceac6b6234c7706214fd39c1cd1e609a0528c1993005b546001600160a01b031692915050565b5f8181527f481e71c2610c87311f2235c0e382133ada84bf381e3abe761ad2ab5c432d3c0460205260409020547f481e71c2610c87311f2235c0e382133ada84bf381e3abe761ad2ab5c432d3c009060ff1661054257604051630988c08160e01b81526004810183905260240161088b565b5f807f237e158222e3e6968b72b9db0d8043aacf074ad9f650f0d1606b4d82ee432c00610b96565b610c48610f3e565b7f237e158222e3e6968b72b9db0d8043aacf074ad9f650f0d1606b4d82ee432c0080546001600160a01b0319166001600160a01b0383169081178255610c8c610b72565b6001600160a01b03167f38d16b8cac22d99fc7c124b9cd0de2d3fa1faef420bfe791d8c362d765e2270060405160405180910390a35050565b60605f610cd183611039565b60010190505f8167ffffffffffffffff811115610cf057610cf06115a2565b6040519080825280601f01601f191660200182016040528015610d1a576020820181803683370190505b5090508181016020015b5f19017f3031323334353637383961626364656600000000000000000000000000000000600a86061a8153600a8504945084610d2457509392505050565b306001600160a01b037f0000000000000000000000000000000000000000000000000000000000000000161480610dfb57507f00000000000000000000000000000000000000000000000000000000000000006001600160a01b0316610def7f360894a13ba1a3210667c828492db98dca3e2076cc3735a920a3ca505d382bbc546001600160a01b031690565b6001600160a01b031614155b156107675760405163703e46dd60e11b815260040160405180910390fd5b610a7a610f3e565b816001600160a01b03166352d1902d6040518163ffffffff1660e01b8152600401602060405180830381865afa925050508015610e7b575060408051601f3d908101601f19168201909252610e789181019061184a565b60015b610ea357604051634c9c8ce360e01b81526001600160a01b038316600482015260240161088b565b7f360894a13ba1a3210667c828492db98dca3e2076cc3735a920a3ca505d382bbc8114610ee657604051632a87526960e21b81526004810182905260240161088b565b610ef0838361111b565b505050565b306001600160a01b037f000000000000000000000000000000000000000000000000000000000000000016146107675760405163703e46dd60e11b815260040160405180910390fd5b33610f47610b72565b6001600160a01b0316146107675760405163118cdaa760e01b815233600482015260240161088b565b7f237e158222e3e6968b72b9db0d8043aacf074ad9f650f0d1606b4d82ee432c0080546001600160a01b031916815561054282611170565b5f80730f886fd6e24d9fab00bddd0ae3c59c22724fb1e36001600160a01b0316636799ef526040518163ffffffff1660e01b8152600401602060405180830381865afa158015610ffa573d5f803e3d5ffd5b505050506040513d601f19601f8201168201806040525081019061101e919061184a565b9092101592915050565b6110306111e0565b610a7a8161122e565b5f807a184f03e93ff9f4daa797ed6e38ed64bf6a1f0100000000000000008310611081577a184f03e93ff9f4daa797ed6e38ed64bf6a1f010000000000000000830492506040015b6d04ee2d6d415b85acef810000000083106110ad576d04ee2d6d415b85acef8100000000830492506020015b662386f26fc1000083106110cb57662386f26fc10000830492506010015b6305f5e10083106110e3576305f5e100830492506008015b61271083106110f757612710830492506004015b60648310611109576064830492506002015b600a8310611115576001015b92915050565b6111248261125f565b6040516001600160a01b038316907fbc7cd75a20ee27fd9adebab32041f755214dbc6bffa90cc0225b39da2e5c2d3b905f90a280511561116857610ef082826112d5565b610542611347565b7f9016d09d72d40fdae2fd8ceac6b6234c7706214fd39c1cd1e609a0528c19930080546001600160a01b031981166001600160a01b03848116918217845560405192169182907f8be0079c531659141344cd1fd0a4f28419497f9722a3daafe3b4186f6b6457e0905f90a3505050565b7ff0c57e16840df040f15088dc2f81fe391c3923bec73e23a9662efc9c229c6a005468010000000000000000900460ff1661076757604051631afcd79f60e31b815260040160405180910390fd5b6112366111e0565b6001600160a01b038116610a7157604051631e4fbdf760e01b81525f600482015260240161088b565b806001600160a01b03163b5f0361129457604051634c9c8ce360e01b81526001600160a01b038216600482015260240161088b565b7f360894a13ba1a3210667c828492db98dca3e2076cc3735a920a3ca505d382bbc80546001600160a01b0319166001600160a01b0392909216919091179055565b60605f80846001600160a01b0316846040516112f19190611861565b5f60405180830381855af49150503d805f8114611329576040519150601f19603f3d011682016040523d82523d5f602084013e61132e565b606091505b509150915061133e858383611366565b95945050505050565b34156107675760405163b398979f60e01b815260040160405180910390fd5b60608261137b57611376826113c5565b6113be565b815115801561139257506001600160a01b0384163b155b156113bb57604051639996b31560e01b81526001600160a01b038516600482015260240161088b565b50805b9392505050565b8051156113d55780518082602001fd5b60405163d6bda27560e01b815260040160405180910390fd5b5f80602083850312156113ff575f80fd5b823567ffffffffffffffff80821115611416575f80fd5b818501915085601f830112611429575f80fd5b813581811115611437575f80fd5b8660208260051b850101111561144b575f80fd5b60209290920196919550909350505050565b5f608083018251845260208084015160208601526040840151604086015260608401516080606087015282815180855260a0880191506020830194505f92505b808310156114c65784516001600160a01b0316825293830193600192909201919083019061149d565b509695505050505050565b5f60208083016020845280855180835260408601915060408160051b8701019250602087015f5b8281101561152657603f1988860301845261151485835161145d565b945092850192908501906001016114f8565b5092979650505050505050565b5f5b8381101561154d578181015183820152602001611535565b50505f910152565b602081525f8251806020840152611573816040850160208701611533565b601f01601f19169190910160400192915050565b80356001600160a01b038116811461159d575f80fd5b919050565b634e487b7160e01b5f52604160045260245ffd5b5f80604083850312156115c7575f80fd5b6115d083611587565b9150602083013567ffffffffffffffff808211156115ec575f80fd5b818501915085601f8301126115ff575f80fd5b813581811115611611576116116115a2565b604051601f8201601f19908116603f01168101908382118183101715611639576116396115a2565b81604052828152886020848701011115611651575f80fd5b826020860160208301375f6020848301015280955050505050509250929050565b5f60208083016020845280855180835260408601915060408160051b8701019250602087015f5b8281101561152657603f198886030184526116b585835161145d565b94509285019290850190600101611699565b5f805f805f60a086880312156116db575f80fd5b505083359560208501359550604085013594606081013594506080013592509050565b5f6020828403121561170e575f80fd5b5035919050565b5f60208284031215611725575f80fd5b6113be82611587565b634e487b7160e01b5f52603260045260245ffd5b5f8551611753818460208a01611533565b61103b60f11b9083019081528551611772816002840160208a01611533565b808201915050601760f91b8060028301528551611796816003850160208a01611533565b600392019182015283516117b1816004840160208801611533565b016004019695505050505050565b5f60ff821660ff81036117e057634e487b7160e01b5f52601160045260245ffd5b60010192915050565b5f60608201858352602085602085015260606040850152818554808452608086019150865f5260205f2093505f5b8181101561183c5784546001600160a01b031683526001948501949284019201611817565b509098975050505050505050565b5f6020828403121561185a575f80fd5b5051919050565b5f8251611872818460208701611533565b919091019291505056fea164736f6c6343000818000a",
  "linkReferences": {},
  "deployedLinkReferences": {}
}