{
  "_format": "hh-sol-artifact-1",
  "contractName": "CiphertextManager",
  "sourceName": "contracts/CiphertextManager.sol",
  "abi": [
    {
      "inputs": [],
      "stateMutability": "nonpayable",
      "type": "constructor"
    },
    {
      "inputs": [
        {
          "internalType": "address",
          "name": "target",
          "type": "address"
        }
      ],
      "name": "AddressEmptyCode",
      "type": "error"
    },
    {
      "inputs": [
        {
          "internalType": "bytes32",
          "name": "ctHandle",
          "type": "bytes32"
        }
      ],
      "name": "CiphertextMaterialNotFound",
      "type": "error"
    },
    {
      "inputs": [
        {
          "internalType": "bytes32",
          "name": "ctHandle",
          "type": "bytes32"
        },
        {
          "internalType": "uint256",
          "name": "chainId",
          "type": "uint256"
        }
      ],
      "name": "CiphertextMaterialNotOnNetwork",
      "type": "error"
    },
    {
      "inputs": [
        {
          "internalType": "address",
          "name": "coprocessorTxSenderAddress",
          "type": "address"
        }
      ],
      "name": "CoprocessorTxSenderAlreadyAdded",
      "type": "error"
    },
    {
      "inputs": [
        {
          "internalType": "address",
          "name": "implementation",
          "type": "address"
        }
      ],
      "name": "ERC1967InvalidImplementation",
      "type": "error"
    },
    {
      "inputs": [],
      "name": "ERC1967NonPayable",
      "type": "error"
    },
    {
      "inputs": [],
      "name": "FailedCall",
      "type": "error"
    },
    {
      "inputs": [
        {
          "internalType": "uint256",
          "name": "keyId",
          "type": "uint256"
        }
      ],
      "name": "InvalidCurrentKeyId",
      "type": "error"
    },
    {
      "inputs": [],
      "name": "InvalidInitialization",
      "type": "error"
    },
    {
      "inputs": [],
      "name": "NotInitializing",
      "type": "error"
    },
    {
      "inputs": [
        {
          "internalType": "address",
          "name": "owner",
          "type": "address"
        }
      ],
      "name": "OwnableInvalidOwner",
      "type": "error"
    },
    {
      "inputs": [
        {
          "internalType": "address",
          "name": "account",
          "type": "address"
        }
      ],
      "name": "OwnableUnauthorizedAccount",
      "type": "error"
    },
    {
      "inputs": [],
      "name": "UUPSUnauthorizedCallContext",
      "type": "error"
    },
    {
      "inputs": [
        {
          "internalType": "bytes32",
          "name": "slot",
          "type": "bytes32"
        }
      ],
      "name": "UUPSUnsupportedProxiableUUID",
      "type": "error"
    },
    {
      "anonymous": false,
      "inputs": [
        {
          "indexed": true,
          "internalType": "bytes32",
          "name": "ctHandle",
          "type": "bytes32"
        },
        {
          "indexed": false,
          "internalType": "bytes32",
          "name": "ciphertextDigest",
          "type": "bytes32"
        },
        {
          "indexed": false,
          "internalType": "bytes32",
          "name": "snsCiphertextDigest",
          "type": "bytes32"
        },
        {
          "indexed": false,
          "internalType": "address[]",
          "name": "coprocessorTxSenderAddresses",
          "type": "address[]"
        }
      ],
      "name": "AddCiphertextMaterial",
      "type": "event"
    },
    {
      "anonymous": false,
      "inputs": [
        {
          "indexed": false,
          "internalType": "uint64",
          "name": "version",
          "type": "uint64"
        }
      ],
      "name": "Initialized",
      "type": "event"
    },
    {
      "anonymous": false,
      "inputs": [
        {
          "indexed": true,
          "internalType": "address",
          "name": "previousOwner",
          "type": "address"
        },
        {
          "indexed": true,
          "internalType": "address",
          "name": "newOwner",
          "type": "address"
        }
      ],
      "name": "OwnershipTransferStarted",
      "type": "event"
    },
    {
      "anonymous": false,
      "inputs": [
        {
          "indexed": true,
          "internalType": "address",
          "name": "previousOwner",
          "type": "address"
        },
        {
          "indexed": true,
          "internalType": "address",
          "name": "newOwner",
          "type": "address"
        }
      ],
      "name": "OwnershipTransferred",
      "type": "event"
    },
    {
      "anonymous": false,
      "inputs": [
        {
          "indexed": true,
          "internalType": "address",
          "name": "implementation",
          "type": "address"
        }
      ],
      "name": "Upgraded",
      "type": "event"
    },
    {
      "inputs": [],
      "name": "UPGRADE_INTERFACE_VERSION",
      "outputs": [
        {
          "internalType": "string",
          "name": "",
          "type": "string"
        }
      ],
      "stateMutability": "view",
      "type": "function"
    },
    {
      "inputs": [],
      "name": "acceptOwnership",
      "outputs": [],
      "stateMutability": "nonpayable",
      "type": "function"
    },
    {
      "inputs": [
        {
          "internalType": "bytes32",
          "name": "ctHandle",
          "type": "bytes32"
        },
        {
          "internalType": "uint256",
          "name": "keyId",
          "type": "uint256"
        },
        {
          "internalType": "bytes32",
          "name": "ciphertextDigest",
          "type": "bytes32"
        },
        {
          "internalType": "bytes32",
          "name": "snsCiphertextDigest",
          "type": "bytes32"
        }
      ],
      "name": "addCiphertextMaterial",
      "outputs": [],
      "stateMutability": "nonpayable",
      "type": "function"
    },
    {
      "inputs": [
        {
          "internalType": "bytes32",
          "name": "ctHandle",
          "type": "bytes32"
        }
      ],
      "name": "checkCiphertextMaterial",
      "outputs": [],
      "stateMutability": "view",
      "type": "function"
    },
    {
      "inputs": [
        {
          "internalType": "bytes32[]",
          "name": "ctHandles",
          "type": "bytes32[]"
        }
      ],
      "name": "getCiphertextMaterials",
      "outputs": [
        {
          "components": [
            {
              "internalType": "bytes32",
              "name": "ctHandle",
              "type": "bytes32"
            },
            {
              "internalType": "uint256",
              "name": "keyId",
              "type": "uint256"
            },
            {
              "internalType": "bytes32",
              "name": "ciphertextDigest",
              "type": "bytes32"
            },
            {
              "internalType": "address[]",
              "name": "coprocessorTxSenderAddresses",
              "type": "address[]"
            }
          ],
          "internalType": "struct CiphertextMaterial[]",
          "name": "ctMaterials",
          "type": "tuple[]"
        }
      ],
      "stateMutability": "view",
      "type": "function"
    },
    {
      "inputs": [
        {
          "internalType": "bytes32[]",
          "name": "ctHandles",
          "type": "bytes32[]"
        }
      ],
      "name": "getSnsCiphertextMaterials",
      "outputs": [
        {
          "components": [
            {
              "internalType": "bytes32",
              "name": "ctHandle",
              "type": "bytes32"
            },
            {
              "internalType": "uint256",
              "name": "keyId",
              "type": "uint256"
            },
            {
              "internalType": "bytes32",
              "name": "snsCiphertextDigest",
              "type": "bytes32"
            },
            {
              "internalType": "address[]",
              "name": "coprocessorTxSenderAddresses",
              "type": "address[]"
            }
          ],
          "internalType": "struct SnsCiphertextMaterial[]",
          "name": "snsCtMaterials",
          "type": "tuple[]"
        }
      ],
      "stateMutability": "view",
      "type": "function"
    },
    {
      "inputs": [],
      "name": "getVersion",
      "outputs": [
        {
          "internalType": "string",
          "name": "",
          "type": "string"
        }
      ],
      "stateMutability": "pure",
      "type": "function"
    },
    {
      "inputs": [],
      "name": "initialize",
      "outputs": [],
      "stateMutability": "nonpayable",
      "type": "function"
    },
    {
      "inputs": [],
      "name": "owner",
      "outputs": [
        {
          "internalType": "address",
          "name": "",
          "type": "address"
        }
      ],
      "stateMutability": "view",
      "type": "function"
    },
    {
      "inputs": [],
      "name": "pendingOwner",
      "outputs": [
        {
          "internalType": "address",
          "name": "",
          "type": "address"
        }
      ],
      "stateMutability": "view",
      "type": "function"
    },
    {
      "inputs": [],
      "name": "proxiableUUID",
      "outputs": [
        {
          "internalType": "bytes32",
          "name": "",
          "type": "bytes32"
        }
      ],
      "stateMutability": "view",
      "type": "function"
    },
    {
      "inputs": [],
      "name": "renounceOwnership",
      "outputs": [],
      "stateMutability": "nonpayable",
      "type": "function"
    },
    {
      "inputs": [
        {
          "internalType": "address",
          "name": "newOwner",
          "type": "address"
        }
      ],
      "name": "transferOwnership",
      "outputs": [],
      "stateMutability": "nonpayable",
      "type": "function"
    },
    {
      "inputs": [
        {
          "internalType": "address",
          "name": "newImplementation",
          "type": "address"
        },
        {
          "internalType": "bytes",
          "name": "data",
          "type": "bytes"
        }
      ],
      "name": "upgradeToAndCall",
      "outputs": [],
      "stateMutability": "payable",
      "type": "function"
    }
  ],
  "bytecode": "0x60a060405230608052348015610013575f80fd5b5061001c610021565b6100d3565b7ff0c57e16840df040f15088dc2f81fe391c3923bec73e23a9662efc9c229c6a00805468010000000000000000900460ff16156100715760405163f92ee8a960e01b815260040160405180910390fd5b80546001600160401b03908116146100d05780546001600160401b0319166001600160401b0390811782556040519081527fc7f505b2f371ae2175ee4913f4499e1f2633a7b5936321eed1cdaeb6115181d29060200160405180910390a15b50565b6080516118946100f95f395f8181610d8001528181610da90152610f1301526118945ff3fe6080604052600436106100d9575f3560e01c80638da5cb5b1161007c578063ad3cb1cc11610057578063ad3cb1cc1461021d578063d4476f6314610265578063e30c397814610284578063f2fde38b14610298575f80fd5b80638da5cb5b146101a657806390f30354146101d2578063a14f8971146101f1575f80fd5b806355c4d997116100b757806355c4d9971461013e578063715018a61461016a57806379ba50971461017e5780638129fc1c14610192575f80fd5b80630d8e6e2c146100dd5780634f1ef2861461010757806352d1902d1461011c575b5f80fd5b3480156100e8575f80fd5b506100f16102b7565b6040516100fe9190611423565b60405180910390f35b61011a610115366004611484565b610332565b005b348015610127575f80fd5b50610130610351565b6040519081526020016100fe565b348015610149575f80fd5b5061015d610158366004611540565b61037f565b6040516100fe9190611623565b348015610175575f80fd5b5061011a610574565b348015610189575f80fd5b5061011a610587565b34801561019d575f80fd5b5061011a6105d4565b3480156101b1575f80fd5b506101ba6106c9565b6040516001600160a01b0390911681526020016100fe565b3480156101dd575f80fd5b5061011a6101ec366004611685565b6106fd565b3480156101fc575f80fd5b5061021061020b366004611540565b6109d7565b6040516100fe91906116b4565b348015610228575f80fd5b506100f16040518060400160405280600581526020017f352e302e3000000000000000000000000000000000000000000000000000000081525081565b348015610270575f80fd5b5061011a61027f366004611709565b610bb9565b34801561028f575f80fd5b506101ba610c2b565b3480156102a3575f80fd5b5061011a6102b2366004611720565b610c53565b60606040518060400160405280601181526020017f436970686572746578744d616e616765720000000000000000000000000000008152506102f85f610cd8565b6103026001610cd8565b61030b5f610cd8565b60405160200161031e9493929190611739565b604051602081830303815290604052905090565b61033a610d75565b61034382610e2c565b61034d8282610e34565b5050565b5f61035a610f08565b507f360894a13ba1a3210667c828492db98dca3e2076cc3735a920a3ca505d382bbc90565b60607f481e71c2610c87311f2235c0e382133ada84bf381e3abe761ad2ab5c432d3c008267ffffffffffffffff8111156103bb576103bb611470565b60405190808252806020026020018201604052801561040a57816020015b604080516080810182525f80825260208083018290529282015260608082015282525f199092019101816103d95790505b5091505f5b8381101561056c5761043885858381811061042c5761042c6117b6565b90506020020135610bb9565b6040518060800160405280868684818110610455576104556117b6565b905060200201358152602001836002015f888886818110610478576104786117b6565b9050602002013581526020019081526020015f20548152602001835f015f8888868181106104a8576104a86117b6565b9050602002013581526020019081526020015f20548152602001836007015f8888868181106104d9576104d96117b6565b9050602002013581526020019081526020015f2080548060200260200160405190810160405280929190818152602001828054801561053f57602002820191905f5260205f20905b81546001600160a01b03168152600190910190602001808311610521575b5050505050815250838281518110610559576105596117b6565b602090810291909101015260010161040f565b505092915050565b61057c610f51565b6105855f610f83565b565b3380610591610c2b565b6001600160a01b0316146105c85760405163118cdaa760e01b81526001600160a01b03821660048201526024015b60405180910390fd5b6105d181610f83565b50565b7ff0c57e16840df040f15088dc2f81fe391c3923bec73e23a9662efc9c229c6a0080546002919068010000000000000000900460ff16806106235750805467ffffffffffffffff808416911610155b156106415760405163f92ee8a960e01b815260040160405180910390fd5b805468ffffffffffffffffff191667ffffffffffffffff831617680100000000000000001781556106786106736106c9565b610fbb565b805468ff00000000000000001916815560405167ffffffffffffffff831681527fc7f505b2f371ae2175ee4913f4499e1f2633a7b5936321eed1cdaeb6115181d29060200160405180910390a15050565b5f807f9016d09d72d40fdae2fd8ceac6b6234c7706214fd39c1cd1e609a0528c1993005b546001600160a01b031692915050565b60405163cb66175560e01b8152336004820152730f886fd6e24d9fab00bddd0ae3c59c22724fb1e39063cb661755906024015f6040518083038186803b158015610745575f80fd5b505afa158015610757573d5f803e3d5ffd5b505050505f6107837f481e71c2610c87311f2235c0e382133ada84bf381e3abe761ad2ab5c432d3c0090565b90505f601086901c67ffffffffffffffff1660405163c6b3024d60e01b815260048101829052909150730f886fd6e24d9fab00bddd0ae3c59c22724fb1e39063c6b3024d906024015f6040518083038186803b1580156107e1575f80fd5b505afa1580156107f3573d5f803e3d5ffd5b5050505f878152600684016020908152604080832033845290915290205460ff161590506108365760405163701c7e7160e01b81523360048201526024016105bf565b604080516020808201899052818301849052606082018890526080820187905260a08083018790528351808403909101815260c090920183528151918101919091205f81815260058601909252918120805460ff1691610895836117ca565b82546101009290920a60ff8181021990931691831602179091555f898152600686016020908152604080832033808552908352818420805460ff191660019081179091558d855260078a0184528285208054918201815585528385200180546001600160a01b03191690911790558b83526004880190915290205416159050801561093757505f8181526005840160205260409020546109379060ff16610fcc565b156109ce575f87815260208481526040808320889055600180870183528184208890556002870183528184208a9055600387018352818420869055600487018352818420805460ff191690911790556007860190915290819020905188917fcb89ccb347018d7f282bb4c048e135e19bc1d13660fa0f2850e10518422536de916109c59189918991906117f4565b60405180910390a25b50505050505050565b60607f481e71c2610c87311f2235c0e382133ada84bf381e3abe761ad2ab5c432d3c008267ffffffffffffffff811115610a1357610a13611470565b604051908082528060200260200182016040528015610a6257816020015b604080516080810182525f80825260208083018290529282015260608082015282525f19909201910181610a315790505b5091505f5b8381101561056c57610a8485858381811061042c5761042c6117b6565b6040518060800160405280868684818110610aa157610aa16117b6565b905060200201358152602001836002015f888886818110610ac457610ac46117b6565b9050602002013581526020019081526020015f20548152602001836001015f888886818110610af557610af56117b6565b9050602002013581526020019081526020015f20548152602001836007015f888886818110610b2657610b266117b6565b9050602002013581526020019081526020015f20805480602002602001604051908101604052809291908181526020018280548015610b8c57602002820191905f5260205f20905b81546001600160a01b03168152600190910190602001808311610b6e575b5050505050815250838281518110610ba657610ba66117b6565b6020908102919091010152600101610a67565b5f8181527f481e71c2610c87311f2235c0e382133ada84bf381e3abe761ad2ab5c432d3c0460205260409020547f481e71c2610c87311f2235c0e382133ada84bf381e3abe761ad2ab5c432d3c009060ff1661034d57604051630666cbdf60e01b8152600481018390526024016105bf565b5f807f237e158222e3e6968b72b9db0d8043aacf074ad9f650f0d1606b4d82ee432c006106ed565b610c5b610f51565b7f237e158222e3e6968b72b9db0d8043aacf074ad9f650f0d1606b4d82ee432c0080546001600160a01b0319166001600160a01b0383169081178255610c9f6106c9565b6001600160a01b03167f38d16b8cac22d99fc7c124b9cd0de2d3fa1faef420bfe791d8c362d765e2270060405160405180910390a35050565b60605f610ce48361104c565b60010190505f8167ffffffffffffffff811115610d0357610d03611470565b6040519080825280601f01601f191660200182016040528015610d2d576020820181803683370190505b5090508181016020015b5f19017f3031323334353637383961626364656600000000000000000000000000000000600a86061a8153600a8504945084610d3757509392505050565b306001600160a01b037f0000000000000000000000000000000000000000000000000000000000000000161480610e0e57507f00000000000000000000000000000000000000000000000000000000000000006001600160a01b0316610e027f360894a13ba1a3210667c828492db98dca3e2076cc3735a920a3ca505d382bbc546001600160a01b031690565b6001600160a01b031614155b156105855760405163703e46dd60e11b815260040160405180910390fd5b6105d1610f51565b816001600160a01b03166352d1902d6040518163ffffffff1660e01b8152600401602060405180830381865afa925050508015610e8e575060408051601f3d908101601f19168201909252610e8b91810190611855565b60015b610eb657604051634c9c8ce360e01b81526001600160a01b03831660048201526024016105bf565b7f360894a13ba1a3210667c828492db98dca3e2076cc3735a920a3ca505d382bbc8114610ef957604051632a87526960e21b8152600481018290526024016105bf565b610f03838361112e565b505050565b306001600160a01b037f000000000000000000000000000000000000000000000000000000000000000016146105855760405163703e46dd60e11b815260040160405180910390fd5b33610f5a6106c9565b6001600160a01b0316146105855760405163118cdaa760e01b81523360048201526024016105bf565b7f237e158222e3e6968b72b9db0d8043aacf074ad9f650f0d1606b4d82ee432c0080546001600160a01b031916815561034d82611183565b610fc36111f3565b6105d181611241565b5f80730f886fd6e24d9fab00bddd0ae3c59c22724fb1e36001600160a01b0316636799ef526040518163ffffffff1660e01b8152600401602060405180830381865afa15801561101e573d5f803e3d5ffd5b505050506040513d601f19601f820116820180604052508101906110429190611855565b9092101592915050565b5f807a184f03e93ff9f4daa797ed6e38ed64bf6a1f0100000000000000008310611094577a184f03e93ff9f4daa797ed6e38ed64bf6a1f010000000000000000830492506040015b6d04ee2d6d415b85acef810000000083106110c0576d04ee2d6d415b85acef8100000000830492506020015b662386f26fc1000083106110de57662386f26fc10000830492506010015b6305f5e10083106110f6576305f5e100830492506008015b612710831061110a57612710830492506004015b6064831061111c576064830492506002015b600a8310611128576001015b92915050565b61113782611272565b6040516001600160a01b038316907fbc7cd75a20ee27fd9adebab32041f755214dbc6bffa90cc0225b39da2e5c2d3b905f90a280511561117b57610f0382826112e8565b61034d61135a565b7f9016d09d72d40fdae2fd8ceac6b6234c7706214fd39c1cd1e609a0528c19930080546001600160a01b031981166001600160a01b03848116918217845560405192169182907f8be0079c531659141344cd1fd0a4f28419497f9722a3daafe3b4186f6b6457e0905f90a3505050565b7ff0c57e16840df040f15088dc2f81fe391c3923bec73e23a9662efc9c229c6a005468010000000000000000900460ff1661058557604051631afcd79f60e31b815260040160405180910390fd5b6112496111f3565b6001600160a01b0381166105c857604051631e4fbdf760e01b81525f60048201526024016105bf565b806001600160a01b03163b5f036112a757604051634c9c8ce360e01b81526001600160a01b03821660048201526024016105bf565b7f360894a13ba1a3210667c828492db98dca3e2076cc3735a920a3ca505d382bbc80546001600160a01b0319166001600160a01b0392909216919091179055565b60605f80846001600160a01b031684604051611304919061186c565b5f60405180830381855af49150503d805f811461133c576040519150601f19603f3d011682016040523d82523d5f602084013e611341565b606091505b5091509150611351858383611379565b95945050505050565b34156105855760405163b398979f60e01b815260040160405180910390fd5b60608261138e57611389826113d8565b6113d1565b81511580156113a557506001600160a01b0384163b155b156113ce57604051639996b31560e01b81526001600160a01b03851660048201526024016105bf565b50805b9392505050565b8051156113e85780518082602001fd5b60405163d6bda27560e01b815260040160405180910390fd5b5f5b8381101561141b578181015183820152602001611403565b50505f910152565b602081525f8251806020840152611441816040850160208701611401565b601f01601f19169190910160400192915050565b80356001600160a01b038116811461146b575f80fd5b919050565b634e487b7160e01b5f52604160045260245ffd5b5f8060408385031215611495575f80fd5b61149e83611455565b9150602083013567ffffffffffffffff808211156114ba575f80fd5b818501915085601f8301126114cd575f80fd5b8135818111156114df576114df611470565b604051601f8201601f19908116603f0116810190838211818310171561150757611507611470565b8160405282815288602084870101111561151f575f80fd5b826020860160208301375f6020848301015280955050505050509250929050565b5f8060208385031215611551575f80fd5b823567ffffffffffffffff80821115611568575f80fd5b818501915085601f83011261157b575f80fd5b813581811115611589575f80fd5b8660208260051b850101111561159d575f80fd5b60209290920196919550909350505050565b5f608083018251845260208084015160208601526040840151604086015260608401516080606087015282815180855260a0880191506020830194505f92505b808310156116185784516001600160a01b031682529383019360019290920191908301906115ef565b509695505050505050565b5f60208083016020845280855180835260408601915060408160051b8701019250602087015f5b8281101561167857603f198886030184526116668583516115af565b9450928501929085019060010161164a565b5092979650505050505050565b5f805f8060808587031215611698575f80fd5b5050823594602084013594506040840135936060013592509050565b5f60208083016020845280855180835260408601915060408160051b8701019250602087015f5b8281101561167857603f198886030184526116f78583516115af565b945092850192908501906001016116db565b5f60208284031215611719575f80fd5b5035919050565b5f60208284031215611730575f80fd5b6113d182611455565b5f855161174a818460208a01611401565b61103b60f11b9083019081528551611769816002840160208a01611401565b808201915050601760f91b806002830152855161178d816003850160208a01611401565b600392019182015283516117a8816004840160208801611401565b016004019695505050505050565b634e487b7160e01b5f52603260045260245ffd5b5f60ff821660ff81036117eb57634e487b7160e01b5f52601160045260245ffd5b60010192915050565b5f60608201858352602085602085015260606040850152818554808452608086019150865f5260205f2093505f5b818110156118475784546001600160a01b031683526001948501949284019201611822565b509098975050505050505050565b5f60208284031215611865575f80fd5b5051919050565b5f825161187d818460208701611401565b919091019291505056fea164736f6c6343000818000a",
  "linkReferences": {},
  "deployedLinkReferences": {}
}