{
  "_format": "hh-sol-artifact-1",
  "contractName": "Decryption",
  "sourceName": "contracts/Decryption.sol",
  "abi": [
    {
      "inputs": [],
      "stateMutability": "nonpayable",
      "type": "constructor"
    },
    {
      "inputs": [
        {
          "internalType": "address",
          "name": "target",
          "type": "address"
        }
      ],
      "name": "AddressEmptyCode",
      "type": "error"
    },
    {
      "inputs": [
        {
          "internalType": "uint8",
          "name": "maxLength",
          "type": "uint8"
        },
        {
          "internalType": "uint256",
          "name": "actualLength",
          "type": "uint256"
        }
      ],
      "name": "ContractAddressesMaxLengthExceeded",
      "type": "error"
    },
    {
      "inputs": [
        {
          "internalType": "address",
          "name": "contractAddress",
          "type": "address"
        },
        {
          "internalType": "address[]",
          "name": "contractAddresses",
          "type": "address[]"
        }
      ],
      "name": "ContractNotInContractAddresses",
      "type": "error"
    },
    {
      "inputs": [
        {
          "internalType": "uint256",
          "name": "decryptionId",
          "type": "uint256"
        }
      ],
      "name": "DecryptionNotDone",
      "type": "error"
    },
    {
      "inputs": [
        {
          "internalType": "uint256",
          "name": "decryptionId",
          "type": "uint256"
        }
      ],
      "name": "DecryptionNotRequested",
      "type": "error"
    },
    {
      "inputs": [
        {
          "internalType": "address",
          "name": "delegatorAddress",
          "type": "address"
        },
        {
          "internalType": "address[]",
          "name": "contractAddresses",
          "type": "address[]"
        }
      ],
      "name": "DelegatorAddressInContractAddresses",
      "type": "error"
    },
    {
      "inputs": [
        {
          "components": [
            {
              "internalType": "bytes32",
              "name": "ctHandle",
              "type": "bytes32"
            },
            {
              "internalType": "uint256",
              "name": "keyId",
              "type": "uint256"
            },
            {
              "internalType": "bytes32",
              "name": "snsCiphertextDigest",
              "type": "bytes32"
            },
            {
              "internalType": "address[]",
              "name": "coprocessorTxSenderAddresses",
              "type": "address[]"
            }
          ],
          "internalType": "struct SnsCiphertextMaterial",
          "name": "firstSnsCtMaterial",
          "type": "tuple"
        },
        {
          "components": [
            {
              "internalType": "bytes32",
              "name": "ctHandle",
              "type": "bytes32"
            },
            {
              "internalType": "uint256",
              "name": "keyId",
              "type": "uint256"
            },
            {
              "internalType": "bytes32",
              "name": "snsCiphertextDigest",
              "type": "bytes32"
            },
            {
              "internalType": "address[]",
              "name": "coprocessorTxSenderAddresses",
              "type": "address[]"
            }
          ],
          "internalType": "struct SnsCiphertextMaterial",
          "name": "invalidSnsCtMaterial",
          "type": "tuple"
        }
      ],
      "name": "DifferentKeyIdsNotAllowed",
      "type": "error"
    },
    {
      "inputs": [],
      "name": "ECDSAInvalidSignature",
      "type": "error"
    },
    {
      "inputs": [
        {
          "internalType": "uint256",
          "name": "length",
          "type": "uint256"
        }
      ],
      "name": "ECDSAInvalidSignatureLength",
      "type": "error"
    },
    {
      "inputs": [
        {
          "internalType": "bytes32",
          "name": "s",
          "type": "bytes32"
        }
      ],
      "name": "ECDSAInvalidSignatureS",
      "type": "error"
    },
    {
      "inputs": [
        {
          "internalType": "address",
          "name": "implementation",
          "type": "address"
        }
      ],
      "name": "ERC1967InvalidImplementation",
      "type": "error"
    },
    {
      "inputs": [],
      "name": "ERC1967NonPayable",
      "type": "error"
    },
    {
      "inputs": [],
      "name": "EmptyContractAddresses",
      "type": "error"
    },
    {
      "inputs": [],
      "name": "EmptyCtHandleContractPairs",
      "type": "error"
    },
    {
      "inputs": [],
      "name": "EmptyCtHandles",
      "type": "error"
    },
    {
      "inputs": [],
      "name": "EnforcedPause",
      "type": "error"
    },
    {
      "inputs": [],
      "name": "ExpectedPause",
      "type": "error"
    },
    {
      "inputs": [],
      "name": "FailedCall",
      "type": "error"
    },
    {
      "inputs": [
        {
          "internalType": "uint8",
          "name": "fheTypeUint8",
          "type": "uint8"
        }
      ],
      "name": "InvalidFHEType",
      "type": "error"
    },
    {
      "inputs": [],
      "name": "InvalidInitialization",
      "type": "error"
    },
    {
      "inputs": [],
      "name": "InvalidNullDurationDays",
      "type": "error"
    },
    {
      "inputs": [
        {
          "internalType": "bytes",
          "name": "signature",
          "type": "bytes"
        }
      ],
      "name": "InvalidUserSignature",
      "type": "error"
    },
    {
      "inputs": [
        {
          "internalType": "uint256",
          "name": "decryptionId",
          "type": "uint256"
        },
        {
          "internalType": "address",
          "name": "signer",
          "type": "address"
        }
      ],
      "name": "KmsNodeAlreadySigned",
      "type": "error"
    },
    {
      "inputs": [
        {
          "internalType": "uint256",
          "name": "maxBitSize",
          "type": "uint256"
        },
        {
          "internalType": "uint256",
          "name": "totalBitSize",
          "type": "uint256"
        }
      ],
      "name": "MaxDecryptionRequestBitSizeExceeded",
      "type": "error"
    },
    {
      "inputs": [
        {
          "internalType": "uint256",
          "name": "maxValue",
          "type": "uint256"
        },
        {
          "internalType": "uint256",
          "name": "actualValue",
          "type": "uint256"
        }
      ],
      "name": "MaxDurationDaysExceeded",
      "type": "error"
    },
    {
      "inputs": [],
      "name": "NotInitializing",
      "type": "error"
    },
    {
      "inputs": [],
      "name": "NotInitializingFromEmptyProxy",
      "type": "error"
    },
    {
      "inputs": [
        {
          "internalType": "address",
          "name": "notOwnerOrGatewayConfig",
          "type": "address"
        }
      ],
      "name": "NotOwnerOrGatewayConfig",
      "type": "error"
    },
    {
      "inputs": [
        {
          "internalType": "address",
          "name": "notPauser",
          "type": "address"
        }
      ],
      "name": "NotPauser",
      "type": "error"
    },
    {
      "inputs": [
        {
          "internalType": "address",
          "name": "notPauserOrGatewayConfig",
          "type": "address"
        }
      ],
      "name": "NotPauserOrGatewayConfig",
      "type": "error"
    },
    {
      "inputs": [
        {
          "internalType": "address",
          "name": "owner",
          "type": "address"
        }
      ],
      "name": "OwnableInvalidOwner",
      "type": "error"
    },
    {
      "inputs": [
        {
          "internalType": "address",
          "name": "account",
          "type": "address"
        }
      ],
      "name": "OwnableUnauthorizedAccount",
      "type": "error"
    },
    {
      "inputs": [
        {
          "internalType": "uint256",
          "name": "currentTimestamp",
          "type": "uint256"
        },
        {
          "internalType": "uint256",
          "name": "startTimestamp",
          "type": "uint256"
        }
      ],
      "name": "StartTimestampInFuture",
      "type": "error"
    },
    {
      "inputs": [],
      "name": "UUPSUnauthorizedCallContext",
      "type": "error"
    },
    {
      "inputs": [
        {
          "internalType": "bytes32",
          "name": "slot",
          "type": "bytes32"
        }
      ],
      "name": "UUPSUnsupportedProxiableUUID",
      "type": "error"
    },
    {
      "inputs": [
        {
          "internalType": "enum FheType",
          "name": "fheType",
          "type": "uint8"
        }
      ],
      "name": "UnsupportedFHEType",
      "type": "error"
    },
    {
      "inputs": [
        {
          "internalType": "address",
          "name": "userAddress",
          "type": "address"
        },
        {
          "internalType": "address[]",
          "name": "contractAddresses",
          "type": "address[]"
        }
      ],
      "name": "UserAddressInContractAddresses",
      "type": "error"
    },
    {
      "inputs": [
        {
          "internalType": "uint256",
          "name": "currentTimestamp",
          "type": "uint256"
        },
        {
          "components": [
            {
              "internalType": "uint256",
              "name": "startTimestamp",
              "type": "uint256"
            },
            {
              "internalType": "uint256",
              "name": "durationDays",
              "type": "uint256"
            }
          ],
          "internalType": "struct IDecryption.RequestValidity",
          "name": "requestValidity",
          "type": "tuple"
        }
      ],
      "name": "UserDecryptionRequestExpired",
      "type": "error"
    },
    {
      "anonymous": false,
      "inputs": [],
      "name": "EIP712DomainChanged",
      "type": "event"
    },
    {
      "anonymous": false,
      "inputs": [
        {
          "indexed": false,
          "internalType": "uint64",
          "name": "version",
          "type": "uint64"
        }
      ],
      "name": "Initialized",
      "type": "event"
    },
    {
      "anonymous": false,
      "inputs": [
        {
          "indexed": true,
          "internalType": "address",
          "name": "previousOwner",
          "type": "address"
        },
        {
          "indexed": true,
          "internalType": "address",
          "name": "newOwner",
          "type": "address"
        }
      ],
      "name": "OwnershipTransferStarted",
      "type": "event"
    },
    {
      "anonymous": false,
      "inputs": [
        {
          "indexed": true,
          "internalType": "address",
          "name": "previousOwner",
          "type": "address"
        },
        {
          "indexed": true,
          "internalType": "address",
          "name": "newOwner",
          "type": "address"
        }
      ],
      "name": "OwnershipTransferred",
      "type": "event"
    },
    {
      "anonymous": false,
      "inputs": [
        {
          "indexed": false,
          "internalType": "address",
          "name": "account",
          "type": "address"
        }
      ],
      "name": "Paused",
      "type": "event"
    },
    {
      "anonymous": false,
      "inputs": [
        {
          "indexed": true,
          "internalType": "uint256",
          "name": "decryptionId",
          "type": "uint256"
        },
        {
          "components": [
            {
              "internalType": "bytes32",
              "name": "ctHandle",
              "type": "bytes32"
            },
            {
              "internalType": "uint256",
              "name": "keyId",
              "type": "uint256"
            },
            {
              "internalType": "bytes32",
              "name": "snsCiphertextDigest",
              "type": "bytes32"
            },
            {
              "internalType": "address[]",
              "name": "coprocessorTxSenderAddresses",
              "type": "address[]"
            }
          ],
          "indexed": false,
          "internalType": "struct SnsCiphertextMaterial[]",
          "name": "snsCtMaterials",
          "type": "tuple[]"
        },
        {
          "indexed": false,
          "internalType": "bytes",
          "name": "extraData",
          "type": "bytes"
        }
      ],
      "name": "PublicDecryptionRequest",
      "type": "event"
    },
    {
      "anonymous": false,
      "inputs": [
        {
          "indexed": true,
          "internalType": "uint256",
          "name": "decryptionId",
          "type": "uint256"
        },
        {
          "indexed": false,
          "internalType": "bytes",
          "name": "decryptedResult",
          "type": "bytes"
        },
        {
          "indexed": false,
          "internalType": "bytes[]",
          "name": "signatures",
          "type": "bytes[]"
        },
        {
          "indexed": false,
          "internalType": "bytes",
          "name": "extraData",
          "type": "bytes"
        }
      ],
      "name": "PublicDecryptionResponse",
      "type": "event"
    },
    {
      "anonymous": false,
      "inputs": [
        {
          "indexed": false,
          "internalType": "address",
          "name": "account",
          "type": "address"
        }
      ],
      "name": "Unpaused",
      "type": "event"
    },
    {
      "anonymous": false,
      "inputs": [
        {
          "indexed": true,
          "internalType": "address",
          "name": "implementation",
          "type": "address"
        }
      ],
      "name": "Upgraded",
      "type": "event"
    },
    {
      "anonymous": false,
      "inputs": [
        {
          "indexed": true,
          "internalType": "uint256",
          "name": "decryptionId",
          "type": "uint256"
        },
        {
          "components": [
            {
              "internalType": "bytes32",
              "name": "ctHandle",
              "type": "bytes32"
            },
            {
              "internalType": "uint256",
              "name": "keyId",
              "type": "uint256"
            },
            {
              "internalType": "bytes32",
              "name": "snsCiphertextDigest",
              "type": "bytes32"
            },
            {
              "internalType": "address[]",
              "name": "coprocessorTxSenderAddresses",
              "type": "address[]"
            }
          ],
          "indexed": false,
          "internalType": "struct SnsCiphertextMaterial[]",
          "name": "snsCtMaterials",
          "type": "tuple[]"
        },
        {
          "indexed": false,
          "internalType": "address",
          "name": "userAddress",
          "type": "address"
        },
        {
          "indexed": false,
          "internalType": "bytes",
          "name": "publicKey",
          "type": "bytes"
        },
        {
          "indexed": false,
          "internalType": "bytes",
          "name": "extraData",
          "type": "bytes"
        }
      ],
      "name": "UserDecryptionRequest",
      "type": "event"
    },
    {
      "anonymous": false,
      "inputs": [
        {
          "indexed": true,
          "internalType": "uint256",
          "name": "decryptionId",
          "type": "uint256"
        },
        {
          "indexed": false,
          "internalType": "bytes[]",
          "name": "userDecryptedShares",
          "type": "bytes[]"
        },
        {
          "indexed": false,
          "internalType": "bytes[]",
          "name": "signatures",
          "type": "bytes[]"
        },
        {
          "indexed": false,
          "internalType": "bytes",
          "name": "extraData",
          "type": "bytes"
        }
      ],
      "name": "UserDecryptionResponse",
      "type": "event"
    },
    {
      "inputs": [],
      "name": "UPGRADE_INTERFACE_VERSION",
      "outputs": [
        {
          "internalType": "string",
          "name": "",
          "type": "string"
        }
      ],
      "stateMutability": "view",
      "type": "function"
    },
    {
      "inputs": [],
      "name": "acceptOwnership",
      "outputs": [],
      "stateMutability": "nonpayable",
      "type": "function"
    },
    {
      "inputs": [
        {
          "internalType": "uint256",
          "name": "decryptionId",
          "type": "uint256"
        }
      ],
      "name": "checkDecryptionDone",
      "outputs": [],
      "stateMutability": "view",
      "type": "function"
    },
    {
      "inputs": [
        {
          "internalType": "uint256",
          "name": "contractsChainId",
          "type": "uint256"
        },
        {
          "components": [
            {
              "internalType": "address",
              "name": "delegatorAddress",
              "type": "address"
            },
            {
              "internalType": "address",
              "name": "delegatedAddress",
              "type": "address"
            }
          ],
          "internalType": "struct DelegationAccounts",
          "name": "delegationAccounts",
          "type": "tuple"
        },
        {
          "components": [
            {
              "internalType": "bytes32",
              "name": "ctHandle",
              "type": "bytes32"
            },
            {
              "internalType": "address",
              "name": "contractAddress",
              "type": "address"
            }
          ],
          "internalType": "struct CtHandleContractPair[]",
          "name": "ctHandleContractPairs",
          "type": "tuple[]"
        },
        {
          "internalType": "address[]",
          "name": "contractAddresses",
          "type": "address[]"
        },
        {
          "internalType": "bytes",
          "name": "",
          "type": "bytes"
        }
      ],
      "name": "checkDelegatedUserDecryptionReady",
      "outputs": [],
      "stateMutability": "view",
      "type": "function"
    },
    {
      "inputs": [
        {
          "internalType": "bytes32[]",
          "name": "ctHandles",
          "type": "bytes32[]"
        },
        {
          "internalType": "bytes",
          "name": "",
          "type": "bytes"
        }
      ],
      "name": "checkPublicDecryptionReady",
      "outputs": [],
      "stateMutability": "view",
      "type": "function"
    },
    {
      "inputs": [
        {
          "internalType": "address",
          "name": "userAddress",
          "type": "address"
        },
        {
          "components": [
            {
              "internalType": "bytes32",
              "name": "ctHandle",
              "type": "bytes32"
            },
            {
              "internalType": "address",
              "name": "contractAddress",
              "type": "address"
            }
          ],
          "internalType": "struct CtHandleContractPair[]",
          "name": "ctHandleContractPairs",
          "type": "tuple[]"
        },
        {
          "internalType": "bytes",
          "name": "",
          "type": "bytes"
        }
      ],
      "name": "checkUserDecryptionReady",
      "outputs": [],
      "stateMutability": "view",
      "type": "function"
    },
    {
      "inputs": [
        {
          "components": [
            {
              "internalType": "bytes32",
              "name": "ctHandle",
              "type": "bytes32"
            },
            {
              "internalType": "address",
              "name": "contractAddress",
              "type": "address"
            }
          ],
          "internalType": "struct CtHandleContractPair[]",
          "name": "ctHandleContractPairs",
          "type": "tuple[]"
        },
        {
          "components": [
            {
              "internalType": "uint256",
              "name": "startTimestamp",
              "type": "uint256"
            },
            {
              "internalType": "uint256",
              "name": "durationDays",
              "type": "uint256"
            }
          ],
          "internalType": "struct IDecryption.RequestValidity",
          "name": "requestValidity",
          "type": "tuple"
        },
        {
          "components": [
            {
              "internalType": "address",
              "name": "delegatorAddress",
              "type": "address"
            },
            {
              "internalType": "address",
              "name": "delegatedAddress",
              "type": "address"
            }
          ],
          "internalType": "struct DelegationAccounts",
          "name": "delegationAccounts",
          "type": "tuple"
        },
        {
          "components": [
            {
              "internalType": "uint256",
              "name": "chainId",
              "type": "uint256"
            },
            {
              "internalType": "address[]",
              "name": "addresses",
              "type": "address[]"
            }
          ],
          "internalType": "struct IDecryption.ContractsInfo",
          "name": "contractsInfo",
          "type": "tuple"
        },
        {
          "internalType": "bytes",
          "name": "publicKey",
          "type": "bytes"
        },
        {
          "internalType": "bytes",
          "name": "signature",
          "type": "bytes"
        },
        {
          "internalType": "bytes",
          "name": "extraData",
          "type": "bytes"
        }
      ],
      "name": "delegatedUserDecryptionRequest",
      "outputs": [],
      "stateMutability": "nonpayable",
      "type": "function"
    },
    {
      "inputs": [],
      "name": "eip712Domain",
      "outputs": [
        {
          "internalType": "bytes1",
          "name": "fields",
          "type": "bytes1"
        },
        {
          "internalType": "string",
          "name": "name",
          "type": "string"
        },
        {
          "internalType": "string",
          "name": "version",
          "type": "string"
        },
        {
          "internalType": "uint256",
          "name": "chainId",
          "type": "uint256"
        },
        {
          "internalType": "address",
          "name": "verifyingContract",
          "type": "address"
        },
        {
          "internalType": "bytes32",
          "name": "salt",
          "type": "bytes32"
        },
        {
          "internalType": "uint256[]",
          "name": "extensions",
          "type": "uint256[]"
        }
      ],
      "stateMutability": "view",
      "type": "function"
    },
    {
      "inputs": [
        {
          "internalType": "uint256",
          "name": "decryptionId",
          "type": "uint256"
        }
      ],
      "name": "getDecryptionConsensusTxSenders",
      "outputs": [
        {
          "internalType": "address[]",
          "name": "",
          "type": "address[]"
        }
      ],
      "stateMutability": "view",
      "type": "function"
    },
    {
      "inputs": [],
      "name": "getVersion",
      "outputs": [
        {
          "internalType": "string",
          "name": "",
          "type": "string"
        }
      ],
      "stateMutability": "pure",
      "type": "function"
    },
    {
      "inputs": [],
      "name": "initializeFromEmptyProxy",
      "outputs": [],
      "stateMutability": "nonpayable",
      "type": "function"
    },
    {
      "inputs": [],
      "name": "owner",
      "outputs": [
        {
          "internalType": "address",
          "name": "",
          "type": "address"
        }
      ],
      "stateMutability": "view",
      "type": "function"
    },
    {
      "inputs": [],
      "name": "pause",
      "outputs": [],
      "stateMutability": "nonpayable",
      "type": "function"
    },
    {
      "inputs": [],
      "name": "paused",
      "outputs": [
        {
          "internalType": "bool",
          "name": "",
          "type": "bool"
        }
      ],
      "stateMutability": "view",
      "type": "function"
    },
    {
      "inputs": [],
      "name": "pendingOwner",
      "outputs": [
        {
          "internalType": "address",
          "name": "",
          "type": "address"
        }
      ],
      "stateMutability": "view",
      "type": "function"
    },
    {
      "inputs": [],
      "name": "proxiableUUID",
      "outputs": [
        {
          "internalType": "bytes32",
          "name": "",
          "type": "bytes32"
        }
      ],
      "stateMutability": "view",
      "type": "function"
    },
    {
      "inputs": [
        {
          "internalType": "bytes32[]",
          "name": "ctHandles",
          "type": "bytes32[]"
        },
        {
          "internalType": "bytes",
          "name": "extraData",
          "type": "bytes"
        }
      ],
      "name": "publicDecryptionRequest",
      "outputs": [],
      "stateMutability": "nonpayable",
      "type": "function"
    },
    {
      "inputs": [
        {
          "internalType": "uint256",
          "name": "decryptionId",
          "type": "uint256"
        },
        {
          "internalType": "bytes",
          "name": "decryptedResult",
          "type": "bytes"
        },
        {
          "internalType": "bytes",
          "name": "signature",
          "type": "bytes"
        },
        {
          "internalType": "bytes",
          "name": "extraData",
          "type": "bytes"
        }
      ],
      "name": "publicDecryptionResponse",
      "outputs": [],
      "stateMutability": "nonpayable",
      "type": "function"
    },
    {
      "inputs": [],
      "name": "reinitializeV3",
      "outputs": [],
      "stateMutability": "nonpayable",
      "type": "function"
    },
    {
      "inputs": [],
      "name": "renounceOwnership",
      "outputs": [],
      "stateMutability": "nonpayable",
      "type": "function"
    },
    {
      "inputs": [
        {
          "internalType": "address",
          "name": "newOwner",
          "type": "address"
        }
      ],
      "name": "transferOwnership",
      "outputs": [],
      "stateMutability": "nonpayable",
      "type": "function"
    },
    {
      "inputs": [],
      "name": "unpause",
      "outputs": [],
      "stateMutability": "nonpayable",
      "type": "function"
    },
    {
      "inputs": [
        {
          "internalType": "address",
          "name": "newImplementation",
          "type": "address"
        },
        {
          "internalType": "bytes",
          "name": "data",
          "type": "bytes"
        }
      ],
      "name": "upgradeToAndCall",
      "outputs": [],
      "stateMutability": "payable",
      "type": "function"
    },
    {
      "inputs": [
        {
          "components": [
            {
              "internalType": "bytes32",
              "name": "ctHandle",
              "type": "bytes32"
            },
            {
              "internalType": "address",
              "name": "contractAddress",
              "type": "address"
            }
          ],
          "internalType": "struct CtHandleContractPair[]",
          "name": "ctHandleContractPairs",
          "type": "tuple[]"
        },
        {
          "components": [
            {
              "internalType": "uint256",
              "name": "startTimestamp",
              "type": "uint256"
            },
            {
              "internalType": "uint256",
              "name": "durationDays",
              "type": "uint256"
            }
          ],
          "internalType": "struct IDecryption.RequestValidity",
          "name": "requestValidity",
          "type": "tuple"
        },
        {
          "components": [
            {
              "internalType": "uint256",
              "name": "chainId",
              "type": "uint256"
            },
            {
              "internalType": "address[]",
              "name": "addresses",
              "type": "address[]"
            }
          ],
          "internalType": "struct IDecryption.ContractsInfo",
          "name": "contractsInfo",
          "type": "tuple"
        },
        {
          "internalType": "address",
          "name": "userAddress",
          "type": "address"
        },
        {
          "internalType": "bytes",
          "name": "publicKey",
          "type": "bytes"
        },
        {
          "internalType": "bytes",
          "name": "signature",
          "type": "bytes"
        },
        {
          "internalType": "bytes",
          "name": "extraData",
          "type": "bytes"
        }
      ],
      "name": "userDecryptionRequest",
      "outputs": [],
      "stateMutability": "nonpayable",
      "type": "function"
    },
    {
      "inputs": [
        {
          "internalType": "uint256",
          "name": "decryptionId",
          "type": "uint256"
        },
        {
          "internalType": "bytes",
          "name": "userDecryptedShare",
          "type": "bytes"
        },
        {
          "internalType": "bytes",
          "name": "signature",
          "type": "bytes"
        },
        {
          "internalType": "bytes",
          "name": "extraData",
          "type": "bytes"
        }
      ],
      "name": "userDecryptionResponse",
      "outputs": [],
      "stateMutability": "nonpayable",
      "type": "function"
    }
  ],
  "bytecode": "0x60a06040523060805234801562000014575f80fd5b506200001f62000025565b620000d9565b7ff0c57e16840df040f15088dc2f81fe391c3923bec73e23a9662efc9c229c6a00805468010000000000000000900460ff1615620000765760405163f92ee8a960e01b815260040160405180910390fd5b80546001600160401b0390811614620000d65780546001600160401b0319166001600160401b0390811782556040519081527fc7f505b2f371ae2175ee4913f4499e1f2633a7b5936321eed1cdaeb6115181d29060200160405180910390a15b50565b608051614fa2620001005f395f81816124480152818161247101526125db0152614fa25ff3fe60806040526004361061018e575f3560e01c806384b0196e116100dc578063bac22bb811610087578063e31ec19d11610062578063e31ec19d14610441578063f1b57adb14610460578063f2fde38b1461047f578063f4a6e2ce1461049e575f80fd5b8063bac22bb8146103fa578063d8998f451461040e578063e30c39781461042d575f80fd5b80639fad5a2f116100b75780639fad5a2f14610374578063a609043914610393578063ad3cb1cc146103b2575f80fd5b806384b0196e146103025780638da5cb5b146103295780639f98d89914610355575f80fd5b806352d1902d1161013c578063715018a611610117578063715018a6146102c657806379ba5097146102da5780638456cb59146102ee575f80fd5b806352d1902d146102445780635c975abb146102665780636f8913bc146102a7575f80fd5b806339f738101161016c57806339f73810146102095780633f4ba83a1461021d5780634f1ef28614610231575f80fd5b8063046f9eb3146101925780630900cc69146101b35780630d8e6e2c146101e8575b5f80fd5b34801561019d575f80fd5b506101b16101ac366004613be1565b6104bd565b005b3480156101be575f80fd5b506101d26101cd366004613c7d565b61083f565b6040516101df9190613cd7565b60405180910390f35b3480156101f3575f80fd5b506101fc61091e565b6040516101df9190613d36565b348015610214575f80fd5b506101b1610986565b348015610228575f80fd5b506101b1610b12565b6101b161023f366004613dd5565b610b64565b34801561024f575f80fd5b50610258610b83565b6040519081526020016101df565b348015610271575f80fd5b507fcd5ed15c6e187e77e9aee88184c21f4f2182ab5827cb3b7e07fbedcd63f033005460ff1660405190151581526020016101df565b3480156102b2575f80fd5b506101b16102c1366004613be1565b610bb1565b3480156102d1575f80fd5b506101b1610e56565b3480156102e5575f80fd5b506101b1610e67565b3480156102f9575f80fd5b506101b1610eaf565b34801561030d575f80fd5b50610316610f57565b6040516101df9796959493929190613e77565b348015610334575f80fd5b5061033d61101b565b6040516001600160a01b0390911681526020016101df565b348015610360575f80fd5b506101b161036f366004613fa6565b61104f565b34801561037f575f80fd5b506101b161038e366004614053565b61126e565b34801561039e575f80fd5b506101b16103ad366004613c7d565b6116ef565b3480156103bd575f80fd5b506101fc6040518060400160405280600581526020017f352e302e3000000000000000000000000000000000000000000000000000000081525081565b348015610405575f80fd5b506101b1611761565b348015610419575f80fd5b506101b161042836600461415b565b611829565b348015610438575f80fd5b5061033d611995565b34801561044c575f80fd5b506101b161045b36600461415b565b6119bd565b34801561046b575f80fd5b506101b161047a3660046141c2565b611ab5565b34801561048a575f80fd5b506101b16104993660046142af565b611e31565b3480156104a9575f80fd5b506101b16104b83660046142ca565b611eb6565b6040516318c4ea4b60e31b81523360048201525f9063c6275258906024015f6040518083038186803b1580156104f1575f80fd5b505afa158015610503573d5f803e3d5ffd5b505050505f61052f7f68113e68af494c6efd0210fc4bf9ba748d1ffadaa4718217fdf63548c4aee70090565b805490915088118061053f575087155b1561056557604051636a457ca160e11b8152600481018990526024015b60405180910390fd5b5f888152600682016020526040808220815180830190925280548290829061058c90614347565b80601f01602080910402602001604051908101604052809291908181526020018280546105b890614347565b80156106035780601f106105da57610100808354040283529160200191610603565b820191905f5260205f20905b8154815290600101906020018083116105e657829003601f168201915b505050505081526020016001820180548060200260200160405190810160405280929190818152602001828054801561065957602002820191905f5260205f20905b815481526020019060010190808311610645575b50505050508152505090505f6040518060800160405280835f01518152602001836020015181526020018a8a8080601f0160208091040260200160405190810160405280939291908181526020018383808284375f92019190915250505090825250604080516020601f8901819004810282018101909252878152918101919088908890819084018382808284375f9201829052509390945250929350915061070390508261206d565b90506107118b828a8a612147565b5f8b8152600585016020908152604082208054600181018255818452919092200161073d898b836143bd565b505f8c81526008860160209081526040822080546001810182559083529120016107688b8d836143bd565b505f8c8152600986016020908152604080832083805282528083208054600181810183559185528385200180546001600160a01b031916331790558f8452880190915290205460ff161580156107c4575080546107c49061228f565b15610831575f8c8152600186810160209081526040808420805460ff19169093179092556008880190529081902090518d917f1cbf1c6e9ea3dbcfd49b9690d93cd4b93b3cb22913f99b71d3aecae60b25fc5691610828919085908c908c90614560565b60405180910390a25b505050505050505050505050565b5f8181527f68113e68af494c6efd0210fc4bf9ba748d1ffadaa4718217fdf63548c4aee70a60209081526040808320547f68113e68af494c6efd0210fc4bf9ba748d1ffadaa4718217fdf63548c4aee709835281842081855283529281902080548251818502810185019093528083526060947f68113e68af494c6efd0210fc4bf9ba748d1ffadaa4718217fdf63548c4aee70094909392919083018282801561091057602002820191905f5260205f20905b81546001600160a01b031681526001909101906020018083116108f2575b505050505092505050919050565b60606040518060400160405280600a8152602001692232b1b93cb83a34b7b760b11b81525061094c5f6122fb565b61095660036122fb565b61095f5f6122fb565b60405160200161097294939291906145a4565b604051602081830303815290604052905090565b7ff0c57e16840df040f15088dc2f81fe391c3923bec73e23a9662efc9c229c6a005467ffffffffffffffff1667ffffffffffffffff166001146109dc57604051636f4f731f60e01b815260040160405180910390fd5b7ff0c57e16840df040f15088dc2f81fe391c3923bec73e23a9662efc9c229c6a00805460059190600160401b900460ff1680610a265750805467ffffffffffffffff808416911610155b15610a445760405163f92ee8a960e01b815260040160405180910390fd5b805468ffffffffffffffffff191667ffffffffffffffff831617600160401b178155604080518082018252600a8152692232b1b93cb83a34b7b760b11b602080830191909152825180840190935260018352603160f81b90830152610aa891612398565b610ab8610ab361101b565b6123aa565b610ac06123bb565b805468ff00000000000000001916815560405167ffffffffffffffff831681527fc7f505b2f371ae2175ee4913f4499e1f2633a7b5936321eed1cdaeb6115181d2906020015b60405180910390a15050565b610b1a61101b565b6001600160a01b0316336001600160a01b031614158015610b3a57503315155b15610b5a576040516370c8b37760e11b815233600482015260240161055c565b610b626123cb565b565b610b6c61243d565b610b75826124f4565b610b7f82826124fc565b5050565b5f610b8c6125d0565b507f360894a13ba1a3210667c828492db98dca3e2076cc3735a920a3ca505d382bbc90565b6040516318c4ea4b60e31b81523360048201525f9063c6275258906024015f6040518083038186803b158015610be5575f80fd5b505afa158015610bf7573d5f803e3d5ffd5b505050505f610c237f68113e68af494c6efd0210fc4bf9ba748d1ffadaa4718217fdf63548c4aee70090565b8054909150881180610c33575087155b15610c5457604051636a457ca160e11b81526004810189905260240161055c565b604080515f8a81526004840160209081528382208054608092810285018301909552606084018581529294849392840182828015610caf57602002820191905f5260205f20905b815481526020019060010190808311610c9b575b5050505050815260200189898080601f0160208091040260200160405190810160405280939291908181526020018383808284375f92019190915250505090825250604080516020601f8801819004810282018101909252868152918101919087908790819084018382808284375f92018290525093909452509293509150610d39905082612619565b9050610d478a828989612147565b5f8a815260038401602090815260408083208484528252822080546001810182558184529190922001610d7b888a836143bd565b505f8b8152600985016020908152604080832085845282528083208054600181810183559185528385200180546001600160a01b031916331790558e8452870190915290205460ff16158015610dd757508054610dd7906126c0565b15610e49575f8b8152600185810160209081526040808420805460ff1916909317909255600a8701905290819020839055518b907fd7e58a367a0a6c298e76ad5d240004e327aa1423cbe4bd7ff85d4c715ef8d15f90610e40908d908d9086908c908c90614621565b60405180910390a25b5050505050505050505050565b610e5e6126fe565b610b625f612730565b3380610e71611995565b6001600160a01b031614610ea35760405163118cdaa760e01b81526001600160a01b038216600482015260240161055c565b610eac81612730565b50565b5f6001600160a01b0316637008b5486040518163ffffffff1660e01b8152600401602060405180830381865afa158015610eeb573d5f803e3d5ffd5b505050506040513d601f19601f82011682018060405250810190610f0f9190614667565b6001600160a01b0316336001600160a01b031614158015610f2f57503315155b15610f4f5760405163388916bb60e01b815233600482015260240161055c565b610b62612768565b5f60608082808083817fa16a46d94261c7517cc8ff89f61c0ce93598e3c849801011dee649a6a557d1008054909150158015610f9557506001810154155b610fe15760405162461bcd60e51b815260206004820152601560248201527f4549503731323a20556e696e697469616c697a65640000000000000000000000604482015260640161055c565b610fe96127c3565b610ff1612896565b604080515f80825260208201909252600f60f81b9c939b5091995046985030975095509350915050565b5f807f9016d09d72d40fdae2fd8ceac6b6234c7706214fd39c1cd1e609a0528c1993005b546001600160a01b031692915050565b6040516328e20e8760e11b81525f906351c41d0e90611078908b908b90899089906004016146be565b5f6040518083038186803b15801561108e575f80fd5b505afa1580156110a0573d5f803e3d5ffd5b505050505f5b85811015611263575f633bce498d8888848181106110c6576110c6614713565b604002919091013590506110dd60208c018c6142af565b6040516001600160e01b031960e085901b16815260048101929092526001600160a01b031660248201526044015f6040518083038186803b158015611120575f80fd5b505afa158015611132573d5f803e3d5ffd5b505050505f6001600160a01b0316633bce498d88888481811061115757611157614713565b9050604002015f013589898581811061117257611172614713565b905060400201602001602081019061118a91906142af565b6040516001600160e01b031960e085901b16815260048101929092526001600160a01b031660248201526044015f6040518083038186803b1580156111cd575f80fd5b505afa1580156111df573d5f803e3d5ffd5b505050505f6001600160a01b031663d4476f6388888481811061120457611204614713565b9050604002015f01356040518263ffffffff1660e01b815260040161122b91815260200190565b5f6040518083038186803b158015611241575f80fd5b505afa158015611253573d5f803e3d5ffd5b5050600190920191506110a69050565b505050505050505050565b6112766128e7565b6112836020880188614727565b90505f036112a4576040516357cfa21760e01b815260040160405180910390fd5b600a6112b36020890189614727565b905011156112ef57600a6112ca6020890189614727565b6040516362d5a33f60e11b815260ff909316600484015260248301525060440161055c565b611306611301368b90038b018b61476d565b61292a565b6113596113166020890189614727565b808060200260200160405190810160405280939291908181526020018383602002808284375f920191909152506113549250505060208b018b6142af565b612a05565b156113945761136b60208901896142af565b6113786020890189614727565b60405163c3446ac760e01b815260040161055c939291906147ba565b5f6113ea8c8c6113a760208c018c614727565b808060200260200160405190810160405280939291908181526020018383602002808284375f920191909152506113e59250505060208e018e6142af565b612a5e565b90505f6351c41d0e89358b61140260208d018d614727565b6040518563ffffffff1660e01b815260040161142194939291906146be565b5f6040518083038186803b158015611437575f80fd5b505afa158015611449573d5f803e3d5ffd5b505050505f6040518060e0016040528089898080601f0160208091040260200160405190810160405280939291908181526020018383808284375f920191909152505050908252506020908101906114a3908c018c614727565b808060200260200160405190810160405280939291908181526020018383602002808284375f920191909152505050908252506020908101906114e8908d018d6142af565b6001600160a01b031681526020018a5f013581526020018c5f013581526020018c60200135815260200185858080601f0160208091040260200160405190810160405280939291908181526020018383808284375f92019190915250505091525090506115668161155f60408d0160208e016142af565b8888612c82565b60405163a14f897160e01b81525f90819063a14f89719061158b9086906004016147dc565b5f60405180830381865afa1580156115a5573d5f803e3d5ffd5b505050506040513d5f823e601f3d908101601f191682016040526115cc9190810190614842565b90506115d781612d06565b7f68113e68af494c6efd0210fc4bf9ba748d1ffadaa4718217fdf63548c4aee7008054815f611605836149b2565b909155505080546040805160606020601f8e01819004028201810183529181018c815290918291908e908e90819085018382808284375f920182905250938552505050602091820188905283815260068501909152604090208151819061166c90826149ca565b5060208281015180516116859260018501920190613b06565b50905050807ff9011bd6ba0da6049c520d70fe5971f17ed7ab795486052544b51019896c596b848f60200160208101906116bf91906142af565b8e8e8c8c6040516116d596959493929190614b52565b60405180910390a250505050505050505050505050505050565b5f8181527f68113e68af494c6efd0210fc4bf9ba748d1ffadaa4718217fdf63548c4aee70160205260409020547f68113e68af494c6efd0210fc4bf9ba748d1ffadaa4718217fdf63548c4aee7009060ff16610b7f576040516305f80a0360e11b81526004810183905260240161055c565b7ff0c57e16840df040f15088dc2f81fe391c3923bec73e23a9662efc9c229c6a00805460059190600160401b900460ff16806117ab5750805467ffffffffffffffff808416911610155b156117c95760405163f92ee8a960e01b815260040160405180910390fd5b805468ffffffffffffffffff191667ffffffffffffffff8316908117600160401b1768ff0000000000000000191682556040519081527fc7f505b2f371ae2175ee4913f4499e1f2633a7b5936321eed1cdaeb6115181d290602001610b06565b6118316128e7565b5f839003611852576040516305bcea8760e31b815260040160405180910390fd5b61188d8484808060200260200160405190810160405280939291908181526020018383602002808284375f92019190915250612dbd92505050565b60405163a14f897160e01b81525f90819063a14f8971906118b49088908890600401614ba8565b5f60405180830381865afa1580156118ce573d5f803e3d5ffd5b505050506040513d5f823e601f3d908101601f191682016040526118f59190810190614842565b905061190081612d06565b7f68113e68af494c6efd0210fc4bf9ba748d1ffadaa4718217fdf63548c4aee7008054815f61192e836149b2565b909155505080545f818152600483016020526040902061194f908888613b4f565b50807f22db480a39bd72556438aadb4a32a3d2a6638b87c03bbec5fef6997e109587ff84878760405161198493929190614bf8565b60405180910390a250505050505050565b5f807f237e158222e3e6968b72b9db0d8043aacf074ad9f650f0d1606b4d82ee432c0061103f565b5f5b83811015611aae575f63193f3f2c8686848181106119df576119df614713565b905060200201356040518263ffffffff1660e01b8152600401611a0491815260200190565b5f6040518083038186803b158015611a1a575f80fd5b505afa158015611a2c573d5f803e3d5ffd5b505050505f6001600160a01b031663d4476f63868684818110611a5157611a51614713565b905060200201356040518263ffffffff1660e01b8152600401611a7691815260200190565b5f6040518083038186803b158015611a8c575f80fd5b505afa158015611a9e573d5f803e3d5ffd5b5050600190920191506119bf9050565b5050505050565b611abd6128e7565b611aca6020890189614727565b90505f03611aeb576040516357cfa21760e01b815260040160405180910390fd5b600a611afa60208a018a614727565b90501115611b1157600a6112ca60208a018a614727565b611b23611301368b90038b018b61476d565b611b6b611b3360208a018a614727565b808060200260200160405190810160405280939291908181526020018383602002808284375f920191909152508b9250612a05915050565b15611b9a5786611b7e60208a018a614727565b60405163dc4d78b160e01b815260040161055c939291906147ba565b5f611be58c8c611bad60208d018d614727565b808060200260200160405190810160405280939291908181526020018383602002808284375f920191909152508e9250612a5e915050565b90505f6040518060c0016040528089898080601f0160208091040260200160405190810160405280939291908181526020018383808284375f92019190915250505090825250602090810190611c3d908d018d614727565b808060200260200160405190810160405280939291908181526020018383602002808284375f920191909152505050908252508b356020808301919091528d356040808401919091528e82013560608401528051601f88018390048302810183019091528681526080909201919087908790819084018382808284375f9201919091525050509152509050611cd4818a8888612e94565b60405163a14f897160e01b81525f90819063a14f897190611cf99086906004016147dc565b5f60405180830381865afa158015611d13573d5f803e3d5ffd5b505050506040513d5f823e601f3d908101601f19168201604052611d3a9190810190614842565b9050611d4581612d06565b7f68113e68af494c6efd0210fc4bf9ba748d1ffadaa4718217fdf63548c4aee7008054815f611d73836149b2565b909155505080546040805160606020601f8e01819004028201810183529181018c815290918291908e908e90819085018382808284375f9201829052509385525050506020918201889052838152600685019091526040902081518190611dda90826149ca565b506020828101518051611df39260018501920190613b06565b50905050807ff9011bd6ba0da6049c520d70fe5971f17ed7ab795486052544b51019896c596b848e8e8e8c8c6040516116d596959493929190614b52565b611e396126fe565b7f237e158222e3e6968b72b9db0d8043aacf074ad9f650f0d1606b4d82ee432c0080546001600160a01b0319166001600160a01b0383169081178255611e7d61101b565b6001600160a01b03167f38d16b8cac22d99fc7c124b9cd0de2d3fa1faef420bfe791d8c362d765e2270060405160405180910390a35050565b5f5b83811015612065575f633bce498d868684818110611ed857611ed8614713565b604080516001600160e01b031960e087901b168152910292909201356004830152506001600160a01b03891660248201526044015f6040518083038186803b158015611f22575f80fd5b505afa158015611f34573d5f803e3d5ffd5b505050505f6001600160a01b0316633bce498d868684818110611f5957611f59614713565b9050604002015f0135878785818110611f7457611f74614713565b9050604002016020016020810190611f8c91906142af565b6040516001600160e01b031960e085901b16815260048101929092526001600160a01b031660248201526044015f6040518083038186803b158015611fcf575f80fd5b505afa158015611fe1573d5f803e3d5ffd5b505050505f6001600160a01b031663d4476f6386868481811061200657612006614713565b9050604002015f01356040518263ffffffff1660e01b815260040161202d91815260200190565b5f6040518083038186803b158015612043575f80fd5b505afa158015612055573d5f803e3d5ffd5b505060019092019150611eb89050565b505050505050565b5f6121416040518060a00160405280606d8152602001614d73606d913980519060200120835f01518051906020012084602001516040516020016120b19190614c1d565b6040516020818303038152906040528051906020012085604001518051906020012086606001516040516020016120e89190614c52565b60408051601f198184030181528282528051602091820120908301969096528101939093526060830191909152608082015260a081019190915260c0015b60405160208183030381529060405280519060200120612e9e565b92915050565b5f7f68113e68af494c6efd0210fc4bf9ba748d1ffadaa4718217fdf63548c4aee70090505f6121ab8585858080601f0160208091040260200160405190810160405280939291908181526020018383808284375f92019190915250612eca92505050565b604051636c88eb4360e01b81526001600160a01b03821660048201529091505f90636c88eb43906024015f6040518083038186803b1580156121eb575f80fd5b505afa1580156121fd573d5f803e3d5ffd5b5050505f87815260028401602090815260408083206001600160a01b038616845290915290205460ff16159050612259576040516399ec48d960e01b8152600481018790526001600160a01b038216602482015260440161055c565b5f9586526002909101602090815260408087206001600160a01b039093168752919052909320805460ff19166001179055505050565b5f805f6001600160a01b031663c2b429866040518163ffffffff1660e01b8152600401602060405180830381865afa1580156122cd573d5f803e3d5ffd5b505050506040513d601f19601f820116820180604052508101906122f19190614c6d565b9092101592915050565b60605f61230783612ef2565b60010190505f8167ffffffffffffffff81111561232657612326613d67565b6040519080825280601f01601f191660200182016040528015612350576020820181803683370190505b5090508181016020015b5f19017f3031323334353637383961626364656600000000000000000000000000000000600a86061a8153600a850494508461235a57509392505050565b6123a0612fd3565b610b7f828261301c565b6123b2612fd3565b610eac8161308e565b6123c3612fd3565b610b626130bf565b6123d36130f2565b7fcd5ed15c6e187e77e9aee88184c21f4f2182ab5827cb3b7e07fbedcd63f03300805460ff191681557f5db9ee0a495bf2e6ff9c91a7834c1ba4fdd244a5e8aa4e537bd38aeae4b073aa335b6040516001600160a01b03909116815260200160405180910390a150565b306001600160a01b037f00000000000000000000000000000000000000000000000000000000000000001614806124d657507f00000000000000000000000000000000000000000000000000000000000000006001600160a01b03166124ca7f360894a13ba1a3210667c828492db98dca3e2076cc3735a920a3ca505d382bbc546001600160a01b031690565b6001600160a01b031614155b15610b625760405163703e46dd60e11b815260040160405180910390fd5b610eac6126fe565b816001600160a01b03166352d1902d6040518163ffffffff1660e01b8152600401602060405180830381865afa925050508015612556575060408051601f3d908101601f1916820190925261255391810190614c6d565b60015b61257e57604051634c9c8ce360e01b81526001600160a01b038316600482015260240161055c565b7f360894a13ba1a3210667c828492db98dca3e2076cc3735a920a3ca505d382bbc81146125c157604051632a87526960e21b81526004810182905260240161055c565b6125cb8383613134565b505050565b306001600160a01b037f00000000000000000000000000000000000000000000000000000000000000001614610b625760405163703e46dd60e11b815260040160405180910390fd5b5f612141604051806080016040528060548152602001614de06054913980516020918201208451604051919261264f9201614c1d565b6040516020818303038152906040528051906020012084602001518051906020012085604001516040516020016126869190614c52565b60408051601f198184030181528282528051602091820120908301959095528101929092526060820152608081019190915260a001612126565b5f805f6001600160a01b0316632a3889986040518163ffffffff1660e01b8152600401602060405180830381865afa1580156122cd573d5f803e3d5ffd5b3361270761101b565b6001600160a01b031614610b625760405163118cdaa760e01b815233600482015260240161055c565b7f237e158222e3e6968b72b9db0d8043aacf074ad9f650f0d1606b4d82ee432c0080546001600160a01b0319168155610b7f82613189565b6127706128e7565b7fcd5ed15c6e187e77e9aee88184c21f4f2182ab5827cb3b7e07fbedcd63f03300805460ff191660011781557f62e78cea01bee320cd4e420270b5ea74000d11b0c9f74754ebdbfc544b05a2583361241f565b7fa16a46d94261c7517cc8ff89f61c0ce93598e3c849801011dee649a6a557d10280546060917fa16a46d94261c7517cc8ff89f61c0ce93598e3c849801011dee649a6a557d1009161281490614347565b80601f016020809104026020016040519081016040528092919081815260200182805461284090614347565b801561288b5780601f106128625761010080835404028352916020019161288b565b820191905f5260205f20905b81548152906001019060200180831161286e57829003601f168201915b505050505091505090565b7fa16a46d94261c7517cc8ff89f61c0ce93598e3c849801011dee649a6a557d10380546060917fa16a46d94261c7517cc8ff89f61c0ce93598e3c849801011dee649a6a557d1009161281490614347565b7fcd5ed15c6e187e77e9aee88184c21f4f2182ab5827cb3b7e07fbedcd63f033005460ff1615610b625760405163d93c066560e01b815260040160405180910390fd5b80602001515f0361294e5760405163de2859c160e01b815260040160405180910390fd5b602081015161016d1015612986576020810151604051633295186360e01b815261016d6004820152602481019190915260440161055c565b80514210156129b457805160405163f24c088760e01b8152426004820152602481019190915260440161055c565b428160200151620151806129c89190614c84565b82516129d49190614c9b565b1015610eac5760405162c0d20160e61b8152426004820152815160248201526020820151604482015260640161055c565b5f805b8351811015612a5557826001600160a01b0316848281518110612a2d57612a2d614713565b60200260200101516001600160a01b031603612a4d576001915050612141565b600101612a08565b505f9392505050565b60605f849003612a815760405163a6a6cb2160e01b815260040160405180910390fd5b8367ffffffffffffffff811115612a9a57612a9a613d67565b604051908082528060200260200182016040528015612ac3578160200160208202803683370190505b5090505f805b85811015612c4a575f878783818110612ae457612ae4614713565b9050604002015f013590505f888884818110612b0257612b02614713565b9050604002016020016020810190612b1a91906142af565b90505f612b26836131f9565b9050612b3181613245565b612b3f9061ffff1686614c9b565b604051633bce498d60e01b8152600481018590526001600160a01b03891660248201529095505f90633bce498d906044015f6040518083038186803b158015612b86575f80fd5b505afa158015612b98573d5f803e3d5ffd5b5050604051633bce498d60e01b8152600481018690526001600160a01b03851660248201525f9250633bce498d91506044015f6040518083038186803b158015612be0575f80fd5b505afa158015612bf2573d5f803e3d5ffd5b50505050612c008883612a05565b612c2157818860405163a4c3039160e01b815260040161055c929190614cae565b82868581518110612c3457612c34614713565b6020908102919091010152505050600101612ac9565b50610800811115612c795760405163e7f4895d60e01b815261080060048201526024810182905260440161055c565b50949350505050565b5f612c8c856133d4565b90505f612cce8285858080601f0160208091040260200160405190810160405280939291908181526020018383808284375f92019190915250612eca92505050565b9050846001600160a01b0316816001600160a01b031614612065578383604051632a873d2760e01b815260040161055c929190614ccf565b6001815111612d125750565b5f815f81518110612d2557612d25614713565b60200260200101516020015190505f600190505b82518110156125cb5781838281518110612d5557612d55614713565b60200260200101516020015114612db557825f81518110612d7857612d78614713565b6020026020010151838281518110612d9257612d92614713565b602002602001015160405163cfae921f60e01b815260040161055c929190614ce2565b600101612d39565b5f805b8251811015612e65575f838281518110612ddc57612ddc614713565b602002602001015190505f612df0826131f9565b9050612dfb81613245565b612e099061ffff1685614c9b565b60405163064fcfcb60e21b8152600481018490529094505f9063193f3f2c906024015f6040518083038186803b158015612e41575f80fd5b505afa158015612e53573d5f803e3d5ffd5b505060019094019350612dc092505050565b50610800811115610b7f5760405163e7f4895d60e01b815261080060048201526024810182905260440161055c565b5f612c8c856134d5565b5f612141612eaa6135c2565b8360405161190160f01b8152600281019290925260228201526042902090565b5f805f80612ed886866135d0565b925092509250612ee88282613619565b5090949350505050565b5f807a184f03e93ff9f4daa797ed6e38ed64bf6a1f0100000000000000008310612f3a577a184f03e93ff9f4daa797ed6e38ed64bf6a1f010000000000000000830492506040015b6d04ee2d6d415b85acef81000000008310612f66576d04ee2d6d415b85acef8100000000830492506020015b662386f26fc100008310612f8457662386f26fc10000830492506010015b6305f5e1008310612f9c576305f5e100830492506008015b6127108310612fb057612710830492506004015b60648310612fc2576064830492506002015b600a83106121415760010192915050565b7ff0c57e16840df040f15088dc2f81fe391c3923bec73e23a9662efc9c229c6a0054600160401b900460ff16610b6257604051631afcd79f60e31b815260040160405180910390fd5b613024612fd3565b7fa16a46d94261c7517cc8ff89f61c0ce93598e3c849801011dee649a6a557d1007fa16a46d94261c7517cc8ff89f61c0ce93598e3c849801011dee649a6a557d10261307084826149ca565b506003810161307f83826149ca565b505f8082556001909101555050565b613096612fd3565b6001600160a01b038116610ea357604051631e4fbdf760e01b81525f600482015260240161055c565b6130c7612fd3565b7fcd5ed15c6e187e77e9aee88184c21f4f2182ab5827cb3b7e07fbedcd63f03300805460ff19169055565b7fcd5ed15c6e187e77e9aee88184c21f4f2182ab5827cb3b7e07fbedcd63f033005460ff16610b6257604051638dfc202b60e01b815260040160405180910390fd5b61313d826136d1565b6040516001600160a01b038316907fbc7cd75a20ee27fd9adebab32041f755214dbc6bffa90cc0225b39da2e5c2d3b905f90a2805115613181576125cb8282613747565b610b7f6137b9565b7f9016d09d72d40fdae2fd8ceac6b6234c7706214fd39c1cd1e609a0528c19930080546001600160a01b031981166001600160a01b03848116918217845560405192169182907f8be0079c531659141344cd1fd0a4f28419497f9722a3daafe3b4186f6b6457e0905f90a3505050565b5f600882901c60ff1660538111156132295760405163641950d760e01b815260ff8216600482015260240161055c565b8060ff16605381111561323e5761323e614d06565b9392505050565b5f8082605381111561325957613259614d06565b0361326657506002919050565b600282605381111561327a5761327a614d06565b0361328757506008919050565b600382605381111561329b5761329b614d06565b036132a857506010919050565b60048260538111156132bc576132bc614d06565b036132c957506020919050565b60058260538111156132dd576132dd614d06565b036132ea57506040919050565b60068260538111156132fe576132fe614d06565b0361330b57506080919050565b600782605381111561331f5761331f614d06565b0361332c575060a0919050565b600882605381111561334057613340614d06565b0361334e5750610100919050565b600982605381111561336257613362614d06565b036133705750610200919050565b600a82605381111561338457613384614d06565b036133925750610400919050565b600b8260538111156133a6576133a6614d06565b036133b45750610800919050565b8160405163be7830b160e01b815260040161055c9190614d1a565b919050565b5f8060405180610100016040528060c28152602001614ed460c2913980519060200120835f01518051906020012084602001516040516020016134179190614d40565b604051602081830303815290604052805190602001208560400151866060015187608001518860a001518960c001516040516020016134569190614c52565b60408051601f1981840301815282825280516020918201209083019990995281019690965260608601949094526001600160a01b03909216608085015260a084015260c083015260e08201526101008101919091526101200160405160208183030381529060405280519060200120905061323e8360600151826137d8565b5f806040518060c0016040528060a08152602001614e3460a0913980519060200120835f01518051906020012084602001516040516020016135179190614d40565b604051602081830303815290604052805190602001208560400151866060015187608001518860a001516040516020016135519190614c52565b60408051601f198184030181528282528051602091820120908301989098528101959095526060850193909352608084019190915260a083015260c082015260e08101919091526101000160405160208183030381529060405280519060200120905061323e8360400151826137d8565b5f6135cb613876565b905090565b5f805f8351604103613607576020840151604085015160608601515f1a6135f9888285856138e9565b955095509550505050613612565b505081515f91506002905b9250925092565b5f82600381111561362c5761362c614d06565b03613635575050565b600182600381111561364957613649614d06565b036136675760405163f645eedf60e01b815260040160405180910390fd5b600282600381111561367b5761367b614d06565b0361369c5760405163fce698f760e01b81526004810182905260240161055c565b60038260038111156136b0576136b0614d06565b03610b7f576040516335e2f38360e21b81526004810182905260240161055c565b806001600160a01b03163b5f0361370657604051634c9c8ce360e01b81526001600160a01b038216600482015260240161055c565b7f360894a13ba1a3210667c828492db98dca3e2076cc3735a920a3ca505d382bbc80546001600160a01b0319166001600160a01b0392909216919091179055565b60605f80846001600160a01b0316846040516137639190614c52565b5f60405180830381855af49150503d805f811461379b576040519150601f19603f3d011682016040523d82523d5f602084013e6137a0565b606091505b50915091506137b08583836139b1565b95945050505050565b3415610b625760405163b398979f60e01b815260040160405180910390fd5b5f807f8b73c3c69bb8fe3d512ecc4cf759cc79239f7b179b0ffacaa9a75d522b39400f613803613a0d565b61380b613a88565b6040805160208101949094528301919091526060820152608081018590523060a082015260c00160405160208183030381529060405280519060200120905061386e818460405161190160f01b8152600281019290925260228201526042902090565b949350505050565b5f7f8b73c3c69bb8fe3d512ecc4cf759cc79239f7b179b0ffacaa9a75d522b39400f6138a0613a0d565b6138a8613a88565b60408051602081019490945283019190915260608201524660808201523060a082015260c00160405160208183030381529060405280519060200120905090565b5f80807f7fffffffffffffffffffffffffffffff5d576e7357a4501ddfe92f46681b20a084111561392257505f915060039050826139a7565b604080515f808252602082018084528a905260ff891692820192909252606081018790526080810186905260019060a0016020604051602081039080840390855afa158015613973573d5f803e3d5ffd5b5050604051601f1901519150506001600160a01b03811661399e57505f9250600191508290506139a7565b92505f91508190505b9450945094915050565b6060826139c6576139c182613add565b61323e565b81511580156139dd57506001600160a01b0384163b155b15613a0657604051639996b31560e01b81526001600160a01b038516600482015260240161055c565b5092915050565b5f7fa16a46d94261c7517cc8ff89f61c0ce93598e3c849801011dee649a6a557d10081613a386127c3565b805190915015613a5057805160209091012092915050565b81548015613a5f579392505050565b7fc5d2460186f7233c927e7db2dcc703c0e500b653ca82273b7bfad8045d85a470935050505090565b5f7fa16a46d94261c7517cc8ff89f61c0ce93598e3c849801011dee649a6a557d10081613ab3612896565b805190915015613acb57805160209091012092915050565b60018201548015613a5f579392505050565b805115613aed5780518082602001fd5b60405163d6bda27560e01b815260040160405180910390fd5b828054828255905f5260205f20908101928215613b3f579160200282015b82811115613b3f578251825591602001919060010190613b24565b50613b4b929150613b88565b5090565b828054828255905f5260205f20908101928215613b3f579160200282015b82811115613b3f578235825591602001919060010190613b6d565b5b80821115613b4b575f8155600101613b89565b5f8083601f840112613bac575f80fd5b50813567ffffffffffffffff811115613bc3575f80fd5b602083019150836020828501011115613bda575f80fd5b9250929050565b5f805f805f805f6080888a031215613bf7575f80fd5b87359650602088013567ffffffffffffffff80821115613c15575f80fd5b613c218b838c01613b9c565b909850965060408a0135915080821115613c39575f80fd5b613c458b838c01613b9c565b909650945060608a0135915080821115613c5d575f80fd5b50613c6a8a828b01613b9c565b989b979a50959850939692959293505050565b5f60208284031215613c8d575f80fd5b5035919050565b5f815180845260208085019450602084015f5b83811015613ccc5781516001600160a01b031687529582019590820190600101613ca7565b509495945050505050565b602081525f61323e6020830184613c94565b5f5b83811015613d03578181015183820152602001613ceb565b50505f910152565b5f8151808452613d22816020860160208601613ce9565b601f01601f19169290920160200192915050565b602081525f61323e6020830184613d0b565b6001600160a01b0381168114610eac575f80fd5b80356133cf81613d48565b634e487b7160e01b5f52604160045260245ffd5b6040516080810167ffffffffffffffff81118282101715613d9e57613d9e613d67565b60405290565b604051601f8201601f1916810167ffffffffffffffff81118282101715613dcd57613dcd613d67565b604052919050565b5f8060408385031215613de6575f80fd5b8235613df181613d48565b915060208381013567ffffffffffffffff80821115613e0e575f80fd5b818601915086601f830112613e21575f80fd5b813581811115613e3357613e33613d67565b613e45601f8201601f19168501613da4565b91508082528784828501011115613e5a575f80fd5b80848401858401375f848284010152508093505050509250929050565b60ff60f81b881681525f602060e06020840152613e9760e084018a613d0b565b8381036040850152613ea9818a613d0b565b606085018990526001600160a01b038816608086015260a0850187905284810360c0860152855180825260208088019350909101905f5b81811015613efc57835183529284019291840191600101613ee0565b50909c9b505050505050505050505050565b5f60408284031215613f1e575f80fd5b50919050565b5f8083601f840112613f34575f80fd5b50813567ffffffffffffffff811115613f4b575f80fd5b6020830191508360208260061b8501011115613bda575f80fd5b5f8083601f840112613f75575f80fd5b50813567ffffffffffffffff811115613f8c575f80fd5b6020830191508360208260051b8501011115613bda575f80fd5b5f805f805f805f8060c0898b031215613fbd575f80fd5b88359750613fce8a60208b01613f0e565b9650606089013567ffffffffffffffff80821115613fea575f80fd5b613ff68c838d01613f24565b909850965060808b013591508082111561400e575f80fd5b61401a8c838d01613f65565b909650945060a08b0135915080821115614032575f80fd5b5061403f8b828c01613b9c565b999c989b5096995094979396929594505050565b5f805f805f805f805f805f6101208c8e03121561406e575f80fd5b67ffffffffffffffff808d351115614084575f80fd5b6140918e8e358f01613f24565b909c509a506140a38e60208f01613f0e565b99506140b28e60608f01613f0e565b98508060a08e013511156140c4575f80fd5b6140d48e60a08f01358f01613f0e565b97508060c08e013511156140e6575f80fd5b6140f68e60c08f01358f01613b9c565b909750955060e08d013581101561410b575f80fd5b61411b8e60e08f01358f01613b9c565b90955093506101008d0135811015614131575f80fd5b506141438d6101008e01358e01613b9c565b81935080925050509295989b509295989b9093969950565b5f805f806040858703121561416e575f80fd5b843567ffffffffffffffff80821115614185575f80fd5b61419188838901613f65565b909650945060208701359150808211156141a9575f80fd5b506141b687828801613b9c565b95989497509550505050565b5f805f805f805f805f805f6101008c8e0312156141dd575f80fd5b67ffffffffffffffff808d3511156141f3575f80fd5b6142008e8e358f01613f24565b909c509a506142128e60208f01613f0e565b99508060608e01351115614224575f80fd5b6142348e60608f01358f01613f0e565b985061424260808e01613d5c565b97508060a08e01351115614254575f80fd5b6142648e60a08f01358f01613b9c565b909750955060c08d0135811015614279575f80fd5b6142898e60c08f01358f01613b9c565b909550935060e08d013581101561429e575f80fd5b506141438d60e08e01358e01613b9c565b5f602082840312156142bf575f80fd5b813561323e81613d48565b5f805f805f606086880312156142de575f80fd5b85356142e981613d48565b9450602086013567ffffffffffffffff80821115614305575f80fd5b61431189838a01613f24565b90965094506040880135915080821115614329575f80fd5b5061433688828901613b9c565b969995985093965092949392505050565b600181811c9082168061435b57607f821691505b602082108103613f1e57634e487b7160e01b5f52602260045260245ffd5b601f8211156125cb57805f5260205f20601f840160051c8101602085101561439e5750805b601f840160051c820191505b81811015611aae575f81556001016143aa565b67ffffffffffffffff8311156143d5576143d5613d67565b6143e9836143e38354614347565b83614379565b5f601f84116001811461441a575f85156144035750838201355b5f19600387901b1c1916600186901b178355611aae565b5f83815260208120601f198716915b828110156144495786850135825560209485019460019092019101614429565b5086821015614465575f1960f88860031b161c19848701351681555b505060018560011b0183555050505050565b5f828254808552602080860195506005818360051b850101865f52825f205f5b8581101561452a57601f19878403018a525f82546144b481614347565b808652600182811680156144cf57600181146144e857614513565b60ff198416888b0152821515891b88018a019450614513565b865f52895f205f5b8481101561450b5781548a82018d0152908301908b016144f0565b89018b019550505b509c88019c92955050509190910190600101614497565b509098975050505050505050565b81835281816020850137505f828201602090810191909152601f909101601f19169091010190565b606081525f6145726060830187614477565b82810360208401526145848187614477565b90508281036040840152614599818587614538565b979650505050505050565b5f85516145b5818460208a01613ce9565b61103b60f11b90830190815285516145d4816002840160208a01613ce9565b808201915050601760f91b80600283015285516145f8816003850160208a01613ce9565b60039201918201528351614613816004840160208801613ce9565b016004019695505050505050565b606081525f614634606083018789614538565b82810360208401526146468187614477565b9050828103604084015261465b818587614538565b98975050505050505050565b5f60208284031215614677575f80fd5b815161323e81613d48565b8183525f60208085019450825f5b85811015613ccc5781356146a381613d48565b6001600160a01b031687529582019590820190600101614690565b8481525f84356146cd81613d48565b6001600160a01b038082166020850152602087013591506146ed82613d48565b1660408301526080606083018190526147099083018486614682565b9695505050505050565b634e487b7160e01b5f52603260045260245ffd5b5f808335601e1984360301811261473c575f80fd5b83018035915067ffffffffffffffff821115614756575f80fd5b6020019150600581901b3603821315613bda575f80fd5b5f6040828403121561477d575f80fd5b6040516040810181811067ffffffffffffffff821117156147a0576147a0613d67565b604052823581526020928301359281019290925250919050565b6001600160a01b0384168152604060208201525f6137b0604083018486614682565b602080825282518282018190525f9190848201906040850190845b81811015614813578351835292840192918401916001016147f7565b50909695505050505050565b5f67ffffffffffffffff82111561483857614838613d67565b5060051b60200190565b5f6020808385031215614853575f80fd5b825167ffffffffffffffff8082111561486a575f80fd5b818501915085601f83011261487d575f80fd5b815161489061488b8261481f565b613da4565b81815260059190911b830184019084810190888311156148ae575f80fd5b8585015b83811015614991578051858111156148c8575f80fd5b86016080818c03601f190112156148dd575f80fd5b6148e5613d7b565b8882015181526040808301518a83015260608301518183015260808301518881111561490f575f80fd5b8084019350508c603f840112614923575f80fd5b8983015161493361488b8261481f565b81815260059190911b84018201908b8101908f831115614951575f80fd5b948301945b8286101561497b578551935061496b84613d48565b838252948c0194908c0190614956565b60608501525050508452509186019186016148b2565b5098975050505050505050565b634e487b7160e01b5f52601160045260245ffd5b5f600182016149c3576149c361499e565b5060010190565b815167ffffffffffffffff8111156149e4576149e4613d67565b6149f8816149f28454614347565b84614379565b602080601f831160018114614a2b575f8415614a145750858301515b5f19600386901b1c1916600185901b178555612065565b5f85815260208120601f198616915b82811015614a5957888601518255948401946001909101908401614a3a565b5085821015614a7657878501515f19600388901b60f8161c191681555b5050505050600190811b01905550565b5f608083018251845260208084015160208601526040840151604086015260608401516080606087015282815180855260a0880191506020830194505f92505b80831015614aef5784516001600160a01b03168252938301936001929092019190830190614ac6565b509695505050505050565b5f8282518085526020808601955060208260051b840101602086015f5b84811015614b4557601f19868403018952614b33838351614a86565b98840198925090830190600101614b17565b5090979650505050505050565b608081525f614b646080830189614afa565b6001600160a01b03881660208401528281036040840152614b86818789614538565b90508281036060840152614b9b818587614538565b9998505050505050505050565b602081528160208201525f7f07ffffffffffffffffffffffffffffffffffffffffffffffffffffffffffffff831115614bdf575f80fd5b8260051b80856040850137919091016040019392505050565b604081525f614c0a6040830186614afa565b8281036020840152614709818587614538565b81515f9082906020808601845b83811015614c4657815185529382019390820190600101614c2a565b50929695505050505050565b5f8251614c63818460208701613ce9565b9190910192915050565b5f60208284031215614c7d575f80fd5b5051919050565b80820281158282048414176121415761214161499e565b808201808211156121415761214161499e565b6001600160a01b0383168152604060208201525f61386e6040830184613c94565b602081525f61386e602083018486614538565b604081525f614cf46040830185614a86565b82810360208401526137b08185614a86565b634e487b7160e01b5f52602160045260245ffd5b6020810160548310614d3a57634e487b7160e01b5f52602160045260245ffd5b91905290565b81515f9082906020808601845b83811015614c465781516001600160a01b031685529382019390820190600101614d4d56fe5573657244656372797074526573706f6e7365566572696669636174696f6e286279746573207075626c69634b65792c627974657333325b5d20637448616e646c65732c6279746573207573657244656372797074656453686172652c627974657320657874726144617461295075626c696344656372797074566572696669636174696f6e28627974657333325b5d20637448616e646c65732c627974657320646563727970746564526573756c742c62797465732065787472614461746129557365724465637279707452657175657374566572696669636174696f6e286279746573207075626c69634b65792c616464726573735b5d20636f6e74726163744164647265737365732c75696e7432353620636f6e747261637473436861696e49642c75696e7432353620737461727454696d657374616d702c75696e74323536206475726174696f6e446179732c6279746573206578747261446174612944656c656761746564557365724465637279707452657175657374566572696669636174696f6e286279746573207075626c69634b65792c616464726573735b5d20636f6e74726163744164647265737365732c616464726573732064656c656761746f72416464726573732c75696e7432353620636f6e747261637473436861696e49642c75696e7432353620737461727454696d657374616d702c75696e74323536206475726174696f6e446179732c62797465732065787472614461746129a164736f6c6343000818000a",
  "linkReferences": {},
  "deployedLinkReferences": {}
}