{
  "_format": "hh-sol-artifact-1",
  "contractName": "DecryptionManager",
  "sourceName": "contracts/DecryptionManager.sol",
  "abi": [
    {
      "inputs": [
        {
          "internalType": "contract IHTTPZ",
          "name": "httpz",
          "type": "address"
        },
        {
          "internalType": "contract IACLManager",
          "name": "aclManager",
          "type": "address"
        },
        {
          "internalType": "contract ICiphertextStorage",
          "name": "ciphertextStorage",
          "type": "address"
        },
        {
          "internalType": "address",
          "name": "paymentManager",
          "type": "address"
        }
      ],
      "stateMutability": "nonpayable",
      "type": "constructor"
    },
    {
      "inputs": [
        {
          "internalType": "uint8",
          "name": "maxLength",
          "type": "uint8"
        },
        {
          "internalType": "uint256",
          "name": "actualLength",
          "type": "uint256"
        }
      ],
      "name": "ContractAddressesMaxLengthExceeded",
      "type": "error"
    },
    {
      "inputs": [
        {
          "internalType": "address",
          "name": "contractAddress",
          "type": "address"
        }
      ],
      "name": "ContractNotInContractAddresses",
      "type": "error"
    },
    {
      "inputs": [
        {
          "internalType": "uint256",
          "name": "keyId",
          "type": "uint256"
        }
      ],
      "name": "DifferentKeyIdsNotAllowed",
      "type": "error"
    },
    {
      "inputs": [],
      "name": "ECDSAInvalidSignature",
      "type": "error"
    },
    {
      "inputs": [
        {
          "internalType": "uint256",
          "name": "length",
          "type": "uint256"
        }
      ],
      "name": "ECDSAInvalidSignatureLength",
      "type": "error"
    },
    {
      "inputs": [
        {
          "internalType": "bytes32",
          "name": "s",
          "type": "bytes32"
        }
      ],
      "name": "ECDSAInvalidSignatureS",
      "type": "error"
    },
    {
      "inputs": [],
      "name": "InvalidShortString",
      "type": "error"
    },
    {
      "inputs": [
        {
          "internalType": "bytes",
          "name": "signature",
          "type": "bytes"
        }
      ],
      "name": "InvalidUserSignature",
      "type": "error"
    },
    {
      "inputs": [
        {
          "internalType": "uint256",
          "name": "publicDecryptionId",
          "type": "uint256"
        },
        {
          "internalType": "address",
          "name": "signer",
          "type": "address"
        }
      ],
      "name": "KmsSignerAlreadyResponded",
      "type": "error"
    },
    {
      "inputs": [
        {
          "internalType": "uint256",
          "name": "maxValue",
          "type": "uint256"
        },
        {
          "internalType": "uint256",
          "name": "actualValue",
          "type": "uint256"
        }
      ],
      "name": "MaxDurationDaysExceeded",
      "type": "error"
    },
    {
      "inputs": [
        {
          "internalType": "address",
          "name": "owner",
          "type": "address"
        }
      ],
      "name": "OwnableInvalidOwner",
      "type": "error"
    },
    {
      "inputs": [
        {
          "internalType": "address",
          "name": "account",
          "type": "address"
        }
      ],
      "name": "OwnableUnauthorizedAccount",
      "type": "error"
    },
    {
      "inputs": [
        {
          "internalType": "string",
          "name": "str",
          "type": "string"
        }
      ],
      "name": "StringTooLong",
      "type": "error"
    },
    {
      "anonymous": false,
      "inputs": [],
      "name": "EIP712DomainChanged",
      "type": "event"
    },
    {
      "anonymous": false,
      "inputs": [
        {
          "indexed": true,
          "internalType": "address",
          "name": "previousOwner",
          "type": "address"
        },
        {
          "indexed": true,
          "internalType": "address",
          "name": "newOwner",
          "type": "address"
        }
      ],
      "name": "OwnershipTransferStarted",
      "type": "event"
    },
    {
      "anonymous": false,
      "inputs": [
        {
          "indexed": true,
          "internalType": "address",
          "name": "previousOwner",
          "type": "address"
        },
        {
          "indexed": true,
          "internalType": "address",
          "name": "newOwner",
          "type": "address"
        }
      ],
      "name": "OwnershipTransferred",
      "type": "event"
    },
    {
      "anonymous": false,
      "inputs": [
        {
          "indexed": true,
          "internalType": "uint256",
          "name": "publicDecryptionId",
          "type": "uint256"
        },
        {
          "components": [
            {
              "internalType": "uint256",
              "name": "ctHandle",
              "type": "uint256"
            },
            {
              "internalType": "uint256",
              "name": "keyId",
              "type": "uint256"
            },
            {
              "internalType": "bytes",
              "name": "snsCiphertext",
              "type": "bytes"
            }
          ],
          "indexed": false,
          "internalType": "struct SnsCiphertextMaterial[]",
          "name": "snsCtMaterials",
          "type": "tuple[]"
        }
      ],
      "name": "PublicDecryptionRequest",
      "type": "event"
    },
    {
      "anonymous": false,
      "inputs": [
        {
          "indexed": true,
          "internalType": "uint256",
          "name": "publicDecryptionId",
          "type": "uint256"
        },
        {
          "indexed": false,
          "internalType": "bytes",
          "name": "decryptedResult",
          "type": "bytes"
        },
        {
          "indexed": false,
          "internalType": "bytes[]",
          "name": "signatures",
          "type": "bytes[]"
        }
      ],
      "name": "PublicDecryptionResponse",
      "type": "event"
    },
    {
      "anonymous": false,
      "inputs": [
        {
          "indexed": true,
          "internalType": "uint256",
          "name": "userDecryptionId",
          "type": "uint256"
        },
        {
          "components": [
            {
              "internalType": "uint256",
              "name": "ctHandle",
              "type": "uint256"
            },
            {
              "internalType": "uint256",
              "name": "keyId",
              "type": "uint256"
            },
            {
              "internalType": "bytes",
              "name": "snsCiphertext",
              "type": "bytes"
            }
          ],
          "indexed": false,
          "internalType": "struct SnsCiphertextMaterial[]",
          "name": "snsCtMaterials",
          "type": "tuple[]"
        },
        {
          "indexed": false,
          "internalType": "bytes",
          "name": "publicKey",
          "type": "bytes"
        }
      ],
      "name": "UserDecryptionRequest",
      "type": "event"
    },
    {
      "anonymous": false,
      "inputs": [
        {
          "indexed": true,
          "internalType": "uint256",
          "name": "userDecryptionId",
          "type": "uint256"
        },
        {
          "indexed": false,
          "internalType": "bytes[]",
          "name": "reencryptedShares",
          "type": "bytes[]"
        },
        {
          "indexed": false,
          "internalType": "bytes[]",
          "name": "signatures",
          "type": "bytes[]"
        }
      ],
      "name": "UserDecryptionResponse",
      "type": "event"
    },
    {
      "inputs": [],
      "name": "EIP712_DELEGATED_USER_DECRYPT_REQUEST_TYPE",
      "outputs": [
        {
          "internalType": "string",
          "name": "",
          "type": "string"
        }
      ],
      "stateMutability": "view",
      "type": "function"
    },
    {
      "inputs": [],
      "name": "EIP712_DELEGATED_USER_DECRYPT_REQUEST_TYPE_HASH",
      "outputs": [
        {
          "internalType": "bytes32",
          "name": "",
          "type": "bytes32"
        }
      ],
      "stateMutability": "view",
      "type": "function"
    },
    {
      "inputs": [],
      "name": "EIP712_PUBLIC_DECRYPT_TYPE",
      "outputs": [
        {
          "internalType": "string",
          "name": "",
          "type": "string"
        }
      ],
      "stateMutability": "view",
      "type": "function"
    },
    {
      "inputs": [],
      "name": "EIP712_PUBLIC_DECRYPT_TYPE_HASH",
      "outputs": [
        {
          "internalType": "bytes32",
          "name": "",
          "type": "bytes32"
        }
      ],
      "stateMutability": "view",
      "type": "function"
    },
    {
      "inputs": [],
      "name": "EIP712_USER_DECRYPT_REQUEST_TYPE",
      "outputs": [
        {
          "internalType": "string",
          "name": "",
          "type": "string"
        }
      ],
      "stateMutability": "view",
      "type": "function"
    },
    {
      "inputs": [],
      "name": "EIP712_USER_DECRYPT_REQUEST_TYPE_HASH",
      "outputs": [
        {
          "internalType": "bytes32",
          "name": "",
          "type": "bytes32"
        }
      ],
      "stateMutability": "view",
      "type": "function"
    },
    {
      "inputs": [],
      "name": "EIP712_USER_DECRYPT_RESPONSE_TYPE",
      "outputs": [
        {
          "internalType": "string",
          "name": "",
          "type": "string"
        }
      ],
      "stateMutability": "view",
      "type": "function"
    },
    {
      "inputs": [],
      "name": "EIP712_USER_DECRYPT_RESPONSE_TYPE_HASH",
      "outputs": [
        {
          "internalType": "bytes32",
          "name": "",
          "type": "bytes32"
        }
      ],
      "stateMutability": "view",
      "type": "function"
    },
    {
      "inputs": [],
      "name": "acceptOwnership",
      "outputs": [],
      "stateMutability": "nonpayable",
      "type": "function"
    },
    {
      "inputs": [
        {
          "components": [
            {
              "internalType": "uint256",
              "name": "ctHandle",
              "type": "uint256"
            },
            {
              "internalType": "address",
              "name": "contractAddress",
              "type": "address"
            }
          ],
          "internalType": "struct IDecryptionManager.CtHandleContractPair[]",
          "name": "ctHandleContractPairs",
          "type": "tuple[]"
        },
        {
          "components": [
            {
              "internalType": "uint256",
              "name": "startTimestamp",
              "type": "uint256"
            },
            {
              "internalType": "uint256",
              "name": "durationDays",
              "type": "uint256"
            }
          ],
          "internalType": "struct IDecryptionManager.RequestValidity",
          "name": "requestValidity",
          "type": "tuple"
        },
        {
          "components": [
            {
              "internalType": "address",
              "name": "userAddress",
              "type": "address"
            },
            {
              "internalType": "address",
              "name": "delegatedAddress",
              "type": "address"
            }
          ],
          "internalType": "struct IDecryptionManager.DelegationAccounts",
          "name": "delegationAccounts",
          "type": "tuple"
        },
        {
          "internalType": "uint256",
          "name": "contractsChainId",
          "type": "uint256"
        },
        {
          "internalType": "address[]",
          "name": "contractAddresses",
          "type": "address[]"
        },
        {
          "internalType": "bytes",
          "name": "publicKey",
          "type": "bytes"
        },
        {
          "internalType": "bytes",
          "name": "signature",
          "type": "bytes"
        }
      ],
      "name": "delegatedUserDecryptionRequest",
      "outputs": [],
      "stateMutability": "nonpayable",
      "type": "function"
    },
    {
      "inputs": [],
      "name": "eip712Domain",
      "outputs": [
        {
          "internalType": "bytes1",
          "name": "fields",
          "type": "bytes1"
        },
        {
          "internalType": "string",
          "name": "name",
          "type": "string"
        },
        {
          "internalType": "string",
          "name": "version",
          "type": "string"
        },
        {
          "internalType": "uint256",
          "name": "chainId",
          "type": "uint256"
        },
        {
          "internalType": "address",
          "name": "verifyingContract",
          "type": "address"
        },
        {
          "internalType": "bytes32",
          "name": "salt",
          "type": "bytes32"
        },
        {
          "internalType": "uint256[]",
          "name": "extensions",
          "type": "uint256[]"
        }
      ],
      "stateMutability": "view",
      "type": "function"
    },
    {
      "inputs": [],
      "name": "getVersion",
      "outputs": [
        {
          "internalType": "string",
          "name": "",
          "type": "string"
        }
      ],
      "stateMutability": "pure",
      "type": "function"
    },
    {
      "inputs": [
        {
          "internalType": "uint256",
          "name": "publicDecryptionId",
          "type": "uint256"
        }
      ],
      "name": "isPublicDecryptionDone",
      "outputs": [
        {
          "internalType": "bool",
          "name": "",
          "type": "bool"
        }
      ],
      "stateMutability": "view",
      "type": "function"
    },
    {
      "inputs": [
        {
          "internalType": "uint256",
          "name": "userDecryptionId",
          "type": "uint256"
        }
      ],
      "name": "isUserDecryptionDone",
      "outputs": [
        {
          "internalType": "bool",
          "name": "",
          "type": "bool"
        }
      ],
      "stateMutability": "view",
      "type": "function"
    },
    {
      "inputs": [],
      "name": "owner",
      "outputs": [
        {
          "internalType": "address",
          "name": "",
          "type": "address"
        }
      ],
      "stateMutability": "view",
      "type": "function"
    },
    {
      "inputs": [],
      "name": "pendingOwner",
      "outputs": [
        {
          "internalType": "address",
          "name": "",
          "type": "address"
        }
      ],
      "stateMutability": "view",
      "type": "function"
    },
    {
      "inputs": [
        {
          "internalType": "uint256[]",
          "name": "ctHandles",
          "type": "uint256[]"
        }
      ],
      "name": "publicDecryptionRequest",
      "outputs": [],
      "stateMutability": "nonpayable",
      "type": "function"
    },
    {
      "inputs": [
        {
          "internalType": "uint256",
          "name": "publicDecryptionId",
          "type": "uint256"
        },
        {
          "internalType": "bytes",
          "name": "decryptedResult",
          "type": "bytes"
        },
        {
          "internalType": "bytes",
          "name": "signature",
          "type": "bytes"
        }
      ],
      "name": "publicDecryptionResponse",
      "outputs": [],
      "stateMutability": "nonpayable",
      "type": "function"
    },
    {
      "inputs": [],
      "name": "renounceOwnership",
      "outputs": [],
      "stateMutability": "nonpayable",
      "type": "function"
    },
    {
      "inputs": [
        {
          "internalType": "address",
          "name": "newOwner",
          "type": "address"
        }
      ],
      "name": "transferOwnership",
      "outputs": [],
      "stateMutability": "nonpayable",
      "type": "function"
    },
    {
      "inputs": [
        {
          "components": [
            {
              "internalType": "uint256",
              "name": "ctHandle",
              "type": "uint256"
            },
            {
              "internalType": "address",
              "name": "contractAddress",
              "type": "address"
            }
          ],
          "internalType": "struct IDecryptionManager.CtHandleContractPair[]",
          "name": "ctHandleContractPairs",
          "type": "tuple[]"
        },
        {
          "components": [
            {
              "internalType": "uint256",
              "name": "startTimestamp",
              "type": "uint256"
            },
            {
              "internalType": "uint256",
              "name": "durationDays",
              "type": "uint256"
            }
          ],
          "internalType": "struct IDecryptionManager.RequestValidity",
          "name": "requestValidity",
          "type": "tuple"
        },
        {
          "internalType": "uint256",
          "name": "contractsChainId",
          "type": "uint256"
        },
        {
          "internalType": "address[]",
          "name": "contractAddresses",
          "type": "address[]"
        },
        {
          "internalType": "address",
          "name": "userAddress",
          "type": "address"
        },
        {
          "internalType": "bytes",
          "name": "publicKey",
          "type": "bytes"
        },
        {
          "internalType": "bytes",
          "name": "signature",
          "type": "bytes"
        }
      ],
      "name": "userDecryptionRequest",
      "outputs": [],
      "stateMutability": "nonpayable",
      "type": "function"
    },
    {
      "inputs": [
        {
          "internalType": "uint256",
          "name": "userDecryptionId",
          "type": "uint256"
        },
        {
          "internalType": "bytes",
          "name": "reencryptedShare",
          "type": "bytes"
        },
        {
          "internalType": "bytes",
          "name": "signature",
          "type": "bytes"
        }
      ],
      "name": "userDecryptionResponse",
      "outputs": [],
      "stateMutability": "nonpayable",
      "type": "function"
    }
  ],
  "bytecode": "0x6101e06040523480156200001257600080fd5b5060405162005c1b38038062005c1b83398181016040528101906200003891906200061c565b6040518060400160405280601181526020017f44656372797074696f6e4d616e616765720000000000000000000000000000008152506040518060400160405280600181526020017f310000000000000000000000000000000000000000000000000000000000000081525033600073ffffffffffffffffffffffffffffffffffffffff168173ffffffffffffffffffffffffffffffffffffffff16036200011a5760006040517f1e4fbdf70000000000000000000000000000000000000000000000000000000081526004016200011191906200069f565b60405180910390fd5b6200012b81620002ba60201b60201c565b5062000142600283620002f360201b90919060201c565b610120818152505062000160600382620002f360201b90919060201c565b6101408181525050818051906020012060e08181525050808051906020012061010081815250504660a081815250506200019f6200034b60201b60201c565b608081815250503073ffffffffffffffffffffffffffffffffffffffff1660c08173ffffffffffffffffffffffffffffffffffffffff168152505050508373ffffffffffffffffffffffffffffffffffffffff166101608173ffffffffffffffffffffffffffffffffffffffff16815250508273ffffffffffffffffffffffffffffffffffffffff166101808173ffffffffffffffffffffffffffffffffffffffff16815250508173ffffffffffffffffffffffffffffffffffffffff166101a08173ffffffffffffffffffffffffffffffffffffffff16815250508073ffffffffffffffffffffffffffffffffffffffff166101c08173ffffffffffffffffffffffffffffffffffffffff16815250505050505062000bfb565b600160006101000a81549073ffffffffffffffffffffffffffffffffffffffff0219169055620002f081620003a860201b60201c565b50565b6000602083511015620003195762000311836200046c60201b60201c565b905062000345565b826200032b83620004d960201b60201c565b60000190816200033c919062000936565b5060ff60001b90505b92915050565b60007f8b73c3c69bb8fe3d512ecc4cf759cc79239f7b179b0ffacaa9a75d522b39400f60e0516101005146306040516020016200038d95949392919062000a49565b60405160208183030381529060405280519060200120905090565b60008060009054906101000a900473ffffffffffffffffffffffffffffffffffffffff169050816000806101000a81548173ffffffffffffffffffffffffffffffffffffffff021916908373ffffffffffffffffffffffffffffffffffffffff1602179055508173ffffffffffffffffffffffffffffffffffffffff168173ffffffffffffffffffffffffffffffffffffffff167f8be0079c531659141344cd1fd0a4f28419497f9722a3daafe3b4186f6b6457e060405160405180910390a35050565b600080829050601f81511115620004bc57826040517f305a27a9000000000000000000000000000000000000000000000000000000008152600401620004b3919062000b35565b60405180910390fd5b805181620004ca9062000b8b565b60001c1760001b915050919050565b6000819050919050565b600080fd5b600073ffffffffffffffffffffffffffffffffffffffff82169050919050565b60006200051582620004e8565b9050919050565b6000620005298262000508565b9050919050565b6200053b816200051c565b81146200054757600080fd5b50565b6000815190506200055b8162000530565b92915050565b60006200056e8262000508565b9050919050565b620005808162000561565b81146200058c57600080fd5b50565b600081519050620005a08162000575565b92915050565b6000620005b38262000508565b9050919050565b620005c581620005a6565b8114620005d157600080fd5b50565b600081519050620005e581620005ba565b92915050565b620005f68162000508565b81146200060257600080fd5b50565b6000815190506200061681620005eb565b92915050565b60008060008060808587031215620006395762000638620004e3565b5b600062000649878288016200054a565b94505060206200065c878288016200058f565b93505060406200066f87828801620005d4565b9250506060620006828782880162000605565b91505092959194509250565b620006998162000508565b82525050565b6000602082019050620006b660008301846200068e565b92915050565b600081519050919050565b7f4e487b7100000000000000000000000000000000000000000000000000000000600052604160045260246000fd5b7f4e487b7100000000000000000000000000000000000000000000000000000000600052602260045260246000fd5b600060028204905060018216806200073e57607f821691505b602082108103620007545762000753620006f6565b5b50919050565b60008190508160005260206000209050919050565b60006020601f8301049050919050565b600082821b905092915050565b600060088302620007be7fffffffffffffffffffffffffffffffffffffffffffffffffffffffffffffffff826200077f565b620007ca86836200077f565b95508019841693508086168417925050509392505050565b6000819050919050565b6000819050919050565b600062000817620008116200080b84620007e2565b620007ec565b620007e2565b9050919050565b6000819050919050565b6200083383620007f6565b6200084b62000842826200081e565b8484546200078c565b825550505050565b600090565b6200086262000853565b6200086f81848462000828565b505050565b5b8181101562000897576200088b60008262000858565b60018101905062000875565b5050565b601f821115620008e657620008b0816200075a565b620008bb846200076f565b81016020851015620008cb578190505b620008e3620008da856200076f565b83018262000874565b50505b505050565b600082821c905092915050565b60006200090b60001984600802620008eb565b1980831691505092915050565b6000620009268383620008f8565b9150826002028217905092915050565b6200094182620006bc565b67ffffffffffffffff8111156200095d576200095c620006c7565b5b62000969825462000725565b620009768282856200089b565b600060209050601f831160018114620009ae576000841562000999578287015190505b620009a5858262000918565b86555062000a15565b601f198416620009be866200075a565b60005b82811015620009e857848901518255600182019150602085019450602081019050620009c1565b8683101562000a08578489015162000a04601f891682620008f8565b8355505b6001600288020188555050505b505050505050565b6000819050919050565b62000a328162000a1d565b82525050565b62000a4381620007e2565b82525050565b600060a08201905062000a60600083018862000a27565b62000a6f602083018762000a27565b62000a7e604083018662000a27565b62000a8d606083018562000a38565b62000a9c60808301846200068e565b9695505050505050565b600082825260208201905092915050565b60005b8381101562000ad757808201518184015260208101905062000aba565b60008484015250505050565b6000601f19601f8301169050919050565b600062000b0182620006bc565b62000b0d818562000aa6565b935062000b1f81856020860162000ab7565b62000b2a8162000ae3565b840191505092915050565b6000602082019050818103600083015262000b51818462000af4565b905092915050565b600081519050919050565b6000819050602082019050919050565b600062000b82825162000a1d565b80915050919050565b600062000b988262000b59565b8262000ba48462000b64565b905062000bb18162000b74565b9250602082101562000bf45762000bef7fffffffffffffffffffffffffffffffffffffffffffffffffffffffffffffffff836020036008026200077f565b831692505b5050919050565b60805160a05160c05160e05161010051610120516101405161016051610180516101a0516101c051614f6b62000cb06000396000505060008181610a320152818161123d015261198901526000818161075701528181610d950152818161108401526118fc015260008181611cad01528181611e4b0152612490015260006123bc0152600061238101526000612cf401526000612cd301526000612986015260006129dc01526000612a050152614f6b6000f3fe608060405234801561001057600080fd5b50600436106101425760003560e01c806379ba5097116100b8578063b9bfe0a81161007c578063b9bfe0a814610323578063e2a7b2f11461033f578063e30c39781461035b578063e3342f1614610379578063e4c33a3d14610397578063f2fde38b146103b557610142565b806379ba5097146102895780637e11db071461029357806384b0196e146102c35780638da5cb5b146102e7578063ab7325dd1461030557610142565b806330a988aa1161010a57806330a988aa146101d9578063373dce8a146101f757806339716a5b14610227578063578d9671146102435780636cde957914610261578063715018a61461027f57610142565b806302fd1a641461014757806306a4b503146101635780630d8e6e2c1461017f5780632538a7e11461019d5780632eafb7db146101bb575b600080fd5b610161600480360381019061015c9190612fee565b6103d1565b005b61017d600480360381019061017891906131b1565b6106ac565b005b610187610be8565b6040516101949190613366565b60405180910390f35b6101a5610c65565b6040516101b291906133a1565b60405180910390f35b6101c3610c88565b6040516101d09190613366565b60405180910390f35b6101e1610ca4565b6040516101ee9190613366565b60405180910390f35b610211600480360381019061020c91906133bc565b610cc0565b60405161021e9190613404565b60405180910390f35b610241600480360381019061023c919061343e565b610cea565b005b61024b6113f4565b60405161025891906133a1565b60405180910390f35b610269611417565b6040516102769190613366565b60405180910390f35b610287611433565b005b610291611447565b005b6102ad60048036038101906102a891906133bc565b6114d6565b6040516102ba9190613404565b60405180910390f35b6102cb611500565b6040516102de979695949392919061367b565b60405180910390f35b6102ef6115aa565b6040516102fc91906136ff565b60405180910390f35b61030d6115d3565b60405161031a91906133a1565b60405180910390f35b61033d60048036038101906103389190612fee565b6115f6565b005b61035960048036038101906103549190613770565b6118fa565b005b610363611ab3565b60405161037091906136ff565b60405180910390f35b610381611add565b60405161038e9190613366565b60405180910390f35b61039f611af9565b6040516103ac91906133a1565b60405180910390f35b6103cf60048036038101906103ca91906137bd565b611b1c565b005b600060405180604001604052806007600089815260200190815260200160002080548060200260200160405190810160405280929190818152602001828054801561043b57602002820191906000526020600020905b815481526020019060010190808311610427575b5050505050815260200186868080601f016020809104026020016040519081016040528093929190818152602001838380828437600081840152601f19601f820116905080830192505050505050508152509050600061049a82611bc9565b90506104a887828686611c59565b600560008881526020019081526020016000206000828152602001908152602001600020848490918060018154018082558091505060019003906000526020600020016000909192909192909192909192509182610507929190613a30565b506000600560008981526020019081526020016000206000838152602001908152602001600020805480602002602001604051908101604052809291908181526020016000905b828210156105fa57838290600052602060002001805461056d90613853565b80601f016020809104026020016040519081016040528092919081815260200182805461059990613853565b80156105e65780601f106105bb576101008083540402835291602001916105e6565b820191906000526020600020905b8154815290600101906020018083116105c957829003601f168201915b50505050508152602001906001019061054e565b5050505090506008600089815260200190815260200160002060009054906101000a900460ff1615801561063457506106338151611e46565b5b156106a2576001600860008a815260200190815260200160002060006101000a81548160ff021916908315150217905550877f61568d6eb48e62870afffd55499206a54a8f78b04a627e00ed097161fc05d6be88888460405161069993929190613c64565b60405180910390a25b5050505050505050565b600a60ff168787905011156106fe57600a878790506040517fc5ab467e0000000000000000000000000000000000000000000000000000000081526004016106f5929190613cb9565b60405180910390fd5b61016d61ffff16896020013511156107555761016d89602001356040517f3295186300000000000000000000000000000000000000000000000000000000815260040161074c929190613d21565b60405180910390fd5b7f000000000000000000000000000000000000000000000000000000000000000073ffffffffffffffffffffffffffffffffffffffff1663339c16c3868d8d6040518463ffffffff1660e01b81526004016107b293929190613e6e565b60006040518083038186803b1580156107ca57600080fd5b505afa1580156107de573d6000803e3d6000fd5b5050505060006040518060a0016040528086868080601f016020809104026020016040519081016040528093929190818152602001838380828437600081840152601f19601f820116905080830192505050505050508152602001898980806020026020016040519081016040528093929190818152602001838360200280828437600081840152601f19601f8201169050808301925050505050505081526020018a81526020018b6000013581526020018b6020013581525090506108a681878585611ee6565b60008c8c905067ffffffffffffffff8111156108c5576108c46137f5565b5b6040519080825280602002602001820160405280156108f35781602001602082028036833780820191505090505b50905060005b8d8d9050811015610a2d576109798a8a80806020026020016040519081016040528093929190818152602001838360200280828437600081840152601f19601f820116905080830192505050505050508f8f8481811061095c5761095b613ea0565b5b905060400201602001602081019061097491906137bd565b611fbf565b6109e4578d8d828181106109905761098f613ea0565b5b90506040020160200160208101906109a891906137bd565b6040517ff156888b0000000000000000000000000000000000000000000000000000000081526004016109db91906136ff565b60405180910390fd5b8d8d828181106109f7576109f6613ea0565b5b90506040020160000135828281518110610a1457610a13613ea0565b5b60200260200101818152505080806001019150506108f9565b5060007f000000000000000000000000000000000000000000000000000000000000000073ffffffffffffffffffffffffffffffffffffffff16634fd790cf836040518263ffffffff1660e01b8152600401610a899190613ecf565b600060405180830381865afa158015610aa6573d6000803e3d6000fd5b505050506040513d6000823e3d601f19601f82011682018060405250810190610acf9190614163565b9050610ada81612040565b60066000815480929190610aed906141db565b919050555060006006549050604051806040016040528089898080601f016020809104026020016040519081016040528093929190818152602001838380828437600081840152601f19601f82011690508083019250505050505050815260200184815250600960008381526020019081526020016000206000820151816000019081610b7a9190614223565b506020820151816001019080519060200190610b97929190612e88565b50905050807fd8a5a5d701b9f58c11ef7367f01bf8041c797538a16fd81b9a8427386a24c9c4838a8a604051610bcf93929190614407565b60405180910390a2505050505050505050505050505050565b60606040518060400160405280601181526020017f44656372797074696f6e4d616e61676572000000000000000000000000000000815250610c2a6000612111565b610c346001612111565b610c3e6000612111565b604051602001610c519493929190614514565b604051602081830303815290604052905090565b6040518060800160405280605b8152602001614e97605b91398051906020012081565b604051806080016040528060448152602001614ef26044913981565b6040518060c0016040528060908152602001614d556090913981565b6000600a600083815260200190815260200160002060009054906101000a900460ff169050919050565b600a60ff16868690501115610d3c57600a868690506040517fc5ab467e000000000000000000000000000000000000000000000000000000008152600401610d33929190613cb9565b60405180910390fd5b61016d61ffff1689602001351115610d935761016d89602001356040517f32951863000000000000000000000000000000000000000000000000000000008152600401610d8a929190613d21565b60405180910390fd5b7f000000000000000000000000000000000000000000000000000000000000000073ffffffffffffffffffffffffffffffffffffffff1663339c16c3896020016020810190610de291906137bd565b8d8d6040518463ffffffff1660e01b8152600401610e0293929190613e6e565b60006040518083038186803b158015610e1a57600080fd5b505afa158015610e2e573d6000803e3d6000fd5b5050505060008b8b905067ffffffffffffffff811115610e5157610e506137f5565b5b604051908082528060200260200182016040528015610e7f5781602001602082028036833780820191505090505b50905060008c8c905067ffffffffffffffff811115610ea157610ea06137f5565b5b604051908082528060200260200182016040528015610ecf5781602001602082028036833780820191505090505b50905060005b8d8d905081101561108157610f55898980806020026020016040519081016040528093929190818152602001838360200280828437600081840152601f19601f820116905080830192505050505050508f8f84818110610f3857610f37613ea0565b5b9050604002016020016020810190610f5091906137bd565b611fbf565b610fc0578d8d82818110610f6c57610f6b613ea0565b5b9050604002016020016020810190610f8491906137bd565b6040517ff156888b000000000000000000000000000000000000000000000000000000008152600401610fb791906136ff565b60405180910390fd5b8d8d82818110610fd357610fd2613ea0565b5b90506040020160000135838281518110610ff057610fef613ea0565b5b6020026020010181815250508d8d8281811061100f5761100e613ea0565b5b905060400201602001602081019061102791906137bd565b82828151811061103a57611039613ea0565b5b602002602001019073ffffffffffffffffffffffffffffffffffffffff16908173ffffffffffffffffffffffffffffffffffffffff16815250508080600101915050610ed5565b507f000000000000000000000000000000000000000000000000000000000000000073ffffffffffffffffffffffffffffffffffffffff16634f20c8c08a8c60000160208101906110d291906137bd565b8d60200160208101906110e591906137bd565b856040518563ffffffff1660e01b81526004016111059493929190614622565b60006040518083038186803b15801561111d57600080fd5b505afa158015611131573d6000803e3d6000fd5b5050505060006040518060c0016040528088888080601f016020809104026020016040519081016040528093929190818152602001838380828437600081840152601f19601f8201169050808301925050505050505081526020018a8a80806020026020016040519081016040528093929190818152602001838360200280828437600081840152601f19601f8201169050808301925050505050505081526020018c60200160208101906111e691906137bd565b73ffffffffffffffffffffffffffffffffffffffff1681526020018b81526020018d6000013581526020018d602001358152509050611239818c600001602081019061123291906137bd565b87876121df565b60007f000000000000000000000000000000000000000000000000000000000000000073ffffffffffffffffffffffffffffffffffffffff16634fd790cf856040518263ffffffff1660e01b81526004016112949190613ecf565b600060405180830381865afa1580156112b1573d6000803e3d6000fd5b505050506040513d6000823e3d601f19601f820116820180604052508101906112da9190614163565b90506112e581612040565b600660008154809291906112f8906141db565b91905055506000600654905060405180604001604052808a8a8080601f016020809104026020016040519081016040528093929190818152602001838380828437600081840152601f19601f820116905080830192505050505050508152602001868152506009600083815260200190815260200160002060008201518160000190816113859190614223565b5060208201518160010190805190602001906113a2929190612e88565b50905050807fd8a5a5d701b9f58c11ef7367f01bf8041c797538a16fd81b9a8427386a24c9c4838b8b6040516113da93929190614407565b60405180910390a250505050505050505050505050505050565b6040518060e0016040528060b28152602001614de560b291398051906020012081565b6040518060e0016040528060b28152602001614de560b2913981565b61143b6122b8565b611445600061233f565b565b6000611451612370565b90508073ffffffffffffffffffffffffffffffffffffffff16611472611ab3565b73ffffffffffffffffffffffffffffffffffffffff16146114ca57806040517f118cdaa70000000000000000000000000000000000000000000000000000000081526004016114c191906136ff565b60405180910390fd5b6114d38161233f565b50565b60006008600083815260200190815260200160002060009054906101000a900460ff169050919050565b600060608060008060006060611514612378565b61151c6123b3565b46306000801b600067ffffffffffffffff81111561153d5761153c6137f5565b5b60405190808252806020026020018201604052801561156b5781602001602082028036833780820191505090505b507f0f00000000000000000000000000000000000000000000000000000000000000959493929190965096509650965096509650965090919293949596565b60008060009054906101000a900473ffffffffffffffffffffffffffffffffffffffff16905090565b604051806080016040528060448152602001614ef2604491398051906020012081565b60006009600087815260200190815260200160002060405180604001604052908160008201805461162690613853565b80601f016020809104026020016040519081016040528092919081815260200182805461165290613853565b801561169f5780601f106116745761010080835404028352916020019161169f565b820191906000526020600020905b81548152906001019060200180831161168257829003601f168201915b50505050508152602001600182018054806020026020016040519081016040528092919081815260200182805480156116f757602002820191906000526020600020905b8154815260200190600101908083116116e3575b505050505081525050905060006040518060600160405280836000015181526020018360200151815260200187878080601f016020809104026020016040519081016040528093929190818152602001838380828437600081840152601f19601f8201169050808301925050505050505081525090506000611778826123ee565b905061178688828787611c59565b6000600560008a815260200190815260200160002060008381526020019081526020016000209050808686909180600181540180825580915050600190039060005260206000200160009091929091929091929091925091826117ea929190613a30565b50600b60008a8152602001908152602001600020888890918060018154018082558091505060019003906000526020600020016000909192909192909192909192509182611839929190613a30565b50600a60008a815260200190815260200160002060009054906101000a900460ff161580156118715750611870818054905061248b565b5b156118ef576001600a60008b815260200190815260200160002060006101000a81548160ff021916908315150217905550887f7312dec4cead0d5d3da836cdbaed1eb6a81e218c519c8740da4ac75afcb6c5c7600b60008c8152602001908152602001600020836040516118e6929190614848565b60405180910390a25b505050505050505050565b7f000000000000000000000000000000000000000000000000000000000000000073ffffffffffffffffffffffffffffffffffffffff1663710c11a583836040518363ffffffff1660e01b81526004016119559291906148e9565b60006040518083038186803b15801561196d57600080fd5b505afa158015611981573d6000803e3d6000fd5b5050505060007f000000000000000000000000000000000000000000000000000000000000000073ffffffffffffffffffffffffffffffffffffffff16634fd790cf84846040518363ffffffff1660e01b81526004016119e29291906148e9565b600060405180830381865afa1580156119ff573d6000803e3d6000fd5b505050506040513d6000823e3d601f19601f82011682018060405250810190611a289190614163565b9050611a3381612040565b60066000815480929190611a46906141db565b9190505550600060065490508383600760008481526020019081526020016000209190611a74929190612ed5565b50807f025fdc13f195e82af9db316a5f973ccab89cf66d8a2d2f1e6242ad74d48bcf6283604051611aa5919061490d565b60405180910390a250505050565b6000600160009054906101000a900473ffffffffffffffffffffffffffffffffffffffff16905090565b6040518060800160405280605b8152602001614e97605b913981565b6040518060c0016040528060908152602001614d55609091398051906020012081565b611b246122b8565b80600160006101000a81548173ffffffffffffffffffffffffffffffffffffffff021916908373ffffffffffffffffffffffffffffffffffffffff1602179055508073ffffffffffffffffffffffffffffffffffffffff16611b846115aa565b73ffffffffffffffffffffffffffffffffffffffff167f38d16b8cac22d99fc7c124b9cd0de2d3fa1faef420bfe791d8c362d765e2270060405160405180910390a350565b6000611c52604051806080016040528060448152602001614ef260449139805190602001208360000151604051602001611c0391906149bf565b60405160208183030381529060405280519060200120846020015180519060200120604051602001611c37939291906149d6565b6040516020818303038152906040528051906020012061252b565b9050919050565b6000611ca98484848080601f016020809104026020016040519081016040528093929190818152602001838380828437600081840152601f19601f82011690508083019250505050505050612545565b90507f000000000000000000000000000000000000000000000000000000000000000073ffffffffffffffffffffffffffffffffffffffff166331f5faa1826040518263ffffffff1660e01b8152600401611d0491906136ff565b60006040518083038186803b158015611d1c57600080fd5b505afa158015611d30573d6000803e3d6000fd5b505050506004600086815260200190815260200160002060008273ffffffffffffffffffffffffffffffffffffffff1673ffffffffffffffffffffffffffffffffffffffff16815260200190815260200160002060009054906101000a900460ff1615611dd65784816040517fa1714c77000000000000000000000000000000000000000000000000000000008152600401611dcd929190614a0d565b60405180910390fd5b60016004600087815260200190815260200160002060008373ffffffffffffffffffffffffffffffffffffffff1673ffffffffffffffffffffffffffffffffffffffff16815260200190815260200160002060006101000a81548160ff0219169083151502179055505050505050565b6000807f000000000000000000000000000000000000000000000000000000000000000073ffffffffffffffffffffffffffffffffffffffff166347cd4b3e6040518163ffffffff1660e01b8152600401602060405180830381865afa158015611eb4573d6000803e3d6000fd5b505050506040513d601f19601f82011682018060405250810190611ed89190614a36565b905080831015915050919050565b6000611ef185612571565b90506000611f438285858080601f016020809104026020016040519081016040528093929190818152602001838380828437600081840152601f19601f82011690508083019250505050505050612545565b90508473ffffffffffffffffffffffffffffffffffffffff168173ffffffffffffffffffffffffffffffffffffffff1614611fb75783836040517f2a873d27000000000000000000000000000000000000000000000000000000008152600401611fae929190614a63565b60405180910390fd5b505050505050565b600080600090505b8351811015612034578273ffffffffffffffffffffffffffffffffffffffff16848281518110611ffa57611ff9613ea0565b5b602002602001015173ffffffffffffffffffffffffffffffffffffffff160361202757600191505061203a565b8080600101915050611fc7565b50600090505b92915050565b60018151111561210e576000816000815181106120605761205f613ea0565b5b60200260200101516020015190506000600190505b825181101561210b578183828151811061209257612091613ea0565b5b602002602001015160200151146120fe578281815181106120b6576120b5613ea0565b5b6020026020010151602001516040517ff90bc7f50000000000000000000000000000000000000000000000000000000081526004016120f59190614a87565b60405180910390fd5b8080600101915050612075565b50505b50565b60606000600161212084612613565b01905060008167ffffffffffffffff81111561213f5761213e6137f5565b5b6040519080825280601f01601f1916602001820160405280156121715781602001600182028036833780820191505090505b509050600082602001820190505b6001156121d4578080600190039150507f3031323334353637383961626364656600000000000000000000000000000000600a86061a8153600a85816121c8576121c7614aa2565b5b0494506000850361217f575b819350505050919050565b60006121ea85612766565b9050600061223c8285858080601f016020809104026020016040519081016040528093929190818152602001838380828437600081840152601f19601f82011690508083019250505050505050612545565b90508473ffffffffffffffffffffffffffffffffffffffff168173ffffffffffffffffffffffffffffffffffffffff16146122b05783836040517f2a873d270000000000000000000000000000000000000000000000000000000081526004016122a7929190614a63565b60405180910390fd5b505050505050565b6122c0612370565b73ffffffffffffffffffffffffffffffffffffffff166122de6115aa565b73ffffffffffffffffffffffffffffffffffffffff161461233d57612301612370565b6040517f118cdaa700000000000000000000000000000000000000000000000000000000815260040161233491906136ff565b60405180910390fd5b565b600160006101000a81549073ffffffffffffffffffffffffffffffffffffffff021916905561236d8161280e565b50565b600033905090565b60606123ae60027f00000000000000000000000000000000000000000000000000000000000000006128d290919063ffffffff16565b905090565b60606123e960037f00000000000000000000000000000000000000000000000000000000000000006128d290919063ffffffff16565b905090565b60006124846040518060800160405280605b8152602001614e97605b913980519060200120836000015180519060200120846020015160405160200161243491906149bf565b604051602081830303815290604052805190602001208560400151805190602001206040516020016124699493929190614ad1565b6040516020818303038152906040528051906020012061252b565b9050919050565b6000807f000000000000000000000000000000000000000000000000000000000000000073ffffffffffffffffffffffffffffffffffffffff1663490413aa6040518163ffffffff1660e01b8152600401602060405180830381865afa1580156124f9573d6000803e3d6000fd5b505050506040513d601f19601f8201168201806040525081019061251d9190614a36565b905080831015915050919050565b600061253e612538612982565b83612a39565b9050919050565b6000806000806125558686612a7a565b9250925092506125658282612ad6565b82935050505092915050565b600061260c6040518060c0016040528060908152602001614d55609091398051906020012083600001518051906020012084602001516040516020016125b79190614ba6565b604051602081830303815290604052805190602001208560400151866060015187608001516040516020016125f196959493929190614bbd565b6040516020818303038152906040528051906020012061252b565b9050919050565b600080600090507a184f03e93ff9f4daa797ed6e38ed64bf6a1f0100000000000000008310612671577a184f03e93ff9f4daa797ed6e38ed64bf6a1f010000000000000000838161266757612666614aa2565b5b0492506040810190505b6d04ee2d6d415b85acef810000000083106126ae576d04ee2d6d415b85acef810000000083816126a4576126a3614aa2565b5b0492506020810190505b662386f26fc1000083106126dd57662386f26fc1000083816126d3576126d2614aa2565b5b0492506010810190505b6305f5e1008310612706576305f5e10083816126fc576126fb614aa2565b5b0492506008810190505b612710831061272b57612710838161272157612720614aa2565b5b0492506004810190505b6064831061274e576064838161274457612743614aa2565b5b0492506002810190505b600a831061275d576001810190505b80915050919050565b60006128076040518060e0016040528060b28152602001614de560b291398051906020012083600001518051906020012084602001516040516020016127ac9190614ba6565b604051602081830303815290604052805190602001208560400151866060015187608001518860a001516040516020016127ec9796959493929190614c1e565b6040516020818303038152906040528051906020012061252b565b9050919050565b60008060009054906101000a900473ffffffffffffffffffffffffffffffffffffffff169050816000806101000a81548173ffffffffffffffffffffffffffffffffffffffff021916908373ffffffffffffffffffffffffffffffffffffffff1602179055508173ffffffffffffffffffffffffffffffffffffffff168173ffffffffffffffffffffffffffffffffffffffff167f8be0079c531659141344cd1fd0a4f28419497f9722a3daafe3b4186f6b6457e060405160405180910390a35050565b606060ff60001b83146128ef576128e883612c3a565b905061297c565b8180546128fb90613853565b80601f016020809104026020016040519081016040528092919081815260200182805461292790613853565b80156129745780601f1061294957610100808354040283529160200191612974565b820191906000526020600020905b81548152906001019060200180831161295757829003601f168201915b505050505090505b92915050565b60007f000000000000000000000000000000000000000000000000000000000000000073ffffffffffffffffffffffffffffffffffffffff163073ffffffffffffffffffffffffffffffffffffffff161480156129fe57507f000000000000000000000000000000000000000000000000000000000000000046145b15612a2b577f00000000000000000000000000000000000000000000000000000000000000009050612a36565b612a33612cae565b90505b90565b60006040517f190100000000000000000000000000000000000000000000000000000000000081528360028201528260228201526042812091505092915050565b60008060006041845103612abf5760008060006020870151925060408701519150606087015160001a9050612ab188828585612d44565b955095509550505050612acf565b60006002855160001b9250925092505b9250925092565b60006003811115612aea57612ae9614c8d565b5b826003811115612afd57612afc614c8d565b5b0315612c365760016003811115612b1757612b16614c8d565b5b826003811115612b2a57612b29614c8d565b5b03612b61576040517ff645eedf00000000000000000000000000000000000000000000000000000000815260040160405180910390fd5b60026003811115612b7557612b74614c8d565b5b826003811115612b8857612b87614c8d565b5b03612bcd578060001c6040517ffce698f7000000000000000000000000000000000000000000000000000000008152600401612bc49190614a87565b60405180910390fd5b600380811115612be057612bdf614c8d565b5b826003811115612bf357612bf2614c8d565b5b03612c3557806040517fd78bce0c000000000000000000000000000000000000000000000000000000008152600401612c2c91906133a1565b60405180910390fd5b5b5050565b60606000612c4783612e38565b90506000602067ffffffffffffffff811115612c6657612c656137f5565b5b6040519080825280601f01601f191660200182016040528015612c985781602001600182028036833780820191505090505b5090508181528360208201528092505050919050565b60007f8b73c3c69bb8fe3d512ecc4cf759cc79239f7b179b0ffacaa9a75d522b39400f7f00000000000000000000000000000000000000000000000000000000000000007f00000000000000000000000000000000000000000000000000000000000000004630604051602001612d29959493929190614cbc565b60405160208183030381529060405280519060200120905090565b60008060007f7fffffffffffffffffffffffffffffff5d576e7357a4501ddfe92f46681b20a08460001c1115612d84576000600385925092509250612e2e565b600060018888888860405160008152602001604052604051612da99493929190614d0f565b6020604051602081039080840390855afa158015612dcb573d6000803e3d6000fd5b505050602060405103519050600073ffffffffffffffffffffffffffffffffffffffff168173ffffffffffffffffffffffffffffffffffffffff1603612e1f57600060016000801b93509350935050612e2e565b8060008060001b935093509350505b9450945094915050565b60008060ff8360001c169050601f811115612e7f576040517fb3512b0c00000000000000000000000000000000000000000000000000000000815260040160405180910390fd5b80915050919050565b828054828255906000526020600020908101928215612ec4579160200282015b82811115612ec3578251825591602001919060010190612ea8565b5b509050612ed19190612f22565b5090565b828054828255906000526020600020908101928215612f11579160200282015b82811115612f10578235825591602001919060010190612ef5565b5b509050612f1e9190612f22565b5090565b5b80821115612f3b576000816000905550600101612f23565b5090565b6000604051905090565b600080fd5b600080fd5b6000819050919050565b612f6681612f53565b8114612f7157600080fd5b50565b600081359050612f8381612f5d565b92915050565b600080fd5b600080fd5b600080fd5b60008083601f840112612fae57612fad612f89565b5b8235905067ffffffffffffffff811115612fcb57612fca612f8e565b5b602083019150836001820283011115612fe757612fe6612f93565b5b9250929050565b60008060008060006060868803121561300a57613009612f49565b5b600061301888828901612f74565b955050602086013567ffffffffffffffff81111561303957613038612f4e565b5b61304588828901612f98565b9450945050604086013567ffffffffffffffff81111561306857613067612f4e565b5b61307488828901612f98565b92509250509295509295909350565b60008083601f84011261309957613098612f89565b5b8235905067ffffffffffffffff8111156130b6576130b5612f8e565b5b6020830191508360408202830111156130d2576130d1612f93565b5b9250929050565b600080fd5b6000604082840312156130f4576130f36130d9565b5b81905092915050565b60008083601f84011261311357613112612f89565b5b8235905067ffffffffffffffff8111156131305761312f612f8e565b5b60208301915083602082028301111561314c5761314b612f93565b5b9250929050565b600073ffffffffffffffffffffffffffffffffffffffff82169050919050565b600061317e82613153565b9050919050565b61318e81613173565b811461319957600080fd5b50565b6000813590506131ab81613185565b92915050565b60008060008060008060008060008060006101008c8e0312156131d7576131d6612f49565b5b60008c013567ffffffffffffffff8111156131f5576131f4612f4e565b5b6132018e828f01613083565b9b509b505060206132148e828f016130de565b99505060606132258e828f01612f74565b98505060808c013567ffffffffffffffff81111561324657613245612f4e565b5b6132528e828f016130fd565b975097505060a06132658e828f0161319c565b95505060c08c013567ffffffffffffffff81111561328657613285612f4e565b5b6132928e828f01612f98565b945094505060e08c013567ffffffffffffffff8111156132b5576132b4612f4e565b5b6132c18e828f01612f98565b92509250509295989b509295989b9093969950565b600081519050919050565b600082825260208201905092915050565b60005b838110156133105780820151818401526020810190506132f5565b60008484015250505050565b6000601f19601f8301169050919050565b6000613338826132d6565b61334281856132e1565b93506133528185602086016132f2565b61335b8161331c565b840191505092915050565b60006020820190508181036000830152613380818461332d565b905092915050565b6000819050919050565b61339b81613388565b82525050565b60006020820190506133b66000830184613392565b92915050565b6000602082840312156133d2576133d1612f49565b5b60006133e084828501612f74565b91505092915050565b60008115159050919050565b6133fe816133e9565b82525050565b600060208201905061341960008301846133f5565b92915050565b600060408284031215613435576134346130d9565b5b81905092915050565b60008060008060008060008060008060006101208c8e03121561346457613463612f49565b5b60008c013567ffffffffffffffff81111561348257613481612f4e565b5b61348e8e828f01613083565b9b509b505060206134a18e828f016130de565b99505060606134b28e828f0161341f565b98505060a06134c38e828f01612f74565b97505060c08c013567ffffffffffffffff8111156134e4576134e3612f4e565b5b6134f08e828f016130fd565b965096505060e08c013567ffffffffffffffff81111561351357613512612f4e565b5b61351f8e828f01612f98565b94509450506101008c013567ffffffffffffffff81111561354357613542612f4e565b5b61354f8e828f01612f98565b92509250509295989b509295989b9093969950565b60007fff0000000000000000000000000000000000000000000000000000000000000082169050919050565b61359981613564565b82525050565b6135a881612f53565b82525050565b6135b781613173565b82525050565b600081519050919050565b600082825260208201905092915050565b6000819050602082019050919050565b6135f281612f53565b82525050565b600061360483836135e9565b60208301905092915050565b6000602082019050919050565b6000613628826135bd565b61363281856135c8565b935061363d836135d9565b8060005b8381101561366e57815161365588826135f8565b975061366083613610565b925050600181019050613641565b5085935050505092915050565b600060e082019050613690600083018a613590565b81810360208301526136a2818961332d565b905081810360408301526136b6818861332d565b90506136c5606083018761359f565b6136d260808301866135ae565b6136df60a0830185613392565b81810360c08301526136f1818461361d565b905098975050505050505050565b600060208201905061371460008301846135ae565b92915050565b60008083601f8401126137305761372f612f89565b5b8235905067ffffffffffffffff81111561374d5761374c612f8e565b5b60208301915083602082028301111561376957613768612f93565b5b9250929050565b6000806020838503121561378757613786612f49565b5b600083013567ffffffffffffffff8111156137a5576137a4612f4e565b5b6137b18582860161371a565b92509250509250929050565b6000602082840312156137d3576137d2612f49565b5b60006137e18482850161319c565b91505092915050565b600082905092915050565b7f4e487b7100000000000000000000000000000000000000000000000000000000600052604160045260246000fd5b7f4e487b7100000000000000000000000000000000000000000000000000000000600052602260045260246000fd5b6000600282049050600182168061386b57607f821691505b60208210810361387e5761387d613824565b5b50919050565b60008190508160005260206000209050919050565b60006020601f8301049050919050565b600082821b905092915050565b6000600883026138e67fffffffffffffffffffffffffffffffffffffffffffffffffffffffffffffffff826138a9565b6138f086836138a9565b95508019841693508086168417925050509392505050565b6000819050919050565b600061392d61392861392384612f53565b613908565b612f53565b9050919050565b6000819050919050565b61394783613912565b61395b61395382613934565b8484546138b6565b825550505050565b600090565b613970613963565b61397b81848461393e565b505050565b5b8181101561399f57613994600082613968565b600181019050613981565b5050565b601f8211156139e4576139b581613884565b6139be84613899565b810160208510156139cd578190505b6139e16139d985613899565b830182613980565b50505b505050565b600082821c905092915050565b6000613a07600019846008026139e9565b1980831691505092915050565b6000613a2083836139f6565b9150826002028217905092915050565b613a3a83836137ea565b67ffffffffffffffff811115613a5357613a526137f5565b5b613a5d8254613853565b613a688282856139a3565b6000601f831160018114613a975760008415613a85578287013590505b613a8f8582613a14565b865550613af7565b601f198416613aa586613884565b60005b82811015613acd57848901358255600182019150602085019450602081019050613aa8565b86831015613aea5784890135613ae6601f8916826139f6565b8355505b6001600288020188555050505b50505050505050565b600082825260208201905092915050565b82818337600083830152505050565b6000613b2c8385613b00565b9350613b39838584613b11565b613b428361331c565b840190509392505050565b600081519050919050565b600082825260208201905092915050565b6000819050602082019050919050565b600081519050919050565b600082825260208201905092915050565b6000613ba082613b79565b613baa8185613b84565b9350613bba8185602086016132f2565b613bc38161331c565b840191505092915050565b6000613bda8383613b95565b905092915050565b6000602082019050919050565b6000613bfa82613b4d565b613c048185613b58565b935083602082028501613c1685613b69565b8060005b85811015613c525784840389528151613c338582613bce565b9450613c3e83613be2565b925060208a01995050600181019050613c1a565b50829750879550505050505092915050565b60006040820190508181036000830152613c7f818587613b20565b90508181036020830152613c938184613bef565b9050949350505050565b600060ff82169050919050565b613cb381613c9d565b82525050565b6000604082019050613cce6000830185613caa565b613cdb602083018461359f565b9392505050565b600061ffff82169050919050565b6000613d0b613d06613d0184613ce2565b613908565b612f53565b9050919050565b613d1b81613cf0565b82525050565b6000604082019050613d366000830185613d12565b613d43602083018461359f565b9392505050565b600082825260208201905092915050565b6000819050919050565b6000613d746020840184612f74565b905092915050565b6000613d8b602084018461319c565b905092915050565b613d9c81613173565b82525050565b60408201613db36000830183613d65565b613dc060008501826135e9565b50613dce6020830183613d7c565b613ddb6020850182613d93565b50505050565b6000613ded8383613da2565b60408301905092915050565b600082905092915050565b6000604082019050919050565b6000613e1d8385613d4a565b9350613e2882613d5b565b8060005b85811015613e6157613e3e8284613df9565b613e488882613de1565b9750613e5383613e04565b925050600181019050613e2c565b5085925050509392505050565b6000604082019050613e8360008301866135ae565b8181036020830152613e96818486613e11565b9050949350505050565b7f4e487b7100000000000000000000000000000000000000000000000000000000600052603260045260246000fd5b60006020820190508181036000830152613ee9818461361d565b905092915050565b613efa8261331c565b810181811067ffffffffffffffff82111715613f1957613f186137f5565b5b80604052505050565b6000613f2c612f3f565b9050613f388282613ef1565b919050565b600067ffffffffffffffff821115613f5857613f576137f5565b5b602082029050602081019050919050565b600080fd5b600080fd5b600081519050613f8281612f5d565b92915050565b600080fd5b600067ffffffffffffffff821115613fa857613fa76137f5565b5b613fb18261331c565b9050602081019050919050565b6000613fd1613fcc84613f8d565b613f22565b905082815260208101848484011115613fed57613fec613f88565b5b613ff88482856132f2565b509392505050565b600082601f83011261401557614014612f89565b5b8151614025848260208601613fbe565b91505092915050565b60006060828403121561404457614043613f69565b5b61404e6060613f22565b9050600061405e84828501613f73565b600083015250602061407284828501613f73565b602083015250604082015167ffffffffffffffff81111561409657614095613f6e565b5b6140a284828501614000565b60408301525092915050565b60006140c16140bc84613f3d565b613f22565b905080838252602082019050602084028301858111156140e4576140e3612f93565b5b835b8181101561412b57805167ffffffffffffffff81111561410957614108612f89565b5b808601614116898261402e565b855260208501945050506020810190506140e6565b5050509392505050565b600082601f83011261414a57614149612f89565b5b815161415a8482602086016140ae565b91505092915050565b60006020828403121561417957614178612f49565b5b600082015167ffffffffffffffff81111561419757614196612f4e565b5b6141a384828501614135565b91505092915050565b7f4e487b7100000000000000000000000000000000000000000000000000000000600052601160045260246000fd5b60006141e682612f53565b91507fffffffffffffffffffffffffffffffffffffffffffffffffffffffffffffffff8203614218576142176141ac565b5b600182019050919050565b61422c82613b79565b67ffffffffffffffff811115614245576142446137f5565b5b61424f8254613853565b61425a8282856139a3565b600060209050601f83116001811461428d576000841561427b578287015190505b6142858582613a14565b8655506142ed565b601f19841661429b86613884565b60005b828110156142c35784890151825560018201915060208501945060208101905061429e565b868310156142e057848901516142dc601f8916826139f6565b8355505b6001600288020188555050505b505050505050565b600081519050919050565b600082825260208201905092915050565b6000819050602082019050919050565b600060608301600083015161433960008601826135e9565b50602083015161434c60208601826135e9565b50604083015184820360408601526143648282613b95565b9150508091505092915050565b600061437d8383614321565b905092915050565b6000602082019050919050565b600061439d826142f5565b6143a78185614300565b9350836020820285016143b985614311565b8060005b858110156143f557848403895281516143d68582614371565b94506143e183614385565b925060208a019950506001810190506143bd565b50829750879550505050505092915050565b600060408201905081810360008301526144218186614392565b90508181036020830152614436818486613b20565b9050949350505050565b600081905092915050565b6000614456826132d6565b6144608185614440565b93506144708185602086016132f2565b80840191505092915050565b7f2076000000000000000000000000000000000000000000000000000000000000600082015250565b60006144b2600283614440565b91506144bd8261447c565b600282019050919050565b7f2e00000000000000000000000000000000000000000000000000000000000000600082015250565b60006144fe600183614440565b9150614509826144c8565b600182019050919050565b6000614520828761444b565b915061452b826144a5565b9150614537828661444b565b9150614542826144f1565b915061454e828561444b565b9150614559826144f1565b9150614565828461444b565b915081905095945050505050565b600081519050919050565b600082825260208201905092915050565b6000819050602082019050919050565b60006145ab8383613d93565b60208301905092915050565b6000602082019050919050565b60006145cf82614573565b6145d9818561457e565b93506145e48361458f565b8060005b838110156146155781516145fc888261459f565b9750614607836145b7565b9250506001810190506145e8565b5085935050505092915050565b6000608082019050614637600083018761359f565b61464460208301866135ae565b61465160408301856135ae565b818103606083015261466381846145c4565b905095945050505050565b600081549050919050565b60008190508160005260206000209050919050565b6000815461469b81613853565b6146a58186613b84565b945060018216600081146146c057600181146146d657614709565b60ff198316865281151560200286019350614709565b6146df85613884565b60005b83811015614701578154818901526001820191506020810190506146e2565b808801955050505b50505092915050565b600061471e838361468e565b905092915050565b6000600182019050919050565b600061473e8261466e565b6147488185613b58565b93508360208202850161475a85614679565b8060005b85811015614795578484038952816147768582614712565b945061478183614726565b925060208a0199505060018101905061475e565b50829750879550505050505092915050565b600081549050919050565b60008190508160005260206000209050919050565b6000600182019050919050565b60006147df826147a7565b6147e98185613b58565b9350836020820285016147fb856147b2565b8060005b85811015614836578484038952816148178582614712565b9450614822836147c7565b925060208a019950506001810190506147ff565b50829750879550505050505092915050565b600060408201905081810360008301526148628185614733565b9050818103602083015261487681846147d4565b90509392505050565b600080fd5b82818337505050565b600061489983856135c8565b93507f07ffffffffffffffffffffffffffffffffffffffffffffffffffffffffffffff8311156148cc576148cb61487f565b5b6020830292506148dd838584614884565b82840190509392505050565b6000602082019050818103600083015261490481848661488d565b90509392505050565b600060208201905081810360008301526149278184614392565b905092915050565b600081905092915050565b61494381612f53565b82525050565b6000614955838361493a565b60208301905092915050565b600061496c826135bd565b614976818561492f565b9350614981836135d9565b8060005b838110156149b25781516149998882614949565b97506149a483613610565b925050600181019050614985565b5085935050505092915050565b60006149cb8284614961565b915081905092915050565b60006060820190506149eb6000830186613392565b6149f86020830185613392565b614a056040830184613392565b949350505050565b6000604082019050614a22600083018561359f565b614a2f60208301846135ae565b9392505050565b600060208284031215614a4c57614a4b612f49565b5b6000614a5a84828501613f73565b91505092915050565b60006020820190508181036000830152614a7e818486613b20565b90509392505050565b6000602082019050614a9c600083018461359f565b92915050565b7f4e487b7100000000000000000000000000000000000000000000000000000000600052601260045260246000fd5b6000608082019050614ae66000830187613392565b614af36020830186613392565b614b006040830185613392565b614b0d6060830184613392565b95945050505050565b600081905092915050565b614b2a81613173565b82525050565b6000614b3c8383614b21565b60208301905092915050565b6000614b5382614573565b614b5d8185614b16565b9350614b688361458f565b8060005b83811015614b99578151614b808882614b30565b9750614b8b836145b7565b925050600181019050614b6c565b5085935050505092915050565b6000614bb28284614b48565b915081905092915050565b600060c082019050614bd26000830189613392565b614bdf6020830188613392565b614bec6040830187613392565b614bf9606083018661359f565b614c06608083018561359f565b614c1360a083018461359f565b979650505050505050565b600060e082019050614c33600083018a613392565b614c406020830189613392565b614c4d6040830188613392565b614c5a60608301876135ae565b614c67608083018661359f565b614c7460a083018561359f565b614c8160c083018461359f565b98975050505050505050565b7f4e487b7100000000000000000000000000000000000000000000000000000000600052602160045260246000fd5b600060a082019050614cd16000830188613392565b614cde6020830187613392565b614ceb6040830186613392565b614cf8606083018561359f565b614d0560808301846135ae565b9695505050505050565b6000608082019050614d246000830187613392565b614d316020830186613caa565b614d3e6040830185613392565b614d4b6060830184613392565b9594505050505056fe557365724465637279707452657175657374566572696669636174696f6e286279746573207075626c69634b65792c616464726573735b5d20636f6e74726163744164647265737365732c75696e7432353620636f6e747261637473436861696e49642c75696e7432353620737461727454696d657374616d702c75696e74323536206475726174696f6e446179732944656c656761746564557365724465637279707452657175657374566572696669636174696f6e286279746573207075626c69634b65792c616464726573735b5d20636f6e74726163744164647265737365732c616464726573732064656c6567617465644163636f756e742c75696e7432353620636f6e747261637473436861696e49642c75696e7432353620737461727454696d657374616d702c75696e74323536206475726174696f6e44617973295573657244656372797074526573706f6e7365566572696669636174696f6e286279746573207075626c69634b65792c75696e743235365b5d20637448616e646c65732c6279746573207265656e637279707465645368617265295075626c696344656372797074566572696669636174696f6e2875696e743235365b5d20637448616e646c65732c627974657320646563727970746564526573756c7429a2646970667358221220c0d70a4ba394f2224a27d4a44cafc9c0cf0b1037ae0f97c4d383a0a26d521e6664736f6c63430008180033",
  "linkReferences": {},
  "deployedLinkReferences": {}
}