{
  "_format": "hh-sol-artifact-1",
  "contractName": "DecryptionManager",
  "sourceName": "contracts/DecryptionManager.sol",
  "abi": [
    {
      "inputs": [],
      "stateMutability": "nonpayable",
      "type": "constructor"
    },
    {
      "inputs": [
        {
          "internalType": "address",
          "name": "target",
          "type": "address"
        }
      ],
      "name": "AddressEmptyCode",
      "type": "error"
    },
    {
      "inputs": [
        {
          "internalType": "uint8",
          "name": "maxLength",
          "type": "uint8"
        },
        {
          "internalType": "uint256",
          "name": "actualLength",
          "type": "uint256"
        }
      ],
      "name": "ContractAddressesMaxLengthExceeded",
      "type": "error"
    },
    {
      "inputs": [
        {
          "internalType": "address",
          "name": "contractAddress",
          "type": "address"
        },
        {
          "internalType": "address[]",
          "name": "contractAddresses",
          "type": "address[]"
        }
      ],
      "name": "ContractNotInContractAddresses",
      "type": "error"
    },
    {
      "inputs": [
        {
          "internalType": "address",
          "name": "delegatorAddress",
          "type": "address"
        },
        {
          "internalType": "address[]",
          "name": "contractAddresses",
          "type": "address[]"
        }
      ],
      "name": "DelegatorAddressInContractAddresses",
      "type": "error"
    },
    {
      "inputs": [
        {
          "internalType": "uint256",
          "name": "keyId",
          "type": "uint256"
        }
      ],
      "name": "DifferentKeyIdsNotAllowed",
      "type": "error"
    },
    {
      "inputs": [],
      "name": "ECDSAInvalidSignature",
      "type": "error"
    },
    {
      "inputs": [
        {
          "internalType": "uint256",
          "name": "length",
          "type": "uint256"
        }
      ],
      "name": "ECDSAInvalidSignatureLength",
      "type": "error"
    },
    {
      "inputs": [
        {
          "internalType": "bytes32",
          "name": "s",
          "type": "bytes32"
        }
      ],
      "name": "ECDSAInvalidSignatureS",
      "type": "error"
    },
    {
      "inputs": [
        {
          "internalType": "address",
          "name": "implementation",
          "type": "address"
        }
      ],
      "name": "ERC1967InvalidImplementation",
      "type": "error"
    },
    {
      "inputs": [],
      "name": "ERC1967NonPayable",
      "type": "error"
    },
    {
      "inputs": [],
      "name": "FailedCall",
      "type": "error"
    },
    {
      "inputs": [],
      "name": "InvalidInitialization",
      "type": "error"
    },
    {
      "inputs": [
        {
          "internalType": "bytes",
          "name": "signature",
          "type": "bytes"
        }
      ],
      "name": "InvalidUserSignature",
      "type": "error"
    },
    {
      "inputs": [
        {
          "internalType": "uint256",
          "name": "publicDecryptionId",
          "type": "uint256"
        },
        {
          "internalType": "address",
          "name": "signer",
          "type": "address"
        }
      ],
      "name": "KmsSignerAlreadyResponded",
      "type": "error"
    },
    {
      "inputs": [
        {
          "internalType": "uint256",
          "name": "maxValue",
          "type": "uint256"
        },
        {
          "internalType": "uint256",
          "name": "actualValue",
          "type": "uint256"
        }
      ],
      "name": "MaxDurationDaysExceeded",
      "type": "error"
    },
    {
      "inputs": [],
      "name": "NotInitializing",
      "type": "error"
    },
    {
      "inputs": [
        {
          "internalType": "address",
          "name": "owner",
          "type": "address"
        }
      ],
      "name": "OwnableInvalidOwner",
      "type": "error"
    },
    {
      "inputs": [
        {
          "internalType": "address",
          "name": "account",
          "type": "address"
        }
      ],
      "name": "OwnableUnauthorizedAccount",
      "type": "error"
    },
    {
      "inputs": [
        {
          "internalType": "uint256",
          "name": "publicDecryptionId",
          "type": "uint256"
        }
      ],
      "name": "PublicDecryptionNotDone",
      "type": "error"
    },
    {
      "inputs": [],
      "name": "UUPSUnauthorizedCallContext",
      "type": "error"
    },
    {
      "inputs": [
        {
          "internalType": "bytes32",
          "name": "slot",
          "type": "bytes32"
        }
      ],
      "name": "UUPSUnsupportedProxiableUUID",
      "type": "error"
    },
    {
      "inputs": [
        {
          "internalType": "address",
          "name": "userAddress",
          "type": "address"
        },
        {
          "internalType": "address[]",
          "name": "contractAddresses",
          "type": "address[]"
        }
      ],
      "name": "UserAddressInContractAddresses",
      "type": "error"
    },
    {
      "inputs": [
        {
          "internalType": "uint256",
          "name": "userDecryptionId",
          "type": "uint256"
        }
      ],
      "name": "UserDecryptionNotDone",
      "type": "error"
    },
    {
      "anonymous": false,
      "inputs": [],
      "name": "EIP712DomainChanged",
      "type": "event"
    },
    {
      "anonymous": false,
      "inputs": [
        {
          "indexed": false,
          "internalType": "uint64",
          "name": "version",
          "type": "uint64"
        }
      ],
      "name": "Initialized",
      "type": "event"
    },
    {
      "anonymous": false,
      "inputs": [
        {
          "indexed": true,
          "internalType": "address",
          "name": "previousOwner",
          "type": "address"
        },
        {
          "indexed": true,
          "internalType": "address",
          "name": "newOwner",
          "type": "address"
        }
      ],
      "name": "OwnershipTransferStarted",
      "type": "event"
    },
    {
      "anonymous": false,
      "inputs": [
        {
          "indexed": true,
          "internalType": "address",
          "name": "previousOwner",
          "type": "address"
        },
        {
          "indexed": true,
          "internalType": "address",
          "name": "newOwner",
          "type": "address"
        }
      ],
      "name": "OwnershipTransferred",
      "type": "event"
    },
    {
      "anonymous": false,
      "inputs": [
        {
          "indexed": true,
          "internalType": "uint256",
          "name": "publicDecryptionId",
          "type": "uint256"
        },
        {
          "components": [
            {
              "internalType": "bytes32",
              "name": "ctHandle",
              "type": "bytes32"
            },
            {
              "internalType": "uint256",
              "name": "keyId",
              "type": "uint256"
            },
            {
              "internalType": "bytes32",
              "name": "snsCiphertextDigest",
              "type": "bytes32"
            },
            {
              "internalType": "address[]",
              "name": "coprocessorTxSenderAddresses",
              "type": "address[]"
            }
          ],
          "indexed": false,
          "internalType": "struct SnsCiphertextMaterial[]",
          "name": "snsCtMaterials",
          "type": "tuple[]"
        }
      ],
      "name": "PublicDecryptionRequest",
      "type": "event"
    },
    {
      "anonymous": false,
      "inputs": [
        {
          "indexed": true,
          "internalType": "uint256",
          "name": "publicDecryptionId",
          "type": "uint256"
        },
        {
          "indexed": false,
          "internalType": "bytes",
          "name": "decryptedResult",
          "type": "bytes"
        },
        {
          "indexed": false,
          "internalType": "bytes[]",
          "name": "signatures",
          "type": "bytes[]"
        }
      ],
      "name": "PublicDecryptionResponse",
      "type": "event"
    },
    {
      "anonymous": false,
      "inputs": [
        {
          "indexed": true,
          "internalType": "address",
          "name": "implementation",
          "type": "address"
        }
      ],
      "name": "Upgraded",
      "type": "event"
    },
    {
      "anonymous": false,
      "inputs": [
        {
          "indexed": true,
          "internalType": "uint256",
          "name": "userDecryptionId",
          "type": "uint256"
        },
        {
          "components": [
            {
              "internalType": "bytes32",
              "name": "ctHandle",
              "type": "bytes32"
            },
            {
              "internalType": "uint256",
              "name": "keyId",
              "type": "uint256"
            },
            {
              "internalType": "bytes32",
              "name": "snsCiphertextDigest",
              "type": "bytes32"
            },
            {
              "internalType": "address[]",
              "name": "coprocessorTxSenderAddresses",
              "type": "address[]"
            }
          ],
          "indexed": false,
          "internalType": "struct SnsCiphertextMaterial[]",
          "name": "snsCtMaterials",
          "type": "tuple[]"
        },
        {
          "indexed": false,
          "internalType": "address",
          "name": "userAddress",
          "type": "address"
        },
        {
          "indexed": false,
          "internalType": "bytes",
          "name": "publicKey",
          "type": "bytes"
        }
      ],
      "name": "UserDecryptionRequest",
      "type": "event"
    },
    {
      "anonymous": false,
      "inputs": [
        {
          "indexed": true,
          "internalType": "uint256",
          "name": "userDecryptionId",
          "type": "uint256"
        },
        {
          "indexed": false,
          "internalType": "bytes[]",
          "name": "reencryptedShares",
          "type": "bytes[]"
        },
        {
          "indexed": false,
          "internalType": "bytes[]",
          "name": "signatures",
          "type": "bytes[]"
        }
      ],
      "name": "UserDecryptionResponse",
      "type": "event"
    },
    {
      "inputs": [],
      "name": "EIP712_DELEGATED_USER_DECRYPT_REQUEST_TYPE",
      "outputs": [
        {
          "internalType": "string",
          "name": "",
          "type": "string"
        }
      ],
      "stateMutability": "view",
      "type": "function"
    },
    {
      "inputs": [],
      "name": "EIP712_DELEGATED_USER_DECRYPT_REQUEST_TYPE_HASH",
      "outputs": [
        {
          "internalType": "bytes32",
          "name": "",
          "type": "bytes32"
        }
      ],
      "stateMutability": "view",
      "type": "function"
    },
    {
      "inputs": [],
      "name": "EIP712_PUBLIC_DECRYPT_TYPE",
      "outputs": [
        {
          "internalType": "string",
          "name": "",
          "type": "string"
        }
      ],
      "stateMutability": "view",
      "type": "function"
    },
    {
      "inputs": [],
      "name": "EIP712_PUBLIC_DECRYPT_TYPE_HASH",
      "outputs": [
        {
          "internalType": "bytes32",
          "name": "",
          "type": "bytes32"
        }
      ],
      "stateMutability": "view",
      "type": "function"
    },
    {
      "inputs": [],
      "name": "EIP712_USER_DECRYPT_REQUEST_TYPE",
      "outputs": [
        {
          "internalType": "string",
          "name": "",
          "type": "string"
        }
      ],
      "stateMutability": "view",
      "type": "function"
    },
    {
      "inputs": [],
      "name": "EIP712_USER_DECRYPT_REQUEST_TYPE_HASH",
      "outputs": [
        {
          "internalType": "bytes32",
          "name": "",
          "type": "bytes32"
        }
      ],
      "stateMutability": "view",
      "type": "function"
    },
    {
      "inputs": [],
      "name": "EIP712_USER_DECRYPT_RESPONSE_TYPE",
      "outputs": [
        {
          "internalType": "string",
          "name": "",
          "type": "string"
        }
      ],
      "stateMutability": "view",
      "type": "function"
    },
    {
      "inputs": [],
      "name": "EIP712_USER_DECRYPT_RESPONSE_TYPE_HASH",
      "outputs": [
        {
          "internalType": "bytes32",
          "name": "",
          "type": "bytes32"
        }
      ],
      "stateMutability": "view",
      "type": "function"
    },
    {
      "inputs": [],
      "name": "UPGRADE_INTERFACE_VERSION",
      "outputs": [
        {
          "internalType": "string",
          "name": "",
          "type": "string"
        }
      ],
      "stateMutability": "view",
      "type": "function"
    },
    {
      "inputs": [],
      "name": "acceptOwnership",
      "outputs": [],
      "stateMutability": "nonpayable",
      "type": "function"
    },
    {
      "inputs": [
        {
          "internalType": "uint256",
          "name": "contractsChainId",
          "type": "uint256"
        },
        {
          "components": [
            {
              "internalType": "address",
              "name": "delegatorAddress",
              "type": "address"
            },
            {
              "internalType": "address",
              "name": "delegatedAddress",
              "type": "address"
            }
          ],
          "internalType": "struct DelegationAccounts",
          "name": "delegationAccounts",
          "type": "tuple"
        },
        {
          "components": [
            {
              "internalType": "bytes32",
              "name": "ctHandle",
              "type": "bytes32"
            },
            {
              "internalType": "address",
              "name": "contractAddress",
              "type": "address"
            }
          ],
          "internalType": "struct CtHandleContractPair[]",
          "name": "ctHandleContractPairs",
          "type": "tuple[]"
        },
        {
          "internalType": "address[]",
          "name": "contractAddresses",
          "type": "address[]"
        }
      ],
      "name": "checkDelegatedUserDecryptionReady",
      "outputs": [],
      "stateMutability": "view",
      "type": "function"
    },
    {
      "inputs": [
        {
          "internalType": "uint256",
          "name": "publicDecryptionId",
          "type": "uint256"
        }
      ],
      "name": "checkPublicDecryptionDone",
      "outputs": [],
      "stateMutability": "view",
      "type": "function"
    },
    {
      "inputs": [
        {
          "internalType": "bytes32[]",
          "name": "ctHandles",
          "type": "bytes32[]"
        }
      ],
      "name": "checkPublicDecryptionReady",
      "outputs": [],
      "stateMutability": "view",
      "type": "function"
    },
    {
      "inputs": [
        {
          "internalType": "uint256",
          "name": "userDecryptionId",
          "type": "uint256"
        }
      ],
      "name": "checkUserDecryptionDone",
      "outputs": [],
      "stateMutability": "view",
      "type": "function"
    },
    {
      "inputs": [
        {
          "internalType": "address",
          "name": "userAddress",
          "type": "address"
        },
        {
          "components": [
            {
              "internalType": "bytes32",
              "name": "ctHandle",
              "type": "bytes32"
            },
            {
              "internalType": "address",
              "name": "contractAddress",
              "type": "address"
            }
          ],
          "internalType": "struct CtHandleContractPair[]",
          "name": "ctHandleContractPairs",
          "type": "tuple[]"
        }
      ],
      "name": "checkUserDecryptionReady",
      "outputs": [],
      "stateMutability": "view",
      "type": "function"
    },
    {
      "inputs": [
        {
          "components": [
            {
              "internalType": "bytes32",
              "name": "ctHandle",
              "type": "bytes32"
            },
            {
              "internalType": "address",
              "name": "contractAddress",
              "type": "address"
            }
          ],
          "internalType": "struct CtHandleContractPair[]",
          "name": "ctHandleContractPairs",
          "type": "tuple[]"
        },
        {
          "components": [
            {
              "internalType": "uint256",
              "name": "startTimestamp",
              "type": "uint256"
            },
            {
              "internalType": "uint256",
              "name": "durationDays",
              "type": "uint256"
            }
          ],
          "internalType": "struct IDecryptionManager.RequestValidity",
          "name": "requestValidity",
          "type": "tuple"
        },
        {
          "components": [
            {
              "internalType": "address",
              "name": "delegatorAddress",
              "type": "address"
            },
            {
              "internalType": "address",
              "name": "delegatedAddress",
              "type": "address"
            }
          ],
          "internalType": "struct DelegationAccounts",
          "name": "delegationAccounts",
          "type": "tuple"
        },
        {
          "internalType": "uint256",
          "name": "contractsChainId",
          "type": "uint256"
        },
        {
          "internalType": "address[]",
          "name": "contractAddresses",
          "type": "address[]"
        },
        {
          "internalType": "bytes",
          "name": "publicKey",
          "type": "bytes"
        },
        {
          "internalType": "bytes",
          "name": "signature",
          "type": "bytes"
        }
      ],
      "name": "delegatedUserDecryptionRequest",
      "outputs": [],
      "stateMutability": "nonpayable",
      "type": "function"
    },
    {
      "inputs": [],
      "name": "eip712Domain",
      "outputs": [
        {
          "internalType": "bytes1",
          "name": "fields",
          "type": "bytes1"
        },
        {
          "internalType": "string",
          "name": "name",
          "type": "string"
        },
        {
          "internalType": "string",
          "name": "version",
          "type": "string"
        },
        {
          "internalType": "uint256",
          "name": "chainId",
          "type": "uint256"
        },
        {
          "internalType": "address",
          "name": "verifyingContract",
          "type": "address"
        },
        {
          "internalType": "bytes32",
          "name": "salt",
          "type": "bytes32"
        },
        {
          "internalType": "uint256[]",
          "name": "extensions",
          "type": "uint256[]"
        }
      ],
      "stateMutability": "view",
      "type": "function"
    },
    {
      "inputs": [],
      "name": "getVersion",
      "outputs": [
        {
          "internalType": "string",
          "name": "",
          "type": "string"
        }
      ],
      "stateMutability": "pure",
      "type": "function"
    },
    {
      "inputs": [],
      "name": "initialize",
      "outputs": [],
      "stateMutability": "nonpayable",
      "type": "function"
    },
    {
      "inputs": [],
      "name": "owner",
      "outputs": [
        {
          "internalType": "address",
          "name": "",
          "type": "address"
        }
      ],
      "stateMutability": "view",
      "type": "function"
    },
    {
      "inputs": [],
      "name": "pendingOwner",
      "outputs": [
        {
          "internalType": "address",
          "name": "",
          "type": "address"
        }
      ],
      "stateMutability": "view",
      "type": "function"
    },
    {
      "inputs": [],
      "name": "proxiableUUID",
      "outputs": [
        {
          "internalType": "bytes32",
          "name": "",
          "type": "bytes32"
        }
      ],
      "stateMutability": "view",
      "type": "function"
    },
    {
      "inputs": [
        {
          "internalType": "bytes32[]",
          "name": "ctHandles",
          "type": "bytes32[]"
        }
      ],
      "name": "publicDecryptionRequest",
      "outputs": [],
      "stateMutability": "nonpayable",
      "type": "function"
    },
    {
      "inputs": [
        {
          "internalType": "uint256",
          "name": "publicDecryptionId",
          "type": "uint256"
        },
        {
          "internalType": "bytes",
          "name": "decryptedResult",
          "type": "bytes"
        },
        {
          "internalType": "bytes",
          "name": "signature",
          "type": "bytes"
        }
      ],
      "name": "publicDecryptionResponse",
      "outputs": [],
      "stateMutability": "nonpayable",
      "type": "function"
    },
    {
      "inputs": [],
      "name": "renounceOwnership",
      "outputs": [],
      "stateMutability": "nonpayable",
      "type": "function"
    },
    {
      "inputs": [
        {
          "internalType": "address",
          "name": "newOwner",
          "type": "address"
        }
      ],
      "name": "transferOwnership",
      "outputs": [],
      "stateMutability": "nonpayable",
      "type": "function"
    },
    {
      "inputs": [
        {
          "internalType": "address",
          "name": "newImplementation",
          "type": "address"
        },
        {
          "internalType": "bytes",
          "name": "data",
          "type": "bytes"
        }
      ],
      "name": "upgradeToAndCall",
      "outputs": [],
      "stateMutability": "payable",
      "type": "function"
    },
    {
      "inputs": [
        {
          "components": [
            {
              "internalType": "bytes32",
              "name": "ctHandle",
              "type": "bytes32"
            },
            {
              "internalType": "address",
              "name": "contractAddress",
              "type": "address"
            }
          ],
          "internalType": "struct CtHandleContractPair[]",
          "name": "ctHandleContractPairs",
          "type": "tuple[]"
        },
        {
          "components": [
            {
              "internalType": "uint256",
              "name": "startTimestamp",
              "type": "uint256"
            },
            {
              "internalType": "uint256",
              "name": "durationDays",
              "type": "uint256"
            }
          ],
          "internalType": "struct IDecryptionManager.RequestValidity",
          "name": "requestValidity",
          "type": "tuple"
        },
        {
          "internalType": "uint256",
          "name": "contractsChainId",
          "type": "uint256"
        },
        {
          "internalType": "address[]",
          "name": "contractAddresses",
          "type": "address[]"
        },
        {
          "internalType": "address",
          "name": "userAddress",
          "type": "address"
        },
        {
          "internalType": "bytes",
          "name": "publicKey",
          "type": "bytes"
        },
        {
          "internalType": "bytes",
          "name": "signature",
          "type": "bytes"
        }
      ],
      "name": "userDecryptionRequest",
      "outputs": [],
      "stateMutability": "nonpayable",
      "type": "function"
    },
    {
      "inputs": [
        {
          "internalType": "uint256",
          "name": "userDecryptionId",
          "type": "uint256"
        },
        {
          "internalType": "bytes",
          "name": "reencryptedShare",
          "type": "bytes"
        },
        {
          "internalType": "bytes",
          "name": "signature",
          "type": "bytes"
        }
      ],
      "name": "userDecryptionResponse",
      "outputs": [],
      "stateMutability": "nonpayable",
      "type": "function"
    }
  ],
  "bytecode": "0x60a06040523060805234801562000014575f80fd5b506200001f62000025565b620000d9565b7ff0c57e16840df040f15088dc2f81fe391c3923bec73e23a9662efc9c229c6a00805468010000000000000000900460ff1615620000765760405163f92ee8a960e01b815260040160405180910390fd5b80546001600160401b0390811614620000d65780546001600160401b0319166001600160401b0390811782556040519081527fc7f505b2f371ae2175ee4913f4499e1f2633a7b5936321eed1cdaeb6115181d29060200160405180910390a15b50565b608051614632620001005f395f818161251c0152818161254501526126aa01526146325ff3fe6080604052600436106101b9575f3560e01c806379ba5097116100f2578063ab7325dd11610092578063e3342f1611610062578063e3342f1614610498578063e4c33a3d146104ac578063f11d0638146104c0578063f2fde38b146104df575f80fd5b8063ab7325dd14610409578063ad3cb1cc1461041d578063b9bfe0a814610465578063e30c397814610484575f80fd5b806384b0196e116100cd57806384b0196e146103785780638da5cb5b1461039f578063987c8fce146103cb578063aa39a356146103ea575f80fd5b806379ba5097146103315780638129fc1c146103455780638316001f14610359575f80fd5b8063422f2aef1161015d578063578d967111610138578063578d9671146102d65780636cde9579146102ea578063715018a6146102fe578063760a041914610312575f80fd5b8063422f2aef146102905780634f1ef286146102af57806352d1902d146102c2575f80fd5b8063187fe52911610198578063187fe529146102275780632538a7e1146102465780632eafb7db1461026857806330a988aa1461027c575f80fd5b80628bc3e1146101bd57806302fd1a64146101de5780630d8e6e2c146101fd575b5f80fd5b3480156101c8575f80fd5b506101dc6101d736600461359c565b6104fe565b005b3480156101e9575f80fd5b506101dc6101f836600461362b565b6106ee565b348015610208575f80fd5b506102116108e2565b60405161021e91906136ec565b60405180910390f35b348015610232575f80fd5b506101dc61024136600461373f565b61095d565b348015610251575f80fd5b5061025a610afb565b60405190815260200161021e565b348015610273575f80fd5b50610211610b1e565b348015610287575f80fd5b50610211610b3a565b34801561029b575f80fd5b506101dc6102aa36600461377e565b610b56565b6101dc6102bd366004613803565b610bbe565b3480156102cd575f80fd5b5061025a610bd9565b3480156102e1575f80fd5b5061025a610c07565b3480156102f5575f80fd5b50610211610c2a565b348015610309575f80fd5b506101dc610c46565b34801561031d575f80fd5b506101dc61032c3660046138bb565b610c59565b34801561033c575f80fd5b506101dc61122a565b348015610350575f80fd5b506101dc611272565b348015610364575f80fd5b506101dc6103733660046139a8565b6113bc565b348015610383575f80fd5b5061038c611899565b60405161021e9796959493929190613a7a565b3480156103aa575f80fd5b506103b361195d565b6040516001600160a01b03909116815260200161021e565b3480156103d6575f80fd5b506101dc6103e536600461377e565b611991565b3480156103f5575f80fd5b506101dc61040436600461373f565b6119f0565b348015610414575f80fd5b5061025a611b0e565b348015610428575f80fd5b506102116040518060400160405280600581526020017f352e302e3000000000000000000000000000000000000000000000000000000081525081565b348015610470575f80fd5b506101dc61047f36600461362b565b611b31565b34801561048f575f80fd5b506103b3611e19565b3480156104a3575f80fd5b50610211611e41565b3480156104b7575f80fd5b5061025a611e5d565b3480156104cb575f80fd5b506101dc6104da366004613b11565b611e80565b3480156104ea575f80fd5b506101dc6104f9366004613b96565b6120e8565b5f5b818110156106e85773188de058d5414c3bfb1d443421008f215781f2da63ab4b5d378585858581811061053557610535613bb1565b604080516001600160e01b031960e088901b1681526001600160a01b0390951660048601520291909101356024830152506044015f6040518083038186803b15801561057f575f80fd5b505afa158015610591573d5f803e3d5ffd5b5050505073188de058d5414c3bfb1d443421008f215781f2da6001600160a01b031663ab4b5d378484848181106105ca576105ca613bb1565b90506040020160200160208101906105e29190613b96565b8585858181106105f4576105f4613bb1565b604080516001600160e01b031960e088901b1681526001600160a01b0390951660048601520291909101356024830152506044015f6040518083038186803b15801561063e575f80fd5b505afa158015610650573d5f803e3d5ffd5b50505050730cd5e87581904dc6d305ccdfb6e72b8f77882c346001600160a01b031663d4476f6384848481811061068957610689613bb1565b9050604002015f01356040518263ffffffff1660e01b81526004016106b091815260200190565b5f6040518083038186803b1580156106c6575f80fd5b505afa1580156106d8573d5f803e3d5ffd5b5050600190920191506105009050565b50505050565b6040516318c4ea4b60e31b8152336004820152730f886fd6e24d9fab00bddd0ae3c59c22724fb1e39063c6275258906024015f6040518083038186803b158015610736575f80fd5b505afa158015610748573d5f803e3d5ffd5b505050505f6107615f805160206145ab83398151915290565b604080515f8981526004840160209081528382208054606092810285018301865294840185815295965091949293849392918401828280156107c057602002820191905f5260205f20905b8154815260200190600101908083116107ac575b5050505050815260200187878080601f0160208091040260200160405190810160405280939291908181526020018383808284375f9201829052509390945250929350915061081090508261216d565b905061081e88828787612209565b5f88815260038401602090815260408083208484528252822080546001810182558184529190922001610852868883613c42565b505f89815260058501602052604090205460ff161580156108795750805461087990612352565b156108d7575f89815260058501602052604090819020805460ff191660011790555189907f61568d6eb48e62870afffd55499206a54a8f78b04a627e00ed097161fc05d6be906108ce908b908b908690613de5565b60405180910390a25b505050505050505050565b60606040518060400160405280601181526020017f44656372797074696f6e4d616e616765720000000000000000000000000000008152506109235f6123d2565b61092d60016123d2565b6109365f6123d2565b6040516020016109499493929190613e14565b604051602081830303815290604052905090565b5f805160206145ab8339815191525f5b828110156109fe5773188de058d5414c3bfb1d443421008f215781f2da63193f3f2c8585848181106109a1576109a1613bb1565b905060200201356040518263ffffffff1660e01b81526004016109c691815260200190565b5f6040518083038186803b1580156109dc575f80fd5b505afa1580156109ee573d5f803e3d5ffd5b50506001909201915061096d9050565b5060405163a14f897160e01b81525f90730cd5e87581904dc6d305ccdfb6e72b8f77882c349063a14f897190610a3a9087908790600401613e91565b5f60405180830381865afa158015610a54573d5f803e3d5ffd5b505050506040513d5f823e601f3d908101601f19168201604052610a7b9190810190613f04565b9050610a868161246f565b600182018054905f610a9783614060565b909155505060018201545f8181526004840160205260409020610abb90868661349a565b50807f17c632196fbf6b96d9675971058d3701733094c3f2f1dcb9ba7d2a08bee0aafb83604051610aec9190614134565b60405180910390a25050505050565b6040518060800160405280605b81526020016145cb605b91398051906020012081565b6040518060800160405280604481526020016144d76044913981565b6040518060c001604052806090815260200161451b6090913981565b5f8181527f13fa45e3e06dd5c7291d8698d89ad1fd40bc82f98a605fa4761ea2b538c8db0a60205260409020545f805160206145ab8339815191529060ff16610bba5760405163705c3ba960e01b8152600481018390526024015b60405180910390fd5b5050565b610bc6612511565b610bcf826125c8565b610bba82826125d0565b5f610be261269f565b507f360894a13ba1a3210667c828492db98dca3e2076cc3735a920a3ca505d382bbc90565b6040518060e0016040528060b2815260200161442560b291398051906020012081565b6040518060e0016040528060b2815260200161442560b2913981565b610c4e6126e8565b610c575f61271a565b565b600a851115610c85576040516362d5a33f60e11b8152600a600482015260248101869052604401610bb1565b61016d60208a01351115610cba57604051633295186360e01b815261016d600482015260208a01356024820152604401610bb1565b610d028686808060200260200160405190810160405280939291908181526020018383602002808284375f92019190915250610cfd9250505060208b018b613b96565b612752565b15610d3257610d146020890189613b96565b868660405163c3446ac760e01b8152600401610bb19392919061418d565b5f8a67ffffffffffffffff811115610d4c57610d4c613795565b604051908082528060200260200182016040528015610d75578160200160208202803683370190505b5090505f5b8b811015610f44575f8d8d83818110610d9557610d95613bb1565b9050604002015f013590505f8e8e84818110610db357610db3613bb1565b9050604002016020016020810190610dcb9190613b96565b905073188de058d5414c3bfb1d443421008f215781f2da63ab4b5d37610df460208f018f613b96565b6040516001600160e01b031960e084901b1681526001600160a01b039091166004820152602481018590526044015f6040518083038186803b158015610e38575f80fd5b505afa158015610e4a573d5f803e3d5ffd5b505060405163ab4b5d3760e01b81526001600160a01b03841660048201526024810185905273188de058d5414c3bfb1d443421008f215781f2da925063ab4b5d3791506044015f6040518083038186803b158015610ea6575f80fd5b505afa158015610eb8573d5f803e3d5ffd5b50505050610ef98a8a808060200260200160405190810160405280939291908181526020018383602002808284375f92019190915250859250612752915050565b610f1c57808a8a60405163a4c3039160e01b8152600401610bb19392919061418d565b81848481518110610f2f57610f2f613bb1565b60209081029190910101525050600101610d7a565b506040516328e20e8760e11b815273188de058d5414c3bfb1d443421008f215781f2da906351c41d0e90610f82908b908d908c908c906004016141af565b5f6040518083038186803b158015610f98575f80fd5b505afa158015610faa573d5f803e3d5ffd5b505050505f6040518060c0016040528087878080601f0160208091040260200160405190810160405280939291908181526020018383808284375f920191909152505050908252506040805160208b810282810182019093528b82529283019290918c918c9182918501908490808284375f9201919091525050509082525060209081019061103b908d018d613b96565b6001600160a01b031681526020018a81526020018c5f013581526020018c602001358152509050611080818b60200160208101906110799190613b96565b86866127ab565b60405163a14f897160e01b81525f90730cd5e87581904dc6d305ccdfb6e72b8f77882c349063a14f8971906110b99086906004016141fa565b5f60405180830381865afa1580156110d3573d5f803e3d5ffd5b505050506040513d5f823e601f3d908101601f191682016040526110fa9190810190613f04565b90506111058161246f565b7f13fa45e3e06dd5c7291d8698d89ad1fd40bc82f98a605fa4761ea2b538c8db0680545f805160206145ab833981519152915f61114183614060565b909155505060068101546040805160606020601f8c01819004028201810183529181018a815290918291908c908c90819085018382808284375f92018290525093855250505060209182018890528381526009850190915260409020815181906111ab908261423d565b5060208281015180516111c492600185019201906134e3565b50905050807f1c3dcad6311be6d58dc4d4b9f1bc1625eb18d72de969db75e11a88ef3527d2f3848f60200160208101906111fe9190613b96565b8c8c60405161121094939291906142f9565b60405180910390a250505050505050505050505050505050565b3380611234611e19565b6001600160a01b0316146112665760405163118cdaa760e01b81526001600160a01b0382166004820152602401610bb1565b61126f8161271a565b50565b7ff0c57e16840df040f15088dc2f81fe391c3923bec73e23a9662efc9c229c6a0080546002919068010000000000000000900460ff16806112c15750805467ffffffffffffffff808416911610155b156112df5760405163f92ee8a960e01b815260040160405180910390fd5b805468ffffffffffffffffff191667ffffffffffffffff83161768010000000000000000178155604080518082018252601181527f44656372797074696f6e4d616e61676572000000000000000000000000000000602080830191909152825180840190935260018352603160f81b9083015261135b91612837565b61136b61136661195d565b612849565b805468ff00000000000000001916815560405167ffffffffffffffff831681527fc7f505b2f371ae2175ee4913f4499e1f2633a7b5936321eed1cdaeb6115181d29060200160405180910390a15050565b600a8611156113e8576040516362d5a33f60e11b8152600a600482015260248101879052604401610bb1565b61016d60208a0135111561141d57604051633295186360e01b815261016d600482015260208a01356024820152604401610bb1565b61145a8787808060200260200160405190810160405280939291908181526020018383602002808284375f92019190915250899250612752915050565b1561147e5784878760405163dc4d78b160e01b8152600401610bb19392919061418d565b5f8a67ffffffffffffffff81111561149857611498613795565b6040519080825280602002602001820160405280156114c1578160200160208202803683370190505b5090505f5b8b81101561167e575f8d8d838181106114e1576114e1613bb1565b9050604002015f013590505f8e8e848181106114ff576114ff613bb1565b90506040020160200160208101906115179190613b96565b60405163ab4b5d3760e01b81526001600160a01b038b1660048201526024810184905290915073188de058d5414c3bfb1d443421008f215781f2da9063ab4b5d37906044015f6040518083038186803b158015611572575f80fd5b505afa158015611584573d5f803e3d5ffd5b505060405163ab4b5d3760e01b81526001600160a01b03841660048201526024810185905273188de058d5414c3bfb1d443421008f215781f2da925063ab4b5d3791506044015f6040518083038186803b1580156115e0575f80fd5b505afa1580156115f2573d5f803e3d5ffd5b505050506116338b8b808060200260200160405190810160405280939291908181526020018383602002808284375f92019190915250859250612752915050565b61165657808b8b60405163a4c3039160e01b8152600401610bb19392919061418d565b8184848151811061166957611669613bb1565b602090810291909101015250506001016114c6565b506040805160c06020601f8801819004028201810190925260a081018681525f9282919089908990819085018382808284375f920191909152505050908252506040805160208c810282810182019093528c82529283019290918d918d9182918501908490808284375f9201919091525050509082525060208082018d90528d3560408301528d0135606090910152905061171b8188868661285a565b60405163a14f897160e01b81525f90730cd5e87581904dc6d305ccdfb6e72b8f77882c349063a14f8971906117549086906004016141fa565b5f60405180830381865afa15801561176e573d5f803e3d5ffd5b505050506040513d5f823e601f3d908101601f191682016040526117959190810190613f04565b90506117a08161246f565b7f13fa45e3e06dd5c7291d8698d89ad1fd40bc82f98a605fa4761ea2b538c8db0680545f805160206145ab833981519152915f6117dc83614060565b909155505060068101546040805160606020601f8c01819004028201810183529181018a815290918291908c908c90819085018382808284375f9201829052509385525050506020918201889052838152600985019091526040902081518190611846908261423d565b50602082810151805161185f92600185019201906134e3565b50905050807f1c3dcad6311be6d58dc4d4b9f1bc1625eb18d72de969db75e11a88ef3527d2f3848c8c8c60405161121094939291906142f9565b5f60608082808083817fa16a46d94261c7517cc8ff89f61c0ce93598e3c849801011dee649a6a557d10080549091501580156118d757506001810154155b6119235760405162461bcd60e51b815260206004820152601560248201527f4549503731323a20556e696e697469616c697a656400000000000000000000006044820152606401610bb1565b61192b612864565b611933612937565b604080515f80825260208201909252600f60f81b9c939b5091995046985030975095509350915050565b5f807f9016d09d72d40fdae2fd8ceac6b6234c7706214fd39c1cd1e609a0528c1993005b546001600160a01b031692915050565b5f8181527f13fa45e3e06dd5c7291d8698d89ad1fd40bc82f98a605fa4761ea2b538c8db0560205260409020545f805160206145ab8339815191529060ff16610bba5760405163087043bb60e01b815260048101839052602401610bb1565b5f5b81811015611b095773188de058d5414c3bfb1d443421008f215781f2da63193f3f2c848484818110611a2657611a26613bb1565b905060200201356040518263ffffffff1660e01b8152600401611a4b91815260200190565b5f6040518083038186803b158015611a61575f80fd5b505afa158015611a73573d5f803e3d5ffd5b50505050730cd5e87581904dc6d305ccdfb6e72b8f77882c346001600160a01b031663d4476f63848484818110611aac57611aac613bb1565b905060200201356040518263ffffffff1660e01b8152600401611ad191815260200190565b5f6040518083038186803b158015611ae7575f80fd5b505afa158015611af9573d5f803e3d5ffd5b5050600190920191506119f29050565b505050565b6040518060800160405280604481526020016144d7604491398051906020012081565b6040516318c4ea4b60e31b8152336004820152730f886fd6e24d9fab00bddd0ae3c59c22724fb1e39063c6275258906024015f6040518083038186803b158015611b79575f80fd5b505afa158015611b8b573d5f803e3d5ffd5b505050505f611ba45f805160206145ab83398151915290565b90505f816009015f8881526020019081526020015f206040518060400160405290815f82018054611bd490613bc5565b80601f0160208091040260200160405190810160405280929190818152602001828054611c0090613bc5565b8015611c4b5780601f10611c2257610100808354040283529160200191611c4b565b820191905f5260205f20905b815481529060010190602001808311611c2e57829003601f168201915b5050505050815260200160018201805480602002602001604051908101604052809291908181526020018280548015611ca157602002820191905f5260205f20905b815481526020019060010190808311611c8d575b50505050508152505090505f6040518060600160405280835f015181526020018360200151815260200188888080601f0160208091040260200160405190810160405280939291908181526020018383808284375f92018290525093909452509293509150611d11905082612988565b9050611d1f89828888612a12565b5f89815260088501602090815260408083208484528252822080546001810182558184529190922001611d53878983613c42565b505f8a8152600b86016020908152604082208054600181018255908352912001611d7e898b83613c42565b505f8a8152600a8601602052604090205460ff16158015611da557508054611da590612b5b565b15611e0d575f8a8152600a860160209081526040808320805460ff19166001179055600b88019091529081902090518b917f7312dec4cead0d5d3da836cdbaed1eb6a81e218c519c8740da4ac75afcb6c5c791611e0491908590614338565b60405180910390a25b50505050505050505050565b5f807f237e158222e3e6968b72b9db0d8043aacf074ad9f650f0d1606b4d82ee432c00611981565b6040518060800160405280605b81526020016145cb605b913981565b6040518060c001604052806090815260200161451b609091398051906020012081565b6040516328e20e8760e11b815273188de058d5414c3bfb1d443421008f215781f2da906351c41d0e90611ebd9089908990879087906004016141af565b5f6040518083038186803b158015611ed3575f80fd5b505afa158015611ee5573d5f803e3d5ffd5b505050505f5b838110156120df5773188de058d5414c3bfb1d443421008f215781f2da63ab4b5d37611f1a6020890189613b96565b878785818110611f2c57611f2c613bb1565b604080516001600160e01b031960e088901b1681526001600160a01b0390951660048601520291909101356024830152506044015f6040518083038186803b158015611f76575f80fd5b505afa158015611f88573d5f803e3d5ffd5b5050505073188de058d5414c3bfb1d443421008f215781f2da6001600160a01b031663ab4b5d37868684818110611fc157611fc1613bb1565b9050604002016020016020810190611fd99190613b96565b878785818110611feb57611feb613bb1565b604080516001600160e01b031960e088901b1681526001600160a01b0390951660048601520291909101356024830152506044015f6040518083038186803b158015612035575f80fd5b505afa158015612047573d5f803e3d5ffd5b50505050730cd5e87581904dc6d305ccdfb6e72b8f77882c346001600160a01b031663d4476f6386868481811061208057612080613bb1565b9050604002015f01356040518263ffffffff1660e01b81526004016120a791815260200190565b5f6040518083038186803b1580156120bd575f80fd5b505afa1580156120cf573d5f803e3d5ffd5b505060019092019150611eeb9050565b50505050505050565b6120f06126e8565b7f237e158222e3e6968b72b9db0d8043aacf074ad9f650f0d1606b4d82ee432c0080546001600160a01b0319166001600160a01b038316908117825561213461195d565b6001600160a01b03167f38d16b8cac22d99fc7c124b9cd0de2d3fa1faef420bfe791d8c362d765e2270060405160405180910390a35050565b5f6122036040518060800160405280604481526020016144d7604491398051602091820120845160405191926121a3920161435c565b604051602081830303815290604052805190602001208460200151805190602001206040516020016121e8939291909283526020830191909152604082015260600190565b60405160208183030381529060405280519060200120612bad565b92915050565b5f5f805160206145ab83398151915290505f61225a8585858080601f0160208091040260200160405190810160405280939291908181526020018383808284375f92019190915250612bd992505050565b604051636c88eb4360e01b81526001600160a01b0382166004820152909150730f886fd6e24d9fab00bddd0ae3c59c22724fb1e390636c88eb43906024015f6040518083038186803b1580156122ae575f80fd5b505afa1580156122c0573d5f803e3d5ffd5b5050505f87815260028401602090815260408083206001600160a01b038616845290915290205460ff1615905061231c5760405163a1714c7760e01b8152600481018790526001600160a01b0382166024820152604401610bb1565b5f9586526002909101602090815260408087206001600160a01b039093168752919052909320805460ff19166001179055505050565b5f80730f886fd6e24d9fab00bddd0ae3c59c22724fb1e36001600160a01b03166347cd4b3e6040518163ffffffff1660e01b8152600401602060405180830381865afa1580156123a4573d5f803e3d5ffd5b505050506040513d601f19601f820116820180604052508101906123c89190614391565b9092101592915050565b60605f6123de83612c01565b60010190505f8167ffffffffffffffff8111156123fd576123fd613795565b6040519080825280601f01601f191660200182016040528015612427576020820181803683370190505b5090508181016020015b5f19017f3031323334353637383961626364656600000000000000000000000000000000600a86061a8153600a850494508461243157509392505050565b600181511161247b5750565b5f815f8151811061248e5761248e613bb1565b60200260200101516020015190505f600190505b8251811015611b0957818382815181106124be576124be613bb1565b60200260200101516020015114612509578281815181106124e1576124e1613bb1565b60200260200101516020015160405163f90bc7f560e01b8152600401610bb191815260200190565b6001016124a2565b306001600160a01b037f00000000000000000000000000000000000000000000000000000000000000001614806125aa57507f00000000000000000000000000000000000000000000000000000000000000006001600160a01b031661259e7f360894a13ba1a3210667c828492db98dca3e2076cc3735a920a3ca505d382bbc546001600160a01b031690565b6001600160a01b031614155b15610c575760405163703e46dd60e11b815260040160405180910390fd5b61126f6126e8565b816001600160a01b03166352d1902d6040518163ffffffff1660e01b8152600401602060405180830381865afa92505050801561262a575060408051601f3d908101601f1916820190925261262791810190614391565b60015b61265257604051634c9c8ce360e01b81526001600160a01b0383166004820152602401610bb1565b7f360894a13ba1a3210667c828492db98dca3e2076cc3735a920a3ca505d382bbc811461269557604051632a87526960e21b815260048101829052602401610bb1565b611b098383612ce2565b306001600160a01b037f00000000000000000000000000000000000000000000000000000000000000001614610c575760405163703e46dd60e11b815260040160405180910390fd5b336126f161195d565b6001600160a01b031614610c575760405163118cdaa760e01b8152336004820152602401610bb1565b7f237e158222e3e6968b72b9db0d8043aacf074ad9f650f0d1606b4d82ee432c0080546001600160a01b0319168155610bba82612d37565b5f805b83518110156127a257826001600160a01b031684828151811061277a5761277a613bb1565b60200260200101516001600160a01b03160361279a576001915050612203565b600101612755565b505f9392505050565b5f6127b585612da7565b90505f6127f78285858080601f0160208091040260200160405190810160405280939291908181526020018383808284375f92019190915250612bd992505050565b9050846001600160a01b0316816001600160a01b03161461282f578383604051632a873d2760e01b8152600401610bb19291906143a8565b505050505050565b61283f612e5f565b610bba8282612ead565b612851612e5f565b61126f81612f1f565b5f6127b585612f50565b7fa16a46d94261c7517cc8ff89f61c0ce93598e3c849801011dee649a6a557d10280546060917fa16a46d94261c7517cc8ff89f61c0ce93598e3c849801011dee649a6a557d100916128b590613bc5565b80601f01602080910402602001604051908101604052809291908181526020018280546128e190613bc5565b801561292c5780601f106129035761010080835404028352916020019161292c565b820191905f5260205f20905b81548152906001019060200180831161290f57829003601f168201915b505050505091505090565b7fa16a46d94261c7517cc8ff89f61c0ce93598e3c849801011dee649a6a557d10380546060917fa16a46d94261c7517cc8ff89f61c0ce93598e3c849801011dee649a6a557d100916128b590613bc5565b5f6122036040518060800160405280605b81526020016145cb605b913980519060200120835f01518051906020012084602001516040516020016129cc919061435c565b60408051601f198184030181528282528051602091820120918801518051908201206121e895949390910193845260208401929092526040830152606082015260800190565b5f5f805160206145ab83398151915290505f612a638585858080601f0160208091040260200160405190810160405280939291908181526020018383808284375f92019190915250612bd992505050565b604051636c88eb4360e01b81526001600160a01b0382166004820152909150730f886fd6e24d9fab00bddd0ae3c59c22724fb1e390636c88eb43906024015f6040518083038186803b158015612ab7575f80fd5b505afa158015612ac9573d5f803e3d5ffd5b5050505f87815260078401602090815260408083206001600160a01b038616845290915290205460ff16159050612b255760405163a1714c7760e01b8152600481018790526001600160a01b0382166024820152604401610bb1565b5f9586526007909101602090815260408087206001600160a01b039093168752919052909320805460ff19166001179055505050565b5f80730f886fd6e24d9fab00bddd0ae3c59c22724fb1e36001600160a01b031663490413aa6040518163ffffffff1660e01b8152600401602060405180830381865afa1580156123a4573d5f803e3d5ffd5b5f612203612bb9612ff1565b8360405161190160f01b8152600281019290925260228201526042902090565b5f805f80612be78686612fff565b925092509250612bf78282613048565b5090949350505050565b5f807a184f03e93ff9f4daa797ed6e38ed64bf6a1f0100000000000000008310612c49577a184f03e93ff9f4daa797ed6e38ed64bf6a1f010000000000000000830492506040015b6d04ee2d6d415b85acef81000000008310612c75576d04ee2d6d415b85acef8100000000830492506020015b662386f26fc100008310612c9357662386f26fc10000830492506010015b6305f5e1008310612cab576305f5e100830492506008015b6127108310612cbf57612710830492506004015b60648310612cd1576064830492506002015b600a83106122035760010192915050565b612ceb82613100565b6040516001600160a01b038316907fbc7cd75a20ee27fd9adebab32041f755214dbc6bffa90cc0225b39da2e5c2d3b905f90a2805115612d2f57611b098282613176565b610bba6131e8565b7f9016d09d72d40fdae2fd8ceac6b6234c7706214fd39c1cd1e609a0528c19930080546001600160a01b031981166001600160a01b03848116918217845560405192169182907f8be0079c531659141344cd1fd0a4f28419497f9722a3daafe3b4186f6b6457e0905f90a3505050565b5f6122036040518060e0016040528060b2815260200161442560b2913980519060200120835f0151805190602001208460200151604051602001612deb91906143c3565b604051602081830303815290604052805190602001208560400151866060015187608001518860a001516040516020016121e89796959493929190968752602087019590955260408601939093526001600160a01b03919091166060850152608084015260a083015260c082015260e00190565b7ff0c57e16840df040f15088dc2f81fe391c3923bec73e23a9662efc9c229c6a005468010000000000000000900460ff16610c5757604051631afcd79f60e31b815260040160405180910390fd5b612eb5612e5f565b7fa16a46d94261c7517cc8ff89f61c0ce93598e3c849801011dee649a6a557d1007fa16a46d94261c7517cc8ff89f61c0ce93598e3c849801011dee649a6a557d102612f01848261423d565b5060038101612f10838261423d565b505f8082556001909101555050565b612f27612e5f565b6001600160a01b03811661126657604051631e4fbdf760e01b81525f6004820152602401610bb1565b5f6122036040518060c001604052806090815260200161451b6090913980519060200120835f0151805190602001208460200151604051602001612f9491906143c3565b604051602081830303815290604052805190602001208560400151866060015187608001516040516020016121e896959493929190958652602086019490945260408501929092526060840152608083015260a082015260c00190565b5f612ffa613207565b905090565b5f805f8351604103613036576020840151604085015160608601515f1a6130288882858561327a565b955095509550505050613041565b505081515f91506002905b9250925092565b5f82600381111561305b5761305b6143f5565b03613064575050565b6001826003811115613078576130786143f5565b036130965760405163f645eedf60e01b815260040160405180910390fd5b60028260038111156130aa576130aa6143f5565b036130cb5760405163fce698f760e01b815260048101829052602401610bb1565b60038260038111156130df576130df6143f5565b03610bba576040516335e2f38360e21b815260048101829052602401610bb1565b806001600160a01b03163b5f0361313557604051634c9c8ce360e01b81526001600160a01b0382166004820152602401610bb1565b7f360894a13ba1a3210667c828492db98dca3e2076cc3735a920a3ca505d382bbc80546001600160a01b0319166001600160a01b0392909216919091179055565b60605f80846001600160a01b0316846040516131929190614409565b5f60405180830381855af49150503d805f81146131ca576040519150601f19603f3d011682016040523d82523d5f602084013e6131cf565b606091505b50915091506131df858383613342565b95945050505050565b3415610c575760405163b398979f60e01b815260040160405180910390fd5b5f7f8b73c3c69bb8fe3d512ecc4cf759cc79239f7b179b0ffacaa9a75d522b39400f6132316133a1565b61323961341c565b60408051602081019490945283019190915260608201524660808201523060a082015260c00160405160208183030381529060405280519060200120905090565b5f80807f7fffffffffffffffffffffffffffffff5d576e7357a4501ddfe92f46681b20a08411156132b357505f91506003905082613338565b604080515f808252602082018084528a905260ff891692820192909252606081018790526080810186905260019060a0016020604051602081039080840390855afa158015613304573d5f803e3d5ffd5b5050604051601f1901519150506001600160a01b03811661332f57505f925060019150829050613338565b92505f91508190505b9450945094915050565b6060826133575761335282613471565b61339a565b815115801561336e57506001600160a01b0384163b155b1561339757604051639996b31560e01b81526001600160a01b0385166004820152602401610bb1565b50805b9392505050565b5f7fa16a46d94261c7517cc8ff89f61c0ce93598e3c849801011dee649a6a557d100816133cc612864565b8051909150156133e457805160209091012092915050565b815480156133f3579392505050565b7fc5d2460186f7233c927e7db2dcc703c0e500b653ca82273b7bfad8045d85a470935050505090565b5f7fa16a46d94261c7517cc8ff89f61c0ce93598e3c849801011dee649a6a557d10081613447612937565b80519091501561345f57805160209091012092915050565b600182015480156133f3579392505050565b8051156134815780518082602001fd5b60405163d6bda27560e01b815260040160405180910390fd5b828054828255905f5260205f209081019282156134d3579160200282015b828111156134d35782358255916020019190600101906134b8565b506134df92915061351c565b5090565b828054828255905f5260205f209081019282156134d3579160200282015b828111156134d3578251825591602001919060010190613501565b5b808211156134df575f815560010161351d565b6001600160a01b038116811461126f575f80fd5b803561354f81613530565b919050565b5f8083601f840112613564575f80fd5b50813567ffffffffffffffff81111561357b575f80fd5b6020830191508360208260061b8501011115613595575f80fd5b9250929050565b5f805f604084860312156135ae575f80fd5b83356135b981613530565b9250602084013567ffffffffffffffff8111156135d4575f80fd5b6135e086828701613554565b9497909650939450505050565b5f8083601f8401126135fd575f80fd5b50813567ffffffffffffffff811115613614575f80fd5b602083019150836020828501011115613595575f80fd5b5f805f805f6060868803121561363f575f80fd5b85359450602086013567ffffffffffffffff8082111561365d575f80fd5b61366989838a016135ed565b90965094506040880135915080821115613681575f80fd5b5061368e888289016135ed565b969995985093965092949392505050565b5f5b838110156136b95781810151838201526020016136a1565b50505f910152565b5f81518084526136d881602086016020860161369f565b601f01601f19169290920160200192915050565b602081525f61339a60208301846136c1565b5f8083601f84011261370e575f80fd5b50813567ffffffffffffffff811115613725575f80fd5b6020830191508360208260051b8501011115613595575f80fd5b5f8060208385031215613750575f80fd5b823567ffffffffffffffff811115613766575f80fd5b613772858286016136fe565b90969095509350505050565b5f6020828403121561378e575f80fd5b5035919050565b634e487b7160e01b5f52604160045260245ffd5b6040516080810167ffffffffffffffff811182821017156137cc576137cc613795565b60405290565b604051601f8201601f1916810167ffffffffffffffff811182821017156137fb576137fb613795565b604052919050565b5f8060408385031215613814575f80fd5b823561381f81613530565b915060208381013567ffffffffffffffff8082111561383c575f80fd5b818601915086601f83011261384f575f80fd5b81358181111561386157613861613795565b613873601f8201601f191685016137d2565b91508082528784828501011115613888575f80fd5b80848401858401375f848284010152508093505050509250929050565b5f604082840312156138b5575f80fd5b50919050565b5f805f805f805f805f805f6101208c8e0312156138d6575f80fd5b67ffffffffffffffff808d3511156138ec575f80fd5b6138f98e8e358f01613554565b909c509a5061390b8e60208f016138a5565b995061391a8e60608f016138a5565b985060a08d013597508060c08e01351115613933575f80fd5b6139438e60c08f01358f016136fe565b909750955060e08d0135811015613958575f80fd5b6139688e60e08f01358f016135ed565b90955093506101008d013581101561397e575f80fd5b506139908d6101008e01358e016135ed565b81935080925050509295989b509295989b9093969950565b5f805f805f805f805f805f6101008c8e0312156139c3575f80fd5b67ffffffffffffffff808d3511156139d9575f80fd5b6139e68e8e358f01613554565b909c509a506139f88e60208f016138a5565b995060608d013598508060808e01351115613a11575f80fd5b613a218e60808f01358f016136fe565b9098509650613a3260a08e01613544565b95508060c08e01351115613a44575f80fd5b613a548e60c08f01358f016135ed565b909550935060e08d0135811015613a69575f80fd5b506139908d60e08e01358e016135ed565b60ff60f81b881681525f602060e06020840152613a9a60e084018a6136c1565b8381036040850152613aac818a6136c1565b606085018990526001600160a01b038816608086015260a0850187905284810360c0860152855180825260208088019350909101905f5b81811015613aff57835183529284019291840191600101613ae3565b50909c9b505050505050505050505050565b5f805f805f8060a08789031215613b26575f80fd5b86359550613b3788602089016138a5565b9450606087013567ffffffffffffffff80821115613b53575f80fd5b613b5f8a838b01613554565b90965094506080890135915080821115613b77575f80fd5b50613b8489828a016136fe565b979a9699509497509295939492505050565b5f60208284031215613ba6575f80fd5b813561339a81613530565b634e487b7160e01b5f52603260045260245ffd5b600181811c90821680613bd957607f821691505b6020821081036138b557634e487b7160e01b5f52602260045260245ffd5b601f821115611b0957805f5260205f20601f840160051c81016020851015613c1c5750805b601f840160051c820191505b81811015613c3b575f8155600101613c28565b5050505050565b67ffffffffffffffff831115613c5a57613c5a613795565b613c6e83613c688354613bc5565b83613bf7565b5f601f841160018114613c9f575f8515613c885750838201355b5f19600387901b1c1916600186901b178355613c3b565b5f83815260208120601f198716915b82811015613cce5786850135825560209485019460019092019101613cae565b5086821015613cea575f1960f88860031b161c19848701351681555b505060018560011b0183555050505050565b81835281816020850137505f828201602090810191909152601f909101601f19169091010190565b5f828254808552602080860195506005818360051b850101865f52825f205f5b85811015613dd757601f19878403018a525f8254613d6181613bc5565b80865260018281168015613d7c5760018114613d9557613dc0565b60ff198416888b0152821515891b88018a019450613dc0565b865f52895f205f5b84811015613db85781548a82018d0152908301908b01613d9d565b89018b019550505b509c88019c92955050509190910190600101613d44565b509098975050505050505050565b604081525f613df8604083018587613cfc565b8281036020840152613e0a8185613d24565b9695505050505050565b5f8551613e25818460208a0161369f565b61103b60f11b9083019081528551613e44816002840160208a0161369f565b808201915050601760f91b8060028301528551613e68816003850160208a0161369f565b60039201918201528351613e8381600484016020880161369f565b016004019695505050505050565b602081528160208201525f7f07ffffffffffffffffffffffffffffffffffffffffffffffffffffffffffffff831115613ec8575f80fd5b8260051b80856040850137919091016040019392505050565b5f67ffffffffffffffff821115613efa57613efa613795565b5060051b60200190565b5f6020808385031215613f15575f80fd5b825167ffffffffffffffff80821115613f2c575f80fd5b818501915085601f830112613f3f575f80fd5b8151613f52613f4d82613ee1565b6137d2565b81815260059190911b83018401908481019088831115613f70575f80fd5b8585015b8381101561405357805185811115613f8a575f80fd5b86016080818c03601f19011215613f9f575f80fd5b613fa76137a9565b8882015181526040808301518a830152606083015181830152608083015188811115613fd1575f80fd5b8084019350508c603f840112613fe5575f80fd5b89830151613ff5613f4d82613ee1565b81815260059190911b84018201908b8101908f831115614013575f80fd5b948301945b8286101561403d578551935061402d84613530565b838252948c0194908c0190614018565b6060850152505050845250918601918601613f74565b5098975050505050505050565b5f6001820161407d57634e487b7160e01b5f52601160045260245ffd5b5060010190565b5f82825180855260208086019550808260051b8401018186015f5b8481101561412757858303601f190189528151805184528481015185850152604080820151908501526060908101516080918501829052805191850182905285019060a08501905f905b808210156141125783516001600160a01b031683529287019291870191600191909101906140e9565b5050998501999350509083019060010161409f565b5090979650505050505050565b602081525f61339a6020830184614084565b8183525f60208085019450825f5b8581101561418257813561416781613530565b6001600160a01b031687529582019590820190600101614154565b509495945050505050565b6001600160a01b0384168152604060208201525f6131df604083018486614146565b8481525f84356141be81613530565b6001600160a01b038082166020850152602087013591506141de82613530565b166040830152608060608301819052613e0a9083018486614146565b602080825282518282018190525f9190848201906040850190845b8181101561423157835183529284019291840191600101614215565b50909695505050505050565b815167ffffffffffffffff81111561425757614257613795565b61426b816142658454613bc5565b84613bf7565b602080601f83116001811461429e575f84156142875750858301515b5f19600386901b1c1916600185901b17855561282f565b5f85815260208120601f198616915b828110156142cc578886015182559484019460019091019084016142ad565b50858210156142e957878501515f19600388901b60f8161c191681555b5050505050600190811b01905550565b606081525f61430b6060830187614084565b6001600160a01b0386166020840152828103604084015261432d818587613cfc565b979650505050505050565b604081525f61434a6040830185613d24565b82810360208401526131df8185613d24565b81515f9082906020808601845b8381101561438557815185529382019390820190600101614369565b50929695505050505050565b5f602082840312156143a1575f80fd5b5051919050565b602081525f6143bb602083018486613cfc565b949350505050565b81515f9082906020808601845b838110156143855781516001600160a01b0316855293820193908201906001016143d0565b634e487b7160e01b5f52602160045260245ffd5b5f825161441a81846020870161369f565b919091019291505056fe44656c656761746564557365724465637279707452657175657374566572696669636174696f6e286279746573207075626c69634b65792c616464726573735b5d20636f6e74726163744164647265737365732c616464726573732064656c656761746f72416464726573732c75696e7432353620636f6e747261637473436861696e49642c75696e7432353620737461727454696d657374616d702c75696e74323536206475726174696f6e44617973295075626c696344656372797074566572696669636174696f6e28627974657333325b5d20637448616e646c65732c627974657320646563727970746564526573756c7429557365724465637279707452657175657374566572696669636174696f6e286279746573207075626c69634b65792c616464726573735b5d20636f6e74726163744164647265737365732c75696e7432353620636f6e747261637473436861696e49642c75696e7432353620737461727454696d657374616d702c75696e74323536206475726174696f6e446179732913fa45e3e06dd5c7291d8698d89ad1fd40bc82f98a605fa4761ea2b538c8db005573657244656372797074526573706f6e7365566572696669636174696f6e286279746573207075626c69634b65792c627974657333325b5d20637448616e646c65732c6279746573207265656e63727970746564536861726529a164736f6c6343000818000a",
  "linkReferences": {},
  "deployedLinkReferences": {}
}