{
  "_format": "hh-sol-artifact-1",
  "contractName": "Decryption",
  "sourceName": "contracts/Decryption.sol",
  "abi": [
    {
      "inputs": [],
      "stateMutability": "nonpayable",
      "type": "constructor"
    },
    {
      "inputs": [
        {
          "internalType": "address",
          "name": "target",
          "type": "address"
        }
      ],
      "name": "AddressEmptyCode",
      "type": "error"
    },
    {
      "inputs": [
        {
          "internalType": "uint8",
          "name": "maxLength",
          "type": "uint8"
        },
        {
          "internalType": "uint256",
          "name": "actualLength",
          "type": "uint256"
        }
      ],
      "name": "ContractAddressesMaxLengthExceeded",
      "type": "error"
    },
    {
      "inputs": [
        {
          "internalType": "address",
          "name": "contractAddress",
          "type": "address"
        },
        {
          "internalType": "address[]",
          "name": "contractAddresses",
          "type": "address[]"
        }
      ],
      "name": "ContractNotInContractAddresses",
      "type": "error"
    },
    {
      "inputs": [
        {
          "internalType": "address",
          "name": "delegatorAddress",
          "type": "address"
        },
        {
          "internalType": "address[]",
          "name": "contractAddresses",
          "type": "address[]"
        }
      ],
      "name": "DelegatorAddressInContractAddresses",
      "type": "error"
    },
    {
      "inputs": [
        {
          "internalType": "uint256",
          "name": "keyId",
          "type": "uint256"
        }
      ],
      "name": "DifferentKeyIdsNotAllowed",
      "type": "error"
    },
    {
      "inputs": [],
      "name": "ECDSAInvalidSignature",
      "type": "error"
    },
    {
      "inputs": [
        {
          "internalType": "uint256",
          "name": "length",
          "type": "uint256"
        }
      ],
      "name": "ECDSAInvalidSignatureLength",
      "type": "error"
    },
    {
      "inputs": [
        {
          "internalType": "bytes32",
          "name": "s",
          "type": "bytes32"
        }
      ],
      "name": "ECDSAInvalidSignatureS",
      "type": "error"
    },
    {
      "inputs": [
        {
          "internalType": "address",
          "name": "implementation",
          "type": "address"
        }
      ],
      "name": "ERC1967InvalidImplementation",
      "type": "error"
    },
    {
      "inputs": [],
      "name": "ERC1967NonPayable",
      "type": "error"
    },
    {
      "inputs": [],
      "name": "EmptyCtHandleContractPairs",
      "type": "error"
    },
    {
      "inputs": [],
      "name": "EmptyCtHandles",
      "type": "error"
    },
    {
      "inputs": [],
      "name": "FailedCall",
      "type": "error"
    },
    {
      "inputs": [
        {
          "internalType": "uint8",
          "name": "fheTypeUint8",
          "type": "uint8"
        }
      ],
      "name": "InvalidFHEType",
      "type": "error"
    },
    {
      "inputs": [],
      "name": "InvalidInitialization",
      "type": "error"
    },
    {
      "inputs": [],
      "name": "InvalidNullDurationDays",
      "type": "error"
    },
    {
      "inputs": [
        {
          "internalType": "bytes",
          "name": "signature",
          "type": "bytes"
        }
      ],
      "name": "InvalidUserSignature",
      "type": "error"
    },
    {
      "inputs": [
        {
          "internalType": "uint256",
          "name": "publicDecryptionId",
          "type": "uint256"
        },
        {
          "internalType": "address",
          "name": "signer",
          "type": "address"
        }
      ],
      "name": "KmsSignerAlreadyResponded",
      "type": "error"
    },
    {
      "inputs": [
        {
          "internalType": "uint256",
          "name": "maxBitSize",
          "type": "uint256"
        },
        {
          "internalType": "uint256",
          "name": "totalBitSize",
          "type": "uint256"
        }
      ],
      "name": "MaxDecryptionRequestBitSizeExceeded",
      "type": "error"
    },
    {
      "inputs": [
        {
          "internalType": "uint256",
          "name": "maxValue",
          "type": "uint256"
        },
        {
          "internalType": "uint256",
          "name": "actualValue",
          "type": "uint256"
        }
      ],
      "name": "MaxDurationDaysExceeded",
      "type": "error"
    },
    {
      "inputs": [],
      "name": "NotInitializing",
      "type": "error"
    },
    {
      "inputs": [
        {
          "internalType": "address",
          "name": "owner",
          "type": "address"
        }
      ],
      "name": "OwnableInvalidOwner",
      "type": "error"
    },
    {
      "inputs": [
        {
          "internalType": "address",
          "name": "account",
          "type": "address"
        }
      ],
      "name": "OwnableUnauthorizedAccount",
      "type": "error"
    },
    {
      "inputs": [
        {
          "internalType": "uint256",
          "name": "publicDecryptionId",
          "type": "uint256"
        }
      ],
      "name": "PublicDecryptionNotDone",
      "type": "error"
    },
    {
      "inputs": [
        {
          "internalType": "uint256",
          "name": "currentTimestamp",
          "type": "uint256"
        },
        {
          "internalType": "uint256",
          "name": "startTimestamp",
          "type": "uint256"
        }
      ],
      "name": "StartTimestampInFuture",
      "type": "error"
    },
    {
      "inputs": [],
      "name": "UUPSUnauthorizedCallContext",
      "type": "error"
    },
    {
      "inputs": [
        {
          "internalType": "bytes32",
          "name": "slot",
          "type": "bytes32"
        }
      ],
      "name": "UUPSUnsupportedProxiableUUID",
      "type": "error"
    },
    {
      "inputs": [
        {
          "internalType": "enum FheType",
          "name": "fheType",
          "type": "uint8"
        }
      ],
      "name": "UnsupportedFHEType",
      "type": "error"
    },
    {
      "inputs": [
        {
          "internalType": "address",
          "name": "userAddress",
          "type": "address"
        },
        {
          "internalType": "address[]",
          "name": "contractAddresses",
          "type": "address[]"
        }
      ],
      "name": "UserAddressInContractAddresses",
      "type": "error"
    },
    {
      "inputs": [
        {
          "internalType": "uint256",
          "name": "userDecryptionId",
          "type": "uint256"
        }
      ],
      "name": "UserDecryptionNotDone",
      "type": "error"
    },
    {
      "inputs": [
        {
          "internalType": "uint256",
          "name": "currentTimestamp",
          "type": "uint256"
        },
        {
          "components": [
            {
              "internalType": "uint256",
              "name": "startTimestamp",
              "type": "uint256"
            },
            {
              "internalType": "uint256",
              "name": "durationDays",
              "type": "uint256"
            }
          ],
          "internalType": "struct IDecryption.RequestValidity",
          "name": "requestValidity",
          "type": "tuple"
        }
      ],
      "name": "UserDecryptionRequestExpired",
      "type": "error"
    },
    {
      "anonymous": false,
      "inputs": [],
      "name": "EIP712DomainChanged",
      "type": "event"
    },
    {
      "anonymous": false,
      "inputs": [
        {
          "indexed": false,
          "internalType": "uint64",
          "name": "version",
          "type": "uint64"
        }
      ],
      "name": "Initialized",
      "type": "event"
    },
    {
      "anonymous": false,
      "inputs": [
        {
          "indexed": true,
          "internalType": "address",
          "name": "previousOwner",
          "type": "address"
        },
        {
          "indexed": true,
          "internalType": "address",
          "name": "newOwner",
          "type": "address"
        }
      ],
      "name": "OwnershipTransferStarted",
      "type": "event"
    },
    {
      "anonymous": false,
      "inputs": [
        {
          "indexed": true,
          "internalType": "address",
          "name": "previousOwner",
          "type": "address"
        },
        {
          "indexed": true,
          "internalType": "address",
          "name": "newOwner",
          "type": "address"
        }
      ],
      "name": "OwnershipTransferred",
      "type": "event"
    },
    {
      "anonymous": false,
      "inputs": [
        {
          "indexed": true,
          "internalType": "uint256",
          "name": "publicDecryptionId",
          "type": "uint256"
        },
        {
          "components": [
            {
              "internalType": "bytes32",
              "name": "ctHandle",
              "type": "bytes32"
            },
            {
              "internalType": "uint256",
              "name": "keyId",
              "type": "uint256"
            },
            {
              "internalType": "bytes32",
              "name": "snsCiphertextDigest",
              "type": "bytes32"
            },
            {
              "internalType": "address[]",
              "name": "coprocessorTxSenderAddresses",
              "type": "address[]"
            }
          ],
          "indexed": false,
          "internalType": "struct SnsCiphertextMaterial[]",
          "name": "snsCtMaterials",
          "type": "tuple[]"
        }
      ],
      "name": "PublicDecryptionRequest",
      "type": "event"
    },
    {
      "anonymous": false,
      "inputs": [
        {
          "indexed": true,
          "internalType": "uint256",
          "name": "publicDecryptionId",
          "type": "uint256"
        },
        {
          "indexed": false,
          "internalType": "bytes",
          "name": "decryptedResult",
          "type": "bytes"
        },
        {
          "indexed": false,
          "internalType": "bytes[]",
          "name": "signatures",
          "type": "bytes[]"
        }
      ],
      "name": "PublicDecryptionResponse",
      "type": "event"
    },
    {
      "anonymous": false,
      "inputs": [
        {
          "indexed": true,
          "internalType": "address",
          "name": "implementation",
          "type": "address"
        }
      ],
      "name": "Upgraded",
      "type": "event"
    },
    {
      "anonymous": false,
      "inputs": [
        {
          "indexed": true,
          "internalType": "uint256",
          "name": "userDecryptionId",
          "type": "uint256"
        },
        {
          "components": [
            {
              "internalType": "bytes32",
              "name": "ctHandle",
              "type": "bytes32"
            },
            {
              "internalType": "uint256",
              "name": "keyId",
              "type": "uint256"
            },
            {
              "internalType": "bytes32",
              "name": "snsCiphertextDigest",
              "type": "bytes32"
            },
            {
              "internalType": "address[]",
              "name": "coprocessorTxSenderAddresses",
              "type": "address[]"
            }
          ],
          "indexed": false,
          "internalType": "struct SnsCiphertextMaterial[]",
          "name": "snsCtMaterials",
          "type": "tuple[]"
        },
        {
          "indexed": false,
          "internalType": "address",
          "name": "userAddress",
          "type": "address"
        },
        {
          "indexed": false,
          "internalType": "bytes",
          "name": "publicKey",
          "type": "bytes"
        }
      ],
      "name": "UserDecryptionRequest",
      "type": "event"
    },
    {
      "anonymous": false,
      "inputs": [
        {
          "indexed": true,
          "internalType": "uint256",
          "name": "userDecryptionId",
          "type": "uint256"
        },
        {
          "indexed": false,
          "internalType": "bytes[]",
          "name": "reencryptedShares",
          "type": "bytes[]"
        },
        {
          "indexed": false,
          "internalType": "bytes[]",
          "name": "signatures",
          "type": "bytes[]"
        }
      ],
      "name": "UserDecryptionResponse",
      "type": "event"
    },
    {
      "inputs": [],
      "name": "EIP712_DELEGATED_USER_DECRYPT_REQUEST_TYPE",
      "outputs": [
        {
          "internalType": "string",
          "name": "",
          "type": "string"
        }
      ],
      "stateMutability": "view",
      "type": "function"
    },
    {
      "inputs": [],
      "name": "EIP712_DELEGATED_USER_DECRYPT_REQUEST_TYPE_HASH",
      "outputs": [
        {
          "internalType": "bytes32",
          "name": "",
          "type": "bytes32"
        }
      ],
      "stateMutability": "view",
      "type": "function"
    },
    {
      "inputs": [],
      "name": "EIP712_PUBLIC_DECRYPT_TYPE",
      "outputs": [
        {
          "internalType": "string",
          "name": "",
          "type": "string"
        }
      ],
      "stateMutability": "view",
      "type": "function"
    },
    {
      "inputs": [],
      "name": "EIP712_PUBLIC_DECRYPT_TYPE_HASH",
      "outputs": [
        {
          "internalType": "bytes32",
          "name": "",
          "type": "bytes32"
        }
      ],
      "stateMutability": "view",
      "type": "function"
    },
    {
      "inputs": [],
      "name": "EIP712_USER_DECRYPT_REQUEST_TYPE",
      "outputs": [
        {
          "internalType": "string",
          "name": "",
          "type": "string"
        }
      ],
      "stateMutability": "view",
      "type": "function"
    },
    {
      "inputs": [],
      "name": "EIP712_USER_DECRYPT_REQUEST_TYPE_HASH",
      "outputs": [
        {
          "internalType": "bytes32",
          "name": "",
          "type": "bytes32"
        }
      ],
      "stateMutability": "view",
      "type": "function"
    },
    {
      "inputs": [],
      "name": "EIP712_USER_DECRYPT_RESPONSE_TYPE",
      "outputs": [
        {
          "internalType": "string",
          "name": "",
          "type": "string"
        }
      ],
      "stateMutability": "view",
      "type": "function"
    },
    {
      "inputs": [],
      "name": "EIP712_USER_DECRYPT_RESPONSE_TYPE_HASH",
      "outputs": [
        {
          "internalType": "bytes32",
          "name": "",
          "type": "bytes32"
        }
      ],
      "stateMutability": "view",
      "type": "function"
    },
    {
      "inputs": [],
      "name": "UPGRADE_INTERFACE_VERSION",
      "outputs": [
        {
          "internalType": "string",
          "name": "",
          "type": "string"
        }
      ],
      "stateMutability": "view",
      "type": "function"
    },
    {
      "inputs": [],
      "name": "acceptOwnership",
      "outputs": [],
      "stateMutability": "nonpayable",
      "type": "function"
    },
    {
      "inputs": [
        {
          "internalType": "uint256",
          "name": "contractsChainId",
          "type": "uint256"
        },
        {
          "components": [
            {
              "internalType": "address",
              "name": "delegatorAddress",
              "type": "address"
            },
            {
              "internalType": "address",
              "name": "delegatedAddress",
              "type": "address"
            }
          ],
          "internalType": "struct DelegationAccounts",
          "name": "delegationAccounts",
          "type": "tuple"
        },
        {
          "components": [
            {
              "internalType": "bytes32",
              "name": "ctHandle",
              "type": "bytes32"
            },
            {
              "internalType": "address",
              "name": "contractAddress",
              "type": "address"
            }
          ],
          "internalType": "struct CtHandleContractPair[]",
          "name": "ctHandleContractPairs",
          "type": "tuple[]"
        },
        {
          "internalType": "address[]",
          "name": "contractAddresses",
          "type": "address[]"
        }
      ],
      "name": "checkDelegatedUserDecryptionReady",
      "outputs": [],
      "stateMutability": "view",
      "type": "function"
    },
    {
      "inputs": [
        {
          "internalType": "uint256",
          "name": "publicDecryptionId",
          "type": "uint256"
        }
      ],
      "name": "checkPublicDecryptionDone",
      "outputs": [],
      "stateMutability": "view",
      "type": "function"
    },
    {
      "inputs": [
        {
          "internalType": "bytes32[]",
          "name": "ctHandles",
          "type": "bytes32[]"
        }
      ],
      "name": "checkPublicDecryptionReady",
      "outputs": [],
      "stateMutability": "view",
      "type": "function"
    },
    {
      "inputs": [
        {
          "internalType": "uint256",
          "name": "userDecryptionId",
          "type": "uint256"
        }
      ],
      "name": "checkUserDecryptionDone",
      "outputs": [],
      "stateMutability": "view",
      "type": "function"
    },
    {
      "inputs": [
        {
          "internalType": "address",
          "name": "userAddress",
          "type": "address"
        },
        {
          "components": [
            {
              "internalType": "bytes32",
              "name": "ctHandle",
              "type": "bytes32"
            },
            {
              "internalType": "address",
              "name": "contractAddress",
              "type": "address"
            }
          ],
          "internalType": "struct CtHandleContractPair[]",
          "name": "ctHandleContractPairs",
          "type": "tuple[]"
        }
      ],
      "name": "checkUserDecryptionReady",
      "outputs": [],
      "stateMutability": "view",
      "type": "function"
    },
    {
      "inputs": [
        {
          "components": [
            {
              "internalType": "bytes32",
              "name": "ctHandle",
              "type": "bytes32"
            },
            {
              "internalType": "address",
              "name": "contractAddress",
              "type": "address"
            }
          ],
          "internalType": "struct CtHandleContractPair[]",
          "name": "ctHandleContractPairs",
          "type": "tuple[]"
        },
        {
          "components": [
            {
              "internalType": "uint256",
              "name": "startTimestamp",
              "type": "uint256"
            },
            {
              "internalType": "uint256",
              "name": "durationDays",
              "type": "uint256"
            }
          ],
          "internalType": "struct IDecryption.RequestValidity",
          "name": "requestValidity",
          "type": "tuple"
        },
        {
          "components": [
            {
              "internalType": "address",
              "name": "delegatorAddress",
              "type": "address"
            },
            {
              "internalType": "address",
              "name": "delegatedAddress",
              "type": "address"
            }
          ],
          "internalType": "struct DelegationAccounts",
          "name": "delegationAccounts",
          "type": "tuple"
        },
        {
          "internalType": "uint256",
          "name": "contractsChainId",
          "type": "uint256"
        },
        {
          "internalType": "address[]",
          "name": "contractAddresses",
          "type": "address[]"
        },
        {
          "internalType": "bytes",
          "name": "publicKey",
          "type": "bytes"
        },
        {
          "internalType": "bytes",
          "name": "signature",
          "type": "bytes"
        }
      ],
      "name": "delegatedUserDecryptionRequest",
      "outputs": [],
      "stateMutability": "nonpayable",
      "type": "function"
    },
    {
      "inputs": [],
      "name": "eip712Domain",
      "outputs": [
        {
          "internalType": "bytes1",
          "name": "fields",
          "type": "bytes1"
        },
        {
          "internalType": "string",
          "name": "name",
          "type": "string"
        },
        {
          "internalType": "string",
          "name": "version",
          "type": "string"
        },
        {
          "internalType": "uint256",
          "name": "chainId",
          "type": "uint256"
        },
        {
          "internalType": "address",
          "name": "verifyingContract",
          "type": "address"
        },
        {
          "internalType": "bytes32",
          "name": "salt",
          "type": "bytes32"
        },
        {
          "internalType": "uint256[]",
          "name": "extensions",
          "type": "uint256[]"
        }
      ],
      "stateMutability": "view",
      "type": "function"
    },
    {
      "inputs": [],
      "name": "getVersion",
      "outputs": [
        {
          "internalType": "string",
          "name": "",
          "type": "string"
        }
      ],
      "stateMutability": "pure",
      "type": "function"
    },
    {
      "inputs": [],
      "name": "initialize",
      "outputs": [],
      "stateMutability": "nonpayable",
      "type": "function"
    },
    {
      "inputs": [],
      "name": "owner",
      "outputs": [
        {
          "internalType": "address",
          "name": "",
          "type": "address"
        }
      ],
      "stateMutability": "view",
      "type": "function"
    },
    {
      "inputs": [],
      "name": "pendingOwner",
      "outputs": [
        {
          "internalType": "address",
          "name": "",
          "type": "address"
        }
      ],
      "stateMutability": "view",
      "type": "function"
    },
    {
      "inputs": [],
      "name": "proxiableUUID",
      "outputs": [
        {
          "internalType": "bytes32",
          "name": "",
          "type": "bytes32"
        }
      ],
      "stateMutability": "view",
      "type": "function"
    },
    {
      "inputs": [
        {
          "internalType": "bytes32[]",
          "name": "ctHandles",
          "type": "bytes32[]"
        }
      ],
      "name": "publicDecryptionRequest",
      "outputs": [],
      "stateMutability": "nonpayable",
      "type": "function"
    },
    {
      "inputs": [
        {
          "internalType": "uint256",
          "name": "publicDecryptionId",
          "type": "uint256"
        },
        {
          "internalType": "bytes",
          "name": "decryptedResult",
          "type": "bytes"
        },
        {
          "internalType": "bytes",
          "name": "signature",
          "type": "bytes"
        }
      ],
      "name": "publicDecryptionResponse",
      "outputs": [],
      "stateMutability": "nonpayable",
      "type": "function"
    },
    {
      "inputs": [],
      "name": "renounceOwnership",
      "outputs": [],
      "stateMutability": "nonpayable",
      "type": "function"
    },
    {
      "inputs": [
        {
          "internalType": "address",
          "name": "newOwner",
          "type": "address"
        }
      ],
      "name": "transferOwnership",
      "outputs": [],
      "stateMutability": "nonpayable",
      "type": "function"
    },
    {
      "inputs": [
        {
          "internalType": "address",
          "name": "newImplementation",
          "type": "address"
        },
        {
          "internalType": "bytes",
          "name": "data",
          "type": "bytes"
        }
      ],
      "name": "upgradeToAndCall",
      "outputs": [],
      "stateMutability": "payable",
      "type": "function"
    },
    {
      "inputs": [
        {
          "components": [
            {
              "internalType": "bytes32",
              "name": "ctHandle",
              "type": "bytes32"
            },
            {
              "internalType": "address",
              "name": "contractAddress",
              "type": "address"
            }
          ],
          "internalType": "struct CtHandleContractPair[]",
          "name": "ctHandleContractPairs",
          "type": "tuple[]"
        },
        {
          "components": [
            {
              "internalType": "uint256",
              "name": "startTimestamp",
              "type": "uint256"
            },
            {
              "internalType": "uint256",
              "name": "durationDays",
              "type": "uint256"
            }
          ],
          "internalType": "struct IDecryption.RequestValidity",
          "name": "requestValidity",
          "type": "tuple"
        },
        {
          "internalType": "uint256",
          "name": "contractsChainId",
          "type": "uint256"
        },
        {
          "internalType": "address[]",
          "name": "contractAddresses",
          "type": "address[]"
        },
        {
          "internalType": "address",
          "name": "userAddress",
          "type": "address"
        },
        {
          "internalType": "bytes",
          "name": "publicKey",
          "type": "bytes"
        },
        {
          "internalType": "bytes",
          "name": "signature",
          "type": "bytes"
        }
      ],
      "name": "userDecryptionRequest",
      "outputs": [],
      "stateMutability": "nonpayable",
      "type": "function"
    },
    {
      "inputs": [
        {
          "internalType": "uint256",
          "name": "userDecryptionId",
          "type": "uint256"
        },
        {
          "internalType": "bytes",
          "name": "reencryptedShare",
          "type": "bytes"
        },
        {
          "internalType": "bytes",
          "name": "signature",
          "type": "bytes"
        }
      ],
      "name": "userDecryptionResponse",
      "outputs": [],
      "stateMutability": "nonpayable",
      "type": "function"
    }
  ],
  "bytecode": "0x60a06040523060805234801562000014575f80fd5b506200001f62000025565b620000d9565b7ff0c57e16840df040f15088dc2f81fe391c3923bec73e23a9662efc9c229c6a00805468010000000000000000900460ff1615620000765760405163f92ee8a960e01b815260040160405180910390fd5b80546001600160401b0390811614620000d65780546001600160401b0319166001600160401b0390811782556040519081527fc7f505b2f371ae2175ee4913f4499e1f2633a7b5936321eed1cdaeb6115181d29060200160405180910390a15b50565b6080516148ea620001005f395f818161220c01528181612235015261239a01526148ea5ff3fe6080604052600436106101b9575f3560e01c806379ba5097116100f2578063ab7325dd11610092578063e3342f1611610062578063e3342f1614610498578063e4c33a3d146104ac578063f11d0638146104c0578063f2fde38b146104df575f80fd5b8063ab7325dd14610409578063ad3cb1cc1461041d578063b9bfe0a814610465578063e30c397814610484575f80fd5b806384b0196e116100cd57806384b0196e146103785780638da5cb5b1461039f578063987c8fce146103cb578063aa39a356146103ea575f80fd5b806379ba5097146103315780638129fc1c146103455780638316001f14610359575f80fd5b8063422f2aef1161015d578063578d967111610138578063578d9671146102d65780636cde9579146102ea578063715018a6146102fe578063760a041914610312575f80fd5b8063422f2aef146102905780634f1ef286146102af57806352d1902d146102c2575f80fd5b8063187fe52911610198578063187fe529146102275780632538a7e1146102465780632eafb7db1461026857806330a988aa1461027c575f80fd5b80628bc3e1146101bd57806302fd1a64146101de5780630d8e6e2c146101fd575b5f80fd5b3480156101c8575f80fd5b506101dc6101d7366004613786565b6104fe565b005b3480156101e9575f80fd5b506101dc6101f8366004613815565b6106ef565b348015610208575f80fd5b506102116108e3565b60405161021e91906138d6565b60405180910390f35b348015610232575f80fd5b506101dc610241366004613929565b61094b565b348015610251575f80fd5b5061025a610ace565b60405190815260200161021e565b348015610273575f80fd5b50610211610af1565b348015610287575f80fd5b50610211610b0d565b34801561029b575f80fd5b506101dc6102aa366004613968565b610b29565b6101dc6102bd3660046139ed565b610b91565b3480156102cd575f80fd5b5061025a610bac565b3480156102e1575f80fd5b5061025a610bda565b3480156102f5575f80fd5b50610211610bfd565b348015610309575f80fd5b506101dc610c19565b34801561031d575f80fd5b506101dc61032c366004613aa5565b610c2c565b34801561033c575f80fd5b506101dc61101a565b348015610350575f80fd5b506101dc611062565b348015610364575f80fd5b506101dc610373366004613b92565b611199565b348015610383575f80fd5b5061038c611499565b60405161021e9796959493929190613c64565b3480156103aa575f80fd5b506103b361155d565b6040516001600160a01b03909116815260200161021e565b3480156103d6575f80fd5b506101dc6103e5366004613968565b611591565b3480156103f5575f80fd5b506101dc610404366004613929565b6115f0565b348015610414575f80fd5b5061025a61170e565b348015610428575f80fd5b506102116040518060400160405280600581526020017f352e302e3000000000000000000000000000000000000000000000000000000081525081565b348015610470575f80fd5b506101dc61047f366004613815565b611731565b34801561048f575f80fd5b506103b3611a19565b3480156104a3575f80fd5b50610211611a41565b3480156104b7575f80fd5b5061025a611a5d565b3480156104cb575f80fd5b506101dc6104da366004613cfb565b611a80565b3480156104ea575f80fd5b506101dc6104f9366004613d80565b611ced565b5f5b818110156106e95773a50f5243c70c80a8309e3d39d8c9d958cda83979633bce498d84848481811061053457610534613d9b565b604080516001600160e01b031960e087901b168152910292909201356004830152506001600160a01b03871660248201526044015f6040518083038186803b15801561057e575f80fd5b505afa158015610590573d5f803e3d5ffd5b5050505073a50f5243c70c80a8309e3d39d8c9d958cda839796001600160a01b0316633bce498d8484848181106105c9576105c9613d9b565b9050604002015f01358585858181106105e4576105e4613d9b565b90506040020160200160208101906105fc9190613d80565b6040516001600160e01b031960e085901b16815260048101929092526001600160a01b031660248201526044015f6040518083038186803b15801561063f575f80fd5b505afa158015610651573d5f803e3d5ffd5b5050505073d582ec82a1758322907df80da8a754e12a5acb956001600160a01b031663d4476f6384848481811061068a5761068a613d9b565b9050604002015f01356040518263ffffffff1660e01b81526004016106b191815260200190565b5f6040518083038186803b1580156106c7575f80fd5b505afa1580156106d9573d5f803e3d5ffd5b5050600190920191506105009050565b50505050565b6040516318c4ea4b60e31b815233600482015273c7d45661a345ec5ca0e8521cfef7e32fda0daa689063c6275258906024015f6040518083038186803b158015610737575f80fd5b505afa158015610749573d5f803e3d5ffd5b505050505f6107625f8051602061486383398151915290565b604080515f8981526004840160209081528382208054606092810285018301865294840185815295965091949293849392918401828280156107c157602002820191905f5260205f20905b8154815260200190600101908083116107ad575b5050505050815260200187878080601f0160208091040260200160405190810160405280939291908181526020018383808284375f92018290525093909452509293509150610811905082611d72565b905061081f88828787611e0e565b5f88815260038401602090815260408083208484528252822080546001810182558184529190922001610853868883613e2c565b505f89815260058501602052604090205460ff1615801561087a5750805461087a90611f57565b156108d8575f89815260058501602052604090819020805460ff191660011790555189907f61568d6eb48e62870afffd55499206a54a8f78b04a627e00ed097161fc05d6be906108cf908b908b908690613fcf565b60405180910390a25b505050505050505050565b60606040518060400160405280600a8152602001692232b1b93cb83a34b7b760b11b8152506109115f611fd7565b61091b6001611fd7565b6109245f611fd7565b6040516020016109379493929190613ffe565b604051602081830303815290604052905090565b5f81900361096c576040516305bcea8760e31b815260040160405180910390fd5b6109a78282808060200260200160405190810160405280939291908181526020018383602002808284375f9201919091525061207492505050565b60405163a14f897160e01b81525f9073d582ec82a1758322907df80da8a754e12a5acb959063a14f8971906109e2908690869060040161407b565b5f60405180830381865afa1580156109fc573d5f803e3d5ffd5b505050506040513d5f823e601f3d908101601f19168201604052610a2391908101906140ee565b9050610a2e8161215f565b7f68113e68af494c6efd0210fc4bf9ba748d1ffadaa4718217fdf63548c4aee70180545f80516020614863833981519152915f610a6a8361425e565b909155505060018101545f8181526004830160205260409020610a8e908686613689565b50807f17c632196fbf6b96d9675971058d3701733094c3f2f1dcb9ba7d2a08bee0aafb84604051610abf9190614339565b60405180910390a25050505050565b6040518060800160405280605b8152602001614883605b91398051906020012081565b60405180608001604052806044815260200161478f6044913981565b6040518060c00160405280609081526020016147d36090913981565b5f8181527f68113e68af494c6efd0210fc4bf9ba748d1ffadaa4718217fdf63548c4aee70a60205260409020545f805160206148638339815191529060ff16610b8d5760405163705c3ba960e01b8152600481018390526024015b60405180910390fd5b5050565b610b99612201565b610ba2826122b8565b610b8d82826122c0565b5f610bb561238f565b507f360894a13ba1a3210667c828492db98dca3e2076cc3735a920a3ca505d382bbc90565b6040518060e0016040528060b281526020016146dd60b291398051906020012081565b6040518060e0016040528060b281526020016146dd60b2913981565b610c216123d8565b610c2a5f61240a565b565b600a851115610c58576040516362d5a33f60e11b8152600a600482015260248101869052604401610b84565b610c6f610c6a368b90038b018b61434b565b612442565b610cb78686808060200260200160405190810160405280939291908181526020018383602002808284375f92019190915250610cb29250505060208b018b613d80565b61251d565b15610ce757610cc96020890189613d80565b868660405163c3446ac760e01b8152600401610b84939291906143d4565b5f610d328c8c8989808060200260200160405190810160405280939291908181526020018383602002808284375f92019190915250610d2d9250505060208e018e613d80565b612576565b6040516328e20e8760e11b815290915073a50f5243c70c80a8309e3d39d8c9d958cda83979906351c41d0e90610d72908b908d908c908c906004016143f6565b5f6040518083038186803b158015610d88575f80fd5b505afa158015610d9a573d5f803e3d5ffd5b505050505f6040518060c0016040528087878080601f0160208091040260200160405190810160405280939291908181526020018383808284375f920191909152505050908252506040805160208b810282810182019093528b82529283019290918c918c9182918501908490808284375f92019190915250505090825250602090810190610e2b908d018d613d80565b6001600160a01b031681526020018a81526020018c5f013581526020018c602001358152509050610e70818b6020016020810190610e699190613d80565b86866127c2565b60405163a14f897160e01b81525f9073d582ec82a1758322907df80da8a754e12a5acb959063a14f897190610ea9908690600401614441565b5f60405180830381865afa158015610ec3573d5f803e3d5ffd5b505050506040513d5f823e601f3d908101601f19168201604052610eea91908101906140ee565b9050610ef58161215f565b7f68113e68af494c6efd0210fc4bf9ba748d1ffadaa4718217fdf63548c4aee70680545f80516020614863833981519152915f610f318361425e565b909155505060068101546040805160606020601f8c01819004028201810183529181018a815290918291908c908c90819085018382808284375f9201829052509385525050506020918201889052838152600985019091526040902081518190610f9b9082614484565b506020828101518051610fb492600185019201906136d2565b50905050807f1c3dcad6311be6d58dc4d4b9f1bc1625eb18d72de969db75e11a88ef3527d2f3848f6020016020810190610fee9190613d80565b8c8c6040516110009493929190614540565b60405180910390a250505050505050505050505050505050565b3380611024611a19565b6001600160a01b0316146110565760405163118cdaa760e01b81526001600160a01b0382166004820152602401610b84565b61105f8161240a565b50565b7ff0c57e16840df040f15088dc2f81fe391c3923bec73e23a9662efc9c229c6a0080546002919068010000000000000000900460ff16806110b15750805467ffffffffffffffff808416911610155b156110cf5760405163f92ee8a960e01b815260040160405180910390fd5b805468ffffffffffffffffff191667ffffffffffffffff83161768010000000000000000178155604080518082018252600a8152692232b1b93cb83a34b7b760b11b602080830191909152825180840190935260018352603160f81b908301526111389161284e565b61114861114361155d565b612860565b805468ff00000000000000001916815560405167ffffffffffffffff831681527fc7f505b2f371ae2175ee4913f4499e1f2633a7b5936321eed1cdaeb6115181d29060200160405180910390a15050565b600a8611156111c5576040516362d5a33f60e11b8152600a600482015260248101879052604401610b84565b6111d7610c6a368b90038b018b61434b565b6112148787808060200260200160405190810160405280939291908181526020018383602002808284375f9201919091525089925061251d915050565b156112385784878760405163dc4d78b160e01b8152600401610b84939291906143d4565b5f6112788c8c8a8a808060200260200160405190810160405280939291908181526020018383602002808284375f920191909152508c9250612576915050565b90505f6040518060a0016040528087878080601f0160208091040260200160405190810160405280939291908181526020018383808284375f920191909152505050908252506040805160208c810282810182019093528c82529283019290918d918d9182918501908490808284375f9201919091525050509082525060208082018d90528d3560408301528d0135606090910152905061131b81888686612871565b60405163a14f897160e01b81525f9073d582ec82a1758322907df80da8a754e12a5acb959063a14f897190611354908690600401614441565b5f60405180830381865afa15801561136e573d5f803e3d5ffd5b505050506040513d5f823e601f3d908101601f1916820160405261139591908101906140ee565b90506113a08161215f565b7f68113e68af494c6efd0210fc4bf9ba748d1ffadaa4718217fdf63548c4aee70680545f80516020614863833981519152915f6113dc8361425e565b909155505060068101546040805160606020601f8c01819004028201810183529181018a815290918291908c908c90819085018382808284375f92018290525093855250505060209182018890528381526009850190915260409020815181906114469082614484565b50602082810151805161145f92600185019201906136d2565b50905050807f1c3dcad6311be6d58dc4d4b9f1bc1625eb18d72de969db75e11a88ef3527d2f3848c8c8c6040516110009493929190614540565b5f60608082808083817fa16a46d94261c7517cc8ff89f61c0ce93598e3c849801011dee649a6a557d10080549091501580156114d757506001810154155b6115235760405162461bcd60e51b815260206004820152601560248201527f4549503731323a20556e696e697469616c697a656400000000000000000000006044820152606401610b84565b61152b61287b565b61153361294e565b604080515f80825260208201909252600f60f81b9c939b5091995046985030975095509350915050565b5f807f9016d09d72d40fdae2fd8ceac6b6234c7706214fd39c1cd1e609a0528c1993005b546001600160a01b031692915050565b5f8181527f68113e68af494c6efd0210fc4bf9ba748d1ffadaa4718217fdf63548c4aee70560205260409020545f805160206148638339815191529060ff16610b8d5760405163087043bb60e01b815260048101839052602401610b84565b5f5b818110156117095773a50f5243c70c80a8309e3d39d8c9d958cda8397963193f3f2c84848481811061162657611626613d9b565b905060200201356040518263ffffffff1660e01b815260040161164b91815260200190565b5f6040518083038186803b158015611661575f80fd5b505afa158015611673573d5f803e3d5ffd5b5050505073d582ec82a1758322907df80da8a754e12a5acb956001600160a01b031663d4476f638484848181106116ac576116ac613d9b565b905060200201356040518263ffffffff1660e01b81526004016116d191815260200190565b5f6040518083038186803b1580156116e7575f80fd5b505afa1580156116f9573d5f803e3d5ffd5b5050600190920191506115f29050565b505050565b60405180608001604052806044815260200161478f604491398051906020012081565b6040516318c4ea4b60e31b815233600482015273c7d45661a345ec5ca0e8521cfef7e32fda0daa689063c6275258906024015f6040518083038186803b158015611779575f80fd5b505afa15801561178b573d5f803e3d5ffd5b505050505f6117a45f8051602061486383398151915290565b90505f816009015f8881526020019081526020015f206040518060400160405290815f820180546117d490613daf565b80601f016020809104026020016040519081016040528092919081815260200182805461180090613daf565b801561184b5780601f106118225761010080835404028352916020019161184b565b820191905f5260205f20905b81548152906001019060200180831161182e57829003601f168201915b50505050508152602001600182018054806020026020016040519081016040528092919081815260200182805480156118a157602002820191905f5260205f20905b81548152602001906001019080831161188d575b50505050508152505090505f6040518060600160405280835f015181526020018360200151815260200188888080601f0160208091040260200160405190810160405280939291908181526020018383808284375f9201829052509390945250929350915061191190508261299f565b905061191f89828888612a29565b5f89815260088501602090815260408083208484528252822080546001810182558184529190922001611953878983613e2c565b505f8a8152600b8601602090815260408220805460018101825590835291200161197e898b83613e2c565b505f8a8152600a8601602052604090205460ff161580156119a5575080546119a590612b72565b15611a0d575f8a8152600a860160209081526040808320805460ff19166001179055600b88019091529081902090518b917f7312dec4cead0d5d3da836cdbaed1eb6a81e218c519c8740da4ac75afcb6c5c791611a049190859061457f565b60405180910390a25b50505050505050505050565b5f807f237e158222e3e6968b72b9db0d8043aacf074ad9f650f0d1606b4d82ee432c00611581565b6040518060800160405280605b8152602001614883605b913981565b6040518060c00160405280609081526020016147d3609091398051906020012081565b6040516328e20e8760e11b815273a50f5243c70c80a8309e3d39d8c9d958cda83979906351c41d0e90611abd9089908990879087906004016143f6565b5f6040518083038186803b158015611ad3575f80fd5b505afa158015611ae5573d5f803e3d5ffd5b505050505f5b83811015611ce45773a50f5243c70c80a8309e3d39d8c9d958cda83979633bce498d868684818110611b1f57611b1f613d9b565b60400291909101359050611b3660208a018a613d80565b6040516001600160e01b031960e085901b16815260048101929092526001600160a01b031660248201526044015f6040518083038186803b158015611b79575f80fd5b505afa158015611b8b573d5f803e3d5ffd5b5050505073a50f5243c70c80a8309e3d39d8c9d958cda839796001600160a01b0316633bce498d868684818110611bc457611bc4613d9b565b9050604002015f0135878785818110611bdf57611bdf613d9b565b9050604002016020016020810190611bf79190613d80565b6040516001600160e01b031960e085901b16815260048101929092526001600160a01b031660248201526044015f6040518083038186803b158015611c3a575f80fd5b505afa158015611c4c573d5f803e3d5ffd5b5050505073d582ec82a1758322907df80da8a754e12a5acb956001600160a01b031663d4476f63868684818110611c8557611c85613d9b565b9050604002015f01356040518263ffffffff1660e01b8152600401611cac91815260200190565b5f6040518083038186803b158015611cc2575f80fd5b505afa158015611cd4573d5f803e3d5ffd5b505060019092019150611aeb9050565b50505050505050565b611cf56123d8565b7f237e158222e3e6968b72b9db0d8043aacf074ad9f650f0d1606b4d82ee432c0080546001600160a01b0319166001600160a01b0383169081178255611d3961155d565b6001600160a01b03167f38d16b8cac22d99fc7c124b9cd0de2d3fa1faef420bfe791d8c362d765e2270060405160405180910390a35050565b5f611e0860405180608001604052806044815260200161478f60449139805160209182012084516040519192611da892016145a3565b60405160208183030381529060405280519060200120846020015180519060200120604051602001611ded939291909283526020830191909152604082015260600190565b60405160208183030381529060405280519060200120612bc4565b92915050565b5f5f8051602061486383398151915290505f611e5f8585858080601f0160208091040260200160405190810160405280939291908181526020018383808284375f92019190915250612bf092505050565b604051636c88eb4360e01b81526001600160a01b038216600482015290915073c7d45661a345ec5ca0e8521cfef7e32fda0daa6890636c88eb43906024015f6040518083038186803b158015611eb3575f80fd5b505afa158015611ec5573d5f803e3d5ffd5b5050505f87815260028401602090815260408083206001600160a01b038616845290915290205460ff16159050611f215760405163a1714c7760e01b8152600481018790526001600160a01b0382166024820152604401610b84565b5f9586526002909101602090815260408087206001600160a01b039093168752919052909320805460ff19166001179055505050565b5f8073c7d45661a345ec5ca0e8521cfef7e32fda0daa686001600160a01b03166347cd4b3e6040518163ffffffff1660e01b8152600401602060405180830381865afa158015611fa9573d5f803e3d5ffd5b505050506040513d601f19601f82011682018060405250810190611fcd91906145d8565b9092101592915050565b60605f611fe383612c18565b60010190505f8167ffffffffffffffff8111156120025761200261397f565b6040519080825280601f01601f19166020018201604052801561202c576020820181803683370190505b5090508181016020015b5f19017f3031323334353637383961626364656600000000000000000000000000000000600a86061a8153600a850494508461203657509392505050565b5f805b8251811015612130575f83828151811061209357612093613d9b565b602002602001015190505f6120a782612cf9565b90506120b281612d45565b6120c09061ffff16856145ef565b60405163064fcfcb60e21b81526004810184905290945073a50f5243c70c80a8309e3d39d8c9d958cda839799063193f3f2c906024015f6040518083038186803b15801561210c575f80fd5b505afa15801561211e573d5f803e3d5ffd5b50506001909401935061207792505050565b50610800811115610b8d5760405163e7f4895d60e01b8152610800600482015260248101829052604401610b84565b600181511161216b5750565b5f815f8151811061217e5761217e613d9b565b60200260200101516020015190505f600190505b825181101561170957818382815181106121ae576121ae613d9b565b602002602001015160200151146121f9578281815181106121d1576121d1613d9b565b60200260200101516020015160405163f90bc7f560e01b8152600401610b8491815260200190565b600101612192565b306001600160a01b037f000000000000000000000000000000000000000000000000000000000000000016148061229a57507f00000000000000000000000000000000000000000000000000000000000000006001600160a01b031661228e7f360894a13ba1a3210667c828492db98dca3e2076cc3735a920a3ca505d382bbc546001600160a01b031690565b6001600160a01b031614155b15610c2a5760405163703e46dd60e11b815260040160405180910390fd5b61105f6123d8565b816001600160a01b03166352d1902d6040518163ffffffff1660e01b8152600401602060405180830381865afa92505050801561231a575060408051601f3d908101601f19168201909252612317918101906145d8565b60015b61234257604051634c9c8ce360e01b81526001600160a01b0383166004820152602401610b84565b7f360894a13ba1a3210667c828492db98dca3e2076cc3735a920a3ca505d382bbc811461238557604051632a87526960e21b815260048101829052602401610b84565b6117098383612ed4565b306001600160a01b037f00000000000000000000000000000000000000000000000000000000000000001614610c2a5760405163703e46dd60e11b815260040160405180910390fd5b336123e161155d565b6001600160a01b031614610c2a5760405163118cdaa760e01b8152336004820152602401610b84565b7f237e158222e3e6968b72b9db0d8043aacf074ad9f650f0d1606b4d82ee432c0080546001600160a01b0319168155610b8d82612f29565b80602001515f036124665760405163de2859c160e01b815260040160405180910390fd5b602081015161016d101561249e576020810151604051633295186360e01b815261016d60048201526024810191909152604401610b84565b80514210156124cc57805160405163f24c088760e01b81524260048201526024810191909152604401610b84565b428160200151620151806124e09190614602565b82516124ec91906145ef565b101561105f5760405162c0d20160e61b81524260048201528151602482015260208201516044820152606401610b84565b5f805b835181101561256d57826001600160a01b031684828151811061254557612545613d9b565b60200260200101516001600160a01b031603612565576001915050611e08565b600101612520565b505f9392505050565b60605f8490036125995760405163a6a6cb2160e01b815260040160405180910390fd5b8367ffffffffffffffff8111156125b2576125b261397f565b6040519080825280602002602001820160405280156125db578160200160208202803683370190505b5090505f805b8581101561278a575f8787838181106125fc576125fc613d9b565b9050604002015f013590505f88888481811061261a5761261a613d9b565b90506040020160200160208101906126329190613d80565b90505f61263e83612cf9565b905061264981612d45565b6126579061ffff16866145ef565b604051633bce498d60e01b8152600481018590526001600160a01b038916602482015290955073a50f5243c70c80a8309e3d39d8c9d958cda8397990633bce498d906044015f6040518083038186803b1580156126b2575f80fd5b505afa1580156126c4573d5f803e3d5ffd5b5050604051633bce498d60e01b8152600481018690526001600160a01b038516602482015273a50f5243c70c80a8309e3d39d8c9d958cda839799250633bce498d91506044015f6040518083038186803b158015612720575f80fd5b505afa158015612732573d5f803e3d5ffd5b50505050612740888361251d565b61276157818860405163a4c3039160e01b8152600401610b84929190614619565b8286858151811061277457612774613d9b565b60209081029190910101525050506001016125e1565b506108008111156127b95760405163e7f4895d60e01b8152610800600482015260248101829052604401610b84565b50949350505050565b5f6127cc85612f99565b90505f61280e8285858080601f0160208091040260200160405190810160405280939291908181526020018383808284375f92019190915250612bf092505050565b9050846001600160a01b0316816001600160a01b031614612846578383604051632a873d2760e01b8152600401610b84929190614642565b505050505050565b612856613051565b610b8d828261309f565b612868613051565b61105f81613111565b5f6127cc85613142565b7fa16a46d94261c7517cc8ff89f61c0ce93598e3c849801011dee649a6a557d10280546060917fa16a46d94261c7517cc8ff89f61c0ce93598e3c849801011dee649a6a557d100916128cc90613daf565b80601f01602080910402602001604051908101604052809291908181526020018280546128f890613daf565b80156129435780601f1061291a57610100808354040283529160200191612943565b820191905f5260205f20905b81548152906001019060200180831161292657829003601f168201915b505050505091505090565b7fa16a46d94261c7517cc8ff89f61c0ce93598e3c849801011dee649a6a557d10380546060917fa16a46d94261c7517cc8ff89f61c0ce93598e3c849801011dee649a6a557d100916128cc90613daf565b5f611e086040518060800160405280605b8152602001614883605b913980519060200120835f01518051906020012084602001516040516020016129e391906145a3565b60408051601f19818403018152828252805160209182012091880151805190820120611ded95949390910193845260208401929092526040830152606082015260800190565b5f5f8051602061486383398151915290505f612a7a8585858080601f0160208091040260200160405190810160405280939291908181526020018383808284375f92019190915250612bf092505050565b604051636c88eb4360e01b81526001600160a01b038216600482015290915073c7d45661a345ec5ca0e8521cfef7e32fda0daa6890636c88eb43906024015f6040518083038186803b158015612ace575f80fd5b505afa158015612ae0573d5f803e3d5ffd5b5050505f87815260078401602090815260408083206001600160a01b038616845290915290205460ff16159050612b3c5760405163a1714c7760e01b8152600481018790526001600160a01b0382166024820152604401610b84565b5f9586526007909101602090815260408087206001600160a01b039093168752919052909320805460ff19166001179055505050565b5f8073c7d45661a345ec5ca0e8521cfef7e32fda0daa686001600160a01b031663490413aa6040518163ffffffff1660e01b8152600401602060405180830381865afa158015611fa9573d5f803e3d5ffd5b5f611e08612bd06131e3565b8360405161190160f01b8152600281019290925260228201526042902090565b5f805f80612bfe86866131f1565b925092509250612c0e828261323a565b5090949350505050565b5f807a184f03e93ff9f4daa797ed6e38ed64bf6a1f0100000000000000008310612c60577a184f03e93ff9f4daa797ed6e38ed64bf6a1f010000000000000000830492506040015b6d04ee2d6d415b85acef81000000008310612c8c576d04ee2d6d415b85acef8100000000830492506020015b662386f26fc100008310612caa57662386f26fc10000830492506010015b6305f5e1008310612cc2576305f5e100830492506008015b6127108310612cd657612710830492506004015b60648310612ce8576064830492506002015b600a8310611e085760010192915050565b5f600882901c60ff166053811115612d295760405163641950d760e01b815260ff82166004820152602401610b84565b8060ff166053811115612d3e57612d3e614655565b9392505050565b5f80826053811115612d5957612d59614655565b03612d6657506002919050565b6002826053811115612d7a57612d7a614655565b03612d8757506008919050565b6003826053811115612d9b57612d9b614655565b03612da857506010919050565b6004826053811115612dbc57612dbc614655565b03612dc957506020919050565b6005826053811115612ddd57612ddd614655565b03612dea57506040919050565b6006826053811115612dfe57612dfe614655565b03612e0b57506080919050565b6007826053811115612e1f57612e1f614655565b03612e2c575060a0919050565b6008826053811115612e4057612e40614655565b03612e4e5750610100919050565b6009826053811115612e6257612e62614655565b03612e705750610200919050565b600a826053811115612e8457612e84614655565b03612e925750610400919050565b600b826053811115612ea657612ea6614655565b03612eb45750610800919050565b8160405163be7830b160e01b8152600401610b849190614669565b919050565b612edd826132f2565b6040516001600160a01b038316907fbc7cd75a20ee27fd9adebab32041f755214dbc6bffa90cc0225b39da2e5c2d3b905f90a2805115612f21576117098282613368565b610b8d6133da565b7f9016d09d72d40fdae2fd8ceac6b6234c7706214fd39c1cd1e609a0528c19930080546001600160a01b031981166001600160a01b03848116918217845560405192169182907f8be0079c531659141344cd1fd0a4f28419497f9722a3daafe3b4186f6b6457e0905f90a3505050565b5f611e086040518060e0016040528060b281526020016146dd60b2913980519060200120835f0151805190602001208460200151604051602001612fdd919061468f565b604051602081830303815290604052805190602001208560400151866060015187608001518860a00151604051602001611ded9796959493929190968752602087019590955260408601939093526001600160a01b03919091166060850152608084015260a083015260c082015260e00190565b7ff0c57e16840df040f15088dc2f81fe391c3923bec73e23a9662efc9c229c6a005468010000000000000000900460ff16610c2a57604051631afcd79f60e31b815260040160405180910390fd5b6130a7613051565b7fa16a46d94261c7517cc8ff89f61c0ce93598e3c849801011dee649a6a557d1007fa16a46d94261c7517cc8ff89f61c0ce93598e3c849801011dee649a6a557d1026130f38482614484565b50600381016131028382614484565b505f8082556001909101555050565b613119613051565b6001600160a01b03811661105657604051631e4fbdf760e01b81525f6004820152602401610b84565b5f611e086040518060c00160405280609081526020016147d36090913980519060200120835f0151805190602001208460200151604051602001613186919061468f565b60405160208183030381529060405280519060200120856040015186606001518760800151604051602001611ded96959493929190958652602086019490945260408501929092526060840152608083015260a082015260c00190565b5f6131ec6133f9565b905090565b5f805f8351604103613228576020840151604085015160608601515f1a61321a8882858561346c565b955095509550505050613233565b505081515f91506002905b9250925092565b5f82600381111561324d5761324d614655565b03613256575050565b600182600381111561326a5761326a614655565b036132885760405163f645eedf60e01b815260040160405180910390fd5b600282600381111561329c5761329c614655565b036132bd5760405163fce698f760e01b815260048101829052602401610b84565b60038260038111156132d1576132d1614655565b03610b8d576040516335e2f38360e21b815260048101829052602401610b84565b806001600160a01b03163b5f0361332757604051634c9c8ce360e01b81526001600160a01b0382166004820152602401610b84565b7f360894a13ba1a3210667c828492db98dca3e2076cc3735a920a3ca505d382bbc80546001600160a01b0319166001600160a01b0392909216919091179055565b60605f80846001600160a01b03168460405161338491906146c1565b5f60405180830381855af49150503d805f81146133bc576040519150601f19603f3d011682016040523d82523d5f602084013e6133c1565b606091505b50915091506133d1858383613534565b95945050505050565b3415610c2a5760405163b398979f60e01b815260040160405180910390fd5b5f7f8b73c3c69bb8fe3d512ecc4cf759cc79239f7b179b0ffacaa9a75d522b39400f613423613590565b61342b61360b565b60408051602081019490945283019190915260608201524660808201523060a082015260c00160405160208183030381529060405280519060200120905090565b5f80807f7fffffffffffffffffffffffffffffff5d576e7357a4501ddfe92f46681b20a08411156134a557505f9150600390508261352a565b604080515f808252602082018084528a905260ff891692820192909252606081018790526080810186905260019060a0016020604051602081039080840390855afa1580156134f6573d5f803e3d5ffd5b5050604051601f1901519150506001600160a01b03811661352157505f92506001915082905061352a565b92505f91508190505b9450945094915050565b6060826135495761354482613660565b612d3e565b815115801561356057506001600160a01b0384163b155b1561358957604051639996b31560e01b81526001600160a01b0385166004820152602401610b84565b5092915050565b5f7fa16a46d94261c7517cc8ff89f61c0ce93598e3c849801011dee649a6a557d100816135bb61287b565b8051909150156135d357805160209091012092915050565b815480156135e2579392505050565b7fc5d2460186f7233c927e7db2dcc703c0e500b653ca82273b7bfad8045d85a470935050505090565b5f7fa16a46d94261c7517cc8ff89f61c0ce93598e3c849801011dee649a6a557d1008161363661294e565b80519091501561364e57805160209091012092915050565b600182015480156135e2579392505050565b8051156136705780518082602001fd5b60405163d6bda27560e01b815260040160405180910390fd5b828054828255905f5260205f209081019282156136c2579160200282015b828111156136c25782358255916020019190600101906136a7565b506136ce92915061370b565b5090565b828054828255905f5260205f209081019282156136c2579160200282015b828111156136c25782518255916020019190600101906136f0565b5b808211156136ce575f815560010161370c565b6001600160a01b038116811461105f575f80fd5b8035612ecf8161371f565b5f8083601f84011261374e575f80fd5b50813567ffffffffffffffff811115613765575f80fd5b6020830191508360208260061b850101111561377f575f80fd5b9250929050565b5f805f60408486031215613798575f80fd5b83356137a38161371f565b9250602084013567ffffffffffffffff8111156137be575f80fd5b6137ca8682870161373e565b9497909650939450505050565b5f8083601f8401126137e7575f80fd5b50813567ffffffffffffffff8111156137fe575f80fd5b60208301915083602082850101111561377f575f80fd5b5f805f805f60608688031215613829575f80fd5b85359450602086013567ffffffffffffffff80821115613847575f80fd5b61385389838a016137d7565b9096509450604088013591508082111561386b575f80fd5b50613878888289016137d7565b969995985093965092949392505050565b5f5b838110156138a357818101518382015260200161388b565b50505f910152565b5f81518084526138c2816020860160208601613889565b601f01601f19169290920160200192915050565b602081525f612d3e60208301846138ab565b5f8083601f8401126138f8575f80fd5b50813567ffffffffffffffff81111561390f575f80fd5b6020830191508360208260051b850101111561377f575f80fd5b5f806020838503121561393a575f80fd5b823567ffffffffffffffff811115613950575f80fd5b61395c858286016138e8565b90969095509350505050565b5f60208284031215613978575f80fd5b5035919050565b634e487b7160e01b5f52604160045260245ffd5b6040516080810167ffffffffffffffff811182821017156139b6576139b661397f565b60405290565b604051601f8201601f1916810167ffffffffffffffff811182821017156139e5576139e561397f565b604052919050565b5f80604083850312156139fe575f80fd5b8235613a098161371f565b915060208381013567ffffffffffffffff80821115613a26575f80fd5b818601915086601f830112613a39575f80fd5b813581811115613a4b57613a4b61397f565b613a5d601f8201601f191685016139bc565b91508082528784828501011115613a72575f80fd5b80848401858401375f848284010152508093505050509250929050565b5f60408284031215613a9f575f80fd5b50919050565b5f805f805f805f805f805f6101208c8e031215613ac0575f80fd5b67ffffffffffffffff808d351115613ad6575f80fd5b613ae38e8e358f0161373e565b909c509a50613af58e60208f01613a8f565b9950613b048e60608f01613a8f565b985060a08d013597508060c08e01351115613b1d575f80fd5b613b2d8e60c08f01358f016138e8565b909750955060e08d0135811015613b42575f80fd5b613b528e60e08f01358f016137d7565b90955093506101008d0135811015613b68575f80fd5b50613b7a8d6101008e01358e016137d7565b81935080925050509295989b509295989b9093969950565b5f805f805f805f805f805f6101008c8e031215613bad575f80fd5b67ffffffffffffffff808d351115613bc3575f80fd5b613bd08e8e358f0161373e565b909c509a50613be28e60208f01613a8f565b995060608d013598508060808e01351115613bfb575f80fd5b613c0b8e60808f01358f016138e8565b9098509650613c1c60a08e01613733565b95508060c08e01351115613c2e575f80fd5b613c3e8e60c08f01358f016137d7565b909550935060e08d0135811015613c53575f80fd5b50613b7a8d60e08e01358e016137d7565b60ff60f81b881681525f602060e06020840152613c8460e084018a6138ab565b8381036040850152613c96818a6138ab565b606085018990526001600160a01b038816608086015260a0850187905284810360c0860152855180825260208088019350909101905f5b81811015613ce957835183529284019291840191600101613ccd565b50909c9b505050505050505050505050565b5f805f805f8060a08789031215613d10575f80fd5b86359550613d218860208901613a8f565b9450606087013567ffffffffffffffff80821115613d3d575f80fd5b613d498a838b0161373e565b90965094506080890135915080821115613d61575f80fd5b50613d6e89828a016138e8565b979a9699509497509295939492505050565b5f60208284031215613d90575f80fd5b8135612d3e8161371f565b634e487b7160e01b5f52603260045260245ffd5b600181811c90821680613dc357607f821691505b602082108103613a9f57634e487b7160e01b5f52602260045260245ffd5b601f82111561170957805f5260205f20601f840160051c81016020851015613e065750805b601f840160051c820191505b81811015613e25575f8155600101613e12565b5050505050565b67ffffffffffffffff831115613e4457613e4461397f565b613e5883613e528354613daf565b83613de1565b5f601f841160018114613e89575f8515613e725750838201355b5f19600387901b1c1916600186901b178355613e25565b5f83815260208120601f198716915b82811015613eb85786850135825560209485019460019092019101613e98565b5086821015613ed4575f1960f88860031b161c19848701351681555b505060018560011b0183555050505050565b81835281816020850137505f828201602090810191909152601f909101601f19169091010190565b5f828254808552602080860195506005818360051b850101865f52825f205f5b85811015613fc157601f19878403018a525f8254613f4b81613daf565b80865260018281168015613f665760018114613f7f57613faa565b60ff198416888b0152821515891b88018a019450613faa565b865f52895f205f5b84811015613fa25781548a82018d0152908301908b01613f87565b89018b019550505b509c88019c92955050509190910190600101613f2e565b509098975050505050505050565b604081525f613fe2604083018587613ee6565b8281036020840152613ff48185613f0e565b9695505050505050565b5f855161400f818460208a01613889565b61103b60f11b908301908152855161402e816002840160208a01613889565b808201915050601760f91b8060028301528551614052816003850160208a01613889565b6003920191820152835161406d816004840160208801613889565b016004019695505050505050565b602081528160208201525f7f07ffffffffffffffffffffffffffffffffffffffffffffffffffffffffffffff8311156140b2575f80fd5b8260051b80856040850137919091016040019392505050565b5f67ffffffffffffffff8211156140e4576140e461397f565b5060051b60200190565b5f60208083850312156140ff575f80fd5b825167ffffffffffffffff80821115614116575f80fd5b818501915085601f830112614129575f80fd5b815161413c614137826140cb565b6139bc565b81815260059190911b8301840190848101908883111561415a575f80fd5b8585015b8381101561423d57805185811115614174575f80fd5b86016080818c03601f19011215614189575f80fd5b614191613993565b8882015181526040808301518a8301526060830151818301526080830151888111156141bb575f80fd5b8084019350508c603f8401126141cf575f80fd5b898301516141df614137826140cb565b81815260059190911b84018201908b8101908f8311156141fd575f80fd5b948301945b8286101561422757855193506142178461371f565b838252948c0194908c0190614202565b606085015250505084525091860191860161415e565b5098975050505050505050565b634e487b7160e01b5f52601160045260245ffd5b5f6001820161426f5761426f61424a565b5060010190565b5f815180845260208085019450602084015f5b838110156142ae5781516001600160a01b031687529582019590820190600101614289565b509495945050505050565b5f82825180855260208086019550808260051b8401018186015f5b8481101561432c57858303601f1901895281518051845284810151858501526040808201519085015260609081015160809185018290529061431881860183614276565b9a86019a94505050908301906001016142d4565b5090979650505050505050565b602081525f612d3e60208301846142b9565b5f6040828403121561435b575f80fd5b6040516040810181811067ffffffffffffffff8211171561437e5761437e61397f565b604052823581526020928301359281019290925250919050565b8183525f60208085019450825f5b858110156142ae5781356143b98161371f565b6001600160a01b0316875295820195908201906001016143a6565b6001600160a01b0384168152604060208201525f6133d1604083018486614398565b8481525f84356144058161371f565b6001600160a01b038082166020850152602087013591506144258261371f565b166040830152608060608301819052613ff49083018486614398565b602080825282518282018190525f9190848201906040850190845b818110156144785783518352928401929184019160010161445c565b50909695505050505050565b815167ffffffffffffffff81111561449e5761449e61397f565b6144b2816144ac8454613daf565b84613de1565b602080601f8311600181146144e5575f84156144ce5750858301515b5f19600386901b1c1916600185901b178555612846565b5f85815260208120601f198616915b82811015614513578886015182559484019460019091019084016144f4565b508582101561453057878501515f19600388901b60f8161c191681555b5050505050600190811b01905550565b606081525f61455260608301876142b9565b6001600160a01b03861660208401528281036040840152614574818587613ee6565b979650505050505050565b604081525f6145916040830185613f0e565b82810360208401526133d18185613f0e565b81515f9082906020808601845b838110156145cc578151855293820193908201906001016145b0565b50929695505050505050565b5f602082840312156145e8575f80fd5b5051919050565b80820180821115611e0857611e0861424a565b8082028115828204841417611e0857611e0861424a565b6001600160a01b0383168152604060208201525f61463a6040830184614276565b949350505050565b602081525f61463a602083018486613ee6565b634e487b7160e01b5f52602160045260245ffd5b602081016054831061468957634e487b7160e01b5f52602160045260245ffd5b91905290565b81515f9082906020808601845b838110156145cc5781516001600160a01b03168552938201939082019060010161469c565b5f82516146d2818460208701613889565b919091019291505056fe44656c656761746564557365724465637279707452657175657374566572696669636174696f6e286279746573207075626c69634b65792c616464726573735b5d20636f6e74726163744164647265737365732c616464726573732064656c656761746f72416464726573732c75696e7432353620636f6e747261637473436861696e49642c75696e7432353620737461727454696d657374616d702c75696e74323536206475726174696f6e44617973295075626c696344656372797074566572696669636174696f6e28627974657333325b5d20637448616e646c65732c627974657320646563727970746564526573756c7429557365724465637279707452657175657374566572696669636174696f6e286279746573207075626c69634b65792c616464726573735b5d20636f6e74726163744164647265737365732c75696e7432353620636f6e747261637473436861696e49642c75696e7432353620737461727454696d657374616d702c75696e74323536206475726174696f6e446179732968113e68af494c6efd0210fc4bf9ba748d1ffadaa4718217fdf63548c4aee7005573657244656372797074526573706f6e7365566572696669636174696f6e286279746573207075626c69634b65792c627974657333325b5d20637448616e646c65732c6279746573207265656e63727970746564536861726529a164736f6c6343000818000a",
  "linkReferences": {},
  "deployedLinkReferences": {}
}