{
  "_format": "hh-sol-artifact-1",
  "contractName": "DecryptionManager",
  "sourceName": "contracts/DecryptionManager.sol",
  "abi": [
    {
      "inputs": [],
      "stateMutability": "nonpayable",
      "type": "constructor"
    },
    {
      "inputs": [
        {
          "internalType": "address",
          "name": "target",
          "type": "address"
        }
      ],
      "name": "AddressEmptyCode",
      "type": "error"
    },
    {
      "inputs": [
        {
          "internalType": "uint8",
          "name": "maxLength",
          "type": "uint8"
        },
        {
          "internalType": "uint256",
          "name": "actualLength",
          "type": "uint256"
        }
      ],
      "name": "ContractAddressesMaxLengthExceeded",
      "type": "error"
    },
    {
      "inputs": [
        {
          "internalType": "address",
          "name": "contractAddress",
          "type": "address"
        },
        {
          "internalType": "address[]",
          "name": "contractAddresses",
          "type": "address[]"
        }
      ],
      "name": "ContractNotInContractAddresses",
      "type": "error"
    },
    {
      "inputs": [
        {
          "internalType": "uint256",
          "name": "keyId",
          "type": "uint256"
        }
      ],
      "name": "DifferentKeyIdsNotAllowed",
      "type": "error"
    },
    {
      "inputs": [],
      "name": "ECDSAInvalidSignature",
      "type": "error"
    },
    {
      "inputs": [
        {
          "internalType": "uint256",
          "name": "length",
          "type": "uint256"
        }
      ],
      "name": "ECDSAInvalidSignatureLength",
      "type": "error"
    },
    {
      "inputs": [
        {
          "internalType": "bytes32",
          "name": "s",
          "type": "bytes32"
        }
      ],
      "name": "ECDSAInvalidSignatureS",
      "type": "error"
    },
    {
      "inputs": [
        {
          "internalType": "address",
          "name": "implementation",
          "type": "address"
        }
      ],
      "name": "ERC1967InvalidImplementation",
      "type": "error"
    },
    {
      "inputs": [],
      "name": "ERC1967NonPayable",
      "type": "error"
    },
    {
      "inputs": [],
      "name": "FailedCall",
      "type": "error"
    },
    {
      "inputs": [],
      "name": "InvalidInitialization",
      "type": "error"
    },
    {
      "inputs": [
        {
          "internalType": "bytes",
          "name": "signature",
          "type": "bytes"
        }
      ],
      "name": "InvalidUserSignature",
      "type": "error"
    },
    {
      "inputs": [
        {
          "internalType": "uint256",
          "name": "publicDecryptionId",
          "type": "uint256"
        },
        {
          "internalType": "address",
          "name": "signer",
          "type": "address"
        }
      ],
      "name": "KmsSignerAlreadyResponded",
      "type": "error"
    },
    {
      "inputs": [
        {
          "internalType": "uint256",
          "name": "maxValue",
          "type": "uint256"
        },
        {
          "internalType": "uint256",
          "name": "actualValue",
          "type": "uint256"
        }
      ],
      "name": "MaxDurationDaysExceeded",
      "type": "error"
    },
    {
      "inputs": [],
      "name": "NotInitializing",
      "type": "error"
    },
    {
      "inputs": [
        {
          "internalType": "address",
          "name": "owner",
          "type": "address"
        }
      ],
      "name": "OwnableInvalidOwner",
      "type": "error"
    },
    {
      "inputs": [
        {
          "internalType": "address",
          "name": "account",
          "type": "address"
        }
      ],
      "name": "OwnableUnauthorizedAccount",
      "type": "error"
    },
    {
      "inputs": [],
      "name": "UUPSUnauthorizedCallContext",
      "type": "error"
    },
    {
      "inputs": [
        {
          "internalType": "bytes32",
          "name": "slot",
          "type": "bytes32"
        }
      ],
      "name": "UUPSUnsupportedProxiableUUID",
      "type": "error"
    },
    {
      "anonymous": false,
      "inputs": [],
      "name": "EIP712DomainChanged",
      "type": "event"
    },
    {
      "anonymous": false,
      "inputs": [
        {
          "indexed": false,
          "internalType": "uint64",
          "name": "version",
          "type": "uint64"
        }
      ],
      "name": "Initialized",
      "type": "event"
    },
    {
      "anonymous": false,
      "inputs": [
        {
          "indexed": true,
          "internalType": "address",
          "name": "previousOwner",
          "type": "address"
        },
        {
          "indexed": true,
          "internalType": "address",
          "name": "newOwner",
          "type": "address"
        }
      ],
      "name": "OwnershipTransferStarted",
      "type": "event"
    },
    {
      "anonymous": false,
      "inputs": [
        {
          "indexed": true,
          "internalType": "address",
          "name": "previousOwner",
          "type": "address"
        },
        {
          "indexed": true,
          "internalType": "address",
          "name": "newOwner",
          "type": "address"
        }
      ],
      "name": "OwnershipTransferred",
      "type": "event"
    },
    {
      "anonymous": false,
      "inputs": [
        {
          "indexed": true,
          "internalType": "uint256",
          "name": "publicDecryptionId",
          "type": "uint256"
        },
        {
          "components": [
            {
              "internalType": "bytes32",
              "name": "ctHandle",
              "type": "bytes32"
            },
            {
              "internalType": "uint256",
              "name": "keyId",
              "type": "uint256"
            },
            {
              "internalType": "bytes32",
              "name": "snsCiphertextDigest",
              "type": "bytes32"
            },
            {
              "internalType": "address[]",
              "name": "coprocessorTxSenderAddresses",
              "type": "address[]"
            }
          ],
          "indexed": false,
          "internalType": "struct SnsCiphertextMaterial[]",
          "name": "snsCtMaterials",
          "type": "tuple[]"
        }
      ],
      "name": "PublicDecryptionRequest",
      "type": "event"
    },
    {
      "anonymous": false,
      "inputs": [
        {
          "indexed": true,
          "internalType": "uint256",
          "name": "publicDecryptionId",
          "type": "uint256"
        },
        {
          "indexed": false,
          "internalType": "bytes",
          "name": "decryptedResult",
          "type": "bytes"
        },
        {
          "indexed": false,
          "internalType": "bytes[]",
          "name": "signatures",
          "type": "bytes[]"
        }
      ],
      "name": "PublicDecryptionResponse",
      "type": "event"
    },
    {
      "anonymous": false,
      "inputs": [
        {
          "indexed": true,
          "internalType": "address",
          "name": "implementation",
          "type": "address"
        }
      ],
      "name": "Upgraded",
      "type": "event"
    },
    {
      "anonymous": false,
      "inputs": [
        {
          "indexed": true,
          "internalType": "uint256",
          "name": "userDecryptionId",
          "type": "uint256"
        },
        {
          "components": [
            {
              "internalType": "bytes32",
              "name": "ctHandle",
              "type": "bytes32"
            },
            {
              "internalType": "uint256",
              "name": "keyId",
              "type": "uint256"
            },
            {
              "internalType": "bytes32",
              "name": "snsCiphertextDigest",
              "type": "bytes32"
            },
            {
              "internalType": "address[]",
              "name": "coprocessorTxSenderAddresses",
              "type": "address[]"
            }
          ],
          "indexed": false,
          "internalType": "struct SnsCiphertextMaterial[]",
          "name": "snsCtMaterials",
          "type": "tuple[]"
        },
        {
          "indexed": false,
          "internalType": "address",
          "name": "userAddress",
          "type": "address"
        },
        {
          "indexed": false,
          "internalType": "bytes",
          "name": "publicKey",
          "type": "bytes"
        }
      ],
      "name": "UserDecryptionRequest",
      "type": "event"
    },
    {
      "anonymous": false,
      "inputs": [
        {
          "indexed": true,
          "internalType": "uint256",
          "name": "userDecryptionId",
          "type": "uint256"
        },
        {
          "indexed": false,
          "internalType": "bytes[]",
          "name": "reencryptedShares",
          "type": "bytes[]"
        },
        {
          "indexed": false,
          "internalType": "bytes[]",
          "name": "signatures",
          "type": "bytes[]"
        }
      ],
      "name": "UserDecryptionResponse",
      "type": "event"
    },
    {
      "inputs": [],
      "name": "EIP712_DELEGATED_USER_DECRYPT_REQUEST_TYPE",
      "outputs": [
        {
          "internalType": "string",
          "name": "",
          "type": "string"
        }
      ],
      "stateMutability": "view",
      "type": "function"
    },
    {
      "inputs": [],
      "name": "EIP712_DELEGATED_USER_DECRYPT_REQUEST_TYPE_HASH",
      "outputs": [
        {
          "internalType": "bytes32",
          "name": "",
          "type": "bytes32"
        }
      ],
      "stateMutability": "view",
      "type": "function"
    },
    {
      "inputs": [],
      "name": "EIP712_PUBLIC_DECRYPT_TYPE",
      "outputs": [
        {
          "internalType": "string",
          "name": "",
          "type": "string"
        }
      ],
      "stateMutability": "view",
      "type": "function"
    },
    {
      "inputs": [],
      "name": "EIP712_PUBLIC_DECRYPT_TYPE_HASH",
      "outputs": [
        {
          "internalType": "bytes32",
          "name": "",
          "type": "bytes32"
        }
      ],
      "stateMutability": "view",
      "type": "function"
    },
    {
      "inputs": [],
      "name": "EIP712_USER_DECRYPT_REQUEST_TYPE",
      "outputs": [
        {
          "internalType": "string",
          "name": "",
          "type": "string"
        }
      ],
      "stateMutability": "view",
      "type": "function"
    },
    {
      "inputs": [],
      "name": "EIP712_USER_DECRYPT_REQUEST_TYPE_HASH",
      "outputs": [
        {
          "internalType": "bytes32",
          "name": "",
          "type": "bytes32"
        }
      ],
      "stateMutability": "view",
      "type": "function"
    },
    {
      "inputs": [],
      "name": "EIP712_USER_DECRYPT_RESPONSE_TYPE",
      "outputs": [
        {
          "internalType": "string",
          "name": "",
          "type": "string"
        }
      ],
      "stateMutability": "view",
      "type": "function"
    },
    {
      "inputs": [],
      "name": "EIP712_USER_DECRYPT_RESPONSE_TYPE_HASH",
      "outputs": [
        {
          "internalType": "bytes32",
          "name": "",
          "type": "bytes32"
        }
      ],
      "stateMutability": "view",
      "type": "function"
    },
    {
      "inputs": [],
      "name": "UPGRADE_INTERFACE_VERSION",
      "outputs": [
        {
          "internalType": "string",
          "name": "",
          "type": "string"
        }
      ],
      "stateMutability": "view",
      "type": "function"
    },
    {
      "inputs": [],
      "name": "acceptOwnership",
      "outputs": [],
      "stateMutability": "nonpayable",
      "type": "function"
    },
    {
      "inputs": [
        {
          "components": [
            {
              "internalType": "bytes32",
              "name": "ctHandle",
              "type": "bytes32"
            },
            {
              "internalType": "address",
              "name": "contractAddress",
              "type": "address"
            }
          ],
          "internalType": "struct CtHandleContractPair[]",
          "name": "ctHandleContractPairs",
          "type": "tuple[]"
        },
        {
          "components": [
            {
              "internalType": "uint256",
              "name": "startTimestamp",
              "type": "uint256"
            },
            {
              "internalType": "uint256",
              "name": "durationDays",
              "type": "uint256"
            }
          ],
          "internalType": "struct IDecryptionManager.RequestValidity",
          "name": "requestValidity",
          "type": "tuple"
        },
        {
          "components": [
            {
              "internalType": "address",
              "name": "userAddress",
              "type": "address"
            },
            {
              "internalType": "address",
              "name": "delegatedAddress",
              "type": "address"
            }
          ],
          "internalType": "struct IDecryptionManager.DelegationAccounts",
          "name": "delegationAccounts",
          "type": "tuple"
        },
        {
          "internalType": "uint256",
          "name": "contractsChainId",
          "type": "uint256"
        },
        {
          "internalType": "address[]",
          "name": "contractAddresses",
          "type": "address[]"
        },
        {
          "internalType": "bytes",
          "name": "publicKey",
          "type": "bytes"
        },
        {
          "internalType": "bytes",
          "name": "signature",
          "type": "bytes"
        }
      ],
      "name": "delegatedUserDecryptionRequest",
      "outputs": [],
      "stateMutability": "nonpayable",
      "type": "function"
    },
    {
      "inputs": [],
      "name": "eip712Domain",
      "outputs": [
        {
          "internalType": "bytes1",
          "name": "fields",
          "type": "bytes1"
        },
        {
          "internalType": "string",
          "name": "name",
          "type": "string"
        },
        {
          "internalType": "string",
          "name": "version",
          "type": "string"
        },
        {
          "internalType": "uint256",
          "name": "chainId",
          "type": "uint256"
        },
        {
          "internalType": "address",
          "name": "verifyingContract",
          "type": "address"
        },
        {
          "internalType": "bytes32",
          "name": "salt",
          "type": "bytes32"
        },
        {
          "internalType": "uint256[]",
          "name": "extensions",
          "type": "uint256[]"
        }
      ],
      "stateMutability": "view",
      "type": "function"
    },
    {
      "inputs": [],
      "name": "getVersion",
      "outputs": [
        {
          "internalType": "string",
          "name": "",
          "type": "string"
        }
      ],
      "stateMutability": "pure",
      "type": "function"
    },
    {
      "inputs": [],
      "name": "initialize",
      "outputs": [],
      "stateMutability": "nonpayable",
      "type": "function"
    },
    {
      "inputs": [
        {
          "internalType": "uint256",
          "name": "publicDecryptionId",
          "type": "uint256"
        }
      ],
      "name": "isPublicDecryptionDone",
      "outputs": [
        {
          "internalType": "bool",
          "name": "",
          "type": "bool"
        }
      ],
      "stateMutability": "view",
      "type": "function"
    },
    {
      "inputs": [
        {
          "internalType": "uint256",
          "name": "userDecryptionId",
          "type": "uint256"
        }
      ],
      "name": "isUserDecryptionDone",
      "outputs": [
        {
          "internalType": "bool",
          "name": "",
          "type": "bool"
        }
      ],
      "stateMutability": "view",
      "type": "function"
    },
    {
      "inputs": [],
      "name": "owner",
      "outputs": [
        {
          "internalType": "address",
          "name": "",
          "type": "address"
        }
      ],
      "stateMutability": "view",
      "type": "function"
    },
    {
      "inputs": [],
      "name": "pendingOwner",
      "outputs": [
        {
          "internalType": "address",
          "name": "",
          "type": "address"
        }
      ],
      "stateMutability": "view",
      "type": "function"
    },
    {
      "inputs": [],
      "name": "proxiableUUID",
      "outputs": [
        {
          "internalType": "bytes32",
          "name": "",
          "type": "bytes32"
        }
      ],
      "stateMutability": "view",
      "type": "function"
    },
    {
      "inputs": [
        {
          "internalType": "bytes32[]",
          "name": "ctHandles",
          "type": "bytes32[]"
        }
      ],
      "name": "publicDecryptionRequest",
      "outputs": [],
      "stateMutability": "nonpayable",
      "type": "function"
    },
    {
      "inputs": [
        {
          "internalType": "uint256",
          "name": "publicDecryptionId",
          "type": "uint256"
        },
        {
          "internalType": "bytes",
          "name": "decryptedResult",
          "type": "bytes"
        },
        {
          "internalType": "bytes",
          "name": "signature",
          "type": "bytes"
        }
      ],
      "name": "publicDecryptionResponse",
      "outputs": [],
      "stateMutability": "nonpayable",
      "type": "function"
    },
    {
      "inputs": [],
      "name": "renounceOwnership",
      "outputs": [],
      "stateMutability": "nonpayable",
      "type": "function"
    },
    {
      "inputs": [
        {
          "internalType": "address",
          "name": "newOwner",
          "type": "address"
        }
      ],
      "name": "transferOwnership",
      "outputs": [],
      "stateMutability": "nonpayable",
      "type": "function"
    },
    {
      "inputs": [
        {
          "internalType": "address",
          "name": "newImplementation",
          "type": "address"
        },
        {
          "internalType": "bytes",
          "name": "data",
          "type": "bytes"
        }
      ],
      "name": "upgradeToAndCall",
      "outputs": [],
      "stateMutability": "payable",
      "type": "function"
    },
    {
      "inputs": [
        {
          "components": [
            {
              "internalType": "bytes32",
              "name": "ctHandle",
              "type": "bytes32"
            },
            {
              "internalType": "address",
              "name": "contractAddress",
              "type": "address"
            }
          ],
          "internalType": "struct CtHandleContractPair[]",
          "name": "ctHandleContractPairs",
          "type": "tuple[]"
        },
        {
          "components": [
            {
              "internalType": "uint256",
              "name": "startTimestamp",
              "type": "uint256"
            },
            {
              "internalType": "uint256",
              "name": "durationDays",
              "type": "uint256"
            }
          ],
          "internalType": "struct IDecryptionManager.RequestValidity",
          "name": "requestValidity",
          "type": "tuple"
        },
        {
          "internalType": "uint256",
          "name": "contractsChainId",
          "type": "uint256"
        },
        {
          "internalType": "address[]",
          "name": "contractAddresses",
          "type": "address[]"
        },
        {
          "internalType": "address",
          "name": "userAddress",
          "type": "address"
        },
        {
          "internalType": "bytes",
          "name": "publicKey",
          "type": "bytes"
        },
        {
          "internalType": "bytes",
          "name": "signature",
          "type": "bytes"
        }
      ],
      "name": "userDecryptionRequest",
      "outputs": [],
      "stateMutability": "nonpayable",
      "type": "function"
    },
    {
      "inputs": [
        {
          "internalType": "uint256",
          "name": "userDecryptionId",
          "type": "uint256"
        },
        {
          "internalType": "bytes",
          "name": "reencryptedShare",
          "type": "bytes"
        },
        {
          "internalType": "bytes",
          "name": "signature",
          "type": "bytes"
        }
      ],
      "name": "userDecryptionResponse",
      "outputs": [],
      "stateMutability": "nonpayable",
      "type": "function"
    }
  ],
  "bytecode": "0x60a06040523060805234801562000014575f80fd5b506200001f62000025565b620000d9565b7ff0c57e16840df040f15088dc2f81fe391c3923bec73e23a9662efc9c229c6a00805468010000000000000000900460ff1615620000765760405163f92ee8a960e01b815260040160405180910390fd5b80546001600160401b0390811614620000d65780546001600160401b0319166001600160401b0390811782556040519081527fc7f505b2f371ae2175ee4913f4499e1f2633a7b5936321eed1cdaeb6115181d29060200160405180910390a15b50565b608051613e37620001005f395f8181611db901528181611de20152611f470152613e375ff3fe608060405260043610610199575f3560e01c806379ba5097116100dc578063ab7325dd11610087578063e30c397811610062578063e30c397814610492578063e3342f16146104a6578063e4c33a3d146104ba578063f2fde38b146104ce575f80fd5b8063ab7325dd14610417578063ad3cb1cc1461042b578063b9bfe0a814610473575f80fd5b80638316001f116100b75780638316001f146103a557806384b0196e146103c45780638da5cb5b146103eb575f80fd5b806379ba5097146103305780637e11db07146103445780638129fc1c14610391575f80fd5b8063373dce8a11610147578063578d967111610122578063578d9671146102d55780636cde9579146102e9578063715018a6146102fd578063760a041914610311575f80fd5b8063373dce8a146102515780634f1ef286146102ae57806352d1902d146102c1575f80fd5b80632538a7e1116101775780632538a7e1146102075780632eafb7db1461022957806330a988aa1461023d575f80fd5b806302fd1a641461019d5780630d8e6e2c146101be578063187fe529146101e8575b5f80fd5b3480156101a8575f80fd5b506101bc6101b7366004612e25565b6104ed565b005b3480156101c9575f80fd5b506101d26106f4565b6040516101df9190612ee6565b60405180910390f35b3480156101f3575f80fd5b506101bc610202366004612f39565b61076f565b348015610212575f80fd5b5061021b6108f2565b6040519081526020016101df565b348015610234575f80fd5b506101d2610915565b348015610248575f80fd5b506101d2610931565b34801561025c575f80fd5b5061029e61026b366004612f78565b5f9081527f13fa45e3e06dd5c7291d8698d89ad1fd40bc82f98a605fa4761ea2b538c8db0a602052604090205460ff1690565b60405190151581526020016101df565b6101bc6102bc366004613021565b61094d565b3480156102cc575f80fd5b5061021b61096c565b3480156102e0575f80fd5b5061021b61099a565b3480156102f4575f80fd5b506101d26109bd565b348015610308575f80fd5b506101bc6109d9565b34801561031c575f80fd5b506101bc61032b36600461311a565b6109ec565b34801561033b575f80fd5b506101bc610f31565b34801561034f575f80fd5b5061029e61035e366004612f78565b5f9081527f13fa45e3e06dd5c7291d8698d89ad1fd40bc82f98a605fa4761ea2b538c8db05602052604090205460ff1690565b34801561039c575f80fd5b506101bc610f79565b3480156103b0575f80fd5b506101bc6103bf366004613207565b6110c3565b3480156103cf575f80fd5b506103d86114f0565b6040516101df97969594939291906132d9565b3480156103f6575f80fd5b506103ff6115b4565b6040516001600160a01b0390911681526020016101df565b348015610422575f80fd5b5061021b6115e8565b348015610436575f80fd5b506101d26040518060400160405280600581526020017f352e302e3000000000000000000000000000000000000000000000000000000081525081565b34801561047e575f80fd5b506101bc61048d366004612e25565b61160b565b34801561049d575f80fd5b506103ff611906565b3480156104b1575f80fd5b506101d261192e565b3480156104c5575f80fd5b5061021b61194a565b3480156104d9575f80fd5b506101bc6104e8366004613370565b61196d565b6040516318c4ea4b60e31b8152336004820152730f886fd6e24d9fab00bddd0ae3c59c22724fb1e39063c6275258906024015f6040518083038186803b158015610535575f80fd5b505afa158015610547573d5f803e3d5ffd5b505050505f6105737f13fa45e3e06dd5c7291d8698d89ad1fd40bc82f98a605fa4761ea2b538c8db0090565b604080515f8981526004840160209081528382208054606092810285018301865294840185815295965091949293849392918401828280156105d257602002820191905f5260205f20905b8154815260200190600101908083116105be575b5050505050815260200187878080601f0160208091040260200160405190810160405280939291908181526020018383808284375f920182905250939094525092935091506106229050826119f2565b905061063088828787611a8e565b5f88815260038401602090815260408083208484528252822080546001810182558184529190922001610664868883613408565b505f89815260058501602052604090205460ff1615801561068b5750805461068b90611bea565b156106e9575f89815260058501602052604090819020805460ff191660011790555189907f61568d6eb48e62870afffd55499206a54a8f78b04a627e00ed097161fc05d6be906106e0908b908b9086906135ab565b60405180910390a25b505050505050505050565b60606040518060400160405280601181526020017f44656372797074696f6e4d616e616765720000000000000000000000000000008152506107355f611c6a565b61073f6001611c6a565b6107485f611c6a565b60405160200161075b94939291906135da565b604051602081830303815290604052905090565b60405163135e255960e11b81527f13fa45e3e06dd5c7291d8698d89ad1fd40bc82f98a605fa4761ea2b538c8db009073188de058d5414c3bfb1d443421008f215781f2da906326bc4ab2906107ca9086908690600401613657565b5f6040518083038186803b1580156107e0575f80fd5b505afa1580156107f2573d5f803e3d5ffd5b505060405163a14f897160e01b81525f9250730cd5e87581904dc6d305ccdfb6e72b8f77882c34915063a14f8971906108319087908790600401613657565b5f60405180830381865afa15801561084b573d5f803e3d5ffd5b505050506040513d5f823e601f3d908101601f1916820160405261087291908101906136ca565b905061087d81611d07565b600182018054905f61088e83613826565b909155505060018201545f81815260048401602052604090206108b2908686612d4a565b50807f17c632196fbf6b96d9675971058d3701733094c3f2f1dcb9ba7d2a08bee0aafb836040516108e391906138fa565b60405180910390a25050505050565b6040518060800160405280605b8152602001613dd0605b91398051906020012081565b604051806080016040528060448152602001613c4a6044913981565b6040518060c0016040528060908152602001613c8e6090913981565b610955611dae565b61095e82611e65565b6109688282611e6d565b5050565b5f610975611f3c565b507f360894a13ba1a3210667c828492db98dca3e2076cc3735a920a3ca505d382bbc90565b6040518060e0016040528060b28152602001613d1e60b291398051906020012081565b6040518060e0016040528060b28152602001613d1e60b2913981565b6109e1611f85565b6109ea5f611fb7565b565b600a851115610a1d576040516362d5a33f60e11b8152600a6004820152602481018690526044015b60405180910390fd5b61016d60208a01351115610a5257604051633295186360e01b815261016d600482015260208a01356024820152604401610a14565b73188de058d5414c3bfb1d443421008f215781f2da634c8be3d2610a7c60408b0160208c01613370565b8d8d6040518463ffffffff1660e01b8152600401610a9c9392919061390c565b5f6040518083038186803b158015610ab2575f80fd5b505afa158015610ac4573d5f803e3d5ffd5b505f92508c91505067ffffffffffffffff811115610ae457610ae4612fb3565b604051908082528060200260200182016040528015610b0d578160200160208202803683370190505b5090505f5b8b811015610c1957610b8d8888808060200260200160405190810160405280939291908181526020018383602002808284375f81840152601f19601f820116905080830192505050505050508e8e84818110610b7057610b70613970565b9050604002016020016020810190610b889190613370565b611fef565b610bd9578c8c82818110610ba357610ba3613970565b9050604002016020016020810190610bbb9190613370565b888860405163a4c3039160e01b8152600401610a14939291906139cb565b8c8c82818110610beb57610beb613970565b9050604002015f0135828281518110610c0657610c06613970565b6020908102919091010152600101610b12565b5073188de058d5414c3bfb1d443421008f215781f2da634f20c8c089610c4260208d018d613370565b610c5260408e0160208f01613370565b8b8b6040518663ffffffff1660e01b8152600401610c749594939291906139ed565b5f6040518083038186803b158015610c8a575f80fd5b505afa158015610c9c573d5f803e3d5ffd5b505050505f6040518060c0016040528087878080601f0160208091040260200160405190810160405280939291908181526020018383808284375f920191909152505050908252506040805160208b810282810182019093528b82529283019290918c918c9182918501908490808284375f92019190915250505090825250602090810190610d319060408e01908e01613370565b6001600160a01b031681526020018a81526020018c5f013581526020018c602001358152509050610d75818b5f016020810190610d6e9190613370565b8686612048565b60405163a14f897160e01b81525f90730cd5e87581904dc6d305ccdfb6e72b8f77882c349063a14f897190610dae908690600401613a2a565b5f60405180830381865afa158015610dc8573d5f803e3d5ffd5b505050506040513d5f823e601f3d908101601f19168201604052610def91908101906136ca565b9050610dfa81611d07565b7f13fa45e3e06dd5c7291d8698d89ad1fd40bc82f98a605fa4761ea2b538c8db0680547f13fa45e3e06dd5c7291d8698d89ad1fd40bc82f98a605fa4761ea2b538c8db00915f610e4983613826565b909155505060068101546040805160606020601f8c01819004028201810183529181018a815290918291908c908c90819085018382808284375f9201829052509385525050506020918201889052838152600985019091526040902081518190610eb39082613a6d565b506020828101518051610ecc9260018501920190612d93565b50905050807f1c3dcad6311be6d58dc4d4b9f1bc1625eb18d72de969db75e11a88ef3527d2f3848f5f016020810190610f059190613370565b8c8c604051610f179493929190613b29565b60405180910390a250505050505050505050505050505050565b3380610f3b611906565b6001600160a01b031614610f6d5760405163118cdaa760e01b81526001600160a01b0382166004820152602401610a14565b610f7681611fb7565b50565b7ff0c57e16840df040f15088dc2f81fe391c3923bec73e23a9662efc9c229c6a0080546002919068010000000000000000900460ff1680610fc85750805467ffffffffffffffff808416911610155b15610fe65760405163f92ee8a960e01b815260040160405180910390fd5b805468ffffffffffffffffff191667ffffffffffffffff83161768010000000000000000178155604080518082018252601181527f44656372797074696f6e4d616e61676572000000000000000000000000000000602080830191909152825180840190935260018352603160f81b90830152611062916120d4565b61107261106d6115b4565b6120e6565b805468ff00000000000000001916815560405167ffffffffffffffff831681527fc7f505b2f371ae2175ee4913f4499e1f2633a7b5936321eed1cdaeb6115181d29060200160405180910390a15050565b600a8611156110ef576040516362d5a33f60e11b8152600a600482015260248101879052604401610a14565b61016d60208a0135111561112457604051633295186360e01b815261016d600482015260208a01356024820152604401610a14565b604051632645f1e960e11b815273188de058d5414c3bfb1d443421008f215781f2da90634c8be3d29061115f9088908f908f9060040161390c565b5f6040518083038186803b158015611175575f80fd5b505afa158015611187573d5f803e3d5ffd5b505050505f6040518060a0016040528086868080601f0160208091040260200160405190810160405280939291908181526020018383808284375f920191909152505050908252506040805160208b810282810182019093528b82529283019290918c918c9182918501908490808284375f9201919091525050509082525060208082018c90528c3560408301528c0135606090910152905061122c818785856120f7565b5f8b67ffffffffffffffff81111561124657611246612fb3565b60405190808252806020026020018201604052801561126f578160200160208202803683370190505b5090505f5b8c81101561135e576112d28a8a808060200260200160405190810160405280939291908181526020018383602002808284375f81840152601f19601f820116905080830192505050505050508f8f84818110610b7057610b70613970565b61131e578d8d828181106112e8576112e8613970565b90506040020160200160208101906113009190613370565b8a8a60405163a4c3039160e01b8152600401610a14939291906139cb565b8d8d8281811061133057611330613970565b9050604002015f013582828151811061134b5761134b613970565b6020908102919091010152600101611274565b5060405163a14f897160e01b81525f90730cd5e87581904dc6d305ccdfb6e72b8f77882c349063a14f897190611398908590600401613a2a565b5f60405180830381865afa1580156113b2573d5f803e3d5ffd5b505050506040513d5f823e601f3d908101601f191682016040526113d991908101906136ca565b90506113e481611d07565b7f13fa45e3e06dd5c7291d8698d89ad1fd40bc82f98a605fa4761ea2b538c8db0680547f13fa45e3e06dd5c7291d8698d89ad1fd40bc82f98a605fa4761ea2b538c8db00915f61143383613826565b909155505060068101546040805160606020601f8c01819004028201810183529181018a815290918291908c908c90819085018382808284375f920182905250938552505050602091820187905283815260098501909152604090208151819061149d9082613a6d565b5060208281015180516114b69260018501920190612d93565b50905050807f1c3dcad6311be6d58dc4d4b9f1bc1625eb18d72de969db75e11a88ef3527d2f3848c8c8c604051610f179493929190613b29565b5f60608082808083817fa16a46d94261c7517cc8ff89f61c0ce93598e3c849801011dee649a6a557d100805490915015801561152e57506001810154155b61157a5760405162461bcd60e51b815260206004820152601560248201527f4549503731323a20556e696e697469616c697a656400000000000000000000006044820152606401610a14565b611582612101565b61158a6121d4565b604080515f80825260208201909252600f60f81b9c939b5091995046985030975095509350915050565b5f807f9016d09d72d40fdae2fd8ceac6b6234c7706214fd39c1cd1e609a0528c1993005b546001600160a01b031692915050565b604051806080016040528060448152602001613c4a604491398051906020012081565b6040516318c4ea4b60e31b8152336004820152730f886fd6e24d9fab00bddd0ae3c59c22724fb1e39063c6275258906024015f6040518083038186803b158015611653575f80fd5b505afa158015611665573d5f803e3d5ffd5b505050505f6116917f13fa45e3e06dd5c7291d8698d89ad1fd40bc82f98a605fa4761ea2b538c8db0090565b90505f816009015f8881526020019081526020015f206040518060400160405290815f820180546116c19061338b565b80601f01602080910402602001604051908101604052809291908181526020018280546116ed9061338b565b80156117385780601f1061170f57610100808354040283529160200191611738565b820191905f5260205f20905b81548152906001019060200180831161171b57829003601f168201915b505050505081526020016001820180548060200260200160405190810160405280929190818152602001828054801561178e57602002820191905f5260205f20905b81548152602001906001019080831161177a575b50505050508152505090505f6040518060600160405280835f015181526020018360200151815260200188888080601f0160208091040260200160405190810160405280939291908181526020018383808284375f920182905250939094525092935091506117fe905082612225565b905061180c898288886122af565b5f89815260088501602090815260408083208484528252822080546001810182558184529190922001611840878983613408565b505f8a8152600b8601602090815260408220805460018101825590835291200161186b898b83613408565b505f8a8152600a8601602052604090205460ff16158015611892575080546118929061240b565b156118fa575f8a8152600a860160209081526040808320805460ff19166001179055600b88019091529081902090518b917f7312dec4cead0d5d3da836cdbaed1eb6a81e218c519c8740da4ac75afcb6c5c7916118f191908590613b5d565b60405180910390a25b50505050505050505050565b5f807f237e158222e3e6968b72b9db0d8043aacf074ad9f650f0d1606b4d82ee432c006115d8565b6040518060800160405280605b8152602001613dd0605b913981565b6040518060c0016040528060908152602001613c8e609091398051906020012081565b611975611f85565b7f237e158222e3e6968b72b9db0d8043aacf074ad9f650f0d1606b4d82ee432c0080546001600160a01b0319166001600160a01b03831690811782556119b96115b4565b6001600160a01b03167f38d16b8cac22d99fc7c124b9cd0de2d3fa1faef420bfe791d8c362d765e2270060405160405180910390a35050565b5f611a88604051806080016040528060448152602001613c4a60449139805160209182012084516040519192611a289201613b81565b60405160208183030381529060405280519060200120846020015180519060200120604051602001611a6d939291909283526020830191909152604082015260600190565b6040516020818303038152906040528051906020012061245d565b92915050565b5f7f13fa45e3e06dd5c7291d8698d89ad1fd40bc82f98a605fa4761ea2b538c8db0090505f611af28585858080601f0160208091040260200160405190810160405280939291908181526020018383808284375f9201919091525061248992505050565b604051636c88eb4360e01b81526001600160a01b0382166004820152909150730f886fd6e24d9fab00bddd0ae3c59c22724fb1e390636c88eb43906024015f6040518083038186803b158015611b46575f80fd5b505afa158015611b58573d5f803e3d5ffd5b5050505f87815260028401602090815260408083206001600160a01b038616845290915290205460ff16159050611bb45760405163a1714c7760e01b8152600481018790526001600160a01b0382166024820152604401610a14565b5f9586526002909101602090815260408087206001600160a01b039093168752919052909320805460ff19166001179055505050565b5f80730f886fd6e24d9fab00bddd0ae3c59c22724fb1e36001600160a01b03166347cd4b3e6040518163ffffffff1660e01b8152600401602060405180830381865afa158015611c3c573d5f803e3d5ffd5b505050506040513d601f19601f82011682018060405250810190611c609190613bb6565b9092101592915050565b60605f611c76836124b1565b60010190505f8167ffffffffffffffff811115611c9557611c95612fb3565b6040519080825280601f01601f191660200182016040528015611cbf576020820181803683370190505b5090508181016020015b5f19017f3031323334353637383961626364656600000000000000000000000000000000600a86061a8153600a8504945084611cc957509392505050565b6001815111611d135750565b5f815f81518110611d2657611d26613970565b60200260200101516020015190505f600190505b8251811015611da95781838281518110611d5657611d56613970565b60200260200101516020015114611da157828181518110611d7957611d79613970565b60200260200101516020015160405163f90bc7f560e01b8152600401610a1491815260200190565b600101611d3a565b505050565b306001600160a01b037f0000000000000000000000000000000000000000000000000000000000000000161480611e4757507f00000000000000000000000000000000000000000000000000000000000000006001600160a01b0316611e3b7f360894a13ba1a3210667c828492db98dca3e2076cc3735a920a3ca505d382bbc546001600160a01b031690565b6001600160a01b031614155b156109ea5760405163703e46dd60e11b815260040160405180910390fd5b610f76611f85565b816001600160a01b03166352d1902d6040518163ffffffff1660e01b8152600401602060405180830381865afa925050508015611ec7575060408051601f3d908101601f19168201909252611ec491810190613bb6565b60015b611eef57604051634c9c8ce360e01b81526001600160a01b0383166004820152602401610a14565b7f360894a13ba1a3210667c828492db98dca3e2076cc3735a920a3ca505d382bbc8114611f3257604051632a87526960e21b815260048101829052602401610a14565b611da98383612592565b306001600160a01b037f000000000000000000000000000000000000000000000000000000000000000016146109ea5760405163703e46dd60e11b815260040160405180910390fd5b33611f8e6115b4565b6001600160a01b0316146109ea5760405163118cdaa760e01b8152336004820152602401610a14565b7f237e158222e3e6968b72b9db0d8043aacf074ad9f650f0d1606b4d82ee432c0080546001600160a01b0319168155610968826125e7565b5f805b835181101561203f57826001600160a01b031684828151811061201757612017613970565b60200260200101516001600160a01b031603612037576001915050611a88565b600101611ff2565b505f9392505050565b5f61205285612657565b90505f6120948285858080601f0160208091040260200160405190810160405280939291908181526020018383808284375f9201919091525061248992505050565b9050846001600160a01b0316816001600160a01b0316146120cc578383604051632a873d2760e01b8152600401610a14929190613bcd565b505050505050565b6120dc61270f565b610968828261275d565b6120ee61270f565b610f76816127cf565b5f61205285612800565b7fa16a46d94261c7517cc8ff89f61c0ce93598e3c849801011dee649a6a557d10280546060917fa16a46d94261c7517cc8ff89f61c0ce93598e3c849801011dee649a6a557d100916121529061338b565b80601f016020809104026020016040519081016040528092919081815260200182805461217e9061338b565b80156121c95780601f106121a0576101008083540402835291602001916121c9565b820191905f5260205f20905b8154815290600101906020018083116121ac57829003601f168201915b505050505091505090565b7fa16a46d94261c7517cc8ff89f61c0ce93598e3c849801011dee649a6a557d10380546060917fa16a46d94261c7517cc8ff89f61c0ce93598e3c849801011dee649a6a557d100916121529061338b565b5f611a886040518060800160405280605b8152602001613dd0605b913980519060200120835f01518051906020012084602001516040516020016122699190613b81565b60408051601f19818403018152828252805160209182012091880151805190820120611a6d95949390910193845260208401929092526040830152606082015260800190565b5f7f13fa45e3e06dd5c7291d8698d89ad1fd40bc82f98a605fa4761ea2b538c8db0090505f6123138585858080601f0160208091040260200160405190810160405280939291908181526020018383808284375f9201919091525061248992505050565b604051636c88eb4360e01b81526001600160a01b0382166004820152909150730f886fd6e24d9fab00bddd0ae3c59c22724fb1e390636c88eb43906024015f6040518083038186803b158015612367575f80fd5b505afa158015612379573d5f803e3d5ffd5b5050505f87815260078401602090815260408083206001600160a01b038616845290915290205460ff161590506123d55760405163a1714c7760e01b8152600481018790526001600160a01b0382166024820152604401610a14565b5f9586526007909101602090815260408087206001600160a01b039093168752919052909320805460ff19166001179055505050565b5f80730f886fd6e24d9fab00bddd0ae3c59c22724fb1e36001600160a01b031663490413aa6040518163ffffffff1660e01b8152600401602060405180830381865afa158015611c3c573d5f803e3d5ffd5b5f611a886124696128a1565b8360405161190160f01b8152600281019290925260228201526042902090565b5f805f8061249786866128af565b9250925092506124a782826128f8565b5090949350505050565b5f807a184f03e93ff9f4daa797ed6e38ed64bf6a1f01000000000000000083106124f9577a184f03e93ff9f4daa797ed6e38ed64bf6a1f010000000000000000830492506040015b6d04ee2d6d415b85acef81000000008310612525576d04ee2d6d415b85acef8100000000830492506020015b662386f26fc10000831061254357662386f26fc10000830492506010015b6305f5e100831061255b576305f5e100830492506008015b612710831061256f57612710830492506004015b60648310612581576064830492506002015b600a8310611a885760010192915050565b61259b826129b0565b6040516001600160a01b038316907fbc7cd75a20ee27fd9adebab32041f755214dbc6bffa90cc0225b39da2e5c2d3b905f90a28051156125df57611da98282612a26565b610968612a98565b7f9016d09d72d40fdae2fd8ceac6b6234c7706214fd39c1cd1e609a0528c19930080546001600160a01b031981166001600160a01b03848116918217845560405192169182907f8be0079c531659141344cd1fd0a4f28419497f9722a3daafe3b4186f6b6457e0905f90a3505050565b5f611a886040518060e0016040528060b28152602001613d1e60b2913980519060200120835f015180519060200120846020015160405160200161269b9190613be8565b604051602081830303815290604052805190602001208560400151866060015187608001518860a00151604051602001611a6d9796959493929190968752602087019590955260408601939093526001600160a01b03919091166060850152608084015260a083015260c082015260e00190565b7ff0c57e16840df040f15088dc2f81fe391c3923bec73e23a9662efc9c229c6a005468010000000000000000900460ff166109ea57604051631afcd79f60e31b815260040160405180910390fd5b61276561270f565b7fa16a46d94261c7517cc8ff89f61c0ce93598e3c849801011dee649a6a557d1007fa16a46d94261c7517cc8ff89f61c0ce93598e3c849801011dee649a6a557d1026127b18482613a6d565b50600381016127c08382613a6d565b505f8082556001909101555050565b6127d761270f565b6001600160a01b038116610f6d57604051631e4fbdf760e01b81525f6004820152602401610a14565b5f611a886040518060c0016040528060908152602001613c8e6090913980519060200120835f01518051906020012084602001516040516020016128449190613be8565b60405160208183030381529060405280519060200120856040015186606001518760800151604051602001611a6d96959493929190958652602086019490945260408501929092526060840152608083015260a082015260c00190565b5f6128aa612ab7565b905090565b5f805f83516041036128e6576020840151604085015160608601515f1a6128d888828585612b2a565b9550955095505050506128f1565b505081515f91506002905b9250925092565b5f82600381111561290b5761290b613c1a565b03612914575050565b600182600381111561292857612928613c1a565b036129465760405163f645eedf60e01b815260040160405180910390fd5b600282600381111561295a5761295a613c1a565b0361297b5760405163fce698f760e01b815260048101829052602401610a14565b600382600381111561298f5761298f613c1a565b03610968576040516335e2f38360e21b815260048101829052602401610a14565b806001600160a01b03163b5f036129e557604051634c9c8ce360e01b81526001600160a01b0382166004820152602401610a14565b7f360894a13ba1a3210667c828492db98dca3e2076cc3735a920a3ca505d382bbc80546001600160a01b0319166001600160a01b0392909216919091179055565b60605f80846001600160a01b031684604051612a429190613c2e565b5f60405180830381855af49150503d805f8114612a7a576040519150601f19603f3d011682016040523d82523d5f602084013e612a7f565b606091505b5091509150612a8f858383612bf2565b95945050505050565b34156109ea5760405163b398979f60e01b815260040160405180910390fd5b5f7f8b73c3c69bb8fe3d512ecc4cf759cc79239f7b179b0ffacaa9a75d522b39400f612ae1612c51565b612ae9612ccc565b60408051602081019490945283019190915260608201524660808201523060a082015260c00160405160208183030381529060405280519060200120905090565b5f80807f7fffffffffffffffffffffffffffffff5d576e7357a4501ddfe92f46681b20a0841115612b6357505f91506003905082612be8565b604080515f808252602082018084528a905260ff891692820192909252606081018790526080810186905260019060a0016020604051602081039080840390855afa158015612bb4573d5f803e3d5ffd5b5050604051601f1901519150506001600160a01b038116612bdf57505f925060019150829050612be8565b92505f91508190505b9450945094915050565b606082612c0757612c0282612d21565b612c4a565b8151158015612c1e57506001600160a01b0384163b155b15612c4757604051639996b31560e01b81526001600160a01b0385166004820152602401610a14565b50805b9392505050565b5f7fa16a46d94261c7517cc8ff89f61c0ce93598e3c849801011dee649a6a557d10081612c7c612101565b805190915015612c9457805160209091012092915050565b81548015612ca3579392505050565b7fc5d2460186f7233c927e7db2dcc703c0e500b653ca82273b7bfad8045d85a470935050505090565b5f7fa16a46d94261c7517cc8ff89f61c0ce93598e3c849801011dee649a6a557d10081612cf76121d4565b805190915015612d0f57805160209091012092915050565b60018201548015612ca3579392505050565b805115612d315780518082602001fd5b60405163d6bda27560e01b815260040160405180910390fd5b828054828255905f5260205f20908101928215612d83579160200282015b82811115612d83578235825591602001919060010190612d68565b50612d8f929150612dcc565b5090565b828054828255905f5260205f20908101928215612d83579160200282015b82811115612d83578251825591602001919060010190612db1565b5b80821115612d8f575f8155600101612dcd565b5f8083601f840112612df0575f80fd5b50813567ffffffffffffffff811115612e07575f80fd5b602083019150836020828501011115612e1e575f80fd5b9250929050565b5f805f805f60608688031215612e39575f80fd5b85359450602086013567ffffffffffffffff80821115612e57575f80fd5b612e6389838a01612de0565b90965094506040880135915080821115612e7b575f80fd5b50612e8888828901612de0565b969995985093965092949392505050565b5f5b83811015612eb3578181015183820152602001612e9b565b50505f910152565b5f8151808452612ed2816020860160208601612e99565b601f01601f19169290920160200192915050565b602081525f612c4a6020830184612ebb565b5f8083601f840112612f08575f80fd5b50813567ffffffffffffffff811115612f1f575f80fd5b6020830191508360208260051b8501011115612e1e575f80fd5b5f8060208385031215612f4a575f80fd5b823567ffffffffffffffff811115612f60575f80fd5b612f6c85828601612ef8565b90969095509350505050565b5f60208284031215612f88575f80fd5b5035919050565b6001600160a01b0381168114610f76575f80fd5b8035612fae81612f8f565b919050565b634e487b7160e01b5f52604160045260245ffd5b6040516080810167ffffffffffffffff81118282101715612fea57612fea612fb3565b60405290565b604051601f8201601f1916810167ffffffffffffffff8111828210171561301957613019612fb3565b604052919050565b5f8060408385031215613032575f80fd5b823561303d81612f8f565b915060208381013567ffffffffffffffff8082111561305a575f80fd5b818601915086601f83011261306d575f80fd5b81358181111561307f5761307f612fb3565b613091601f8201601f19168501612ff0565b915080825287848285010111156130a6575f80fd5b80848401858401375f848284010152508093505050509250929050565b5f8083601f8401126130d3575f80fd5b50813567ffffffffffffffff8111156130ea575f80fd5b6020830191508360208260061b8501011115612e1e575f80fd5b5f60408284031215613114575f80fd5b50919050565b5f805f805f805f805f805f6101208c8e031215613135575f80fd5b67ffffffffffffffff808d35111561314b575f80fd5b6131588e8e358f016130c3565b909c509a5061316a8e60208f01613104565b99506131798e60608f01613104565b985060a08d013597508060c08e01351115613192575f80fd5b6131a28e60c08f01358f01612ef8565b909750955060e08d01358110156131b7575f80fd5b6131c78e60e08f01358f01612de0565b90955093506101008d01358110156131dd575f80fd5b506131ef8d6101008e01358e01612de0565b81935080925050509295989b509295989b9093969950565b5f805f805f805f805f805f6101008c8e031215613222575f80fd5b67ffffffffffffffff808d351115613238575f80fd5b6132458e8e358f016130c3565b909c509a506132578e60208f01613104565b995060608d013598508060808e01351115613270575f80fd5b6132808e60808f01358f01612ef8565b909850965061329160a08e01612fa3565b95508060c08e013511156132a3575f80fd5b6132b38e60c08f01358f01612de0565b909550935060e08d01358110156132c8575f80fd5b506131ef8d60e08e01358e01612de0565b60ff60f81b881681525f602060e060208401526132f960e084018a612ebb565b838103604085015261330b818a612ebb565b606085018990526001600160a01b038816608086015260a0850187905284810360c0860152855180825260208088019350909101905f5b8181101561335e57835183529284019291840191600101613342565b50909c9b505050505050505050505050565b5f60208284031215613380575f80fd5b8135612c4a81612f8f565b600181811c9082168061339f57607f821691505b60208210810361311457634e487b7160e01b5f52602260045260245ffd5b601f821115611da957805f5260205f20601f840160051c810160208510156133e25750805b601f840160051c820191505b81811015613401575f81556001016133ee565b5050505050565b67ffffffffffffffff83111561342057613420612fb3565b6134348361342e835461338b565b836133bd565b5f601f841160018114613465575f851561344e5750838201355b5f19600387901b1c1916600186901b178355613401565b5f83815260208120601f198716915b828110156134945786850135825560209485019460019092019101613474565b50868210156134b0575f1960f88860031b161c19848701351681555b505060018560011b0183555050505050565b81835281816020850137505f828201602090810191909152601f909101601f19169091010190565b5f828254808552602080860195506005818360051b850101865f52825f205f5b8581101561359d57601f19878403018a525f82546135278161338b565b80865260018281168015613542576001811461355b57613586565b60ff198416888b0152821515891b88018a019450613586565b865f52895f205f5b8481101561357e5781548a82018d0152908301908b01613563565b89018b019550505b509c88019c9295505050919091019060010161350a565b509098975050505050505050565b604081525f6135be6040830185876134c2565b82810360208401526135d081856134ea565b9695505050505050565b5f85516135eb818460208a01612e99565b61103b60f11b908301908152855161360a816002840160208a01612e99565b808201915050601760f91b806002830152855161362e816003850160208a01612e99565b60039201918201528351613649816004840160208801612e99565b016004019695505050505050565b602081528160208201525f7f07ffffffffffffffffffffffffffffffffffffffffffffffffffffffffffffff83111561368e575f80fd5b8260051b80856040850137919091016040019392505050565b5f67ffffffffffffffff8211156136c0576136c0612fb3565b5060051b60200190565b5f60208083850312156136db575f80fd5b825167ffffffffffffffff808211156136f2575f80fd5b818501915085601f830112613705575f80fd5b8151613718613713826136a7565b612ff0565b81815260059190911b83018401908481019088831115613736575f80fd5b8585015b8381101561381957805185811115613750575f80fd5b86016080818c03601f19011215613765575f80fd5b61376d612fc7565b8882015181526040808301518a830152606083015181830152608083015188811115613797575f80fd5b8084019350508c603f8401126137ab575f80fd5b898301516137bb613713826136a7565b81815260059190911b84018201908b8101908f8311156137d9575f80fd5b948301945b8286101561380357855193506137f384612f8f565b838252948c0194908c01906137de565b606085015250505084525091860191860161373a565b5098975050505050505050565b5f6001820161384357634e487b7160e01b5f52601160045260245ffd5b5060010190565b5f82825180855260208086019550808260051b8401018186015f5b848110156138ed57858303601f190189528151805184528481015185850152604080820151908501526060908101516080918501829052805191850182905285019060a08501905f905b808210156138d85783516001600160a01b031683529287019291870191600191909101906138af565b50509985019993505090830190600101613865565b5090979650505050505050565b602081525f612c4a602083018461384a565b6001600160a01b038481168252604060208084018290528382018590525f92869160608601855b8881101561396257843582528285013561394c81612f8f565b8416828401529385019390850190600101613933565b509998505050505050505050565b634e487b7160e01b5f52603260045260245ffd5b8183525f60208085019450825f5b858110156139c05781356139a581612f8f565b6001600160a01b031687529582019590820190600101613992565b509495945050505050565b6001600160a01b0384168152604060208201525f612a8f604083018486613984565b8581525f6001600160a01b03808716602084015280861660408401525060806060830152613a1f608083018486613984565b979650505050505050565b602080825282518282018190525f9190848201906040850190845b81811015613a6157835183529284019291840191600101613a45565b50909695505050505050565b815167ffffffffffffffff811115613a8757613a87612fb3565b613a9b81613a95845461338b565b846133bd565b602080601f831160018114613ace575f8415613ab75750858301515b5f19600386901b1c1916600185901b1785556120cc565b5f85815260208120601f198616915b82811015613afc57888601518255948401946001909101908401613add565b5085821015613b1957878501515f19600388901b60f8161c191681555b5050505050600190811b01905550565b606081525f613b3b606083018761384a565b6001600160a01b03861660208401528281036040840152613a1f8185876134c2565b604081525f613b6f60408301856134ea565b8281036020840152612a8f81856134ea565b81515f9082906020808601845b83811015613baa57815185529382019390820190600101613b8e565b50929695505050505050565b5f60208284031215613bc6575f80fd5b5051919050565b602081525f613be06020830184866134c2565b949350505050565b81515f9082906020808601845b83811015613baa5781516001600160a01b031685529382019390820190600101613bf5565b634e487b7160e01b5f52602160045260245ffd5b5f8251613c3f818460208701612e99565b919091019291505056fe5075626c696344656372797074566572696669636174696f6e28627974657333325b5d20637448616e646c65732c627974657320646563727970746564526573756c7429557365724465637279707452657175657374566572696669636174696f6e286279746573207075626c69634b65792c616464726573735b5d20636f6e74726163744164647265737365732c75696e7432353620636f6e747261637473436861696e49642c75696e7432353620737461727454696d657374616d702c75696e74323536206475726174696f6e446179732944656c656761746564557365724465637279707452657175657374566572696669636174696f6e286279746573207075626c69634b65792c616464726573735b5d20636f6e74726163744164647265737365732c616464726573732064656c6567617465644163636f756e742c75696e7432353620636f6e747261637473436861696e49642c75696e7432353620737461727454696d657374616d702c75696e74323536206475726174696f6e44617973295573657244656372797074526573706f6e7365566572696669636174696f6e286279746573207075626c69634b65792c627974657333325b5d20637448616e646c65732c6279746573207265656e63727970746564536861726529a164736f6c6343000818000a",
  "linkReferences": {},
  "deployedLinkReferences": {}
}