{
  "_format": "hh-sol-artifact-1",
  "contractName": "DecryptionManager",
  "sourceName": "contracts/DecryptionManager.sol",
  "abi": [
    {
      "inputs": [
        {
          "internalType": "contract IHTTPZ",
          "name": "httpz",
          "type": "address"
        },
        {
          "internalType": "contract IACLManager",
          "name": "aclManager",
          "type": "address"
        },
        {
          "internalType": "contract ICiphertextManager",
          "name": "ciphertextManager",
          "type": "address"
        },
        {
          "internalType": "address",
          "name": "paymentManager",
          "type": "address"
        }
      ],
      "stateMutability": "nonpayable",
      "type": "constructor"
    },
    {
      "inputs": [
        {
          "internalType": "uint8",
          "name": "maxLength",
          "type": "uint8"
        },
        {
          "internalType": "uint256",
          "name": "actualLength",
          "type": "uint256"
        }
      ],
      "name": "ContractAddressesMaxLengthExceeded",
      "type": "error"
    },
    {
      "inputs": [
        {
          "internalType": "address",
          "name": "contractAddress",
          "type": "address"
        }
      ],
      "name": "ContractNotInContractAddresses",
      "type": "error"
    },
    {
      "inputs": [
        {
          "internalType": "uint256",
          "name": "keyId",
          "type": "uint256"
        }
      ],
      "name": "DifferentKeyIdsNotAllowed",
      "type": "error"
    },
    {
      "inputs": [],
      "name": "ECDSAInvalidSignature",
      "type": "error"
    },
    {
      "inputs": [
        {
          "internalType": "uint256",
          "name": "length",
          "type": "uint256"
        }
      ],
      "name": "ECDSAInvalidSignatureLength",
      "type": "error"
    },
    {
      "inputs": [
        {
          "internalType": "bytes32",
          "name": "s",
          "type": "bytes32"
        }
      ],
      "name": "ECDSAInvalidSignatureS",
      "type": "error"
    },
    {
      "inputs": [],
      "name": "InvalidShortString",
      "type": "error"
    },
    {
      "inputs": [
        {
          "internalType": "bytes",
          "name": "signature",
          "type": "bytes"
        }
      ],
      "name": "InvalidUserSignature",
      "type": "error"
    },
    {
      "inputs": [
        {
          "internalType": "uint256",
          "name": "publicDecryptionId",
          "type": "uint256"
        },
        {
          "internalType": "address",
          "name": "signer",
          "type": "address"
        }
      ],
      "name": "KmsSignerAlreadyResponded",
      "type": "error"
    },
    {
      "inputs": [
        {
          "internalType": "uint256",
          "name": "maxValue",
          "type": "uint256"
        },
        {
          "internalType": "uint256",
          "name": "actualValue",
          "type": "uint256"
        }
      ],
      "name": "MaxDurationDaysExceeded",
      "type": "error"
    },
    {
      "inputs": [
        {
          "internalType": "address",
          "name": "owner",
          "type": "address"
        }
      ],
      "name": "OwnableInvalidOwner",
      "type": "error"
    },
    {
      "inputs": [
        {
          "internalType": "address",
          "name": "account",
          "type": "address"
        }
      ],
      "name": "OwnableUnauthorizedAccount",
      "type": "error"
    },
    {
      "inputs": [
        {
          "internalType": "string",
          "name": "str",
          "type": "string"
        }
      ],
      "name": "StringTooLong",
      "type": "error"
    },
    {
      "anonymous": false,
      "inputs": [],
      "name": "EIP712DomainChanged",
      "type": "event"
    },
    {
      "anonymous": false,
      "inputs": [
        {
          "indexed": true,
          "internalType": "address",
          "name": "previousOwner",
          "type": "address"
        },
        {
          "indexed": true,
          "internalType": "address",
          "name": "newOwner",
          "type": "address"
        }
      ],
      "name": "OwnershipTransferStarted",
      "type": "event"
    },
    {
      "anonymous": false,
      "inputs": [
        {
          "indexed": true,
          "internalType": "address",
          "name": "previousOwner",
          "type": "address"
        },
        {
          "indexed": true,
          "internalType": "address",
          "name": "newOwner",
          "type": "address"
        }
      ],
      "name": "OwnershipTransferred",
      "type": "event"
    },
    {
      "anonymous": false,
      "inputs": [
        {
          "indexed": true,
          "internalType": "uint256",
          "name": "publicDecryptionId",
          "type": "uint256"
        },
        {
          "components": [
            {
              "internalType": "uint256",
              "name": "ctHandle",
              "type": "uint256"
            },
            {
              "internalType": "uint256",
              "name": "keyId",
              "type": "uint256"
            },
            {
              "internalType": "bytes32",
              "name": "snsCiphertextDigest",
              "type": "bytes32"
            },
            {
              "internalType": "address[]",
              "name": "coprocessorAddresses",
              "type": "address[]"
            }
          ],
          "indexed": false,
          "internalType": "struct SnsCiphertextMaterial[]",
          "name": "snsCtMaterials",
          "type": "tuple[]"
        }
      ],
      "name": "PublicDecryptionRequest",
      "type": "event"
    },
    {
      "anonymous": false,
      "inputs": [
        {
          "indexed": true,
          "internalType": "uint256",
          "name": "publicDecryptionId",
          "type": "uint256"
        },
        {
          "indexed": false,
          "internalType": "bytes",
          "name": "decryptedResult",
          "type": "bytes"
        },
        {
          "indexed": false,
          "internalType": "bytes[]",
          "name": "signatures",
          "type": "bytes[]"
        }
      ],
      "name": "PublicDecryptionResponse",
      "type": "event"
    },
    {
      "anonymous": false,
      "inputs": [
        {
          "indexed": true,
          "internalType": "uint256",
          "name": "userDecryptionId",
          "type": "uint256"
        },
        {
          "components": [
            {
              "internalType": "uint256",
              "name": "ctHandle",
              "type": "uint256"
            },
            {
              "internalType": "uint256",
              "name": "keyId",
              "type": "uint256"
            },
            {
              "internalType": "bytes32",
              "name": "snsCiphertextDigest",
              "type": "bytes32"
            },
            {
              "internalType": "address[]",
              "name": "coprocessorAddresses",
              "type": "address[]"
            }
          ],
          "indexed": false,
          "internalType": "struct SnsCiphertextMaterial[]",
          "name": "snsCtMaterials",
          "type": "tuple[]"
        },
        {
          "indexed": false,
          "internalType": "bytes",
          "name": "publicKey",
          "type": "bytes"
        }
      ],
      "name": "UserDecryptionRequest",
      "type": "event"
    },
    {
      "anonymous": false,
      "inputs": [
        {
          "indexed": true,
          "internalType": "uint256",
          "name": "userDecryptionId",
          "type": "uint256"
        },
        {
          "indexed": false,
          "internalType": "bytes[]",
          "name": "reencryptedShares",
          "type": "bytes[]"
        },
        {
          "indexed": false,
          "internalType": "bytes[]",
          "name": "signatures",
          "type": "bytes[]"
        }
      ],
      "name": "UserDecryptionResponse",
      "type": "event"
    },
    {
      "inputs": [],
      "name": "EIP712_DELEGATED_USER_DECRYPT_REQUEST_TYPE",
      "outputs": [
        {
          "internalType": "string",
          "name": "",
          "type": "string"
        }
      ],
      "stateMutability": "view",
      "type": "function"
    },
    {
      "inputs": [],
      "name": "EIP712_DELEGATED_USER_DECRYPT_REQUEST_TYPE_HASH",
      "outputs": [
        {
          "internalType": "bytes32",
          "name": "",
          "type": "bytes32"
        }
      ],
      "stateMutability": "view",
      "type": "function"
    },
    {
      "inputs": [],
      "name": "EIP712_PUBLIC_DECRYPT_TYPE",
      "outputs": [
        {
          "internalType": "string",
          "name": "",
          "type": "string"
        }
      ],
      "stateMutability": "view",
      "type": "function"
    },
    {
      "inputs": [],
      "name": "EIP712_PUBLIC_DECRYPT_TYPE_HASH",
      "outputs": [
        {
          "internalType": "bytes32",
          "name": "",
          "type": "bytes32"
        }
      ],
      "stateMutability": "view",
      "type": "function"
    },
    {
      "inputs": [],
      "name": "EIP712_USER_DECRYPT_REQUEST_TYPE",
      "outputs": [
        {
          "internalType": "string",
          "name": "",
          "type": "string"
        }
      ],
      "stateMutability": "view",
      "type": "function"
    },
    {
      "inputs": [],
      "name": "EIP712_USER_DECRYPT_REQUEST_TYPE_HASH",
      "outputs": [
        {
          "internalType": "bytes32",
          "name": "",
          "type": "bytes32"
        }
      ],
      "stateMutability": "view",
      "type": "function"
    },
    {
      "inputs": [],
      "name": "EIP712_USER_DECRYPT_RESPONSE_TYPE",
      "outputs": [
        {
          "internalType": "string",
          "name": "",
          "type": "string"
        }
      ],
      "stateMutability": "view",
      "type": "function"
    },
    {
      "inputs": [],
      "name": "EIP712_USER_DECRYPT_RESPONSE_TYPE_HASH",
      "outputs": [
        {
          "internalType": "bytes32",
          "name": "",
          "type": "bytes32"
        }
      ],
      "stateMutability": "view",
      "type": "function"
    },
    {
      "inputs": [],
      "name": "acceptOwnership",
      "outputs": [],
      "stateMutability": "nonpayable",
      "type": "function"
    },
    {
      "inputs": [
        {
          "components": [
            {
              "internalType": "uint256",
              "name": "ctHandle",
              "type": "uint256"
            },
            {
              "internalType": "address",
              "name": "contractAddress",
              "type": "address"
            }
          ],
          "internalType": "struct CtHandleContractPair[]",
          "name": "ctHandleContractPairs",
          "type": "tuple[]"
        },
        {
          "components": [
            {
              "internalType": "uint256",
              "name": "startTimestamp",
              "type": "uint256"
            },
            {
              "internalType": "uint256",
              "name": "durationDays",
              "type": "uint256"
            }
          ],
          "internalType": "struct IDecryptionManager.RequestValidity",
          "name": "requestValidity",
          "type": "tuple"
        },
        {
          "components": [
            {
              "internalType": "address",
              "name": "userAddress",
              "type": "address"
            },
            {
              "internalType": "address",
              "name": "delegatedAddress",
              "type": "address"
            }
          ],
          "internalType": "struct IDecryptionManager.DelegationAccounts",
          "name": "delegationAccounts",
          "type": "tuple"
        },
        {
          "internalType": "uint256",
          "name": "contractsChainId",
          "type": "uint256"
        },
        {
          "internalType": "address[]",
          "name": "contractAddresses",
          "type": "address[]"
        },
        {
          "internalType": "bytes",
          "name": "publicKey",
          "type": "bytes"
        },
        {
          "internalType": "bytes",
          "name": "signature",
          "type": "bytes"
        }
      ],
      "name": "delegatedUserDecryptionRequest",
      "outputs": [],
      "stateMutability": "nonpayable",
      "type": "function"
    },
    {
      "inputs": [],
      "name": "eip712Domain",
      "outputs": [
        {
          "internalType": "bytes1",
          "name": "fields",
          "type": "bytes1"
        },
        {
          "internalType": "string",
          "name": "name",
          "type": "string"
        },
        {
          "internalType": "string",
          "name": "version",
          "type": "string"
        },
        {
          "internalType": "uint256",
          "name": "chainId",
          "type": "uint256"
        },
        {
          "internalType": "address",
          "name": "verifyingContract",
          "type": "address"
        },
        {
          "internalType": "bytes32",
          "name": "salt",
          "type": "bytes32"
        },
        {
          "internalType": "uint256[]",
          "name": "extensions",
          "type": "uint256[]"
        }
      ],
      "stateMutability": "view",
      "type": "function"
    },
    {
      "inputs": [],
      "name": "getVersion",
      "outputs": [
        {
          "internalType": "string",
          "name": "",
          "type": "string"
        }
      ],
      "stateMutability": "pure",
      "type": "function"
    },
    {
      "inputs": [
        {
          "internalType": "uint256",
          "name": "publicDecryptionId",
          "type": "uint256"
        }
      ],
      "name": "isPublicDecryptionDone",
      "outputs": [
        {
          "internalType": "bool",
          "name": "",
          "type": "bool"
        }
      ],
      "stateMutability": "view",
      "type": "function"
    },
    {
      "inputs": [
        {
          "internalType": "uint256",
          "name": "userDecryptionId",
          "type": "uint256"
        }
      ],
      "name": "isUserDecryptionDone",
      "outputs": [
        {
          "internalType": "bool",
          "name": "",
          "type": "bool"
        }
      ],
      "stateMutability": "view",
      "type": "function"
    },
    {
      "inputs": [],
      "name": "owner",
      "outputs": [
        {
          "internalType": "address",
          "name": "",
          "type": "address"
        }
      ],
      "stateMutability": "view",
      "type": "function"
    },
    {
      "inputs": [],
      "name": "pendingOwner",
      "outputs": [
        {
          "internalType": "address",
          "name": "",
          "type": "address"
        }
      ],
      "stateMutability": "view",
      "type": "function"
    },
    {
      "inputs": [
        {
          "internalType": "uint256[]",
          "name": "ctHandles",
          "type": "uint256[]"
        }
      ],
      "name": "publicDecryptionRequest",
      "outputs": [],
      "stateMutability": "nonpayable",
      "type": "function"
    },
    {
      "inputs": [
        {
          "internalType": "uint256",
          "name": "publicDecryptionId",
          "type": "uint256"
        },
        {
          "internalType": "bytes",
          "name": "decryptedResult",
          "type": "bytes"
        },
        {
          "internalType": "bytes",
          "name": "signature",
          "type": "bytes"
        }
      ],
      "name": "publicDecryptionResponse",
      "outputs": [],
      "stateMutability": "nonpayable",
      "type": "function"
    },
    {
      "inputs": [],
      "name": "renounceOwnership",
      "outputs": [],
      "stateMutability": "nonpayable",
      "type": "function"
    },
    {
      "inputs": [
        {
          "internalType": "address",
          "name": "newOwner",
          "type": "address"
        }
      ],
      "name": "transferOwnership",
      "outputs": [],
      "stateMutability": "nonpayable",
      "type": "function"
    },
    {
      "inputs": [
        {
          "components": [
            {
              "internalType": "uint256",
              "name": "ctHandle",
              "type": "uint256"
            },
            {
              "internalType": "address",
              "name": "contractAddress",
              "type": "address"
            }
          ],
          "internalType": "struct CtHandleContractPair[]",
          "name": "ctHandleContractPairs",
          "type": "tuple[]"
        },
        {
          "components": [
            {
              "internalType": "uint256",
              "name": "startTimestamp",
              "type": "uint256"
            },
            {
              "internalType": "uint256",
              "name": "durationDays",
              "type": "uint256"
            }
          ],
          "internalType": "struct IDecryptionManager.RequestValidity",
          "name": "requestValidity",
          "type": "tuple"
        },
        {
          "internalType": "uint256",
          "name": "contractsChainId",
          "type": "uint256"
        },
        {
          "internalType": "address[]",
          "name": "contractAddresses",
          "type": "address[]"
        },
        {
          "internalType": "address",
          "name": "userAddress",
          "type": "address"
        },
        {
          "internalType": "bytes",
          "name": "publicKey",
          "type": "bytes"
        },
        {
          "internalType": "bytes",
          "name": "signature",
          "type": "bytes"
        }
      ],
      "name": "userDecryptionRequest",
      "outputs": [],
      "stateMutability": "nonpayable",
      "type": "function"
    },
    {
      "inputs": [
        {
          "internalType": "uint256",
          "name": "userDecryptionId",
          "type": "uint256"
        },
        {
          "internalType": "bytes",
          "name": "reencryptedShare",
          "type": "bytes"
        },
        {
          "internalType": "bytes",
          "name": "signature",
          "type": "bytes"
        }
      ],
      "name": "userDecryptionResponse",
      "outputs": [],
      "stateMutability": "nonpayable",
      "type": "function"
    }
  ],
  "bytecode": "0x6101e06040523480156200001257600080fd5b5060405162005c8a38038062005c8a83398181016040528101906200003891906200061c565b6040518060400160405280601181526020017f44656372797074696f6e4d616e616765720000000000000000000000000000008152506040518060400160405280600181526020017f310000000000000000000000000000000000000000000000000000000000000081525033600073ffffffffffffffffffffffffffffffffffffffff168173ffffffffffffffffffffffffffffffffffffffff16036200011a5760006040517f1e4fbdf70000000000000000000000000000000000000000000000000000000081526004016200011191906200069f565b60405180910390fd5b6200012b81620002ba60201b60201c565b5062000142600283620002f360201b90919060201c565b610120818152505062000160600382620002f360201b90919060201c565b6101408181525050818051906020012060e08181525050808051906020012061010081815250504660a081815250506200019f6200034b60201b60201c565b608081815250503073ffffffffffffffffffffffffffffffffffffffff1660c08173ffffffffffffffffffffffffffffffffffffffff168152505050508373ffffffffffffffffffffffffffffffffffffffff166101608173ffffffffffffffffffffffffffffffffffffffff16815250508273ffffffffffffffffffffffffffffffffffffffff166101808173ffffffffffffffffffffffffffffffffffffffff16815250508173ffffffffffffffffffffffffffffffffffffffff166101a08173ffffffffffffffffffffffffffffffffffffffff16815250508073ffffffffffffffffffffffffffffffffffffffff166101c08173ffffffffffffffffffffffffffffffffffffffff16815250505050505062000bfb565b600160006101000a81549073ffffffffffffffffffffffffffffffffffffffff0219169055620002f081620003a860201b60201c565b50565b6000602083511015620003195762000311836200046c60201b60201c565b905062000345565b826200032b83620004d960201b60201c565b60000190816200033c919062000936565b5060ff60001b90505b92915050565b60007f8b73c3c69bb8fe3d512ecc4cf759cc79239f7b179b0ffacaa9a75d522b39400f60e0516101005146306040516020016200038d95949392919062000a49565b60405160208183030381529060405280519060200120905090565b60008060009054906101000a900473ffffffffffffffffffffffffffffffffffffffff169050816000806101000a81548173ffffffffffffffffffffffffffffffffffffffff021916908373ffffffffffffffffffffffffffffffffffffffff1602179055508173ffffffffffffffffffffffffffffffffffffffff168173ffffffffffffffffffffffffffffffffffffffff167f8be0079c531659141344cd1fd0a4f28419497f9722a3daafe3b4186f6b6457e060405160405180910390a35050565b600080829050601f81511115620004bc57826040517f305a27a9000000000000000000000000000000000000000000000000000000008152600401620004b3919062000b35565b60405180910390fd5b805181620004ca9062000b8b565b60001c1760001b915050919050565b6000819050919050565b600080fd5b600073ffffffffffffffffffffffffffffffffffffffff82169050919050565b60006200051582620004e8565b9050919050565b6000620005298262000508565b9050919050565b6200053b816200051c565b81146200054757600080fd5b50565b6000815190506200055b8162000530565b92915050565b60006200056e8262000508565b9050919050565b620005808162000561565b81146200058c57600080fd5b50565b600081519050620005a08162000575565b92915050565b6000620005b38262000508565b9050919050565b620005c581620005a6565b8114620005d157600080fd5b50565b600081519050620005e581620005ba565b92915050565b620005f68162000508565b81146200060257600080fd5b50565b6000815190506200061681620005eb565b92915050565b60008060008060808587031215620006395762000638620004e3565b5b600062000649878288016200054a565b94505060206200065c878288016200058f565b93505060406200066f87828801620005d4565b9250506060620006828782880162000605565b91505092959194509250565b620006998162000508565b82525050565b6000602082019050620006b660008301846200068e565b92915050565b600081519050919050565b7f4e487b7100000000000000000000000000000000000000000000000000000000600052604160045260246000fd5b7f4e487b7100000000000000000000000000000000000000000000000000000000600052602260045260246000fd5b600060028204905060018216806200073e57607f821691505b602082108103620007545762000753620006f6565b5b50919050565b60008190508160005260206000209050919050565b60006020601f8301049050919050565b600082821b905092915050565b600060088302620007be7fffffffffffffffffffffffffffffffffffffffffffffffffffffffffffffffff826200077f565b620007ca86836200077f565b95508019841693508086168417925050509392505050565b6000819050919050565b6000819050919050565b600062000817620008116200080b84620007e2565b620007ec565b620007e2565b9050919050565b6000819050919050565b6200083383620007f6565b6200084b62000842826200081e565b8484546200078c565b825550505050565b600090565b6200086262000853565b6200086f81848462000828565b505050565b5b8181101562000897576200088b60008262000858565b60018101905062000875565b5050565b601f821115620008e657620008b0816200075a565b620008bb846200076f565b81016020851015620008cb578190505b620008e3620008da856200076f565b83018262000874565b50505b505050565b600082821c905092915050565b60006200090b60001984600802620008eb565b1980831691505092915050565b6000620009268383620008f8565b9150826002028217905092915050565b6200094182620006bc565b67ffffffffffffffff8111156200095d576200095c620006c7565b5b62000969825462000725565b620009768282856200089b565b600060209050601f831160018114620009ae576000841562000999578287015190505b620009a5858262000918565b86555062000a15565b601f198416620009be866200075a565b60005b82811015620009e857848901518255600182019150602085019450602081019050620009c1565b8683101562000a08578489015162000a04601f891682620008f8565b8355505b6001600288020188555050505b505050505050565b6000819050919050565b62000a328162000a1d565b82525050565b62000a4381620007e2565b82525050565b600060a08201905062000a60600083018862000a27565b62000a6f602083018762000a27565b62000a7e604083018662000a27565b62000a8d606083018562000a38565b62000a9c60808301846200068e565b9695505050505050565b600082825260208201905092915050565b60005b8381101562000ad757808201518184015260208101905062000aba565b60008484015250505050565b6000601f19601f8301169050919050565b600062000b0182620006bc565b62000b0d818562000aa6565b935062000b1f81856020860162000ab7565b62000b2a8162000ae3565b840191505092915050565b6000602082019050818103600083015262000b51818462000af4565b905092915050565b600081519050919050565b6000819050602082019050919050565b600062000b82825162000a1d565b80915050919050565b600062000b988262000b59565b8262000ba48462000b64565b905062000bb18162000b74565b9250602082101562000bf45762000bef7fffffffffffffffffffffffffffffffffffffffffffffffffffffffffffffffff836020036008026200077f565b831692505b5050919050565b60805160a05160c05160e05161010051610120516101405161016051610180516101a0516101c051614fe162000ca960003960005050600081816109a5015281816111b001526118fc015260008181610d0801528181610ff7015261186f015260008181611c2001528181611dbe01526124030152600061232f015260006122f401526000612c6701526000612c46015260006128f90152600061294f015260006129780152614fe16000f3fe608060405234801561001057600080fd5b50600436106101425760003560e01c806379ba5097116100b8578063b9bfe0a81161007c578063b9bfe0a814610323578063e2a7b2f11461033f578063e30c39781461035b578063e3342f1614610379578063e4c33a3d14610397578063f2fde38b146103b557610142565b806379ba5097146102895780637e11db071461029357806384b0196e146102c35780638da5cb5b146102e7578063ab7325dd1461030557610142565b806330a988aa1161010a57806330a988aa146101d9578063373dce8a146101f757806339716a5b14610227578063578d9671146102435780636cde957914610261578063715018a61461027f57610142565b806302fd1a641461014757806306a4b503146101635780630d8e6e2c1461017f5780632538a7e11461019d5780632eafb7db146101bb575b600080fd5b610161600480360381019061015c9190612f61565b6103d1565b005b61017d60048036038101906101789190613124565b6106ac565b005b610187610b5b565b60405161019491906132d9565b60405180910390f35b6101a5610bd8565b6040516101b29190613314565b60405180910390f35b6101c3610bfb565b6040516101d091906132d9565b60405180910390f35b6101e1610c17565b6040516101ee91906132d9565b60405180910390f35b610211600480360381019061020c919061332f565b610c33565b60405161021e9190613377565b60405180910390f35b610241600480360381019061023c91906133b1565b610c5d565b005b61024b611367565b6040516102589190613314565b60405180910390f35b61026961138a565b60405161027691906132d9565b60405180910390f35b6102876113a6565b005b6102916113ba565b005b6102ad60048036038101906102a8919061332f565b611449565b6040516102ba9190613377565b60405180910390f35b6102cb611473565b6040516102de97969594939291906135ee565b60405180910390f35b6102ef61151d565b6040516102fc9190613672565b60405180910390f35b61030d611546565b60405161031a9190613314565b60405180910390f35b61033d60048036038101906103389190612f61565b611569565b005b610359600480360381019061035491906136e3565b61186d565b005b610363611a26565b6040516103709190613672565b60405180910390f35b610381611a50565b60405161038e91906132d9565b60405180910390f35b61039f611a6c565b6040516103ac9190613314565b60405180910390f35b6103cf60048036038101906103ca9190613730565b611a8f565b005b600060405180604001604052806007600089815260200190815260200160002080548060200260200160405190810160405280929190818152602001828054801561043b57602002820191906000526020600020905b815481526020019060010190808311610427575b5050505050815260200186868080601f016020809104026020016040519081016040528093929190818152602001838380828437600081840152601f19601f820116905080830192505050505050508152509050600061049a82611b3c565b90506104a887828686611bcc565b6005600088815260200190815260200160002060008281526020019081526020016000208484909180600181540180825580915050600190039060005260206000200160009091929091929091929091925091826105079291906139a3565b506000600560008981526020019081526020016000206000838152602001908152602001600020805480602002602001604051908101604052809291908181526020016000905b828210156105fa57838290600052602060002001805461056d906137c6565b80601f0160208091040260200160405190810160405280929190818152602001828054610599906137c6565b80156105e65780601f106105bb576101008083540402835291602001916105e6565b820191906000526020600020905b8154815290600101906020018083116105c957829003601f168201915b50505050508152602001906001019061054e565b5050505090506008600089815260200190815260200160002060009054906101000a900460ff1615801561063457506106338151611db9565b5b156106a2576001600860008a815260200190815260200160002060006101000a81548160ff021916908315150217905550877f61568d6eb48e62870afffd55499206a54a8f78b04a627e00ed097161fc05d6be88888460405161069993929190613bd7565b60405180910390a25b5050505050505050565b600a60ff168787905011156106fe57600a878790506040517fc5ab467e0000000000000000000000000000000000000000000000000000000081526004016106f5929190613c2c565b60405180910390fd5b61016d61ffff16896020013511156107555761016d89602001356040517f3295186300000000000000000000000000000000000000000000000000000000815260040161074c929190613c94565b60405180910390fd5b60006040518060a0016040528086868080601f016020809104026020016040519081016040528093929190818152602001838380828437600081840152601f19601f820116905080830192505050505050508152602001898980806020026020016040519081016040528093929190818152602001838360200280828437600081840152601f19601f8201169050808301925050505050505081526020018a81526020018b6000013581526020018b60200135815250905061081981878585611e59565b60008c8c905067ffffffffffffffff81111561083857610837613768565b5b6040519080825280602002602001820160405280156108665781602001602082028036833780820191505090505b50905060005b8d8d90508110156109a0576108ec8a8a80806020026020016040519081016040528093929190818152602001838360200280828437600081840152601f19601f820116905080830192505050505050508f8f848181106108cf576108ce613cbd565b5b90506040020160200160208101906108e79190613730565b611f32565b610957578d8d8281811061090357610902613cbd565b5b905060400201602001602081019061091b9190613730565b6040517ff156888b00000000000000000000000000000000000000000000000000000000815260040161094e9190613672565b60405180910390fd5b8d8d8281811061096a57610969613cbd565b5b9050604002016000013582828151811061098757610986613cbd565b5b602002602001018181525050808060010191505061086c565b5060007f000000000000000000000000000000000000000000000000000000000000000073ffffffffffffffffffffffffffffffffffffffff16634fd790cf836040518263ffffffff1660e01b81526004016109fc9190613cec565b600060405180830381865afa158015610a19573d6000803e3d6000fd5b505050506040513d6000823e3d601f19601f82011682018060405250810190610a429190613ff2565b9050610a4d81611fb3565b60066000815480929190610a609061406a565b919050555060006006549050604051806040016040528089898080601f016020809104026020016040519081016040528093929190818152602001838380828437600081840152601f19601f82011690508083019250505050505050815260200184815250600960008381526020019081526020016000206000820151816000019081610aed91906140b2565b506020820151816001019080519060200190610b0a929190612dfb565b50905050807f06007bfb7e3d18bc24246841480def3706bacf85ed5d7dd4fa4db09b522d6b4f838a8a604051610b4293929190614376565b60405180910390a2505050505050505050505050505050565b60606040518060400160405280601181526020017f44656372797074696f6e4d616e61676572000000000000000000000000000000815250610b9d6000612084565b610ba76001612084565b610bb16000612084565b604051602001610bc49493929190614483565b604051602081830303815290604052905090565b6040518060800160405280605b8152602001614f0d605b91398051906020012081565b604051806080016040528060448152602001614f686044913981565b6040518060c0016040528060908152602001614dcb6090913981565b6000600a600083815260200190815260200160002060009054906101000a900460ff169050919050565b600a60ff16868690501115610caf57600a868690506040517fc5ab467e000000000000000000000000000000000000000000000000000000008152600401610ca6929190613c2c565b60405180910390fd5b61016d61ffff1689602001351115610d065761016d89602001356040517f32951863000000000000000000000000000000000000000000000000000000008152600401610cfd929190613c94565b60405180910390fd5b7f000000000000000000000000000000000000000000000000000000000000000073ffffffffffffffffffffffffffffffffffffffff16637779ec7d896020016020810190610d559190613730565b8d8d6040518463ffffffff1660e01b8152600401610d75939291906145f7565b60006040518083038186803b158015610d8d57600080fd5b505afa158015610da1573d6000803e3d6000fd5b5050505060008b8b905067ffffffffffffffff811115610dc457610dc3613768565b5b604051908082528060200260200182016040528015610df25781602001602082028036833780820191505090505b50905060008c8c905067ffffffffffffffff811115610e1457610e13613768565b5b604051908082528060200260200182016040528015610e425781602001602082028036833780820191505090505b50905060005b8d8d9050811015610ff457610ec8898980806020026020016040519081016040528093929190818152602001838360200280828437600081840152601f19601f820116905080830192505050505050508f8f84818110610eab57610eaa613cbd565b5b9050604002016020016020810190610ec39190613730565b611f32565b610f33578d8d82818110610edf57610ede613cbd565b5b9050604002016020016020810190610ef79190613730565b6040517ff156888b000000000000000000000000000000000000000000000000000000008152600401610f2a9190613672565b60405180910390fd5b8d8d82818110610f4657610f45613cbd565b5b90506040020160000135838281518110610f6357610f62613cbd565b5b6020026020010181815250508d8d82818110610f8257610f81613cbd565b5b9050604002016020016020810190610f9a9190613730565b828281518110610fad57610fac613cbd565b5b602002602001019073ffffffffffffffffffffffffffffffffffffffff16908173ffffffffffffffffffffffffffffffffffffffff16815250508080600101915050610e48565b507f000000000000000000000000000000000000000000000000000000000000000073ffffffffffffffffffffffffffffffffffffffff16634f20c8c08a8c60000160208101906110459190613730565b8d60200160208101906110589190613730565b856040518563ffffffff1660e01b81526004016110789493929190614698565b60006040518083038186803b15801561109057600080fd5b505afa1580156110a4573d6000803e3d6000fd5b5050505060006040518060c0016040528088888080601f016020809104026020016040519081016040528093929190818152602001838380828437600081840152601f19601f8201169050808301925050505050505081526020018a8a80806020026020016040519081016040528093929190818152602001838360200280828437600081840152601f19601f8201169050808301925050505050505081526020018c60200160208101906111599190613730565b73ffffffffffffffffffffffffffffffffffffffff1681526020018b81526020018d6000013581526020018d6020013581525090506111ac818c60000160208101906111a59190613730565b8787612152565b60007f000000000000000000000000000000000000000000000000000000000000000073ffffffffffffffffffffffffffffffffffffffff16634fd790cf856040518263ffffffff1660e01b81526004016112079190613cec565b600060405180830381865afa158015611224573d6000803e3d6000fd5b505050506040513d6000823e3d601f19601f8201168201806040525081019061124d9190613ff2565b905061125881611fb3565b6006600081548092919061126b9061406a565b91905055506000600654905060405180604001604052808a8a8080601f016020809104026020016040519081016040528093929190818152602001838380828437600081840152601f19601f820116905080830192505050505050508152602001868152506009600083815260200190815260200160002060008201518160000190816112f891906140b2565b506020820151816001019080519060200190611315929190612dfb565b50905050807f06007bfb7e3d18bc24246841480def3706bacf85ed5d7dd4fa4db09b522d6b4f838b8b60405161134d93929190614376565b60405180910390a250505050505050505050505050505050565b6040518060e0016040528060b28152602001614e5b60b291398051906020012081565b6040518060e0016040528060b28152602001614e5b60b2913981565b6113ae61222b565b6113b860006122b2565b565b60006113c46122e3565b90508073ffffffffffffffffffffffffffffffffffffffff166113e5611a26565b73ffffffffffffffffffffffffffffffffffffffff161461143d57806040517f118cdaa70000000000000000000000000000000000000000000000000000000081526004016114349190613672565b60405180910390fd5b611446816122b2565b50565b60006008600083815260200190815260200160002060009054906101000a900460ff169050919050565b6000606080600080600060606114876122eb565b61148f612326565b46306000801b600067ffffffffffffffff8111156114b0576114af613768565b5b6040519080825280602002602001820160405280156114de5781602001602082028036833780820191505090505b507f0f00000000000000000000000000000000000000000000000000000000000000959493929190965096509650965096509650965090919293949596565b60008060009054906101000a900473ffffffffffffffffffffffffffffffffffffffff16905090565b604051806080016040528060448152602001614f68604491398051906020012081565b600060096000878152602001908152602001600020604051806040016040529081600082018054611599906137c6565b80601f01602080910402602001604051908101604052809291908181526020018280546115c5906137c6565b80156116125780601f106115e757610100808354040283529160200191611612565b820191906000526020600020905b8154815290600101906020018083116115f557829003601f168201915b505050505081526020016001820180548060200260200160405190810160405280929190818152602001828054801561166a57602002820191906000526020600020905b815481526020019060010190808311611656575b505050505081525050905060006040518060600160405280836000015181526020018360200151815260200187878080601f016020809104026020016040519081016040528093929190818152602001838380828437600081840152601f19601f82011690508083019250505050505050815250905060006116eb82612361565b90506116f988828787611bcc565b6000600560008a8152602001908152602001600020600083815260200190815260200160002090508086869091806001815401808255809150506001900390600052602060002001600090919290919290919290919250918261175d9291906139a3565b50600b60008a81526020019081526020016000208888909180600181540180825580915050600190039060005260206000200160009091929091929091929091925091826117ac9291906139a3565b50600a60008a815260200190815260200160002060009054906101000a900460ff161580156117e457506117e381805490506123fe565b5b15611862576001600a60008b815260200190815260200160002060006101000a81548160ff021916908315150217905550887f7312dec4cead0d5d3da836cdbaed1eb6a81e218c519c8740da4ac75afcb6c5c7600b60008c8152602001908152602001600020836040516118599291906148be565b60405180910390a25b505050505050505050565b7f000000000000000000000000000000000000000000000000000000000000000073ffffffffffffffffffffffffffffffffffffffff1663710c11a583836040518363ffffffff1660e01b81526004016118c892919061495f565b60006040518083038186803b1580156118e057600080fd5b505afa1580156118f4573d6000803e3d6000fd5b5050505060007f000000000000000000000000000000000000000000000000000000000000000073ffffffffffffffffffffffffffffffffffffffff16634fd790cf84846040518363ffffffff1660e01b815260040161195592919061495f565b600060405180830381865afa158015611972573d6000803e3d6000fd5b505050506040513d6000823e3d601f19601f8201168201806040525081019061199b9190613ff2565b90506119a681611fb3565b600660008154809291906119b99061406a565b91905055506000600654905083836007600084815260200190815260200160002091906119e7929190612e48565b50807f3cfc2aee45d607390bd77abd605865643c9243a65cec1b1c4e788400cc817a7083604051611a189190614983565b60405180910390a250505050565b6000600160009054906101000a900473ffffffffffffffffffffffffffffffffffffffff16905090565b6040518060800160405280605b8152602001614f0d605b913981565b6040518060c0016040528060908152602001614dcb609091398051906020012081565b611a9761222b565b80600160006101000a81548173ffffffffffffffffffffffffffffffffffffffff021916908373ffffffffffffffffffffffffffffffffffffffff1602179055508073ffffffffffffffffffffffffffffffffffffffff16611af761151d565b73ffffffffffffffffffffffffffffffffffffffff167f38d16b8cac22d99fc7c124b9cd0de2d3fa1faef420bfe791d8c362d765e2270060405160405180910390a350565b6000611bc5604051806080016040528060448152602001614f6860449139805190602001208360000151604051602001611b769190614a35565b60405160208183030381529060405280519060200120846020015180519060200120604051602001611baa93929190614a4c565b6040516020818303038152906040528051906020012061249e565b9050919050565b6000611c1c8484848080601f016020809104026020016040519081016040528093929190818152602001838380828437600081840152601f19601f820116905080830192505050505050506124b8565b90507f000000000000000000000000000000000000000000000000000000000000000073ffffffffffffffffffffffffffffffffffffffff166331f5faa1826040518263ffffffff1660e01b8152600401611c779190613672565b60006040518083038186803b158015611c8f57600080fd5b505afa158015611ca3573d6000803e3d6000fd5b505050506004600086815260200190815260200160002060008273ffffffffffffffffffffffffffffffffffffffff1673ffffffffffffffffffffffffffffffffffffffff16815260200190815260200160002060009054906101000a900460ff1615611d495784816040517fa1714c77000000000000000000000000000000000000000000000000000000008152600401611d40929190614a83565b60405180910390fd5b60016004600087815260200190815260200160002060008373ffffffffffffffffffffffffffffffffffffffff1673ffffffffffffffffffffffffffffffffffffffff16815260200190815260200160002060006101000a81548160ff0219169083151502179055505050505050565b6000807f000000000000000000000000000000000000000000000000000000000000000073ffffffffffffffffffffffffffffffffffffffff166347cd4b3e6040518163ffffffff1660e01b8152600401602060405180830381865afa158015611e27573d6000803e3d6000fd5b505050506040513d601f19601f82011682018060405250810190611e4b9190614aac565b905080831015915050919050565b6000611e64856124e4565b90506000611eb68285858080601f016020809104026020016040519081016040528093929190818152602001838380828437600081840152601f19601f820116905080830192505050505050506124b8565b90508473ffffffffffffffffffffffffffffffffffffffff168173ffffffffffffffffffffffffffffffffffffffff1614611f2a5783836040517f2a873d27000000000000000000000000000000000000000000000000000000008152600401611f21929190614ad9565b60405180910390fd5b505050505050565b600080600090505b8351811015611fa7578273ffffffffffffffffffffffffffffffffffffffff16848281518110611f6d57611f6c613cbd565b5b602002602001015173ffffffffffffffffffffffffffffffffffffffff1603611f9a576001915050611fad565b8080600101915050611f3a565b50600090505b92915050565b60018151111561208157600081600081518110611fd357611fd2613cbd565b5b60200260200101516020015190506000600190505b825181101561207e578183828151811061200557612004613cbd565b5b602002602001015160200151146120715782818151811061202957612028613cbd565b5b6020026020010151602001516040517ff90bc7f50000000000000000000000000000000000000000000000000000000081526004016120689190614afd565b60405180910390fd5b8080600101915050611fe8565b50505b50565b60606000600161209384612586565b01905060008167ffffffffffffffff8111156120b2576120b1613768565b5b6040519080825280601f01601f1916602001820160405280156120e45781602001600182028036833780820191505090505b509050600082602001820190505b600115612147578080600190039150507f3031323334353637383961626364656600000000000000000000000000000000600a86061a8153600a858161213b5761213a614b18565b5b049450600085036120f2575b819350505050919050565b600061215d856126d9565b905060006121af8285858080601f016020809104026020016040519081016040528093929190818152602001838380828437600081840152601f19601f820116905080830192505050505050506124b8565b90508473ffffffffffffffffffffffffffffffffffffffff168173ffffffffffffffffffffffffffffffffffffffff16146122235783836040517f2a873d2700000000000000000000000000000000000000000000000000000000815260040161221a929190614ad9565b60405180910390fd5b505050505050565b6122336122e3565b73ffffffffffffffffffffffffffffffffffffffff1661225161151d565b73ffffffffffffffffffffffffffffffffffffffff16146122b0576122746122e3565b6040517f118cdaa70000000000000000000000000000000000000000000000000000000081526004016122a79190613672565b60405180910390fd5b565b600160006101000a81549073ffffffffffffffffffffffffffffffffffffffff02191690556122e081612781565b50565b600033905090565b606061232160027f000000000000000000000000000000000000000000000000000000000000000061284590919063ffffffff16565b905090565b606061235c60037f000000000000000000000000000000000000000000000000000000000000000061284590919063ffffffff16565b905090565b60006123f76040518060800160405280605b8152602001614f0d605b91398051906020012083600001518051906020012084602001516040516020016123a79190614a35565b604051602081830303815290604052805190602001208560400151805190602001206040516020016123dc9493929190614b47565b6040516020818303038152906040528051906020012061249e565b9050919050565b6000807f000000000000000000000000000000000000000000000000000000000000000073ffffffffffffffffffffffffffffffffffffffff1663490413aa6040518163ffffffff1660e01b8152600401602060405180830381865afa15801561246c573d6000803e3d6000fd5b505050506040513d601f19601f820116820180604052508101906124909190614aac565b905080831015915050919050565b60006124b16124ab6128f5565b836129ac565b9050919050565b6000806000806124c886866129ed565b9250925092506124d88282612a49565b82935050505092915050565b600061257f6040518060c0016040528060908152602001614dcb6090913980519060200120836000015180519060200120846020015160405160200161252a9190614c1c565b6040516020818303038152906040528051906020012085604001518660600151876080015160405160200161256496959493929190614c33565b6040516020818303038152906040528051906020012061249e565b9050919050565b600080600090507a184f03e93ff9f4daa797ed6e38ed64bf6a1f01000000000000000083106125e4577a184f03e93ff9f4daa797ed6e38ed64bf6a1f01000000000000000083816125da576125d9614b18565b5b0492506040810190505b6d04ee2d6d415b85acef81000000008310612621576d04ee2d6d415b85acef8100000000838161261757612616614b18565b5b0492506020810190505b662386f26fc10000831061265057662386f26fc10000838161264657612645614b18565b5b0492506010810190505b6305f5e1008310612679576305f5e100838161266f5761266e614b18565b5b0492506008810190505b612710831061269e57612710838161269457612693614b18565b5b0492506004810190505b606483106126c157606483816126b7576126b6614b18565b5b0492506002810190505b600a83106126d0576001810190505b80915050919050565b600061277a6040518060e0016040528060b28152602001614e5b60b2913980519060200120836000015180519060200120846020015160405160200161271f9190614c1c565b604051602081830303815290604052805190602001208560400151866060015187608001518860a0015160405160200161275f9796959493929190614c94565b6040516020818303038152906040528051906020012061249e565b9050919050565b60008060009054906101000a900473ffffffffffffffffffffffffffffffffffffffff169050816000806101000a81548173ffffffffffffffffffffffffffffffffffffffff021916908373ffffffffffffffffffffffffffffffffffffffff1602179055508173ffffffffffffffffffffffffffffffffffffffff168173ffffffffffffffffffffffffffffffffffffffff167f8be0079c531659141344cd1fd0a4f28419497f9722a3daafe3b4186f6b6457e060405160405180910390a35050565b606060ff60001b83146128625761285b83612bad565b90506128ef565b81805461286e906137c6565b80601f016020809104026020016040519081016040528092919081815260200182805461289a906137c6565b80156128e75780601f106128bc576101008083540402835291602001916128e7565b820191906000526020600020905b8154815290600101906020018083116128ca57829003601f168201915b505050505090505b92915050565b60007f000000000000000000000000000000000000000000000000000000000000000073ffffffffffffffffffffffffffffffffffffffff163073ffffffffffffffffffffffffffffffffffffffff1614801561297157507f000000000000000000000000000000000000000000000000000000000000000046145b1561299e577f000000000000000000000000000000000000000000000000000000000000000090506129a9565b6129a6612c21565b90505b90565b60006040517f190100000000000000000000000000000000000000000000000000000000000081528360028201528260228201526042812091505092915050565b60008060006041845103612a325760008060006020870151925060408701519150606087015160001a9050612a2488828585612cb7565b955095509550505050612a42565b60006002855160001b9250925092505b9250925092565b60006003811115612a5d57612a5c614d03565b5b826003811115612a7057612a6f614d03565b5b0315612ba95760016003811115612a8a57612a89614d03565b5b826003811115612a9d57612a9c614d03565b5b03612ad4576040517ff645eedf00000000000000000000000000000000000000000000000000000000815260040160405180910390fd5b60026003811115612ae857612ae7614d03565b5b826003811115612afb57612afa614d03565b5b03612b40578060001c6040517ffce698f7000000000000000000000000000000000000000000000000000000008152600401612b379190614afd565b60405180910390fd5b600380811115612b5357612b52614d03565b5b826003811115612b6657612b65614d03565b5b03612ba857806040517fd78bce0c000000000000000000000000000000000000000000000000000000008152600401612b9f9190613314565b60405180910390fd5b5b5050565b60606000612bba83612dab565b90506000602067ffffffffffffffff811115612bd957612bd8613768565b5b6040519080825280601f01601f191660200182016040528015612c0b5781602001600182028036833780820191505090505b5090508181528360208201528092505050919050565b60007f8b73c3c69bb8fe3d512ecc4cf759cc79239f7b179b0ffacaa9a75d522b39400f7f00000000000000000000000000000000000000000000000000000000000000007f00000000000000000000000000000000000000000000000000000000000000004630604051602001612c9c959493929190614d32565b60405160208183030381529060405280519060200120905090565b60008060007f7fffffffffffffffffffffffffffffff5d576e7357a4501ddfe92f46681b20a08460001c1115612cf7576000600385925092509250612da1565b600060018888888860405160008152602001604052604051612d1c9493929190614d85565b6020604051602081039080840390855afa158015612d3e573d6000803e3d6000fd5b505050602060405103519050600073ffffffffffffffffffffffffffffffffffffffff168173ffffffffffffffffffffffffffffffffffffffff1603612d9257600060016000801b93509350935050612da1565b8060008060001b935093509350505b9450945094915050565b60008060ff8360001c169050601f811115612df2576040517fb3512b0c00000000000000000000000000000000000000000000000000000000815260040160405180910390fd5b80915050919050565b828054828255906000526020600020908101928215612e37579160200282015b82811115612e36578251825591602001919060010190612e1b565b5b509050612e449190612e95565b5090565b828054828255906000526020600020908101928215612e84579160200282015b82811115612e83578235825591602001919060010190612e68565b5b509050612e919190612e95565b5090565b5b80821115612eae576000816000905550600101612e96565b5090565b6000604051905090565b600080fd5b600080fd5b6000819050919050565b612ed981612ec6565b8114612ee457600080fd5b50565b600081359050612ef681612ed0565b92915050565b600080fd5b600080fd5b600080fd5b60008083601f840112612f2157612f20612efc565b5b8235905067ffffffffffffffff811115612f3e57612f3d612f01565b5b602083019150836001820283011115612f5a57612f59612f06565b5b9250929050565b600080600080600060608688031215612f7d57612f7c612ebc565b5b6000612f8b88828901612ee7565b955050602086013567ffffffffffffffff811115612fac57612fab612ec1565b5b612fb888828901612f0b565b9450945050604086013567ffffffffffffffff811115612fdb57612fda612ec1565b5b612fe788828901612f0b565b92509250509295509295909350565b60008083601f84011261300c5761300b612efc565b5b8235905067ffffffffffffffff81111561302957613028612f01565b5b60208301915083604082028301111561304557613044612f06565b5b9250929050565b600080fd5b6000604082840312156130675761306661304c565b5b81905092915050565b60008083601f84011261308657613085612efc565b5b8235905067ffffffffffffffff8111156130a3576130a2612f01565b5b6020830191508360208202830111156130bf576130be612f06565b5b9250929050565b600073ffffffffffffffffffffffffffffffffffffffff82169050919050565b60006130f1826130c6565b9050919050565b613101816130e6565b811461310c57600080fd5b50565b60008135905061311e816130f8565b92915050565b60008060008060008060008060008060006101008c8e03121561314a57613149612ebc565b5b60008c013567ffffffffffffffff81111561316857613167612ec1565b5b6131748e828f01612ff6565b9b509b505060206131878e828f01613051565b99505060606131988e828f01612ee7565b98505060808c013567ffffffffffffffff8111156131b9576131b8612ec1565b5b6131c58e828f01613070565b975097505060a06131d88e828f0161310f565b95505060c08c013567ffffffffffffffff8111156131f9576131f8612ec1565b5b6132058e828f01612f0b565b945094505060e08c013567ffffffffffffffff81111561322857613227612ec1565b5b6132348e828f01612f0b565b92509250509295989b509295989b9093969950565b600081519050919050565b600082825260208201905092915050565b60005b83811015613283578082015181840152602081019050613268565b60008484015250505050565b6000601f19601f8301169050919050565b60006132ab82613249565b6132b58185613254565b93506132c5818560208601613265565b6132ce8161328f565b840191505092915050565b600060208201905081810360008301526132f381846132a0565b905092915050565b6000819050919050565b61330e816132fb565b82525050565b60006020820190506133296000830184613305565b92915050565b60006020828403121561334557613344612ebc565b5b600061335384828501612ee7565b91505092915050565b60008115159050919050565b6133718161335c565b82525050565b600060208201905061338c6000830184613368565b92915050565b6000604082840312156133a8576133a761304c565b5b81905092915050565b60008060008060008060008060008060006101208c8e0312156133d7576133d6612ebc565b5b60008c013567ffffffffffffffff8111156133f5576133f4612ec1565b5b6134018e828f01612ff6565b9b509b505060206134148e828f01613051565b99505060606134258e828f01613392565b98505060a06134368e828f01612ee7565b97505060c08c013567ffffffffffffffff81111561345757613456612ec1565b5b6134638e828f01613070565b965096505060e08c013567ffffffffffffffff81111561348657613485612ec1565b5b6134928e828f01612f0b565b94509450506101008c013567ffffffffffffffff8111156134b6576134b5612ec1565b5b6134c28e828f01612f0b565b92509250509295989b509295989b9093969950565b60007fff0000000000000000000000000000000000000000000000000000000000000082169050919050565b61350c816134d7565b82525050565b61351b81612ec6565b82525050565b61352a816130e6565b82525050565b600081519050919050565b600082825260208201905092915050565b6000819050602082019050919050565b61356581612ec6565b82525050565b6000613577838361355c565b60208301905092915050565b6000602082019050919050565b600061359b82613530565b6135a5818561353b565b93506135b08361354c565b8060005b838110156135e15781516135c8888261356b565b97506135d383613583565b9250506001810190506135b4565b5085935050505092915050565b600060e082019050613603600083018a613503565b818103602083015261361581896132a0565b9050818103604083015261362981886132a0565b90506136386060830187613512565b6136456080830186613521565b61365260a0830185613305565b81810360c08301526136648184613590565b905098975050505050505050565b60006020820190506136876000830184613521565b92915050565b60008083601f8401126136a3576136a2612efc565b5b8235905067ffffffffffffffff8111156136c0576136bf612f01565b5b6020830191508360208202830111156136dc576136db612f06565b5b9250929050565b600080602083850312156136fa576136f9612ebc565b5b600083013567ffffffffffffffff81111561371857613717612ec1565b5b6137248582860161368d565b92509250509250929050565b60006020828403121561374657613745612ebc565b5b60006137548482850161310f565b91505092915050565b600082905092915050565b7f4e487b7100000000000000000000000000000000000000000000000000000000600052604160045260246000fd5b7f4e487b7100000000000000000000000000000000000000000000000000000000600052602260045260246000fd5b600060028204905060018216806137de57607f821691505b6020821081036137f1576137f0613797565b5b50919050565b60008190508160005260206000209050919050565b60006020601f8301049050919050565b600082821b905092915050565b6000600883026138597fffffffffffffffffffffffffffffffffffffffffffffffffffffffffffffffff8261381c565b613863868361381c565b95508019841693508086168417925050509392505050565b6000819050919050565b60006138a061389b61389684612ec6565b61387b565b612ec6565b9050919050565b6000819050919050565b6138ba83613885565b6138ce6138c6826138a7565b848454613829565b825550505050565b600090565b6138e36138d6565b6138ee8184846138b1565b505050565b5b81811015613912576139076000826138db565b6001810190506138f4565b5050565b601f82111561395757613928816137f7565b6139318461380c565b81016020851015613940578190505b61395461394c8561380c565b8301826138f3565b50505b505050565b600082821c905092915050565b600061397a6000198460080261395c565b1980831691505092915050565b60006139938383613969565b9150826002028217905092915050565b6139ad838361375d565b67ffffffffffffffff8111156139c6576139c5613768565b5b6139d082546137c6565b6139db828285613916565b6000601f831160018114613a0a57600084156139f8578287013590505b613a028582613987565b865550613a6a565b601f198416613a18866137f7565b60005b82811015613a4057848901358255600182019150602085019450602081019050613a1b565b86831015613a5d5784890135613a59601f891682613969565b8355505b6001600288020188555050505b50505050505050565b600082825260208201905092915050565b82818337600083830152505050565b6000613a9f8385613a73565b9350613aac838584613a84565b613ab58361328f565b840190509392505050565b600081519050919050565b600082825260208201905092915050565b6000819050602082019050919050565b600081519050919050565b600082825260208201905092915050565b6000613b1382613aec565b613b1d8185613af7565b9350613b2d818560208601613265565b613b368161328f565b840191505092915050565b6000613b4d8383613b08565b905092915050565b6000602082019050919050565b6000613b6d82613ac0565b613b778185613acb565b935083602082028501613b8985613adc565b8060005b85811015613bc55784840389528151613ba68582613b41565b9450613bb183613b55565b925060208a01995050600181019050613b8d565b50829750879550505050505092915050565b60006040820190508181036000830152613bf2818587613a93565b90508181036020830152613c068184613b62565b9050949350505050565b600060ff82169050919050565b613c2681613c10565b82525050565b6000604082019050613c416000830185613c1d565b613c4e6020830184613512565b9392505050565b600061ffff82169050919050565b6000613c7e613c79613c7484613c55565b61387b565b612ec6565b9050919050565b613c8e81613c63565b82525050565b6000604082019050613ca96000830185613c85565b613cb66020830184613512565b9392505050565b7f4e487b7100000000000000000000000000000000000000000000000000000000600052603260045260246000fd5b60006020820190508181036000830152613d068184613590565b905092915050565b613d178261328f565b810181811067ffffffffffffffff82111715613d3657613d35613768565b5b80604052505050565b6000613d49612eb2565b9050613d558282613d0e565b919050565b600067ffffffffffffffff821115613d7557613d74613768565b5b602082029050602081019050919050565b600080fd5b600080fd5b600081519050613d9f81612ed0565b92915050565b613dae816132fb565b8114613db957600080fd5b50565b600081519050613dcb81613da5565b92915050565b600067ffffffffffffffff821115613dec57613deb613768565b5b602082029050602081019050919050565b600081519050613e0c816130f8565b92915050565b6000613e25613e2084613dd1565b613d3f565b90508083825260208201905060208402830185811115613e4857613e47612f06565b5b835b81811015613e715780613e5d8882613dfd565b845260208401935050602081019050613e4a565b5050509392505050565b600082601f830112613e9057613e8f612efc565b5b8151613ea0848260208601613e12565b91505092915050565b600060808284031215613ebf57613ebe613d86565b5b613ec96080613d3f565b90506000613ed984828501613d90565b6000830152506020613eed84828501613d90565b6020830152506040613f0184828501613dbc565b604083015250606082015167ffffffffffffffff811115613f2557613f24613d8b565b5b613f3184828501613e7b565b60608301525092915050565b6000613f50613f4b84613d5a565b613d3f565b90508083825260208201905060208402830185811115613f7357613f72612f06565b5b835b81811015613fba57805167ffffffffffffffff811115613f9857613f97612efc565b5b808601613fa58982613ea9565b85526020850194505050602081019050613f75565b5050509392505050565b600082601f830112613fd957613fd8612efc565b5b8151613fe9848260208601613f3d565b91505092915050565b60006020828403121561400857614007612ebc565b5b600082015167ffffffffffffffff81111561402657614025612ec1565b5b61403284828501613fc4565b91505092915050565b7f4e487b7100000000000000000000000000000000000000000000000000000000600052601160045260246000fd5b600061407582612ec6565b91507fffffffffffffffffffffffffffffffffffffffffffffffffffffffffffffffff82036140a7576140a661403b565b5b600182019050919050565b6140bb82613aec565b67ffffffffffffffff8111156140d4576140d3613768565b5b6140de82546137c6565b6140e9828285613916565b600060209050601f83116001811461411c576000841561410a578287015190505b6141148582613987565b86555061417c565b601f19841661412a866137f7565b60005b828110156141525784890151825560018201915060208501945060208101905061412d565b8683101561416f578489015161416b601f891682613969565b8355505b6001600288020188555050505b505050505050565b600081519050919050565b600082825260208201905092915050565b6000819050602082019050919050565b6141b9816132fb565b82525050565b600081519050919050565b600082825260208201905092915050565b6000819050602082019050919050565b6141f4816130e6565b82525050565b600061420683836141eb565b60208301905092915050565b6000602082019050919050565b600061422a826141bf565b61423481856141ca565b935061423f836141db565b8060005b8381101561427057815161425788826141fa565b975061426283614212565b925050600181019050614243565b5085935050505092915050565b6000608083016000830151614295600086018261355c565b5060208301516142a8602086018261355c565b5060408301516142bb60408601826141b0565b50606083015184820360608601526142d3828261421f565b9150508091505092915050565b60006142ec838361427d565b905092915050565b6000602082019050919050565b600061430c82614184565b614316818561418f565b935083602082028501614328856141a0565b8060005b85811015614364578484038952815161434585826142e0565b9450614350836142f4565b925060208a0199505060018101905061432c565b50829750879550505050505092915050565b600060408201905081810360008301526143908186614301565b905081810360208301526143a5818486613a93565b9050949350505050565b600081905092915050565b60006143c582613249565b6143cf81856143af565b93506143df818560208601613265565b80840191505092915050565b7f2076000000000000000000000000000000000000000000000000000000000000600082015250565b60006144216002836143af565b915061442c826143eb565b600282019050919050565b7f2e00000000000000000000000000000000000000000000000000000000000000600082015250565b600061446d6001836143af565b915061447882614437565b600182019050919050565b600061448f82876143ba565b915061449a82614414565b91506144a682866143ba565b91506144b182614460565b91506144bd82856143ba565b91506144c882614460565b91506144d482846143ba565b915081905095945050505050565b600082825260208201905092915050565b6000819050919050565b600061450c6020840184612ee7565b905092915050565b6000614523602084018461310f565b905092915050565b6040820161453c60008301836144fd565b614549600085018261355c565b506145576020830183614514565b61456460208501826141eb565b50505050565b6000614576838361452b565b60408301905092915050565b600082905092915050565b6000604082019050919050565b60006145a683856144e2565b93506145b1826144f3565b8060005b858110156145ea576145c78284614582565b6145d1888261456a565b97506145dc8361458d565b9250506001810190506145b5565b5085925050509392505050565b600060408201905061460c6000830186613521565b818103602083015261461f81848661459a565b9050949350505050565b600082825260208201905092915050565b6000614645826141bf565b61464f8185614629565b935061465a836141db565b8060005b8381101561468b57815161467288826141fa565b975061467d83614212565b92505060018101905061465e565b5085935050505092915050565b60006080820190506146ad6000830187613512565b6146ba6020830186613521565b6146c76040830185613521565b81810360608301526146d9818461463a565b905095945050505050565b600081549050919050565b60008190508160005260206000209050919050565b60008154614711816137c6565b61471b8186613af7565b94506001821660008114614736576001811461474c5761477f565b60ff19831686528115156020028601935061477f565b614755856137f7565b60005b8381101561477757815481890152600182019150602081019050614758565b808801955050505b50505092915050565b60006147948383614704565b905092915050565b6000600182019050919050565b60006147b4826146e4565b6147be8185613acb565b9350836020820285016147d0856146ef565b8060005b8581101561480b578484038952816147ec8582614788565b94506147f78361479c565b925060208a019950506001810190506147d4565b50829750879550505050505092915050565b600081549050919050565b60008190508160005260206000209050919050565b6000600182019050919050565b60006148558261481d565b61485f8185613acb565b93508360208202850161487185614828565b8060005b858110156148ac5784840389528161488d8582614788565b94506148988361483d565b925060208a01995050600181019050614875565b50829750879550505050505092915050565b600060408201905081810360008301526148d881856147a9565b905081810360208301526148ec818461484a565b90509392505050565b600080fd5b82818337505050565b600061490f838561353b565b93507f07ffffffffffffffffffffffffffffffffffffffffffffffffffffffffffffff831115614942576149416148f5565b5b6020830292506149538385846148fa565b82840190509392505050565b6000602082019050818103600083015261497a818486614903565b90509392505050565b6000602082019050818103600083015261499d8184614301565b905092915050565b600081905092915050565b6149b981612ec6565b82525050565b60006149cb83836149b0565b60208301905092915050565b60006149e282613530565b6149ec81856149a5565b93506149f78361354c565b8060005b83811015614a28578151614a0f88826149bf565b9750614a1a83613583565b9250506001810190506149fb565b5085935050505092915050565b6000614a4182846149d7565b915081905092915050565b6000606082019050614a616000830186613305565b614a6e6020830185613305565b614a7b6040830184613305565b949350505050565b6000604082019050614a986000830185613512565b614aa56020830184613521565b9392505050565b600060208284031215614ac257614ac1612ebc565b5b6000614ad084828501613d90565b91505092915050565b60006020820190508181036000830152614af4818486613a93565b90509392505050565b6000602082019050614b126000830184613512565b92915050565b7f4e487b7100000000000000000000000000000000000000000000000000000000600052601260045260246000fd5b6000608082019050614b5c6000830187613305565b614b696020830186613305565b614b766040830185613305565b614b836060830184613305565b95945050505050565b600081905092915050565b614ba0816130e6565b82525050565b6000614bb28383614b97565b60208301905092915050565b6000614bc9826141bf565b614bd38185614b8c565b9350614bde836141db565b8060005b83811015614c0f578151614bf68882614ba6565b9750614c0183614212565b925050600181019050614be2565b5085935050505092915050565b6000614c288284614bbe565b915081905092915050565b600060c082019050614c486000830189613305565b614c556020830188613305565b614c626040830187613305565b614c6f6060830186613512565b614c7c6080830185613512565b614c8960a0830184613512565b979650505050505050565b600060e082019050614ca9600083018a613305565b614cb66020830189613305565b614cc36040830188613305565b614cd06060830187613521565b614cdd6080830186613512565b614cea60a0830185613512565b614cf760c0830184613512565b98975050505050505050565b7f4e487b7100000000000000000000000000000000000000000000000000000000600052602160045260246000fd5b600060a082019050614d476000830188613305565b614d546020830187613305565b614d616040830186613305565b614d6e6060830185613512565b614d7b6080830184613521565b9695505050505050565b6000608082019050614d9a6000830187613305565b614da76020830186613c1d565b614db46040830185613305565b614dc16060830184613305565b9594505050505056fe557365724465637279707452657175657374566572696669636174696f6e286279746573207075626c69634b65792c616464726573735b5d20636f6e74726163744164647265737365732c75696e7432353620636f6e747261637473436861696e49642c75696e7432353620737461727454696d657374616d702c75696e74323536206475726174696f6e446179732944656c656761746564557365724465637279707452657175657374566572696669636174696f6e286279746573207075626c69634b65792c616464726573735b5d20636f6e74726163744164647265737365732c616464726573732064656c6567617465644163636f756e742c75696e7432353620636f6e747261637473436861696e49642c75696e7432353620737461727454696d657374616d702c75696e74323536206475726174696f6e44617973295573657244656372797074526573706f6e7365566572696669636174696f6e286279746573207075626c69634b65792c75696e743235365b5d20637448616e646c65732c6279746573207265656e637279707465645368617265295075626c696344656372797074566572696669636174696f6e2875696e743235365b5d20637448616e646c65732c627974657320646563727970746564526573756c7429a2646970667358221220daedcb0fab7b884900d011d3822596b5a821fcf3099f3cb675f820d33569c5dc64736f6c63430008180033",
  "linkReferences": {},
  "deployedLinkReferences": {}
}