{
  "_format": "hh-sol-artifact-1",
  "contractName": "DecryptionOracle",
  "sourceName": "decryptionOracle/DecryptionOracle.sol",
  "abi": [
    {
      "inputs": [],
      "stateMutability": "nonpayable",
      "type": "constructor"
    },
    {
      "inputs": [
        {
          "internalType": "address",
          "name": "target",
          "type": "address"
        }
      ],
      "name": "AddressEmptyCode",
      "type": "error"
    },
    {
      "inputs": [
        {
          "internalType": "address",
          "name": "implementation",
          "type": "address"
        }
      ],
      "name": "ERC1967InvalidImplementation",
      "type": "error"
    },
    {
      "inputs": [],
      "name": "ERC1967NonPayable",
      "type": "error"
    },
    {
      "inputs": [],
      "name": "FailedCall",
      "type": "error"
    },
    {
      "inputs": [],
      "name": "InvalidInitialization",
      "type": "error"
    },
    {
      "inputs": [],
      "name": "NotInitializing",
      "type": "error"
    },
    {
      "inputs": [
        {
          "internalType": "address",
          "name": "owner",
          "type": "address"
        }
      ],
      "name": "OwnableInvalidOwner",
      "type": "error"
    },
    {
      "inputs": [
        {
          "internalType": "address",
          "name": "account",
          "type": "address"
        }
      ],
      "name": "OwnableUnauthorizedAccount",
      "type": "error"
    },
    {
      "inputs": [],
      "name": "UUPSUnauthorizedCallContext",
      "type": "error"
    },
    {
      "inputs": [
        {
          "internalType": "bytes32",
          "name": "slot",
          "type": "bytes32"
        }
      ],
      "name": "UUPSUnsupportedProxiableUUID",
      "type": "error"
    },
    {
      "anonymous": false,
      "inputs": [
        {
          "indexed": true,
          "internalType": "uint256",
          "name": "counter",
          "type": "uint256"
        },
        {
          "indexed": false,
          "internalType": "uint256",
          "name": "requestID",
          "type": "uint256"
        },
        {
          "indexed": false,
          "internalType": "bytes32[]",
          "name": "cts",
          "type": "bytes32[]"
        },
        {
          "indexed": false,
          "internalType": "address",
          "name": "contractCaller",
          "type": "address"
        },
        {
          "indexed": false,
          "internalType": "bytes4",
          "name": "callbackSelector",
          "type": "bytes4"
        }
      ],
      "name": "DecryptionRequest",
      "type": "event"
    },
    {
      "anonymous": false,
      "inputs": [
        {
          "indexed": false,
          "internalType": "uint64",
          "name": "version",
          "type": "uint64"
        }
      ],
      "name": "Initialized",
      "type": "event"
    },
    {
      "anonymous": false,
      "inputs": [
        {
          "indexed": true,
          "internalType": "address",
          "name": "previousOwner",
          "type": "address"
        },
        {
          "indexed": true,
          "internalType": "address",
          "name": "newOwner",
          "type": "address"
        }
      ],
      "name": "OwnershipTransferStarted",
      "type": "event"
    },
    {
      "anonymous": false,
      "inputs": [
        {
          "indexed": true,
          "internalType": "address",
          "name": "previousOwner",
          "type": "address"
        },
        {
          "indexed": true,
          "internalType": "address",
          "name": "newOwner",
          "type": "address"
        }
      ],
      "name": "OwnershipTransferred",
      "type": "event"
    },
    {
      "anonymous": false,
      "inputs": [
        {
          "indexed": true,
          "internalType": "address",
          "name": "implementation",
          "type": "address"
        }
      ],
      "name": "Upgraded",
      "type": "event"
    },
    {
      "inputs": [],
      "name": "UPGRADE_INTERFACE_VERSION",
      "outputs": [
        {
          "internalType": "string",
          "name": "",
          "type": "string"
        }
      ],
      "stateMutability": "view",
      "type": "function"
    },
    {
      "inputs": [],
      "name": "acceptOwnership",
      "outputs": [],
      "stateMutability": "nonpayable",
      "type": "function"
    },
    {
      "inputs": [],
      "name": "getCounter",
      "outputs": [
        {
          "internalType": "uint256",
          "name": "",
          "type": "uint256"
        }
      ],
      "stateMutability": "nonpayable",
      "type": "function"
    },
    {
      "inputs": [],
      "name": "getVersion",
      "outputs": [
        {
          "internalType": "string",
          "name": "",
          "type": "string"
        }
      ],
      "stateMutability": "pure",
      "type": "function"
    },
    {
      "inputs": [],
      "name": "owner",
      "outputs": [
        {
          "internalType": "address",
          "name": "",
          "type": "address"
        }
      ],
      "stateMutability": "view",
      "type": "function"
    },
    {
      "inputs": [],
      "name": "pendingOwner",
      "outputs": [
        {
          "internalType": "address",
          "name": "",
          "type": "address"
        }
      ],
      "stateMutability": "view",
      "type": "function"
    },
    {
      "inputs": [],
      "name": "proxiableUUID",
      "outputs": [
        {
          "internalType": "bytes32",
          "name": "",
          "type": "bytes32"
        }
      ],
      "stateMutability": "view",
      "type": "function"
    },
    {
      "inputs": [],
      "name": "renounceOwnership",
      "outputs": [],
      "stateMutability": "nonpayable",
      "type": "function"
    },
    {
      "inputs": [
        {
          "internalType": "uint256",
          "name": "requestID",
          "type": "uint256"
        },
        {
          "internalType": "bytes32[]",
          "name": "ctsHandles",
          "type": "bytes32[]"
        },
        {
          "internalType": "bytes4",
          "name": "callbackSelector",
          "type": "bytes4"
        }
      ],
      "name": "requestDecryption",
      "outputs": [],
      "stateMutability": "nonpayable",
      "type": "function"
    },
    {
      "inputs": [
        {
          "internalType": "address",
          "name": "newOwner",
          "type": "address"
        }
      ],
      "name": "transferOwnership",
      "outputs": [],
      "stateMutability": "nonpayable",
      "type": "function"
    },
    {
      "inputs": [
        {
          "internalType": "address",
          "name": "newImplementation",
          "type": "address"
        },
        {
          "internalType": "bytes",
          "name": "data",
          "type": "bytes"
        }
      ],
      "name": "upgradeToAndCall",
      "outputs": [],
      "stateMutability": "payable",
      "type": "function"
    }
  ],
  "bytecode": "0x60a060405230608052348015610013575f80fd5b5061001c610021565b6100d3565b7ff0c57e16840df040f15088dc2f81fe391c3923bec73e23a9662efc9c229c6a00805468010000000000000000900460ff16156100715760405163f92ee8a960e01b815260040160405180910390fd5b80546001600160401b03908116146100d05780546001600160401b0319166001600160401b0390811782556040519081527fc7f505b2f371ae2175ee4913f4499e1f2633a7b5936321eed1cdaeb6115181d29060200160405180910390a15b50565b608051610e526100f95f395f818161056b0152818161059401526106fe0152610e525ff3fe6080604052600436106100b8575f3560e01c806379ba509711610071578063ad3cb1cc1161004c578063ad3cb1cc146101c3578063e30c39781461020b578063f2fde38b1461021f575f80fd5b806379ba5097146101505780638ada066e146101645780638da5cb5b14610197575f80fd5b80634f1ef286116100a15780634f1ef2861461010757806352d1902d1461011a578063715018a61461013c575f80fd5b80630d8e6e2c146100bc5780633263b83b146100e6575b5f80fd5b3480156100c7575f80fd5b506100d061023e565b6040516100dd9190610afe565b60405180910390f35b3480156100f1575f80fd5b50610105610100366004610b30565b6102b9565b005b610105610115366004610c0e565b610335565b348015610125575f80fd5b5061012e610354565b6040519081526020016100dd565b348015610147575f80fd5b50610105610382565b34801561015b575f80fd5b50610105610395565b34801561016f575f80fd5b507fd86fa2a52e99634194c279afa011b5f5166614c3198dd09bbd002d5fb5c0bc005461012e565b3480156101a2575f80fd5b506101ab6103e2565b6040516001600160a01b0390911681526020016100dd565b3480156101ce575f80fd5b506100d06040518060400160405280600581526020017f352e302e3000000000000000000000000000000000000000000000000000000081525081565b348015610216575f80fd5b506101ab610416565b34801561022a575f80fd5b50610105610239366004610cca565b61043e565b60606040518060400160405280601081526020017f44656372797074696f6e4f7261636c650000000000000000000000000000000081525061027f5f6104c3565b61028960016104c3565b6102925f6104c3565b6040516020016102a59493929190610ce3565b604051602081830303815290604052905090565b7fd86fa2a52e99634194c279afa011b5f5166614c3198dd09bbd002d5fb5c0bc0080546040517ff9a580b32950f598a0b7fe0edf634b8af409702fb0fedad9ec367ce0e87fcbfd906103149088908890889033908990610d60565b60405180910390a28054815f61032983610def565b91905055505050505050565b61033d610560565b61034682610617565b610350828261061f565b5050565b5f61035d6106f3565b507f360894a13ba1a3210667c828492db98dca3e2076cc3735a920a3ca505d382bbc90565b61038a61073c565b6103935f61076e565b565b338061039f610416565b6001600160a01b0316146103d65760405163118cdaa760e01b81526001600160a01b03821660048201526024015b60405180910390fd5b6103df8161076e565b50565b5f807f9016d09d72d40fdae2fd8ceac6b6234c7706214fd39c1cd1e609a0528c1993005b546001600160a01b031692915050565b5f807f237e158222e3e6968b72b9db0d8043aacf074ad9f650f0d1606b4d82ee432c00610406565b61044661073c565b7f237e158222e3e6968b72b9db0d8043aacf074ad9f650f0d1606b4d82ee432c0080546001600160a01b0319166001600160a01b038316908117825561048a6103e2565b6001600160a01b03167f38d16b8cac22d99fc7c124b9cd0de2d3fa1faef420bfe791d8c362d765e2270060405160405180910390a35050565b60605f6104cf836107a6565b60010190505f8167ffffffffffffffff8111156104ee576104ee610bfa565b6040519080825280601f01601f191660200182016040528015610518576020820181803683370190505b5090508181016020015b5f19017f3031323334353637383961626364656600000000000000000000000000000000600a86061a8153600a850494508461052257509392505050565b306001600160a01b037f00000000000000000000000000000000000000000000000000000000000000001614806105f957507f00000000000000000000000000000000000000000000000000000000000000006001600160a01b03166105ed7f360894a13ba1a3210667c828492db98dca3e2076cc3735a920a3ca505d382bbc546001600160a01b031690565b6001600160a01b031614155b156103935760405163703e46dd60e11b815260040160405180910390fd5b6103df61073c565b816001600160a01b03166352d1902d6040518163ffffffff1660e01b8152600401602060405180830381865afa925050508015610679575060408051601f3d908101601f1916820190925261067691810190610e13565b60015b6106a157604051634c9c8ce360e01b81526001600160a01b03831660048201526024016103cd565b7f360894a13ba1a3210667c828492db98dca3e2076cc3735a920a3ca505d382bbc81146106e457604051632a87526960e21b8152600481018290526024016103cd565b6106ee8383610888565b505050565b306001600160a01b037f000000000000000000000000000000000000000000000000000000000000000016146103935760405163703e46dd60e11b815260040160405180910390fd5b336107456103e2565b6001600160a01b0316146103935760405163118cdaa760e01b81523360048201526024016103cd565b7f237e158222e3e6968b72b9db0d8043aacf074ad9f650f0d1606b4d82ee432c0080546001600160a01b0319168155610350826108dd565b5f807a184f03e93ff9f4daa797ed6e38ed64bf6a1f01000000000000000083106107ee577a184f03e93ff9f4daa797ed6e38ed64bf6a1f010000000000000000830492506040015b6d04ee2d6d415b85acef8100000000831061081a576d04ee2d6d415b85acef8100000000830492506020015b662386f26fc10000831061083857662386f26fc10000830492506010015b6305f5e1008310610850576305f5e100830492506008015b612710831061086457612710830492506004015b60648310610876576064830492506002015b600a8310610882576001015b92915050565b6108918261094d565b6040516001600160a01b038316907fbc7cd75a20ee27fd9adebab32041f755214dbc6bffa90cc0225b39da2e5c2d3b905f90a28051156108d5576106ee82826109c3565b610350610a35565b7f9016d09d72d40fdae2fd8ceac6b6234c7706214fd39c1cd1e609a0528c19930080546001600160a01b031981166001600160a01b03848116918217845560405192169182907f8be0079c531659141344cd1fd0a4f28419497f9722a3daafe3b4186f6b6457e0905f90a3505050565b806001600160a01b03163b5f0361098257604051634c9c8ce360e01b81526001600160a01b03821660048201526024016103cd565b7f360894a13ba1a3210667c828492db98dca3e2076cc3735a920a3ca505d382bbc80546001600160a01b0319166001600160a01b0392909216919091179055565b60605f80846001600160a01b0316846040516109df9190610e2a565b5f60405180830381855af49150503d805f8114610a17576040519150601f19603f3d011682016040523d82523d5f602084013e610a1c565b606091505b5091509150610a2c858383610a54565b95945050505050565b34156103935760405163b398979f60e01b815260040160405180910390fd5b606082610a6957610a6482610ab3565b610aac565b8151158015610a8057506001600160a01b0384163b155b15610aa957604051639996b31560e01b81526001600160a01b03851660048201526024016103cd565b50805b9392505050565b805115610ac35780518082602001fd5b60405163d6bda27560e01b815260040160405180910390fd5b5f5b83811015610af6578181015183820152602001610ade565b50505f910152565b602081525f8251806020840152610b1c816040850160208701610adc565b601f01601f19169190910160400192915050565b5f805f8060608587031215610b43575f80fd5b84359350602085013567ffffffffffffffff80821115610b61575f80fd5b818701915087601f830112610b74575f80fd5b813581811115610b82575f80fd5b8860208260051b8501011115610b96575f80fd5b60209290920194509092505060408501357fffffffff0000000000000000000000000000000000000000000000000000000081168114610bd4575f80fd5b939692955090935050565b80356001600160a01b0381168114610bf5575f80fd5b919050565b634e487b7160e01b5f52604160045260245ffd5b5f8060408385031215610c1f575f80fd5b610c2883610bdf565b9150602083013567ffffffffffffffff80821115610c44575f80fd5b818501915085601f830112610c57575f80fd5b813581811115610c6957610c69610bfa565b604051601f8201601f19908116603f01168101908382118183101715610c9157610c91610bfa565b81604052828152886020848701011115610ca9575f80fd5b826020860160208301375f6020848301015280955050505050509250929050565b5f60208284031215610cda575f80fd5b610aac82610bdf565b5f8551610cf4818460208a01610adc565b61103b60f11b9083019081528551610d13816002840160208a01610adc565b808201915050601760f91b8060028301528551610d37816003850160208a01610adc565b60039201918201528351610d52816004840160208801610adc565b016004019695505050505050565b858152608060208201528360808201525f7f07ffffffffffffffffffffffffffffffffffffffffffffffffffffffffffffff851115610d9d575f80fd5b8460051b808760a08501376001600160a01b03949094166040830152507fffffffff000000000000000000000000000000000000000000000000000000009190911660608201520160a0019392505050565b5f60018201610e0c57634e487b7160e01b5f52601160045260245ffd5b5060010190565b5f60208284031215610e23575f80fd5b5051919050565b5f8251610e3b818460208701610adc565b919091019291505056fea164736f6c6343000818000a",
  "linkReferences": {},
  "deployedLinkReferences": {}
}