{
  "_format": "hh-sol-artifact-1",
  "contractName": "DecryptionManager",
  "sourceName": "contracts/DecryptionManager.sol",
  "abi": [
    {
      "inputs": [],
      "stateMutability": "nonpayable",
      "type": "constructor"
    },
    {
      "inputs": [
        {
          "internalType": "address",
          "name": "target",
          "type": "address"
        }
      ],
      "name": "AddressEmptyCode",
      "type": "error"
    },
    {
      "inputs": [
        {
          "internalType": "uint8",
          "name": "maxLength",
          "type": "uint8"
        },
        {
          "internalType": "uint256",
          "name": "actualLength",
          "type": "uint256"
        }
      ],
      "name": "ContractAddressesMaxLengthExceeded",
      "type": "error"
    },
    {
      "inputs": [
        {
          "internalType": "address",
          "name": "contractAddress",
          "type": "address"
        },
        {
          "internalType": "address[]",
          "name": "contractAddresses",
          "type": "address[]"
        }
      ],
      "name": "ContractNotInContractAddresses",
      "type": "error"
    },
    {
      "inputs": [
        {
          "internalType": "uint256",
          "name": "keyId",
          "type": "uint256"
        }
      ],
      "name": "DifferentKeyIdsNotAllowed",
      "type": "error"
    },
    {
      "inputs": [],
      "name": "ECDSAInvalidSignature",
      "type": "error"
    },
    {
      "inputs": [
        {
          "internalType": "uint256",
          "name": "length",
          "type": "uint256"
        }
      ],
      "name": "ECDSAInvalidSignatureLength",
      "type": "error"
    },
    {
      "inputs": [
        {
          "internalType": "bytes32",
          "name": "s",
          "type": "bytes32"
        }
      ],
      "name": "ECDSAInvalidSignatureS",
      "type": "error"
    },
    {
      "inputs": [
        {
          "internalType": "address",
          "name": "implementation",
          "type": "address"
        }
      ],
      "name": "ERC1967InvalidImplementation",
      "type": "error"
    },
    {
      "inputs": [],
      "name": "ERC1967NonPayable",
      "type": "error"
    },
    {
      "inputs": [],
      "name": "FailedCall",
      "type": "error"
    },
    {
      "inputs": [],
      "name": "InvalidInitialization",
      "type": "error"
    },
    {
      "inputs": [
        {
          "internalType": "bytes",
          "name": "signature",
          "type": "bytes"
        }
      ],
      "name": "InvalidUserSignature",
      "type": "error"
    },
    {
      "inputs": [
        {
          "internalType": "uint256",
          "name": "publicDecryptionId",
          "type": "uint256"
        },
        {
          "internalType": "address",
          "name": "signer",
          "type": "address"
        }
      ],
      "name": "KmsSignerAlreadyResponded",
      "type": "error"
    },
    {
      "inputs": [
        {
          "internalType": "uint256",
          "name": "maxValue",
          "type": "uint256"
        },
        {
          "internalType": "uint256",
          "name": "actualValue",
          "type": "uint256"
        }
      ],
      "name": "MaxDurationDaysExceeded",
      "type": "error"
    },
    {
      "inputs": [],
      "name": "NotInitializing",
      "type": "error"
    },
    {
      "inputs": [
        {
          "internalType": "address",
          "name": "owner",
          "type": "address"
        }
      ],
      "name": "OwnableInvalidOwner",
      "type": "error"
    },
    {
      "inputs": [
        {
          "internalType": "address",
          "name": "account",
          "type": "address"
        }
      ],
      "name": "OwnableUnauthorizedAccount",
      "type": "error"
    },
    {
      "inputs": [],
      "name": "UUPSUnauthorizedCallContext",
      "type": "error"
    },
    {
      "inputs": [
        {
          "internalType": "bytes32",
          "name": "slot",
          "type": "bytes32"
        }
      ],
      "name": "UUPSUnsupportedProxiableUUID",
      "type": "error"
    },
    {
      "anonymous": false,
      "inputs": [],
      "name": "EIP712DomainChanged",
      "type": "event"
    },
    {
      "anonymous": false,
      "inputs": [
        {
          "indexed": false,
          "internalType": "uint64",
          "name": "version",
          "type": "uint64"
        }
      ],
      "name": "Initialized",
      "type": "event"
    },
    {
      "anonymous": false,
      "inputs": [
        {
          "indexed": true,
          "internalType": "address",
          "name": "previousOwner",
          "type": "address"
        },
        {
          "indexed": true,
          "internalType": "address",
          "name": "newOwner",
          "type": "address"
        }
      ],
      "name": "OwnershipTransferStarted",
      "type": "event"
    },
    {
      "anonymous": false,
      "inputs": [
        {
          "indexed": true,
          "internalType": "address",
          "name": "previousOwner",
          "type": "address"
        },
        {
          "indexed": true,
          "internalType": "address",
          "name": "newOwner",
          "type": "address"
        }
      ],
      "name": "OwnershipTransferred",
      "type": "event"
    },
    {
      "anonymous": false,
      "inputs": [
        {
          "indexed": true,
          "internalType": "uint256",
          "name": "publicDecryptionId",
          "type": "uint256"
        },
        {
          "components": [
            {
              "internalType": "uint256",
              "name": "ctHandle",
              "type": "uint256"
            },
            {
              "internalType": "uint256",
              "name": "keyId",
              "type": "uint256"
            },
            {
              "internalType": "bytes32",
              "name": "snsCiphertextDigest",
              "type": "bytes32"
            },
            {
              "internalType": "address[]",
              "name": "coprocessorTxSenderAddresses",
              "type": "address[]"
            }
          ],
          "indexed": false,
          "internalType": "struct SnsCiphertextMaterial[]",
          "name": "snsCtMaterials",
          "type": "tuple[]"
        }
      ],
      "name": "PublicDecryptionRequest",
      "type": "event"
    },
    {
      "anonymous": false,
      "inputs": [
        {
          "indexed": true,
          "internalType": "uint256",
          "name": "publicDecryptionId",
          "type": "uint256"
        },
        {
          "indexed": false,
          "internalType": "bytes",
          "name": "decryptedResult",
          "type": "bytes"
        },
        {
          "indexed": false,
          "internalType": "bytes[]",
          "name": "signatures",
          "type": "bytes[]"
        }
      ],
      "name": "PublicDecryptionResponse",
      "type": "event"
    },
    {
      "anonymous": false,
      "inputs": [
        {
          "indexed": true,
          "internalType": "address",
          "name": "implementation",
          "type": "address"
        }
      ],
      "name": "Upgraded",
      "type": "event"
    },
    {
      "anonymous": false,
      "inputs": [
        {
          "indexed": true,
          "internalType": "uint256",
          "name": "userDecryptionId",
          "type": "uint256"
        },
        {
          "components": [
            {
              "internalType": "uint256",
              "name": "ctHandle",
              "type": "uint256"
            },
            {
              "internalType": "uint256",
              "name": "keyId",
              "type": "uint256"
            },
            {
              "internalType": "bytes32",
              "name": "snsCiphertextDigest",
              "type": "bytes32"
            },
            {
              "internalType": "address[]",
              "name": "coprocessorTxSenderAddresses",
              "type": "address[]"
            }
          ],
          "indexed": false,
          "internalType": "struct SnsCiphertextMaterial[]",
          "name": "snsCtMaterials",
          "type": "tuple[]"
        },
        {
          "indexed": false,
          "internalType": "address",
          "name": "userAddress",
          "type": "address"
        },
        {
          "indexed": false,
          "internalType": "bytes",
          "name": "publicKey",
          "type": "bytes"
        }
      ],
      "name": "UserDecryptionRequest",
      "type": "event"
    },
    {
      "anonymous": false,
      "inputs": [
        {
          "indexed": true,
          "internalType": "uint256",
          "name": "userDecryptionId",
          "type": "uint256"
        },
        {
          "indexed": false,
          "internalType": "bytes[]",
          "name": "reencryptedShares",
          "type": "bytes[]"
        },
        {
          "indexed": false,
          "internalType": "bytes[]",
          "name": "signatures",
          "type": "bytes[]"
        }
      ],
      "name": "UserDecryptionResponse",
      "type": "event"
    },
    {
      "inputs": [],
      "name": "EIP712_DELEGATED_USER_DECRYPT_REQUEST_TYPE",
      "outputs": [
        {
          "internalType": "string",
          "name": "",
          "type": "string"
        }
      ],
      "stateMutability": "view",
      "type": "function"
    },
    {
      "inputs": [],
      "name": "EIP712_DELEGATED_USER_DECRYPT_REQUEST_TYPE_HASH",
      "outputs": [
        {
          "internalType": "bytes32",
          "name": "",
          "type": "bytes32"
        }
      ],
      "stateMutability": "view",
      "type": "function"
    },
    {
      "inputs": [],
      "name": "EIP712_PUBLIC_DECRYPT_TYPE",
      "outputs": [
        {
          "internalType": "string",
          "name": "",
          "type": "string"
        }
      ],
      "stateMutability": "view",
      "type": "function"
    },
    {
      "inputs": [],
      "name": "EIP712_PUBLIC_DECRYPT_TYPE_HASH",
      "outputs": [
        {
          "internalType": "bytes32",
          "name": "",
          "type": "bytes32"
        }
      ],
      "stateMutability": "view",
      "type": "function"
    },
    {
      "inputs": [],
      "name": "EIP712_USER_DECRYPT_REQUEST_TYPE",
      "outputs": [
        {
          "internalType": "string",
          "name": "",
          "type": "string"
        }
      ],
      "stateMutability": "view",
      "type": "function"
    },
    {
      "inputs": [],
      "name": "EIP712_USER_DECRYPT_REQUEST_TYPE_HASH",
      "outputs": [
        {
          "internalType": "bytes32",
          "name": "",
          "type": "bytes32"
        }
      ],
      "stateMutability": "view",
      "type": "function"
    },
    {
      "inputs": [],
      "name": "EIP712_USER_DECRYPT_RESPONSE_TYPE",
      "outputs": [
        {
          "internalType": "string",
          "name": "",
          "type": "string"
        }
      ],
      "stateMutability": "view",
      "type": "function"
    },
    {
      "inputs": [],
      "name": "EIP712_USER_DECRYPT_RESPONSE_TYPE_HASH",
      "outputs": [
        {
          "internalType": "bytes32",
          "name": "",
          "type": "bytes32"
        }
      ],
      "stateMutability": "view",
      "type": "function"
    },
    {
      "inputs": [],
      "name": "UPGRADE_INTERFACE_VERSION",
      "outputs": [
        {
          "internalType": "string",
          "name": "",
          "type": "string"
        }
      ],
      "stateMutability": "view",
      "type": "function"
    },
    {
      "inputs": [],
      "name": "acceptOwnership",
      "outputs": [],
      "stateMutability": "nonpayable",
      "type": "function"
    },
    {
      "inputs": [
        {
          "components": [
            {
              "internalType": "uint256",
              "name": "ctHandle",
              "type": "uint256"
            },
            {
              "internalType": "address",
              "name": "contractAddress",
              "type": "address"
            }
          ],
          "internalType": "struct CtHandleContractPair[]",
          "name": "ctHandleContractPairs",
          "type": "tuple[]"
        },
        {
          "components": [
            {
              "internalType": "uint256",
              "name": "startTimestamp",
              "type": "uint256"
            },
            {
              "internalType": "uint256",
              "name": "durationDays",
              "type": "uint256"
            }
          ],
          "internalType": "struct IDecryptionManager.RequestValidity",
          "name": "requestValidity",
          "type": "tuple"
        },
        {
          "components": [
            {
              "internalType": "address",
              "name": "userAddress",
              "type": "address"
            },
            {
              "internalType": "address",
              "name": "delegatedAddress",
              "type": "address"
            }
          ],
          "internalType": "struct IDecryptionManager.DelegationAccounts",
          "name": "delegationAccounts",
          "type": "tuple"
        },
        {
          "internalType": "uint256",
          "name": "contractsChainId",
          "type": "uint256"
        },
        {
          "internalType": "address[]",
          "name": "contractAddresses",
          "type": "address[]"
        },
        {
          "internalType": "bytes",
          "name": "publicKey",
          "type": "bytes"
        },
        {
          "internalType": "bytes",
          "name": "signature",
          "type": "bytes"
        }
      ],
      "name": "delegatedUserDecryptionRequest",
      "outputs": [],
      "stateMutability": "nonpayable",
      "type": "function"
    },
    {
      "inputs": [],
      "name": "eip712Domain",
      "outputs": [
        {
          "internalType": "bytes1",
          "name": "fields",
          "type": "bytes1"
        },
        {
          "internalType": "string",
          "name": "name",
          "type": "string"
        },
        {
          "internalType": "string",
          "name": "version",
          "type": "string"
        },
        {
          "internalType": "uint256",
          "name": "chainId",
          "type": "uint256"
        },
        {
          "internalType": "address",
          "name": "verifyingContract",
          "type": "address"
        },
        {
          "internalType": "bytes32",
          "name": "salt",
          "type": "bytes32"
        },
        {
          "internalType": "uint256[]",
          "name": "extensions",
          "type": "uint256[]"
        }
      ],
      "stateMutability": "view",
      "type": "function"
    },
    {
      "inputs": [],
      "name": "getVersion",
      "outputs": [
        {
          "internalType": "string",
          "name": "",
          "type": "string"
        }
      ],
      "stateMutability": "pure",
      "type": "function"
    },
    {
      "inputs": [],
      "name": "initialize",
      "outputs": [],
      "stateMutability": "nonpayable",
      "type": "function"
    },
    {
      "inputs": [
        {
          "internalType": "uint256",
          "name": "publicDecryptionId",
          "type": "uint256"
        }
      ],
      "name": "isPublicDecryptionDone",
      "outputs": [
        {
          "internalType": "bool",
          "name": "",
          "type": "bool"
        }
      ],
      "stateMutability": "view",
      "type": "function"
    },
    {
      "inputs": [
        {
          "internalType": "uint256",
          "name": "userDecryptionId",
          "type": "uint256"
        }
      ],
      "name": "isUserDecryptionDone",
      "outputs": [
        {
          "internalType": "bool",
          "name": "",
          "type": "bool"
        }
      ],
      "stateMutability": "view",
      "type": "function"
    },
    {
      "inputs": [],
      "name": "owner",
      "outputs": [
        {
          "internalType": "address",
          "name": "",
          "type": "address"
        }
      ],
      "stateMutability": "view",
      "type": "function"
    },
    {
      "inputs": [],
      "name": "pendingOwner",
      "outputs": [
        {
          "internalType": "address",
          "name": "",
          "type": "address"
        }
      ],
      "stateMutability": "view",
      "type": "function"
    },
    {
      "inputs": [],
      "name": "proxiableUUID",
      "outputs": [
        {
          "internalType": "bytes32",
          "name": "",
          "type": "bytes32"
        }
      ],
      "stateMutability": "view",
      "type": "function"
    },
    {
      "inputs": [
        {
          "internalType": "uint256[]",
          "name": "ctHandles",
          "type": "uint256[]"
        }
      ],
      "name": "publicDecryptionRequest",
      "outputs": [],
      "stateMutability": "nonpayable",
      "type": "function"
    },
    {
      "inputs": [
        {
          "internalType": "uint256",
          "name": "publicDecryptionId",
          "type": "uint256"
        },
        {
          "internalType": "bytes",
          "name": "decryptedResult",
          "type": "bytes"
        },
        {
          "internalType": "bytes",
          "name": "signature",
          "type": "bytes"
        }
      ],
      "name": "publicDecryptionResponse",
      "outputs": [],
      "stateMutability": "nonpayable",
      "type": "function"
    },
    {
      "inputs": [],
      "name": "renounceOwnership",
      "outputs": [],
      "stateMutability": "nonpayable",
      "type": "function"
    },
    {
      "inputs": [
        {
          "internalType": "address",
          "name": "newOwner",
          "type": "address"
        }
      ],
      "name": "transferOwnership",
      "outputs": [],
      "stateMutability": "nonpayable",
      "type": "function"
    },
    {
      "inputs": [
        {
          "internalType": "address",
          "name": "newImplementation",
          "type": "address"
        },
        {
          "internalType": "bytes",
          "name": "data",
          "type": "bytes"
        }
      ],
      "name": "upgradeToAndCall",
      "outputs": [],
      "stateMutability": "payable",
      "type": "function"
    },
    {
      "inputs": [
        {
          "components": [
            {
              "internalType": "uint256",
              "name": "ctHandle",
              "type": "uint256"
            },
            {
              "internalType": "address",
              "name": "contractAddress",
              "type": "address"
            }
          ],
          "internalType": "struct CtHandleContractPair[]",
          "name": "ctHandleContractPairs",
          "type": "tuple[]"
        },
        {
          "components": [
            {
              "internalType": "uint256",
              "name": "startTimestamp",
              "type": "uint256"
            },
            {
              "internalType": "uint256",
              "name": "durationDays",
              "type": "uint256"
            }
          ],
          "internalType": "struct IDecryptionManager.RequestValidity",
          "name": "requestValidity",
          "type": "tuple"
        },
        {
          "internalType": "uint256",
          "name": "contractsChainId",
          "type": "uint256"
        },
        {
          "internalType": "address[]",
          "name": "contractAddresses",
          "type": "address[]"
        },
        {
          "internalType": "address",
          "name": "userAddress",
          "type": "address"
        },
        {
          "internalType": "bytes",
          "name": "publicKey",
          "type": "bytes"
        },
        {
          "internalType": "bytes",
          "name": "signature",
          "type": "bytes"
        }
      ],
      "name": "userDecryptionRequest",
      "outputs": [],
      "stateMutability": "nonpayable",
      "type": "function"
    },
    {
      "inputs": [
        {
          "internalType": "uint256",
          "name": "userDecryptionId",
          "type": "uint256"
        },
        {
          "internalType": "bytes",
          "name": "reencryptedShare",
          "type": "bytes"
        },
        {
          "internalType": "bytes",
          "name": "signature",
          "type": "bytes"
        }
      ],
      "name": "userDecryptionResponse",
      "outputs": [],
      "stateMutability": "nonpayable",
      "type": "function"
    }
  ],
  "bytecode": "0x60a06040523060805234801562000014575f80fd5b506200001f62000025565b620000d9565b7ff0c57e16840df040f15088dc2f81fe391c3923bec73e23a9662efc9c229c6a00805468010000000000000000900460ff1615620000765760405163f92ee8a960e01b815260040160405180910390fd5b80546001600160401b0390811614620000d65780546001600160401b0319166001600160401b0390811782556040519081527fc7f505b2f371ae2175ee4913f4499e1f2633a7b5936321eed1cdaeb6115181d29060200160405180910390a15b50565b608051613e0b620001005f395f8181611ea801528181611ed101526120360152613e0b5ff3fe608060405260043610610199575f3560e01c806379ba5097116100dc578063ad3cb1cc11610087578063e30c397811610062578063e30c397814610492578063e3342f16146104a6578063e4c33a3d146104ba578063f2fde38b146104ce575f80fd5b8063ad3cb1cc1461040c578063b9bfe0a814610454578063e2a7b2f114610473575f80fd5b806384b0196e116100b757806384b0196e146103a55780638da5cb5b146103cc578063ab7325dd146103f8575f80fd5b806379ba5097146103305780637e11db07146103445780638129fc1c14610391575f80fd5b8063373dce8a1161014757806352d1902d1161012257806352d1902d146102e0578063578d9671146102f45780636cde957914610308578063715018a61461031c575f80fd5b8063373dce8a1461025157806339716a5b146102ae5780634f1ef286146102cd575f80fd5b80632538a7e1116101775780632538a7e1146102075780632eafb7db1461022957806330a988aa1461023d575f80fd5b806302fd1a641461019d57806306a4b503146101be5780630d8e6e2c146101dd575b5f80fd5b3480156101a8575f80fd5b506101bc6101b7366004612e25565b6104ed565b005b3480156101c9575f80fd5b506101bc6101d8366004612f55565b6106f4565b3480156101e8575f80fd5b506101f1610b5d565b6040516101fe919061308c565b60405180910390f35b348015610212575f80fd5b5061021b610bd8565b6040519081526020016101fe565b348015610234575f80fd5b506101f1610bfb565b348015610248575f80fd5b506101f1610c17565b34801561025c575f80fd5b5061029e61026b36600461309e565b5f9081527f13fa45e3e06dd5c7291d8698d89ad1fd40bc82f98a605fa4761ea2b538c8db0a602052604090205460ff1690565b60405190151581526020016101fe565b3480156102b9575f80fd5b506101bc6102c83660046130b5565b610c33565b6101bc6102db3660046131f8565b61113c565b3480156102eb575f80fd5b5061021b61115b565b3480156102ff575f80fd5b5061021b611189565b348015610313575f80fd5b506101f16111ac565b348015610327575f80fd5b506101bc6111c8565b34801561033b575f80fd5b506101bc6111db565b34801561034f575f80fd5b5061029e61035e36600461309e565b5f9081527f13fa45e3e06dd5c7291d8698d89ad1fd40bc82f98a605fa4761ea2b538c8db05602052604090205460ff1690565b34801561039c575f80fd5b506101bc611223565b3480156103b0575f80fd5b506103b961136d565b6040516101fe97969594939291906132d4565b3480156103d7575f80fd5b506103e0611431565b6040516001600160a01b0390911681526020016101fe565b348015610403575f80fd5b5061021b611465565b348015610417575f80fd5b506101f16040518060400160405280600581526020017f352e302e3000000000000000000000000000000000000000000000000000000081525081565b34801561045f575f80fd5b506101bc61046e366004612e25565b611488565b34801561047e575f80fd5b506101bc61048d366004613341565b611783565b34801561049d575f80fd5b506103e0611906565b3480156104b1575f80fd5b506101f161192e565b3480156104c5575f80fd5b5061021b61194a565b3480156104d9575f80fd5b506101bc6104e8366004613380565b61196d565b6040516318c4ea4b60e31b8152336004820152730f886fd6e24d9fab00bddd0ae3c59c22724fb1e39063c6275258906024015f6040518083038186803b158015610535575f80fd5b505afa158015610547573d5f803e3d5ffd5b505050505f6105737f13fa45e3e06dd5c7291d8698d89ad1fd40bc82f98a605fa4761ea2b538c8db0090565b604080515f8981526004840160209081528382208054606092810285018301865294840185815295965091949293849392918401828280156105d257602002820191905f5260205f20905b8154815260200190600101908083116105be575b5050505050815260200187878080601f0160208091040260200160405190810160405280939291908181526020018383808284375f920182905250939094525092935091506106229050826119f2565b905061063088828787611a8e565b5f88815260038401602090815260408083208484528252822080546001810182558184529190922001610664868883613418565b505f89815260058501602052604090205460ff1615801561068b5750805461068b90611bea565b156106e9575f89815260058501602052604090819020805460ff191660011790555189907f61568d6eb48e62870afffd55499206a54a8f78b04a627e00ed097161fc05d6be906106e0908b908b9086906135bb565b60405180910390a25b505050505050505050565b600a861115610725576040516362d5a33f60e11b8152600a6004820152602481018790526044015b60405180910390fd5b61016d60208a0135111561075a57604051633295186360e01b815261016d600482015260208a0135602482015260440161071c565b604051637779ec7d60e01b815273188de058d5414c3bfb1d443421008f215781f2da90637779ec7d906107959088908f908f906004016135ea565b5f6040518083038186803b1580156107ab575f80fd5b505afa1580156107bd573d5f803e3d5ffd5b505050505f6040518060a0016040528086868080601f0160208091040260200160405190810160405280939291908181526020018383808284375f920191909152505050908252506040805160208b810282810182019093528b82529283019290918c918c9182918501908490808284375f9201919091525050509082525060208082018c90528c3560408301528c0135606090910152905061086281878585611c6a565b5f8b67ffffffffffffffff81111561087c5761087c61318a565b6040519080825280602002602001820160405280156108a5578160200160208202803683370190505b5090505f5b8c8110156109b1576109258a8a808060200260200160405190810160405280939291908181526020018383602002808284375f81840152601f19601f820116905080830192505050505050508f8f848181106109085761090861364e565b90506040020160200160208101906109209190613380565b611cf6565b610971578d8d8281811061093b5761093b61364e565b90506040020160200160208101906109539190613380565b8a8a60405163a4c3039160e01b815260040161071c9392919061369e565b8d8d828181106109835761098361364e565b9050604002015f013582828151811061099e5761099e61364e565b60209081029190910101526001016108aa565b50604051634fd790cf60e01b81525f90730cd5e87581904dc6d305ccdfb6e72b8f77882c3490634fd790cf906109eb9085906004016136c0565b5f60405180830381865afa158015610a05573d5f803e3d5ffd5b505050506040513d5f823e601f3d908101601f19168201604052610a2c91908101906136f5565b9050610a3781611d4f565b7f13fa45e3e06dd5c7291d8698d89ad1fd40bc82f98a605fa4761ea2b538c8db0680547f13fa45e3e06dd5c7291d8698d89ad1fd40bc82f98a605fa4761ea2b538c8db00915f610a8683613851565b909155505060068101546040805160606020601f8c01819004028201810183529181018a815290918291908c908c90819085018382808284375f9201829052509385525050506020918201879052838152600985019091526040902081518190610af09082613875565b506020828101518051610b099260018501920190612d4a565b50905050807f39220321248df832264b0e08f5ef125395e78e6a48fe0369f3a74709523500b1848c8c8c604051610b4394939291906139e1565b60405180910390a250505050505050505050505050505050565b60606040518060400160405280601181526020017f44656372797074696f6e4d616e61676572000000000000000000000000000000815250610b9e5f611df6565b610ba86001611df6565b610bb15f611df6565b604051602001610bc49493929190613a20565b604051602081830303815290604052905090565b6040518060800160405280605b8152602001613d60605b91398051906020012081565b604051806080016040528060448152602001613dbb6044913981565b6040518060c0016040528060908152602001613c1e6090913981565b600a851115610c5f576040516362d5a33f60e11b8152600a60048201526024810186905260440161071c565b61016d60208a01351115610c9457604051633295186360e01b815261016d600482015260208a0135602482015260440161071c565b73188de058d5414c3bfb1d443421008f215781f2da637779ec7d610cbe60408b0160208c01613380565b8d8d6040518463ffffffff1660e01b8152600401610cde939291906135ea565b5f6040518083038186803b158015610cf4575f80fd5b505afa158015610d06573d5f803e3d5ffd5b505f92508c91505067ffffffffffffffff811115610d2657610d2661318a565b604051908082528060200260200182016040528015610d4f578160200160208202803683370190505b5090505f5b8b811015610e3e57610db28888808060200260200160405190810160405280939291908181526020018383602002808284375f81840152601f19601f820116905080830192505050505050508e8e848181106109085761090861364e565b610dfe578c8c82818110610dc857610dc861364e565b9050604002016020016020810190610de09190613380565b888860405163a4c3039160e01b815260040161071c9392919061369e565b8c8c82818110610e1057610e1061364e565b9050604002015f0135828281518110610e2b57610e2b61364e565b6020908102919091010152600101610d54565b5073188de058d5414c3bfb1d443421008f215781f2da634f20c8c089610e6760208d018d613380565b610e7760408e0160208f01613380565b8b8b6040518663ffffffff1660e01b8152600401610e99959493929190613a9d565b5f6040518083038186803b158015610eaf575f80fd5b505afa158015610ec1573d5f803e3d5ffd5b505050505f6040518060c0016040528087878080601f0160208091040260200160405190810160405280939291908181526020018383808284375f920191909152505050908252506040805160208b810282810182019093528b82529283019290918c918c9182918501908490808284375f92019190915250505090825250602090810190610f569060408e01908e01613380565b6001600160a01b031681526020018a81526020018c5f013581526020018c602001358152509050610f9a818b5f016020810190610f939190613380565b8686611e93565b604051634fd790cf60e01b81525f90730cd5e87581904dc6d305ccdfb6e72b8f77882c3490634fd790cf90610fd39086906004016136c0565b5f60405180830381865afa158015610fed573d5f803e3d5ffd5b505050506040513d5f823e601f3d908101601f1916820160405261101491908101906136f5565b905061101f81611d4f565b7f13fa45e3e06dd5c7291d8698d89ad1fd40bc82f98a605fa4761ea2b538c8db0680547f13fa45e3e06dd5c7291d8698d89ad1fd40bc82f98a605fa4761ea2b538c8db00915f61106e83613851565b909155505060068101546040805160606020601f8c01819004028201810183529181018a815290918291908c908c90819085018382808284375f92018290525093855250505060209182018890528381526009850190915260409020815181906110d89082613875565b5060208281015180516110f19260018501920190612d4a565b50905050807f39220321248df832264b0e08f5ef125395e78e6a48fe0369f3a74709523500b1848f5f01602081019061112a9190613380565b8c8c604051610b4394939291906139e1565b611144611e9d565b61114d82611f54565b6111578282611f5c565b5050565b5f61116461202b565b507f360894a13ba1a3210667c828492db98dca3e2076cc3735a920a3ca505d382bbc90565b6040518060e0016040528060b28152602001613cae60b291398051906020012081565b6040518060e0016040528060b28152602001613cae60b2913981565b6111d0612074565b6111d95f6120a6565b565b33806111e5611906565b6001600160a01b0316146112175760405163118cdaa760e01b81526001600160a01b038216600482015260240161071c565b611220816120a6565b50565b7ff0c57e16840df040f15088dc2f81fe391c3923bec73e23a9662efc9c229c6a0080546002919068010000000000000000900460ff16806112725750805467ffffffffffffffff808416911610155b156112905760405163f92ee8a960e01b815260040160405180910390fd5b805468ffffffffffffffffff191667ffffffffffffffff83161768010000000000000000178155604080518082018252601181527f44656372797074696f6e4d616e61676572000000000000000000000000000000602080830191909152825180840190935260018352603160f81b9083015261130c916120de565b61131c611317611431565b6120f0565b805468ff00000000000000001916815560405167ffffffffffffffff831681527fc7f505b2f371ae2175ee4913f4499e1f2633a7b5936321eed1cdaeb6115181d29060200160405180910390a15050565b5f60608082808083817fa16a46d94261c7517cc8ff89f61c0ce93598e3c849801011dee649a6a557d10080549091501580156113ab57506001810154155b6113f75760405162461bcd60e51b815260206004820152601560248201527f4549503731323a20556e696e697469616c697a65640000000000000000000000604482015260640161071c565b6113ff612101565b6114076121d4565b604080515f80825260208201909252600f60f81b9c939b5091995046985030975095509350915050565b5f807f9016d09d72d40fdae2fd8ceac6b6234c7706214fd39c1cd1e609a0528c1993005b546001600160a01b031692915050565b604051806080016040528060448152602001613dbb604491398051906020012081565b6040516318c4ea4b60e31b8152336004820152730f886fd6e24d9fab00bddd0ae3c59c22724fb1e39063c6275258906024015f6040518083038186803b1580156114d0575f80fd5b505afa1580156114e2573d5f803e3d5ffd5b505050505f61150e7f13fa45e3e06dd5c7291d8698d89ad1fd40bc82f98a605fa4761ea2b538c8db0090565b90505f816009015f8881526020019081526020015f206040518060400160405290815f8201805461153e9061339b565b80601f016020809104026020016040519081016040528092919081815260200182805461156a9061339b565b80156115b55780601f1061158c576101008083540402835291602001916115b5565b820191905f5260205f20905b81548152906001019060200180831161159857829003601f168201915b505050505081526020016001820180548060200260200160405190810160405280929190818152602001828054801561160b57602002820191905f5260205f20905b8154815260200190600101908083116115f7575b50505050508152505090505f6040518060600160405280835f015181526020018360200151815260200188888080601f0160208091040260200160405190810160405280939291908181526020018383808284375f9201829052509390945250929350915061167b905082612225565b9050611689898288886122af565b5f898152600885016020908152604080832084845282528220805460018101825581845291909220016116bd878983613418565b505f8a8152600b860160209081526040822080546001810182559083529120016116e8898b83613418565b505f8a8152600a8601602052604090205460ff1615801561170f5750805461170f9061240b565b15611777575f8a8152600a860160209081526040808320805460ff19166001179055600b88019091529081902090518b917f7312dec4cead0d5d3da836cdbaed1eb6a81e218c519c8740da4ac75afcb6c5c79161176e91908590613acf565b60405180910390a25b50505050505050505050565b60405163710c11a560e01b81527f13fa45e3e06dd5c7291d8698d89ad1fd40bc82f98a605fa4761ea2b538c8db009073188de058d5414c3bfb1d443421008f215781f2da9063710c11a5906117de9086908690600401613af3565b5f6040518083038186803b1580156117f4575f80fd5b505afa158015611806573d5f803e3d5ffd5b5050604051634fd790cf60e01b81525f9250730cd5e87581904dc6d305ccdfb6e72b8f77882c349150634fd790cf906118459087908790600401613af3565b5f60405180830381865afa15801561185f573d5f803e3d5ffd5b505050506040513d5f823e601f3d908101601f1916820160405261188691908101906136f5565b905061189181611d4f565b600182018054905f6118a283613851565b909155505060018201545f81815260048401602052604090206118c6908686612d93565b50807f3cfc2aee45d607390bd77abd605865643c9243a65cec1b1c4e788400cc817a70836040516118f79190613b43565b60405180910390a25050505050565b5f807f237e158222e3e6968b72b9db0d8043aacf074ad9f650f0d1606b4d82ee432c00611455565b6040518060800160405280605b8152602001613d60605b913981565b6040518060c0016040528060908152602001613c1e609091398051906020012081565b611975612074565b7f237e158222e3e6968b72b9db0d8043aacf074ad9f650f0d1606b4d82ee432c0080546001600160a01b0319166001600160a01b03831690811782556119b9611431565b6001600160a01b03167f38d16b8cac22d99fc7c124b9cd0de2d3fa1faef420bfe791d8c362d765e2270060405160405180910390a35050565b5f611a88604051806080016040528060448152602001613dbb60449139805160209182012084516040519192611a289201613b55565b60405160208183030381529060405280519060200120846020015180519060200120604051602001611a6d939291909283526020830191909152604082015260600190565b6040516020818303038152906040528051906020012061245d565b92915050565b5f7f13fa45e3e06dd5c7291d8698d89ad1fd40bc82f98a605fa4761ea2b538c8db0090505f611af28585858080601f0160208091040260200160405190810160405280939291908181526020018383808284375f9201919091525061248992505050565b604051636c88eb4360e01b81526001600160a01b0382166004820152909150730f886fd6e24d9fab00bddd0ae3c59c22724fb1e390636c88eb43906024015f6040518083038186803b158015611b46575f80fd5b505afa158015611b58573d5f803e3d5ffd5b5050505f87815260028401602090815260408083206001600160a01b038616845290915290205460ff16159050611bb45760405163a1714c7760e01b8152600481018790526001600160a01b038216602482015260440161071c565b5f9586526002909101602090815260408087206001600160a01b039093168752919052909320805460ff19166001179055505050565b5f80730f886fd6e24d9fab00bddd0ae3c59c22724fb1e36001600160a01b03166347cd4b3e6040518163ffffffff1660e01b8152600401602060405180830381865afa158015611c3c573d5f803e3d5ffd5b505050506040513d601f19601f82011682018060405250810190611c609190613b8a565b9092101592915050565b5f611c74856124b1565b90505f611cb68285858080601f0160208091040260200160405190810160405280939291908181526020018383808284375f9201919091525061248992505050565b9050846001600160a01b0316816001600160a01b031614611cee578383604051632a873d2760e01b815260040161071c929190613ba1565b505050505050565b5f805b8351811015611d4657826001600160a01b0316848281518110611d1e57611d1e61364e565b60200260200101516001600160a01b031603611d3e576001915050611a88565b600101611cf9565b505f9392505050565b6001815111611d5b5750565b5f815f81518110611d6e57611d6e61364e565b60200260200101516020015190505f600190505b8251811015611df15781838281518110611d9e57611d9e61364e565b60200260200101516020015114611de957828181518110611dc157611dc161364e565b60200260200101516020015160405163f90bc7f560e01b815260040161071c91815260200190565b600101611d82565b505050565b60605f611e0283612552565b60010190505f8167ffffffffffffffff811115611e2157611e2161318a565b6040519080825280601f01601f191660200182016040528015611e4b576020820181803683370190505b5090508181016020015b5f19017f3031323334353637383961626364656600000000000000000000000000000000600a86061a8153600a8504945084611e5557509392505050565b5f611c7485612633565b306001600160a01b037f0000000000000000000000000000000000000000000000000000000000000000161480611f3657507f00000000000000000000000000000000000000000000000000000000000000006001600160a01b0316611f2a7f360894a13ba1a3210667c828492db98dca3e2076cc3735a920a3ca505d382bbc546001600160a01b031690565b6001600160a01b031614155b156111d95760405163703e46dd60e11b815260040160405180910390fd5b611220612074565b816001600160a01b03166352d1902d6040518163ffffffff1660e01b8152600401602060405180830381865afa925050508015611fb6575060408051601f3d908101601f19168201909252611fb391810190613b8a565b60015b611fde57604051634c9c8ce360e01b81526001600160a01b038316600482015260240161071c565b7f360894a13ba1a3210667c828492db98dca3e2076cc3735a920a3ca505d382bbc811461202157604051632a87526960e21b81526004810182905260240161071c565b611df183836126eb565b306001600160a01b037f000000000000000000000000000000000000000000000000000000000000000016146111d95760405163703e46dd60e11b815260040160405180910390fd5b3361207d611431565b6001600160a01b0316146111d95760405163118cdaa760e01b815233600482015260240161071c565b7f237e158222e3e6968b72b9db0d8043aacf074ad9f650f0d1606b4d82ee432c0080546001600160a01b031916815561115782612740565b6120e66127b0565b61115782826127fe565b6120f86127b0565b61122081612870565b7fa16a46d94261c7517cc8ff89f61c0ce93598e3c849801011dee649a6a557d10280546060917fa16a46d94261c7517cc8ff89f61c0ce93598e3c849801011dee649a6a557d100916121529061339b565b80601f016020809104026020016040519081016040528092919081815260200182805461217e9061339b565b80156121c95780601f106121a0576101008083540402835291602001916121c9565b820191905f5260205f20905b8154815290600101906020018083116121ac57829003601f168201915b505050505091505090565b7fa16a46d94261c7517cc8ff89f61c0ce93598e3c849801011dee649a6a557d10380546060917fa16a46d94261c7517cc8ff89f61c0ce93598e3c849801011dee649a6a557d100916121529061339b565b5f611a886040518060800160405280605b8152602001613d60605b913980519060200120835f01518051906020012084602001516040516020016122699190613b55565b60408051601f19818403018152828252805160209182012091880151805190820120611a6d95949390910193845260208401929092526040830152606082015260800190565b5f7f13fa45e3e06dd5c7291d8698d89ad1fd40bc82f98a605fa4761ea2b538c8db0090505f6123138585858080601f0160208091040260200160405190810160405280939291908181526020018383808284375f9201919091525061248992505050565b604051636c88eb4360e01b81526001600160a01b0382166004820152909150730f886fd6e24d9fab00bddd0ae3c59c22724fb1e390636c88eb43906024015f6040518083038186803b158015612367575f80fd5b505afa158015612379573d5f803e3d5ffd5b5050505f87815260078401602090815260408083206001600160a01b038616845290915290205460ff161590506123d55760405163a1714c7760e01b8152600481018790526001600160a01b038216602482015260440161071c565b5f9586526007909101602090815260408087206001600160a01b039093168752919052909320805460ff19166001179055505050565b5f80730f886fd6e24d9fab00bddd0ae3c59c22724fb1e36001600160a01b031663490413aa6040518163ffffffff1660e01b8152600401602060405180830381865afa158015611c3c573d5f803e3d5ffd5b5f611a886124696128a1565b8360405161190160f01b8152600281019290925260228201526042902090565b5f805f8061249786866128af565b9250925092506124a782826128f8565b5090949350505050565b5f611a886040518060c0016040528060908152602001613c1e6090913980519060200120835f01518051906020012084602001516040516020016124f59190613bbc565b60405160208183030381529060405280519060200120856040015186606001518760800151604051602001611a6d96959493929190958652602086019490945260408501929092526060840152608083015260a082015260c00190565b5f807a184f03e93ff9f4daa797ed6e38ed64bf6a1f010000000000000000831061259a577a184f03e93ff9f4daa797ed6e38ed64bf6a1f010000000000000000830492506040015b6d04ee2d6d415b85acef810000000083106125c6576d04ee2d6d415b85acef8100000000830492506020015b662386f26fc1000083106125e457662386f26fc10000830492506010015b6305f5e10083106125fc576305f5e100830492506008015b612710831061261057612710830492506004015b60648310612622576064830492506002015b600a8310611a885760010192915050565b5f611a886040518060e0016040528060b28152602001613cae60b2913980519060200120835f01518051906020012084602001516040516020016126779190613bbc565b604051602081830303815290604052805190602001208560400151866060015187608001518860a00151604051602001611a6d9796959493929190968752602087019590955260408601939093526001600160a01b03919091166060850152608084015260a083015260c082015260e00190565b6126f4826129b0565b6040516001600160a01b038316907fbc7cd75a20ee27fd9adebab32041f755214dbc6bffa90cc0225b39da2e5c2d3b905f90a280511561273857611df18282612a26565b611157612a98565b7f9016d09d72d40fdae2fd8ceac6b6234c7706214fd39c1cd1e609a0528c19930080546001600160a01b031981166001600160a01b03848116918217845560405192169182907f8be0079c531659141344cd1fd0a4f28419497f9722a3daafe3b4186f6b6457e0905f90a3505050565b7ff0c57e16840df040f15088dc2f81fe391c3923bec73e23a9662efc9c229c6a005468010000000000000000900460ff166111d957604051631afcd79f60e31b815260040160405180910390fd5b6128066127b0565b7fa16a46d94261c7517cc8ff89f61c0ce93598e3c849801011dee649a6a557d1007fa16a46d94261c7517cc8ff89f61c0ce93598e3c849801011dee649a6a557d1026128528482613875565b50600381016128618382613875565b505f8082556001909101555050565b6128786127b0565b6001600160a01b03811661121757604051631e4fbdf760e01b81525f600482015260240161071c565b5f6128aa612ab7565b905090565b5f805f83516041036128e6576020840151604085015160608601515f1a6128d888828585612b2a565b9550955095505050506128f1565b505081515f91506002905b9250925092565b5f82600381111561290b5761290b613bee565b03612914575050565b600182600381111561292857612928613bee565b036129465760405163f645eedf60e01b815260040160405180910390fd5b600282600381111561295a5761295a613bee565b0361297b5760405163fce698f760e01b81526004810182905260240161071c565b600382600381111561298f5761298f613bee565b03611157576040516335e2f38360e21b81526004810182905260240161071c565b806001600160a01b03163b5f036129e557604051634c9c8ce360e01b81526001600160a01b038216600482015260240161071c565b7f360894a13ba1a3210667c828492db98dca3e2076cc3735a920a3ca505d382bbc80546001600160a01b0319166001600160a01b0392909216919091179055565b60605f80846001600160a01b031684604051612a429190613c02565b5f60405180830381855af49150503d805f8114612a7a576040519150601f19603f3d011682016040523d82523d5f602084013e612a7f565b606091505b5091509150612a8f858383612bf2565b95945050505050565b34156111d95760405163b398979f60e01b815260040160405180910390fd5b5f7f8b73c3c69bb8fe3d512ecc4cf759cc79239f7b179b0ffacaa9a75d522b39400f612ae1612c51565b612ae9612ccc565b60408051602081019490945283019190915260608201524660808201523060a082015260c00160405160208183030381529060405280519060200120905090565b5f80807f7fffffffffffffffffffffffffffffff5d576e7357a4501ddfe92f46681b20a0841115612b6357505f91506003905082612be8565b604080515f808252602082018084528a905260ff891692820192909252606081018790526080810186905260019060a0016020604051602081039080840390855afa158015612bb4573d5f803e3d5ffd5b5050604051601f1901519150506001600160a01b038116612bdf57505f925060019150829050612be8565b92505f91508190505b9450945094915050565b606082612c0757612c0282612d21565b612c4a565b8151158015612c1e57506001600160a01b0384163b155b15612c4757604051639996b31560e01b81526001600160a01b038516600482015260240161071c565b50805b9392505050565b5f7fa16a46d94261c7517cc8ff89f61c0ce93598e3c849801011dee649a6a557d10081612c7c612101565b805190915015612c9457805160209091012092915050565b81548015612ca3579392505050565b7fc5d2460186f7233c927e7db2dcc703c0e500b653ca82273b7bfad8045d85a470935050505090565b5f7fa16a46d94261c7517cc8ff89f61c0ce93598e3c849801011dee649a6a557d10081612cf76121d4565b805190915015612d0f57805160209091012092915050565b60018201548015612ca3579392505050565b805115612d315780518082602001fd5b60405163d6bda27560e01b815260040160405180910390fd5b828054828255905f5260205f20908101928215612d83579160200282015b82811115612d83578251825591602001919060010190612d68565b50612d8f929150612dcc565b5090565b828054828255905f5260205f20908101928215612d83579160200282015b82811115612d83578235825591602001919060010190612db1565b5b80821115612d8f575f8155600101612dcd565b5f8083601f840112612df0575f80fd5b50813567ffffffffffffffff811115612e07575f80fd5b602083019150836020828501011115612e1e575f80fd5b9250929050565b5f805f805f60608688031215612e39575f80fd5b85359450602086013567ffffffffffffffff80821115612e57575f80fd5b612e6389838a01612de0565b90965094506040880135915080821115612e7b575f80fd5b50612e8888828901612de0565b969995985093965092949392505050565b5f8083601f840112612ea9575f80fd5b50813567ffffffffffffffff811115612ec0575f80fd5b6020830191508360208260061b8501011115612e1e575f80fd5b5f60408284031215612eea575f80fd5b50919050565b5f8083601f840112612f00575f80fd5b50813567ffffffffffffffff811115612f17575f80fd5b6020830191508360208260051b8501011115612e1e575f80fd5b6001600160a01b0381168114611220575f80fd5b8035612f5081612f31565b919050565b5f805f805f805f805f805f6101008c8e031215612f70575f80fd5b67ffffffffffffffff808d351115612f86575f80fd5b612f938e8e358f01612e99565b909c509a50612fa58e60208f01612eda565b995060608d013598508060808e01351115612fbe575f80fd5b612fce8e60808f01358f01612ef0565b9098509650612fdf60a08e01612f45565b95508060c08e01351115612ff1575f80fd5b6130018e60c08f01358f01612de0565b909550935060e08d0135811015613016575f80fd5b506130278d60e08e01358e01612de0565b81935080925050509295989b509295989b9093969950565b5f5b83811015613059578181015183820152602001613041565b50505f910152565b5f815180845261307881602086016020860161303f565b601f01601f19169290920160200192915050565b602081525f612c4a6020830184613061565b5f602082840312156130ae575f80fd5b5035919050565b5f805f805f805f805f805f6101208c8e0312156130d0575f80fd5b67ffffffffffffffff808d3511156130e6575f80fd5b6130f38e8e358f01612e99565b909c509a506131058e60208f01612eda565b99506131148e60608f01612eda565b985060a08d013597508060c08e0135111561312d575f80fd5b61313d8e60c08f01358f01612ef0565b909750955060e08d0135811015613152575f80fd5b6131628e60e08f01358f01612de0565b90955093506101008d0135811015613178575f80fd5b506130278d6101008e01358e01612de0565b634e487b7160e01b5f52604160045260245ffd5b6040516080810167ffffffffffffffff811182821017156131c1576131c161318a565b60405290565b604051601f8201601f1916810167ffffffffffffffff811182821017156131f0576131f061318a565b604052919050565b5f8060408385031215613209575f80fd5b823561321481612f31565b915060208381013567ffffffffffffffff80821115613231575f80fd5b818601915086601f830112613244575f80fd5b8135818111156132565761325661318a565b613268601f8201601f191685016131c7565b9150808252878482850101111561327d575f80fd5b80848401858401375f848284010152508093505050509250929050565b5f815180845260208085019450602084015f5b838110156132c9578151875295820195908201906001016132ad565b509495945050505050565b60ff60f81b8816815260e060208201525f6132f260e0830189613061565b82810360408401526133048189613061565b90508660608401526001600160a01b03861660808401528460a084015282810360c0840152613333818561329a565b9a9950505050505050505050565b5f8060208385031215613352575f80fd5b823567ffffffffffffffff811115613368575f80fd5b61337485828601612ef0565b90969095509350505050565b5f60208284031215613390575f80fd5b8135612c4a81612f31565b600181811c908216806133af57607f821691505b602082108103612eea57634e487b7160e01b5f52602260045260245ffd5b601f821115611df157805f5260205f20601f840160051c810160208510156133f25750805b601f840160051c820191505b81811015613411575f81556001016133fe565b5050505050565b67ffffffffffffffff8311156134305761343061318a565b6134448361343e835461339b565b836133cd565b5f601f841160018114613475575f851561345e5750838201355b5f19600387901b1c1916600186901b178355613411565b5f83815260208120601f198716915b828110156134a45786850135825560209485019460019092019101613484565b50868210156134c0575f1960f88860031b161c19848701351681555b505060018560011b0183555050505050565b81835281816020850137505f828201602090810191909152601f909101601f19169091010190565b5f828254808552602080860195506005818360051b850101865f52825f205f5b858110156135ad57601f19878403018a525f82546135378161339b565b80865260018281168015613552576001811461356b57613596565b60ff198416888b0152821515891b88018a019450613596565b865f52895f205f5b8481101561358e5781548a82018d0152908301908b01613573565b89018b019550505b509c88019c9295505050919091019060010161351a565b509098975050505050505050565b604081525f6135ce6040830185876134d2565b82810360208401526135e081856134fa565b9695505050505050565b6001600160a01b038481168252604060208084018290528382018590525f92869160608601855b8881101561364057843582528285013561362a81612f31565b8416828401529385019390850190600101613611565b509998505050505050505050565b634e487b7160e01b5f52603260045260245ffd5b8183525f60208085019450825f5b858110156132c957813561368381612f31565b6001600160a01b031687529582019590820190600101613670565b6001600160a01b0384168152604060208201525f612a8f604083018486613662565b602081525f612c4a602083018461329a565b5f67ffffffffffffffff8211156136eb576136eb61318a565b5060051b60200190565b5f6020808385031215613706575f80fd5b825167ffffffffffffffff8082111561371d575f80fd5b818501915085601f830112613730575f80fd5b815161374361373e826136d2565b6131c7565b81815260059190911b83018401908481019088831115613761575f80fd5b8585015b838110156138445780518581111561377b575f80fd5b86016080818c03601f19011215613790575f80fd5b61379861319e565b8882015181526040808301518a8301526060830151818301526080830151888111156137c2575f80fd5b8084019350508c603f8401126137d6575f80fd5b898301516137e661373e826136d2565b81815260059190911b84018201908b8101908f831115613804575f80fd5b948301945b8286101561382e578551935061381e84612f31565b838252948c0194908c0190613809565b6060850152505050845250918601918601613765565b5098975050505050505050565b5f6001820161386e57634e487b7160e01b5f52601160045260245ffd5b5060010190565b815167ffffffffffffffff81111561388f5761388f61318a565b6138a38161389d845461339b565b846133cd565b602080601f8311600181146138d6575f84156138bf5750858301515b5f19600386901b1c1916600185901b178555611cee565b5f85815260208120601f198616915b82811015613904578886015182559484019460019091019084016138e5565b508582101561392157878501515f19600388901b60f8161c191681555b5050505050600190811b01905550565b5f82825180855260208086019550808260051b8401018186015f5b848110156139d457858303601f190189528151805184528481015185850152604080820151908501526060908101516080918501829052805191850182905285019060a08501905f905b808210156139bf5783516001600160a01b03168352928701929187019160019190910190613996565b5050998501999350509083019060010161394c565b5090979650505050505050565b606081525f6139f36060830187613931565b6001600160a01b03861660208401528281036040840152613a158185876134d2565b979650505050505050565b5f8551613a31818460208a0161303f565b61103b60f11b9083019081528551613a50816002840160208a0161303f565b808201915050601760f91b8060028301528551613a74816003850160208a0161303f565b60039201918201528351613a8f81600484016020880161303f565b016004019695505050505050565b8581525f6001600160a01b03808716602084015280861660408401525060806060830152613a15608083018486613662565b604081525f613ae160408301856134fa565b8281036020840152612a8f81856134fa565b602081528160208201525f7f07ffffffffffffffffffffffffffffffffffffffffffffffffffffffffffffff831115613b2a575f80fd5b8260051b80856040850137919091016040019392505050565b602081525f612c4a6020830184613931565b81515f9082906020808601845b83811015613b7e57815185529382019390820190600101613b62565b50929695505050505050565b5f60208284031215613b9a575f80fd5b5051919050565b602081525f613bb46020830184866134d2565b949350505050565b81515f9082906020808601845b83811015613b7e5781516001600160a01b031685529382019390820190600101613bc9565b634e487b7160e01b5f52602160045260245ffd5b5f8251613c1381846020870161303f565b919091019291505056fe557365724465637279707452657175657374566572696669636174696f6e286279746573207075626c69634b65792c616464726573735b5d20636f6e74726163744164647265737365732c75696e7432353620636f6e747261637473436861696e49642c75696e7432353620737461727454696d657374616d702c75696e74323536206475726174696f6e446179732944656c656761746564557365724465637279707452657175657374566572696669636174696f6e286279746573207075626c69634b65792c616464726573735b5d20636f6e74726163744164647265737365732c616464726573732064656c6567617465644163636f756e742c75696e7432353620636f6e747261637473436861696e49642c75696e7432353620737461727454696d657374616d702c75696e74323536206475726174696f6e44617973295573657244656372797074526573706f6e7365566572696669636174696f6e286279746573207075626c69634b65792c75696e743235365b5d20637448616e646c65732c6279746573207265656e637279707465645368617265295075626c696344656372797074566572696669636174696f6e2875696e743235365b5d20637448616e646c65732c627974657320646563727970746564526573756c7429a164736f6c6343000818000a",
  "linkReferences": {},
  "deployedLinkReferences": {}
}