{
  "_format": "hh-sol-artifact-1",
  "contractName": "ZKPoKManager",
  "sourceName": "contracts/ZKPoKManager.sol",
  "abi": [
    {
      "inputs": [],
      "stateMutability": "nonpayable",
      "type": "constructor"
    },
    {
      "inputs": [
        {
          "internalType": "address",
          "name": "target",
          "type": "address"
        }
      ],
      "name": "AddressEmptyCode",
      "type": "error"
    },
    {
      "inputs": [
        {
          "internalType": "uint256",
          "name": "zkProofId",
          "type": "uint256"
        },
        {
          "internalType": "address",
          "name": "signer",
          "type": "address"
        }
      ],
      "name": "CoprocessorSignerAlreadyResponded",
      "type": "error"
    },
    {
      "inputs": [
        {
          "internalType": "uint256",
          "name": "zkProofId",
          "type": "uint256"
        },
        {
          "internalType": "address",
          "name": "signer",
          "type": "address"
        }
      ],
      "name": "CoprocessorSignerAlreadySigned",
      "type": "error"
    },
    {
      "inputs": [],
      "name": "ECDSAInvalidSignature",
      "type": "error"
    },
    {
      "inputs": [
        {
          "internalType": "uint256",
          "name": "length",
          "type": "uint256"
        }
      ],
      "name": "ECDSAInvalidSignatureLength",
      "type": "error"
    },
    {
      "inputs": [
        {
          "internalType": "bytes32",
          "name": "s",
          "type": "bytes32"
        }
      ],
      "name": "ECDSAInvalidSignatureS",
      "type": "error"
    },
    {
      "inputs": [
        {
          "internalType": "address",
          "name": "implementation",
          "type": "address"
        }
      ],
      "name": "ERC1967InvalidImplementation",
      "type": "error"
    },
    {
      "inputs": [],
      "name": "ERC1967NonPayable",
      "type": "error"
    },
    {
      "inputs": [],
      "name": "FailedCall",
      "type": "error"
    },
    {
      "inputs": [],
      "name": "InvalidInitialization",
      "type": "error"
    },
    {
      "inputs": [],
      "name": "NotInitializing",
      "type": "error"
    },
    {
      "inputs": [
        {
          "internalType": "address",
          "name": "owner",
          "type": "address"
        }
      ],
      "name": "OwnableInvalidOwner",
      "type": "error"
    },
    {
      "inputs": [
        {
          "internalType": "address",
          "name": "account",
          "type": "address"
        }
      ],
      "name": "OwnableUnauthorizedAccount",
      "type": "error"
    },
    {
      "inputs": [],
      "name": "UUPSUnauthorizedCallContext",
      "type": "error"
    },
    {
      "inputs": [
        {
          "internalType": "bytes32",
          "name": "slot",
          "type": "bytes32"
        }
      ],
      "name": "UUPSUnsupportedProxiableUUID",
      "type": "error"
    },
    {
      "anonymous": false,
      "inputs": [],
      "name": "EIP712DomainChanged",
      "type": "event"
    },
    {
      "anonymous": false,
      "inputs": [
        {
          "indexed": false,
          "internalType": "uint64",
          "name": "version",
          "type": "uint64"
        }
      ],
      "name": "Initialized",
      "type": "event"
    },
    {
      "anonymous": false,
      "inputs": [
        {
          "indexed": true,
          "internalType": "address",
          "name": "previousOwner",
          "type": "address"
        },
        {
          "indexed": true,
          "internalType": "address",
          "name": "newOwner",
          "type": "address"
        }
      ],
      "name": "OwnershipTransferStarted",
      "type": "event"
    },
    {
      "anonymous": false,
      "inputs": [
        {
          "indexed": true,
          "internalType": "address",
          "name": "previousOwner",
          "type": "address"
        },
        {
          "indexed": true,
          "internalType": "address",
          "name": "newOwner",
          "type": "address"
        }
      ],
      "name": "OwnershipTransferred",
      "type": "event"
    },
    {
      "anonymous": false,
      "inputs": [
        {
          "indexed": true,
          "internalType": "uint256",
          "name": "zkProofId",
          "type": "uint256"
        }
      ],
      "name": "RejectProofResponse",
      "type": "event"
    },
    {
      "anonymous": false,
      "inputs": [
        {
          "indexed": true,
          "internalType": "address",
          "name": "implementation",
          "type": "address"
        }
      ],
      "name": "Upgraded",
      "type": "event"
    },
    {
      "anonymous": false,
      "inputs": [
        {
          "indexed": true,
          "internalType": "uint256",
          "name": "zkProofId",
          "type": "uint256"
        },
        {
          "indexed": true,
          "internalType": "uint256",
          "name": "contractChainId",
          "type": "uint256"
        },
        {
          "indexed": false,
          "internalType": "address",
          "name": "contractAddress",
          "type": "address"
        },
        {
          "indexed": false,
          "internalType": "address",
          "name": "userAddress",
          "type": "address"
        },
        {
          "indexed": false,
          "internalType": "bytes",
          "name": "ciphertextWithZKProof",
          "type": "bytes"
        }
      ],
      "name": "VerifyProofRequest",
      "type": "event"
    },
    {
      "anonymous": false,
      "inputs": [
        {
          "indexed": true,
          "internalType": "uint256",
          "name": "zkProofId",
          "type": "uint256"
        },
        {
          "indexed": false,
          "internalType": "bytes32[]",
          "name": "ctHandles",
          "type": "bytes32[]"
        },
        {
          "indexed": false,
          "internalType": "bytes[]",
          "name": "signatures",
          "type": "bytes[]"
        }
      ],
      "name": "VerifyProofResponse",
      "type": "event"
    },
    {
      "inputs": [],
      "name": "UPGRADE_INTERFACE_VERSION",
      "outputs": [
        {
          "internalType": "string",
          "name": "",
          "type": "string"
        }
      ],
      "stateMutability": "view",
      "type": "function"
    },
    {
      "inputs": [],
      "name": "acceptOwnership",
      "outputs": [],
      "stateMutability": "nonpayable",
      "type": "function"
    },
    {
      "inputs": [],
      "name": "eip712Domain",
      "outputs": [
        {
          "internalType": "bytes1",
          "name": "fields",
          "type": "bytes1"
        },
        {
          "internalType": "string",
          "name": "name",
          "type": "string"
        },
        {
          "internalType": "string",
          "name": "version",
          "type": "string"
        },
        {
          "internalType": "uint256",
          "name": "chainId",
          "type": "uint256"
        },
        {
          "internalType": "address",
          "name": "verifyingContract",
          "type": "address"
        },
        {
          "internalType": "bytes32",
          "name": "salt",
          "type": "bytes32"
        },
        {
          "internalType": "uint256[]",
          "name": "extensions",
          "type": "uint256[]"
        }
      ],
      "stateMutability": "view",
      "type": "function"
    },
    {
      "inputs": [],
      "name": "getVersion",
      "outputs": [
        {
          "internalType": "string",
          "name": "",
          "type": "string"
        }
      ],
      "stateMutability": "pure",
      "type": "function"
    },
    {
      "inputs": [],
      "name": "initialize",
      "outputs": [],
      "stateMutability": "nonpayable",
      "type": "function"
    },
    {
      "inputs": [
        {
          "internalType": "uint256",
          "name": "zkProofId",
          "type": "uint256"
        }
      ],
      "name": "isProofRejected",
      "outputs": [
        {
          "internalType": "bool",
          "name": "",
          "type": "bool"
        }
      ],
      "stateMutability": "view",
      "type": "function"
    },
    {
      "inputs": [
        {
          "internalType": "uint256",
          "name": "zkProofId",
          "type": "uint256"
        }
      ],
      "name": "isProofVerified",
      "outputs": [
        {
          "internalType": "bool",
          "name": "",
          "type": "bool"
        }
      ],
      "stateMutability": "view",
      "type": "function"
    },
    {
      "inputs": [],
      "name": "owner",
      "outputs": [
        {
          "internalType": "address",
          "name": "",
          "type": "address"
        }
      ],
      "stateMutability": "view",
      "type": "function"
    },
    {
      "inputs": [],
      "name": "pendingOwner",
      "outputs": [
        {
          "internalType": "address",
          "name": "",
          "type": "address"
        }
      ],
      "stateMutability": "view",
      "type": "function"
    },
    {
      "inputs": [],
      "name": "proxiableUUID",
      "outputs": [
        {
          "internalType": "bytes32",
          "name": "",
          "type": "bytes32"
        }
      ],
      "stateMutability": "view",
      "type": "function"
    },
    {
      "inputs": [
        {
          "internalType": "uint256",
          "name": "zkProofId",
          "type": "uint256"
        }
      ],
      "name": "rejectProofResponse",
      "outputs": [],
      "stateMutability": "nonpayable",
      "type": "function"
    },
    {
      "inputs": [],
      "name": "renounceOwnership",
      "outputs": [],
      "stateMutability": "nonpayable",
      "type": "function"
    },
    {
      "inputs": [
        {
          "internalType": "address",
          "name": "newOwner",
          "type": "address"
        }
      ],
      "name": "transferOwnership",
      "outputs": [],
      "stateMutability": "nonpayable",
      "type": "function"
    },
    {
      "inputs": [
        {
          "internalType": "address",
          "name": "newImplementation",
          "type": "address"
        },
        {
          "internalType": "bytes",
          "name": "data",
          "type": "bytes"
        }
      ],
      "name": "upgradeToAndCall",
      "outputs": [],
      "stateMutability": "payable",
      "type": "function"
    },
    {
      "inputs": [
        {
          "internalType": "uint256",
          "name": "contractChainId",
          "type": "uint256"
        },
        {
          "internalType": "address",
          "name": "contractAddress",
          "type": "address"
        },
        {
          "internalType": "address",
          "name": "userAddress",
          "type": "address"
        },
        {
          "internalType": "bytes",
          "name": "ciphertextWithZKProof",
          "type": "bytes"
        }
      ],
      "name": "verifyProofRequest",
      "outputs": [],
      "stateMutability": "nonpayable",
      "type": "function"
    },
    {
      "inputs": [
        {
          "internalType": "uint256",
          "name": "zkProofId",
          "type": "uint256"
        },
        {
          "internalType": "bytes32[]",
          "name": "ctHandles",
          "type": "bytes32[]"
        },
        {
          "internalType": "bytes",
          "name": "signature",
          "type": "bytes"
        }
      ],
      "name": "verifyProofResponse",
      "outputs": [],
      "stateMutability": "nonpayable",
      "type": "function"
    }
  ],
  "bytecode": "0x60a06040523060805234801562000014575f80fd5b506200001f62000025565b620000d9565b7ff0c57e16840df040f15088dc2f81fe391c3923bec73e23a9662efc9c229c6a00805468010000000000000000900460ff1615620000765760405163f92ee8a960e01b815260040160405180910390fd5b80546001600160401b0390811614620000d65780546001600160401b0319166001600160401b0390811782556040519081527fc7f505b2f371ae2175ee4913f4499e1f2633a7b5936321eed1cdaeb6115181d29060200160405180910390a15b50565b60805161250f620001005f395f8181610e7e01528181610ea70152611011015261250f5ff3fe6080604052600436106100ef575f3560e01c806384b0196e11610087578063bebd1e6a11610057578063bebd1e6a146102c2578063e30c3978146102e1578063e96f88ea146102f5578063f2fde38b14610342575f80fd5b806384b0196e146102085780638da5cb5b1461022f578063954d27121461025b578063ad3cb1cc1461027a575f80fd5b806352d1902d116100c257806352d1902d146101aa578063715018a6146101cc57806379ba5097146101e05780638129fc1c146101f4575f80fd5b80630c615839146100f35780630d8e6e2c1461015557806312fe7315146101765780634f1ef28614610197575b5f80fd5b3480156100fe575f80fd5b5061014061010d366004611bb1565b5f9081527ffc4275d554bf606fe8341b5d487ea117d8e849caa41b49b189053b59696e2702602052604090205460ff1690565b60405190151581526020015b60405180910390f35b348015610160575f80fd5b50610169610361565b60405161014c9190611c15565b348015610181575f80fd5b50610195610190366004611bb1565b6103cb565b005b6101956101a5366004611cd0565b6104b2565b3480156101b5575f80fd5b506101be6104cd565b60405190815260200161014c565b3480156101d7575f80fd5b506101956104fb565b3480156101eb575f80fd5b5061019561050e565b3480156101ff575f80fd5b5061019561055b565b348015610213575f80fd5b5061021c610694565b60405161014c9796959493929190611d5d565b34801561023a575f80fd5b50610243610758565b6040516001600160a01b03909116815260200161014c565b348015610266575f80fd5b50610195610275366004611e39565b61078c565b348015610285575f80fd5b506101696040518060400160405280600581526020017f352e302e3000000000000000000000000000000000000000000000000000000081525081565b3480156102cd575f80fd5b506101956102dc366004611ea7565b6108e1565b3480156102ec575f80fd5b50610243610b0b565b348015610300575f80fd5b5061014061030f366004611bb1565b5f9081527ffc4275d554bf606fe8341b5d487ea117d8e849caa41b49b189053b59696e2701602052604090205460ff1690565b34801561034d575f80fd5b5061019561035c366004611f38565b610b33565b60606040518060400160405280600c81526020016b2d25a837a5a6b0b730b3b2b960a11b8152506103915f610bb8565b61039b6001610bb8565b6103a45f610bb8565b6040516020016103b79493929190611f53565b604051602081830303815290604052905090565b7ffc4275d554bf606fe8341b5d487ea117d8e849caa41b49b189053b59696e27006103f63383610c55565b5f828152600482016020526040812080549161041183611fd0565b90915550505f8281527ffc4275d554bf606fe8341b5d487ea117d8e849caa41b49b189053b59696e2702602052604090205460ff1615801561046757505f82815260048201602052604090205461046790610df3565b156104ae575f828152600282016020526040808220805460ff191660011790555183917fe465e141fa8abd95ab7e0855543307f8506ab0170ef664420fb71ab7de0183de91a25b5050565b6104ba610e73565b6104c382610f2a565b6104ae8282610f32565b5f6104d6611006565b507f360894a13ba1a3210667c828492db98dca3e2076cc3735a920a3ca505d382bbc90565b61050361104f565b61050c5f611081565b565b3380610518610b0b565b6001600160a01b03161461054f5760405163118cdaa760e01b81526001600160a01b03821660048201526024015b60405180910390fd5b61055881611081565b50565b7ff0c57e16840df040f15088dc2f81fe391c3923bec73e23a9662efc9c229c6a0080546002919068010000000000000000900460ff16806105aa5750805467ffffffffffffffff808416911610155b156105c85760405163f92ee8a960e01b815260040160405180910390fd5b805468ffffffffffffffffff191667ffffffffffffffff83161768010000000000000000178155604080518082018252600c81526b2d25a837a5a6b0b730b3b2b960a11b602080830191909152825180840190935260018352603160f81b90830152610633916110b9565b61064361063e610758565b6110cb565b805468ff00000000000000001916815560405167ffffffffffffffff831681527fc7f505b2f371ae2175ee4913f4499e1f2633a7b5936321eed1cdaeb6115181d29060200160405180910390a15050565b5f60608082808083817fa16a46d94261c7517cc8ff89f61c0ce93598e3c849801011dee649a6a557d10080549091501580156106d257506001810154155b61071e5760405162461bcd60e51b815260206004820152601560248201527f4549503731323a20556e696e697469616c697a656400000000000000000000006044820152606401610546565b6107266110dc565b61072e6111af565b604080515f80825260208201909252600f60f81b9c939b5091995046985030975095509350915050565b5f807f9016d09d72d40fdae2fd8ceac6b6234c7706214fd39c1cd1e609a0528c1993005b546001600160a01b031692915050565b60405163c6b3024d60e01b8152600481018690528590730f886fd6e24d9fab00bddd0ae3c59c22724fb1e39063c6b3024d906024015f6040518083038186803b1580156107d7575f80fd5b505afa1580156107e9573d5f803e3d5ffd5b505050505f6108157ffc4275d554bf606fe8341b5d487ea117d8e849caa41b49b189053b59696e270090565b8054909150815f61082583611fd0565b90915550508054604080516060810182528981526001600160a01b03808a1660208084019182528a83168486019081525f87815260068901909252908590209351845590516001840180549184166001600160a01b031992831617905590516002909301805493909216921691909117905551889082907f18548e08c36e87f31f540ad85cfda94cfd6f63b059c4cd8a0b7eb1ea419083f2906108cf908b908b908b908b90611ff4565b60405180910390a35050505050505050565b60405163cb66175560e01b8152336004820152730f886fd6e24d9fab00bddd0ae3c59c22724fb1e39063cb661755906024015f6040518083038186803b158015610929575f80fd5b505afa15801561093b573d5f803e3d5ffd5b505050505f6109677ffc4275d554bf606fe8341b5d487ea117d8e849caa41b49b189053b59696e270090565b5f878152600682016020908152604080832081516060810183528154815260018201546001600160a01b039081168286015260029092015490911681830152815160a0938a028082018501909352608081018a81529596509094909283928b918b9182918601908490808284375f9201829052509385525050506040808601516001600160a01b0390811660208086019190915287015116908301528451606090920191909152909150610a1a82611200565b9050610a28898288886112b7565b5f89815260038501602090815260408083208484528252822080546001810182558184529190922001610a5c8789836120bb565b505f8a81527ffc4275d554bf606fe8341b5d487ea117d8e849caa41b49b189053b59696e2701602052604090205460ff16158015610aa057508054610aa090610df3565b15610aff575f8a81526001868101602052604091829020805460ff19169091179055518a907ffe2c43585786a5a658d2ec5df5dea3fb3385b77c94f60f724ff810896f41983590610af6908c908c908690612175565b60405180910390a25b50505050505050505050565b5f807f237e158222e3e6968b72b9db0d8043aacf074ad9f650f0d1606b4d82ee432c0061077c565b610b3b61104f565b7f237e158222e3e6968b72b9db0d8043aacf074ad9f650f0d1606b4d82ee432c0080546001600160a01b0319166001600160a01b0383169081178255610b7f610758565b6001600160a01b03167f38d16b8cac22d99fc7c124b9cd0de2d3fa1faef420bfe791d8c362d765e2270060405160405180910390a35050565b60605f610bc48361130a565b60010190505f8167ffffffffffffffff811115610be357610be3611c3b565b6040519080825280601f01601f191660200182016040528015610c0d576020820181803683370190505b5090508181016020015b5f19017f3031323334353637383961626364656600000000000000000000000000000000600a86061a8153600a8504945084610c1757509392505050565b5f7ffc4275d554bf606fe8341b5d487ea117d8e849caa41b49b189053b59696e270060405163cb66175560e01b81526001600160a01b0385166004820152909150730f886fd6e24d9fab00bddd0ae3c59c22724fb1e39063cb661755906024015f6040518083038186803b158015610ccb575f80fd5b505afa158015610cdd573d5f803e3d5ffd5b505060405163ef6997f960e01b81526001600160a01b03861660048201525f9250730f886fd6e24d9fab00bddd0ae3c59c22724fb1e3915063ef6997f9906024015f60405180830381865afa158015610d38573d5f803e3d5ffd5b505050506040513d5f823e601f3d908101601f19168201604052610d5f9190810190612291565b6020808201515f86815260058601835260408082206001600160a01b038416835290935291909120549192509060ff1615610dbf5760405163fc5774ab60e01b8152600481018590526001600160a01b0382166024820152604401610546565b5f9384526005909201602090815260408085206001600160a01b039094168552929052509020805460ff1916600117905550565b5f80730f886fd6e24d9fab00bddd0ae3c59c22724fb1e36001600160a01b0316636799ef526040518163ffffffff1660e01b8152600401602060405180830381865afa158015610e45573d5f803e3d5ffd5b505050506040513d601f19601f82011682018060405250810190610e699190612358565b9092101592915050565b306001600160a01b037f0000000000000000000000000000000000000000000000000000000000000000161480610f0c57507f00000000000000000000000000000000000000000000000000000000000000006001600160a01b0316610f007f360894a13ba1a3210667c828492db98dca3e2076cc3735a920a3ca505d382bbc546001600160a01b031690565b6001600160a01b031614155b1561050c5760405163703e46dd60e11b815260040160405180910390fd5b61055861104f565b816001600160a01b03166352d1902d6040518163ffffffff1660e01b8152600401602060405180830381865afa925050508015610f8c575060408051601f3d908101601f19168201909252610f8991810190612358565b60015b610fb457604051634c9c8ce360e01b81526001600160a01b0383166004820152602401610546565b7f360894a13ba1a3210667c828492db98dca3e2076cc3735a920a3ca505d382bbc8114610ff757604051632a87526960e21b815260048101829052602401610546565b61100183836113eb565b505050565b306001600160a01b037f0000000000000000000000000000000000000000000000000000000000000000161461050c5760405163703e46dd60e11b815260040160405180910390fd5b33611058610758565b6001600160a01b03161461050c5760405163118cdaa760e01b8152336004820152602401610546565b7f237e158222e3e6968b72b9db0d8043aacf074ad9f650f0d1606b4d82ee432c0080546001600160a01b03191681556104ae82611440565b6110c16114b0565b6104ae82826114fe565b6110d36114b0565b61055881611570565b7fa16a46d94261c7517cc8ff89f61c0ce93598e3c849801011dee649a6a557d10280546060917fa16a46d94261c7517cc8ff89f61c0ce93598e3c849801011dee649a6a557d1009161112d9061203f565b80601f01602080910402602001604051908101604052809291908181526020018280546111599061203f565b80156111a45780601f1061117b576101008083540402835291602001916111a4565b820191905f5260205f20905b81548152906001019060200180831161118757829003601f168201915b505050505091505090565b7fa16a46d94261c7517cc8ff89f61c0ce93598e3c849801011dee649a6a557d10380546060917fa16a46d94261c7517cc8ff89f61c0ce93598e3c849801011dee649a6a557d1009161112d9061203f565b5f6112b16040518060a00160405280606f8152602001612494606f9139805160209182012084516040519192611236920161236f565b6040516020818303038152906040528051906020012084602001518560400151866060015160405160200161129695949392919094855260208501939093526001600160a01b039182166040850152166060830152608082015260a00190565b604051602081830303815290604052805190602001206115a1565b92915050565b5f6112f78484848080601f0160208091040260200160405190810160405280939291908181526020018383808284375f920191909152506115cd92505050565b905061130381866115f5565b5050505050565b5f807a184f03e93ff9f4daa797ed6e38ed64bf6a1f0100000000000000008310611352577a184f03e93ff9f4daa797ed6e38ed64bf6a1f010000000000000000830492506040015b6d04ee2d6d415b85acef8100000000831061137e576d04ee2d6d415b85acef8100000000830492506020015b662386f26fc10000831061139c57662386f26fc10000830492506010015b6305f5e10083106113b4576305f5e100830492506008015b61271083106113c857612710830492506004015b606483106113da576064830492506002015b600a83106112b15760010192915050565b6113f482611708565b6040516001600160a01b038316907fbc7cd75a20ee27fd9adebab32041f755214dbc6bffa90cc0225b39da2e5c2d3b905f90a280511561143857611001828261177e565b6104ae6117f0565b7f9016d09d72d40fdae2fd8ceac6b6234c7706214fd39c1cd1e609a0528c19930080546001600160a01b031981166001600160a01b03848116918217845560405192169182907f8be0079c531659141344cd1fd0a4f28419497f9722a3daafe3b4186f6b6457e0905f90a3505050565b7ff0c57e16840df040f15088dc2f81fe391c3923bec73e23a9662efc9c229c6a005468010000000000000000900460ff1661050c57604051631afcd79f60e31b815260040160405180910390fd5b6115066114b0565b7fa16a46d94261c7517cc8ff89f61c0ce93598e3c849801011dee649a6a557d1007fa16a46d94261c7517cc8ff89f61c0ce93598e3c849801011dee649a6a557d10261155284826123a4565b506003810161156183826123a4565b505f8082556001909101555050565b6115786114b0565b6001600160a01b03811661054f57604051631e4fbdf760e01b81525f6004820152602401610546565b5f6112b16115ad61180f565b8360405161190160f01b8152600281019290925260228201526042902090565b5f805f806115db868661181d565b9250925092506115eb8282611866565b5090949350505050565b5f7ffc4275d554bf606fe8341b5d487ea117d8e849caa41b49b189053b59696e270060405163cdb4c2b960e01b81526001600160a01b0385166004820152909150730f886fd6e24d9fab00bddd0ae3c59c22724fb1e39063cdb4c2b9906024015f6040518083038186803b15801561166b575f80fd5b505afa15801561167d573d5f803e3d5ffd5b5050505f83815260058301602090815260408083206001600160a01b038816845290915290205460ff161590506116d9576040516311e4fa2960e31b8152600481018390526001600160a01b0384166024820152604401610546565b5f918252600501602090815260408083206001600160a01b03909416835292905220805460ff19166001179055565b806001600160a01b03163b5f0361173d57604051634c9c8ce360e01b81526001600160a01b0382166004820152602401610546565b7f360894a13ba1a3210667c828492db98dca3e2076cc3735a920a3ca505d382bbc80546001600160a01b0319166001600160a01b0392909216919091179055565b60605f80846001600160a01b03168460405161179a9190612464565b5f60405180830381855af49150503d805f81146117d2576040519150601f19603f3d011682016040523d82523d5f602084013e6117d7565b606091505b50915091506117e785838361191e565b95945050505050565b341561050c5760405163b398979f60e01b815260040160405180910390fd5b5f61181861197d565b905090565b5f805f8351604103611854576020840151604085015160608601515f1a611846888285856119f0565b95509550955050505061185f565b505081515f91506002905b9250925092565b5f8260038111156118795761187961247f565b03611882575050565b60018260038111156118965761189661247f565b036118b45760405163f645eedf60e01b815260040160405180910390fd5b60028260038111156118c8576118c861247f565b036118e95760405163fce698f760e01b815260048101829052602401610546565b60038260038111156118fd576118fd61247f565b036104ae576040516335e2f38360e21b815260048101829052602401610546565b6060826119335761192e82611ab8565b611976565b815115801561194a57506001600160a01b0384163b155b1561197357604051639996b31560e01b81526001600160a01b0385166004820152602401610546565b50805b9392505050565b5f7f8b73c3c69bb8fe3d512ecc4cf759cc79239f7b179b0ffacaa9a75d522b39400f6119a7611ae1565b6119af611b5c565b60408051602081019490945283019190915260608201524660808201523060a082015260c00160405160208183030381529060405280519060200120905090565b5f80807f7fffffffffffffffffffffffffffffff5d576e7357a4501ddfe92f46681b20a0841115611a2957505f91506003905082611aae565b604080515f808252602082018084528a905260ff891692820192909252606081018790526080810186905260019060a0016020604051602081039080840390855afa158015611a7a573d5f803e3d5ffd5b5050604051601f1901519150506001600160a01b038116611aa557505f925060019150829050611aae565b92505f91508190505b9450945094915050565b805115611ac85780518082602001fd5b60405163d6bda27560e01b815260040160405180910390fd5b5f7fa16a46d94261c7517cc8ff89f61c0ce93598e3c849801011dee649a6a557d10081611b0c6110dc565b805190915015611b2457805160209091012092915050565b81548015611b33579392505050565b7fc5d2460186f7233c927e7db2dcc703c0e500b653ca82273b7bfad8045d85a470935050505090565b5f7fa16a46d94261c7517cc8ff89f61c0ce93598e3c849801011dee649a6a557d10081611b876111af565b805190915015611b9f57805160209091012092915050565b60018201548015611b33579392505050565b5f60208284031215611bc1575f80fd5b5035919050565b5f5b83811015611be2578181015183820152602001611bca565b50505f910152565b5f8151808452611c01816020860160208601611bc8565b601f01601f19169290920160200192915050565b602081525f6119766020830184611bea565b6001600160a01b0381168114610558575f80fd5b634e487b7160e01b5f52604160045260245ffd5b6040516060810167ffffffffffffffff81118282101715611c7257611c72611c3b565b60405290565b604051601f8201601f1916810167ffffffffffffffff81118282101715611ca157611ca1611c3b565b604052919050565b5f67ffffffffffffffff821115611cc257611cc2611c3b565b50601f01601f191660200190565b5f8060408385031215611ce1575f80fd5b8235611cec81611c27565b9150602083013567ffffffffffffffff811115611d07575f80fd5b8301601f81018513611d17575f80fd5b8035611d2a611d2582611ca9565b611c78565b818152866020838501011115611d3e575f80fd5b816020840160208301375f602083830101528093505050509250929050565b60ff60f81b881681525f602060e06020840152611d7d60e084018a611bea565b8381036040850152611d8f818a611bea565b606085018990526001600160a01b038816608086015260a0850187905284810360c0860152855180825260208088019350909101905f5b81811015611de257835183529284019291840191600101611dc6565b50909c9b505050505050505050505050565b5f8083601f840112611e04575f80fd5b50813567ffffffffffffffff811115611e1b575f80fd5b602083019150836020828501011115611e32575f80fd5b9250929050565b5f805f805f60808688031215611e4d575f80fd5b853594506020860135611e5f81611c27565b93506040860135611e6f81611c27565b9250606086013567ffffffffffffffff811115611e8a575f80fd5b611e9688828901611df4565b969995985093965092949392505050565b5f805f805f60608688031215611ebb575f80fd5b85359450602086013567ffffffffffffffff80821115611ed9575f80fd5b818801915088601f830112611eec575f80fd5b813581811115611efa575f80fd5b8960208260051b8501011115611f0e575f80fd5b602083019650809550506040880135915080821115611f2b575f80fd5b50611e9688828901611df4565b5f60208284031215611f48575f80fd5b813561197681611c27565b5f8551611f64818460208a01611bc8565b61103b60f11b9083019081528551611f83816002840160208a01611bc8565b808201915050601760f91b8060028301528551611fa7816003850160208a01611bc8565b60039201918201528351611fc2816004840160208801611bc8565b016004019695505050505050565b5f60018201611fed57634e487b7160e01b5f52601160045260245ffd5b5060010190565b5f6001600160a01b03808716835280861660208401525060606040830152826060830152828460808401375f608084840101526080601f19601f850116830101905095945050505050565b600181811c9082168061205357607f821691505b60208210810361207157634e487b7160e01b5f52602260045260245ffd5b50919050565b601f82111561100157805f5260205f20601f840160051c8101602085101561209c5750805b601f840160051c820191505b81811015611303575f81556001016120a8565b67ffffffffffffffff8311156120d3576120d3611c3b565b6120e7836120e1835461203f565b83612077565b5f601f841160018114612118575f85156121015750838201355b5f19600387901b1c1916600186901b178355611303565b5f83815260208120601f198716915b828110156121475786850135825560209485019460019092019101612127565b5086821015612163575f1960f88860031b161c19848701351681555b505060018560011b0183555050505050565b604081528260408201525f7f07ffffffffffffffffffffffffffffffffffffffffffffffffffffffffffffff8411156121ac575f80fd5b60058460051b8087606086013780840190506060810160206060868403018187015281875480845260808501915060808160051b8601019350885f52825f205f5b8281101561228057607f198787030184525f825461220a8161203f565b80895260018281168015612225576001811461223e57612269565b60ff1984168b8b01528215158d1b8b018a019450612269565b865f52895f205f5b848110156122615781548d82018d0152908301908b01612246565b8c018b019550505b5092985050509385019391909101906001016121ed565b50939b9a5050505050505050505050565b5f60208083850312156122a2575f80fd5b825167ffffffffffffffff808211156122b9575f80fd5b90840190606082870312156122cc575f80fd5b6122d4611c4f565b82516122df81611c27565b8152828401516122ee81611c27565b81850152604083015182811115612303575f80fd5b80840193505086601f840112612317575f80fd5b82519150612327611d2583611ca9565b828152878584860101111561233a575f80fd5b61234983868301878701611bc8565b60408201529695505050505050565b5f60208284031215612368575f80fd5b5051919050565b81515f9082906020808601845b838110156123985781518552938201939082019060010161237c565b50929695505050505050565b815167ffffffffffffffff8111156123be576123be611c3b565b6123d2816123cc845461203f565b84612077565b602080601f831160018114612405575f84156123ee5750858301515b5f19600386901b1c1916600185901b17855561245c565b5f85815260208120601f198616915b8281101561243357888601518255948401946001909101908401612414565b508582101561245057878501515f19600388901b60f8161c191681555b505060018460011b0185555b505050505050565b5f8251612475818460208701611bc8565b9190910192915050565b634e487b7160e01b5f52602160045260245ffdfe43697068657274657874566572696669636174696f6e28627974657333325b5d20637448616e646c65732c616464726573732075736572416464726573732c6164647265737320636f6e7472616374416464726573732c75696e7432353620636f6e7472616374436861696e496429a164736f6c6343000818000a",
  "linkReferences": {},
  "deployedLinkReferences": {}
}