{
  "_format": "hh-sol-artifact-1",
  "contractName": "FHEVMTestSuite5",
  "sourceName": "contracts/operations/FHEVMTestSuite5.sol",
  "abi": [
    {
      "inputs": [
        {
          "internalType": "bytes32",
          "name": "handle",
          "type": "bytes32"
        },
        {
          "internalType": "address",
          "name": "sender",
          "type": "address"
        }
      ],
      "name": "SenderNotAllowedToUseHandle",
      "type": "error"
    },
    {
      "inputs": [
        {
          "internalType": "externalEuint128",
          "name": "a",
          "type": "bytes32"
        },
        {
          "internalType": "externalEuint16",
          "name": "b",
          "type": "bytes32"
        },
        {
          "internalType": "bytes",
          "name": "inputProof",
          "type": "bytes"
        }
      ],
      "name": "add_euint128_euint16",
      "outputs": [],
      "stateMutability": "nonpayable",
      "type": "function"
    },
    {
      "inputs": [
        {
          "internalType": "externalEuint128",
          "name": "a",
          "type": "bytes32"
        },
        {
          "internalType": "uint128",
          "name": "b",
          "type": "uint128"
        },
        {
          "internalType": "bytes",
          "name": "inputProof",
          "type": "bytes"
        }
      ],
      "name": "add_euint128_uint128",
      "outputs": [],
      "stateMutability": "nonpayable",
      "type": "function"
    },
    {
      "inputs": [
        {
          "internalType": "externalEuint16",
          "name": "a",
          "type": "bytes32"
        },
        {
          "internalType": "externalEuint32",
          "name": "b",
          "type": "bytes32"
        },
        {
          "internalType": "bytes",
          "name": "inputProof",
          "type": "bytes"
        }
      ],
      "name": "add_euint16_euint32",
      "outputs": [],
      "stateMutability": "nonpayable",
      "type": "function"
    },
    {
      "inputs": [
        {
          "internalType": "externalEuint32",
          "name": "a",
          "type": "bytes32"
        },
        {
          "internalType": "externalEuint8",
          "name": "b",
          "type": "bytes32"
        },
        {
          "internalType": "bytes",
          "name": "inputProof",
          "type": "bytes"
        }
      ],
      "name": "add_euint32_euint8",
      "outputs": [],
      "stateMutability": "nonpayable",
      "type": "function"
    },
    {
      "inputs": [
        {
          "internalType": "uint128",
          "name": "a",
          "type": "uint128"
        },
        {
          "internalType": "externalEuint128",
          "name": "b",
          "type": "bytes32"
        },
        {
          "internalType": "bytes",
          "name": "inputProof",
          "type": "bytes"
        }
      ],
      "name": "add_uint128_euint128",
      "outputs": [],
      "stateMutability": "nonpayable",
      "type": "function"
    },
    {
      "inputs": [
        {
          "internalType": "externalEuint16",
          "name": "a",
          "type": "bytes32"
        },
        {
          "internalType": "uint16",
          "name": "b",
          "type": "uint16"
        },
        {
          "internalType": "bytes",
          "name": "inputProof",
          "type": "bytes"
        }
      ],
      "name": "and_euint16_uint16",
      "outputs": [],
      "stateMutability": "nonpayable",
      "type": "function"
    },
    {
      "inputs": [
        {
          "internalType": "externalEuint256",
          "name": "a",
          "type": "bytes32"
        },
        {
          "internalType": "externalEuint16",
          "name": "b",
          "type": "bytes32"
        },
        {
          "internalType": "bytes",
          "name": "inputProof",
          "type": "bytes"
        }
      ],
      "name": "and_euint256_euint16",
      "outputs": [],
      "stateMutability": "nonpayable",
      "type": "function"
    },
    {
      "inputs": [
        {
          "internalType": "externalEuint256",
          "name": "a",
          "type": "bytes32"
        },
        {
          "internalType": "uint256",
          "name": "b",
          "type": "uint256"
        },
        {
          "internalType": "bytes",
          "name": "inputProof",
          "type": "bytes"
        }
      ],
      "name": "and_euint256_uint256",
      "outputs": [],
      "stateMutability": "nonpayable",
      "type": "function"
    },
    {
      "inputs": [
        {
          "internalType": "externalEuint32",
          "name": "a",
          "type": "bytes32"
        },
        {
          "internalType": "externalEuint64",
          "name": "b",
          "type": "bytes32"
        },
        {
          "internalType": "bytes",
          "name": "inputProof",
          "type": "bytes"
        }
      ],
      "name": "and_euint32_euint64",
      "outputs": [],
      "stateMutability": "nonpayable",
      "type": "function"
    },
    {
      "inputs": [
        {
          "internalType": "externalEuint32",
          "name": "a",
          "type": "bytes32"
        },
        {
          "internalType": "uint32",
          "name": "b",
          "type": "uint32"
        },
        {
          "internalType": "bytes",
          "name": "inputProof",
          "type": "bytes"
        }
      ],
      "name": "and_euint32_uint32",
      "outputs": [],
      "stateMutability": "nonpayable",
      "type": "function"
    },
    {
      "inputs": [
        {
          "internalType": "externalEuint64",
          "name": "a",
          "type": "bytes32"
        },
        {
          "internalType": "externalEuint64",
          "name": "b",
          "type": "bytes32"
        },
        {
          "internalType": "bytes",
          "name": "inputProof",
          "type": "bytes"
        }
      ],
      "name": "and_euint64_euint64",
      "outputs": [],
      "stateMutability": "nonpayable",
      "type": "function"
    },
    {
      "inputs": [
        {
          "internalType": "uint32",
          "name": "a",
          "type": "uint32"
        },
        {
          "internalType": "externalEuint32",
          "name": "b",
          "type": "bytes32"
        },
        {
          "internalType": "bytes",
          "name": "inputProof",
          "type": "bytes"
        }
      ],
      "name": "and_uint32_euint32",
      "outputs": [],
      "stateMutability": "nonpayable",
      "type": "function"
    },
    {
      "inputs": [
        {
          "internalType": "externalEuint16",
          "name": "a",
          "type": "bytes32"
        },
        {
          "internalType": "externalEuint256",
          "name": "b",
          "type": "bytes32"
        },
        {
          "internalType": "bytes",
          "name": "inputProof",
          "type": "bytes"
        }
      ],
      "name": "eq_euint16_euint256",
      "outputs": [],
      "stateMutability": "nonpayable",
      "type": "function"
    },
    {
      "inputs": [
        {
          "internalType": "externalEuint256",
          "name": "a",
          "type": "bytes32"
        },
        {
          "internalType": "externalEuint32",
          "name": "b",
          "type": "bytes32"
        },
        {
          "internalType": "bytes",
          "name": "inputProof",
          "type": "bytes"
        }
      ],
      "name": "eq_euint256_euint32",
      "outputs": [],
      "stateMutability": "nonpayable",
      "type": "function"
    },
    {
      "inputs": [
        {
          "internalType": "externalEuint256",
          "name": "a",
          "type": "bytes32"
        },
        {
          "internalType": "externalEuint8",
          "name": "b",
          "type": "bytes32"
        },
        {
          "internalType": "bytes",
          "name": "inputProof",
          "type": "bytes"
        }
      ],
      "name": "eq_euint256_euint8",
      "outputs": [],
      "stateMutability": "nonpayable",
      "type": "function"
    },
    {
      "inputs": [
        {
          "internalType": "externalEuint32",
          "name": "a",
          "type": "bytes32"
        },
        {
          "internalType": "externalEuint256",
          "name": "b",
          "type": "bytes32"
        },
        {
          "internalType": "bytes",
          "name": "inputProof",
          "type": "bytes"
        }
      ],
      "name": "eq_euint32_euint256",
      "outputs": [],
      "stateMutability": "nonpayable",
      "type": "function"
    },
    {
      "inputs": [
        {
          "internalType": "uint64",
          "name": "a",
          "type": "uint64"
        },
        {
          "internalType": "externalEuint64",
          "name": "b",
          "type": "bytes32"
        },
        {
          "internalType": "bytes",
          "name": "inputProof",
          "type": "bytes"
        }
      ],
      "name": "eq_uint64_euint64",
      "outputs": [],
      "stateMutability": "nonpayable",
      "type": "function"
    },
    {
      "inputs": [
        {
          "internalType": "externalEuint32",
          "name": "a",
          "type": "bytes32"
        },
        {
          "internalType": "externalEuint128",
          "name": "b",
          "type": "bytes32"
        },
        {
          "internalType": "bytes",
          "name": "inputProof",
          "type": "bytes"
        }
      ],
      "name": "ge_euint32_euint128",
      "outputs": [],
      "stateMutability": "nonpayable",
      "type": "function"
    },
    {
      "inputs": [
        {
          "internalType": "externalEuint32",
          "name": "a",
          "type": "bytes32"
        },
        {
          "internalType": "externalEuint64",
          "name": "b",
          "type": "bytes32"
        },
        {
          "internalType": "bytes",
          "name": "inputProof",
          "type": "bytes"
        }
      ],
      "name": "ge_euint32_euint64",
      "outputs": [],
      "stateMutability": "nonpayable",
      "type": "function"
    },
    {
      "inputs": [
        {
          "internalType": "externalEuint64",
          "name": "a",
          "type": "bytes32"
        },
        {
          "internalType": "externalEuint8",
          "name": "b",
          "type": "bytes32"
        },
        {
          "internalType": "bytes",
          "name": "inputProof",
          "type": "bytes"
        }
      ],
      "name": "ge_euint64_euint8",
      "outputs": [],
      "stateMutability": "nonpayable",
      "type": "function"
    },
    {
      "inputs": [
        {
          "internalType": "externalEuint128",
          "name": "a",
          "type": "bytes32"
        },
        {
          "internalType": "externalEuint32",
          "name": "b",
          "type": "bytes32"
        },
        {
          "internalType": "bytes",
          "name": "inputProof",
          "type": "bytes"
        }
      ],
      "name": "gt_euint128_euint32",
      "outputs": [],
      "stateMutability": "nonpayable",
      "type": "function"
    },
    {
      "inputs": [
        {
          "internalType": "externalEuint32",
          "name": "a",
          "type": "bytes32"
        },
        {
          "internalType": "externalEuint16",
          "name": "b",
          "type": "bytes32"
        },
        {
          "internalType": "bytes",
          "name": "inputProof",
          "type": "bytes"
        }
      ],
      "name": "gt_euint32_euint16",
      "outputs": [],
      "stateMutability": "nonpayable",
      "type": "function"
    },
    {
      "inputs": [
        {
          "internalType": "externalEuint32",
          "name": "a",
          "type": "bytes32"
        },
        {
          "internalType": "uint32",
          "name": "b",
          "type": "uint32"
        },
        {
          "internalType": "bytes",
          "name": "inputProof",
          "type": "bytes"
        }
      ],
      "name": "gt_euint32_uint32",
      "outputs": [],
      "stateMutability": "nonpayable",
      "type": "function"
    },
    {
      "inputs": [
        {
          "internalType": "externalEuint64",
          "name": "a",
          "type": "bytes32"
        },
        {
          "internalType": "externalEuint8",
          "name": "b",
          "type": "bytes32"
        },
        {
          "internalType": "bytes",
          "name": "inputProof",
          "type": "bytes"
        }
      ],
      "name": "gt_euint64_euint8",
      "outputs": [],
      "stateMutability": "nonpayable",
      "type": "function"
    },
    {
      "inputs": [
        {
          "internalType": "externalEuint64",
          "name": "a",
          "type": "bytes32"
        },
        {
          "internalType": "uint64",
          "name": "b",
          "type": "uint64"
        },
        {
          "internalType": "bytes",
          "name": "inputProof",
          "type": "bytes"
        }
      ],
      "name": "gt_euint64_uint64",
      "outputs": [],
      "stateMutability": "nonpayable",
      "type": "function"
    },
    {
      "inputs": [
        {
          "internalType": "externalEuint128",
          "name": "a",
          "type": "bytes32"
        },
        {
          "internalType": "externalEuint128",
          "name": "b",
          "type": "bytes32"
        },
        {
          "internalType": "bytes",
          "name": "inputProof",
          "type": "bytes"
        }
      ],
      "name": "le_euint128_euint128",
      "outputs": [],
      "stateMutability": "nonpayable",
      "type": "function"
    },
    {
      "inputs": [
        {
          "internalType": "externalEuint16",
          "name": "a",
          "type": "bytes32"
        },
        {
          "internalType": "externalEuint16",
          "name": "b",
          "type": "bytes32"
        },
        {
          "internalType": "bytes",
          "name": "inputProof",
          "type": "bytes"
        }
      ],
      "name": "le_euint16_euint16",
      "outputs": [],
      "stateMutability": "nonpayable",
      "type": "function"
    },
    {
      "inputs": [
        {
          "internalType": "externalEuint16",
          "name": "a",
          "type": "bytes32"
        },
        {
          "internalType": "externalEuint8",
          "name": "b",
          "type": "bytes32"
        },
        {
          "internalType": "bytes",
          "name": "inputProof",
          "type": "bytes"
        }
      ],
      "name": "le_euint16_euint8",
      "outputs": [],
      "stateMutability": "nonpayable",
      "type": "function"
    },
    {
      "inputs": [
        {
          "internalType": "externalEuint16",
          "name": "a",
          "type": "bytes32"
        },
        {
          "internalType": "uint16",
          "name": "b",
          "type": "uint16"
        },
        {
          "internalType": "bytes",
          "name": "inputProof",
          "type": "bytes"
        }
      ],
      "name": "le_euint16_uint16",
      "outputs": [],
      "stateMutability": "nonpayable",
      "type": "function"
    },
    {
      "inputs": [
        {
          "internalType": "externalEuint64",
          "name": "a",
          "type": "bytes32"
        },
        {
          "internalType": "externalEuint32",
          "name": "b",
          "type": "bytes32"
        },
        {
          "internalType": "bytes",
          "name": "inputProof",
          "type": "bytes"
        }
      ],
      "name": "le_euint64_euint32",
      "outputs": [],
      "stateMutability": "nonpayable",
      "type": "function"
    },
    {
      "inputs": [
        {
          "internalType": "externalEuint16",
          "name": "a",
          "type": "bytes32"
        },
        {
          "internalType": "externalEuint64",
          "name": "b",
          "type": "bytes32"
        },
        {
          "internalType": "bytes",
          "name": "inputProof",
          "type": "bytes"
        }
      ],
      "name": "lt_euint16_euint64",
      "outputs": [],
      "stateMutability": "nonpayable",
      "type": "function"
    },
    {
      "inputs": [
        {
          "internalType": "externalEuint64",
          "name": "a",
          "type": "bytes32"
        },
        {
          "internalType": "externalEuint32",
          "name": "b",
          "type": "bytes32"
        },
        {
          "internalType": "bytes",
          "name": "inputProof",
          "type": "bytes"
        }
      ],
      "name": "lt_euint64_euint32",
      "outputs": [],
      "stateMutability": "nonpayable",
      "type": "function"
    },
    {
      "inputs": [
        {
          "internalType": "externalEuint64",
          "name": "a",
          "type": "bytes32"
        },
        {
          "internalType": "externalEuint8",
          "name": "b",
          "type": "bytes32"
        },
        {
          "internalType": "bytes",
          "name": "inputProof",
          "type": "bytes"
        }
      ],
      "name": "lt_euint64_euint8",
      "outputs": [],
      "stateMutability": "nonpayable",
      "type": "function"
    },
    {
      "inputs": [
        {
          "internalType": "uint128",
          "name": "a",
          "type": "uint128"
        },
        {
          "internalType": "externalEuint128",
          "name": "b",
          "type": "bytes32"
        },
        {
          "internalType": "bytes",
          "name": "inputProof",
          "type": "bytes"
        }
      ],
      "name": "lt_uint128_euint128",
      "outputs": [],
      "stateMutability": "nonpayable",
      "type": "function"
    },
    {
      "inputs": [
        {
          "internalType": "uint64",
          "name": "a",
          "type": "uint64"
        },
        {
          "internalType": "externalEuint64",
          "name": "b",
          "type": "bytes32"
        },
        {
          "internalType": "bytes",
          "name": "inputProof",
          "type": "bytes"
        }
      ],
      "name": "lt_uint64_euint64",
      "outputs": [],
      "stateMutability": "nonpayable",
      "type": "function"
    },
    {
      "inputs": [
        {
          "internalType": "externalEuint128",
          "name": "a",
          "type": "bytes32"
        },
        {
          "internalType": "externalEuint128",
          "name": "b",
          "type": "bytes32"
        },
        {
          "internalType": "bytes",
          "name": "inputProof",
          "type": "bytes"
        }
      ],
      "name": "max_euint128_euint128",
      "outputs": [],
      "stateMutability": "nonpayable",
      "type": "function"
    },
    {
      "inputs": [
        {
          "internalType": "externalEuint128",
          "name": "a",
          "type": "bytes32"
        },
        {
          "internalType": "externalEuint64",
          "name": "b",
          "type": "bytes32"
        },
        {
          "internalType": "bytes",
          "name": "inputProof",
          "type": "bytes"
        }
      ],
      "name": "max_euint128_euint64",
      "outputs": [],
      "stateMutability": "nonpayable",
      "type": "function"
    },
    {
      "inputs": [
        {
          "internalType": "externalEuint128",
          "name": "a",
          "type": "bytes32"
        },
        {
          "internalType": "externalEuint8",
          "name": "b",
          "type": "bytes32"
        },
        {
          "internalType": "bytes",
          "name": "inputProof",
          "type": "bytes"
        }
      ],
      "name": "max_euint128_euint8",
      "outputs": [],
      "stateMutability": "nonpayable",
      "type": "function"
    },
    {
      "inputs": [
        {
          "internalType": "externalEuint16",
          "name": "a",
          "type": "bytes32"
        },
        {
          "internalType": "externalEuint32",
          "name": "b",
          "type": "bytes32"
        },
        {
          "internalType": "bytes",
          "name": "inputProof",
          "type": "bytes"
        }
      ],
      "name": "max_euint16_euint32",
      "outputs": [],
      "stateMutability": "nonpayable",
      "type": "function"
    },
    {
      "inputs": [
        {
          "internalType": "externalEuint64",
          "name": "a",
          "type": "bytes32"
        },
        {
          "internalType": "externalEuint32",
          "name": "b",
          "type": "bytes32"
        },
        {
          "internalType": "bytes",
          "name": "inputProof",
          "type": "bytes"
        }
      ],
      "name": "max_euint64_euint32",
      "outputs": [],
      "stateMutability": "nonpayable",
      "type": "function"
    },
    {
      "inputs": [
        {
          "internalType": "externalEuint64",
          "name": "a",
          "type": "bytes32"
        },
        {
          "internalType": "externalEuint64",
          "name": "b",
          "type": "bytes32"
        },
        {
          "internalType": "bytes",
          "name": "inputProof",
          "type": "bytes"
        }
      ],
      "name": "max_euint64_euint64",
      "outputs": [],
      "stateMutability": "nonpayable",
      "type": "function"
    },
    {
      "inputs": [
        {
          "internalType": "externalEuint16",
          "name": "a",
          "type": "bytes32"
        },
        {
          "internalType": "externalEuint16",
          "name": "b",
          "type": "bytes32"
        },
        {
          "internalType": "bytes",
          "name": "inputProof",
          "type": "bytes"
        }
      ],
      "name": "min_euint16_euint16",
      "outputs": [],
      "stateMutability": "nonpayable",
      "type": "function"
    },
    {
      "inputs": [
        {
          "internalType": "externalEuint64",
          "name": "a",
          "type": "bytes32"
        },
        {
          "internalType": "externalEuint128",
          "name": "b",
          "type": "bytes32"
        },
        {
          "internalType": "bytes",
          "name": "inputProof",
          "type": "bytes"
        }
      ],
      "name": "min_euint64_euint128",
      "outputs": [],
      "stateMutability": "nonpayable",
      "type": "function"
    },
    {
      "inputs": [
        {
          "internalType": "externalEuint64",
          "name": "a",
          "type": "bytes32"
        },
        {
          "internalType": "externalEuint64",
          "name": "b",
          "type": "bytes32"
        },
        {
          "internalType": "bytes",
          "name": "inputProof",
          "type": "bytes"
        }
      ],
      "name": "min_euint64_euint64",
      "outputs": [],
      "stateMutability": "nonpayable",
      "type": "function"
    },
    {
      "inputs": [
        {
          "internalType": "uint8",
          "name": "a",
          "type": "uint8"
        },
        {
          "internalType": "externalEuint8",
          "name": "b",
          "type": "bytes32"
        },
        {
          "internalType": "bytes",
          "name": "inputProof",
          "type": "bytes"
        }
      ],
      "name": "min_uint8_euint8",
      "outputs": [],
      "stateMutability": "nonpayable",
      "type": "function"
    },
    {
      "inputs": [
        {
          "internalType": "externalEuint128",
          "name": "a",
          "type": "bytes32"
        },
        {
          "internalType": "externalEuint128",
          "name": "b",
          "type": "bytes32"
        },
        {
          "internalType": "bytes",
          "name": "inputProof",
          "type": "bytes"
        }
      ],
      "name": "mul_euint128_euint128",
      "outputs": [],
      "stateMutability": "nonpayable",
      "type": "function"
    },
    {
      "inputs": [
        {
          "internalType": "uint128",
          "name": "a",
          "type": "uint128"
        },
        {
          "internalType": "externalEuint128",
          "name": "b",
          "type": "bytes32"
        },
        {
          "internalType": "bytes",
          "name": "inputProof",
          "type": "bytes"
        }
      ],
      "name": "mul_uint128_euint128",
      "outputs": [],
      "stateMutability": "nonpayable",
      "type": "function"
    },
    {
      "inputs": [
        {
          "internalType": "externalEuint128",
          "name": "a",
          "type": "bytes32"
        },
        {
          "internalType": "externalEuint16",
          "name": "b",
          "type": "bytes32"
        },
        {
          "internalType": "bytes",
          "name": "inputProof",
          "type": "bytes"
        }
      ],
      "name": "ne_euint128_euint16",
      "outputs": [],
      "stateMutability": "nonpayable",
      "type": "function"
    },
    {
      "inputs": [
        {
          "internalType": "externalEuint128",
          "name": "a",
          "type": "bytes32"
        },
        {
          "internalType": "externalEuint8",
          "name": "b",
          "type": "bytes32"
        },
        {
          "internalType": "bytes",
          "name": "inputProof",
          "type": "bytes"
        }
      ],
      "name": "ne_euint128_euint8",
      "outputs": [],
      "stateMutability": "nonpayable",
      "type": "function"
    },
    {
      "inputs": [
        {
          "internalType": "externalEuint16",
          "name": "a",
          "type": "bytes32"
        },
        {
          "internalType": "externalEuint256",
          "name": "b",
          "type": "bytes32"
        },
        {
          "internalType": "bytes",
          "name": "inputProof",
          "type": "bytes"
        }
      ],
      "name": "ne_euint16_euint256",
      "outputs": [],
      "stateMutability": "nonpayable",
      "type": "function"
    },
    {
      "inputs": [
        {
          "internalType": "externalEuint16",
          "name": "a",
          "type": "bytes32"
        },
        {
          "internalType": "externalEuint8",
          "name": "b",
          "type": "bytes32"
        },
        {
          "internalType": "bytes",
          "name": "inputProof",
          "type": "bytes"
        }
      ],
      "name": "ne_euint16_euint8",
      "outputs": [],
      "stateMutability": "nonpayable",
      "type": "function"
    },
    {
      "inputs": [
        {
          "internalType": "externalEuint256",
          "name": "a",
          "type": "bytes32"
        },
        {
          "internalType": "externalEuint32",
          "name": "b",
          "type": "bytes32"
        },
        {
          "internalType": "bytes",
          "name": "inputProof",
          "type": "bytes"
        }
      ],
      "name": "ne_euint256_euint32",
      "outputs": [],
      "stateMutability": "nonpayable",
      "type": "function"
    },
    {
      "inputs": [
        {
          "internalType": "externalEuint64",
          "name": "a",
          "type": "bytes32"
        },
        {
          "internalType": "externalEuint64",
          "name": "b",
          "type": "bytes32"
        },
        {
          "internalType": "bytes",
          "name": "inputProof",
          "type": "bytes"
        }
      ],
      "name": "ne_euint64_euint64",
      "outputs": [],
      "stateMutability": "nonpayable",
      "type": "function"
    },
    {
      "inputs": [
        {
          "internalType": "externalEuint64",
          "name": "a",
          "type": "bytes32"
        },
        {
          "internalType": "externalEuint8",
          "name": "b",
          "type": "bytes32"
        },
        {
          "internalType": "bytes",
          "name": "inputProof",
          "type": "bytes"
        }
      ],
      "name": "ne_euint64_euint8",
      "outputs": [],
      "stateMutability": "nonpayable",
      "type": "function"
    },
    {
      "inputs": [
        {
          "internalType": "externalEuint64",
          "name": "a",
          "type": "bytes32"
        },
        {
          "internalType": "uint64",
          "name": "b",
          "type": "uint64"
        },
        {
          "internalType": "bytes",
          "name": "inputProof",
          "type": "bytes"
        }
      ],
      "name": "ne_euint64_uint64",
      "outputs": [],
      "stateMutability": "nonpayable",
      "type": "function"
    },
    {
      "inputs": [
        {
          "internalType": "uint32",
          "name": "a",
          "type": "uint32"
        },
        {
          "internalType": "externalEuint32",
          "name": "b",
          "type": "bytes32"
        },
        {
          "internalType": "bytes",
          "name": "inputProof",
          "type": "bytes"
        }
      ],
      "name": "ne_uint32_euint32",
      "outputs": [],
      "stateMutability": "nonpayable",
      "type": "function"
    },
    {
      "inputs": [
        {
          "internalType": "externalEuint256",
          "name": "a",
          "type": "bytes32"
        },
        {
          "internalType": "bytes",
          "name": "inputProof",
          "type": "bytes"
        }
      ],
      "name": "not_euint256",
      "outputs": [],
      "stateMutability": "nonpayable",
      "type": "function"
    },
    {
      "inputs": [
        {
          "internalType": "externalEuint128",
          "name": "a",
          "type": "bytes32"
        },
        {
          "internalType": "externalEuint256",
          "name": "b",
          "type": "bytes32"
        },
        {
          "internalType": "bytes",
          "name": "inputProof",
          "type": "bytes"
        }
      ],
      "name": "or_euint128_euint256",
      "outputs": [],
      "stateMutability": "nonpayable",
      "type": "function"
    },
    {
      "inputs": [
        {
          "internalType": "externalEuint128",
          "name": "a",
          "type": "bytes32"
        },
        {
          "internalType": "uint128",
          "name": "b",
          "type": "uint128"
        },
        {
          "internalType": "bytes",
          "name": "inputProof",
          "type": "bytes"
        }
      ],
      "name": "or_euint128_uint128",
      "outputs": [],
      "stateMutability": "nonpayable",
      "type": "function"
    },
    {
      "inputs": [
        {
          "internalType": "externalEuint256",
          "name": "a",
          "type": "bytes32"
        },
        {
          "internalType": "externalEuint128",
          "name": "b",
          "type": "bytes32"
        },
        {
          "internalType": "bytes",
          "name": "inputProof",
          "type": "bytes"
        }
      ],
      "name": "or_euint256_euint128",
      "outputs": [],
      "stateMutability": "nonpayable",
      "type": "function"
    },
    {
      "inputs": [
        {
          "internalType": "externalEuint64",
          "name": "a",
          "type": "bytes32"
        },
        {
          "internalType": "externalEuint128",
          "name": "b",
          "type": "bytes32"
        },
        {
          "internalType": "bytes",
          "name": "inputProof",
          "type": "bytes"
        }
      ],
      "name": "or_euint64_euint128",
      "outputs": [],
      "stateMutability": "nonpayable",
      "type": "function"
    },
    {
      "inputs": [
        {
          "internalType": "externalEuint64",
          "name": "a",
          "type": "bytes32"
        },
        {
          "internalType": "externalEuint64",
          "name": "b",
          "type": "bytes32"
        },
        {
          "internalType": "bytes",
          "name": "inputProof",
          "type": "bytes"
        }
      ],
      "name": "or_euint64_euint64",
      "outputs": [],
      "stateMutability": "nonpayable",
      "type": "function"
    },
    {
      "inputs": [
        {
          "internalType": "externalEuint8",
          "name": "a",
          "type": "bytes32"
        },
        {
          "internalType": "externalEuint128",
          "name": "b",
          "type": "bytes32"
        },
        {
          "internalType": "bytes",
          "name": "inputProof",
          "type": "bytes"
        }
      ],
      "name": "or_euint8_euint128",
      "outputs": [],
      "stateMutability": "nonpayable",
      "type": "function"
    },
    {
      "inputs": [
        {
          "internalType": "uint128",
          "name": "a",
          "type": "uint128"
        },
        {
          "internalType": "externalEuint128",
          "name": "b",
          "type": "bytes32"
        },
        {
          "internalType": "bytes",
          "name": "inputProof",
          "type": "bytes"
        }
      ],
      "name": "or_uint128_euint128",
      "outputs": [],
      "stateMutability": "nonpayable",
      "type": "function"
    },
    {
      "inputs": [
        {
          "internalType": "uint256",
          "name": "a",
          "type": "uint256"
        },
        {
          "internalType": "externalEuint256",
          "name": "b",
          "type": "bytes32"
        },
        {
          "internalType": "bytes",
          "name": "inputProof",
          "type": "bytes"
        }
      ],
      "name": "or_uint256_euint256",
      "outputs": [],
      "stateMutability": "nonpayable",
      "type": "function"
    },
    {
      "inputs": [
        {
          "internalType": "uint64",
          "name": "a",
          "type": "uint64"
        },
        {
          "internalType": "externalEuint64",
          "name": "b",
          "type": "bytes32"
        },
        {
          "internalType": "bytes",
          "name": "inputProof",
          "type": "bytes"
        }
      ],
      "name": "or_uint64_euint64",
      "outputs": [],
      "stateMutability": "nonpayable",
      "type": "function"
    },
    {
      "inputs": [
        {
          "internalType": "externalEuint128",
          "name": "a",
          "type": "bytes32"
        },
        {
          "internalType": "uint128",
          "name": "b",
          "type": "uint128"
        },
        {
          "internalType": "bytes",
          "name": "inputProof",
          "type": "bytes"
        }
      ],
      "name": "rem_euint128_uint128",
      "outputs": [],
      "stateMutability": "nonpayable",
      "type": "function"
    },
    {
      "inputs": [],
      "name": "resEbool",
      "outputs": [
        {
          "internalType": "ebool",
          "name": "",
          "type": "bytes32"
        }
      ],
      "stateMutability": "view",
      "type": "function"
    },
    {
      "inputs": [],
      "name": "resEuint128",
      "outputs": [
        {
          "internalType": "euint128",
          "name": "",
          "type": "bytes32"
        }
      ],
      "stateMutability": "view",
      "type": "function"
    },
    {
      "inputs": [],
      "name": "resEuint16",
      "outputs": [
        {
          "internalType": "euint16",
          "name": "",
          "type": "bytes32"
        }
      ],
      "stateMutability": "view",
      "type": "function"
    },
    {
      "inputs": [],
      "name": "resEuint256",
      "outputs": [
        {
          "internalType": "euint256",
          "name": "",
          "type": "bytes32"
        }
      ],
      "stateMutability": "view",
      "type": "function"
    },
    {
      "inputs": [],
      "name": "resEuint32",
      "outputs": [
        {
          "internalType": "euint32",
          "name": "",
          "type": "bytes32"
        }
      ],
      "stateMutability": "view",
      "type": "function"
    },
    {
      "inputs": [],
      "name": "resEuint64",
      "outputs": [
        {
          "internalType": "euint64",
          "name": "",
          "type": "bytes32"
        }
      ],
      "stateMutability": "view",
      "type": "function"
    },
    {
      "inputs": [],
      "name": "resEuint8",
      "outputs": [
        {
          "internalType": "euint8",
          "name": "",
          "type": "bytes32"
        }
      ],
      "stateMutability": "view",
      "type": "function"
    },
    {
      "inputs": [
        {
          "internalType": "externalEuint128",
          "name": "a",
          "type": "bytes32"
        },
        {
          "internalType": "externalEuint8",
          "name": "b",
          "type": "bytes32"
        },
        {
          "internalType": "bytes",
          "name": "inputProof",
          "type": "bytes"
        }
      ],
      "name": "rotl_euint128_euint8",
      "outputs": [],
      "stateMutability": "nonpayable",
      "type": "function"
    },
    {
      "inputs": [
        {
          "internalType": "externalEuint32",
          "name": "a",
          "type": "bytes32"
        },
        {
          "internalType": "externalEuint8",
          "name": "b",
          "type": "bytes32"
        },
        {
          "internalType": "bytes",
          "name": "inputProof",
          "type": "bytes"
        }
      ],
      "name": "rotl_euint32_euint8",
      "outputs": [],
      "stateMutability": "nonpayable",
      "type": "function"
    },
    {
      "inputs": [
        {
          "internalType": "externalEuint128",
          "name": "a",
          "type": "bytes32"
        },
        {
          "internalType": "uint8",
          "name": "b",
          "type": "uint8"
        },
        {
          "internalType": "bytes",
          "name": "inputProof",
          "type": "bytes"
        }
      ],
      "name": "rotr_euint128_uint8",
      "outputs": [],
      "stateMutability": "nonpayable",
      "type": "function"
    },
    {
      "inputs": [
        {
          "internalType": "externalEuint8",
          "name": "a",
          "type": "bytes32"
        },
        {
          "internalType": "externalEuint8",
          "name": "b",
          "type": "bytes32"
        },
        {
          "internalType": "bytes",
          "name": "inputProof",
          "type": "bytes"
        }
      ],
      "name": "rotr_euint8_euint8",
      "outputs": [],
      "stateMutability": "nonpayable",
      "type": "function"
    },
    {
      "inputs": [
        {
          "internalType": "externalEuint16",
          "name": "a",
          "type": "bytes32"
        },
        {
          "internalType": "externalEuint8",
          "name": "b",
          "type": "bytes32"
        },
        {
          "internalType": "bytes",
          "name": "inputProof",
          "type": "bytes"
        }
      ],
      "name": "shl_euint16_euint8",
      "outputs": [],
      "stateMutability": "nonpayable",
      "type": "function"
    },
    {
      "inputs": [
        {
          "internalType": "externalEuint256",
          "name": "a",
          "type": "bytes32"
        },
        {
          "internalType": "externalEuint8",
          "name": "b",
          "type": "bytes32"
        },
        {
          "internalType": "bytes",
          "name": "inputProof",
          "type": "bytes"
        }
      ],
      "name": "shl_euint256_euint8",
      "outputs": [],
      "stateMutability": "nonpayable",
      "type": "function"
    },
    {
      "inputs": [
        {
          "internalType": "externalEuint64",
          "name": "a",
          "type": "bytes32"
        },
        {
          "internalType": "externalEuint8",
          "name": "b",
          "type": "bytes32"
        },
        {
          "internalType": "bytes",
          "name": "inputProof",
          "type": "bytes"
        }
      ],
      "name": "shl_euint64_euint8",
      "outputs": [],
      "stateMutability": "nonpayable",
      "type": "function"
    },
    {
      "inputs": [
        {
          "internalType": "externalEuint8",
          "name": "a",
          "type": "bytes32"
        },
        {
          "internalType": "uint8",
          "name": "b",
          "type": "uint8"
        },
        {
          "internalType": "bytes",
          "name": "inputProof",
          "type": "bytes"
        }
      ],
      "name": "shl_euint8_uint8",
      "outputs": [],
      "stateMutability": "nonpayable",
      "type": "function"
    },
    {
      "inputs": [
        {
          "internalType": "externalEuint32",
          "name": "a",
          "type": "bytes32"
        },
        {
          "internalType": "externalEuint8",
          "name": "b",
          "type": "bytes32"
        },
        {
          "internalType": "bytes",
          "name": "inputProof",
          "type": "bytes"
        }
      ],
      "name": "shr_euint32_euint8",
      "outputs": [],
      "stateMutability": "nonpayable",
      "type": "function"
    },
    {
      "inputs": [
        {
          "internalType": "externalEuint128",
          "name": "a",
          "type": "bytes32"
        },
        {
          "internalType": "externalEuint128",
          "name": "b",
          "type": "bytes32"
        },
        {
          "internalType": "bytes",
          "name": "inputProof",
          "type": "bytes"
        }
      ],
      "name": "sub_euint128_euint128",
      "outputs": [],
      "stateMutability": "nonpayable",
      "type": "function"
    },
    {
      "inputs": [
        {
          "internalType": "externalEuint16",
          "name": "a",
          "type": "bytes32"
        },
        {
          "internalType": "externalEuint16",
          "name": "b",
          "type": "bytes32"
        },
        {
          "internalType": "bytes",
          "name": "inputProof",
          "type": "bytes"
        }
      ],
      "name": "sub_euint16_euint16",
      "outputs": [],
      "stateMutability": "nonpayable",
      "type": "function"
    },
    {
      "inputs": [
        {
          "internalType": "externalEuint16",
          "name": "a",
          "type": "bytes32"
        },
        {
          "internalType": "externalEuint32",
          "name": "b",
          "type": "bytes32"
        },
        {
          "internalType": "bytes",
          "name": "inputProof",
          "type": "bytes"
        }
      ],
      "name": "sub_euint16_euint32",
      "outputs": [],
      "stateMutability": "nonpayable",
      "type": "function"
    },
    {
      "inputs": [
        {
          "internalType": "externalEuint16",
          "name": "a",
          "type": "bytes32"
        },
        {
          "internalType": "externalEuint8",
          "name": "b",
          "type": "bytes32"
        },
        {
          "internalType": "bytes",
          "name": "inputProof",
          "type": "bytes"
        }
      ],
      "name": "sub_euint16_euint8",
      "outputs": [],
      "stateMutability": "nonpayable",
      "type": "function"
    },
    {
      "inputs": [
        {
          "internalType": "externalEuint64",
          "name": "a",
          "type": "bytes32"
        },
        {
          "internalType": "externalEuint8",
          "name": "b",
          "type": "bytes32"
        },
        {
          "internalType": "bytes",
          "name": "inputProof",
          "type": "bytes"
        }
      ],
      "name": "sub_euint64_euint8",
      "outputs": [],
      "stateMutability": "nonpayable",
      "type": "function"
    },
    {
      "inputs": [
        {
          "internalType": "uint128",
          "name": "a",
          "type": "uint128"
        },
        {
          "internalType": "externalEuint128",
          "name": "b",
          "type": "bytes32"
        },
        {
          "internalType": "bytes",
          "name": "inputProof",
          "type": "bytes"
        }
      ],
      "name": "sub_uint128_euint128",
      "outputs": [],
      "stateMutability": "nonpayable",
      "type": "function"
    },
    {
      "inputs": [
        {
          "internalType": "externalEuint16",
          "name": "a",
          "type": "bytes32"
        },
        {
          "internalType": "externalEuint16",
          "name": "b",
          "type": "bytes32"
        },
        {
          "internalType": "bytes",
          "name": "inputProof",
          "type": "bytes"
        }
      ],
      "name": "xor_euint16_euint16",
      "outputs": [],
      "stateMutability": "nonpayable",
      "type": "function"
    },
    {
      "inputs": [
        {
          "internalType": "externalEuint16",
          "name": "a",
          "type": "bytes32"
        },
        {
          "internalType": "externalEuint64",
          "name": "b",
          "type": "bytes32"
        },
        {
          "internalType": "bytes",
          "name": "inputProof",
          "type": "bytes"
        }
      ],
      "name": "xor_euint16_euint64",
      "outputs": [],
      "stateMutability": "nonpayable",
      "type": "function"
    },
    {
      "inputs": [
        {
          "internalType": "externalEuint32",
          "name": "a",
          "type": "bytes32"
        },
        {
          "internalType": "externalEuint64",
          "name": "b",
          "type": "bytes32"
        },
        {
          "internalType": "bytes",
          "name": "inputProof",
          "type": "bytes"
        }
      ],
      "name": "xor_euint32_euint64",
      "outputs": [],
      "stateMutability": "nonpayable",
      "type": "function"
    },
    {
      "inputs": [
        {
          "internalType": "externalEuint64",
          "name": "a",
          "type": "bytes32"
        },
        {
          "internalType": "externalEuint32",
          "name": "b",
          "type": "bytes32"
        },
        {
          "internalType": "bytes",
          "name": "inputProof",
          "type": "bytes"
        }
      ],
      "name": "xor_euint64_euint32",
      "outputs": [],
      "stateMutability": "nonpayable",
      "type": "function"
    },
    {
      "inputs": [
        {
          "internalType": "externalEuint8",
          "name": "a",
          "type": "bytes32"
        },
        {
          "internalType": "externalEuint128",
          "name": "b",
          "type": "bytes32"
        },
        {
          "internalType": "bytes",
          "name": "inputProof",
          "type": "bytes"
        }
      ],
      "name": "xor_euint8_euint128",
      "outputs": [],
      "stateMutability": "nonpayable",
      "type": "function"
    },
    {
      "inputs": [
        {
          "internalType": "externalEuint8",
          "name": "a",
          "type": "bytes32"
        },
        {
          "internalType": "externalEuint64",
          "name": "b",
          "type": "bytes32"
        },
        {
          "internalType": "bytes",
          "name": "inputProof",
          "type": "bytes"
        }
      ],
      "name": "xor_euint8_euint64",
      "outputs": [],
      "stateMutability": "nonpayable",
      "type": "function"
    },
    {
      "inputs": [
        {
          "internalType": "externalEuint8",
          "name": "a",
          "type": "bytes32"
        },
        {
          "internalType": "externalEuint8",
          "name": "b",
          "type": "bytes32"
        },
        {
          "internalType": "bytes",
          "name": "inputProof",
          "type": "bytes"
        }
      ],
      "name": "xor_euint8_euint8",
      "outputs": [],
      "stateMutability": "nonpayable",
      "type": "function"
    },
    {
      "inputs": [
        {
          "internalType": "uint64",
          "name": "a",
          "type": "uint64"
        },
        {
          "internalType": "externalEuint64",
          "name": "b",
          "type": "bytes32"
        },
        {
          "internalType": "bytes",
          "name": "inputProof",
          "type": "bytes"
        }
      ],
      "name": "xor_uint64_euint64",
      "outputs": [],
      "stateMutability": "nonpayable",
      "type": "function"
    }
  ],
  "bytecode": "0x60806040523480156200001157600080fd5b5062000032620000266200003860201b60201c565b620000e060201b60201c565b6200026c565b6200004262000209565b60405180606001604052807350157cffd6bbfa2dece204a89ec419c23ef5755d73ffffffffffffffffffffffffffffffffffffffff16815260200173e3a9105a3a932253a70f126eb1e3b589c643dd2473ffffffffffffffffffffffffffffffffffffffff16815260200173901f8942346f7ab3a01f6d7613119bca447bb03073ffffffffffffffffffffffffffffffffffffffff16815250905090565b620000f181620000f460201b60201c565b50565b600062000106620001e160201b60201c565b905081600001518160000160006101000a81548173ffffffffffffffffffffffffffffffffffffffff021916908373ffffffffffffffffffffffffffffffffffffffff16021790555081602001518160010160006101000a81548173ffffffffffffffffffffffffffffffffffffffff021916908373ffffffffffffffffffffffffffffffffffffffff16021790555081604001518160020160006101000a81548173ffffffffffffffffffffffffffffffffffffffff021916908373ffffffffffffffffffffffffffffffffffffffff1602179055505050565b60007f9e7b61f58c47dc699ac88507c4f5bb9f121c03808c5676a8078fe583e4649700905090565b6040518060600160405280600073ffffffffffffffffffffffffffffffffffffffff168152602001600073ffffffffffffffffffffffffffffffffffffffff168152602001600073ffffffffffffffffffffffffffffffffffffffff1681525090565b61a307806200027c6000396000f3fe608060405234801561001057600080fd5b506004361061054b5760003560e01c806377ad8139116102ca578063ba5171df1161018d578063d0f63ce8116100f4578063e96c65d8116100ad578063eb974b2e11610087578063eb974b2e14610f8a578063eee6fb7114610fa6578063f7bcc13414610fc2578063f7c70b7014610fde5761054b565b8063e96c65d814610f34578063eb04c2da14610f50578063eb48a54914610f6e5761054b565b8063d0f63ce814610e8c578063dd19c56914610ea8578063dd4a814914610ec4578063e1950ae014610ee0578063e95730b814610efc578063e9664ecc14610f185761054b565b8063c662834211610146578063c662834214610de2578063c83d99d714610e00578063c85c114e14610e1c578063c9bb1bc014610e38578063cefa38f414610e54578063cefbd63114610e705761054b565b8063ba5171df14610d38578063bb0bb3e814610d54578063bb0e17f214610d70578063bbc307da14610d8c578063bfdfec6b14610daa578063c1851bd214610dc65761054b565b80639a0eff6f11610231578063aad17bef116101ea578063aad17bef14610c8e578063ae8b062014610caa578063b04c63e314610cc6578063b1752cef14610ce2578063b6eed29314610cfe578063b7440fdb14610d1a5761054b565b80639a0eff6f14610be45780639ee9a4a814610c005780639f1f207814610c1c578063a3dd376f14610c38578063a57419a214610c54578063a71a71eb14610c705761054b565b8063846c828111610283578063846c828114610b3c57806384f081d814610b5857806386052aa514610b745780638b041c0014610b905780638c04169014610bac57806391c3b74a14610bc85761054b565b806377ad813914610a9257806377d9117814610aae5780637b9496ee14610acc57806382661c9b14610ae857806382d28bf514610b04578063844503ca14610b205761054b565b8063333c292511610412578063570b31bf11610379578063689e2a7e11610332578063689e2a7e146109ea5780636b6b3e5a14610a065780636cf76dd614610a2257806370a69cac14610a3e578063722f7dcc14610a5a5780637599357d14610a765761054b565b8063570b31bf146109425780635aa23e4f1461095e5780635cc52fc61461097a5780635ff6503e1461099657806362d4795e146109b257806366182da0146109ce5761054b565b806347c3b32a116103cb57806347c3b32a1461089a5780634a5f08ff146108b65780634c6a5fdd146108d25780634f237836146108ee57806354a6798c1461090a578063564e763a146109265761054b565b8063333c2925146107f257806334975aa61461080e57806337e56fc41461082a57806338b7ef811461084657806338bcedfa146108625780633adecac11461087e5761054b565b80631a2f41f0116104b6578063263a25e11161046f578063263a25e114610748578063297a63b2146107645780632cba38bf146107805780632d37c2ff1461079c5780632dcf1984146107ba5780632ec23d0b146107d65761054b565b80631a2f41f0146106a05780631c42e4f0146106bc5780631d210467146106d85780631f0a9edc146106f457806325db19d4146107105780632619a4c61461072c5761054b565b80630e5048b2116105085780630e5048b2146105f85780630f91ed5414610614578063138ea4341461063057806315b04dfe1461064c5780631722b6a01461066857806318d13fae146106845761054b565b80630292d706146105505780630352fa8a1461056c57806304229e4314610588578063057dd494146105a45780630c4c7133146105c05780630e034f7d146105dc575b600080fd5b61056a600480360381019061056591906188ba565b610ffa565b005b6105866004803603810190610581919061899a565b6110c6565b005b6105a2600480360381019061059d9190618a3a565b611145565b005b6105be60048036038101906105b99190618aae565b611211565b005b6105da60048036038101906105d59190618b6a565b6112dd565b005b6105f660048036038101906105f19190618c36565b61135c565b005b610612600480360381019061060d9190618caa565b611428565b005b61062e60048036038101906106299190618d1e565b6114f4565b005b61064a6004803603810190610645919061899a565b6115c0565b005b61066660048036038101906106619190618d92565b61163f565b005b610682600480360381019061067d9190618e06565b61170b565b005b61069e60048036038101906106999190618eb0565b6117d7565b005b6106ba60048036038101906106b5919061899a565b611856565b005b6106d660048036038101906106d19190618aae565b6118d5565b005b6106f260048036038101906106ed9190618c36565b6119a1565b005b61070e60048036038101906107099190618f24565b611a6d565b005b61072a60048036038101906107259190618f98565b611b39565b005b6107466004803603810190610741919061900c565b611c05565b005b610762600480360381019061075d9190618a3a565b611cd1565b005b61077e60048036038101906107799190618c36565b611d9d565b005b61079a60048036038101906107959190618aae565b611e69565b005b6107a4611f35565b6040516107b191906190a1565b60405180910390f35b6107d460048036038101906107cf91906190bc565b611f3b565b005b6107f060048036038101906107eb9190619130565b612007565b005b61080c600480360381019061080791906191e0565b6120d3565b005b61082860048036038101906108239190619254565b612152565b005b610844600480360381019061083f9190618c36565b61221e565b005b610860600480360381019061085b9190619130565b6122ea565b005b61087c600480360381019061087791906192c8565b6123b6565b005b61089860048036038101906108939190619130565b612482565b005b6108b460048036038101906108af919061933c565b61254e565b005b6108d060048036038101906108cb9190618b6a565b6125cd565b005b6108ec60048036038101906108e791906193b0565b61264c565b005b61090860048036038101906109039190619424565b6126cb565b005b610924600480360381019061091f91906193b0565b612797565b005b610940600480360381019061093b919061933c565b612816565b005b61095c60048036038101906109579190619498565b612895565b005b6109786004803603810190610973919061899a565b61290c565b005b610994600480360381019061098f9190618a3a565b61298b565b005b6109b060048036038101906109ab9190619531565b612a57565b005b6109cc60048036038101906109c79190618d1e565b612ad6565b005b6109e860048036038101906109e391906195a5565b612ba2565b005b610a0460048036038101906109ff9190618a3a565b612c21565b005b610a206004803603810190610a1b919061900c565b612ced565b005b610a3c6004803603810190610a379190618caa565b612db9565b005b610a586004803603810190610a539190618d92565b612e85565b005b610a746004803603810190610a6f9190619619565b612f51565b005b610a906004803603810190610a8b91906191e0565b61301d565b005b610aac6004803603810190610aa79190618d1e565b61309c565b005b610ab6613168565b604051610ac3919061969c565b60405180910390f35b610ae66004803603810190610ae19190619424565b61316e565b005b610b026004803603810190610afd9190618d92565b61323a565b005b610b1e6004803603810190610b1991906196b7565b613306565b005b610b3a6004803603810190610b3591906193b0565b613385565b005b610b566004803603810190610b519190618b6a565b613404565b005b610b726004803603810190610b6d919061972b565b613483565b005b610b8e6004803603810190610b8991906197d9565b61354f565b005b610baa6004803603810190610ba5919061984d565b6135ce565b005b610bc66004803603810190610bc19190618f24565b61369a565b005b610be26004803603810190610bdd91906198c1565b613766565b005b610bfe6004803603810190610bf99190619935565b613832565b005b610c1a6004803603810190610c15919061984d565b6138fe565b005b610c366004803603810190610c3191906199a9565b6139ca565b005b610c526004803603810190610c4d9190619a1d565b613a49565b005b610c6e6004803603810190610c699190619a1d565b613b15565b005b610c78613be1565b604051610c859190619aa0565b60405180910390f35b610ca86004803603810190610ca391906190bc565b613be7565b005b610cc46004803603810190610cbf9190619abb565b613cb3565b005b610ce06004803603810190610cdb919061984d565b613d7f565b005b610cfc6004803603810190610cf79190619619565b613e4b565b005b610d186004803603810190610d1391906190bc565b613f17565b005b610d22613fe3565b604051610d2f9190619b3e565b60405180910390f35b610d526004803603810190610d4d91906196b7565b613fe9565b005b610d6e6004803603810190610d6991906190bc565b614068565b005b610d8a6004803603810190610d8591906190bc565b614134565b005b610d94614200565b604051610da19190619b68565b60405180910390f35b610dc46004803603810190610dbf9190619b83565b614206565b005b610de06004803603810190610ddb9190619bf7565b614285565b005b610dea614351565b604051610df79190619c7a565b60405180910390f35b610e1a6004803603810190610e159190619c95565b614357565b005b610e366004803603810190610e3191906193b0565b614423565b005b610e526004803603810190610e4d9190619d09565b6144a2565b005b610e6e6004803603810190610e69919061984d565b61456e565b005b610e8a6004803603810190610e8591906192c8565b61463a565b005b610ea66004803603810190610ea19190618f24565b614706565b005b610ec26004803603810190610ebd9190618f98565b6147d2565b005b610ede6004803603810190610ed99190619d09565b61489e565b005b610efa6004803603810190610ef59190618aae565b61496a565b005b610f166004803603810190610f1191906198c1565b614a36565b005b610f326004803603810190610f2d91906192c8565b614b02565b005b610f4e6004803603810190610f499190619d7d565b614bce565b005b610f58614c9a565b604051610f659190619e00565b60405180910390f35b610f886004803603810190610f8391906193b0565b614ca0565b005b610fa46004803603810190610f9f91906197d9565b614d1f565b005b610fc06004803603810190610fbb9190618f24565b614d9e565b005b610fdc6004803603810190610fd791906190bc565b614e6a565b005b610ff86004803603810190610ff39190618f24565b614f36565b005b600061104a8584848080601f016020809104026020016040519081016040528093929190818152602001838380828437600081840152601f19601f82011690508083019250505050505050615002565b9050600061109c8585858080601f016020809104026020016040519081016040528093929190818152602001838380828437600081840152601f19601f82011690508083019250505050505050615098565b905060006110aa838361512e565b90506110b581615180565b508060008190555050505050505050565b6000849050600061111b8585858080601f016020809104026020016040519081016040528093929190818152602001838380828437600081840152601f19601f820116905080830192505050505050506151ad565b905060006111298383615243565b905061113481615180565b508060008190555050505050505050565b60006111958584848080601f016020809104026020016040519081016040528093929190818152602001838380828437600081840152601f19601f82011690508083019250505050505050615280565b905060006111e78585858080601f016020809104026020016040519081016040528093929190818152602001838380828437600081840152601f19601f82011690508083019250505050505050615280565b905060006111f58383615316565b905061120081615360565b508060058190555050505050505050565b60006112618584848080601f016020809104026020016040519081016040528093929190818152602001838380828437600081840152601f19601f820116905080830192505050505050506151ad565b905060006112b38585858080601f016020809104026020016040519081016040528093929190818152602001838380828437600081840152601f19601f82011690508083019250505050505050615002565b905060006112c1838361538d565b90506112cc81615180565b508060008190555050505050505050565b600061132d8584848080601f016020809104026020016040519081016040528093929190818152602001838380828437600081840152601f19601f82011690508083019250505050505050615280565b90506000849050600061134083836153df565b905061134b81615360565b508060058190555050505050505050565b60006113ac8584848080601f016020809104026020016040519081016040528093929190818152602001838380828437600081840152601f19601f82011690508083019250505050505050615424565b905060006113fe8585858080601f016020809104026020016040519081016040528093929190818152602001838380828437600081840152601f19601f820116905080830192505050505050506154ba565b9050600061140c8383615550565b905061141781615180565b508060008190555050505050505050565b60006114788584848080601f016020809104026020016040519081016040528093929190818152602001838380828437600081840152601f19601f820116905080830192505050505050506154ba565b905060006114ca8585858080601f016020809104026020016040519081016040528093929190818152602001838380828437600081840152601f19601f82011690508083019250505050505050615280565b905060006114d883836155a2565b90506114e381615360565b508060058190555050505050505050565b60006115448584848080601f016020809104026020016040519081016040528093929190818152602001838380828437600081840152601f19601f82011690508083019250505050505050615424565b905060006115968585858080601f016020809104026020016040519081016040528093929190818152602001838380828437600081840152601f19601f82011690508083019250505050505050615002565b905060006115a483836155f4565b90506115af81615646565b508060038190555050505050505050565b600084905060006116158585858080601f016020809104026020016040519081016040528093929190818152602001838380828437600081840152601f19601f820116905080830192505050505050506151ad565b905060006116238383615673565b905061162e816156b0565b508060048190555050505050505050565b600061168f8584848080601f016020809104026020016040519081016040528093929190818152602001838380828437600081840152601f19601f82011690508083019250505050505050615280565b905060006116e18585858080601f016020809104026020016040519081016040528093929190818152602001838380828437600081840152601f19601f820116905080830192505050505050506154ba565b905060006116ef83836156dd565b90506116fa81615360565b508060058190555050505050505050565b600061175b8584848080601f016020809104026020016040519081016040528093929190818152602001838380828437600081840152601f19601f82011690508083019250505050505050615280565b905060006117ad8585858080601f016020809104026020016040519081016040528093929190818152602001838380828437600081840152601f19601f82011690508083019250505050505050615002565b905060006117bb838361572f565b90506117c681615180565b508060008190555050505050505050565b6000849050600061182c8585858080601f016020809104026020016040519081016040528093929190818152602001838380828437600081840152601f19601f82011690508083019250505050505050615098565b9050600061183a8383615781565b9050611845816157b4565b508060068190555050505050505050565b600084905060006118ab8585858080601f016020809104026020016040519081016040528093929190818152602001838380828437600081840152601f19601f820116905080830192505050505050506151ad565b905060006118b983836157e1565b90506118c4816156b0565b508060048190555050505050505050565b60006119258584848080601f016020809104026020016040519081016040528093929190818152602001838380828437600081840152601f19601f820116905080830192505050505050506151ad565b905060006119778585858080601f016020809104026020016040519081016040528093929190818152602001838380828437600081840152601f19601f82011690508083019250505050505050615002565b90506000611985838361581e565b905061199081615180565b508060008190555050505050505050565b60006119f18584848080601f016020809104026020016040519081016040528093929190818152602001838380828437600081840152601f19601f82011690508083019250505050505050615424565b90506000611a438585858080601f016020809104026020016040519081016040528093929190818152602001838380828437600081840152601f19601f820116905080830192505050505050506154ba565b90506000611a518383615870565b9050611a5c81615180565b508060008190555050505050505050565b6000611abd8584848080601f016020809104026020016040519081016040528093929190818152602001838380828437600081840152601f19601f820116905080830192505050505050506151ad565b90506000611b0f8585858080601f016020809104026020016040519081016040528093929190818152602001838380828437600081840152601f19601f820116905080830192505050505050506151ad565b90506000611b1d83836158c2565b9050611b2881615180565b508060008190555050505050505050565b6000611b898584848080601f016020809104026020016040519081016040528093929190818152602001838380828437600081840152601f19601f82011690508083019250505050505050615424565b90506000611bdb8585858080601f016020809104026020016040519081016040528093929190818152602001838380828437600081840152601f19601f82011690508083019250505050505050615098565b90506000611be9838361590c565b9050611bf481615180565b508060008190555050505050505050565b6000611c558584848080601f016020809104026020016040519081016040528093929190818152602001838380828437600081840152601f19601f820116905080830192505050505050506151ad565b90506000611ca78585858080601f016020809104026020016040519081016040528093929190818152602001838380828437600081840152601f19601f82011690508083019250505050505050615280565b90506000611cb5838361595e565b9050611cc081615360565b508060058190555050505050505050565b6000611d218584848080601f016020809104026020016040519081016040528093929190818152602001838380828437600081840152601f19601f82011690508083019250505050505050615280565b90506000611d738585858080601f016020809104026020016040519081016040528093929190818152602001838380828437600081840152601f19601f82011690508083019250505050505050615280565b90506000611d8183836159b0565b9050611d8c81615360565b508060058190555050505050505050565b6000611ded8584848080601f016020809104026020016040519081016040528093929190818152602001838380828437600081840152601f19601f82011690508083019250505050505050615424565b90506000611e3f8585858080601f016020809104026020016040519081016040528093929190818152602001838380828437600081840152601f19601f820116905080830192505050505050506154ba565b90506000611e4d83836159fa565b9050611e5881615a4c565b508060028190555050505050505050565b6000611eb98584848080601f016020809104026020016040519081016040528093929190818152602001838380828437600081840152601f19601f820116905080830192505050505050506151ad565b90506000611f0b8585858080601f016020809104026020016040519081016040528093929190818152602001838380828437600081840152601f19601f82011690508083019250505050505050615002565b90506000611f198383615a79565b9050611f24816156b0565b508060048190555050505050505050565b60005481565b6000611f8b8584848080601f016020809104026020016040519081016040528093929190818152602001838380828437600081840152601f19601f820116905080830192505050505050506151ad565b90506000611fdd8585858080601f016020809104026020016040519081016040528093929190818152602001838380828437600081840152601f19601f820116905080830192505050505050506154ba565b90506000611feb8383615acb565b9050611ff681615180565b508060008190555050505050505050565b60006120578584848080601f016020809104026020016040519081016040528093929190818152602001838380828437600081840152601f19601f82011690508083019250505050505050615002565b905060006120a98585858080601f016020809104026020016040519081016040528093929190818152602001838380828437600081840152601f19601f820116905080830192505050505050506154ba565b905060006120b78383615b1d565b90506120c281615646565b508060038190555050505050505050565b600084905060006121288585858080601f016020809104026020016040519081016040528093929190818152602001838380828437600081840152601f19601f82011690508083019250505050505050615002565b905060006121368383615b6f565b905061214181615180565b508060008190555050505050505050565b60006121a28584848080601f016020809104026020016040519081016040528093929190818152602001838380828437600081840152601f19601f82011690508083019250505050505050615098565b905060006121f48585858080601f016020809104026020016040519081016040528093929190818152602001838380828437600081840152601f19601f82011690508083019250505050505050615280565b905060006122028383615ba8565b905061220d816157b4565b508060068190555050505050505050565b600061226e8584848080601f016020809104026020016040519081016040528093929190818152602001838380828437600081840152601f19601f82011690508083019250505050505050615424565b905060006122c08585858080601f016020809104026020016040519081016040528093929190818152602001838380828437600081840152601f19601f820116905080830192505050505050506154ba565b905060006122ce8383615bfa565b90506122d981615a4c565b508060028190555050505050505050565b600061233a8584848080601f016020809104026020016040519081016040528093929190818152602001838380828437600081840152601f19601f82011690508083019250505050505050615002565b9050600061238c8585858080601f016020809104026020016040519081016040528093929190818152602001838380828437600081840152601f19601f820116905080830192505050505050506154ba565b9050600061239a8383615c4c565b90506123a581615646565b508060038190555050505050505050565b60006124068584848080601f016020809104026020016040519081016040528093929190818152602001838380828437600081840152601f19601f82011690508083019250505050505050615002565b905060006124588585858080601f016020809104026020016040519081016040528093929190818152602001838380828437600081840152601f19601f820116905080830192505050505050506151ad565b905060006124668383615c9e565b9050612471816156b0565b508060048190555050505050505050565b60006124d28584848080601f016020809104026020016040519081016040528093929190818152602001838380828437600081840152601f19601f82011690508083019250505050505050615002565b905060006125248585858080601f016020809104026020016040519081016040528093929190818152602001838380828437600081840152601f19601f820116905080830192505050505050506154ba565b905060006125328383615cf0565b905061253d81615646565b508060038190555050505050505050565b600061259e8584848080601f016020809104026020016040519081016040528093929190818152602001838380828437600081840152601f19601f820116905080830192505050505050506151ad565b9050600084905060006125b18383615d42565b90506125bc81615180565b508060008190555050505050505050565b600061261d8584848080601f016020809104026020016040519081016040528093929190818152602001838380828437600081840152601f19601f82011690508083019250505050505050615280565b9050600084905060006126308383615d7f565b905061263b81615360565b508060058190555050505050505050565b600084905060006126a18585858080601f016020809104026020016040519081016040528093929190818152602001838380828437600081840152601f19601f82011690508083019250505050505050615280565b905060006126af8383615dc2565b90506126ba81615360565b508060058190555050505050505050565b600061271b8584848080601f016020809104026020016040519081016040528093929190818152602001838380828437600081840152601f19601f82011690508083019250505050505050615280565b9050600061276d8585858080601f016020809104026020016040519081016040528093929190818152602001838380828437600081840152601f19601f82011690508083019250505050505050615424565b9050600061277b8383615e07565b905061278681615360565b508060058190555050505050505050565b600084905060006127ec8585858080601f016020809104026020016040519081016040528093929190818152602001838380828437600081840152601f19601f82011690508083019250505050505050615280565b905060006127fa8383615e59565b905061280581615360565b508060058190555050505050505050565b60006128668584848080601f016020809104026020016040519081016040528093929190818152602001838380828437600081840152601f19601f820116905080830192505050505050506151ad565b9050600084905060006128798383615e9e565b905061288481615180565b508060008190555050505050505050565b60006128e58484848080601f016020809104026020016040519081016040528093929190818152602001838380828437600081840152601f19601f82011690508083019250505050505050615098565b905060006128f282615edb565b90506128fd816157b4565b50806006819055505050505050565b600084905060006129618585858080601f016020809104026020016040519081016040528093929190818152602001838380828437600081840152601f19601f820116905080830192505050505050506151ad565b9050600061296f8383615f07565b905061297a81615180565b508060008190555050505050505050565b60006129db8584848080601f016020809104026020016040519081016040528093929190818152602001838380828437600081840152601f19601f82011690508083019250505050505050615280565b90506000612a2d8585858080601f016020809104026020016040519081016040528093929190818152602001838380828437600081840152601f19601f82011690508083019250505050505050615280565b90506000612a3b8383615f44565b9050612a4681615180565b508060008190555050505050505050565b6000612aa78584848080601f016020809104026020016040519081016040528093929190818152602001838380828437600081840152601f19601f820116905080830192505050505050506154ba565b905060008490506000612aba8383615f8e565b9050612ac581615fc4565b508060018190555050505050505050565b6000612b268584848080601f016020809104026020016040519081016040528093929190818152602001838380828437600081840152601f19601f82011690508083019250505050505050615424565b90506000612b788585858080601f016020809104026020016040519081016040528093929190818152602001838380828437600081840152601f19601f82011690508083019250505050505050615002565b90506000612b868383615ff1565b9050612b9181615646565b508060038190555050505050505050565b6000612bf28584848080601f016020809104026020016040519081016040528093929190818152602001838380828437600081840152601f19601f82011690508083019250505050505050615098565b905060008490506000612c058383616043565b9050612c10816157b4565b508060068190555050505050505050565b6000612c718584848080601f016020809104026020016040519081016040528093929190818152602001838380828437600081840152601f19601f82011690508083019250505050505050615280565b90506000612cc38585858080601f016020809104026020016040519081016040528093929190818152602001838380828437600081840152601f19601f82011690508083019250505050505050615280565b90506000612cd18383616076565b9050612cdc81615360565b508060058190555050505050505050565b6000612d3d8584848080601f016020809104026020016040519081016040528093929190818152602001838380828437600081840152601f19601f820116905080830192505050505050506151ad565b90506000612d8f8585858080601f016020809104026020016040519081016040528093929190818152602001838380828437600081840152601f19601f82011690508083019250505050505050615280565b90506000612d9d83836160c0565b9050612da881615360565b508060058190555050505050505050565b6000612e098584848080601f016020809104026020016040519081016040528093929190818152602001838380828437600081840152601f19601f820116905080830192505050505050506154ba565b90506000612e5b8585858080601f016020809104026020016040519081016040528093929190818152602001838380828437600081840152601f19601f82011690508083019250505050505050615280565b90506000612e698383616112565b9050612e7481615360565b508060058190555050505050505050565b6000612ed58584848080601f016020809104026020016040519081016040528093929190818152602001838380828437600081840152601f19601f82011690508083019250505050505050615280565b90506000612f278585858080601f016020809104026020016040519081016040528093929190818152602001838380828437600081840152601f19601f820116905080830192505050505050506154ba565b90506000612f358383616164565b9050612f4081615180565b508060008190555050505050505050565b6000612fa18584848080601f016020809104026020016040519081016040528093929190818152602001838380828437600081840152601f19601f82011690508083019250505050505050615424565b90506000612ff38585858080601f016020809104026020016040519081016040528093929190818152602001838380828437600081840152601f19601f820116905080830192505050505050506151ad565b9050600061300183836161b6565b905061300c816156b0565b508060048190555050505050505050565b600084905060006130728585858080601f016020809104026020016040519081016040528093929190818152602001838380828437600081840152601f19601f82011690508083019250505050505050615002565b905060006130808383616208565b905061308b81615646565b508060038190555050505050505050565b60006130ec8584848080601f016020809104026020016040519081016040528093929190818152602001838380828437600081840152601f19601f82011690508083019250505050505050615424565b9050600061313e8585858080601f016020809104026020016040519081016040528093929190818152602001838380828437600081840152601f19601f82011690508083019250505050505050615002565b9050600061314c8383616241565b905061315781615646565b508060038190555050505050505050565b60065481565b60006131be8584848080601f016020809104026020016040519081016040528093929190818152602001838380828437600081840152601f19601f82011690508083019250505050505050615280565b905060006132108585858080601f016020809104026020016040519081016040528093929190818152602001838380828437600081840152601f19601f82011690508083019250505050505050615424565b9050600061321e8383616293565b905061322981615180565b508060008190555050505050505050565b600061328a8584848080601f016020809104026020016040519081016040528093929190818152602001838380828437600081840152601f19601f82011690508083019250505050505050615280565b905060006132dc8585858080601f016020809104026020016040519081016040528093929190818152602001838380828437600081840152601f19601f820116905080830192505050505050506154ba565b905060006132ea83836162e5565b90506132f581615360565b508060058190555050505050505050565b60006133568584848080601f016020809104026020016040519081016040528093929190818152602001838380828437600081840152601f19601f82011690508083019250505050505050615002565b9050600084905060006133698383616337565b905061337481615180565b508060008190555050505050505050565b600084905060006133da8585858080601f016020809104026020016040519081016040528093929190818152602001838380828437600081840152601f19601f82011690508083019250505050505050615280565b905060006133e88383616370565b90506133f381615360565b508060058190555050505050505050565b60006134548584848080601f016020809104026020016040519081016040528093929190818152602001838380828437600081840152601f19601f82011690508083019250505050505050615280565b90506000849050600061346783836163ad565b905061347281615360565b508060058190555050505050505050565b60006134d38584848080601f016020809104026020016040519081016040528093929190818152602001838380828437600081840152601f19601f820116905080830192505050505050506154ba565b905060006135258585858080601f016020809104026020016040519081016040528093929190818152602001838380828437600081840152601f19601f820116905080830192505050505050506151ad565b9050600061353383836163f2565b905061353e816156b0565b508060048190555050505050505050565b600061359f8584848080601f016020809104026020016040519081016040528093929190818152602001838380828437600081840152601f19601f82011690508083019250505050505050615424565b9050600084905060006135b28383616444565b90506135bd81615a4c565b508060028190555050505050505050565b600061361e8584848080601f016020809104026020016040519081016040528093929190818152602001838380828437600081840152601f19601f82011690508083019250505050505050615424565b905060006136708585858080601f016020809104026020016040519081016040528093929190818152602001838380828437600081840152601f19601f82011690508083019250505050505050615424565b9050600061367e838361647b565b905061368981615a4c565b508060028190555050505050505050565b60006136ea8584848080601f016020809104026020016040519081016040528093929190818152602001838380828437600081840152601f19601f820116905080830192505050505050506151ad565b9050600061373c8585858080601f016020809104026020016040519081016040528093929190818152602001838380828437600081840152601f19601f820116905080830192505050505050506151ad565b9050600061374a83836164c5565b9050613755816156b0565b508060048190555050505050505050565b60006137b68584848080601f016020809104026020016040519081016040528093929190818152602001838380828437600081840152601f19601f82011690508083019250505050505050615098565b905060006138088585858080601f016020809104026020016040519081016040528093929190818152602001838380828437600081840152601f19601f82011690508083019250505050505050615002565b90506000613816838361650f565b905061382181615180565b508060008190555050505050505050565b60006138828584848080601f016020809104026020016040519081016040528093929190818152602001838380828437600081840152601f19601f82011690508083019250505050505050615098565b905060006138d48585858080601f016020809104026020016040519081016040528093929190818152602001838380828437600081840152601f19601f82011690508083019250505050505050615424565b905060006138e28383616561565b90506138ed816157b4565b508060068190555050505050505050565b600061394e8584848080601f016020809104026020016040519081016040528093929190818152602001838380828437600081840152601f19601f82011690508083019250505050505050615424565b905060006139a08585858080601f016020809104026020016040519081016040528093929190818152602001838380828437600081840152601f19601f82011690508083019250505050505050615424565b905060006139ae83836165b3565b90506139b981615180565b508060008190555050505050505050565b60008490506000613a1f8585858080601f016020809104026020016040519081016040528093929190818152602001838380828437600081840152601f19601f820116905080830192505050505050506154ba565b90506000613a2d83836165fd565b9050613a3881615fc4565b508060018190555050505050505050565b6000613a998584848080601f016020809104026020016040519081016040528093929190818152602001838380828437600081840152601f19601f820116905080830192505050505050506154ba565b90506000613aeb8585858080601f016020809104026020016040519081016040528093929190818152602001838380828437600081840152601f19601f820116905080830192505050505050506154ba565b90506000613af98383616633565b9050613b0481615fc4565b508060018190555050505050505050565b6000613b658584848080601f016020809104026020016040519081016040528093929190818152602001838380828437600081840152601f19601f820116905080830192505050505050506154ba565b90506000613bb78585858080601f016020809104026020016040519081016040528093929190818152602001838380828437600081840152601f19601f820116905080830192505050505050506154ba565b90506000613bc5838361667d565b9050613bd081615fc4565b508060018190555050505050505050565b60035481565b6000613c378584848080601f016020809104026020016040519081016040528093929190818152602001838380828437600081840152601f19601f820116905080830192505050505050506151ad565b90506000613c898585858080601f016020809104026020016040519081016040528093929190818152602001838380828437600081840152601f19601f820116905080830192505050505050506154ba565b90506000613c9783836166c7565b9050613ca281615180565b508060008190555050505050505050565b6000613d038584848080601f016020809104026020016040519081016040528093929190818152602001838380828437600081840152601f19601f82011690508083019250505050505050615280565b90506000613d558585858080601f016020809104026020016040519081016040528093929190818152602001838380828437600081840152601f19601f820116905080830192505050505050506151ad565b90506000613d638383616719565b9050613d6e81615360565b508060058190555050505050505050565b6000613dcf8584848080601f016020809104026020016040519081016040528093929190818152602001838380828437600081840152601f19601f82011690508083019250505050505050615424565b90506000613e218585858080601f016020809104026020016040519081016040528093929190818152602001838380828437600081840152601f19601f82011690508083019250505050505050615424565b90506000613e2f838361676b565b9050613e3a81615a4c565b508060028190555050505050505050565b6000613e9b8584848080601f016020809104026020016040519081016040528093929190818152602001838380828437600081840152601f19601f82011690508083019250505050505050615424565b90506000613eed8585858080601f016020809104026020016040519081016040528093929190818152602001838380828437600081840152601f19601f820116905080830192505050505050506151ad565b90506000613efb83836167b5565b9050613f0681615180565b508060008190555050505050505050565b6000613f678584848080601f016020809104026020016040519081016040528093929190818152602001838380828437600081840152601f19601f820116905080830192505050505050506151ad565b90506000613fb98585858080601f016020809104026020016040519081016040528093929190818152602001838380828437600081840152601f19601f820116905080830192505050505050506154ba565b90506000613fc78383616807565b9050613fd2816156b0565b508060048190555050505050505050565b60015481565b60006140398584848080601f016020809104026020016040519081016040528093929190818152602001838380828437600081840152601f19601f82011690508083019250505050505050615002565b90506000849050600061404c8383616859565b905061405781615646565b508060038190555050505050505050565b60006140b88584848080601f016020809104026020016040519081016040528093929190818152602001838380828437600081840152601f19601f820116905080830192505050505050506151ad565b9050600061410a8585858080601f016020809104026020016040519081016040528093929190818152602001838380828437600081840152601f19601f820116905080830192505050505050506154ba565b905060006141188383616892565b905061412381615180565b508060008190555050505050505050565b60006141848584848080601f016020809104026020016040519081016040528093929190818152602001838380828437600081840152601f19601f820116905080830192505050505050506151ad565b905060006141d68585858080601f016020809104026020016040519081016040528093929190818152602001838380828437600081840152601f19601f820116905080830192505050505050506154ba565b905060006141e483836168e4565b90506141ef816156b0565b508060048190555050505050505050565b60025481565b60006142568584848080601f016020809104026020016040519081016040528093929190818152602001838380828437600081840152601f19601f82011690508083019250505050505050615280565b9050600084905060006142698383616936565b905061427481615360565b508060058190555050505050505050565b60006142d58584848080601f016020809104026020016040519081016040528093929190818152602001838380828437600081840152601f19601f82011690508083019250505050505050615280565b905060006143278585858080601f016020809104026020016040519081016040528093929190818152602001838380828437600081840152601f19601f82011690508083019250505050505050615098565b90506000614335838361696c565b9050614340816157b4565b508060068190555050505050505050565b60055481565b60006143a78584848080601f016020809104026020016040519081016040528093929190818152602001838380828437600081840152601f19601f82011690508083019250505050505050615002565b905060006143f98585858080601f016020809104026020016040519081016040528093929190818152602001838380828437600081840152601f19601f82011690508083019250505050505050615424565b9050600061440783836169be565b905061441281615180565b508060008190555050505050505050565b600084905060006144788585858080601f016020809104026020016040519081016040528093929190818152602001838380828437600081840152601f19601f82011690508083019250505050505050615280565b905060006144868383616a10565b905061449181615180565b508060008190555050505050505050565b60006144f28584848080601f016020809104026020016040519081016040528093929190818152602001838380828437600081840152601f19601f82011690508083019250505050505050615098565b905060006145448585858080601f016020809104026020016040519081016040528093929190818152602001838380828437600081840152601f19601f820116905080830192505050505050506154ba565b905060006145528383616a55565b905061455d81615180565b508060008190555050505050505050565b60006145be8584848080601f016020809104026020016040519081016040528093929190818152602001838380828437600081840152601f19601f82011690508083019250505050505050615424565b905060006146108585858080601f016020809104026020016040519081016040528093929190818152602001838380828437600081840152601f19601f82011690508083019250505050505050615424565b9050600061461e8383616aa7565b905061462981615a4c565b508060028190555050505050505050565b600061468a8584848080601f016020809104026020016040519081016040528093929190818152602001838380828437600081840152601f19601f82011690508083019250505050505050615002565b905060006146dc8585858080601f016020809104026020016040519081016040528093929190818152602001838380828437600081840152601f19601f820116905080830192505050505050506151ad565b905060006146ea8383616af1565b90506146f5816156b0565b508060048190555050505050505050565b60006147568584848080601f016020809104026020016040519081016040528093929190818152602001838380828437600081840152601f19601f820116905080830192505050505050506151ad565b905060006147a88585858080601f016020809104026020016040519081016040528093929190818152602001838380828437600081840152601f19601f820116905080830192505050505050506151ad565b905060006147b68383616b43565b90506147c1816156b0565b508060048190555050505050505050565b60006148228584848080601f016020809104026020016040519081016040528093929190818152602001838380828437600081840152601f19601f82011690508083019250505050505050615424565b905060006148748585858080601f016020809104026020016040519081016040528093929190818152602001838380828437600081840152601f19601f82011690508083019250505050505050615098565b905060006148828383616b8d565b905061488d81615180565b508060008190555050505050505050565b60006148ee8584848080601f016020809104026020016040519081016040528093929190818152602001838380828437600081840152601f19601f82011690508083019250505050505050615098565b905060006149408585858080601f016020809104026020016040519081016040528093929190818152602001838380828437600081840152601f19601f820116905080830192505050505050506154ba565b9050600061494e8383616bdf565b9050614959816157b4565b508060068190555050505050505050565b60006149ba8584848080601f016020809104026020016040519081016040528093929190818152602001838380828437600081840152601f19601f820116905080830192505050505050506151ad565b90506000614a0c8585858080601f016020809104026020016040519081016040528093929190818152602001838380828437600081840152601f19601f82011690508083019250505050505050615002565b90506000614a1a8383616c31565b9050614a25816156b0565b508060048190555050505050505050565b6000614a868584848080601f016020809104026020016040519081016040528093929190818152602001838380828437600081840152601f19601f82011690508083019250505050505050615098565b90506000614ad88585858080601f016020809104026020016040519081016040528093929190818152602001838380828437600081840152601f19601f82011690508083019250505050505050615002565b90506000614ae68383616c83565b9050614af181615180565b508060008190555050505050505050565b6000614b528584848080601f016020809104026020016040519081016040528093929190818152602001838380828437600081840152601f19601f82011690508083019250505050505050615002565b90506000614ba48585858080601f016020809104026020016040519081016040528093929190818152602001838380828437600081840152601f19601f820116905080830192505050505050506151ad565b90506000614bb28383616cd5565b9050614bbd81615180565b508060008190555050505050505050565b6000614c1e8584848080601f016020809104026020016040519081016040528093929190818152602001838380828437600081840152601f19601f82011690508083019250505050505050615002565b90506000614c708585858080601f016020809104026020016040519081016040528093929190818152602001838380828437600081840152601f19601f82011690508083019250505050505050615280565b90506000614c7e8383616d27565b9050614c8981615180565b508060008190555050505050505050565b60045481565b60008490506000614cf58585858080601f016020809104026020016040519081016040528093929190818152602001838380828437600081840152601f19601f82011690508083019250505050505050615280565b90506000614d038383616d79565b9050614d0e81615360565b508060058190555050505050505050565b6000614d6f8584848080601f016020809104026020016040519081016040528093929190818152602001838380828437600081840152601f19601f82011690508083019250505050505050615424565b905060008490506000614d828383616dbe565b9050614d8d81615180565b508060008190555050505050505050565b6000614dee8584848080601f016020809104026020016040519081016040528093929190818152602001838380828437600081840152601f19601f820116905080830192505050505050506151ad565b90506000614e408585858080601f016020809104026020016040519081016040528093929190818152602001838380828437600081840152601f19601f820116905080830192505050505050506151ad565b90506000614e4e8383616df5565b9050614e59816156b0565b508060048190555050505050505050565b6000614eba8584848080601f016020809104026020016040519081016040528093929190818152602001838380828437600081840152601f19601f820116905080830192505050505050506151ad565b90506000614f0c8585858080601f016020809104026020016040519081016040528093929190818152602001838380828437600081840152601f19601f820116905080830192505050505050506154ba565b90506000614f1a8383616e3f565b9050614f2581615180565b508060008190555050505050505050565b6000614f868584848080601f016020809104026020016040519081016040528093929190818152602001838380828437600081840152601f19601f820116905080830192505050505050506151ad565b90506000614fd88585858080601f016020809104026020016040519081016040528093929190818152602001838380828437600081840152601f19601f820116905080830192505050505050506151ad565b90506000614fe68383616e91565b9050614ff1816156b0565b508060048190555050505050505050565b60008082511461501f5761501883836004616edb565b9050615092565b60008390506000801b8103615040576150386000617029565b915050615092565b61504a8133617043565b61508d5780336040517f0276b5d9000000000000000000000000000000000000000000000000000000008152600401615084929190619e6b565b60405180910390fd5b809150505b92915050565b6000808251146150b5576150ae83836008616edb565b9050615128565b60008390506000801b81036150d6576150ce60006170f9565b915050615128565b6150e08133617043565b6151235780336040517f0276b5d900000000000000000000000000000000000000000000000000000000815260040161511a929190619e6b565b60405180910390fd5b809150505b92915050565b60006151398361710d565b61514a576151476000617029565b92505b6151538261711d565b6151645761516160006170f9565b91505b6151786151708461712d565b83600061715b565b905092915050565b600061518b82617233565b61519c576151996000617243565b91505b6151a582617268565b819050919050565b6000808251146151ca576151c383836005616edb565b905061523d565b60008390506000801b81036151eb576151e36000617377565b91505061523d565b6151f58133617043565b6152385780336040517f0276b5d900000000000000000000000000000000000000000000000000000000815260040161522f929190619e6b565b60405180910390fd5b809150505b92915050565b600061524e82617395565b61525f5761525c6000617377565b91505b615278828467ffffffffffffffff1660001b600161715b565b905092915050565b60008082511461529d5761529683836006616edb565b9050615310565b60008390506000801b81036152be576152b660006173a5565b915050615310565b6152c88133617043565b61530b5780336040517f0276b5d9000000000000000000000000000000000000000000000000000000008152600401615302929190619e6b565b60405180910390fd5b809150505b92915050565b6000615321836173cb565b6153325761532f60006173a5565b92505b61533b826173cb565b61534c5761534960006173a5565b91505b615358838360006173db565b905092915050565b600061536b826173cb565b61537c5761537960006173a5565b91505b61538582617268565b819050919050565b600061539883617395565b6153a9576153a66000617377565b92505b6153b28261710d565b6153c3576153c06000617029565b91505b6153d7836153d0846174b3565b60006174e1565b905092915050565b60006153ea836173cb565b6153fb576153f860006173a5565b92505b61541c83836fffffffffffffffffffffffffffffffff1660001b60016175b9565b905092915050565b6000808251146154415761543a83836003616edb565b90506154b4565b60008390506000801b81036154625761545a6000617691565b9150506154b4565b61546c8133617043565b6154af5780336040517f0276b5d90000000000000000000000000000000000000000000000000000000081526004016154a6929190619e6b565b60405180910390fd5b809150505b92915050565b6000808251146154d7576154d083836002616edb565b905061554a565b60008390506000801b81036154f8576154f060006176a9565b91505061554a565b6155028133617043565b6155455780336040517f0276b5d900000000000000000000000000000000000000000000000000000000815260040161553c929190619e6b565b60405180910390fd5b809150505b92915050565b600061555b836176c0565b61556c576155696000617691565b92505b615575826176d0565b6155865761558360006176a9565b91505b61559a83615593846176e0565b600061770e565b905092915050565b60006155ad836176d0565b6155be576155bb60006176a9565b92505b6155c7826173cb565b6155d8576155d560006173a5565b91505b6155ec6155e4846177e6565b8360006175b9565b905092915050565b60006155ff836176c0565b6156105761560d6000617691565b92505b6156198261710d565b61562a576156276000617029565b91505b61563e61563684617814565b8360006173db565b905092915050565b60006156518261710d565b6156625761565f6000617029565b91505b61566b82617268565b819050919050565b600061567e82617395565b61568f5761568c6000617377565b91505b6156a8828467ffffffffffffffff1660001b6001617842565b905092915050565b60006156bb82617395565b6156cc576156c96000617377565b91505b6156d582617268565b819050919050565b60006156e8836173cb565b6156f9576156f660006173a5565b92505b615702826176d0565b6157135761571060006176a9565b91505b61572783615720846177e6565b600061791a565b905092915050565b600061573a836173cb565b61574b5761574860006173a5565b92505b6157548261710d565b615765576157626000617029565b91505b61577983615772846179f2565b6000617a20565b905092915050565b600061578c8261711d565b61579d5761579a60006170f9565b91505b6157ac828460001b60016175b9565b905092915050565b60006157bf8261711d565b6157d0576157cd60006170f9565b91505b6157d982617268565b819050919050565b60006157ec82617395565b6157fd576157fa6000617377565b91505b615816828467ffffffffffffffff1660001b60016175b9565b905092915050565b600061582983617395565b61583a576158376000617377565b92505b6158438261710d565b615854576158516000617029565b91505b61586883615861846174b3565b6000617af8565b905092915050565b600061587b836176c0565b61588c576158896000617691565b92505b615895826176d0565b6158a6576158a360006176a9565b91505b6158ba836158b3846176e0565b60006174e1565b905092915050565b60006158cd83617395565b6158de576158db6000617377565b92505b6158e782617395565b6158f8576158f56000617377565b91505b6159048383600061770e565b905092915050565b6000615917836176c0565b615928576159256000617691565b92505b6159318261711d565b6159425761593f60006170f9565b91505b61595661594e84617bd0565b83600061770e565b905092915050565b600061596983617395565b61597a576159776000617377565b92505b615983826173cb565b6159945761599160006173a5565b91505b6159a86159a084617bfe565b836000617c2c565b905092915050565b60006159bb836173cb565b6159cc576159c960006173a5565b92505b6159d5826173cb565b6159e6576159e360006173a5565b91505b6159f28383600061791a565b905092915050565b6000615a05836176c0565b615a1657615a136000617691565b92505b615a1f826176d0565b615a3057615a2d60006176a9565b91505b615a4483615a3d846176e0565b6000617d04565b905092915050565b6000615a57826176c0565b615a6857615a656000617691565b91505b615a7182617268565b819050919050565b6000615a8483617395565b615a9557615a926000617377565b92505b615a9e8261710d565b615aaf57615aac6000617029565b91505b615ac383615abc846174b3565b600061791a565b905092915050565b6000615ad683617395565b615ae757615ae46000617377565b92505b615af0826176d0565b615b0157615afe60006176a9565b91505b615b1583615b0e84617ddc565b6000617a20565b905092915050565b6000615b288361710d565b615b3957615b366000617029565b92505b615b42826176d0565b615b5357615b5060006176a9565b91505b615b6783615b6084617e0a565b6000617e38565b905092915050565b6000615b7a8261710d565b615b8b57615b886000617029565b91505b615ba0828463ffffffff1660001b600161770e565b905092915050565b6000615bb38361711d565b615bc457615bc160006170f9565b92505b615bcd826173cb565b615bde57615bdb60006173a5565b91505b615bf283615beb84617f10565b60006175b9565b905092915050565b6000615c05836176c0565b615c1657615c136000617691565b92505b615c1f826176d0565b615c3057615c2d60006176a9565b91505b615c4483615c3d846176e0565b60006173db565b905092915050565b6000615c578361710d565b615c6857615c656000617029565b92505b615c71826176d0565b615c8257615c7f60006176a9565b91505b615c9683615c8f84617e0a565b6000617f3e565b905092915050565b6000615ca98361710d565b615cba57615cb76000617029565b92505b615cc382617395565b615cd457615cd16000617377565b91505b615ce8615ce0846174b3565b836000618016565b905092915050565b6000615cfb8361710d565b615d0c57615d096000617029565b92505b615d15826176d0565b615d2657615d2360006176a9565b91505b615d3a83615d3384617e0a565b60006180ee565b905092915050565b6000615d4d83617395565b615d5e57615d5b6000617377565b92505b615d77838367ffffffffffffffff1660001b6001617a20565b905092915050565b6000615d8a836173cb565b615d9b57615d9860006173a5565b92505b615dba83836fffffffffffffffffffffffffffffffff1660001b6181c6565b905092915050565b6000615dcd826173cb565b615dde57615ddb60006173a5565b91505b615dff82846fffffffffffffffffffffffffffffffff1660001b60016175b9565b905092915050565b6000615e12836173cb565b615e2357615e2060006173a5565b92505b615e2c826176c0565b615e3d57615e3a6000617691565b91505b615e5183615e4a8461828a565b6000617e38565b905092915050565b6000615e64826173cb565b615e7557615e7260006173a5565b91505b615e9682846fffffffffffffffffffffffffffffffff1660001b6001617e38565b905092915050565b6000615ea983617395565b615eba57615eb76000617377565b92505b615ed3838367ffffffffffffffff1660001b600161770e565b905092915050565b6000615ee68261711d565b615ef757615ef460006170f9565b91505b615f00826182b8565b9050919050565b6000615f1282617395565b615f2357615f206000617377565b91505b615f3c828467ffffffffffffffff1660001b6001617a20565b905092915050565b6000615f4f836173cb565b615f6057615f5d60006173a5565b92505b615f69826173cb565b615f7a57615f7760006173a5565b91505b615f86838360006174e1565b905092915050565b6000615f99836176d0565b615faa57615fa760006176a9565b92505b615fbc838360ff1660001b6001617d04565b905092915050565b6000615fcf826176d0565b615fe057615fdd60006176a9565b91505b615fe982617268565b819050919050565b6000615ffc836176c0565b61600d5761600a6000617691565b92505b6160168261710d565b616027576160246000617029565b91505b61603b61603384617814565b83600061791a565b905092915050565b600061604e8361711d565b61605f5761605c60006170f9565b92505b61606e838360001b6001618016565b905092915050565b6000616081836173cb565b6160925761608f60006173a5565b92505b61609b826173cb565b6160ac576160a960006173a5565b91505b6160b88383600061836d565b905092915050565b60006160cb83617395565b6160dc576160d96000617377565b92505b6160e5826173cb565b6160f6576160f360006173a5565b91505b61610a61610284617bfe565b8360006175b9565b905092915050565b600061611d836176d0565b61612e5761612b60006176a9565b92505b616137826173cb565b6161485761614560006173a5565b91505b61615c616154846177e6565b836000617842565b905092915050565b600061616f836173cb565b6161805761617d60006173a5565b92505b616189826176d0565b61619a5761619760006176a9565b91505b6161ae836161a7846177e6565b600061770e565b905092915050565b60006161c1836176c0565b6161d2576161cf6000617691565b92505b6161db82617395565b6161ec576161e96000617377565b91505b6162006161f884618445565b836000617842565b905092915050565b60006162138261710d565b616224576162216000617029565b91505b616239828463ffffffff1660001b6001618016565b905092915050565b600061624c836176c0565b61625d5761625a6000617691565b92505b6162668261710d565b616277576162746000617029565b91505b61628b61628384617814565b836000617e38565b905092915050565b600061629e836173cb565b6162af576162ac60006173a5565b92505b6162b8826176c0565b6162c9576162c66000617691565b91505b6162dd836162d68461828a565b600061770e565b905092915050565b60006162f0836173cb565b616301576162fe60006173a5565b92505b61630a826176d0565b61631b5761631860006176a9565b91505b61632f83616328846177e6565b60006180ee565b905092915050565b60006163428361710d565b616353576163506000617029565b92505b616368838363ffffffff1660001b6001617a20565b905092915050565b60008061637c846173a5565b9050616387836173cb565b6163985761639560006173a5565b92505b6163a4818460006173db565b91505092915050565b60006163b8836173cb565b6163c9576163c660006173a5565b92505b6163ea83836fffffffffffffffffffffffffffffffff1660001b6001617e38565b905092915050565b60006163fd836176d0565b61640e5761640b60006176a9565b92505b61641782617395565b616428576164256000617377565b91505b61643c61643484617ddc565b836000617842565b905092915050565b600061644f836176c0565b6164605761645d6000617691565b92505b616473838361ffff1660001b6001618016565b905092915050565b6000616486836176c0565b616497576164946000617691565b92505b6164a0826176c0565b6164b1576164ae6000617691565b91505b6164bd83836000617c2c565b905092915050565b60006164d083617395565b6164e1576164de6000617377565b92505b6164ea82617395565b6164fb576164f86000617377565b91505b61650783836000618016565b905092915050565b600061651a8361711d565b61652b5761652860006170f9565b92505b6165348261710d565b616545576165426000617029565b91505b616559836165528461712d565b600061715b565b905092915050565b600061656c8361711d565b61657d5761657a60006170f9565b92505b616586826176c0565b616597576165946000617691565b91505b6165ab836165a484617bd0565b6000618016565b905092915050565b60006165be836176c0565b6165cf576165cc6000617691565b92505b6165d8826176c0565b6165e9576165e66000617691565b91505b6165f5838360006174e1565b905092915050565b6000616608826176d0565b6166195761661660006176a9565b91505b61662b828460ff1660001b6001617c2c565b905092915050565b600061663e836176d0565b61664f5761664c60006176a9565b92505b616658826176d0565b6166695761666660006176a9565b91505b61667583836000618473565b905092915050565b6000616688836176d0565b6166995761669660006176a9565b92505b6166a2826176d0565b6166b3576166b060006176a9565b91505b6166bf83836000617842565b905092915050565b60006166d283617395565b6166e3576166e06000617377565b92505b6166ec826176d0565b6166fd576166fa60006176a9565b91505b6167118361670a84617ddc565b6000617af8565b905092915050565b6000616724836173cb565b6167355761673260006173a5565b92505b61673e82617395565b61674f5761674c6000617377565b91505b6167638361675c84617bfe565b600061791a565b905092915050565b6000616776836176c0565b616787576167846000617691565b92505b616790826176c0565b6167a15761679e6000617691565b91505b6167ad838360006173db565b905092915050565b60006167c0836176c0565b6167d1576167ce6000617691565b92505b6167da82617395565b6167eb576167e86000617377565b91505b6167ff6167f784618445565b836000617af8565b905092915050565b600061681283617395565b616823576168206000617377565b92505b61682c826176d0565b61683d5761683a60006176a9565b91505b6168518361684a84617ddc565b6000617d04565b905092915050565b60006168648361710d565b616875576168726000617029565b92505b61688a838363ffffffff1660001b6001618016565b905092915050565b600061689d83617395565b6168ae576168ab6000617377565b92505b6168b7826176d0565b6168c8576168c560006176a9565b91505b6168dc836168d584617ddc565b600061854b565b905092915050565b60006168ef83617395565b616900576168fd6000617377565b92505b616909826176d0565b61691a5761691760006176a9565b91505b61692e8361692784617ddc565b60006173db565b905092915050565b6000616941836173cb565b6169525761694f60006173a5565b92505b616964838360ff1660001b6001618473565b905092915050565b6000616977836173cb565b6169885761698560006173a5565b92505b6169918261711d565b6169a25761699f60006170f9565b91505b6169b66169ae84617f10565b8360006175b9565b905092915050565b60006169c98361710d565b6169da576169d76000617029565b92505b6169e3826176c0565b6169f4576169f16000617691565b91505b616a0883616a0184617814565b6000617a20565b905092915050565b6000616a1b826173cb565b616a2c57616a2960006173a5565b91505b616a4d82846fffffffffffffffffffffffffffffffff1660001b6001617a20565b905092915050565b6000616a608361711d565b616a7157616a6e60006170f9565b92505b616a7a826176d0565b616a8b57616a8860006176a9565b91505b616a9f83616a9884618623565b600061715b565b905092915050565b6000616ab2836176c0565b616ac357616ac06000617691565b92505b616acc826176c0565b616add57616ada6000617691565b91505b616ae983836000617842565b905092915050565b6000616afc8361710d565b616b0d57616b0a6000617029565b92505b616b1682617395565b616b2757616b246000617377565b91505b616b3b616b33846174b3565b836000617842565b905092915050565b6000616b4e83617395565b616b5f57616b5c6000617377565b92505b616b6882617395565b616b7957616b766000617377565b91505b616b85838360006175b9565b905092915050565b6000616b98836176c0565b616ba957616ba66000617691565b92505b616bb28261711d565b616bc357616bc060006170f9565b91505b616bd7616bcf84617bd0565b83600061715b565b905092915050565b6000616bea8361711d565b616bfb57616bf860006170f9565b92505b616c04826176d0565b616c1557616c1260006176a9565b91505b616c2983616c2284618623565b6000617d04565b905092915050565b6000616c3c83617395565b616c4d57616c4a6000617377565b92505b616c568261710d565b616c6757616c646000617029565b91505b616c7b83616c74846174b3565b6000617842565b905092915050565b6000616c8e8361711d565b616c9f57616c9c60006170f9565b92505b616ca88261710d565b616cb957616cb66000617029565b91505b616ccd83616cc68461712d565b600061770e565b905092915050565b6000616ce08361710d565b616cf157616cee6000617029565b92505b616cfa82617395565b616d0b57616d086000617377565b91505b616d1f616d17846174b3565b83600061854b565b905092915050565b6000616d328361710d565b616d4357616d406000617029565b92505b616d4c826173cb565b616d5d57616d5a60006173a5565b91505b616d71616d69846179f2565b83600061854b565b905092915050565b6000616d84826173cb565b616d9557616d9260006173a5565b91505b616db682846fffffffffffffffffffffffffffffffff1660001b600161836d565b905092915050565b6000616dc9836176c0565b616dda57616dd76000617691565b92505b616ded838361ffff1660001b60016174e1565b905092915050565b6000616e0083617395565b616e1157616e0e6000617377565b92505b616e1a82617395565b616e2b57616e286000617377565b91505b616e378383600061791a565b905092915050565b6000616e4a83617395565b616e5b57616e586000617377565b92505b616e64826176d0565b616e7557616e7260006176a9565b91505b616e8983616e8284617ddc565b600061770e565b905092915050565b6000616e9c83617395565b616ead57616eaa6000617377565b92505b616eb682617395565b616ec757616ec46000617377565b91505b616ed383836000617c2c565b905092915050565b600080616ee6618651565b90508060010160009054906101000a900473ffffffffffffffffffffffffffffffffffffffff1673ffffffffffffffffffffffffffffffffffffffff166308bf832a863387876040518563ffffffff1660e01b8152600401616f4b9493929190619f9b565b6020604051808303816000875af1158015616f6a573d6000803e3d6000fd5b505050506040513d601f19601f82011682018060405250810190616f8e919061a013565b91508060000160009054906101000a900473ffffffffffffffffffffffffffffffffffffffff1673ffffffffffffffffffffffffffffffffffffffff16633e395cec83336040518363ffffffff1660e01b8152600401616fef929190619e6b565b600060405180830381600087803b15801561700957600080fd5b505af115801561701d573d6000803e3d6000fd5b50505050509392505050565b600061703c8263ffffffff166004618679565b9050919050565b60008061704e618651565b90508060000160009054906101000a900473ffffffffffffffffffffffffffffffffffffffff1673ffffffffffffffffffffffffffffffffffffffff166382027b6d85856040518363ffffffff1660e01b81526004016170af929190619e6b565b602060405180830381865afa1580156170cc573d6000803e3d6000fd5b505050506040513d601f19601f820116820180604052508101906170f0919061a078565b91505092915050565b6000617106826008618679565b9050919050565b60008060001b8214159050919050565b60008060001b8214159050919050565b60006171388261710d565b617149576171466000617029565b91505b617154826008618731565b9050919050565b600080821561717057600160f81b9050617178565b600060f81b90505b6000617182618651565b90508060010160009054906101000a900473ffffffffffffffffffffffffffffffffffffffff1673ffffffffffffffffffffffffffffffffffffffff1663f77f3f1d8787856040518463ffffffff1660e01b81526004016171e59392919061a0e0565b6020604051808303816000875af1158015617204573d6000803e3d6000fd5b505050506040513d601f19601f82011682018060405250810190617228919061a013565b925050509392505050565b60008060001b8214159050919050565b600061726182617254576000617257565b60015b60ff166000618679565b9050919050565b6000617272618651565b90506000600167ffffffffffffffff8111156172915761729061a117565b5b6040519080825280602002602001820160405280156172bf5781602001602082028036833780820191505090505b50905082816000815181106172d7576172d661a146565b5b6020026020010181815250508160000160009054906101000a900473ffffffffffffffffffffffffffffffffffffffff1673ffffffffffffffffffffffffffffffffffffffff1663fadd2246826040518263ffffffff1660e01b8152600401617340919061a233565b600060405180830381600087803b15801561735a57600080fd5b505af115801561736e573d6000803e3d6000fd5b50505050505050565b600061738e8267ffffffffffffffff166005618679565b9050919050565b60008060001b8214159050919050565b60006173c4826fffffffffffffffffffffffffffffffff166006618679565b9050919050565b60008060001b8214159050919050565b60008082156173f057600160f81b90506173f8565b600060f81b90505b6000617402618651565b90508060010160009054906101000a900473ffffffffffffffffffffffffffffffffffffffff1673ffffffffffffffffffffffffffffffffffffffff1663182b6d988787856040518463ffffffff1660e01b81526004016174659392919061a0e0565b6020604051808303816000875af1158015617484573d6000803e3d6000fd5b505050506040513d601f19601f820116820180604052508101906174a8919061a013565b925050509392505050565b60006174be8261710d565b6174cf576174cc6000617029565b91505b6174da826005618731565b9050919050565b60008082156174f657600160f81b90506174fe565b600060f81b90505b6000617508618651565b90508060010160009054906101000a900473ffffffffffffffffffffffffffffffffffffffff1673ffffffffffffffffffffffffffffffffffffffff16637513a4048787856040518463ffffffff1660e01b815260040161756b9392919061a0e0565b6020604051808303816000875af115801561758a573d6000803e3d6000fd5b505050506040513d601f19601f820116820180604052508101906175ae919061a013565b925050509392505050565b60008082156175ce57600160f81b90506175d6565b600060f81b90505b60006175e0618651565b90508060010160009054906101000a900473ffffffffffffffffffffffffffffffffffffffff1673ffffffffffffffffffffffffffffffffffffffff166363a2db298787856040518463ffffffff1660e01b81526004016176439392919061a0e0565b6020604051808303816000875af1158015617662573d6000803e3d6000fd5b505050506040513d601f19601f82011682018060405250810190617686919061a013565b925050509392505050565b60006176a28261ffff166003618679565b9050919050565b60006176b98260ff166002618679565b9050919050565b60008060001b8214159050919050565b60008060001b8214159050919050565b60006176eb826176d0565b6176fc576176f960006176a9565b91505b617707826003618731565b9050919050565b600080821561772357600160f81b905061772b565b600060f81b90505b6000617735618651565b90508060010160009054906101000a900473ffffffffffffffffffffffffffffffffffffffff1673ffffffffffffffffffffffffffffffffffffffff1663d8092cbc8787856040518463ffffffff1660e01b81526004016177989392919061a0e0565b6020604051808303816000875af11580156177b7573d6000803e3d6000fd5b505050506040513d601f19601f820116820180604052508101906177db919061a013565b925050509392505050565b60006177f1826176d0565b617802576177ff60006176a9565b91505b61780d826006618731565b9050919050565b600061781f826176c0565b6178305761782d6000617691565b91505b61783b826004618731565b9050919050565b600080821561785757600160f81b905061785f565b600060f81b90505b6000617869618651565b90508060010160009054906101000a900473ffffffffffffffffffffffffffffffffffffffff1673ffffffffffffffffffffffffffffffffffffffff16638b49ceb48787856040518463ffffffff1660e01b81526004016178cc9392919061a0e0565b6020604051808303816000875af11580156178eb573d6000803e3d6000fd5b505050506040513d601f19601f8201168201806040525081019061790f919061a013565b925050509392505050565b600080821561792f57600160f81b9050617937565b600060f81b90505b6000617941618651565b90508060010160009054906101000a900473ffffffffffffffffffffffffffffffffffffffff1673ffffffffffffffffffffffffffffffffffffffff166336318d648787856040518463ffffffff1660e01b81526004016179a49392919061a0e0565b6020604051808303816000875af11580156179c3573d6000803e3d6000fd5b505050506040513d601f19601f820116820180604052508101906179e7919061a013565b925050509392505050565b60006179fd8261710d565b617a0e57617a0b6000617029565b91505b617a19826006618731565b9050919050565b6000808215617a3557600160f81b9050617a3d565b600060f81b90505b6000617a47618651565b90508060010160009054906101000a900473ffffffffffffffffffffffffffffffffffffffff1673ffffffffffffffffffffffffffffffffffffffff166385362ee78787856040518463ffffffff1660e01b8152600401617aaa9392919061a0e0565b6020604051808303816000875af1158015617ac9573d6000803e3d6000fd5b505050506040513d601f19601f82011682018060405250810190617aed919061a013565b925050509392505050565b6000808215617b0d57600160f81b9050617b15565b600060f81b90505b6000617b1f618651565b90508060010160009054906101000a900473ffffffffffffffffffffffffffffffffffffffff1673ffffffffffffffffffffffffffffffffffffffff1663721076818787856040518463ffffffff1660e01b8152600401617b829392919061a0e0565b6020604051808303816000875af1158015617ba1573d6000803e3d6000fd5b505050506040513d601f19601f82011682018060405250810190617bc5919061a013565b925050509392505050565b6000617bdb826176c0565b617bec57617be96000617691565b91505b617bf7826008618731565b9050919050565b6000617c0982617395565b617c1a57617c176000617377565b91505b617c25826006618731565b9050919050565b6000808215617c4157600160f81b9050617c49565b600060f81b90505b6000617c53618651565b90508060010160009054906101000a900473ffffffffffffffffffffffffffffffffffffffff1673ffffffffffffffffffffffffffffffffffffffff166304559f718787856040518463ffffffff1660e01b8152600401617cb69392919061a0e0565b6020604051808303816000875af1158015617cd5573d6000803e3d6000fd5b505050506040513d601f19601f82011682018060405250810190617cf9919061a013565b925050509392505050565b6000808215617d1957600160f81b9050617d21565b600060f81b90505b6000617d2b618651565b90508060010160009054906101000a900473ffffffffffffffffffffffffffffffffffffffff1673ffffffffffffffffffffffffffffffffffffffff1663ccc480a18787856040518463ffffffff1660e01b8152600401617d8e9392919061a0e0565b6020604051808303816000875af1158015617dad573d6000803e3d6000fd5b505050506040513d601f19601f82011682018060405250810190617dd1919061a013565b925050509392505050565b6000617de7826176d0565b617df857617df560006176a9565b91505b617e03826005618731565b9050919050565b6000617e15826176d0565b617e2657617e2360006176a9565b91505b617e31826004618731565b9050919050565b6000808215617e4d57600160f81b9050617e55565b600060f81b90505b6000617e5f618651565b90508060010160009054906101000a900473ffffffffffffffffffffffffffffffffffffffff1673ffffffffffffffffffffffffffffffffffffffff1663117b2f388787856040518463ffffffff1660e01b8152600401617ec29392919061a0e0565b6020604051808303816000875af1158015617ee1573d6000803e3d6000fd5b505050506040513d601f19601f82011682018060405250810190617f05919061a013565b925050509392505050565b6000617f1b826173cb565b617f2c57617f2960006173a5565b91505b617f37826008618731565b9050919050565b6000808215617f5357600160f81b9050617f5b565b600060f81b90505b6000617f65618651565b90508060010160009054906101000a900473ffffffffffffffffffffffffffffffffffffffff1673ffffffffffffffffffffffffffffffffffffffff166391f98ffe8787856040518463ffffffff1660e01b8152600401617fc89392919061a0e0565b6020604051808303816000875af1158015617fe7573d6000803e3d6000fd5b505050506040513d601f19601f8201168201806040525081019061800b919061a013565b925050509392505050565b600080821561802b57600160f81b9050618033565b600060f81b90505b600061803d618651565b90508060010160009054906101000a900473ffffffffffffffffffffffffffffffffffffffff1673ffffffffffffffffffffffffffffffffffffffff1663d99882d58787856040518463ffffffff1660e01b81526004016180a09392919061a0e0565b6020604051808303816000875af11580156180bf573d6000803e3d6000fd5b505050506040513d601f19601f820116820180604052508101906180e3919061a013565b925050509392505050565b600080821561810357600160f81b905061810b565b600060f81b90505b6000618115618651565b90508060010160009054906101000a900473ffffffffffffffffffffffffffffffffffffffff1673ffffffffffffffffffffffffffffffffffffffff16636754b3608787856040518463ffffffff1660e01b81526004016181789392919061a0e0565b6020604051808303816000875af1158015618197573d6000803e3d6000fd5b505050506040513d601f19601f820116820180604052508101906181bb919061a013565b925050509392505050565b600080600160f81b905060006181da618651565b90508060010160009054906101000a900473ffffffffffffffffffffffffffffffffffffffff1673ffffffffffffffffffffffffffffffffffffffff1663cf4d18aa8686856040518463ffffffff1660e01b815260040161823d9392919061a0e0565b6020604051808303816000875af115801561825c573d6000803e3d6000fd5b505050506040513d601f19601f82011682018060405250810190618280919061a013565b9250505092915050565b6000618295826176c0565b6182a6576182a36000617691565b91505b6182b1826006618731565b9050919050565b6000806182c3618651565b90508060010160009054906101000a900473ffffffffffffffffffffffffffffffffffffffff1673ffffffffffffffffffffffffffffffffffffffff1663f51ccfb0846040518263ffffffff1660e01b8152600401618322919061a255565b6020604051808303816000875af1158015618341573d6000803e3d6000fd5b505050506040513d601f19601f82011682018060405250810190618365919061a013565b915050919050565b600080821561838257600160f81b905061838a565b600060f81b90505b6000618394618651565b90508060010160009054906101000a900473ffffffffffffffffffffffffffffffffffffffff1673ffffffffffffffffffffffffffffffffffffffff166357f0a5688787856040518463ffffffff1660e01b81526004016183f79392919061a0e0565b6020604051808303816000875af1158015618416573d6000803e3d6000fd5b505050506040513d601f19601f8201168201806040525081019061843a919061a013565b925050509392505050565b6000618450826176c0565b6184615761845e6000617691565b91505b61846c826005618731565b9050919050565b600080821561848857600160f81b9050618490565b600060f81b90505b600061849a618651565b90508060010160009054906101000a900473ffffffffffffffffffffffffffffffffffffffff1673ffffffffffffffffffffffffffffffffffffffff1663c021329e8787856040518463ffffffff1660e01b81526004016184fd9392919061a0e0565b6020604051808303816000875af115801561851c573d6000803e3d6000fd5b505050506040513d601f19601f82011682018060405250810190618540919061a013565b925050509392505050565b600080821561856057600160f81b9050618568565b600060f81b90505b6000618572618651565b90508060010160009054906101000a900473ffffffffffffffffffffffffffffffffffffffff1673ffffffffffffffffffffffffffffffffffffffff16631391547f8787856040518463ffffffff1660e01b81526004016185d59392919061a0e0565b6020604051808303816000875af11580156185f4573d6000803e3d6000fd5b505050506040513d601f19601f82011682018060405250810190618618919061a013565b925050509392505050565b600061862e826176d0565b61863f5761863c60006176a9565b91505b61864a826008618731565b9050919050565b60007f9e7b61f58c47dc699ac88507c4f5bb9f121c03808c5676a8078fe583e4649700905090565b600080618684618651565b90508060010160009054906101000a900473ffffffffffffffffffffffffffffffffffffffff1673ffffffffffffffffffffffffffffffffffffffff16639cd07acb85856040518363ffffffff1660e01b81526004016186e592919061a27f565b6020604051808303816000875af1158015618704573d6000803e3d6000fd5b505050506040513d601f19601f82011682018060405250810190618728919061a013565b91505092915050565b60008061873c618651565b90508060010160009054906101000a900473ffffffffffffffffffffffffffffffffffffffff1673ffffffffffffffffffffffffffffffffffffffff16631c89ee4485856040518363ffffffff1660e01b815260040161879d92919061a2a8565b6020604051808303816000875af11580156187bc573d6000803e3d6000fd5b505050506040513d601f19601f820116820180604052508101906187e0919061a013565b91505092915050565b600080fd5b600080fd5b6000819050919050565b618806816187f3565b811461881157600080fd5b50565b600081359050618823816187fd565b92915050565b618832816187f3565b811461883d57600080fd5b50565b60008135905061884f81618829565b92915050565b600080fd5b600080fd5b600080fd5b60008083601f84011261887a57618879618855565b5b8235905067ffffffffffffffff8111156188975761889661885a565b5b6020830191508360018202830111156188b3576188b261885f565b5b9250929050565b600080600080606085870312156188d4576188d36187e9565b5b60006188e287828801618814565b94505060206188f387828801618840565b935050604085013567ffffffffffffffff811115618914576189136187ee565b5b61892087828801618864565b925092505092959194509250565b600067ffffffffffffffff82169050919050565b61894b8161892e565b811461895657600080fd5b50565b60008135905061896881618942565b92915050565b618977816187f3565b811461898257600080fd5b50565b6000813590506189948161896e565b92915050565b600080600080606085870312156189b4576189b36187e9565b5b60006189c287828801618959565b94505060206189d387828801618985565b935050604085013567ffffffffffffffff8111156189f4576189f36187ee565b5b618a0087828801618864565b925092505092959194509250565b618a17816187f3565b8114618a2257600080fd5b50565b600081359050618a3481618a0e565b92915050565b60008060008060608587031215618a5457618a536187e9565b5b6000618a6287828801618a25565b9450506020618a7387828801618a25565b935050604085013567ffffffffffffffff811115618a9457618a936187ee565b5b618aa087828801618864565b925092505092959194509250565b60008060008060608587031215618ac857618ac76187e9565b5b6000618ad687828801618985565b9450506020618ae787828801618814565b935050604085013567ffffffffffffffff811115618b0857618b076187ee565b5b618b1487828801618864565b925092505092959194509250565b60006fffffffffffffffffffffffffffffffff82169050919050565b618b4781618b22565b8114618b5257600080fd5b50565b600081359050618b6481618b3e565b92915050565b60008060008060608587031215618b8457618b836187e9565b5b6000618b9287828801618a25565b9450506020618ba387828801618b55565b935050604085013567ffffffffffffffff811115618bc457618bc36187ee565b5b618bd087828801618864565b925092505092959194509250565b618be7816187f3565b8114618bf257600080fd5b50565b600081359050618c0481618bde565b92915050565b618c13816187f3565b8114618c1e57600080fd5b50565b600081359050618c3081618c0a565b92915050565b60008060008060608587031215618c5057618c4f6187e9565b5b6000618c5e87828801618bf5565b9450506020618c6f87828801618c21565b935050604085013567ffffffffffffffff811115618c9057618c8f6187ee565b5b618c9c87828801618864565b925092505092959194509250565b60008060008060608587031215618cc457618cc36187e9565b5b6000618cd287828801618c21565b9450506020618ce387828801618a25565b935050604085013567ffffffffffffffff811115618d0457618d036187ee565b5b618d1087828801618864565b925092505092959194509250565b60008060008060608587031215618d3857618d376187e9565b5b6000618d4687828801618bf5565b9450506020618d5787828801618814565b935050604085013567ffffffffffffffff811115618d7857618d776187ee565b5b618d8487828801618864565b925092505092959194509250565b60008060008060608587031215618dac57618dab6187e9565b5b6000618dba87828801618a25565b9450506020618dcb87828801618c21565b935050604085013567ffffffffffffffff811115618dec57618deb6187ee565b5b618df887828801618864565b925092505092959194509250565b60008060008060608587031215618e2057618e1f6187e9565b5b6000618e2e87828801618a25565b9450506020618e3f87828801618814565b935050604085013567ffffffffffffffff811115618e6057618e5f6187ee565b5b618e6c87828801618864565b925092505092959194509250565b6000819050919050565b618e8d81618e7a565b8114618e9857600080fd5b50565b600081359050618eaa81618e84565b92915050565b60008060008060608587031215618eca57618ec96187e9565b5b6000618ed887828801618e9b565b9450506020618ee987828801618840565b935050604085013567ffffffffffffffff811115618f0a57618f096187ee565b5b618f1687828801618864565b925092505092959194509250565b60008060008060608587031215618f3e57618f3d6187e9565b5b6000618f4c87828801618985565b9450506020618f5d87828801618985565b935050604085013567ffffffffffffffff811115618f7e57618f7d6187ee565b5b618f8a87828801618864565b925092505092959194509250565b60008060008060608587031215618fb257618fb16187e9565b5b6000618fc087828801618bf5565b9450506020618fd187828801618840565b935050604085013567ffffffffffffffff811115618ff257618ff16187ee565b5b618ffe87828801618864565b925092505092959194509250565b60008060008060608587031215619026576190256187e9565b5b600061903487828801618985565b945050602061904587828801618a25565b935050604085013567ffffffffffffffff811115619066576190656187ee565b5b61907287828801618864565b925092505092959194509250565b600061908b826187f3565b9050919050565b61909b81619080565b82525050565b60006020820190506190b66000830184619092565b92915050565b600080600080606085870312156190d6576190d56187e9565b5b60006190e487828801618985565b94505060206190f587828801618c21565b935050604085013567ffffffffffffffff811115619116576191156187ee565b5b61912287828801618864565b925092505092959194509250565b6000806000806060858703121561914a576191496187e9565b5b600061915887828801618814565b945050602061916987828801618c21565b935050604085013567ffffffffffffffff81111561918a576191896187ee565b5b61919687828801618864565b925092505092959194509250565b600063ffffffff82169050919050565b6191bd816191a4565b81146191c857600080fd5b50565b6000813590506191da816191b4565b92915050565b600080600080606085870312156191fa576191f96187e9565b5b6000619208878288016191cb565b945050602061921987828801618814565b935050604085013567ffffffffffffffff81111561923a576192396187ee565b5b61924687828801618864565b925092505092959194509250565b6000806000806060858703121561926e5761926d6187e9565b5b600061927c87828801618840565b945050602061928d87828801618a25565b935050604085013567ffffffffffffffff8111156192ae576192ad6187ee565b5b6192ba87828801618864565b925092505092959194509250565b600080600080606085870312156192e2576192e16187e9565b5b60006192f087828801618814565b945050602061930187828801618985565b935050604085013567ffffffffffffffff811115619322576193216187ee565b5b61932e87828801618864565b925092505092959194509250565b60008060008060608587031215619356576193556187e9565b5b600061936487828801618985565b945050602061937587828801618959565b935050604085013567ffffffffffffffff811115619396576193956187ee565b5b6193a287828801618864565b925092505092959194509250565b600080600080606085870312156193ca576193c96187e9565b5b60006193d887828801618b55565b94505060206193e987828801618a25565b935050604085013567ffffffffffffffff81111561940a576194096187ee565b5b61941687828801618864565b925092505092959194509250565b6000806000806060858703121561943e5761943d6187e9565b5b600061944c87828801618a25565b945050602061945d87828801618bf5565b935050604085013567ffffffffffffffff81111561947e5761947d6187ee565b5b61948a87828801618864565b925092505092959194509250565b6000806000604084860312156194b1576194b06187e9565b5b60006194bf86828701618840565b935050602084013567ffffffffffffffff8111156194e0576194df6187ee565b5b6194ec86828701618864565b92509250509250925092565b600060ff82169050919050565b61950e816194f8565b811461951957600080fd5b50565b60008135905061952b81619505565b92915050565b6000806000806060858703121561954b5761954a6187e9565b5b600061955987828801618c21565b945050602061956a8782880161951c565b935050604085013567ffffffffffffffff81111561958b5761958a6187ee565b5b61959787828801618864565b925092505092959194509250565b600080600080606085870312156195bf576195be6187e9565b5b60006195cd87828801618840565b94505060206195de87828801618e9b565b935050604085013567ffffffffffffffff8111156195ff576195fe6187ee565b5b61960b87828801618864565b925092505092959194509250565b60008060008060608587031215619633576196326187e9565b5b600061964187828801618bf5565b945050602061965287828801618985565b935050604085013567ffffffffffffffff811115619673576196726187ee565b5b61967f87828801618864565b925092505092959194509250565b61969681619080565b82525050565b60006020820190506196b1600083018461968d565b92915050565b600080600080606085870312156196d1576196d06187e9565b5b60006196df87828801618814565b94505060206196f0878288016191cb565b935050604085013567ffffffffffffffff811115619711576197106187ee565b5b61971d87828801618864565b925092505092959194509250565b60008060008060608587031215619745576197446187e9565b5b600061975387828801618c21565b945050602061976487828801618985565b935050604085013567ffffffffffffffff811115619785576197846187ee565b5b61979187828801618864565b925092505092959194509250565b600061ffff82169050919050565b6197b68161979f565b81146197c157600080fd5b50565b6000813590506197d3816197ad565b92915050565b600080600080606085870312156197f3576197f26187e9565b5b600061980187828801618bf5565b9450506020619812878288016197c4565b935050604085013567ffffffffffffffff811115619833576198326187ee565b5b61983f87828801618864565b925092505092959194509250565b60008060008060608587031215619867576198666187e9565b5b600061987587828801618bf5565b945050602061988687828801618bf5565b935050604085013567ffffffffffffffff8111156198a7576198a66187ee565b5b6198b387828801618864565b925092505092959194509250565b600080600080606085870312156198db576198da6187e9565b5b60006198e987828801618840565b94505060206198fa87828801618814565b935050604085013567ffffffffffffffff81111561991b5761991a6187ee565b5b61992787828801618864565b925092505092959194509250565b6000806000806060858703121561994f5761994e6187e9565b5b600061995d87828801618840565b945050602061996e87828801618bf5565b935050604085013567ffffffffffffffff81111561998f5761998e6187ee565b5b61999b87828801618864565b925092505092959194509250565b600080600080606085870312156199c3576199c26187e9565b5b60006199d18782880161951c565b94505060206199e287828801618c21565b935050604085013567ffffffffffffffff811115619a0357619a026187ee565b5b619a0f87828801618864565b925092505092959194509250565b60008060008060608587031215619a3757619a366187e9565b5b6000619a4587828801618c21565b9450506020619a5687828801618c21565b935050604085013567ffffffffffffffff811115619a7757619a766187ee565b5b619a8387828801618864565b925092505092959194509250565b619a9a81619080565b82525050565b6000602082019050619ab56000830184619a91565b92915050565b60008060008060608587031215619ad557619ad46187e9565b5b6000619ae387828801618a25565b9450506020619af487828801618985565b935050604085013567ffffffffffffffff811115619b1557619b146187ee565b5b619b2187828801618864565b925092505092959194509250565b619b3881619080565b82525050565b6000602082019050619b536000830184619b2f565b92915050565b619b6281619080565b82525050565b6000602082019050619b7d6000830184619b59565b92915050565b60008060008060608587031215619b9d57619b9c6187e9565b5b6000619bab87828801618a25565b9450506020619bbc8782880161951c565b935050604085013567ffffffffffffffff811115619bdd57619bdc6187ee565b5b619be987828801618864565b925092505092959194509250565b60008060008060608587031215619c1157619c106187e9565b5b6000619c1f87828801618a25565b9450506020619c3087828801618840565b935050604085013567ffffffffffffffff811115619c5157619c506187ee565b5b619c5d87828801618864565b925092505092959194509250565b619c7481619080565b82525050565b6000602082019050619c8f6000830184619c6b565b92915050565b60008060008060608587031215619caf57619cae6187e9565b5b6000619cbd87828801618814565b9450506020619cce87828801618bf5565b935050604085013567ffffffffffffffff811115619cef57619cee6187ee565b5b619cfb87828801618864565b925092505092959194509250565b60008060008060608587031215619d2357619d226187e9565b5b6000619d3187828801618840565b9450506020619d4287828801618c21565b935050604085013567ffffffffffffffff811115619d6357619d626187ee565b5b619d6f87828801618864565b925092505092959194509250565b60008060008060608587031215619d9757619d966187e9565b5b6000619da587828801618814565b9450506020619db687828801618a25565b935050604085013567ffffffffffffffff811115619dd757619dd66187ee565b5b619de387828801618864565b925092505092959194509250565b619dfa81619080565b82525050565b6000602082019050619e156000830184619df1565b92915050565b619e24816187f3565b82525050565b600073ffffffffffffffffffffffffffffffffffffffff82169050919050565b6000619e5582619e2a565b9050919050565b619e6581619e4a565b82525050565b6000604082019050619e806000830185619e1b565b619e8d6020830184619e5c565b9392505050565b600081519050919050565b600082825260208201905092915050565b60005b83811015619ece578082015181840152602081019050619eb3565b60008484015250505050565b6000601f19601f8301169050919050565b6000619ef682619e94565b619f008185619e9f565b9350619f10818560208601619eb0565b619f1981619eda565b840191505092915050565b7f4e487b7100000000000000000000000000000000000000000000000000000000600052602160045260246000fd5b60548110619f6457619f63619f24565b5b50565b6000819050619f7582619f53565b919050565b6000619f8582619f67565b9050919050565b619f9581619f7a565b82525050565b6000608082019050619fb06000830187619e1b565b619fbd6020830186619e5c565b8181036040830152619fcf8185619eeb565b9050619fde6060830184619f8c565b95945050505050565b619ff0816187f3565b8114619ffb57600080fd5b50565b60008151905061a00d81619fe7565b92915050565b60006020828403121561a0295761a0286187e9565b5b600061a03784828501619ffe565b91505092915050565b60008115159050919050565b61a0558161a040565b811461a06057600080fd5b50565b60008151905061a0728161a04c565b92915050565b60006020828403121561a08e5761a08d6187e9565b5b600061a09c8482850161a063565b91505092915050565b60007fff0000000000000000000000000000000000000000000000000000000000000082169050919050565b61a0da8161a0a5565b82525050565b600060608201905061a0f56000830186619e1b565b61a1026020830185619e1b565b61a10f604083018461a0d1565b949350505050565b7f4e487b7100000000000000000000000000000000000000000000000000000000600052604160045260246000fd5b7f4e487b7100000000000000000000000000000000000000000000000000000000600052603260045260246000fd5b600081519050919050565b600082825260208201905092915050565b6000819050602082019050919050565b61a1aa816187f3565b82525050565b600061a1bc838361a1a1565b60208301905092915050565b6000602082019050919050565b600061a1e08261a175565b61a1ea818561a180565b935061a1f58361a191565b8060005b8381101561a22657815161a20d888261a1b0565b975061a2188361a1c8565b92505060018101905061a1f9565b5085935050505092915050565b6000602082019050818103600083015261a24d818461a1d5565b905092915050565b600060208201905061a26a6000830184619e1b565b92915050565b61a27981618e7a565b82525050565b600060408201905061a294600083018561a270565b61a2a16020830184619f8c565b9392505050565b600060408201905061a2bd6000830185619e1b565b61a2ca6020830184619f8c565b939250505056fea2646970667358221220262b2b3273b4648b68ba2771430684db25b76179009420a7ca4ba05eb5974fdc64736f6c63430008180033",
  "linkReferences": {},
  "deployedLinkReferences": {}
}